:020000040000FA
:060000000212980207BB8A
:03002B000210BF01
:03003300020E704A
:03004300020F5B4E
:030053000206ECB6
:03006B00020E562C
:100083000207500101FF0503013018301830183002
:1000930018EC16E6163018F92B000000005B2C0054
:1000A3000000000C0000000C0001040000101A0006
:1000B3000000000000D01A00000000000000000053
:1000C30000FFFF010101010021050000007205E8A6
:1000D3000364006400B8010202000800000502077F
:1000E300051E02051E0A03B80B020102F1FF021FDF
:1000F30000E0079651180002020612303132333401
:10010300353637383941424344454600286E756CCD
:100113006C20706F696E74657229003F3F3F000069
:1001230000807F0000803FF9021550B743BA5100A9
:1001330000204100E7DB2E0000A040100000000873
:100143000000000A0000001212E460461212B760B9
:100153003DE9687008F618F618F618F622748067F9
:10016300F712017E090909748067F7221212B7603A
:100173001D1212E47005191919801A121131701F1A
:1001830012115BC37003E667331919194007181876
:10019300182208080874FFF618F618F618F6221243
:1001A300115B6017121323702192F012132D701933
:1001B300501720F014080808090909E7F61819E789
:1001C300F61819E7F61819E7F62212132D60E6E878
:1001D30069701F0808E62480F608E436F618547F91
:1001E300B47F0CE654806007F6E418F618F622187C
:1001F3001822E9C6CC08C6CD08C6CE08C6CFC0E0D3
:10020300E8C0E0EAC0E0EBC0E009E9F809E7FA0971
:10021300E7FBE6F918E6F8C3EC98ED99EE9AEBC222
:10022300E7F5F0EFC2E795F0500E600CEBCFFBEA79
:10023300CEFAE9CDF9E8CCF8EAA2E7D2E7FAEB3354
:10024300FB13F5F0EEA2E7D2E7FEEF33FFC5F013A1
:10025300A2E730E601B313C5F0C3C0E0C0F07F00EE
:10026300C39BFB605B9418600C401AD0E023F9D069
:10027300E0F802034D8AF0E9486003D2F0E4AFF0FE
:10028300FAF9F8803BEB30E40D89F0EA6003D2F031
:10029300E4AFF0F9CAF8EB30E30D88F0EF6002D277
:1002A300F0AFF0E4CAC9F8EB54076014FBC3EA13D8
:1002B300FAE913F9E813F8EF135002D2E0FFDBED8C
:1002C300D0E0C0E030E739C3E49FFFF5F0EC98FCE1
:1002D30042F0ED99FD42F0EE9AFE42F0D0E0F9D003
:1002E300E0F8E5F0607AE923F9EE20E742D80280EE
:1002F30067C3EF33FFEC33FCED33FDEE33FE80EAEF
:10030300EC28FCED39FDEE3AFED0E023F9D0E0F81D
:100313004002801BC3EE13FEED13FDEC13FCEF1341
:100323005002D2E0FF08B800067F7F74FF802EEFF3
:100333003350178CF020F00260100CBC000C0DBD84
:1003430000080EBE000408E860DFE933E813FFEE9F
:100353002313FE4F4D4C8008E95480FFE4FEFDFC5F
:10036300EE33EF33F47004FCFD7E80D0E0FBD0E08D
:10037300FAD0E0F8D0E0CFC618CEC618CDC618CC58
:10038300C6F9221212B77004181818221212E47058
:100393000D74FFF61819F61819F61819F622E75412
:1003A3008066F612132D700F12132370F014F608E3
:1003B300F608F608F680D1121323700CF608F60837
:1003C300768008E6447F80EC12115E700C121134C3
:1003D30060BFE65480F6E480BB121134700519192E
:1003E3001980A5E869700C763F18768018F618F620
:1003F300E8F922E6CDC0E018ECC0E0E633CD33CD1A
:10040300D313F6E719FCE7191933CC33C3947F40B0
:100413000ECD9D502408E65480F6E418F6800FF4C0
:10042300043D14501408E6447FF6187680E418F669
:1004330018F6D0E0FCD0E0FD22CCD313CCFD18E4B9
:10044300C6CBC0E018E4C6CAC0E00808ED08C6334E
:10045300E613F618E433C675F003C3CA97CA09CB8B
:1004630097CB199C40047D08802EBD000302052F05
:1004730016B6FF050606081618C3CA33CACB33CB14
:1004830033CA27CA09CB37CB193CC37D08803E1832
:100493007D0820E75CC633C6CA33CACB33CB33DD12
:1004A300F1D5F0EB30E77BCA97CA09CB974ACB1952
:1004B3009C406F4B7025E620E0218066187D08C3C1
:1004C300CA97CA09CB97CB199CD3C633C6CA33CABA
:1004D300CB33CB3350C9DDE7D5F0E1D3E4C636C621
:1004E30008C636C608C636C608C636C618181880E3
:1004F30031C3CA97CA09CB97CB199CB34097C6336C
:10050300C6CA33CACB33CB33DD34D5F02EC6A2E013
:10051300C640C8CA27CA09CB37194A70BECB3CB4F8
:1005230080B90808E63308E633601F181818D0E0CE
:10053300FAD0E0FBD0E0FCD0E0FD22187D08CA270A
:10054300CA09CB37CB193CD3808013F618E4B67FA6
:1005530011F618B6FF0EF618C60470D20808768096
:1005630080CAF618F618F680C5001212B7604F124B
:1005730012E46012E7548066F612113170111213FF
:1005830023703B090909F4F618F618F618F6221237
:10059300115B701512132D08080860EAE6447FF614
:1005A30018768018E4F618F62212132D601612132B
:1005B300237012E4F608F608F608E65480F60909F3
:1005C3000918181822EAC0E0EBC0E0ECC0E0EDC067
:1005D300E0E687F0A4FBACF008E687F0A42CFCE48B
:1005E30035F0FA1809E687F0A42C4B60027401CAAF
:1005F30035F0FCE433FB09E687F0D2F7A42CCB35C6
:10060300F0FC1908E687F0A42BCC35F0FBE433FDAE
:100613000819E687F0D2E7A42C4ACB35F0CD340095
:10062300FC09E687F0D2E7A42DCC35F0FDE433FADC
:100633000918E687F0D2F7A42CCD35F0CA3400FCB4
:1006430008E687F0D2E7D2F7A42ACC35F07A7E20E9
:10065300E70B0ACB33CBCD33CDCC33CC33CB3350B9
:10066300147004ED30E00ED2F1E4CD3DCDCC3CCCA2
:100673003B5005DA05C2F1EB547FC63308E63392EB
:10068300F0FBE73309E733C39A502D2B70190C0D98
:100693004C4D70151806E608C333700D20F10AA2FD
:1006A300F013F6E418800B4024E4F630F002768071
:1006B30018F618F618F68024D33B14501074FFA2D2
:1006C300F013F6187680E418F618F6800FA2F013EC
:1006D300F618E63303F618ECF618EDF6D0E0FDD085
:1006E300E0FCD0E0FBD0E0FA22C0E074F2120ADBB7
:1006F300A2AFE433FED2AFE5A7FFE5A1F5085F544F
:1007030010600612214275A1EFE5085F54086008E6
:1007130012214875A1F7802BEFA2E0C0D0E508A213
:10072300E092F01211E6158182F05017906198E083
:10073300F890084BE0C398A2D265D0335002E8F09A
:1007430075A1FEEEA2E092AF7F01020B3AC0E07406
:10075300F2120ADBA2AFE433FED2AF9061A4E0F859
:10076300759B00E59158540860087591F712219024
:10077300802AE59158541060087591EF12219680F4
:100783001BE8A2E0C0D0E591A2E092F01211E615B9
:100793008182F05007E0C2E0F01222DA9061A3E018
:1007A300F8E5E9585404600E1222B075E9FB906134
:1007B30093E0A2E640F2808BC0E074F2120ADBA25F
:1007C300AFE433FED2AF9061A5E0F8E5BF5854041F
:1007D300600675BFFB1222F2020746C3E498F8E4F1
:1007E30099F912081F8026C3E49AFAE49BFBE920D7
:1007F300E7E912081FE498F8E499F922C3E498F8AA
:10080300E499F912081FE498F8E499F9C3E49AFA11
:10081300E49BFB22EB20E7CFE920E7E0B90010BB24
:100823000008E88AF084F8AAF022E4FBC8FA22EB75
:1008330070227B10C833C8C933C9335007C39AC366
:10084300DBF280069A50012ADBEAC833F4C8C933C5
:10085300F4C9FA2275F008E4C833C8C933C933C9E7
:100863009AC99B5004C92AC93BD5F0ECFBC833F4A1
:10087300C8E4C9FA221208B820F01430E72B74FF39
:10088300FCFBFA747F8022E4FCFBFA7480801AB4C8
:100893008008BC00F2BB00EF800F50EBF9E4C39A71
:1008A300FAE49BFBE49CFCE499C6CC18C6CB18C6BF
:1008B300CA18C6F922E4C9C608CAC608CBC6D333C8
:1008C3000308CCC63392F0C3947F402E941840198A
:1008D300C9B90704CACBCC225025C309CA33CACB32
:1008E30033CBCC33CC33D9F422F4600DC9CCC3134E
:1008F300CB13CBCA13CAD9F6CC22E4FCFBFA2214DD
:10090300FCFBFA22080808EAC0E0EBC0E086F0E747
:10091300A4FA180986F0E7A42AFA180986F0E7A4CE
:100923002AFA180986F0E7A42AFA1986F0E7A4FB45
:10093300E5F02AFA190886F0E7A42BFBE5F03AFA6A
:10094300190886F0E7A42BFBE5F03AFA1818098694
:10095300F0E7A4C5F02BFBE43AFA1908E7C5F0C6A3
:10096300A426F6E5F03BFBE43AFA1886F0E7A4F692
:10097300E5F00826F6E43B08F6E43A08F6D0E0FB97
:10098300D0E0FA22080808E630E71112119912099B
:100993009F080808C64480C618181822181818E9B2
:1009A300799EC608CAC608CBC608CCC6C3702079D0
:1009B30096CACBCC7019798ECBCC70137986CC7058
:1009C3000EF9802ACA33CACB33CBCC33CC3319309C
:1009D300E7F2CCCBCA3350147004EA30E00DE4CA1A
:1009E3003ACACB3BCBCC3CCC500209C3E913C6CCAF
:1009F300182313C6CB18C6CA18C6F922E4CFC0E021
:100A0300E4CEC0E0E4CDC0E0E4CCC0E075F020C3A8
:100A1300E633F608E633F608E633F608E633F61867
:100A23001818EC33FCED33FDEE33FEEF33FFC3EC6C
:100A33009709ED9709EE9709EF97191919400FFFD9
:100A4300EC97FC09ED97FD09EE97FE191906D5F011
:100A5300BEECF709EDF709EEF709EFF7191919D00D
:100A6300E0FCD0E0FDD0E0FED0E0FF222518C582F7
:100A7300C0E0E51934FFC583C0E0E518C3958224BF
:100A8300F810AF0885831985821880088583198536
:100A93008218D2AFCEF0A3E520F0A37808E608F0E1
:100AA300A3DEFAEFF0A3E58124FAF8E608F0A3E663
:100AB30008F0A3E608F0A30808E608F0A3E608F0A8
:100AC300A315811581D0E0FED0E0F81581158115BD
:100AD30081E8C0E0EEC0E022C0D02518C582C0E0A6
:100AE300E51934FFC583C0E0E518C3958224F310EC
:100AF300AF08858319858218800885831985821834
:100B0300D2AFC8F0A3E9F0A3EAF0A3EBF0A379080E
:100B1300E709F0A3D8FAECF0A3EDF0A3EEF0A3EF0E
:100B2300F0A3D0E0F0A3D0E0F0A3D0E0F0A3E52061
:100B3300F0A3E5F0F0A322851983851882E0C0E0D5
:100B4300A3E0F9A3E0FAA3E0FBA37808E0F608A387
:100B5300DFFAE0FCA3E0FDA3E0FEA3E0FFA3E0C017
:100B6300E0A3E0C0E0A3E0F5D0A3E0F520A3E0A379
:100B7300F5F010AF088583198582188008858319DD
:100B8300858218D2AFD082D083D0E0F8D0E0321281
:100B93001318B90003020BD4E490030178A2790A75
:100BA3008002F0A3D8FCD9FA900CA2AA82AB83905E
:100BB300008678C579018015E493A3AC82AD838A5E
:100BC300828B83F0A3AA82AB838C828D83D8E9D9ED
:100BD300E775827D7583B8740312101E7582F875EC
:100BE3008325740012101EE80375F0108E1A8F1BF4
:100BF30085821F85831E851882851983E0CEA3E035
:100C0300CF851F82851E83EBC9EAC8EDCBECCAC32F
:100C1300E833C8E933C9EA33CAEB33CBC3EA9EF5F9
:100C23001DEB9FF51CB35004AB1CAA1DEC33CCED9C
:100C330033CDD5F0DAAE1AAF1B221212B7601C12F5
:100C430012E4601712132D70071213237001D322BD
:100C5300C0D01213237006D0D0B322C32233D0D016
:100C6300501430E0F6C3E7960809E7960809E796BB
:100C73000809E796B32220E0D5E6970809E6970826
:100C830009E6970809E697B3221212B7601B1212FE
:100C9300E4601612132D7007121323600CB322C0E5
:100CA300D01213237005D0D022C32233D0D05013D7
:100CB30030E0EBC3E7960809E7960809E7960809C9
:100CC300E7962220E0E4E6970809E6970809E69705
:100CD3000809E69722D083D082ECC0E0EDC0E0E4BF
:100CE30093A3FCE493A3FDED4C600D120DB0EC2433
:100CF300FFFCED34FFFD80EFE493A3FCE493A3FD3D
:100D0300ED4C600D120EE0EC24FFFCED34FFFD8092
:100D1300EFD0E0FDD0E0FCE493A3C0E0E493C0E0B7
:100D230022851983851882E0A3FEE0A3F5207808C5
:100D3300E0A3F608DFFAE0A3FFE0A3C0E0E0A3C06E
:100D4300E0E0A3C0E0E0A3C0E0E0A3C0E010AF0890
:100D53008582188583198008858218858319D2AF07
:100D6300D083D082021024D083D082E9C0E0E49300
:100D7300A3C386F0C5F095F0F908E493A386F0C504
:100D8300F095F0700BE493A3C3994005E904800246
:100D9300A3E475F002A42582F582E5F03583F5839B
:100DA300D0E0F9E493A3C0E0E493C0E022C0E0C341
:100DB300E49396087401939618400FE493667008C1
:100DC30008740193661870007019A3A3C3E4939683
:100DD300087401939618A3A3400DD0E0D0E0D0E0AF
:100DE300020D14A3A3A3A3A3A3D0E022D083D08294
:100DF300C5F0E493A3C5F0C395F0F5F0E493A3C362
:100E030095F04005E5F0048001E475F002A4258225
:100E1300F582E5F03583F583E493A3C0E0E493C062
:100E2300E0227404800474028000CCC0E0EDC0E0D2
:100E3300E518C39CCCAD1950011D10AF068C188D5D
:100E43001980068C188D19D2AF120FA0D0E0FDD0F7
:100E5300E0FC22C0E074F2120ADBE589A2E1500350
:100E6300121FFE758900C2C57F01020B3AC0E074F0
:100E7300F2120ADBE58BA2E05003121FFE758B0012
:100E8300C2E880E474028000CCC0E0EDC0E0E51865
:100E9300C39CCCAD1950011D10AF068C188D198061
:100EA300068C188D19D2AF120F7ED0E0FDD0E0FC76
:100EB300221212B760251212E4602012132D700360
:100EC300021323080808E76670101819E766700A0A
:100ED3001819E76670041819E76622F422C0E0C007
:100EE300F088F0E493667008087401936618700044
:100EF300A8F0A3A3700BD0F0D0E0D0E0D0E0020DB7
:100F030014A3A3D0F0D0E022D083D082CCC0E0E4FD
:100F130093A36006120FC11470FAE493A360061240
:100F230010F01470FAD0E0FCE493A3C0E0E493C0A3
:100F3300E022C008C3E096F50808A3E0964208083B
:100F4300A3E096420808A3E0964208A2D265D033F4
:100F5300E5087001D3D00822C0E074F2120ADBA2C4
:100F6300AFE433FED2AFC2C0E5D1A2E450031220F6
:100F7300B8EEA2E092AF7F01020B3ACAC0E0E4935D
:100F8300A3C582CCC582C583CDC583F0A3C582CC5E
:100F9300C582C583CDC583DAE5D0E0CA22CAC0E0E5
:100FA300E0A3C582CCC582C583CDC583F0A3C5822A
:100FB300CCC582C583CDC583DAE6D0E0CA22C0E0C2
:100FC300E493A3D39C5010E493A3C39C400AD0E0C2
:100FD300D0E0D0E0020F28A3A3A3D0E02270090839
:100FE3000808226016181818C6C333C608C633C6C5
:100FF30008C633C608C633C6D5E0EA22C008C3E034
:1010030096F50808A3E096420808A3E0964208086C
:10101300A3E09645087001D3D00822C09FF59FE452
:1010230073D09F22D083D082C09FE493C0E0740129
:1010330093C0E0740293F59F227404800A740380C2
:1010430006740280027401C0E0F404121057D0E069
:101053001212F3222518F58210AF08F51840021575
:10106300198008F51840021519D2AF85198322C0DB
:10107300D0251810AF08F518500205198008F51887
:1010830050020519D2AFD0D022BB0102E722C082A1
:10109300C08389828A83BB0003E08002E493D08308
:1010A300D082226016080808C6C313C618C613C622
:1010B30018C613C618C613C6D5E0EA22C0E0C0D0CE
:1010C300E8C0E0E5A8D2AFC2C7A2E792AFD0E0F88C
:1010D300D0D0D0E032C3E0C696F608A3E0C696F6B9
:1010E30008A3E0C696F608A3E0C696F622C0E0E49D
:1010F30093A36C7009D0E0D0E0D0E0020F28A3A343
:10110300D0E022251810AF08F51840021519800801
:10111300F51840021519D2AF22E066701008A3E05B
:1011230066700A08A3E066700408A3E06622181834
:1011330018E6084608700AE608C3337005E633F478
:10114300220822E76670100809E766700A0809E7B3
:101153006670040809E76622191919E70947097037
:101163000AE709C3337005E733F4220922C3E09683
:1011730008A3E09608A3E09608A3E096A2D265D060
:101183003322C3E096F008A3E096F008A3E096F0BC
:1011930008A3E096F022181818E4C396F608E4961C
:1011A300F608E496F608E496F622E026F608A3E0AD
:1011B30036F608A3E036F608A3E036F622E026F07A
:1011C30008A3E036F008A3E036F008A3E036F022E7
:1011D300E627F60809E637F60809E637F60809E6CA
:1011E30037F622C0E0E8C0E0E58124FCF8E6A2E798
:1011F300D0E0F8D0E022E657F60809E657F60809EA
:10120300E657F60809E657F622E056F608A3E05635
:10121300F608A3E056F608A3E056F622E647F608DA
:1012230009E647F60809E647F60809E647F6227095
:101233000422600D18C6C333C608C633C6D5E0F40E
:101243001822E056F008A3E056F008A3E056F00891
:10125300A3E056F022C3E09608A3E09608A3E09625
:1012630008A3E09622C6F4C608C6F4C608C6F4C6A8
:1012730008C6F4C622600D08C6A2E713C618C61333
:10128300C6D5E0F322C3E7960809E7960809E7966F
:101293000809E7962275D000758140751801751904
:1012A3000300020B92E6F008A3E6F008A3E6F008B9
:1012B300A3E6F022E6084608C3134608336002E6B5
:1012C30033F422600C08C6C313C618C613C6D5E090
:1012D300F422E0F608A3E0F608A3E0F608A3E0F69C
:1012E30022E7094709C3134709336002E733F422AE
:1012F300CAC0E0E6F0A308DAFAD0E0FA22EAF0A3E3
:10130300EBF0A3ECF0A3EDF022E0FAA3E0FBA3E003
:10131300FCA3E0FD22E5C754F84401F5C779012297
:10132300E7C33319471947194722E6C33318461849
:10133300461846222518F582E43519F58322C2AFF3
:1013430075D69F0200002212102765DE01121027B6
:10135300A9DE01121027D0DE0112102721DF0112AE
:101363001027D1DF0112102789E00112102751E164
:10137300011210272EE201121027B4E201121027E6
:10138300C3E201121027CEE201121027D7E30112A4
:101393001027E8E3011210275EE401121027F0E49E
:1013A3000112102748E5011210270EE6011210273B
:1013B3003FE60112102784E60112102791E601127D
:1013C300102725E80112102788E901121027A4EA43
:1013D300011210270EED0112102719ED011210272B
:1013E30023ED011210272EED0112102738ED011203
:1013F300102742ED011210274DED0112102758ED71
:101403000112102789ED01121027ADED01121027EB
:10141300D1ED0112102736EE011210277AEE0112D8
:10142300102796EE011210270DEF0112102745EF3A
:101433000112102791EF01121027EEEF011210276E
:10144300D0F10112102756F20112102727F30112CF
:10145300102737F6011210278CF601121027B8F661
:101463000112102704F80112102754F80112102753
:10147300A9F801121027AAF90112102742FA011242
:101483001027C4FA0112102764FB011210277B2EC8
:1014930000121027B42E001210278E3000121027CE
:1014A300CD3000121027173100121027BC31001263
:1014B30010271B32001210274F3200121027BC32A4
:1014C30000121027D93300121027E134001210271D
:1014D300773500121027BE38001210276739001223
:1014E3001027433A00121027A43A00121027C13BD9
:1014F30000121027EB3D00121027A23E0012102706
:10150300AC3E00121027DF3E00121027A63F001248
:101513001027414000121027A64000121027CF4089
:1015230000121027F1400012102720430012102749
:10153300F743001210273B4400121027A84400125F
:101543001027634500121027954500121027D9452F
:10155300001210270C4600121027614600121027B4
:10156300B646001210274A4700121027AC47001254
:101573001027144800121027BD4900121027A54A4E
:1015830000121027E74B00121027154E00121027E8
:10159300D54E00121027045100121027A751001234
:1015A3001027E55100121027915300121027A5535D
:1015B30000121027AF5300121027D953001210271F
:1015C300E55300121027045400121027BB540012D5
:1015D3001027FA5400121027045500121027B8558B
:1015E30000121027B75600121027B0570012102709
:1015F3004D5800121027EF580012102706590012F9
:1016030010273D59001210275B59001210279F59CC
:1016130000121027C45900121027AA5A00121027CB
:10162300165B00121027905B001210279F5C0012BC
:101633001027DE5D00121027405E00121027FA5EAD
:10164300001210271D5F00121027F15F00121027F0
:101653003C60001210277E6000121027D560001234
:1016630010270C61001210273A61001210277361D2
:101673000012102798610012102720620012102711
:10168300436400121027A26400121027366500126B
:101693001027A26500121027F6650012102793FF8A
:1016A30002121027D2FF021210276DB40112102765
:1016B300C7B40112102723B5011210276FB5011209
:1016C30010278AB501121027BBB501121027D8B510
:1016D30001121027E4B50112102758B70112102781
:1016E30071B701121027D8B701121027EBB70112F7
:1016F3001027F9B701121027ADB80112102791B9BD
:101703000112102797BA011210271DBB01121027CF
:1017130027BB0112102794BB01121027ABBB011288
:101723001027DDBB0112102716BC0112102740BC85
:1017330001121027A1BC01121027C1BC01121027EE
:10174300DFBC0112102725BD011210274BBE011269
:10175300102798BE01121027C7BE011210273DBFE4
:101763000112102765BF011210279EBF0112102717
:10177300ACBF0112102704C00112102753C001127D
:10178300102792C001121027C2C001121027EEC009
:1017930001121027F9C00112102717C101121027D7
:1017A300D9C101121027E3C1011210271EC2011271
:1017B300102734C2011210273DC20112102792C212
:1017C30001121027A6C201121027B4C30112102759
:1017D300C7C301121027DCC3011210277EC40112F4
:1017E300102701C501121027BFC501121027CAC552
:1017F30001121027F0C6011210270CC7011210277F
:101803005EC7011210279DC701121027B2C701122C
:101813001027F4C70112102741CA01121027BFCAAB
:101823000112102732CB0112102754CD01121027B9
:101833006CCD011210276FCD011210277BCD011241
:1018430010278FCD0112102797CD01121027CACD73
:10185300011210277ACE01121027F0CE01121027A1
:1018630063CF0112102717D001121027CCD0011219
:101873001027EBD0011210278BD10112102797D11B
:1018830001121027C2D101121027C5D1011210274E
:101893002FD20112102757D3011210272FD4011270
:1018A3001027BAD401121027D3D50112102790D6CE
:1018B30001121027C9D601121027FAD601121027D8
:1018C3009AD701121027CAD701121027A5D80112DF
:1018D30010273ED901121027C9D9011210277ADA2D
:1018E30001121027FCDA011210272EDB0112102738
:1018F3006FDB01121027C0E20212102725E3021248
:10190300102762E302121027B1E302121027C7E582
:1019130002121027AAE70212102714EB0212102753
:101923004FEB0212102771EB02121027D4EB0212B5
:10193300102708EC021210272BEC0212102758EC88
:1019430002121027B4EC02121027AACC021210279D
:1019530028CD021210275ECD02121027CACD021223
:1019630010273DCF0212102759CF021210279ECF06
:10197300021210272CD00212102785D00212102732
:10198300B2D102121027C4D20212102721D302129D
:1019930010278DD302121027EED3021210272FD453
:1019A30002121027DCD402121027EED502121027E0
:1019B30019D60212102764D602121027ABD60212D0
:1019C30010273DD702121027F8D702121027B2AC06
:1019D30003121027E2AC0312102737AD03121027AE
:1019E300D4C203121027E5C20312102736C3031211
:1019F30010277BC30312102725C40312102752CBD1
:101A0300031210271ABE0312102772BF03121027E6
:101A13006FD80212102714D90212102734D90212D8
:101A2300102754D90212102768D902121027C0D9DF
:101A330002121027F0D90212102771DB02121027AD
:101A430017DC02121027F9DC021210274ADD0212FA
:101A530010278DDD02121027D0DD0212102736DE8B
:101A63000212102757DE02121027E3DE021210279C
:101A730014DF0212102788DF0212102736E1021248
:101A8300102710E20212102752E202121027ACE2D2
:101A93000212102791BA03121027B2BA03121027A9
:101AA300E8BB0312102712BC031210274EC1031206
:101AB3001027DAC103121027E4C10312102705C24D
:101AC30003121027B3C2031210276DC0021210278E
:101AD30070C0021210272AC10212102755C1021228
:101AE30010279CC102121027C1C102121027E2C1A4
:101AF3000212102716C2021210274FC20212102719
:101B030078C302121027AFC302121027CFC30212E9
:101B130010276AC4021210272FC50212102766C5A8
:101B230002121027DBC6021210277EC702121027EB
:101B330077C802121027A0C802121027F4C8021295
:101B43001027BAC902121027E8C9021210277DCB49
:101B530002121027FECB0212102731CC02121027DB
:101B630000ED021210270AED0212102756ED0212A1
:101B73001027C4ED02121027E5ED02121027FCED29
:101B830002121027ACEE0212102740F102121027A6
:101B930049F1021210279CF102121027C5F102121B
:101BA30010272CF202121027BDF202121027FFF2A7
:101BB3000212102749F302121027A8F3021210276A
:101BC300C9AF0112102778F402121027B7F40212DA
:101BD3001027ECF402121027FEF40212102710F55E
:101BE300021210272FF50212102738F502121027C0
:101BF300EEF5021210272EF6021210277C94031220
:101C030010274F95031210276995031210277A9511
:101C1300031210278F9703121027AE970312102772
:101C23004BB60312102781B603121027CAB603124C
:101C330010271AB8031210273066001210272ADE65
:101C430001121027AB67001210276A6900121027D0
:101C5300936900121027266C001210276A6C001279
:101C63001027F36D001210278B6E00121027F36EEE
:101C730000121027946F00121027D66F001210273E
:101C8300167000121027A171001210271173001291
:101C930010273675001210276475001210278B75F4
:101CA30000121027947500121027EF7500121027E9
:101CB300827600121027A07900121027217A0012D1
:101CC300102792D003121027B37F00121027FCA015
:101CD300031210270FA103121027ACA10312102720
:101CE300E7A10312102702A20312102727A203124F
:101CF30010276CA2031210279DA203121027CEA255
:101D03000312102754A4031210279DC50312102792
:101D1300D3C503121027EFC50312102731C60312D0
:101D2300102741C603121027D6C603121027E0C698
:101D330003121027079903121027CF9903121027B4
:101D43007F9A03121027959A03121027C79B031239
:101D53001027E89C03121027639D03121027DEB09F
:101D63000212102736B102121027E0B10212102717
:101D730088B202121027E5B2021210273EB30212F4
:101D8300102752B3021210271CB50212102797B561
:101D930002121027C1B5021210277EB702121027B4
:101DA30099B702121027E8B702121027FEB70212E2
:101DB30010270BB8021210273FB80212102755B88C
:101DC30002121027DBB802121027EAB802121027FA
:101DD30043B9021210279DB902121027EBB9021260
:101DE3001027F5BA0212102777BD0212102711BE71
:101DF3000212102753BE02121027E8BE0212102748
:101E030005BF0212102708BF021210270BBF0212D0
:101E130010277EBF0212102799BF02121027C5BFD9
:101E23000212102700C00212102703C0021210274B
:101E330016C0021210273DC002121027E6CE03126D
:101E43001027F2CE031210272CCF031210270DA157
:101E53000212102738A10212102704A2021210271F
:101E630089A202121027F2A2021210273EA3021225
:101E73001027BDA3021210274FA402121027DBA4C0
:101E8300021210271DA50212102789A9021210277A
:101E930009AB0212102748AB0212102711AC021231
:101EA3001027C5AC0212102775AE0212102701AF1E
:101EB30002121027008002121027BA800212102784
:101EC3002C81021210273B8102121027B5810212C6
:101ED30010272482021210272E8302121027578301
:101EE30002121027F78302121027458402121027CB
:101EF300B58402121027E98502121027C586021243
:101F03001027368702121027B3880212102775890B
:101F130002121027108A021210276B8A021210274E
:101F2300D68A02121027DA8B021210279B8D021217
:101F330010273A8E02121027AC8E02121027698FD7
:101F43000212102781A703121027D5A70312102707
:101F53002DA80312102778A803121027DAA803125A
:101F6300102773A903121027DBA903121027E7A96F
:101F730003121027F5B30312102726B403121027F8
:101F8300E0B40312102746B503121027B7B50312A6
:101F9300102705B90312102745CC0312102756CC7E
:101FA30003121027F6CC0312102762BC031210276A
:101FB30070BC03121027A8D00312102750CE0312AF
:101FC300102760CE031210277BCE03121027DCCE1E
:101FD3000312102750CA03121027D5CA0312102761
:101FE30039CB031210273EC90312102760C903120D
:101FF3001027CAC903121027D5C90312102719CAFB
:10200300031210270080031210270E8003121027DB
:102013004F8003121027708003121027FA800312D7
:1020230010271C8103121027888103121027A38114
:1020330003121027BE8103121027C8810312102731
:10204300D28103121027E58103121027FE810312A8
:1020530010279A8203121027568303121027CD8369
:1020630003121027478403121027AD84031210278D
:1020730017FC0112102725FC011210279FFC0112E7
:10208300102783FD011210273CFF01121027DCFFEC
:10209300021210277E7A00121027EB7A0012102703
:1020A300AC7B001210271C7C00121027257D001228
:1020B30010279D7E00121027017F00121027567FE4
:1020C300001210275F7F001210276E7F0012102767
:1020D300817F00121027977F00121027A07F001224
:1020E3001027578603121027AC8603121027A888DF
:1020F30003121027DA8803121027FC880312102713
:102103001589031210272E8903121027388A031208
:102113001027D38A031210273CC40312102760C46C
:102123000312102779C403121027ACC4031210271B
:10213300DDC4031210270BC5031210276DC503124C
:1021430010277CC50312102786C50312102793C5D9
:102153000312102722AA0312102748AA03121027DA
:1021630085AA0312102794AA03121027B3AA0312F5
:1021730010271BAB0312102724AB0312102783ABCA
:1021830003121027A7AB0312102766AC0312102704
:1021930073AC0312102784AC03121027ADCF0312C4
:1021A3001027CACF031210274A8B03121027A88CBB
:1021B30003121027B58C03121027C88C03121027A3
:1021C300E78C03121027FD8C03121027118D0312C5
:1021D3001027868D03121027EB8D031210279B8E79
:1021E30003121027708F03121027808F03121027FA
:1021F3008F8F0312102717CD031210273BCD031225
:10220300102763CD031210278BCD0312102732AF93
:102213000312102759AF031210277AAF03121027A6
:10222300DFAF0312102798B103121027B1B10312C5
:102233001027BDB103121027D1B103121027EFB13C
:1022430003121027F9B10312102703B20312102748
:1022530016B20312102769B203121027A2B2031297
:102263001027D1B2031210271FB3031210276EB326
:102273000312102789B30312102793B303121027F5
:10228300A4B303121027EAB303121027A1FF01120C
:10229300102757F60212102781F6021210279DF617
:1022A30002121027B0F602121027C6F602121027E8
:1022B30023F70212102756F70212102792FB02127D
:1022C3001027B8FC02121027EBFC0212102737FD6F
:1022D3000212102763FE021210278BFE0212102730
:1022E300A0FE02121027B0FE02121027F4FE021203
:1022F300102755FF0212102765FF02121027F8C698
:102303000312102713C7031210273CC70312102709
:1023130056C7031210277BC7031210279AC703124D
:102323001027B2C703121027E0C703121027FAC7FA
:102333000312102769CF031210277C9D0312102765
:10234300839D031210278F9E03121027BF9E031233
:102353001027E59E03121027089F031210272A9FB8
:1023630003121027649F03121027CA9F031210271A
:1023730003A0031210274FA0031210277CA00312FF
:1023830010279CA003121027C1BF03121027D3BF2D
:1023930003121027BEC0031210274BC103121027CC
:1023A3002BC8031210279DC803121027DBC8031282
:1023B30010271CC90312102761A4031210277DA440
:1023C30003121027CCA403121027E8A4031210272A
:1023D30019A50312102729A50312102715A6031206
:1023E30010271FA6031210272CA6031210273CA7A1
:1023F3000312102750A70312102759A703121027FF
:10240300C88F031210270D9403121027129403127E
:1024130010271FD003121027B0CD03121027DACDD7
:1024230003121027E9CF031210274CD003121027F1
:1024330074D003121027BE9002121027DC950212EB
:1024430010277AAD0112102783AC0112102767AC55
:102453000112102713AC01121027CBAB0112102766
:1024630009AB011210277CAA011210276FAA0112CF
:1024730010277DA701121027CFA40112102704DE15
:1024830001121027EBDD01121027A3A3011210275D
:10249300F7A20112102797DD01121027F3DC0112B6
:1024A300102748A101121027039F011210278A9EAB
:1024B30001121027319E01121027C59D011210270A
:1024C3009C9D011210278F9B011210275B9B011209
:1024D3001027289B011210270C9B01121027329AF8
:1024E30001121027EA99011210271F9801121027D1
:1024F3009F97011210279C9701121027A396011290
:102503001027719601121027AE9501121027D99347
:10251300011210276A93011210273C93011210270E
:1025230069DC0112102708DC01121027B6DB011247
:102533001027A4DB0112102728B3011210273993A7
:1025430001121027269301121027BE9201121027A1
:10255300AD92011210270AB3011210278E910112B6
:1025630010275891011210271B9101121027BC90BC
:1025730001121027BFB1011210276F670012102735
:102583008B9001121027468D01121027378C0112F0
:102593001027C68B011210278B8B01121027568B25
:1025A300011210274A8B01121027AA8A0112102741
:1025B300F18901121027C4870112102750850112D7
:1025C30010270E8501121027D983011210278E833D
:1025D30001121027C082011210271782011210273F
:1025E300B38101121027ED81011210271CB10112D2
:1025F300102739F40200000080FBE47300000000A0
:102603000000000000000000000000001010101087
:1026130010100000303000000014285000000000AB
:102623000000000000000000002828FC284850FC9F
:1026330050500000000010385454301814545438CB
:10264300100000000044A8A8B0541A2A2A4400002D
:1026530000000020505060ACA898927C00000060FD
:102663006020C00000000000000000000004080813
:10267300101010101010080804000000402010086B
:1026830004081020400000000000001010D6383865
:10269300D61010000000000000101010FE101010E3
:1026A3000000000000000000000000000000606067
:1026B30020C0000000000000FC000000000000003B
:1026C3000000000000000000000060600000000245
:1026D30004040408081010202020400000000030EB
:1026E3004884848484844830000000000010701003
:1026F30010101010107C000000000038444404083F
:102703001020447C000000000038444418040444B2
:10271300443800000000080818284848887C081C32
:1027230000000000007C404078440444443800002A
:102733000000003C4480B8C4848484780000000016
:10274300007C4448081010101010000000000078AE
:10275300848448788484847800000000007884842A
:10276300848C740488F00000000000000030300006
:1027730000003030000000000000000010000000E6
:10278300001010200000040810204020100804004E
:1027930000000000000000FC0000FC00000000003E
:1027A3000000402010080408102040000000000032
:1027B3007884848408101000303000000000003852
:1027C300449AAAAAAAB4423C0000000000101028B0
:1027D3002828384444EE0000000000F844447844BC
:1027E300444444F800000000003C4484808080801E
:1027F30044380000000000F048444444444448F096
:102803000000000000FC44404878484044FC0000BD
:10281300000000FC42404878484040E000000000CF
:10282300003C448480808E8444380000000000EE25
:102833004444447C444444EE00000000007C1010F7
:1028430010101010107C00000000007C10101010FD
:102853001010101090E0000000EE444850704848FB
:1028630044EE0000000000E040404040404044FC93
:102873000000000000EE6C6C6C54545454D60000FD
:10288300000000EE64645454544C4CE40000000017
:10289300003048848484848448300000000000F8B9
:1028A30044444478404040E0000000000030488445
:1028B300848484B448380C00000000F84444785001
:1028C300484844E600000000003C4440201804044B
:1028D30044780000000000FE921010101010103811
:1028E3000000000000EE44444444444444380000E3
:1028F300000000EE4444282828281010000000009F
:1029030000D6545454546C2828280000000000EECC
:1029130044282810282844EE0000000000EE442834
:1029230028101010103800000000007C88081020C8
:10293300204044FC0000001C101010101010101058
:1029430010101C0000701010101010101010101038
:102953007000007010101010101010101010700084
:10296300001028000000000000000000000000002C
:102973000000000000000000000000FE0060602076
:10298300C000000000000000000000000000000084
:1029930038441C24443E0000000000C040407844FA
:1029A3004444447800000000000000003C444040E0
:1029B300443800000000000C04043C444444443EFA
:1029C300000000000000000038447C404438000050
:1029D3000000001C2420F8202020207800000000A4
:1029E300000000003C48483040784438000000C0F4
:1029F30040405864444444EE0000000000100000CE
:102A030070101010107C000000000008000038084F
:102A1300080808080870000000C040405C48507077
:102A230048EC000000000070101010101010107C13
:102A33000000000000000000F854545454D6000075
:102A4300000000000000D864444444EE000000008D
:102A530000000000384444444438000000000000F3
:102A63000000F8444444447840E0000000000000C3
:102A73003C444444443C040E000000000000EC309D
:102A8300202020F800000000000000003C44300833
:102A9300447800000000000010107C101010100C8F
:102AA3000000000000000000CC444444443E000009
:102AB300000000000000EE44282828100000000059
:102AC30000000000D65454542828000000000000E1
:102AD3000000DC48303048EC00000000000000003B
:102AE300EE442828101020E00000000000007C487D
:102AF3001010247C00001010101010101010101073
:102B0300101010100001363601010001020100010E
:102B13000301000104010606050200000701003459
:102B23000801000F090401010D0100FF0E08000058
:102B330017020000190100FF1A0100011B0100FE2A
:102B43001C0100081D0200001F01000120010001FB
:102B5300210200002301000F2402000026010001CE
:102B630027010008280200FF2A0100072B01024069
:102B73002C0100002D0100012E0100012F0100FF97
:102B830030010B1C310800003A0100083B01000F23
:102B93002F01000003027102300160021102700272
:102BA3000102020202028002100261023A004100A5
:102BB30063027302720262024302000213023800CC
:102BC30000020002040212020002000200020002DC
:102BD30004020402370037003C02440200023900B9
:102BE30000020002650200023502810200020502B2
:102BF30082028302000203007100300160001100B1
:102C030070003102200350048000100061000000B6
:102C1300140063007300720062004300000013009D
:102C23000600000000000400120000000000000085
:102C3300000004000400370037003C024400000099
:102C43000000000000006500000035008100000066
:102C53000500000083000000010371030103010369
:102C63000103010301032203020301031003000311
:102C730000030003000300030003000342030003F7
:102C830024030603000300030403120325032303A1
:102C93002503230304030403000300030003440385
:102CA30000030003230300036503210035038103AD
:102CB3000003050300030003000301017101010187
:102CC3000101110101013101010101018001100123
:102CD30061013B001400630173017201620143014E
:102CE3000001130106013D01350004011201000139
:102CF30000010001000104010401330133013C011F
:102D03004401320136000001000165010001350074
:102D130081010001050182018301000136000100E8
:102D2300060000000F00000000000000000000008B
:102D3300000003FFFF00000403FFFF0000FFFF0F7D
:102D4300F4010005C4040320000100030B0000008C
:102D5300000000000003010F0100F01E0200661EC8
:102D630003006C1E0400721E0500781E0600841EFC
:102D730011009C1E1400A21E1500961EFFFF0000EA
:102D8300461776174C175217701764175E177C1780
:102D9300821788179417581740173A1703EAF5E56F
:102DA300D5D5C5B5A5959585857575656555554580
:102DB30045353525251515050A121502DC1405EED2
:102DC3001407E2140CBE140DD014FF000000160FFC
:102DD30000000B150B020002220F32000006301810
:102DE3004218481810174E180A1716179018AE18DD
:102DF300B4189618A2189C1800034948424D181796
:102E03002505020C0E020B040B0A0708000F000134
:102E130019161816161523030000383C3E363B3BA3
:102E2300352B432C303016181920231A1C1E303032
:102E33003017181921301B1D1F306A178E17A81859
:102E43009A17A017841854185A18661860180204A1
:102E53000201010101090200000000000000BE049C
:102E63000A0E0015000400280008050C0A030908CF
:102E7300FF1E1E0F0404100C74F7120A6FE990036F
:102E8300B0F0900365E4F01223889003B5E4F0A357
:102E9300F09003B1F0A3F012164A12238E9003347C
:102EA300E4F0A3F0902E7693FA79021223EE025BFC
:102EB3001174F2120A6FEAFEEBFF5480606990030B
:102EC300B0E0F9121BA28A088B09EA4509604F7C1E
:102ED3000080010CEC75F003A4F8A9F074BB28F58D
:102EE30082742D39F583E493F4602CE493F8850818
:102EF300828B83E06870DCAA08EC75F003A4F87495
:102F0300BC28F582742D39F583E493C0E0740193F2
:102F1300F583D0821225FDAA08AB09121B96EEFA9F
:102F2300EF6480FB023081EF5420601D12156C8A20
:102F3300088B09EA4509600A1214D0AA08AB0912E2
:102F43001B96EEFAEF642080DAEEA2E0501A9003AB
:102F53006AE0640F700B790012149AE9600312306F
:102F630084EE6401FAEF80BB5420700302304F7586
:102F73000C001245568B09EA450970107C027D004E
:102F83007A207B009003B0E0F9121CEC7C007904FA
:102F93007A007B001215488A088B098018850882FD
:102FA300850983A3A3A3A3A3A3A3A3A37401F08568
:102FB3000A08850B09E5084509606D7C007904AAB8
:102FC30008AB091215488A0A8B0B750C01E5082416
:102FD30004F8E5091242FA24FFF0A3E034FF126576
:102FE300ED70CC850882850983A3A3A3A3A3A3A320
:102FF300A3A3A3E0640170A5850882850983A3A325
:10300300A3A3A3A3E054047094850882850983A332
:10301300A3A3A3A3A3A3A3A37406F07AB7850882EB
:103023008509831231B080871215187C0079017AE3
:10303300007B001215488B09EA45097009E50C70FD
:10304300057A201254B0EE6420022F67EF54026019
:103053000B121644EEFAEF6402022F26EF540460BB
:103063001912564712556779019003631258CB1210
:1030730013E0EEFAEF6404022F267A007B0002329B
:10308300B7900CEE12394E1214B222C082C0837470
:10309300EA121106851882851983AA82AB83794BBC
:1030A3001223C474081213377402F074091213370D
:1030B300AA82AB8379501223C47413121337E41218
:1030C3005A9A1223E27416024A7474F7120A6F743E
:1030D300E1121106EAFEEBFFEE4F6033851882859D
:1030E3001983AC82AD831215907406121337E06016
:1030F3001E7417121337E0FD7401121337E0FCEE50
:10310300FAEFFB7900122556E9600479A48002796D
:1031130000025B0C74F6120A6FEAFEEBFF8E828FDD
:1031230083A3A3A3A3A3A3E05440601B125F89124C
:10313300327E60067AFF7BFF801A8E828F8312476E
:1031430000FAA3E0FB80031215B474FE6A700374E3
:10315300FF6B6041125F891254F4121608E98E82E4
:103163008F8360061231A9E480051231A97401F03E
:103173007CA07D148E828F831258CB1223E8E9F54D
:10318300087015EE4F60097901EEFAEFFB12152472
:10319300A9080255257508CDAA088E828F8312319E
:1031A300B0E960DF80EAE0240D124BCF22E0240C6B
:1031B300124BCFE0F91214AC2274F6120A6FE9FE37
:1031C300EAFF7A0F7B00121B90EA4B60198A828B0D
:1031D30083740CF0EEA3A3F0EF8A828B83A3F01227
:1031E30055507900802FEEF912154E8A088B09A8E5
:1031F30008A909E849601C88828983A3A3A3A3A320
:10320300A3A3A3A37406126214E0F9121464EEF9E3
:1032130012152A7910025525C082C08390036AE0F3
:10322300640F7014EA4B6010900365E06408600556
:10323300E06404700312323E024A9EEAFCEBFD7A1C
:10324300017B009003B0E0F9121CE622C082C08328
:103253007900EA241DF582EB1246FD24FD600B1470
:10326300600824FD600424FD700109024A9E8E82D9
:103273008F83A3A3A3A3A3A3A3A3A3123282221284
:103283004745FB121608E9228E828F83A3A3A3A3CB
:10329300A3A3A3A3A31232826402228E828F83A3E9
:1032A300A3A3A3A3A3A3A3A3124A95900356E068E1
:1032B300221210727F06020D2474F4120A6F74FD39
:1032C3001211068A088B098A828B83A3A3E0F91261
:1032D300154E8A0A8B0BAE0AAF0BEE4F7003023307
:1032E300C3850882850983A3E064F1603085088281
:1032F300850983A3E064CD6024850882850983A3BF
:10330300E0641A6018850882850983A3E064E96094
:103313000C850882850983A3E064E17008790012B3
:103323001524E9706C850882850983A3E0C0E074E5
:1033330002121337D0E0124A79EEF0A3EF123DA444
:10334300851882851983AA82AB8370051213C880FE
:10335300031215F07402121337E064E970338E829E
:103363008F831233CF750A01780A121048750AE960
:10337300780A121048E508240CF582E509123896FC
:10338300123D81FCA3E0FD8A828B83123D9B1210C8
:10339300728E828F83A3A3A3A3A3A3A3A3A3E06497
:1033A3000270108E828F83A3A3A3A3A3A3A3A3A3BB
:1033B3007406F0850882850983A3A3E0F912152A10
:1033C300121518900CF2123087023953E0F8A3E07B
:1033D300F9E8FAE9FB2274F4120A6FEAFEEBFF75CF
:1033E30008008E828F83A3A3A3A3A3E06042750882
:1033F300088E828F83A3A3A3A3A3A3A3A31249A885
:103403008B0BEA450B601075082C8E828F83A3A368
:10341300A3A3A3E0D2E0F08E828F83A3A3A3A3A3ED
:10342300E05403640160030234C24308110234C24E
:10343300EE24181239606033EE241A123960700FCB
:1034430012329E7003A3E06970757508228070EED6
:10345300241BF582EF1234C7241AF582EF123DAC18
:10346300EE2419125FBD121452805412328B700372
:1034730075080112329E7003A3E0697006E508D255
:10348300E1F508E50860158E828F83A3A3E070063B
:10349300E508D2E58004E508D2E6F5081232716446
:1034A300017006E508D2E0F5088E828F83A3A3E0BE
:1034B300600D1234D564016006E508C2E0F508A981
:1034C300080239581246EB1234CE22E0FCA3E0FD89
:1034D300EE221246E512471DF91215F6E922C082C3
:1034E300C08379018A828B83A3A3E0C39402400142
:1034F300198A828B83A3A3A3A3E0C3940240027916
:10350300008A828B83A3A3A3A3A3A3A3A3A3E0649F
:10351300F87003A3E0F460458A828B83A3A3A3A37B
:10352300A3A3A3A3A3E064F97003A3E0F4602E8A2A
:10353300828B83A3A3A3A3A3A3A3A3A3E064FA708F
:1035430003A3E0F460178A828B83A3A3A3A3A3A39B
:10355300A3A3A3E064FB7003A3E0F4700279008AE1
:10356300828B83A3A3A3E0F8900353E068600279FE
:1035730000024A9E74F0120A6F74DE121106EAFE0C
:10358300EBFF8E828F83A3A3A3A3E0600E900CF0C6
:1035930012551C6006900CF0123087740312133717
:1035A300AC82AD838E828F83A3A3A312559E125D3B
:1035B300D7E9600F7403121337AA82AB831214CABC
:1035C300E97008790112239A02388BEE241B124604
:1035D300F074101213371255677409121337E06031
:1035E30021741A121337E0FD7404121337E0FC8EB2
:1035F300828F831258C97901122556E96004790232
:1036030080C37403121337AA82AB831214C4E9F57F
:103613000A7409121337E0702A90034DE060247492
:1036230022550A6422601C7442550A644270CF74A6
:10363300201213371238A9600A7420121337123874
:10364300A270BBE9A2E650417403121337AA82ABFE
:10365300831214B8E970030235C6742012133712AB
:1036630047006403700F7420121337A312550EA37F
:10367300E0640D60147403121337AA82AB8312162D
:103683001AE96401700302388BEE242C123893126A
:103693003BB77003A3E069701C750800780812102B
:1036A300487808121048EE242E125FBD1238AF126C
:1036B3003D9B1210727409121337E07003023768CE
:1036C3001238AF1258CB12166E8A088B09EA4509D5
:1036D30070030238057404121337E0F88E828F8367
:1036E300A3A3E028F8A3E03400F9E8240D12389AE4
:1036F3008A828B83A3A3A3E068601CE88A828B83FE
:10370300A3A3A3F090818812130C850882850983F3
:10371300A3A3A3A31213007904E9121337125DB410
:103723002AF8A3E034008882F583A3AA82AB83122C
:103733001B7E8A0C8B0D8C0E8D0F85088285098369
:10374300A3A3A3A3780C120FFF400302388B90812D
:10375300A4780C1211AD850882850983A3A3A3A3C2
:10376300780C1212A8900365E064046008E0640911
:10377300600302388BE50AA2E54003023843EE24D6
:103783002E123960851882851983F0EE242F1239A1
:1037930060C0E07401121337D0E0F0EE2430123928
:1037A30060C0E07402121337D0E0F07414121337C0
:1037B300E064017027740E1213371246F6EE2412DA
:1037C300123960687003A3E0697011740C12133727
:1037D30012329870077414121337E4F0EE24241293
:1037E3003893120E257404121337AC82AD83740719
:1037F300121337AA82AB831213CE7404121072020F
:10380300388B9003AAE064016003023768742012C6
:1038130013371238A97009E50AA2E6500302376884
:103823007410121337E0F47003A3E0F4605AEEFC53
:10383300EFFD7403121337AA82AB831214D68048A8
:10384300A2E6504474201213371258DA701A741A0D
:10385300121337E0640270307403121337AA82AB79
:103863008379001215E4802074201213371238A2D2
:103873007016741A121337E06404700C7403121375
:1038830037AA82AB831215DE7422025C86EE240B08
:10389300F582EF1246EB22F582E9125580F82212E7
:1038A3005F9BE064072212471D640622EE242A125E
:1038B30046E81234CE24121246E82274F4120A6F38
:1038C300EAFEEBFF8C088D099005CFE0600F123202
:1038D3009E7003A3E0697005121440804F790012B3
:1038E30058BE1214708A828B83E58245836035A3A8
:1038F300A3A3A3A3A3E05418602AE508241BF5821D
:10390300E509123896120E29123F94123896120EB8
:1039130029EE2418125FBD12393112148274041275
:1039230010728008790012393112144680278E8272
:103933008F83A3A3A3A3A3A3A3A3A31234CE240B74
:10394300F582EF12394A223400F583124745FB22F0
:1039530074031210727F04020D24EE2417F582EF14
:103963001255802274F7120A6F74F7121106EAFED9
:10397300EBFF900365E06403600DE064016008E021
:1039830064096003023A318E828F83A3E0707E7CE8
:10399300007D007A027B00122394EE2402FAEF12D8
:1039A30043011246F690035612556779531223CA00
:1039B3007900123A36E064096003123DC985188222
:1039C300851983740112553D9003657404F07401E5
:1039D300121337AA82AB83794A1223C474011213D8
:1039E30037AC82AD837A5B7B031223B2900356120A
:1039F3005DCD7A03123DD3900350E0A2E35004D28D
:103A0300F08002C2F012552A123084801E8E828FFB
:103A130083A3AE82AF83FC7D007A037B10122394D1
:103A23008E828F83E0F9123A36E4F012150074099E
:103A3300025B0E90036312394E1213E0900365226A
:103A4300C082C08390033412551C701F900365E03D
:103A530014600924FC600A14600C800F90033C80FE
:103A630032900338802D90033A8028E8496008900B
:103A73000335123D7B700C8A828B83A3E0F912130A
:103A8300D4801B9003351240307005121638800E17
:103A93009003D212551C600612550E1225FD024AE0
:103AA3009E74F4120A6F74FB1211068A088B097A4A
:103AB3000F7B00121B908A0A8B0BAE0AAF0BEE4FE3
:103AC3007003023BAB8E828F83125A987950122374
:103AD300C4850882850983A3E06003023B939003B6
:103AE30063E0F47003A3E0F46034900363E064FEE6
:103AF3007003A3E0F46027851882851983123BB70E
:103B03007003A3E0696017850882850983A374EABB
:103B1300123DB17A637B0379501223CA80728518F0
:103B230082851983125F7C1255677A567B0379531A
:103B33001223C49003561255981255677A597B0382
:103B4300794B1223C47A587B0379E11223C490037F
:103B53006AE0C3940F5021900358E0C0E07402124E
:103B63001337D0E0F074041213377401F004121306
:103B730037AA82AB831223DC750A00780A12104835
:103B8300780A121048900D18E0F9123D9212107243
:103B9300850882850983123BB0A3F0900365740303
:103BA300F0EEFAEFFB1255507405023955A3E08E7F
:103BB300828F8322125F80E06822124BD62274F533
:103BC300120A6F74D81211068A088B098A828B83B2
:103BD300A3A3A31247227415121337AC82AD838AB1
:103BE300828B83A3A3A3A3A3A3A3A3123D81FAA3BD
:103BF300E0FB1215067415121337E0706B8508820B
:103C0300850983A3A3A3A3A3A3A3A3E0C3940B4006
:103C1300578E828F83A3A3A3A3A3A3A3A3E06402CA
:103C23007046EE240B123960F4703D900365E06436
:103C330002603AE06406603590033412551C600557
:103C4300123D7B604F900365E064086005E0640407
:103C530070167417121337E0F9741C121337AC8201
:103C6300AD831258BE12150C742802649A90033463
:103C730012551C701F750800780812104878081236
:103C83001048EE2410123893125FD51243E9123D07
:103C93009B1210728E828F8312583A12431312466C
:103CA300F67402121337125567EE240D123960C0F1
:103CB300E07404121337D0E0123DA4F508A3E0F535
:103CC30009740F78081212C67405121337E508F049
:103CD3007419121337E0C0E07406121337D0E0F002
:103CE300741B121337E0C0E07407121337D0E0F0EF
:103CF3007416121337E0C0E07409121337D0E0F0E2
:103D03007417121337E0C0E07408121337D0E0F0D1
:103D1300EE2410123960C0E0740A121337D0E0F0B9
:103D2300741A121337E0C0E0740B121337D0E0F0AB
:103D33007427121337E0C0E0740C121337D0E0F08D
:103D4300741C121337A982AA8389088A09750A0089
:103D530078081210407C087D007410121337AA8271
:103D6300AB831250CB121072851882851983AA82F5
:103D7300AB831213DA023C6B124036640122E0F982
:103D83008A828B83A3A3A3A3A3A3A3A3A3E02290C9
:103D93000363125DD190035912394E1215C6740292
:103DA30022F0EE240B12557D22125580FA22F07A6E
:103DB300567B037953123DBC221223CA7A597B03E3
:103DC300794B1223CA2290036312394E12166822CA
:103DD3007B00122394900359125DD17A047B001265
:103DE300239422F0125FE02274F2120A6F74F81225
:103DF3001106EAFEEBFF8C0A8D0B890C8518828570
:103E03001983AC82AD837583817582317408120F77
:103E1300A0F50DEEFCEFFD851882851983AA82AB10
:103E23008312579B7003750D019003B1803BEEFC29
:103E3300EFFDE508240BFAE509340012579A601EDA
:103E4300850882850983A3A3E0650C701185088228
:103E5300850983E0650A7004A3E0650B6038E50813
:103E63002414F582E50912389612430BE508450937
:103E73006024E50DA2E040B6850882850983E065EC
:103E83000A7004A3E0650B70D5850882850983A3B6
:103E9300A3E0650C70C8AA08AB0974080232B4C069
:103EA30082C0839003B1024A9B74F7120A6F900396
:103EB300B11247458012EA2414F582EB12389612A8
:103EC3004722121C32EEFAEFFBEA4B70E99003B182
:103ED300E4F0A3F0025B117F07020D2474F1120AD0
:103EE3006FEAFEEBFF890A8C088D098E828F83E0CF
:103EF3008C828D831249B2AE82AF83E012518B1252
:103F030050FCC412518B123F9DE054038C828D836D
:103F13001250FAA2E2E4338C828D831250F9131308
:103F230013541F12518B1250F8A2E7E4338C828D85
:103F330083A3A3A3A3123F9D8E0C8F0D750E007850
:103F43000C1210407C087D00E5082407125D401226
:103F53001072125DAB8E0C8F0D780C1210407C0327
:103F63007D00E508240F125D40121072E50AC39428
:103F73000F40148E828F83A3A3A3E0C0E0123F946B
:103F8300123896D0E08006123F94126208F0023E87
:103F9300DAE5082412F582E50922A3A31249B60E35
:103FA300AF832274F4120A6F74F9121106EAFEEB5E
:103FB300FF890890033412551C600E1240307009BB
:103FC300EEFAEFFB121632805F900363E06E70032C
:103FD300A3E06F70537401650860097A777B03125D
:103FE300579B70447A007B0212455A8B0BEA450BB0
:103FF300703690036612130C851882851983121389
:104003000090036CE0C0E07404121337D0E0F07446
:10401300051213377401F07406121337125A9812EB
:1040230013A4E9609B1213AA740702395512403690
:10403300640222125F9CA3A3A3A3A3A3E02274F5AB
:10404300120A6F8A088B098A828B83A3AE82AF839D
:10405300E0F91213F88E828F83E064EB600C85081D
:1040630082850983A3E064E1700985088285098359
:10407300A3E4F0123084750A01780A121048850807
:1040830082850983A3E0F5087808121048790012A5
:104093003D9212107212151802649DEAF0A3EBF020
:1040A300024A9E74F6120A6F9003B4E0701B7C0000
:1040B30079017A007B00121548EA4B600C8A828BE7
:1040C3008312551C60031214A6025525C082C083B7
:1040D300124542401079FF121542E9F8902E7AE416
:1040E30093C3985004790180027900024A9E74F0C8
:1040F300120A6F8A088B09890B750C008A828B83DD
:10410300A3A3A3A3A3A3A3A3E0F912154E8A0E8B23
:104113000FAE0EAF0F750A01EE4F60030241CF855C
:104123000882850983A3A3A3A3A3A3125DCD850856
:1041330082850983A3A3A3A3A3A3A3124ECB1258DF
:10414300CB1215368A0C8B0DAE0CAF0DEE4F7003F0
:104153000242F28E828F83A3A3A3A3E4F0A3F0E52C
:1041630008240B1242FEE0C0E0123890D0E0F012B7
:10417300160EEE240CF582EF1254F0E508240EF52A
:1041830082E5091246F3EE240EF582EF12556475AB
:104193000C01EE2406F8EF1242FA547FF0A3E05428
:1041A300FC126032E054046003024255900CF61294
:1041B3004EBC740778081212328E828F83A3A3A396
:1041C300A3A3A3E04508F0A3E04509F08E828F8303
:1041D300A3A3A3A3124309740778081212C6E50820
:1041E3005407F508E50B607A8E828F83A3A3A3A3FC
:1041F300A3A3A3A3A374021250FD240D124BCBE07F
:10420300A2E2500B900351125598A3A3125567E5F0
:104213000870030242C7EE2406F8EF3400F9E8FA07
:10422300E9FB8A828B83E0547FFCA3E054FCFDE529
:104233000824FFF508E434FFF5097407780812121F
:1042430032EC4508F8ED4509F98A828B83125567EC
:1042530080728E828F83A3A3A3A3A3A3E0448002CF
:1042630041CEE5087005750A0080598E828F83A3BD
:10427300A3A3A3A3A3E054206012121B8AEA547FD2
:10428300245F8E828F83A3A3A3A380238E828F8335
:10429300A3A3A3A3A3A3E05410600A121B8AEA54A6
:1042A3000F240A80DD8E828F83A3A3A3A37401F05E
:1042B300A3E412431374041245518B09EA450970B0
:1042C300031254E3E50CA2E050288E828F83A3A34C
:1042D300A3A3125AFEF9EEFAEFFB12153CE96012A2
:1042E30012551260031246DBEEFAEFFB121C327515
:1042F3000A00A90A025C8912565B22FAE509340016
:10430300FB8A828B8322A3A3E0F508A3E0F50922AD
:1043130012431722125D5CA3A3A3A3A32274F41276
:104323000A6F74F71211067E0012154EEA4B7003E2
:104333000243E28A828B83A3A3A3A3A3A3A3A3A37E
:10434300E0640660030243E28A828B83A3A3A3A3F0
:10435300A3A3A3E0FF8A828B83124BDEE0C0E07449
:1043630008121337D0E01247161257A112556712DD
:104373001560EF54086066851882851983125DCD38
:104383007A007B001215308B0BEA450B704F9003BC
:10439300631248061223F47C007D007A007B0080C0
:1043A300288E828F83124700F47003A3E0F4602DFC
:1043B3009003631243E91258CB1220E8E9641A60B0
:1043C3001C7C007D00EEFAEFFB1215308A0A8B0B82
:1043D300AE0AAF0BEE4F70C979001223FA7E01EEDD
:1043E300F974090239551243ED22E0FCA3E0FD8E76
:1043F300828F8322C082C083EA4B70059003B5800D
:10440300068A828B83A3A312460660258A828B8346
:10441300A3A3A3A3A3A3A3E0540860E5EC4D6015F5
:104423008A828B831247006C7003A3E06D70D28085
:10443300047A007B00024A9E74F2120A6FEAFEEBD2
:10444300FF890A8C088D097A107B00121C2CEA4B19
:10445300603F8A828B83A3A3A3A3A3A3A3A3A3E401
:10446300124704A3E50A125FA2A312449E8A828B19
:1044730083A3A3A3A3E4F0A3124710A3F0125E3611
:10448300EA240CF582EB1249A2124497A3A3F0A3EA
:10449300F00232B7A3F08A828B8322A3A3E508F04C
:1044A300A3E509F02274F4120A6FEAFEEBFF890810
:1044B3008C0A8D0BEE4F60557401650870147901F9
:1044C300121542E9F8902E72E493C398500F7911B4
:1044D300806A74046508702F12454240F18E828F02
:1044E30083A3A3A3A3A3A3A3A3A3E5081249B2A3EE
:1044F3001265278E828F83A3A3E4F0A3F09003B504
:1045030012551C6021800D7402650860D079C1804A
:104513002BE0F8A3125591A3A31246068882898340
:10452300A3A370ED80039003B5EEF0A3EF12455102
:104533008B0BEA450B70031254E379000239587967
:1045430004121542E9F8902E6DE493C39822F012F9
:104553004556227A207B009003B0E0F9121CF82222
:10456300C082C083E9F879009003B5801D8A828BED
:1045730083A3A3A3A3A3A3A3A3A3E068600574FFDA
:10458300687001098A828B83A3A312460670DE0238
:104593004A9E74F7120A6FEA4B70059003B58006C2
:1045A3008A828B83A3A312460660248A828B83A309
:1045B300A3A3A3A3A3A3A3A3E06970E4EC60148A59
:1045C300828B83E0240D125DBEA2E240D380047A85
:1045D300007B00025B11C082C0839003B580068A12
:1045E300828B83A3A312460660128A828B83A3A3C2
:1045F300A3A3A3A3A3A3E06970E580047A007B00CF
:10460300024A9E12394EEA4B2274F2120A6F8A0A48
:104613008B0B8C0C8D0D750800750900EA450B603A
:104623002E9003B580068E828F83A3A31246596012
:104633001EAC0CAD0DEEFAEFFB850A82850B8312DF
:1046430025FDE9640170DFEEF8EFF988088909AA0E
:1046530008AB090232B7E0FEA3E0FFEE4F2274F786
:10466300120A6F9003B51246F67C007D00800DE8B8
:10467300FCE9FD88828983A3A31246F6E8496030EA
:10468300EA687002EB6970E79003B51258CBE86AE9
:104693007002E96B88828983A3A370081246F6909F
:1046A30003B580091246F68C828D83A3A312556746
:1046B300025B1174F7120A6FEAFEEBFFEE4F60150F
:1046C30012155A12472812551260031246DBEEFAEE
:1046D300EFFB121C32025B11EE240C1246E8124768
:1046E3003D22EE241DF582EF3400F58322F582EF9F
:1046F3001246EB124A9522F582EF1246EB12471D42
:104703002212470822125FAAA3A3A3A322124708D7
:10471300A3A32212449812471D22125F95E022E0C0
:10472300FEA3E0FF228E828F83E0241C124BCF1264
:10473300473D8E828F8312473D22124745FB121C51
:104743003222E0FAA3E022C082C083EAFCEBFDEC54
:104753004D700479058044EC24FBF582ED34FF129F
:10476300551A70071247A1E0F46005121B9680E307
:104773009003B0E0C0E01247A1D0E0F0902E6FE4C8
:1047830093F97AB77B031225F2E96401700B7A007F
:104793007B201254E7790080027904024A9EEC24BC
:1047A300FFF582ED34FFF5832274F4120A6FA2AF92
:1047B300E433F508C2AF9003B71246596038EE24CC
:1047C300FBF582EF34FF12551A7A007B209003B079
:1047D30060051254EA8005E0F9121BCCE4F50AF5F2
:1047E3000B780A121044EEFCEFFD7AB77B03121B21
:1047F300BA7402121072E508A2E092AFEEFAEFFB70
:10480300023958125DD1851882851983AA82AB8338
:104813002274F2120A6F74FC121106EAFEEBFF75A2
:104823000AFE750BFF12151EE960057911024997FF
:10483300EE24151239606037900D0AE0C43354E05A
:10484300F8E0333354FC48C0E0EE2415123893D01B
:10485300E01249B21249A88B09EA45096011750AA9
:10486300FFEE240F1239604404125575D2E0F08E26
:10487300828F8312327C6006EE241212499FEE244B
:10488300131239607010902E75E493C0E0EE241378
:10489300123893D0E0F08E828F83E0A2E750045465
:1048A30003801CEE24141239607015900342E0C09B
:1048B300E0EE2414123893D0E0F0900342E004F0C9
:1048C300EE2411123960640170169005C6E0600D84
:1048D30090034DE0700A8E828F83E0700312499C2F
:1048E3008E828F83E064017013EE240B1246FA6408
:1048F300027009EE240F1239604440F08518828556
:104903001983AC82AD83EEFAEFFB1215848A088B10
:104913000974FE650A700374FFF470098E828F8335
:10492300A3A3125D4CEA450960668E828F83E0C0C3
:10493300E07401121337D0E0F07402121337125EE1
:104943003A740112133785820C85830D780C12108B
:1049530044EE240F123893120E29EE240E123960FE
:10496300F50C780C121048900356120E2974071296
:104973001337E0F9AC0AAD0B12157E7407121072EF
:10498300E9FE74106E700BAA08AB09121C32800288
:104993007E10EEF974040232B4EE2411F582EF12A4
:1049A30046EBE4F022A312394E79FF12245A221265
:1049B30049B622F08E828F83A322C082C08374DE25
:1049C3001211068A828B83A3A3A3A31246F6740E45
:1049D300121337E8F0A3E9124A8C740C121337123E
:1049E3004A85240DF582EB123963C0E0741A121361
:1049F30037D0E0F0125C99EB1246F37420121337B0
:104A0300124A852415F582EB123963C0E07408124B
:104A13001337D0E0F0EA241CF582EB1246F374124C
:104A2300121337124A852411F582EB123963C0E061
:104A33007409121337D0E0124A7974FFF07401122B
:104A4300133774FFF0740212133774FFF0908188E8
:104A5300120E257404121337AC82AD83740712133C
:104A630037AA82AB831213CE7404121072790074C6
:104A7300221210728025124A7D22F0851882851930
:104A83008322E8F0A3E9F0EA22124498A3124A949D
:104A930022A3E0F8A3E0F9221258CBD083D08202FC
:104AA300102474EC120A6F74EE1211068A128B131F
:104AB300ECFEEDFF89097426121337125D4C74283E
:104AC300121337E0F5107429121337124BC0742BED
:104AD300121337E0F50EA3E0F50F7508107A1E7B6D
:104AE30000121C2C74021213371254F474021213A2
:104AF3003712551C7003024BB9851882851983AA96
:104B030082AB8379501253CF1258CB7402121337EE
:104B1300124BDEA31254F474101213371265297466
:104B230002121337E0240B124BCB7402F01213372B
:104B3300124BDE7402F0121337125F8D125E3A7459
:104B4300021213371258E0E509F07402121337E02A
:104B5300240C124BCBE510F07402121337124BC81E
:104B6300E512F0A3E513F07408121337E50CF0A374
:104B7300E50DF0740A121337E510F0850E82850FE8
:104B830083C082C083740D121337AC82AD83D0838C
:104B9300D0827403120FA0F97402121337AA82ABE6
:104BA30083121524E96401700575080080087402F6
:104BB3001213371246E1A9087412025D63E0F50C83
:104BC300A3E0F50D22E0241C124BCF22F8A3E01240
:104BD3004BD6223400F988828983221258D3A3A3A7
:104BE300A3A3A32274EE120A6FEAFEEBFF8C088DD7
:104BF300098E828F83A374081255B0E060088E82F9
:104C03008F83A37410F012395D60098E828F83A3A2
:104C1300E02408F0EE241512396060088E828F8339
:104C2300A3E004F08E828F83A3A3A3A3A3A3E060D6
:104C3300198E828F83A3A3A3A3A3A3A3E0C33324C7
:104C430002F88E828F83A3E028F0EE2411123960DC
:104C53006005750B0E8003750B008E828F83A3C0D6
:104C630082C083EE240D123960D083D082F8E0280D
:104C7300250B8C828D83F0EE2411123960600512AE
:104C830050DB28F0850882850983E0C394754009C9
:104C9300750800750900024DC9E0FA7B00125EE851
:104CA3007003024DC9EEFAEFFB12158AEA850882FA
:104CB3008509831254F5EE2402F8EF123BBD124E20
:104CC300C3124E05F0EE24040808EF123BBD125345
:104CD30005A3124E05A3A3F0EE2413124DEBF0EE41
:104CE3002414124DEBA3F0750A08EE241612396052
:104CF3006010EE2418125DCAE5082408125FCB7514
:104D03000A1012395D6016EE241A125DCA850A0C68
:104D1300E508250C125FCB7408250AF50A8E828FED
:104D230083A3A3A3A3A3A3E06059EE2407F510EF85
:104D33003400F511851082F583E0C0E0124DD212E4
:104D43003896D0E0124DF5E0C0E0124DD2123896FD
:104D5300D0E0124DF5A3124DDE121040851082856E
:104D63001183E0C333FCE433FD850A0CE508250C0D
:104D7300125D40121072851082851183E0C33325C2
:104D83000AF50AEE2415123960600BC0E0124DD209
:104D9300123896D0E0F0123890124DDE121040EE29
:104DA300240D123960FC7D00850B0A8E828F83A34C
:104DB300E0F8E50828F8E5093400F9E8250AFAE9F6
:104DC300125D43121072AA08AB097F0A020D2485F3
:104DD3000A0CE508250CF582E50922E0F50CA3E0B1
:104DE300F50D750E00780C221246E8124E0FA3A3A0
:104DF300A322F0050A8E828F83A3A3A3A3A3A3A355
:104E0300A322A3A3126036A3124E0F22125309A3A7
:104E1300A32274F6120A6F8A828B83E0FC900353F9
:104E2300124EBC74027808121232EC4508FCAD092C
:104E3300EA2412124EB674067808121232EC4508B0
:104E4300FCED4509FDEA2415F582EB123963600494
:104E5300780180027800E4C8F9ED49FDEA2411F5F0
:104E630082EB123963F50888097409780812123243
:104E7300ED4509FDEA2416124EB6740B780812129A
:104E830032ED4509FDEA2417124EB6740C78081268
:104E93001232ED4509FD8A828B83A3A3A3A3A3A3A7
:104EA300124EBC740A7808121232ECFAED4509FB73
:104EB300025525F582EB1246EBE0F5087509002251
:104EC300E085088285098322A3E0F98508828509A4
:104ED300832274EE120A6F8A0A8B0BECFEEDFF75C8
:104EE3000F01E9C39408500579000250C88E828FE0
:104EF30083E9F012532EE96003750F001253128EEB
:104F0300828F8312535CEE125C9AEF125351C0E00E
:104F1300EE2411123893D0E0125349C0E0EE24126C
:104F2300123893D0E01249B27408125D54A3A3A3BC
:104F3300E060151252FAEE2413F582EF1255648ED7
:104F4300828F83A3E02408F08E828F83A3A3A3A37D
:104F5300A3A3A3A3E060218E828F83A38582088508
:104F6300830912533DEE2415F582EF12556485082B
:104F730082850983E02408F08E828F83A3A3A3A3F1
:104F8300A3E0601A8E828F83A3858208858309122A
:104F930053218E828F83A3A3A3A3A31250EDEE24E8
:104FA3001912499FEE241B12499FA31255A8E070C2
:104FB3000302505CEE2419F8EF3400F98E828F83DC
:104FC300A3858208858309E0FAE50A2AF582E50BC1
:104FD300123963888289831250EDFAE50A2AF58231
:104FE300E50B123963C0E0EE241A123893D0E012B5
:104FF30050ED88828983E06059F8902E6EE493C364
:1050030098500575110C8008EE2419123960F511BA
:105013008E828F83A3E0F8E50A28F50CE50B125086
:10502300D1121040E511C333FCE433FD7AA67B0BA8
:105033001250CB121072EE241B12389374A6F0A3F5
:10504300740BF0E511C333F8850882850983E028E2
:105053008006EE2418126205F08E828F83A3E0F897
:105063008E828F83E0C3985003024EEBA3E0FA8A4B
:1050730008E50A2508F8E50B3400F9EE241DF5824E
:10508300EF1256701250FDC39AC0E0EE2417123887
:1050930093D0E012556D602BEE2417F8EF3400F92E
:1050A300880889098882F583E024F2125651240E78
:1050B300FAA3E03400FB888289831254F41250DB94
:1050C300C398F0A90F024DCD121B6674032234005E
:1050D300F50D750E00780C2290034EE0F912253879
:1050E300E9F8850882850983E022F085088285092D
:1050F30083E004F022A3A3A3A3A3F08E828F83E013
:105103002274F4120A6F8A088B09EA125192F0EAA8
:105113001313543F12518BA3A3A3F0EAC413131226
:105123005192A3A3F0EB12518412519C7409780A93
:105133001212C612518212519B740A780A1212C6B5
:10514300E50A5401C0E0EC2418F582ED123896D03C
:10515300E01251A1740B780A1212C6125182A312E3
:10516300519B740C780A1212C6125182A3A3A3A3F3
:10517300A3A3A3A3F0740D78081212C60234C2E5E8
:105183000A54018C828D8322540F8C828D83225486
:10519300038C828D83A3A322A3A3A3A3A3A3F08A37
:1051A3000A8B0B22C082C08379008A828B83A3A3DC
:1051B300A3A3A3A3E090034D600FE070228A828B28
:1051C30083A3A3E07019098016E060138A828B839E
:1051D3001258C2900356E06A7003A3E06B70E702B3
:1051E3004A9E74F0120A6F8A0A8B0B890C8C088D05
:1051F3000912532E12531285088285098312535CB8
:10520300E508125C9AE509125351C0E0E508241140
:10521300F582E509123896D0E0125349C0E0123FF7
:1052230094123896D0E01256787408125691601191
:105233001252FAE508241312566C125678E0240829
:10524300F0850882850983A3A3A3A3A3A3A3A3E053
:105253006017850882850983A3125339E50824154D
:1052630012566C1250FD2408F0850882850983A329
:10527300A3A3A3A3E06019850882850983A3AE8253
:10528300AF831253218508828509831250F804F0F5
:10529300AA08AB0912159CE9F50D7056850882859D
:1052A3000983A3A3A3A3A3A31253057014E0FA8A4B
:1052B3000EE50A250EF8E50B125559E50CC39A8045
:1052C30021125339E8240EF8E912555990034EE0A0
:1052D300F91225388E828F83E0F8E50CC39824F207
:1052E300C399C0E0E5082417F582E509123896D082
:1052F300E0F0A90D025C89E50A2408F8E50B340007
:10530300F92212530922E0850882850983A32285A5
:105313000A82850B83A3A3125372E0F9EA22E0F811
:10532300E50A28F582E50B125580228A828B8312C7
:105333005C8E12159622AE82AF83E0F8E50A28F858
:10534300E50B3400F922125385A3A3A3E0221246EE
:10535300EBE812537EA3A3E022A3A3A3A3A3A3A3D7
:10536300A3A312537E125372A3A3E0F9EAF822E037
:10537300FA850A82850B83A3A3A322F0A3E9125320
:105383008522F0850A82850B83A3A3A3A322C0826F
:10539300C0837AC57B0379E21223C47AC57B0302F7
:1053A3004A9EC082C083900356024A9BC082C08338
:1053B30074FE121106851882851983AA82AB83793C
:1053C3004B1253CF1258CB7402024A741223C48572
:1053D300188285198322C082C083794A1223C402AA
:1053E3004A9E74F6120A6F9003CDE0FE04F0EEF9C4
:1053F30012154E8B09EA450970EDEE60EAF9025584
:105403002574F0120A6FEAFEEBFF8C088D09890AF6
:105413007410121337E0F50B7411121337E0F50C07
:1054230012166EEA4B7013E50C7042A90AAC08AD74
:1054330009EEFAEFFB121686806EE50A6021EA2474
:1054430002F582EB123963850A082508F8E4340073
:1054530013E813F070098A828B83A3A37401F0E528
:105463000C6045E50B70068A828B83E4F07401655A
:105473000C7035E50B9003D47004E4F0802AE0044B
:10548300F0900CF7E0F89003D4E0C398401AE4F0EE
:10549300900359E06E7003A3E06F700CEEFAEFFB1C
:1054A30079011213F21254AE025C897A017B0090E7
:1054B30003B0E0F9121CF222C082C08374016A7047
:1054C30001EB70077A011254E58012900CEE12542E
:1054D300F4EA4B600512323E80031254AE024A9E38
:1054E3007A207B009003B0E0F9121BC6223400F54A
:1054F30083EAF0A3EBF022C082C083900CF0024059
:105503009EC082C083900CF202409E125F9C22EEEA
:10551300240CF582EF3400F583124A95E8492212F0
:1055230010727F02020D24A2F0E4338518828519DC
:105533008312554679521223CA22125546794212D2
:1055430023CA22F0AA82AB8322AA08AB099003B034
:10555300E0F9121B9C223400F9E508241DF582E5CD
:10556300091246EBE8F0A3E9F022125D58A3A3E089
:1055730022A3F0EE241512557D22F582EF3400F5B7
:1055830083E02212558A223400F583E0F8A3E0F980
:105593008882898322E0F812559E22A3E0F98E8245
:1055A3008F83A3A322F0EE24181246E822F0EE2400
:1055B300161246E82274F4120A6FEAFEEBFF7A0031
:1055C3007B041254B212564712556790036574094F
:1055D300F01215A88A088B09AC08AD09EE24131242
:1055E30038931258CB12579B640170487A0F1256A6
:1055F3003A60418A828B837402125651FAA3E0FB0C
:105603008A828B83A3E0FC8A828B83A3A3E0FBECD7
:10561300850882850983A3A31254F588828983129E
:1056230058CF124EC3125574FAA3E0FB794A1223E2
:10563300CA12554C0239587B00121B908A088B09F9
:10564300EA450922900336124A95900CF222F0EEB5
:10565300241DF8EF12565B22124BD6E02212566439
:10566300223400F5837401F022F582E5091246EB3A
:10567300E8F0A3E92212567C2212568022F0850814
:1056830082850983A322125680A3A3A3A3221256C1
:1056930089A3A3E022125AA21215FC22EE2417F5C5
:1056A30082EF1256641215A8EE241A1246E8EAF0A5
:1056B300A3EBF02274F4120A6F74F3121106890833
:1056C300EAFEEBFF7C0D7D00790085188285198346
:1056D300AA82AB83121B72EE241D123893125F8DC4
:1056E300A3E0F8741F58600A790112239A79000223
:1056F3005792E8A2E55008740C1213377401F0E8CE
:10570300A2E75008740B1213377401F0E8A2E67491
:105713000A50081213377401F08008121337E0643B
:10572300017005EE24138003EE2415125DCA740282
:10573300121337AA82AB831223B21238901257A0E6
:10574300125567740A121337E06401703312327111
:10575300703B1215B48A0A8B0BA80AA90BEE240B13
:10576300123960687003A3E06970221215A8EAFC7D
:10577300EBFD7402121337AA82AB8312579B600DA1
:10578300851882851983AA82AB831213ECA9087446
:105793000D023955EEFAEFFB1223ACE922E0125762
:1057A300A522F8A3E0F98518828519832274F612DD
:1057B3000A6F74F31211068A088B09ECFEEDFF7C65
:1057C3000D7D007900851882851983AA82AB831227
:1057D3006132A3A3A3A3A3A3A3A3A312583A12586A
:1057E30043F8A2E55008740B1213377401F0E8A2D2
:1057F300E75008740A1213377401F0E8A2E6EE507A
:1058030004241380022415125DCA74021213371282
:10581300582CA3A3E0C0E0740C121337D0E0125A43
:105823009A1213E6740D025522AA82AB831223B295
:1058330085088285098322E01257A5E8F0A3E922AF
:10584300F01246E5125F91A3E02274F7120A6F7417
:10585300E1121106EAFEEBFF8E828F831258CFA36B
:10586300A3A3E0A2E050518E828F831233D18A82A8
:105873008B83A3A3A3A3A3A3E054FE1258E78A82B6
:105883008B831258E0E0F98A828B83E0241CFAA30D
:10589300E01243011258CB1215A2E9701B741D12BA
:1058A30013371258DA7011851882851983AC82ADCB
:1058B30083EEFAEFFB1215EA025B0C8E828F83A351
:1058C300A3A3A3A3A3A3A3A312394E221258D322A3
:1058D300125F95A3A3A32212471D640422E0241B95
:1058E300124BCF22124A7DAC82AD8322E9F87900B4
:1058F300740468600A740A686005740368700109B7
:1059030002102474F6120A6F8A828B837420F0A328
:10591300A37401F01213988A088B09AE08AF09EE3D
:105923004F60108E828F837401F09003A3E07003A5
:1059330012569FEEFAEFFB025525C082C0839003F7
:10594300B97401F0E9A2E350037403F0E9A2E15052
:1059530004E0D2E2F0024A9E74F6120A6F79007CE8
:10596300008A088B097808120D6AF8FF078E598C94
:10597300598C598C598C59855989598E5982590C8E
:1059830080097C0480050C80F67C089003B9E05CF8
:105993006003098003EC60010902552574F6120ABD
:1059A3006F8A828B83E07012A312551C600C8A826B
:1059B3008B831258CA12255C80047A007B0002553F
:1059C3002574F5120A6F74F31211068A088B09EC19
:1059D300FEEDFF750A12EA450970057900025A9334
:1059E300900356E065087004A3E06509701412156E
:1059F300A8EAFCEBFD1257977005750A0180037541
:105A03000A00851882851983E4F004121337E50828
:105A1300F0A3E509125A9A12135CE9602774031282
:105A23001337AA82AB8312247EE964017016750AC8
:105A3300017403121337AC82AD831257976021753B
:105A43000A00801C7412650A70169003A2E06402B7
:105A5300700EEEFCEFFDAA08AB09121374E970DFB8
:105A6300EEFCEFFDAA08AB09121674E9F8740A6894
:105A73007005750A01801774A0687012EEFCEFFDC3
:105A8300AA08AB09121680AA08AB09121692A90A32
:105A9300740D02649A7402125A9E22125AA222129E
:105AA3004A7DAA82AB832274F7120A6FEAFEEBFFE8
:105AB3008E828F83A3A3A3A3A3A3A3A3E06015EE66
:105AC300241512389312393E121614E96401700436
:105AD300790180258E828F83A3A3A3A3A3A3A3E02D
:105AE3006015EE2413123893125AFEFAA3E0FB1248
:105AF3001614E9640160D9790080131243EDA3A35E
:105B0300A3A3A3A3A3A3A3E022741F1210727F0174
:105B1300020D2474F0120A6F74FD1211068A088BA9
:105B230009ECFEEDFF890B7413121337E0F50C75C6
