:020000040800F2
:100000003006002045010008192C000807270008C9
:10001000D52B0008590A0008B53000080000000080
:100020000000000000000000000000003D2C00085F
:10003000430C0008000000003B2C00085B2C00086B
:100040005F0100085F0100085F0100085F01000810
:100050005F0100085F0100085F0100085F01000800
:100060005F0100085F0100085F0100080D0C000837
:100070005F0100085F0100085F0100085F010008E0
:100080005F0100085F0100085F0100085F010008D0
:100090005F0100085F0100085F0100085F010008C0
:1000A0005F0100085F0100085F0100085F010008B0
:1000B0005F0100085F0100085F0100085F010008A0
:1000C0005F0100085F0100085F0100085F01000890
:1000D0005F010008913000089D300008A930000839
:1000E0005F0100085F0100085F0100085F01000870
:1000F0005F0100085F0100085F0100085F01000860
:100100005F0100085F0100085F0100085F0100084F
:100110005F0100085F0100085F0100085F0100083F
:100120005F0100085F0100085F0100085F0100082F
:10013000DFF80CD000F0E6FB00480047393A000831
:10014000300600200648804706480047FEE7FEE7E5
:10015000FEE7FEE7FEE7FEE7FEE7FEE7FEE7FEE777
:10016000C12C000831010008202A04DB203A21FAC2
:1001700002F00021704721FA02F3D040C2F12002C0
:100180009140084319467047D2B201E000F8012BB4
:10019000491EFBD270470022F6E710B513460A4607
:1001A00004461946FFF7F0FF204610BDF0B480EA80
:1001B0000102D40F4200B2EB410F02D202460846C0
:1001C00011464A0042D0C30DDDB2C1F3C752AD1A89
:1001D000202D35DAC1F3160141F4000204B1524278
:1001E000C5F1200602FA06F12A411044B3EBD05FB4
:1001F00023D0C4B1012DA0EBC35009DCF0BC4FF0FB
:10020000004202EAC352DBB200F5000000F0BFBAC0
:10021000400000F1807000EBC350A0F1807040EA14
:10022000D170490009E0490841EAC071A0EBC35010
:1002300000F50000400800EBC350F0BC00F09EBA8F
:100240006142012202EB4101001BF6E7F0BC70475E
:1002500081F00041AAE780F00040A7E730B480EACF
:10026000010202F0004530F0004221F0004013D0BE
:1002700090B1C30DD40DC2F31601C0F31600E41AF9
:1002800041F4000140F400027D34914201D3641C2A
:1002900000E04900002C02DA30BC002070474FF427
:1002A00000000023914201D3891A034340084FEA1A
:1002B0004101F7D151B1914202D14FF0004105E027
:1002C00002D24FF0010101E06FF0010103EBC450D5
:1002D000284430BC00F052BA420005D0C0F3C752E7
:1002E0005242914201DC0020704700EBC150704740
:1002F0002DE9FE4F804681EA0300C00F0C460090B6
:1003000021F0004123F00045B8EB0200A94105D2DD
:100310004046214690461C460B46024623F00040CC
:10032000104347D0270DC7F30A00C3F30A510290C8
:10033000401A019040286BDAC3F3130040F4801B8D
:100340000098924620B10023D2EB030A63EB0B0B1B
:1003500001985946C0F14002504600F0EEF90646B9
:100360000D4650465946019A00F0F6F910EB080088
:100370006141002487EA115284EAE7731A4340D0AE
:10038000009A62B3019A012A4FEA075215DC001B5A
:1003900061EB02014FF0004202EA0752CDE9004250
:1003A000001C41F5801132462B4600F02DFA03B0B7
:1003B000BDE8F08F40462146F9E7001B61EB0201E2
:1003C000001C41F5801300185B412018A2F50017AE
:1003D00047EB030140EAD570B6196D4111E06D0895
:1003E0004FEA360645EAC0754FEA0752001B61EB3B
:1003F0000201001C41F5801149084FEA3000001944
:10040000514132462B4603B0BDE8F04F00F0EDB944
:100410000098012240000023D0EB020263EBE0735E
:10042000009821464FEAE074B8EB000061EB04014C
:10043000E9E783F000435BE781F0004158E72DE9ED
:10044000FE4F81EA030404F0004421F000410094CF
:100450004FF0000B23F0004350EA01045ED052EA53
:1004600003045BD0C3F30A54C1F30A552C44A4F22D
:10047000F3340194A0FB0254C1F3130141F4801141
:10048000C3F3130343F4801301FB024400FB034E48
:10049000840A970A44EA815447EA8357A4FB076811
:1004A00002958D0A05FB07854FEA932C04FB0C543B
:1004B0002705029D4FEA065847EA1637B5EB0805AF
:1004C0006EEB070C870E920E47EA811742EA831201
:1004D000A7FB0201B6EB0B0164EB00042B0D43EA12
:1004E0000C335E1844EB1C50DA465146E7FB020120
:1004F000C5F313044FEA0B3343EA14534FEA0432B3
:10050000019C43EA0603A4F10C040294009CCDE98B
:1005100000B400F079F903B0BDE8F08F0020014687
:10052000F9E72DE9F04D81EA030404F0004B21F0D6
:10053000004514464FF0000A23F0004150EA05023E
:1005400020D054EA01021DD0C5F30A570246C5F374
:100550001303C1F31300C1F30A5640F4801543F4AA
:100560008013A7EB0608101BD64608F2FD3873EB84
:10057000050002D308F1010801E092185B41B8F1CF
:10058000000F03DA00200146BDE8F08D00204FF493
:100590008011064684460EE0171B73EB050705D352
:1005A000121B63EB050306434CEA010C49084FEAB2
:1005B000300092185B4150EA0107EDD152EA030086
:1005C00012D082EA040083EA0501084305D0101B1B
:1005D000AB4106D20122002306E000224FF0004387
:1005E00002E06FF0010253101AEB06004CEB0851C9
:1005F00010EB0A0041EB0B01BDE8F04D00F0F5B83F
:10060000C10F80EAE0700844CA079623002100F079
:10061000BEB896230022114600F0B9B800F000429F
:1006200020F00040C10DC0F3160040F400007F2907
:1006300001DA00207047962903DCC1F19601C84019
:1006400001E096398840002AF4D04042704700F01B
:10065000004230F000400AD0C10D01F56071C0F3D6
:10066000160042EA0151C2084007114370470020BA
:100670000146704701F0004330B421F0004150EAD8
:10068000010206D00A0DA2F56072C1F31301002A1F
:1006900002DC30BC00207047440F44EAC104C100B2
:1006A000E01830BC00EBC25000F068B830B50B4623
:1006B000014600202022012409E021FA02F59D4292
:1006C00005D303FA02F5491B04FA02F52844151E66
:1006D000A2F10102F1DC30BD2DE9F05F05460020FA
:1006E00092469B4688460646814640241BE02846A3
:1006F000414647462246FFF737FD53465A46C01A41
:10070000914110D311461846224600F016F82D1AD2
:1007100067EB01084F4622460120002100F00DF84A
:1007200017EB00094E41201EA4F10104DFDC48460E
:1007300031462A464346BDE8F09F202A04DB203A92
:1007400000FA02F1002070479140C2F1200320FA24
:1007500003F3194390407047202A06DBCB17203A59
:1007600041FA02F043EAE07306E041FA02F3D040B6
:10077000C2F1200291400843194670470029A8BFE2
:100780007047401C490008BF20F00100704710B4BA
:10079000B0FA80FC00FA0CF050EA010404BF10BC6F
:1007A000704749B1CCF1200421FA04F411FA0CF19C
:1007B00018BF012121430843A3EB0C01CB1D4FEAD5
:1007C00000614FEA102042BF002010BC704700EBD0
:1007D000C35010440029A4BF10BC7047401C4900FE
:1007E00008BF20F0010010BC704710B5141E73F153
:1007F000000408DA401C41F1000192185B411A43E1
:1008000001D120F0010010BD2DE9F04D92469B462C
:1008100011B1B1FA81F202E0B0FA80F220329046D2
:10082000FFF78BFF04460F4640EA0A0041EA0B013E
:1008300053465A46084313D0114653EA010019D0D3
:10084000C8F140025046FFF78FFC05460E46504661
:1008500059464246FFF771FF084305D0012004E0E6
:1008600020463946BDE8F08D0020054346EAE07693
:100870002C4337430A986305E40AA0EB08000022E2
:10088000FD0A44EA47540A3002D500200146E9E750
:10089000010510196941DDE9084500196941BDE804
:1008A000F04DA2E7C1F30A52C1F3130140F2FF3346
:1008B00041F480119A4202DA00200146704740F26A
:1008C00033439A42A2F2334202DC5242FFF74CBC5D
:1008D000FFF733BF30B5041E71F1000404DB4FF0A5
:1008E0000044404264EB0101141E73F1000405DB77
:1008F0001C464FF00043524263EB0403994208BF89
:10090000904230BD064C074D06E0E06840F0010320
:1009100094E8070098471034AC42F6D3FFF70CFC7C
:10092000183C0008383C000870B50446006881682F
:10093000C943C9071CD1816821F00101816000F021
:10094000BDFF05460FE000BF00F0B8FF401B0228C6
:1009500009D9A06A40F01000A062E06A40F00100EE
:10096000E062012070BD20688068C043C007EBD002
:10097000002070BD10B50146406A826A12F0500F27
:1009800005D0006A026BBDE8104008461047816A36
:1009900041F40071816201688968C1F3424107290D
:1009A0000CD1C16851B9816A21F480718162816A78
:1009B000C90403D4816A41F00101816200F0C2F9E7
:1009C00010BD10B5406A816A41F040018162C16A80
:1009D00041F00401C16200F0B7F910BD10B5406AE2
:1009E00000F0B1F910BD0000F8B5002604460096ED
:1009F00000688168C943C90728D0816841F00101B6
:100A00008160134813490068B0FBF1F000E0401E1C
:100A100000900028FBD100F051FF054611E000BF17
:100A200000F04CFF401B02280BD9A06A40F01000D8
:100A3000A062E06A40F00100E06284F824600120D6
:100A4000F8BD20688068C043C007E9D10020F8BD28
:100A50001C00002040420F00FEE70000094808B5D6
:100A6000816941F040018161806900F0400000909F
:100A700000F00CF80122BDE80840D102024800F065
:100A800018BF000000100240001801401FB54FF4CD
:100A90000060009001200190032003906946024805
:100AA00000F00EFE1FBD0000001801402DE9F041CE
:100AB0000025174E2C464FF400674FF001083946C9
:100AC000304600F0F1FE0028F9D0282002F09CFF0B
:100AD0003946304600F0E8FE01280BD0C4F107018A
:100AE00008FA01F08543641CE4B2082CE7D32846D9
:100AF000BDE8F0813946304600F0D6FE0128F9D035
:100B0000C4F1070108FA01F0C0B20543EBE70000A9
:100B1000001801402DE9FF470446FFF7B7FF394EA3
:100B20004FF4006500222946304600F0C2FE132033
:100B300000F0B4FD01222946304600F0BAFE1E2026
:100B400002F062FF0020CDE90050012002906946CA
:100B5000304600F0B5FD2946304600F0A5FE18B13C
:100B6000002004B0BDE8F0872946304600F09CFE26
:100B70000028F9D02946304600F096FE0128F9D029
:100B8000FFF794FF2070FFF791FF6070FFF78EFF73
:100B9000A070FFF78BFFE070FFF788FF2071FFF771
:100BA00075FF01222946304600F083FE27786078E1
:100BB00007EBC701804601EB071100EB8100FFF74F
:100BC00028FDDFF844904946FFF748FBA060A57870
:100BD000E67805EBC50000EB051006EB8000FFF79B
:100BE00018FD4946FFF73AFBE06007EB0800A9193A
:100BF00008442179C0B2814201D10220B1E701202D
:100C0000AFE70000001801400000C842014800F0B2
:100C1000ABBB00009800002030B590F84050012494
:100C2000AC40C56B6C60046863604368102B03685C
:100C300003D099600068C26030BD9A600068C160EE
:100C400030BD704770470000F8B50024009490F85C
:100C500024202546012A12D0012280F824204A6847
:100C60001F23072A0DD20668776B521E02EB820201
:100C700093409F430B6893401F43776319E0022022
:100C8000F8BD06680D2A0AD2376BD21F02EB82022A
:100C900093409F430B6893401F43376309E0F76A13
:100CA0000D3A02EB820293409F430B6893401F432F
:100CB000F7620A68072306680A2A0AD3F7680A3A1D
:100CC00002EB420293409F438B6893401F43F760BF
:100CD00008E0376902EB420293409F438B689340E0
:100CE0001F4337610A68102A01D0112A20D1124B04
:100CF00002689A4217D193681B0219D4936843F48F
:100D0000000393600968102912D10C490C4A096844
:100D1000B1FBF2F101EB8101490000E0491E0091B5
:100D20000029FBD104E0816A41F0200181620124A5
:100D300080F824502046F8BD002401401C0000200B
:100D400040420F007047704770470068C06C7047A2
:100D50002DE9F04104004FF000057FD0A06A002685
:100D600028B9E66284F82460204600F081F8204625
:100D7000FFF7DAFDA16AC90600D420B1A06A40F0ED
:100D80001000A0626AE0A16A21F4885141F00201DA
:100D9000A162334923688B42E16904D1B1F5402F48
:100DA00001D14FF40021E7684FF4807C41EA47020B
:100DB00061680A43A168614508D0012906D0002175
:100DC000D4F814E0BEF1010F02D00AE06146F7E763
:100DD000C7B1A76A47F02007A762E76A47F0010793
:100DE000E7625F6827F469470F435F60236899688B
:100DF0001C4F394011439960A16861450BD001290E
:100E000009D00CE0DFF860E0A7690EEB47370F432D
:100E100047F40061E5E7218A0D05A5F580152168F5
:100E2000CB6A23F470032B43CB62216889680F4B94
:100E30001940914208D1E662A16A21F0020141F015
:100E40000101A162BDE8F081A06A20F0020040F03B
:100E50001000A062E06A40F00100E0620120F1E7CA
:100E6000003C0140FDF7E1FF00E0FFFFFE0E1FFF29
:100E7000F0B585B0002500950195029503950646CD
:100E8000274B0268274903209A422DD18A6942F4F0
:100E900000728A618A6902F4007204928A6942F0DF
:100EA00004028A6189692027CDE9007001F00401FC
:100EB000049169461C4800F003FC1D4C1B48C4E922
:100EC00000058020C4E90250400020618000E561F7
:100ED000C4E90507204600F06BFB08B1FFF7B2FE3E
:100EE0003462666205B0F0BD124B9A42FAD18A694B
:100EF00042F480628A618A6902F4806204928A699B
:100F000042F010028A61896901F0100104911021F8
:100F1000CDE900106946084800F0D2FBE2E7000086
:100F20000024014000100240000801400800024077
:100F30009800002000280140001001402DE9F843EE
:100F400000260D460446009600F0B8FC8046206856
:100F50008168C90508D5A06A40F02000A06284F825
:100F600024600120BDE8F8834168C90503D4C06A44
:100F700010F4700F26D0022000F00AFE38490968EC
:100F8000B1FBF0F72068036936490B424FEA610173
:100F90004FEAA1121BD1C3684FEA611C13EA0C0F80
:100FA00015D103690B4221D1C06810421ED1142013
:100FB0001FE0681C06D045B300F080FCA0EB0800E1
:100FC000A84222D8206800688007F2D52AE0036989
:100FD0000B4202D1C168114206D0026922490A427D
:100FE00006D1C068084203D1542002E0292000E065
:100FF000FC204743009813E0681C0ED02DB100F090
:101000005DFCA0EB0800A84207D9A06A40F00400EC
:10101000A06284F824600320A4E70098401C00909C
:10102000B842E9D321686FF012000860A06A40F46A
:101030000070A06220688068C0F3424007280CD18D
:10104000E06850B9A06A20F48070A062A06AC00471
:1010500003D4A06A40F00100A062002082E70000F3
:101060001C000020244992244992240070B50446B3
:1010700090F8240001280DD0012084F82400204697
:10108000FFF7B2FC02004FF0000005D084F8240006
:10109000104670BD022070BDA16A40F20123994341
:1010A00041F48071A1621F4D23681F49AB4218D1E2
:1010B0000E6816F4702F14D0A66A46F48016A66245
:1010C0000E68760505D5A66A26F4005646F48056C5
:1010D000A662A66AF6040AD5E66A26F00606E66265
:1010E00006E0A66A26F48016A6625E68E9E7E0627A
:1010F00084F824006FF00200186020688368C3F34E
:101100004243072B05D1A84208D1096811F4702F7A
:1011100004D0816841F480118160B9E7816841F4AD
:10112000A001F9E700280140042401402DE9F0471F
:10113000894604463B4900683B4F0E1D9046884255
:1011400001D0B84207D1306810F4702F03D00125C8
:101150002846BDE8F08794F8240001280CD001202F
:1011600084F824002046FFF73FFC05004FF0000004
:1011700004D084F82400EBE70220EAE7A16A40F6F5
:101180000162914341F48071A1622168B94218D192
:10119000326812F4702F14D0A16A41F48011A16258
:1011A0003168490505D5A16A21F4005141F4805107
:1011B000A162A16AC9040AD5E16A21F00601E162CF
:1011C00006E0A26A22F48012A2624968E9E7E062BE
:1011D00084F82400216A15488862216A1448C8628C
:1011E000216A1448086321686FF0020008602068D3
:1011F000816841F480718160216843464A464C31E0
:10120000206A00F013FA20688168C1F3424107297F
:10121000816803D041F48011816099E741F4A00115
:10122000FAE7000000240140002801407509000889
:10123000DD090008C30900082DE9F05F90F82110CE
:101240000024022903D004218163012485E0016880
:101250000A6822F00E020A6001680A6822F00102A0
:101260000A603F4E3E4FB215DFF8F4C0DFF8F09051
:10127000DFF8ECA0DFF8E8B0DFF8E4E00168783FE1
:1012800013011502ACF1640CA9F15009AAF13C0A52
:10129000ABF1280BAEF1140E4FF48018B14227D9F0
:1012A000B9420ED0614512D049451DD0514518D0E4
:1012B000594518D0714501D1424615E0294EB14239
:1012C00001D1012210E0274E1436B14201D1102283
:1012D0000AE0244E2836B14206D0224A3C329142DE
:1012E00001D11A4600E02A461E49091F0A602BE078
:1012F000B94213D0614517D0494522D051451DD080
:1013000059451DD0714501D142461AE0B14202D182
:101310004FF0807215E0134EB14201D1012210E06E
:10132000104E1436B14201D110220AE00D4E28367B
:10133000B14206D00B4A3C32914201D11A4600E03C
:101340002A46074980394A60012180F8211000218E
:1013500080F82010416B01B188472046BDE8F09F1E
:1013600080000240080402402DE9F05FC16B0A686A
:1013700001680B68046C4FF0040808FA04F8844D07
:10138000844E854FDFF814C2DFF81492DFF814A200
:10139000DFF814B2DFF814E218EA020F65D05FEA52
:1013A000437862D50A68920603D40A6822F00402E0
:1013B0000A60DFF8F0814FF48062016808F11408D8
:1013C00013011402414524D9A9420DD0B1420FD0D6
:1013D000B9421AD0614515D0494515D0514501D1C2
:1013E000120312E0594501D104220EE0714501D1EA
:1013F00040220AE06D4D1435A94206D06B4A2832CE
:10140000914201D11A4600E022466749091F0A604D
:1014100029E0A94213D0B14215D0B94220D061458C
:101420001BD049451BD0514502D14FF4800217E033
:10143000414502D14FF0806212E0594501D10422AA
:101440000EE0714501D140220AE0584D1435A94201
:1014500006D0564A2832914201D11A4600E022466F
:101460004B4908394A60C16A71E04FF0020808FA36
:1014700004F818EA020F70D05FEA83786DD50A6825
:10148000920606D40A6822F00A020A60012180F856
:101490002110DFF810814FF40072016808F1140880
:1014A00013011402414524D9A9420DD0B1420FD0F5
:1014B000B9421AD0614515D0494515D0514501D1E1
:1014C000120312E0594501D102220EE0714501D10B
:1014D00020220AE0354D1435A94206D0334A28327D
:1014E000914201D11A4600E022462F49091F0A60A5
:1014F00029E0A94213D0B14215D0B94220D06145AC
:101500001BD049451BD0514502D14FF4001217E0C2
:10151000414502D14FF0007212E0594501D102223B
:101520000EE0714501D120220AE0204D1435A94278
:1015300006D01E4A2832914201D11A4600E02246C6
:10154000134908394A60002180F82010816A002977
:101550001CD0BDE8F05F0847FFE70825A54015420D
:1015600014D01A0712D50A6822F00E020A6090F809
:101570004020C36B012101FA02F25A60816380F8B6
:101580002110002180F82010016BE0E7BDE8F09FFA
:10159000080002401C0002403000024044000240AB
:1015A000580002406C000240080402401C04024043
:1015B00030B560B11A4B026814219A4209D2194B16
:1015C0001344B3FBF1F18900016417490AE00120DB
:1015D00030BD134B5B421344B3FBF1F1890001644E
:1015E0000F490839C163022180F82110136843F6BE
:1015F000F0718B43F0E901142143D0E902452C43FB
:1016000021430469214344692143846921431943E7
:10161000116000214163012242770177084630BD05
:1016200008040240F8FFFDBF0000024070B5044608
:1016300090F82000002501280CD0012084F820001B
:1016400094F821600020012E06D084F820000225A5
:10165000284670BD022070BD022684F82160A06378
:101660002068066826F0010606602046FFF7D4FAD7
:10167000E06A00282068016802D041F00E0106E00F
:1016800021F0040101602068016841F00A01016055
:101690002068016841F001010160D9E770B5044696
:1016A00000F00CF90546601C02D0044800780444A0
:1016B00000F004F9401BA042FAD370BD10000020D6
:1016C0002DE9F84FDFF8B8A100220AF1040B144607
:1016D00001274FF00F090BF1040E00BF0B6807FA4A
:1016E00004F52B40AB4274D1DFF898C14E68A6EBED
:1016F0000C0866452BD00DDC032E34D005DC36B348
:10170000012E19D0022E2FD11BE0112E16D0122E31
:101710002AD119E0B8F5881F19D006DCB8F5803F4A
:1017200015D0B8F5801F1FD111E0B8F5001F0ED0FD
:10173000B8F5041F18D10AE0CA6815E0CA68121D7E
:1017400012E0CA6808320FE0CA680C320CE08A68FE
:101750002AB1012A4FF0080203D0456104E00422B7
:1017600002E0056100E00022FF2B01D8064601E0FF
:1017700000F104064FEA840501D9A5F12005D6F849
:1017800000C009FA05F82CEA080C02FA05F54CEA43
:10179000050CC6F800C04D68ED006AD53A4DAE693B
:1017A00046F00106AE61AD6924F0030605F00105BF
:1017B0000095364D06EB050CDCF80850A6074FEAFD
:1017C000167809FA08F6B543314EB04202D1002628
:1017D0001AE04EE02F4EB04201D1012614E02E4E09
:1017E000B04201D102260FE02C4EB04201D10326B7
:1017F0000AE02B4EB04201D1042605E0294EB0424A
:1018000001D1052600E0062606FA08F62E43CCF89C
:1018100008604D68DAF80060ED03554601D51E43B7
:1018200000E09E432E604D68AD0305D5DBF80060F7
:101830001E43CBF8006004E0DBF800509D43CBF87A
:1018400000504D68DEF80060ED02754601D51E437C
:1018500000E09E432E604D68AD0205D5084D0C3565
:101860002E681E432E6004E0054E0C3635689D43FD
:101870003560641C102CFFF431AFBDE8F88F000018
:10188000000401400000111000100240000001405F
:1018900000080140000C014000100140001401400C
:1018A00000180140001C01408068084000D0012061
:1018B00070470AB1016170470904FBE7014880687D
:1018C000704700001000002070B504001BD094F891
:1018D0003D00002520B984F83C50204600F094F8E3
:1018E000242084F83D002068016821F00101016096
:1018F00000F0E4FA404A6168914201D83F4900E0B3
:101900003F49884201D2012070BD3E492368B0FBA7
:10191000F1F159606368934206D94FF496735943C5
:101920004FF47A73B1FBF3F12368491C19626168C3
:10193000914210D84900401EB0FBF1F2521CC2F394
:101940000B02042A01D2042022E0B0FBF1F0401C7B
:10195000C0F30B001CE0A368CBB301EBC10202EBA8
:101960000116421EB2FBF6F2521C42F480421205EE
:1019700036D06BB301EBC10202EB0111401EB0FB8C
:10198000F1F0401CC0F30B0040F4804040F40040F4
:101990002168C861D4E90701084321680860D4E9D7
:1019A0000310084321688860D4E9050108432168D1
:1019B000C8602068016841F00101016025642020B1
:1019C00084F83D00256384F83E50002070BD00E09F
:1019D00008E001EB4106421EB2FBF6F2521CC6E7DC
:1019E0000120D5E701EB4101401EB0FBF1F0401CA6
:1019F000C0F30B00CAE70000A086010080841E002F
:101A000000093D0040420F0010B586B00021009152
:101A100001910291039100680F4988421AD10F4C3D
:101A2000A06940F00800A061A069694600F00800C4
:101A30000490C020009012200190032003900848D9
:101A4000FFF73EFEE06940F40010E061E06900F459
:101A50000010049006B010BD005400400010024079
:101A6000000C01400248816802781144816070478F
:101A700010000020074810B5016841F01001016016
:101A8000032000F073F8002000F006F800F024F8BE
:101A9000002010BD0020024070B50D4D04464FF4EB
:101AA0007A712878B1FBF0F00A490968B1FBF0F0CF
:101AB00000F0DCFB48B9102C07D200222146501E52
:101AC00000F034F800206C6070BD012070BD000093
:101AD000100000201C0000200C4808B5816941F06E
:101AE00001018161816901F001010091C16941F049
:101AF0008051C161C06900F0805000900448416885
:101B000021F0E06141F08061416008BD00100240B9
:101B10000000014000F01F020121914040098000B7
:101B200000F1E020C0F8001170470000F0B40E4B47
:101B30001B680C46C3F30223C3F10705042D00D92B
:101B40000425191D072901D2002300E0DB1E012610
:101B500006FA05F1491E214099409E40761E164026
:101B60003143F0BC01F059B80CED00E0064900F03B
:101B7000070208684FF6FF03184040EA0220034AB4
:101B800010430860704700000CED00E00000FA050B
:101B900010B52CA401461DCC86B08DE81D002DA0EB
:101BA0002D4C00680490002004292FD00BDC012963
:101BB0002FD0022928D100F091F96168C1F3813159
:101BC000491C49001EE0082920D010291CD1616859
:101BD0002268D20118D5C1F38342C9031DF802005F
:101BE00009D5616804AAC1F34041515C1B4AB2FBAC
:101BF000F1F1484301E01A4948436168490203D4BE
:101C000040000321B0FBF1F006B010BD00F076F902
:101C1000FAE7226AC2F30121012903D1920701D513
:101C2000C803F1E7022905D1626A920702D549F695
:101C30004040E9E70329E7D121688903E4D54FF261
:101C40002440E1E702030405060708090A0B0C0D0E
:101C50000E0F1010010200000010024000127A0066
:101C600000093D002DE9F84305460078354CC007D2
:101C700054D0E0690026C00008D4E06940F08050EC
:101C8000E061E069012600F0805000902E48016874
:101C9000C90512D40168804641F480710160FFF7E4
:101CA0000DFE074605E000BFFFF708FEC01B6428D5
:101CB00023D8D8F80000C005F6D5206A10F440708B
:101CC00021D0A98801F4407181421CD0206A1F49AB
:101CD000012220F440700A6000220A602062C007DE
:101CE00011D0FFF7EBFD074641F2883808E000BF4E
:101CF000FFF7E4FDC11B414502D90320BDE8F8838D
:101D0000206A8007F4D5206A696820F4407008438F
:101D100020621EB1E06920F08050E06128788007E1
:101D200005D56068A96820F44040084360602878C1
:101D3000C00605D56068696920F4800008436060CA
:101D40000020DBE7001002400070004040044242E7
:101D50002DE9F047DFF8548105460E46D8F800001B
:101D600000F00700B0420CD2D8F8001021F00701B3
:101D70003143C8F80010D8F8000000F00700B04266
:101D80006FD128684A4C810712D5400703D5606897
:101D900040F4E06060602878000703D5606840F494
:101DA000605060606068A96820F0F00008436060DF
:101DB0002878C00744D06868012816D02168022816
:101DC00016D0890700294CDA616821F0030101432C
:101DD0006160FFF773FD6968074641F288300129A9
:101DE0000ED00229814618D026E021688903E9E750
:101DF0008901E7E7FFF762FDC11B494501D918E0FA
:101E000081466068C0F381000128F3D118E000BF6B
:101E1000FFF754FDC11B49450BD86068C0F3810032
:101E20000228F5D10CE000BFFFF748FDC11B494572
:101E300002D90320BDE8F087606810F00C0FF3D1E1
:101E4000D8F80010404601F00701B1420BD90168F3
:101E500021F0070131430160006800F00700B04243
:101E600001D00120E6E72878400705D56068E968D9
:101E700020F4E060084360602878000706D56068B9
:101E8000296920F4605040EAC100606000F036F833
:101E90006168084AC1F30311515CC84006490860F3
:101EA0000020FFF7F9FD0020C4E7000000200240F9
:101EB00000100240003C00081C00002004480549B6
:101EC00000684968044AC1F30221515CC840704768
:101ED0001C00002000100240103C00080448054986
:101EE00000684968044AC1F3C221515CC840704788
:101EF0001C00002000100240103C000812A185B018
:101F00000FC98DE80F0014A0144A006804905168AE
:101F1000134801F00C03042B10D0082B0ED1C1F391
:101F20008343C9031DF803000AD5516804AAC1F30D
:101F30004041515C0A4A5043B0FBF1F005B0704794
:101F400008494843FAE700000203040506070809A8
:101F50000A0B0C0D0E0F10100102000000100240C1
:101F600000127A0000093D002DE9F84F0446007880
:101F7000B94DC00748D06868C0F38100012807D078
:101F80006868C0F38100022809D16868C00306D5DB
:101F90002868800338D5606800286FD034E0606816
:101FA000B0F5803F0BD010B1B0F5A02F11D028684C
:101FB00020F480302860286820F4802002E028681F
:101FC00040F480302860606888B1FFF777FC0646EF
:101FD00009E0286840F480202860F0E7FFF76EFCF5
:101FE000801B642875D828688003F7D50CE0FFF7BC
:101FF00065FC064605E000BFFFF760FC801B642817
:10200000F0D828688003F7D42078944E80074FF0EA
:1020100001094FF000083BD5686810F00C0F07D09D
:102020006868C0F38100022809D16868C00306D43B
:102030002868800714D5206901281FD110E0206985
:10204000B0B1C6F80090FFF739FC074605E000BFC5
:10205000FFF734FCC01B0228C4D828688007F7D5D6
:102060002868616920F0F80040EAC10028600FE0AC
:10207000C6F80080FFF722FC074606E0E9E000BF53
:10208000FFF71CFCC01B022823D828688007F7D460
:10209000207800072CD57248A169D9B1C0F800900A
:1020A000FFF70CFC074604E0FFF708FCC01B022802
:1020B0000FD8686A8007F7D56A484FF4FA5100686C
:1020C000B0FBF1F0009000BF0098411E0091FAD2E1
:1020D0000EE080E0C0F80080FFF7F0FB074604E068
:1020E000FFF7ECFBC01B022875D8686A8007F7D49D
:1020F0002078400760D5E8690027C00008D4E86967
:1021000040F08050E861E869012700F080500090BD
:1021100055480168C90513D40168834641F48071AC
:102120000160FFF7CBFB824606E000BFFFF7C6FB6E
:10213000A0EB0A0064284ED8DBF80000C005F5D5F6
:10214000E06801280AD008B1052813D0286A20F0D9
:1021500001002862286A20F0040002E0286A40F0AA
:1021600001002862E06841F2883B98B1FFF7A6FBC6
:1021700082460BE0286A40F004002862EEE700BFC8
:10218000FFF79CFBA0EB0A0159455AD8286A800743
:10219000F6D50CE0FFF792FB824605E0FFF78EFBD9
:1021A000A0EB0A0159454CD8286A8007F6D41FB124
:1021B000E86920F08050E861E06988B36968C1F39C
:1021C0008101022945D00228C6F8608004D0FFF7BB
:1021D00075FB044638E034E0FFF770FB074604E087
:1021E000FFF76CFBC01B02282BD828688001F7D4AE
:1021F000206AB0F5803F05D16868A16820F40030FE
:1022000008436860D4E908010843696821F474113F
:1022100008436860C6F86090FFF750FB044606E08C
:1022200015E000BFFFF74AFB001B022809D8286809
:102230008001F7D50BE000BFFFF740FB001B022831
:1022400002D90320BDE8F88F28688001F4D400206B
:10225000F8E70120F6E700000010024000004242CB
:10226000800442421C0000200070004010B5401E57
:10227000B0F1807F01D3012010BD4FF0E0246061F8
:102280000F21601700F0C9FC0020A0610720206129
:10229000002010BD30B590F83C20012A20D001224A
:1022A00080F83C20022380F83D3003685C6824F00D
:1022B00070045C6003685C680D682C435C600368B4
:1022C0009C6824F080049C6003689C6849680C4307
:1022D0009C6080F83D20002180F83C10084630BD0D
:1022E000022030BD10B5040003D094F83D0010B1B9
:1022F00007E0012010BD002084F83C00204600F0DB
:102300000DF8022084F83D00211D206800F0FCFC3F
:10231000012084F83D00002010BD000008B50068D1
:102320000649884208D10648C16941F02001C161CF
:10233000C06900F02000009008BD000000140040BB
:1023400000100240022180F83D1001680A6842F046
:1023500001020A60012180F83D100020704702212F
:1023600080F83D1001680A6A41F211131A4207D140
:102370000A6A9B101A4203D10A6822F001020A601D
:10238000012180F83D1000207047704770B5026849
:1023900004461068D168536910F00F0F50D003F055
:1023A000010501F4907635435DD0C20705D0CA051A
:1023B00003D5E26B42F00102E263420705D5DA077A
:1023C00003D0E26B42F00202E263820705D5DA072E
:1023D00003D0E26B42F00402E263020705D5DA079C
:1023E00003D0E26B42F00802E263E26B002A33D0D2
:1023F000800604D5880602D5204600F0E1FC20685E
:102400004069E16BC0F38010090700D428B320466F
:1024100000F0C8FC2068416949061AD5416921F0DD
:1024200040014161606BA0B11B494163606BFEF7E5
:1024300003FF002810D0606B416BBDE87040084777
:10244000830610D58B060ED52046BDE8704000F0FF
:10245000B7BC2046FFF799FF70BD2046FFF795FFF8
:102460000020E06370BD030606D50B0604D52046A8
:10247000BDE8704000F0A8BD4006F3D54806F1D590
:10248000D168204621F04001D160202184F8391024
:1024900000F038F970BD0000952D000870B50400FB
:1024A00004D094F83900002510B106E0012070BD79
:1024B00084F83850204600F023F8242084F83900AE
:1024C0002068C16821F40051C160204600F0C4FCBE
:1024D0002068016921F4904101612068416921F07F
:1024E0002A0141612068C16841F40051C160E5637F
:1024F000202084F8390084F83A00002070BD0000E4
:10250000F0B585B0002400940194029403944849E6
:10251000464F03684E1502200322464DBB4225D18B
:102520008B6943F480438B618B6903F4804304938C
:102530008B6943F004038B61896901F00401CDE9E3
:102540000321CDE9006069462846FFF7B9F8281550
:10255000CDE90004694628460294FFF7B1F800224D
:1025600011462520FFF7E2FA252028E0324FBB4232
:1025700029D1CB6943F40033CB61CB6903F4003339
:1025800004938B6943F004038B618969039201F022
:10259000040104910421CDE9001069462846FFF7A3
:1025A0008FF80820CDE90004694628460294FFF719
:1025B00087F8002211462620FFF7B8FA2620FFF7F9
:1025C000A9FA05B0F0BD1D4DAB42FAD1CB6943F479
:1025D0008023CB61CB6903F4802304938B6943F0A0
:1025E00020038B618969039201F020010491A915F0
:1025F000CDE90010124D69462846FFF761F8CDE994
:102600000064694628460294FFF75AF80D4841686D
:1026100021F0300141F0E06141F0300141600022E1
:1026200011462720FFF782FA2720C8E7003801402B
:1026300000100240000801400044004000480040F3
:10264000001401400000014070472DE9F8430446A2
:1026500090F839001F4616460D46202850D1A5B1E6
:102660009EB194F8380001284AD0012084F838003F
:102670004FF00008C4F83C80212084F83900FFF7AF
:102680001DF9A6848146E68426E00120BDE8F88392
:10269000E08C401EE084A0684B46B0F5805F4FF0B0
:1026A00000024FF080012046009703D000F0BDFCEF
:1026B000E8B90DE000F0B9FCC8B928882168C0F37A
:1026C00008004860206908B16D1C05E0AD1C03E0FE
:1026D000216815F8010B4860E08C0028D8D14B46E2
:1026E000002240212046009700F09FFC08B1032003
:1026F000CCE7202084F8390084F838800020C5E732
:102700000220C3E77047FEE72DE9F041164D012294
:1027100002212846FFF7CDF8012204212846FFF7C1
:10272000C8F8052001F070F900247006070E012298
:1027300002212846FFF7BDF8052001F065F90421C4
:102740002846FFF7B1F840EA070600220221284692
:10275000FFF7AFF8052001F057F9641CE4B2082C2C
:10276000E3D33046BDE8F0810010014070B5104D54
:10277000012204212846FFF79CF801220221284665
:10278000FFF797F8052001F03FF904212846FFF7ED
:102790008BF801280AD00024002202212846FFF7E6
:1027A00088F8052001F030F9204670BD0124F3E7D8
:1027B0000010014010B50F4C012801D010B106E007
:1027C000012200E0002204212046FFF772F80122D6
:1027D00002212046FFF76DF8052001F015F90022CF
:1027E00002212046FFF765F8BDE81040052001F002
:1027F0000BB900000010014070B51B4D06460122C8
:1028000004212846FFF755F8002202212846FFF749
:1028100050F8052001F0F8F85FF0000406FA04F023
:10282000000601D5012200E0002204212846FFF71E
:1028300040F8052001F0E8F8012202212846FFF7C0
:1028400038F8052001F0E0F8002202212846FFF7C1
:1028500030F8052001F0D8F8641CE4B2082CDDD370
:10286000BDE87040FFF782BF0010014010B50E4C6C
:10287000012204212046FFF71CF8012202212046F4
:10288000FFF717F8052001F0BFF8002204212046C9
:10289000FFF70FF8052001F0B7F820460022BDE849
:1028A00010400221FFF705B80010014010B50C4C94
:1028B000002204212046FEF7FCFF012202212046CF
:1028C000FEF7F7FF052001F09FF8012204212046C2
:1028D000FEF7EFFFBDE81040052001F095B80000BD
:1028E0000010014010B56420FEF7D8FEBDE810408E
:1028F000012000F0A4B900003EB500241148009466
:1029000001940F49029401600125C0E90245446128
:1029100005614FF460214460C161FEF719FA08B106
:10292000FEF790F90520CDE90005694602940548B7
:10293000FEF78AF9002801D0FEF784F93EBD0000B9
:1029400000240140380000203EB5002411480094C6
:1029500001940F49029401600125C0E902454461D8
:1029600005614FF460214460C161FEF7F1F908B1DF
:10297000FEF768F90E20CDE9000569460294054886
:10298000FEF762F9002801D0FEF75CF93EBD0000B9
:102990000028014068000020094808B5416941F05D
:1029A000010141614069002200F0010000901146E0
:1029B0000B20FFF7BBF8BDE808400B20FFF7AAB8D3
:1029C000001002402DE9F04385B000243248009405
:1029D000019402940394816941F01001816181693D
:1029E00001F010010491816941F004018161816964
:1029F00001F004010491816941F040018161816924
:102A000001F040010491816941F0200181618169F7
:102A100001F020010491816941F008018161806920
:102A2000DFF8788000F0080004900022262140465C
:102A3000FEF73FFFDFF868904FF4704700223946F9
:102A40004846FEF736FF0620009001AA1120022515
:102A500082E8310069464046FEF732FE202001261A
:102A6000CDE9000669464046CDE90245FEF728FE5D
:102A70004FF44060CDE90004694648460294FEF7F1
:102A80001FFECDE9007669464846CDE90245FEF7CE
:102A900017FE05B0BDE8F0830010024000100140B1
:102AA000001801400D4810B50B4901600C49416008
:102AB00000214FF480428160C0E9031241618161CD
:102AC000C1610162FEF700FF002803D0BDE810409D
:102AD000FEF7B8B810BD000000540040DC00002034
:102AE000A08601001CB500240F4800940D490194F4
:102AF00001604821C0E901144FF6FF71C1608021D7
:102B00008161FFF7EFFB08B1FEF79CF8009469467E
:102B100005480194FFF7BEFB002801D0FEF792F8AC
:102B20001CBD000000140040300100200C4810B50E
:102B30000A4901604FF4E1314160002181600C22BB
:102B4000C160C0E904128161C161FFF7A7FC0028E0
:102B500003D0BDE81040FEF775B810BD0038014045
:102B6000700100200C4810B50A4901604FF4E131B2
:102B70004160002181600C22C160C0E904128161C2
:102B8000C161FFF78BFC002803D0BDE81040FEF7C1
:102B900059B810BD00440040B00100200C4810B5E9
:102BA0000A4901604FF4E1314160002181600C224B
:102BB000C160C0E904128161C161FFF76FFC0028A8
:102BC00003D0BDE81040FEF73DB810BD00480040FE
:102BD000F0010020FEE7000070B5FFF747FE472038
:102BE000FFF70AFE00240B4DFFF78EFD2855032C3E
:102BF0000DD00020FFF7DEFD641CE4B2032CF3D3FC
:102C0000FFF754FEBDE87040052000F0FDBE012036
:102C1000F0E700000800002070470907090E0028AF
:102C200006DA00F00F0000F1E02080F8141D704774
:102C300000F1E02080F8001470477047704710B52D
:102C40000446FFF713FE4620FFF7D6FD2046FFF7A8
:102C5000D3FDBDE81040FFF729BEFEF703BF30B536
:102C600095B028216846FDF796FA14210AA8FDF7C9
:102C700092FA18210FA8FDF78EFA01210804CDE978
:102C800000100024029402250491CDE907504FF46E
:102C9000E01009906846FFF767F90F20CDE90A05B3
:102CA0006802CDE90C4002210AA80E94FFF750F803
:102CB000A80311900F950FA8FEF7D4FF15B030BDF3
:102CC0000D48016841F00101016041680B4A114063
:102CD000416001680A4A11400160016821F48021C5
:102CE0000160416821F4FE0141604FF41F018160E1
:102CF0000449C00308607047001002400000FFF85C
:102D0000FFFFF6FE08ED00E0F0B502681C4B1D4D1C
:102D10001D4E1E4F1E4C4FF0804C984209D0A042D1
:102D200007D0604505D0A84203D0B04201D0B842D8
:102D300004D122F0700E4A6842EA0E02984209D08D
:102D4000A04207D0604505D0A84203D0B04201D0D0
:102D5000B84203D122F44075CA682A4322F08005A4
:102D60004A692A4302608A68C2620A68826298429B
:102D700001D0A04201D10969016301214161F0BD87
:102D8000002C01400004004000080040000C0040FE
:102D90000034014010B5406A0021C185C184FFF7AD
:102DA000F4FA10BD0168CA6822F49072CA60016822
:102DB0004A6922F001024A61202180F83A107047E6
:102DC00010B590F83A10222901D0022010BD816878
:102DD000B1F5805F11D00169002901681FD04968F1
:102DE00001F07F03816A4A1C82620B70C18D491E0B
:102DF0000904090CC18518D02BE00269816A002AF8
:102E00000268526805D0D2B20A80816A491C816288
:102E1000ECE7C2F308020A80816A891CF7E74A6876
:102E2000816A4B1C83620A70E0E70168CA6822F07D
:102E30002002CA600168CA6822F48072CA60016810
:102E40004A6922F001024A61202180F83A10FFF716
:102E5000FBFB002010BD00002DE9F0410446006896
:102E60000169E26821F44051114301612169A068C0
:102E70000843616908432168CA6841F20C639A43B8
:102E80000243CA6020684169A26921F4407111437C
:102E900041614C4920686425322688423CD1FFF7C5
:102EA0001DF800EBC00101EB001061688900B0FB68
:102EB000F1F7FFF713F800EBC00101EB00106168B8
:102EC000B0468900B0FBF1F0B0FBF5F06FF01801EF
:102ED000484307EB800106EB0110B0FBF5F000F072
:102EE000F006FEF7FBFF00EBC00101EB001061688C
:102EF0008900B0FBF1F0B0FBF5F006EB0016FEF731
:102F0000EDFF00EBC00101EB001061688900B0FB30
:102F1000F1F7FEF7E3FF3BE0FEF7D0FF00EBC00167
:102F200001EB001061688900B0FBF1F7FEF7C6FF06
:102F300000EBC00101EB00106168B0468900B0FBF6
:102F4000F1F0B0FBF5F06FF01801484307EB80019A
:102F500006EB0110B0FBF5F000F0F006FEF7AEFF57
:102F600000EBC00101EB001061688900B0FBF1F0DB
:102F7000B0FBF5F006EB0016FEF7A0FF00EBC0017A
:102F800001EB001061688900B0FBF1F7FEF796FFD6
:102F900000EBC00101EB001061688900B0FBF1F0AB
:102FA000B0FBF5F06FF01801484307EB800108EB28
:102FB0000110B0FBF5F0216800F00F00304488608C
:102FC000BDE8F0810038014090F83910212901D086
:102FD000022070478168B1F5805F016A0BD04A1CFE
:102FE0000262026809785160C18C491E0904090C0B
:102FF000C1840ED017E009880268C1F3080151604E
:1030000001690029016A02D0491C0162ECE7891CB0
:10301000FBE70168CA6822F08002CA600068C168E4
:1030200041F04001C160002070472DE9F041984611
:1030300017460E460446069D1DE0681C1BD02DB1A8
:10304000FEF73CFCA0EB0800A84214D92068C16838
:1030500021F4D071C1602068416921F00101416112
:10306000202084F8390084F83A00002084F83800E1
:103070000320BDE8F0812068006836EA000004D033
:103080000020B842D9D00020F3E70120F9E7000082
:103090000148FFF77BB90000700100200148FFF7ED
:1030A00075B90000B00100200148FFF76FB90000BA
:1030B000F0010020FEE7000010B50120FFF7BFFD82
:1030C0001020FFF7BCFDB42000F09EFCFFF784FD4C
:1030D0000A48A0F108040178407800EB0120206044
:1030E000FDF78EFAFDF7B3FA4FF03332044BFDF7DC
:1030F00018FAFDF7BFFA606010BD0000080000205C
:103100003333F33F0FB4084B10B504A902AA039858
:1031100000F0DEF8044602A9002000F070FC204612
:1031200010BC5DF814FB0000FF39000802E008C87D
:10313000121F08C1002AFAD170477047002001E031
:1031400001C1121F002AFBD1704700002DE9FF5F6B
:1031500082B00021DDE90430020DDDF840B0034308
:1031600018D044F61050A2F2FF32424315141198C1
:1031700001281FD0A5EB0B00401C5FEA000A4FF0AE
:1031800000064E4FDFF83891B046504615D5CAF1CB
:10319000000413E0119801244AA3012801D16FEA29
:1031A0000B010298119AC0E90031C0E9024206B051
:1031B000BDE8F09FCBF10000DFE704460021404A64
:1031C000491842EB0450CDE9001012E0E00707D0A7
:1031D00032463B4640464946FDF731F9804689462E
:1031E00032463B4610461946FDF729F906460F467A
:1031F0006410002CEAD1DDE90401DDE90023BAF115
:10320000000F06DAFDF71BF942464B46FDF717F9AA
:1032100005E0FDF786F942464B46FDF782F9044684
:103220000E460022284BFDF755FB03D84FF0FF3028
:10323000014607E00022254B20463146FDF758F8AD
:10324000FDF730FB102409E0002C0ADB0A220023E2
:10325000FDF742FA039B30321A55641E50EA010210
:10326000F2D1641C039AC4F111031444119A012A87
:1032700003D0012208430DD10AE0084304D0002006
:103280004FF0110B119072E7A3EB0B056D1E0DE0D3
:103290005B4504DD4FF0000205F1010504E003DAAF
:1032A0004FF00002A5F10105002AECD00298119917
:1032B000C0E90231C0E9004579E700000000144090
:1032C0000000F03F300000000000F0430000E03F4D
:1032D0002DE9FF4F95B09B468946064600250FE233
:1032E000252877D100242746F84A0121059400E0DB
:1032F000044316F8013F203B01FA03F01042F7D1D6
:1033000030782A2811D06FF02F033078A0F13002E6
:10331000092A16D8059A44F0020402EB820203EB54
:1033200042021044761C0590EFE759F8042B0592F1
:10333000002A03DA504244F40054059044F0020499
:10334000761C30782E2816D116F8010F44F00404AC
:103350002A280DD06FF02F023078A0F13003092B0E
:1033600009D807EB870302EB4303C718761CF3E782
:1033700059F8047B761C30786C280FD006DC4C287A
:1033800017D068280DD06A2814D104E0742810D012
:103390007A280FD10DE044F400140AE044F48014BC
:1033A00001E044F440147278824202D104F58014A2
:1033B000761C761C307866280BD013DC582877D022
:1033C00009DC002875D04528F6D04628F4D04728D7
:1033D0001AD19DE118E0632835D0642879D065289A
:1033E00012D195E1702873D008DC6728F1D06928E4
:1033F0006FD06E280DD06F2806D1B5E073282CD081
:10340000752875D0782874D05A46179990476D1C46
:1034100075E1C4F30250022809D003280DD0D9F871
:10342000001004280DD00D6009F1040967E1D9F8F6
:103430000010EA17C1E90052F6E7D9F800100D8034
:10344000F2E70D70F0E719F8041B8DF8001000206A
:103450008DF80100EA46012003E059F804AB4FF073
:10346000FF3061074FF0000102D40DE008F10101C7
:103470008846B9420FDA8045F8DB1AF808100029AF
:10348000F4D108E008F1010188468142FADB1AF81C
:1034900008100029F6D105985B46A0EB08072146E5
:1034A0003846179A00F094FA284400EB080507E024
:1034B0004DE029E10DE01AF8010B5A4617999047A3
:1034C000B8F10108F7D25B4621463846179A13E156
:1034D00042E00A220092C4F302524FF0000A022A8C
:1034E00008D059F804CB032A4FEAEC710AD00DE05A
:1034F00029E02AE009F1070121F00702F2E802C100
:10350000914609E00FFA8CFC4FEAEC71042A03D1D2
:103510004FFA8CFC4FEAEC71002907DA0A460021C9
:10352000DCF1000C61EB02012D2202E0220504D542
:103530002B228DF80420012203E0E20701D0202293
:10354000F7E7904659E00A2102E010220DE0102131
:103550004FF0000A00910BE010224FF0000A44F0F7
:1035600004040827009203E008224FF0000A0092AA
:10357000C4F30252022A05D059F804CB0021032AD1
:1035800008D009E009F1070121F00702F2E802C1C1
:10359000914605E01FFA8CFC042A01D10CF0FF0CC7
:1035A0004FF00008220728D5702806D0009B83F032
:1035B000100353EA0A0305D00EE040228DF80420E0
:1035C000012208E05CEA010206D030228DF80420D6
:1035D0008DF8050002229046009B83F0080353EA11
:1035E0000A030AD15CEA010201D1620705D5302243
:1035F0008DF804204FF001087F1E582804D034A015
:1036000003900EA802900DE036A0F9E753466046FD
:10361000009AFDF761F884460398825C0298401E88
:10362000029002705CEA0100F0D1029806A9081A23
:1036300000F1200A600702D524F4803400E001275D
:10364000574502DDA7EB0A0000E0002000EB0A016D
:10365000009005984144401A0590E00306D45B466B
:103660002146179A059800F0B3F90544002706E0B3
:1036700001A85A46C05D179990476D1C7F1C4745AD
:10368000F6DBE0030CD55B462146179A059800F05F
:103690009FF9054404E030205A46179990476D1C65
:1036A0000099481E00900029F5DC08E00298029974
:1036B0005A460078491C0291179990476D1CBAF13F
:1036C0000001AAF1010AF1DC65E10000092801000E
:1036D0003031323334353637383961626364656688
:1036E000000000003031323334353637383941424A
:1036F000434445460000000000F058F90544761C9C
:10370000307800287FF4ECAD19B02846BDE8F08F82
:10371000620700D4062709F1070222F0070CFCE833
:103720000223E14603F000485FEA080C02D00FF2E2
:10373000702C0DE05FEA045C02D50FF2682C07E004
:103740005FEAC47C02D00FF2602C01E0AFF2700C93
:103750004FF0FF3823F00043CDF850C065280CD05F
:1037600006DC452809D046281DD047283DD13DE03C
:10377000662818D067287ED138E00021112F01DBA0
:10378000112000E0781CCDE9000106A90EA8FFF782
:10379000DDFCDDE90F010E9A03910021009207F193
:1037A000010A04914DE04FF000400097CDE901106F
:1037B00006A90EA8FFF7CAFCDDE90F0203920E9BD3
:1037C00011990022DDF80CA00093049211B9791C24
:1037D00000EB010AB7EB0A0004D4C0F1FF3007F197
:1037E000010A0490AAEB0700019044E0012F00DADF
:1037F00001270021112F01DD112000E03846CDE91D
:10380000000106A90EA8FFF7A1FCDDE90F010E9A41
:103810000391002104910092BA4621070CD4039928
:10382000514500DA8A46BAF1010F05DD009AAAF186
:103830000101515C302908D0B84202DA10F1040FBE
:1038400006DA0121CDE9011015E0AAF10101E9E74D
:10385000002805DC049901440491AAEB000102E070
:10386000411C514500DD8A460499401A401C0190D4
:103870004FF000400290200704D40198504501DB2E
:10388000CDF8048000208DF84F0002980DF14F070D
:10389000B0F1004F25D02B200E9002984FF0020877
:1038A00000280CDA404202902D200E9007E00A21F9
:1038B0000298FCF7FBFE3031029007F8011DB8F1C9
:1038C0000001A8F10108F2DC02980028EFD1791E6E
:1038D0000E980870307800F0200040F0450007F89E
:1038E000020D12A8C01B00F107081498007800B15F
:1038F000012000EB0A01019801EBE07105984144B9
:10390000401A401E0590E00306D45B462146179AF4
:10391000059800F05DF805441498007818B15A46EF
:10392000179990476D1CE00324D55B462146179AF2
:10393000059800F04DF805441CE00498002807DBCA
:10394000DDE90301884203DD0098405C179901E03E
:10395000179930205A469047049805F10105401CFC
:1039600004900198401E019004D12E205A461799C8
:1039700090476D1CBAF10001AAF1010ADDDC05E0F7
:1039800017F8010B5A46179990476D1CB8F10001C2
:10399000A8F10108F4DC5B462146179A0598ABE6CE
:1039A0002D0000002B000000200000002DE9F04158
:1039B000044600251E461746880404D405E039460F
:1039C0002020B0476D1C641EF9D52846BDE8F08163
:1039D0002DE9F041044600251E469046C80301D556
:1039E000302700E02027880404D505E0414638460A
:1039F000B0476D1C641EF9D52846BDE8F0810A6801
:103A0000531C0B601070704770B54FF6FA75281A8A
:103A100084B20848FEF796FC064801684C620068CC
:103A200001E0416A8CB2AC42FBD3BDE87040014872
:103A3000FEF795BC3001002094B0FEF71BF8FFF7AD
:103A40000EF9FEF7BFFFFEF7A7FFFEF755FFFFF7E2
:103A50006DF8FFF787F8FFF7A1F8FFF743F8FFF7D6
:103A600021F8FEF771FFFEF73DFFFCF7F7FF0C2290
:103A700051495248FDF75AFB5148FDF7F7FA3221F8
:103A80004F48FDF75BFADFF830B1DFF838A11821B5
:103A90000AA8FCF780FB0020069007900890099088
:103AA0004FF480615046FDF7FFFE00286DD00026E0
:103AB0000024DFF814812546224620214046FDF7E8
:103AC000F8FE4FF48C70FFF79FFF5F4637F8140045
:103AD000FCF79FFD2946FCF769FB641C05460C2C8E
:103AE000F4D32820FFF790FF012220214046FDF764
:103AF000E0FE42F2D050FFF787FF6FF00901284641
:103B0000FCF7EAFBFCF7A3FD304A314BFCF791FCD4
:103B10000022304BFCF793FC2F4A304BFCF78FFC14
:103B200000222F4BFCF785FCFCF7A4FD044624483B
:103B3000FDF70BF985B206A8FCF7ECFFFFF7BCFA1E
:103B4000FCF76CFD81462046FCF781FD07460C46DC
:103B50000898FCF763FD80460998FCF75FFD009626
:103B6000CDE90274CDE90495024643461DA10AA899
:103B7000FFF7C8FA0A2315220AA92048FEF765FDB7
:103B8000B5F5AF6F03D9002202E0012690E70122CC
:103B90004FF480515046FDF78CFE0EB1002200E03C
:103BA00001224FF400515046FDF783FE4FF47A7026
:103BB000FDF774FD6BE700002000002038000020B6
:103BC000680000200018014000100140B5A679C728
:103BD000293AA23F004CFD40EC51B81E85EBA13FB5
:103BE00040950641253264253264256425342E3102
:103BF000662534642534640A00000000700100204A
:103C0000000000000000000001020304060708098C
:103C10000000000001020304383C000800000020FE
:103C2000200000002C310008583C00082000002033
:103C3000100600003C3100080000000000000000F9
:103C40000000000000000000010000001000000063
:083C50000000000000A24A047C
:0400000508000131BD
:00000001FF
