:020000040000FA
:060000000212980207BB8A
:03002B000210BF01
:03003300020E704A
:03004300020F5B4E
:030053000206ECB6
:03006B00020E562C
:100083000207500101FF01010503010F10FEFF00EC
:100093001B001B001B001BB619B019001B392F00D6
:1000A3000000009B2F000000000C0000000C00016A
:1000B3000000CE1C00000000000094290000000096
:1000C300000000000000FFFF0102006205000000C5
:1000D300D5056400020200080000050207051E02A0
:1000E300051E020A0A03B80B02803E0102F1FF1447
:1000F3001F00E007965118000202063031323334F4
:10010300353637383941424344454600286E756CCD
:100113006C20706F696E74657229003F3F3F000069
:1001230000807F0000803FF9021550B743BA5100A9
:1001330000204100E7DB2E0000A040100000000873
:100143000000000A0000001212E460461212B760B9
:100153003DE9687008F618F618F618F622748067F9
:10016300F712017E090909748067F7221212B7603A
:100173001D1212E47005191919801A121131701F1A
:1001830012115BC37003E667331919194007181876
:10019300182208080874FFF618F618F618F6221243
:1001A300115B6017121323702192F012132D701933
:1001B300501720F014080808090909E7F61819E789
:1001C300F61819E7F61819E7F62212132D60E6E878
:1001D30069701F0808E62480F608E436F618547F91
:1001E300B47F0CE654806007F6E418F618F622187C
:1001F3001822E9C6CC08C6CD08C6CE08C6CFC0E0D3
:10020300E8C0E0EAC0E0EBC0E009E9F809E7FA0971
:10021300E7FBE6F918E6F8C3EC98ED99EE9AEBC222
:10022300E7F5F0EFC2E795F0500E600CEBCFFBEA79
:10023300CEFAE9CDF9E8CCF8EAA2E7D2E7FAEB3354
:10024300FB13F5F0EEA2E7D2E7FEEF33FFC5F013A1
:10025300A2E730E601B313C5F0C3C0E0C0F07F00EE
:10026300C39BFB605B9418600C401AD0E023F9D069
:10027300E0F802034D8AF0E9486003D2F0E4AFF0FE
:10028300FAF9F8803BEB30E40D89F0EA6003D2F031
:10029300E4AFF0F9CAF8EB30E30D88F0EF6002D277
:1002A300F0AFF0E4CAC9F8EB54076014FBC3EA13D8
:1002B300FAE913F9E813F8EF135002D2E0FFDBED8C
:1002C300D0E0C0E030E739C3E49FFFF5F0EC98FCE1
:1002D30042F0ED99FD42F0EE9AFE42F0D0E0F9D003
:1002E300E0F8E5F0607AE923F9EE20E742D80280EE
:1002F30067C3EF33FFEC33FCED33FDEE33FE80EAEF
:10030300EC28FCED39FDEE3AFED0E023F9D0E0F81D
:100313004002801BC3EE13FEED13FDEC13FCEF1341
:100323005002D2E0FF08B800067F7F74FF802EEFF3
:100333003350178CF020F00260100CBC000C0DBD84
:1003430000080EBE000408E860DFE933E813FFEE9F
:100353002313FE4F4D4C8008E95480FFE4FEFDFC5F
:10036300EE33EF33F47004FCFD7E80D0E0FBD0E08D
:10037300FAD0E0F8D0E0CFC618CEC618CDC618CC58
:10038300C6F9221212B77004181818221212E47058
:100393000D74FFF61819F61819F61819F622E75412
:1003A3008066F612132D700F12132370F014F608E3
:1003B300F608F608F680D1121323700CF608F60837
:1003C300768008E6447F80EC12115E700C121134C3
:1003D30060BFE65480F6E480BB121134700519192E
:1003E3001980A5E869700C763F18768018F618F620
:1003F300E8F922E6CDC0E018ECC0E0E633CD33CD1A
:10040300D313F6E719FCE7191933CC33C3947F40B0
:100413000ECD9D502408E65480F6E418F6800FF4C0
:10042300043D14501408E6447FF6187680E418F669
:1004330018F6D0E0FCD0E0FD22CCD313CCFD18E4B9
:10044300C6CBC0E018E4C6CAC0E00808ED08C6334E
:10045300E613F618E433C675F003C3CA97CA09CB8B
:1004630097CB199C40047D08802EBD000302052F05
:1004730016B6FF050606081618C3CA33CACB33CB14
:1004830033CA27CA09CB37CB193CC37D08803E1832
:100493007D0820E75CC633C6CA33CACB33CB33DD12
:1004A300F1D5F0EB30E77BCA97CA09CB974ACB1952
:1004B3009C406F4B7025E620E0218066187D08C3C1
:1004C300CA97CA09CB97CB199CD3C633C6CA33CABA
:1004D300CB33CB3350C9DDE7D5F0E1D3E4C636C621
:1004E30008C636C608C636C608C636C618181880E3
:1004F30031C3CA97CA09CB97CB199CB34097C6336C
:10050300C6CA33CACB33CB33DD34D5F02EC6A2E013
:10051300C640C8CA27CA09CB37194A70BECB3CB4F8
:1005230080B90808E63308E633601F181818D0E0CE
:10053300FAD0E0FBD0E0FCD0E0FD22187D08CA270A
:10054300CA09CB37CB193CD3808013F618E4B67FA6
:1005530011F618B6FF0EF618C60470D20808768096
:1005630080CAF618F618F680C5001212B7604F124B
:1005730012E46012E7548066F612113170111213FF
:1005830023703B090909F4F618F618F618F6221237
:10059300115B701512132D08080860EAE6447FF614
:1005A30018768018E4F618F62212132D601612132B
:1005B300237012E4F608F608F608E65480F60909F3
:1005C3000918181822EAC0E0EBC0E0ECC0E0EDC067
:1005D300E0E687F0A4FBACF008E687F0A42CFCE48B
:1005E30035F0FA1809E687F0A42C4B60027401CAAF
:1005F30035F0FCE433FB09E687F0D2F7A42CCB35C6
:10060300F0FC1908E687F0A42BCC35F0FBE433FDAE
:100613000819E687F0D2E7A42C4ACB35F0CD340095
:10062300FC09E687F0D2E7A42DCC35F0FDE433FADC
:100633000918E687F0D2F7A42CCD35F0CA3400FCB4
:1006430008E687F0D2E7D2F7A42ACC35F07A7E20E9
:10065300E70B0ACB33CBCD33CDCC33CC33CB3350B9
:10066300147004ED30E00ED2F1E4CD3DCDCC3CCCA2
:100673003B5005DA05C2F1EB547FC63308E63392EB
:10068300F0FBE73309E733C39A502D2B70190C0D98
:100693004C4D70151806E608C333700D20F10AA2FD
:1006A300F013F6E418800B4024E4F630F002768071
:1006B30018F618F618F68024D33B14501074FFA2D2
:1006C300F013F6187680E418F618F6800FA2F013EC
:1006D300F618E63303F618ECF618EDF6D0E0FDD085
:1006E300E0FCD0E0FBD0E0FA22C0E074F2120ADBB7
:1006F300A2AFE433FED2AFE5A7FFE5A1F5085F544F
:100703001060061224CC75A1EFE5085F5408600859
:100713001224D275A1F7802BEFA2E0C0D0E508A286
:10072300E092F01211E6158182F05017906198E083
:10073300F89008B2E0C398A2D265D0335002E8F033
:1007430075A1FEEEA2E092AF7F01020B3AC0E07406
:10075300F2120ADBA2AFE433FED2AF9061A4E0F859
:10076300759B00E59158540860087591F712251A96
:10077300802AE59158541060087591EF1225208066
:100783001BE8A2E0C0D0E591A2E092F01211E615B9
:100793008182F05007E0C2E0F01226649061A3E08A
:1007A300F8E5E9585404600E12263A75E9FB9061A6
:1007B30093E0A2E640F2808BC0E074F2120ADBA25F
:1007C300AFE433FED2AF9061A5E0F8E5BF5854041F
:1007D300600675BFFB12267C020746C3E498F8E463
:1007E30099F912081F8026C3E49AFAE49BFBE920D7
:1007F300E7E912081FE498F8E499F922C3E498F8AA
:10080300E499F912081FE498F8E499F9C3E49AFA11
:10081300E49BFB22EB20E7CFE920E7E0B90010BB24
:100823000008E88AF084F8AAF022E4FBC8FA22EB75
:1008330070227B10C833C8C933C9335007C39AC366
:10084300DBF280069A50012ADBEAC833F4C8C933C5
:10085300F4C9FA2275F008E4C833C8C933C933C9E7
:100863009AC99B5004C92AC93BD5F0ECFBC833F4A1
:10087300C8E4C9FA221208B820F01430E72B74FF39
:10088300FCFBFA747F8022E4FCFBFA7480801AB4C8
:100893008008BC00F2BB00EF800F50EBF9E4C39A71
:1008A300FAE49BFBE49CFCE499C6CC18C6CB18C6BF
:1008B300CA18C6F922E4C9C608CAC608CBC6D333C8
:1008C3000308CCC63392F0C3947F402E941840198A
:1008D300C9B90704CACBCC225025C309CA33CACB32
:1008E30033CBCC33CC33D9F422F4600DC9CCC3134E
:1008F300CB13CBCA13CAD9F6CC22E4FCFBFA2214DD
:10090300FCFBFA22080808EAC0E0EBC0E086F0E747
:10091300A4FA180986F0E7A42AFA180986F0E7A4CE
:100923002AFA180986F0E7A42AFA1986F0E7A4FB45
:10093300E5F02AFA190886F0E7A42BFBE5F03AFA6A
:10094300190886F0E7A42BFBE5F03AFA1818098694
:10095300F0E7A4C5F02BFBE43AFA1908E7C5F0C6A3
:10096300A426F6E5F03BFBE43AFA1886F0E7A4F692
:10097300E5F00826F6E43B08F6E43A08F6D0E0FB97
:10098300D0E0FA22080808E630E71112119912099B
:100993009F080808C64480C618181822181818E9B2
:1009A300799EC608CAC608CBC608CCC6C3702079D0
:1009B30096CACBCC7019798ECBCC70137986CC7058
:1009C3000EF9802ACA33CACB33CBCC33CC3319309C
:1009D300E7F2CCCBCA3350147004EA30E00DE4CA1A
:1009E3003ACACB3BCBCC3CCC500209C3E913C6CCAF
:1009F300182313C6CB18C6CA18C6F922E4CFC0E021
:100A0300E4CEC0E0E4CDC0E0E4CCC0E075F020C3A8
:100A1300E633F608E633F608E633F608E633F61867
:100A23001818EC33FCED33FDEE33FEEF33FFC3EC6C
:100A33009709ED9709EE9709EF97191919400FFFD9
:100A4300EC97FC09ED97FD09EE97FE191906D5F011
:100A5300BEECF709EDF709EEF709EFF7191919D00D
:100A6300E0FCD0E0FDD0E0FED0E0FF222518C582F7
:100A7300C0E0E51934FFC583C0E0E518C3958224BF
:100A8300F810AF0885831985821880088583198536
:100A93008218D2AFCEF0A3E520F0A37808E608F0E1
:100AA300A3DEFAEFF0A3E58124FAF8E608F0A3E663
:100AB30008F0A3E608F0A30808E608F0A3E608F0A8
:100AC300A315811581D0E0FED0E0F81581158115BD
:100AD30081E8C0E0EEC0E022C0D02518C582C0E0A6
:100AE300E51934FFC583C0E0E518C3958224F310EC
:100AF300AF08858319858218800885831985821834
:100B0300D2AFC8F0A3E9F0A3EAF0A3EBF0A379080E
:100B1300E709F0A3D8FAECF0A3EDF0A3EEF0A3EF0E
:100B2300F0A3D0E0F0A3D0E0F0A3D0E0F0A3E52061
:100B3300F0A3E5F0F0A322851983851882E0C0E0D5
:100B4300A3E0F9A3E0FAA3E0FBA37808E0F608A387
:100B5300DFFAE0FCA3E0FDA3E0FEA3E0FFA3E0C017
:100B6300E0A3E0C0E0A3E0F5D0A3E0F520A3E0A379
:100B7300F5F010AF088583198582188008858319DD
:100B8300858218D2AFD082D083D0E0F8D0E0321281
:100B93001318B90003020BD4E49003017879790C9C
:100BA3008002F0A3D8FCD9FA900E79AA82AB839085
:100BB300008678C579018015E493A3AC82AD838A5E
:100BC300828B83F0A3AA82AB838C828D83D8E9D9ED
:100BD300E775820C7583AD740412101E75829A75C5
:100BE3008329740012101E0E0075F0108E1A8F1BCD
:100BF30085821F85831E851882851983E0CEA3E035
:100C0300CF851F82851E83EBC9EAC8EDCBECCAC32F
:100C1300E833C8E933C9EA33CAEB33CBC3EA9EF5F9
:100C23001DEB9FF51CB35004AB1CAA1DEC33CCED9C
:100C330033CDD5F0DAAE1AAF1B221212B7601C12F5
:100C430012E4601712132D70071213237001D322BD
:100C5300C0D01213237006D0D0B322C32233D0D016
:100C6300501430E0F6C3E7960809E7960809E796BB
:100C73000809E796B32220E0D5E6970809E6970826
:100C830009E6970809E697B3221212B7601B1212FE
:100C9300E4601612132D7007121323600CB322C0E5
:100CA300D01213237005D0D022C32233D0D05013D7
:100CB30030E0EBC3E7960809E7960809E7960809C9
:100CC300E7962220E0E4E6970809E6970809E69705
:100CD3000809E69722D083D082ECC0E0EDC0E0E4BF
:100CE30093A3FCE493A3FDED4C600D120DB0EC2433
:100CF300FFFCED34FFFD80EFE493A3FCE493A3FD3D
:100D0300ED4C600D120EE0EC24FFFCED34FFFD8092
:100D1300EFD0E0FDD0E0FCE493A3C0E0E493C0E0B7
:100D230022851983851882E0A3FEE0A3F5207808C5
:100D3300E0A3F608DFFAE0A3FFE0A3C0E0E0A3C06E
:100D4300E0E0A3C0E0E0A3C0E0E0A3C0E010AF0890
:100D53008582188583198008858218858319D2AF07
:100D6300D083D082021024D083D082E9C0E0E49300
:100D7300A3C386F0C5F095F0F908E493A386F0C504
:100D8300F095F0700BE493A3C3994005E904800246
:100D9300A3E475F002A42582F582E5F03583F5839B
:100DA300D0E0F9E493A3C0E0E493C0E022C0E0C341
:100DB300E49396087401939618400FE493667008C1
:100DC30008740193661870007019A3A3C3E4939683
:100DD300087401939618A3A3400DD0E0D0E0D0E0AF
:100DE300020D14A3A3A3A3A3A3D0E022D083D08294
:100DF300C5F0E493A3C5F0C395F0F5F0E493A3C362
:100E030095F04005E5F0048001E475F002A4258225
:100E1300F582E5F03583F583E493A3C0E0E493C062
:100E2300E0227404800474028000CCC0E0EDC0E0D2
:100E3300E518C39CCCAD1950011D10AF068C188D5D
:100E43001980068C188D19D2AF120FA0D0E0FDD0F7
:100E5300E0FC22C0E074F2120ADBE589A2E1500350
:100E6300122382758900C2C57F01020B3AC0E07468
:100E7300F2120ADBE58BA2E05003122382758B008A
:100E8300C2E880E474028000CCC0E0EDC0E0E51865
:100E9300C39CCCAD1950011D10AF068C188D198061
:100EA300068C188D19D2AF120F7ED0E0FDD0E0FC76
:100EB300221212B760251212E4602012132D700360
:100EC300021323080808E76670101819E766700A0A
:100ED3001819E76670041819E76622F422C0E0C007
:100EE300F088F0E493667008087401936618700044
:100EF300A8F0A3A3700BD0F0D0E0D0E0D0E0020DB7
:100F030014A3A3D0F0D0E022D083D082CCC0E0E4FD
:100F130093A36006120FC11470FAE493A360061240
:100F230010F01470FAD0E0FCE493A3C0E0E493C0A3
:100F3300E022C008C3E096F50808A3E0964208083B
:100F4300A3E096420808A3E0964208A2D265D033F4
:100F5300E5087001D3D00822C0E074F2120ADBA2C4
:100F6300AFE433FED2AFC2C0E5D1A2E450031224F2
:100F730042EEA2E092AF7F01020B3ACAC0E0E493D3
:100F8300A3C582CCC582C583CDC583F0A3C582CC5E
:100F9300C582C583CDC583DAE5D0E0CA22CAC0E0E5
:100FA300E0A3C582CCC582C583CDC583F0A3C5822A
:100FB300CCC582C583CDC583DAE6D0E0CA22C0E0C2
:100FC300E493A3D39C5010E493A3C39C400AD0E0C2
:100FD300D0E0D0E0020F28A3A3A3D0E02270090839
:100FE3000808226016181818C6C333C608C633C6C5
:100FF30008C633C608C633C6D5E0EA22C008C3E034
:1010030096F50808A3E096420808A3E0964208086C
:10101300A3E09645087001D3D00822C09FF59FE452
:1010230073D09F22D083D082C09FE493C0E0740129
:1010330093C0E0740293F59F227404800A740380C2
:1010430006740280027401C0E0F404121057D0E069
:101053001212F3222518F58210AF08F51840021575
:10106300198008F51840021519D2AF85198322C0DB
:10107300D0251810AF08F518500205198008F51887
:1010830050020519D2AFD0D022BB0102E722C082A1
:10109300C08389828A83BB0003E08002E493D08308
:1010A300D082226016080808C6C313C618C613C622
:1010B30018C613C618C613C6D5E0EA22C0E0C0D0CE
:1010C300E8C0E0E5A8D2AFC2C7A2E792AFD0E0F88C
:1010D300D0D0D0E032C3E0C696F608A3E0C696F6B9
:1010E30008A3E0C696F608A3E0C696F622C0E0E49D
:1010F30093A36C7009D0E0D0E0D0E0020F28A3A343
:10110300D0E022251810AF08F51840021519800801
:10111300F51840021519D2AF22E066701008A3E05B
:1011230066700A08A3E066700408A3E06622181834
:1011330018E6084608700AE608C3337005E633F478
:10114300220822E76670100809E766700A0809E7B3
:101153006670040809E76622191919E70947097037
:101163000AE709C3337005E733F4220922C3E09683
:1011730008A3E09608A3E09608A3E096A2D265D060
:101183003322C3E096F008A3E096F008A3E096F0BC
:1011930008A3E096F022181818E4C396F608E4961C
:1011A300F608E496F608E496F622E026F608A3E0AD
:1011B30036F608A3E036F608A3E036F622E026F07A
:1011C30008A3E036F008A3E036F008A3E036F022E7
:1011D300E627F60809E637F60809E637F60809E6CA
:1011E30037F622C0E0E8C0E0E58124FCF8E6A2E798
:1011F300D0E0F8D0E022E657F60809E657F60809EA
:10120300E657F60809E657F622E056F608A3E05635
:10121300F608A3E056F608A3E056F622E647F608DA
:1012230009E647F60809E647F60809E647F6227095
:101233000422600D18C6C333C608C633C6D5E0F40E
:101243001822E056F008A3E056F008A3E056F00891
:10125300A3E056F022C3E09608A3E09608A3E09625
:1012630008A3E09622C6F4C608C6F4C608C6F4C6A8
:1012730008C6F4C622600D08C6A2E713C618C61333
:10128300C6D5E0F322C3E7960809E7960809E7966F
:101293000809E7962275D000758140751801751904
:1012A3000300020B92E6F008A3E6F008A3E6F008B9
:1012B300A3E6F022E6084608C3134608336002E6B5
:1012C30033F422600C08C6C313C618C613C6D5E090
:1012D300F422E0F608A3E0F608A3E0F608A3E0F69C
:1012E30022E7094709C3134709336002E733F422AE
:1012F300CAC0E0E6F0A308DAFAD0E0FA22EAF0A3E3
:10130300EBF0A3ECF0A3EDF022E0FAA3E0FBA3E003
:10131300FCA3E0FD22E5C754F84401F5C779012297
:10132300E7C33319471947194722E6C33318461849
:10133300461846222518F582E43519F58322C2AFF3
:1013430075D69F02000022121027E63500121027DF
:10135300373600121027E736001210279F37001286
:1013630010276738001210272739001210276B390E
:1013730000121027903900121027D33900121027BA
:10138300203A00121027783B00121027FE3B001270
:1013930010271C3C00121027463C00121027603C0B
:1013A300001210276F3C001210277A3C00121027FE
:1013B3003A3D00121027933D00121027553E0012AC
:1013C30010275D3E00121027213F001210278D3F8A
:1013D30000121027B84000121027DD40001210271A
:1013E300534100121027E541001210273D4200121D
:1013F3001027FD42001210271C43001210272B4414
:10140300001210273D4400121027AC44001210278D
:10141300014600121027334600121027C646001259
:101423001027FF46001210274B470012102767486A
:1014330000121027B04A00121027BB4A00121027CF
:10144300C64A00121027D14A00121027DB4A0012A5
:101453001027E64A00121027004B001210270A4BF0
:1014630000121027144B001210271F4B00121027D5
:10147300474B00121027A24B00121027AC4B00124F
:101483001027D04B00121027F44B00121027524C98
:1014930000121027964C00121027B24C001210278E
:1014A300294D00121027614D00121027AD4D001277
:1014B30010270A4E00121027C44E00121027A850FE
:1014C3000012102701510012102731520012102769
:1014D300575200121027E053001210275C570012D6
:1014E30010272E5900121027F75A00121027A45B59
:1014F300001210270F5D00121027AE5D0012102797
:10150300F35D001210275D5E001210276C5E00125F
:101513001027F36000121027A56200121027126330
:1015230000121027F163001210270A65001210271A
:10153300876600121027A66600121027FB660012AA
:1015430010270068001210272868001210278068EF
:10155300001210275F6900121027A36900121027D9
:10156300EE6900121027596A001210279A6B0012B5
:101573001027FE6B001210274C6D00121027AC6F62
:1015830000121027DD6F001210279571001210272B
:10159300EA7100121027EE72001210278B730012EB
:1015A3001027E4730012102797740012102739755F
:1015B30000121027D975001210277E76001210270B
:1015C300EC81011210272B82011210277284011261
:1015D3001027BC8401121027D785011210273F86DC
:1015E30001121027748601121027E88701121027B1
:1015F3006B8A01121027948B011210272A8C011277
:101603001027329501121027C79501121027AE98A3
:1016130001121027A199011210270F9A0112102706
:10162300559B01121027379C011210271C9E011293
:1016330010272DA00112102797A00112102769A1CE
:101643000112102797A10112102754A2011210278B
:101653002BA301121027F2A30112102796A4011243
:101663001027BFA401121027E1A40112102737A7E6
:10167300011210270FA80112102753A801121027D7
:10168300BBA80112102773A901121027A5A90112E3
:101693001027E9A9011210271FAA011210276BAA0C
:1016A30001121027C0AA01121027C5AA0112102780
:1016B30018AB011210273DAB011210274CAC0112DD
:1016C3001027B0AC0112102720AD01121027ACADCA
:1016D3000112102779B0011210275DB101121027F2
:1016E300E0B20112102716B501121027C4B501127A
:1016F300102774B601121027B5B80112102758B974
:10170300011210279FB9011210274BBB011210279A
:101713005FBB0112102769BB0112102791BB011295
:1017230010279DBB01121027BCBB01121027DCBD83
:10173300011210272BBF011210276FBF01121027B0
:1017430017C001121027FAC001121027A5C10112F8
:101753001027F1C201121027EFC30112102795C4FD
:101763000112102725C5011210273CC501121027AD
:1017730073C5011210277DC50112102788C50112F8
:101783001027A6C501121027EAC50112102747C664
:10179300011210276CC60112102786C601121027EA
:1017A30012C7011210272FC8011210279CC801125B
:1017B300102783C901121027AAC9011210271ECAB4
:1017C3000112102799CA011210279DCB011210276D
:1017D30093CC0112102742CD0112102755CE0112CE
:1017E3001027F1CE011210277ECF011210275CD0F3
:1017F3000112102794D001121027ECD001121027E8
:10180300B5D101121027D6D1011210275DD20112D2
:10181300102781D201121027A3D201121027ECD274
:101823000112102702D501121027E9D50112102742
:101833009AD601121027D0D80112102720D90112ED
:10184300102760D901121027A2D901121027FED93F
:10185300011210272CDA0112102750DA0112102777
:10186300A3DA01121027D1DA011210270ADB0112C1
:1018730010275FDB01121027C5DB0112102719DDCA
:10188300011210273CDF01121027A9DF01121027D4
:10189300D2DF011210275DE001121027C4E001120C
:1018A30010270FE10112102733E10112102757E12E
:1018B30001121027B2E101121027CDE10112102706
:1018C30086E2011210275EC2041210279DC2041281
:1018D3001027788002121027BE80021210279E81E3
:1018E30002121027A08202121027A38302121027CC
:1018F3002F85021210278D85021210274A860212A5
:101903001027688702121027D9870212102715881B
:10191300021210276388021210276D880212102703
:10192300B188021210270D8902121027A88902120A
:101933001027258A02121027F48A021210278D8B92
:1019430002121027AD8B02121027E38B021210270D
:10195300148C02121027D58C02121027E58C021268
:101963001027398D02121027548D02121027668D0D
:10197300021210276F8D02121027C98D0212102731
:10198300258E02121027718E021210278C8E0212DE
:101993001027BD8E02121027DA8E02121027E68E50
:1019A300021210275A900212102773900212102766
:1019B300DA9002121027ED9002121027FB90021208
:1019C3001027AF91021210279392021210279993B6
:1019D300021210272394021210272D9402121027AB
:1019E3009A9402121027B19402121027E394021260
:1019F30010271C9502121027469502121027A7954F
:101A030002121027C79502121027E595021210271C
:101A13002B96021210275197021210279E9702123B
:101A23001027CD97021210274398021210276B98A4
:101A330002121027A49802121027B298021210273C
:101A43000A99021210275999021210279899021223
:101A53001027C89902121027F49902121027FF9930
:101A6300021210271D9A02121027DF9A0212102762
:101A7300E99A02121027249B021210273A9B0212A2
:101A830010278F9B02121027A39B02121027B19CD1
:101A930002121027C49C02121027D99C021210278D
:101AA3007B9D02121027FE9D02121027BC9E02127C
:101AB3001027C79E02121027F39F021210270FA0B0
:101AC3000212102761A002121027A0A002121027F1
:101AD300B5A00212102717A102121027A6A1021205
:101AE3001027F1A10212102742A402121027C0A44A
:101AF3000212102735A50212102757A7021210272A
:101B03006FA70212102772A7021210277EA70212D4
:101B1300102792A7021210279AA702121027CDA707
:101B2300021210277DA802121027F3A80212102711
:101B330066A9021210271AAA02121027CFAA0212AC
:101B43001027EEAA021210278EAB021210279AABAF
:101B530002121027C5AB02121027C8AB02121027BE
:101B630032AC021210275AAD0212102732AE021203
:101B73001027BDAE02121027D6AF0212102793B062
:101B830002121027CCB002121027FDB00212102748
:101B9300BBB102121027EBB102121027C6B2021218
:101BA30010275FB302121027EAB3021210279BB467
:101BB300021210271EB50212102750B50212102769
:101BC30091B50212102766D403121027CBD4031247
:101BD300102708D50312102757D5031210276DD7E6
:101BE3000312102750D903121027BADC031210274F
:101BF300F5DC0312102717DD031210277ADD031219
:101C03001027AEDD03121027D1DD03121027FEDDEE
:101C1300031210275ADE0312102750BE0312102797
:101C2300CEBE0312102704BF0312102770BF031286
:101C33001027E3C003121027FFC00312102744C16B
:101C430003121027D2C1031210272BC2031210272D
:101C530058C3031210276AC403121027C7C4031200
:101C6300102733C50312102794C503121027D5C5B7
:101C73000312102782C60312102794C703121027DA
:101C8300BFC7031210270AC80312102751C8031233
:101C93001027E3C8031210279EC90312102786B624
:101CA3000412102797B604121027E8B6041210275F
:101CB3002DB704121027D7B704121027DCBD041266
:101CC3001027DFB40412102737B60412102715CAE1
:101CD30003121027BACA03121027DACA03121027F5
:101CE300FACA031210270ECB0312102766CB031276
:101CF300102796CB0312102717CD03121027BDCD43
:101D0300031210279FCE03121027F0CE03121027C1
:101D130033CF0312102776CF03121027DCCF031221
:101D23001027FDCF0312102789D003121027BAD032
:101D3300031210272ED103121027DCD2031210270F
:101D4300B6D303121027F8D30312102752D4031269
:101D530010270EB3041210272FB30412102765B4F3
:101D6300041210278FB40412102720AF0412102777
:101D7300ACAF04121027B6AF04121027D7AF04126A
:101D8300102705B10412102713B203121027AFE472
:101D930002121027D0B203121027FBB2031210272E
:101DA30042B30312102767B30312102788B3031239
:101DB3001027BCB303121027F5B3031210271EB567
:101DC3000312102755B50312102775B503121027F8
:101DD30010B603121027D5B6031210270CB703123F
:101DE300102781B80312102724B9031210271DBA34
:101DF3000312102746BA031210279ABA03121027A8
:101E030060BB031210278EBB03121027BF350012CD
:101E13001027A4BD03121027D7BD03121027A6DE77
:101E230003121027B0DE03121027FCDE0312102763
:101E33006ADF031210278BDF03121027A2DF0312BE
:101E4300102752E003121027E6E203121027EFE2F5
:101E53000312102742E3031210276BE30312102728
:101E6300D2E30312102763E403121027A5E403123D
:101E73001027EFE4031210274EE5031210277AE52B
:101E8300031210270BE6031210274AE6031210274A
:101E930089E603121027BEE603121027D0E60312C9
:101EA3001027E2E60312102701E7031210270AE7BF
:101EB30003121027C0E70312102700E803121027AC
:101EC300718904121027448A041210275E8A0412AF
:101ED30010276F8A04121027848C04121027A38CF6
:101EE30004121027DAAA0412102710AB04121027C9
:101EF30059AB04121027A9AC041210273BE60212B7
:101F030010277AE702121027B6E70212102775E9A5
:101F1300021210279EE90212102731EC0212102739
:101F230075EC02121027FEED0212102796EE021234
:101F33001027FEEE021210279FEF02121027E1EF87
:101F43000212102721F002121027ACF102121027FF
:101F53001CF30212102741F5021210276FF502122B
:101F6300102796F5021210279FF502121027FAF593
:101F7300021210278DF602121027ABF90212102756
:101F83002CFA021210276BC30412102781C3041208
:101F93001027C1C10412102728A0041210273BA048
:101FA30004121027D8A00412102713A1041210271B
:101FB3002EA10412102753A10412102798A1041272
:101FC3001027C9A104121027FAA10412102780A315
:101FD300041210274FB90412102785B904121027D1
:101FE300A1B904121027E3B904121027F3B904129C
:101FF300102788BA0412102792BA04121027CA9124
:1020030004121027959204121027459304121027E7
:102013005B930412102740940412102701950412B5
:102023001027B5A3031210270DA403121027F6A43B
:10203300031210278FA503121027D9A50312102707
:1020430036A6031210278FA603121027A3A6031286
:102053001027D5A603121027D3A70312102737A8DA
:102063000312102752A803121027A1A80312102746
:10207300B7A803121027C4A803121027F8A8031245
:10208300102711A903121027A2A903121027B1A91F
:102093000312102739AA0312102793AA0312102739
:1020A300E1AA0312102703AB031210277AAD031220
:1020B3001027AFAD031210273FAE03121027B4AEA3
:1020C30003121027B9AE03121027F5AE031210271F
:1020D3004BAF031210270FB00312102734B00312B3
:1020E30010273EB00312102741B003121027CAB0C5
:1020F30003121027E5B003121027F8B003121027BC
:1021030024B1031210275FB10312102762B1031227
:1021130010276DB103121027A9B103121027BCB108
:1021230003121027E3B10312102711C20412102760
:1021330029C204121027CA76001210271977001239
:102143001027BB7800121027797A00121027C17A62
:1021530000121027E37B00121027147D00121027B2
:10216300367D00121027927D00121027147E001274
:102173001027C0E201121027E1E2011210276BE3DE
:1021830001121027F0E3011210276CE4011210274B
:10219300D5E40112102721E501121027A0E5011251
:1021A300102732E601121027BEE60112102700E7BE
:1021B300011210276CEB01121027ECEC011210270F
:1021C3002BED0112102712EE0112102715EE01124A
:1021D3001027C9EE01121027FEEF01121027E9F1B3
:1021E3000112102769F40112102722F5011210279A
:1021F3003FF60112102796F901121027A6F90112D2
:10220300102707FB0112102793FB01121027C7FCAD
:1022130001121027B8FD011210273AFE01121027F0
:10222300008003121027BA80031210272C81031297
:1022330010273B8103121027B58103121027248234
:10224300031210272B830312102754830312102722
:10225300F48303121027428403121027B28403125B
:1022630010276B8703121027428803121027AF88A9
:10227300031210272C8A03121027E08A0312102757
:102283008E8B03121027E98B03121027548C031231
:102293001027548D031210272E8F031210274190FD
:1022A30003121027DA90031210274C910312102700
:1022B300129203121027849504121027D895041242
:1022C30010273096041210277B9604121027DD96F0
:1022D30004121027499704121027FC9704121027A1
:1022E3003D9804121027539804121027AF98041234
:1022F3001027ED980412102784A804121027B5A8FC
:10230300041210276FA904121027D5A9041210274D
:1023130046AA0412102794AD04121027CFBE04124C
:102323001027E0BE0412102780BF04121027487E36
:1023330000121027567E00121027E5FF0112102706
:10234300DAC004121027EAC00412102705C10412D0
:10235300102766C104121027DABC041210275FBDD0
:1023630004121027C3BD04121027C8BB0412102780
:10237300EABB0412102754BC041210275FBC0412DA
:102383001027A3BC0412102765F10312102773F161
:1023930003121027B4F103121027D5F103121027EB
:1023A30052F20312102752F30312102774F303128D
:1023B3001027E0F303121027FBF30312102716F480
:1023C3000312102720F4031210272AF403121027F4
:1023D3003DF40312102756F403121027F2F40312EC
:1023E3001027AEF50312102725F6031210279FF6C8
:1023F3000312102705F7031210271E990412102742
:102403002C9904121027A699041210278A9A0412F1
:102413001027439C0412102749C30412102789FA7A
:1024230002121027F6FA02121027B7FB0212102726
:1024330027FC0212102730FD02121027A8FE0212F9
:1024430010270CFF0212102761FF021210276AFFE8
:102453000212102779FF021210278CFF0212102795
:10246300A2FF02121027ABFF0212102700800412F2
:1024730010275580041210275182041210278382DB
:1024830004121027A58204121027BE8204121027FB
:10249300D78204121027E183041210277C840412CC
:1024A3001027EEB70412102712B8041210272BB806
:1024B300041210275EB8041210278FB804121027D5
:1024C300BDB8041210271FB9041210272EB9041225
:1024D300102738B90412102745B90412102797A3FF
:1024E30004121027BDA304121027FAA30412102705
:1024F30009A40412102728A40412102790A404127C
:10250300102799A404121027F8A4041210271CA55D
:1025130004121027DBA504121027E8A504121027C4
:10252300F9A504121027BEFF02121027DBFF0212C7
:102533001027F384041210275186041210275E8695
:102543000412102771860412102790860412102794
:10255300A68604121027BA86041210272F870412A6
:10256300102794870412102744880412102719890E
:1025730004121027298904121027388904121027FE
:1025830041C00412102765C0041210278DC0041225
:102593001027B5C0041210276CFD0312102793FDFA
:1025A30003121027B4FD0312102719FE031210277C
:1025B30027A60412102740A6041210274CA60412C3
:1025C300102760A6041210277EA60412102788A6DF
:1025D3000412102792A604121027A5A6041210278E
:1025E300F8A60412102731A70412102760A70412BB
:1025F3001027AEA704121027FDA70412102718A84E
:102603000412102722A80412102733A8041210273B
:1026130079A80412102770C10412102729E80312A5
:10262300102753E8031210276FE80312102782E8DC
:102633000312102798E803121027F5E80312102756
:1026430028E90312102764ED031210278AEE031200
:102653001027BDEE0312102709EF0312102735F0E0
:10266300031210275DF00312102772F003121027D4
:1026730082F003121027C6F00312102727F103126A
:10268300102737F10312102795BA04121027B0BA96
:1026930004121027D9BA04121027F3BA0412102710
:1026A30018BB0412102737BB041210274FBB0412A8
:1026B30010277DBB0412102797BB04121027A7C253
:1026C30004121027A89C04121027AF9C0412102791
:1026D300BB9D04121027EB9D04121027119E0412B8
:1026E3001027349E04121027569E04121027909E22
:1026F30004121027F69E041210272F9F041210278E
:102703007B9F04121027A89F04121027C89F04124E
:10271300102726B1041210273EB1041210272CB241
:10272300041210270BB304121027D2FE0112102734
:1027330044FF0112102782FF01121027C3FF011269
:102743001027FC8D041210271B8E041210276A8E8B
:1027530004121027868E04121027B78E0412102736
:10276300C78E04121027D48E04121027E18E041290
:102773001027CD8F041210270B90041210271590E9
:1027830004121027259104121027309104121027E8
:102793004291041210274B910412102755910412F1
:1027A3001027AFF803121027F4FC0312102702FDC1
:1027B30003121027D2FF031210279ABF0412102707
:1027C300C4BF04121027EBC20412102721C3041242
:1027D30010278BC3041210276693031210278498C3
:1027E300031210270CE402121027BFE20212102773
:1027F3006AE00212102788DF021210276CDF021230
:1028030010270CDF02121027C4DE0212102712DE7B
:102813000212102784DD0212102777DD021210271F
:102823007B350012102740350012102771DA02128F
:102833001027D3D7021210271A350012102701359B
:10284300001210279CD602121027F0D5021210276F
:1028530036D402121027E6D1021210276DD10212CC
:10286300102714D102121027A4D0021210277BD0F4
:10287300021210275BCE0212102727CE0212102756
:10288300F4CD02121027D8CD02121027F1CC021278
:102893001027A9CC02121027F4CA0212102774CAF7
:1028A3000212102771CA021210276EC902121027D2
:1028B3003CC90212102779C802121027A4C60212BB
:1028C3001027AD34001210270934001210277F336C
:1028D300001210271E3300121027CC3200121027CB
:1028E30035C60212102707C60212102704C60212A9
:1028F3001027F1C502121027BA32001210279CC507
:10290300021210278BC5021210277DC40212102752
:1029130047C40212102714E60212102723BD031224
:102923001027F5C30212102796C30212102765C39E
:10293300021210272DC002121027EDBF021210271A
:10294300E1BF0212102741BF0212102781BE0212FB
:10295300102703BC0212102794B90212102752B990
:102963000212102726B802121027DBB70212102713
:102973001AB702121027EDB60212102730B6021250
:102983001027C6B50212102700B602121027F6E56B
:102993000212102716B20300000080FBE47300004C
:1029A3000000000000000000000000000000101004
:1029B30010101010000030300000001428500000E8
:1029C30000000000000000000000002828FC284848
:1029D30050FC505000000000103854543018145468
:1029E3005438100000000044A8A8B0541A2A2A44FE
:1029F300000000000020505060ACA898927C0000BA
:102A030000606020C000000000000000000000041F
:102A130008081010101010100808040000004020CF
:102A2300100804081020400000000000001010D619
:102A33003838D61010000000000000101010FE10EF
:102A43001010000000000000000000000000000063
:102A5300606020C0000000000000FC0000000000D7
:102A630000000000000000000000000060600000A3
:102A73000002040404080810102020204000000075
:102A830000304884848484844830000000000010AF
:102A9300701010101010107C000000000038444427
:102AA30004081020447C000000000038444418044B
:102AB3000444443800000000080818284848887C6B
:102AC300081C00000000007C404078440444443863
:102AD30000000000003C4480B8C484848478000073
:102AE3000000007C44480810101010100000000083
:102AF3000078848448788484847800000000007817
:102B03008484848C740488F000000000000000308A
:102B13003000000030300000000000000000100012
:102B230000000010102000000408102040201008AE
:102B3300040000000000000000FC0000FC00000096
:102B4300000000004020100804081020400000008E
:102B530000007884848408101000303000000000E6
:102B63000038449AAAAAAAB4423C0000000000100C
:102B730010282828384444EE0000000000F844449C
:102B83007844444444F800000000003C44848080BE
:102B9300808044380000000000F04844444444442A
:102BA30048F00000000000FC44404878484044FCE2
:102BB3000000000000FC42404878484040E000002C
:102BC3000000003C448480808E8444380000000070
:102BD30000EE4444447C444444EE00000000007C86
:102BE300101010101010107C00000000007C10105A
:102BF30010101010101090E0000000EE44485070C8
:102C0300484844EE0000000000E04040404040409F
:102C130044FC0000000000EE6C6C6C54545454D619
:102C23000000000000EE64645454544C4CE4000073
:102C3300000000304884848484844830000000000D
:102C430000F844444478404040E000000000003075
:102C53004884848484B448380C00000000F8444459
:102C63007850484844E600000000003C44402018E7
:102C7300040444780000000000FE921010101010AD
:102C830010380000000000EE4444444444444438F7
:102C93000000000000EE44442828282810100000FB
:102CA300000000D6545454546C2828280000000017
:102CB30000EE44282810282844EE0000000000EE0F
:102CC300442828101010103800000000007C8808E9
:102CD3001020204044FC0000001C101010101010A5
:102CE300101010101C000070101010101010101095
:102CF3001010700000701010101010101010101031
:102D03007000001028000000000000000000000018
:102D130000000000000000000000000000FE006052
:102D23006020C00000000000000000000000000060
:102D3300000038441C24443E0000000000C0404012
:102D430078444444447800000000000000003C4400
:102D53004040443800000000000C04043C44444458
:102D6300443E000000000000000038447C4044382A
:102D730000000000001C2420F82020202078000000
:102D83000000000000003C48483040784438000010
:102D930000C040405864444444EE0000000000106A
:102DA300000070101010107C0000000000080000EC
:102DB3003808080808080870000000C040405C4854
:102DC300507048EC0000000000701010101010103C
:102DD300107C0000000000000000F854545454D646
:102DE3000000000000000000D864444444EE0000EA
:102DF3000000000000003844444444380000000050
:102E030000000000F8444444447840E0000000001F
:102E130000003C444444443C040E00000000000015
:102E2300EC30202020F800000000000000003C44AB
:102E33003008447800000000000010107C101010CF
:102E4300100C0000000000000000CC444444443E49
:102E53000000000000000000EE44282828100000B5
:102E6300000000000000D65454542828000000003D
:102E730000000000DC48303048EC00000000000097
:102E83000000EE442828101020E00000000000009D
:102E93007C481010247C000010101010101010102B
:102EA300101010101010000136360101000102014C
:102EB30000010301000104010606050200000701E9
:102EC30000340801000F090401010D0100FF0E0881
:102ED300000017020000190100FF1A0100011B0185
:102EE30000FE1C0100081D0200001F01000120015B
:102EF3000001210200002301000F2402000026012B
:102F0300000127010008280200FF2A0100072B0106
:102F130002402C0100002D0100012E0100012F01B0
:102F230000FF30010B1C310800003A0100083B018F
:102F3300000F2F0100000300710030016000110039
:102F43007000310220035004800010006100000073
:102F5300140063007300720062004300000013005A
:102F63000600000000000400120000000000000042
:102F7300000004000400370037003C024400000056
:102F83000000000000006500000035008100000023
:102F93000500000083000000010371030103010326
:102FA30001030103010322030203010310030003CE
:102FB30000030003000300030003000342030003B4
:102FC300240306030003000304031203250323035E
:102FD3002503230304030403000300030003440342
:102FE300000300032303000365032100350381036A
:102FF3000003050300030003000301017101010144
:1030030001011101010131010101010180011001DF
:1030130061013B001400630173017201620143010A
:103023000001130106013D013500040112010001F5
:1030330000010001000104010401330133013C01DB
:103043004401320136000001000165010001350031
:103053008101000105018201830100010302710264
:1030630030016002110270020102020202028002B8
:10307300100261023A0041006302730272026202AB
:10308300430200021302380000020002040212028B
:1030930000020002000200020402040237003700AB
:1030A3003C024402000239000002000265020002F1
:1030B3003502810200020502820283020002030438
:1030C3007104020460041104700402040204010484
:1030D30002041004610400041404630473047204FE
:1030E30062044304000413040604000400040404FB
:1030F30012040004000400040004510464000004EA
:1031030000040004440400040004000400046504F3
:1031130000043504810464000504000483040004EE
:1031230036000100060000000F0000000000000050
:1031330000000000000003FFFF00000403FFFF0086
:1031430000FFFF0FF4010005C40403200001000386
:103153000B000000000000000003010F00005C22D0
:103163001300D82101005C22020090210300962164
:1031730004009C210500A2210600AE211100CC21F0
:103183001400D2211500C021FFFF0000010816061C
:1031930038160832160B4416108415020E1605262F
:1031A300160714160CEA150DFC15FF000003EAF5CB
:1031B300E5D5D5C5B5A595958585757565655555CC
:1031C300454535352525151505101A401A161A1CBF
:1031D3001A3A1A2E1A281A461A4C1A521A5E1A2228
:1031E3001A0A1A041A00160F00000B150B0200022C
:1031F300220F32000006001B121B181BDA191E1BBC
:10320300D419E01914190E194A1950194419FC1844
:10321300601B7E1B841B661B721B6C1B0001191633
:10322300181616152303000C0E020B040B0A0708CD
:10323300000F00034948424D181725050200383C8A
:103243003E363B3B352B432C303017181921301BAE
:103253001D1F30303016181920231A1C1E30541B22
:10326300241B2A1B361B301B341A581A781B641A6A
:103273006A1A020402010101010902201926191A1E
:103283001956190000000000002C193E1900BE0455
:103293000A150004007F00E8030C0028000000006A
:1032A30000090308100C0A03080900040001FF1EAB
:1032B3001E0C05040F1008C082C0838A828B83E032
:1032C300D2E7F01220E2024489C082C0837900125F
:1032D3003786126656C082C0839003341253DCD003
:1032E30083D082C3E09CA3E09D500C126D2AFAA305
:1032F300E01232FD600109024489FBEA75F00BA478
:10330300FAA8F075F00BEBA428FB900336E02AF83B
:10331300A3E03B8882F583E0540F2274F7120A6F0F
:10332300890812378612382CACF075F00BE9A42CFF
:10333300F9900336E028FEA3E039FF7401650860C5
:10334300067402650870208A828B8312381812462D
:10335300B874026508701B1236D712385F70138E6B
:10336300828F83E4F0800BEA2403FCEB1237FA121A
:103373003806EEFAEFFB1228F802461574F4120A27
:103383006F12765179008E828F83E06076890A8985
:103393000B8065E50A75F00BA4FAA8F075F00BE550
:1033A3000B12330A7046E50A75F00BA4F8AAF07500
:1033B300F00BE50B12383E8E828F83E08508828501
:1033C3000983123920850882850983A31246B8EE42
:1033D3002403FCEF1238031244961260D0AA08AB00
:1033E300091228F87901900334125AE5E50A2401F9
:1033F300F50AE50B3400F50B1236DFE50A9AE50B07
:103403009B409002486274F5120A6FEAFEEBFF7468
:103413000B12133712449B750A01EC4D602BEC120F
:10342300766DED1266561246B079011228D4E5087E
:103433004509606F850882850983A312765B79024B
:10344300AA08AB091228D4805AE5084509602B1253
:10345300665A124D24124497123849700CEEFAEF53
:10346300FB1228CEE9F50A80CBEE2403FA1237814A
:1034730070317903EEFAEFFB80CA8E828F83A3E06B
:1034830064FE7003A3E0F4700BEE24030A0A0A122D
:103493003781700CEEFAEFFB1228CEE9F50A8003B0
:1034A300750A00A90A7F03020D2474F7120A6F90AC
:1034B3000334124625EA4B602FEA75F00BA4FAA8F1
:1034C300F075F00BEBA428FBEAFEEBFF121EF09065
:1034D300033612462590033612592A6012EEFCEF8A
:1034E300FD7900121E308007900336E4F0A3F0024A
:1034F3004615900334125094C3EE98EF9922C0827C
:10350300C083EC4D600512273C80097C087D00795F
:1035130000121E3002448974F6120A6F7900EA4BD6
:1035230060187800880812699DEB126D2660047993
:1035330001780808E8C3940840EA0246C174F71208
:103543000A6F74F3121106ECFEEDFF8518828519DC
:1035530083E4F004121337EAF0A3EB125E5674030C
:10356300121337AC82AD83EEFAEFFB12283EEEFA6C
:10357300EFFB12283802461074F7120A6F74F31225
:103583001106ECFEEDFF851882851983E4F0EAFC51
:10359300EBFD740312133712391974011213371226
:1035A30046AC8E828F831246B874FE68700374FF34
:1035B30069600479018002790002461074F7120AE7
:1035C3006FEAFEEBFF12361D70141236288E828FBF
:1035D30083E0F4F88A828B83E058F01228F8A90874
:1035E30002461574F7120A6FEAFEEBFF7508008EA8
:1035F300828F83E0602212361D701D1236288A8264
:103603008B83E08F838E82F8E058700CE0F88A8217
:103613008B83E048F01228F880C41228DAE9F50811
:103623007401650822127666123830123772FAA3D3
:10363300E039FB2274F4120A6F8A088B097C007D3F
:10364300001236D71238061237971276587900854A
:103653000882850983A3E064FE7003A3E0F460712C
:103663007E007F008062EEFAEF1232FD6057EEFAC1
:10367300EFFBEA75F00BA4FAA8F075F00BEBA428A6
:10368300FB900336E02AF50AA3E03BF50B8508829D
:10369300850983A3125DA4850A82850B83A3E06A4F
:1036A3007003A3E06B701EE50A2403FAE50B1237DF
:1036B30082700AE50A2403FCE50B12380312378BE8
:1036C300790112666C1240761236DFEE9AEF9B4058
:1036D30095024862EA24030A0A0AEB229003341291
:1036E3006243C32274F3120A6F8A088B098A828B9E
:1036F30083A312765B123786127658750C00123646
:10370300D712378270547E007F008049123764FAE3
:10371300A3E0398A82F583E0540F6036123764F5EB
:103723000AA3E039F50BE50A2403FCE50B12380D77
:103733003400FB122736E964017017850A82850B72
:1037430083A3126304A31246B812378B750C0112BC
:10375300666C1240761234F540B2A90C7F05020D57
:1037630024EEF8EFF9E875F00BA4F812377222AAE9
:10377300F075F00BE9A42AF9900336E02822EF1242
:1037830038592212766CEB22123797126667EEF0E5
:10379300A3EFF022E50812766DE5092274F5120A0B
:1037A3006FEAFEEBFF8E828F83A312765B7C007D34
:1037B30000EE24030A0A0AEF123806EEFAEFFB12B0
:1037C30028DAE9F50A7401650A7029127666123857
:1037D3002CAAF075F00BE912383E850882F58312A6
:1037E3003818123849700DE5082403FCE50912372F
:1037F300FA1238060234A63400FDEE2403FAEF224F
:1038030012380D3400FB12283E223400FDE5082453
:1038130003FAE50922A312381D2212382122E0F807
:10382300A3E0F98E828F83A322123830223400F56D
:1038330083125098E875F00BA4F822123778F50834
:10384300A3E039F50922E8F0A3E9F0E5082403FA37
:10385300E5091238592212385F6401223400FB1241
:103863002838E92274F3120A6F74E61211061276ED
:1038730051750C01750800750900750A00750B0078
:10388300851882851983E4F0EE2403FCEF3400FDF0
:103893007403121337123919E964017023740B127C
:1038A30013371246B07401121337125DA87003A3C5
:1038B300E0696051851882851983858208858309AB
:1038C300740D121337E4123920740E121337124693
:1038D300B8740D121337AA82AB83121350E9640133
:1038E300700B740D12133785820A85830B780A12C5
:1038F3001044AC08AD09EEFAEFFB1228C8740212AB
:103903001072E9F50CEEFAEFFB12134AA90C741AC4
:1039130012107202375F123BEC121356221246202A
:1039230012509422C082C083780079008003123A37
:10393300171236DFE89AE99B5029E8FAE9FBEA75A2
:10394300F00BA4FAACF075F00BEBA42CFB90033650
:10395300E02AFCA3E03B8C82F583E0540F70CF791F
:103963000080027901024489C082C083903294129C
:1039730050EAEC75F012A4FCA8F075F012EDA4283F
:10398300FD79FF7A217B09121E3002448974F712F4
:103993000A6FE9FEEAFF7A007B007800790080284D
:1039A300E8FCE9FDEC75F012A4FC85F00875F01253
:1039B300EDA42508123E2CC39E400AE0FCEFC39CF5
:1039C3004003123F4B123A17123E2040D3024615D2
:1039D300C082C083780079008003123A17123A0B31
:1039E300501F123E30F470F2E875F012A4F8AAF0FA
:1039F30075F012E9A42AF9742128FA740939FB80B5
:103A0300047A007B00024489903294123EE1C3E8B9
:103A13009AE99B22E8240108E93400F92274F012A0
:103A23000A6F74F31211068A0A8B0B8C0C8D0D89A5
:103A330008EC450D6016AA0CAB0D1213A48A0E8B6D
:103A43000FAE0EAF0FEE4F6003023ADE12137A8A07
:103A53000E8B0FA80EA90FE8FEE9FFE849607C90E2
:103A630032A2123B40602274036508600674046549
:103A73000870167A0479031213749032A2123B571A
:103A830040077A007B00023B3D9032A0123B40602E
:103A93001B74016508600674026508700F7A027969
:103AA300011213749032A0123B5750D685188285A9
:103AB30019837401F01213371260D0AC0CAD0D747E
:103AC30003121337123BE5740B1213371244A3127C
:103AD3004A98E41260B81218548004EE4F604A7892
:103AE3000074FF2508C39404500278048E828F83E8
:103AF3001260D08E828F83A3A3A3A3E508F0E88E80
:103B0300828F83A3A3A3A3A31260D8120817123E24
:103B1300F88E828F83A3A3A3A3A3A3A3F0123EEFE4
:103B230012130C126650121300123B454005900EFF
:103B33007DE4F012172EEEFAEFFB02509E1261F2B3
:103B430049227A047900121374903294126D0CEAAC
:103B530098EB9922123B70758332758294E493C378
:103B630098F8A3E49399F9C3EA98EB9922E493F8BC
:103B7300740193F92274F2120A6F74F31211068A14
:103B8300088B09ECFEEDFF750A00EEFAEFFB12134A
:103B9300A48A0C8B0DA80CA90DE849603E88828984
:103BA30083E065087004A3E06509602F8882898338
:103BB300A3A3A3A3E0C3940550211264FE85188236
:103BC3008519837401F0121337126502EEFCEFFDC1
:103BD3007403121337123BE5750A01A90A740D0227
:103BE3005B9C123BEC12136222AA82AB8312283E27
:103BF300851882851983AA82AB832274F6120A6F11
:103C0300123C3A600FA3A3A3A3E014C3940450048B
:103C13007901800279000246C174F6120A6F123CE0
:103C23003A600FA3A3A3A3E014C394025004790141
:103C3300800279000246C112139E8A828B83E58239
:103C430045832274F6120A6F123C3A600BA3A3A3B6
:103C5300A3E070047901800279000246C1C082C0EA
:103C630083EAFCEBFD7A007B00024486C082C083BA
:103C73007C007D0002448674F4120A6F74F31211FF
:103C830006EAFEEBFF8C0A8D0BC3EC94F8ED94FF70
:103C93004007EE4F7003023D33750800750900803D
:103CA3002E8518828519837401F012409E121337F2
:103CB3001240AC60137403121337AC82AD83EEFA77
:103CC300EFFB122736E97049E5082401123ECC9038
:103CD3003294E41261FAE50898E509995052E5082F
:103CE30075F012A4F8AAF075F012E509A42AF912E6
:103CF3006D3F60D4EE4F70A974FF650A700474FFC2
:103D0300650B60C412408E650A7004A3E0650B70F6
:103D1300B7E50875F012A4F508A8F075F012E509E7
:103D2300A428F50974212508FA74093509FB8004D0
:103D33007A007B0002485D74F4120A6F74F3121167
:103D4300067508001213A48A0A8B0BAE0AAF0BEE9A
:103D53004F602A851882851983740112461AF8A3C5
:103D6300E0F9740B12133712473B121E0C7C127DC1
:103D73000079FFEEFAEFFB121E30750801123B4586
:103D83005009900E7D7401F012172EA90802485DA8
:103D930074F7120A6FE9FE74FE6A700374FF6B789E
:103DA30000790070058052123A17123E20504AE8FB
:103DB300FCE9FDEC75F012A4FCAFF075F012EDA474
:103DC3002F123E2CF460E0E8FCE9FDEC75F012A440
:103DD300FC75F012EDA42FFD74212CF58274093DBE
:103DE300F583E06A7003A3E06B70BC8009123E3078
:103DF30014C394044017123A17123A0B5018EE707A
:103E0300EC123E3064016005E0640370E912407F08
:103E1300FAA3E0FB80047AFE7BFF024615903294FE
:103E23001250EEC3E89CE99D22123F8022E8FAE992
:103E3300FBEA75F012A4FAACF075F012EBA42CFBBC
:103E430074252AF58274093BF583E0221213B60226
:103E53004489C082C083790180F274F0120A6F8AA8
:103E63000A8B0B7A0479011213748A0C8B0DEA45C1
:103E73000D603EEAC333FAEB33FB121EF08A088B64
:103E830009AE08AF09EE4F60237AFE7BFF1213BC25
:103E930074FE6A700374FF6B601B85088285098357
:103EA300124625E5082402123ECC80E1750C008001
:103EB300047E007F00850A82850B83E50CF0EEFA11
:103EC300EFFB0250A3E5082407F508E5093400F5E4
:103ED30009229032941250EEC3EA9CEB9D22E493A4
:103EE300FA740193FB22121E24740322126661E406
:103EF300F090819622E88E828F83A3A3A3A3A3A32A
:103F0300A3A3123F1A7401123F1AA3F0EE24101256
:103F13006664E4F0A3F022124AA4A3A3A322C082FE
:103F2300C0837A007B00800419123F4B123ED550A8
:103F330010123F6AC3940550F0E970EC123F5480AD
:103F4300047A007B00024489EA24010AEB3400FB73
:103F530022EA75F012A4FA75F012EBA428FB74217F
:103F63002AFA74093BFB22EAFCEBFDEC75F012A480
:103F7300FCA8F075F012EDA428123F8022FD7425F1
:103F83002CF58274093DF583E02274F7120A6F74ED
:103F9300F31211067E007F00024032E50875F01728
:103FA300A4F8A9F0126FA0FAA3E0FBEEF8EFF9E88A
:103FB30075F012A4F8ACF075F012E9A42C12408D40
:103FC3006A7003A3E06B603FE50875F017A4F8AAD5
:103FD300F0EA126F9FF8A3E0F97401121337E06857
:103FE3007003A3E0696020E50875F017A4F8EAF907
:103FF300749D28FC740A39FD7403121337AA82AB2B
:1040030083122736E96014E50875F017A4F8A9F0C0
:10401300749B28FA740A39FB12186005089032A7BA
:10402300E493F8E508C3985003023F9E124076904C
:1040330032941272E65039EEF8EFF912407FF470C1
:1040430003A3E0F460E68518828519837401F0EE1A
:10405300F8EFF9E875F012A4F875F012E9A42AF95B
:1040630012409E1213371240AC60C175080080AD38
:10407300024610EE24010EEF3400FF22E875F01221
:10408300A4F8AAF075F012E9A42AF9124092227456
:104093002128F582740939F583E022742328F582F7
:1040A300740939125092740B22E8F0A3E9124743C2
:1040B30012135CE922C082C08390033D7420F0A3F5
:1040C3007416F090033F741AF0A37416F090034330
:1040D300743AF0A37414F002448974F7120A6FEA75
:1040E300FEEBFF900377E06408601BE06404601656
:1040F3008E828F83E0540364017048124496124BFE
:1041030099E06406703D8E828F83A3A3E064FE7002
:1041130003A3E0F4602D8E828F83A3A31246AC9099
:104123000368E0687003A3E069700BEE2415F58261
:10413300EF126D2660081216CEE9F50880081216F4
:10414300D480F67508C2EEFAEFFB121EF60235E1D3
:1041530074F4120A6F8A088B098A828B83E0F8A3AE
:10416300E0FAE82AFAE43400FB121EF08A0A8B0B09
:10417300AE0AAF0BEE4F6063850882850983E0FCCE
:104183007D007900121E308E828F83A3A312765B8B
:104193001217108E828F83A3A3A3A312462585082B
:1041A30082850983E0F8EE28F8EF34001246B485DF
:1041B3000882850983A3E0C0E0EE240D126653D084
:1041C300E0F0121722EE240E126653E9125D05E0A9
:1041D300C0E0EE2411126653D0E0F0EEFAEFFB02DA
:1041E300486274F4120A6F74EB1211068A088B0981
:1041F3008C0A8D0BE9FE900377E064046005E064AC
:1042030008700479C2802EA378081212A8EE9003D6
:104213007E1244901212A87405121337E9F0740445
:104223001213377401F07407121337E4F090037715
:104233007402124424741502485F74F6120A6F74F0
:10424300EB121106EAFEEBFF12592760030242E16B
:104253007A077B00121EF090033912462512592764
:1042630060788E828F8312130C90033A124B9C1248
:10427300130012751FC0E01242EDD0E0F0EE2405EA
:10428300FAEF3400FB8A088B098A82F583E0C0E0E9
:104293001242E8D0E0124859E0C0E01242E8A3D04D
:1042A300E012469912130C851882851983121300A4
:1042B30088828983E0C0E07405121337D0E0F0856B
:1042C3000882850983E0C0E07404121337D0E0F05C
:1042D3007407121337124423800679108002790180
:1042E30074150246BE1242EDA322900339E0FAA3ED
:1042F300E0F5838A82A3A3A3A322C082C0831259B9
:1043030027600D900339126231900339E4F0A3F072
:1043130012163E12180002448974F0120A6F74EBED
:10432300121106ECFEEDFF89087425121337780C81
:104333001212D57429121337E0F9742A121337E0D5
:10434300FC742B121337E0FD740F697005740F6C46
:104353006012900ED8E06402700579C102441EE930
:10436300C39C40F6900378780C1212A8E5089003DA
:104373007EF0E990037CF0ECA3F0ED90037FF07402
:10438300FF6A700374FF6B701D900EE3E0F470031B
:10439300A3E0F47005121E48800C900EE31245ED65
:1043A300E8F0A3E98007900375EAF0A3EBF0EE4F82
:1043B3006017EEFAEFFB1218C0E96401700BEEFC14
:1043C300EFFD7A897B0312273C900368E4F0A3F0A6
:1043D30090036BF0A3F0900388F0900ED8E0640292
:1043E300700890037C740FF0A3F09003777405F0CA
:1043F30014121337E4F090037812130C8518828596
:10440300198312130090037EE0C0E0740512133782
:10441300D0E0F0740712133712442374150250A02E
:10442300E412474312276C22C082C083900338E012
:1044330070031221C6121404804CC082C0839003FF
:1044430038E0900E7C7004E4F0802D7401F090034A
:1044530038E0F460237C41E0C394415002E0FCEC7B
:10446300F8E0C398F0EC75F0E8A4CCA8F075F0037D
:10447300A428FD7A801250F67A7C7B0E79411227AC
:104483005480031213AAD083D0820210241246A4AC
:10449300780822EE12666222E0F508A3E0F509220D
:1044A3001244A722123821A32274F5120A6F74E270
:1044B300121106851882851983ECF0A3EDF0EAFE4C
:1044C300EBFF89087429121337E0F509742C1213D2
:1044D30037E0F50A900377E064046005E064087050
:1044E3000579C20245DE742A121337E064FE7003B5
:1044F300A3E0F4700579C30245DE900377740312D9
:10450300473F7950122754742A121337AA82AB8378
:10451300794B1227548518828519831245ED12466B
:10452300B8E50890036AF0742A1213371245E612AD
:1045330046B8E5099003621245F474CE55094480E8
:10454300C0E07412121337D0E0F07401250A90030F
:1045530088F0740F1213377402F0742A121337128F
:1045630046AC7407121337E8F0A3E912462B741014
:104573001213371246B87405121337E508F0741B8B
:10458300121337E4F090037D740FF07A7D7B037987
:104593005412275490037C740FF07A7C7B03794781
:1045A30012275490037CE0C3940F50237405121315
:1045B30037E0C0E07402121337D0E0F07404121332
:1045C300377401F004121337AA82AB83122778746D
:1045D30005121337AA82AB8312275A741E12107264
:1045E3000234A812509490036B22125094900375D6
:1045F30022F0EEFCEFFD7A897B0312273C2274F74D
:10460300120A6FEB90037FF012162C8005740D12C3
:1046130010727F01020D24124620A3E02212469954
:10462300A322EAF0A3EBF02212469FF8A3E0F922BB
:1046330074F7120A6F74F8121106EAFEEBFF7900A1
:10464300900377E06408704485188285198374FDAC
:10465300F0A374FFF012170A7402121337124625DF
:104663007405121337E4124620E0C0E074041213F9
:1046730037D0E0124694C0E07406121337D0E0F04E
:104683007407121337E412473F12174C740802469B
:1046930012124699E022F08E828F83221246A4E002
:1046A30022F08518828519832212509422E0F8A300
:1046B300E0F9126661E8F0A3E9F0221210727F02BA
:1046C300020D24C082C08390034974CAF0A37414FA
:1046D300F09003EF74A6F0A37417F090034D7400E9
:1046E300F0A37415F090034F74CAF0A37414F09000
:1046F30003517406F0A37415F002448974F4120A8A
:104703006F74F91211068A088B098C0A8D0B8518B0
:104713008285198378081212A87404121337E9F0FA
:104723007405121337E4F07406121337E412473F8B
:104733001213EC740702485FE8F0A3E9124743221F
:104743001246A4AA82AB832274F4120A6F8A088BDE
:10475300098A828B8312666FEE4F7003024857906B
:10476300031212592A60158A828B83A3A3E0F9EE00
:10477300FAEFFB900313124B9C12299F8E828F83B7
:10478300A3A3A3A3A3A3A3A3A3E0640270748E8231
:104793008F83A3A3A3A3A3A3E05402700302482916
:1047A300850882850983A3A3E064E960798E828FFB
:1047B30083A3A3A3A3A3A3A3A3A3A3E07014900E13
:1047C300DBE0048E828F83A3A3A3A3A3A3A3A3A34A
:1047D300A3F08E828F83A3A3A3A3A3A3A3A3A3A3C3
:1047E300E014124859A3A3A37404F0900EDC1260E2
:1047F300AAE8F0A3E91271838B0BEA450B7003124D
:104803006B618E828F83A3A3A3A3A3A3A3A3A3E01C
:10481300640260128E828F83A3A3A3A3A3A3A3A383
:10482300A3E06406702E8E828F83A3A3A3A3A3A306
:10483300E0A2E0501F850882850983A3A3E0F9EE77
:10484300FAEFFB1228808E828F83A3A3A3A3A3A3D3
:10485300E054FEF08009124AA022740D1210727FF8
:1048630004020D2474EC120A6F74DD121106EAFEC1
:10487300EBFF8C088D097437121337780C1212D59D
:10488300750A007405121337AC82AD831227F074D6
:1048930012121337E070087415121337E060207496
:1048A30005121337E0A2E6501E8E828F83A3A3A3C3
:1048B300A3A3A3A3A3A3125DA4121782E96008799B
:1048C30003122724024A867405121337E0540C643A
:1048D300047005750B018003750B00E0A2E55035EC
:1048E300750A01E50BA2E0402C1217108A108B11F8
:1048F300A810A911124496E0687003A3E06960153B
:104903007405121337127662125DA012288CE960C7
:1049130004790480AC7405121337E0A2E6502274C4
:1049230006121337E0540370187405121337E0545A
:104933000C640C600CE0540C640860057510018075
:10494300037510007405121337E05403F8740268FA
:10495300700C127662125DA0121D8E024A867401DB
:1049630068703AE510A2E05003124A8E74051213E0
:1049730037A882A9837403121337E8F0A3E912500E
:1049830088851882851983124A98E0C0E074021260
:104993001337D0E012473F122970024A86E86003BA
:1049A300024A8690035FE0640170108E828F83A3B6
:1049B300A3A3A3A3A3E07003024914742212133721
:1049C3007402125088741A1213371246B8E510A2F3
:1049D300E050087405121337124A8EE50BA2E0501B
:1049E3006AEE240FF582EF126D26C0E074171213DE
:1049F30037D0E0F090031412592A7003024A86124A
:104A030017108A128B13A812A913741A121337E002
:104A1300687003A3E069706B780C12103C780A127B
:104A230010487808121044A910740C121337AC8282
:104A3300AD837421121337AA82AB83900314124BF4
:104A43009912299F74071210728038780C12103C47
:104A5300780A1210487808121044900375120E2930
:104A6300EE2412F582EF126A547423121337AC82C8
:104A7300AD83740E121337AA82AB831228747409A0
:104A8300121072742312107202714E127662126245
:104A93003F1227EA22E8F0A3E9124AA022124AA40D
:104AA30022F08E828F83A3A3A3A3A3A32274F7125E
:104AB3000A6F12209A02461574F7120A6F1220A089
:104AC30002461574F7120A6F1220AC024615C08213
:104AD300C0831220A602448974F7120A6F1220B20F
:104AE30002461574F7120A6F7409121337E0F508BA
:104AF30078081210481220BE7401024612C082C008
:104B0300831220CA024489C082C0831220D0024487
:104B13008974F7120A6F1220D602461574F7120A27
:104B23006FEAFEEBFF8908740165087014790012BF
:104B330015429032B2E493FC7900EEFAEFFB1214C3
:104B4300B802461574F4120A6F74F9121106E9FEDD
:104B53008A088B098C0A8D0B7413121337125DA408
:104B630090059512592A6027EE851882851983F0DE
:104B7300740112133778081212A8EAF8EBF97405D6
:104B830012133712473B900595124B9912299F0236
:104B93004736FB90034BE0F8A3E0F583888222C0FD
:104BA30082C08312210C02448974F7120A6F900E9B
:104BB3007FE0F97E00800B126D12540D64017001C9
:104BC300190E124DA65003E970ED02461574F71243
:104BD3000A6F900E80E0F97E00800B126D12548DE7
:104BE30064817001190E124DA65003E970ED02465F
:104BF3001574F2120A6F890BE975F006A4240CF5FB
:104C030008E5F0123ED08A0CE508250CFAE50934D4
:104C130000FB121EF08A0C8B0DAE0CAF0DEE4F6035
:104C230027AC08AD097900121E30124496E50BF04B
:104C3300EE2508F8EF3509F98E828F83A3A3A3A38A
:104C4300A3A3A3A3A31246B8EEFAEFFB025B9F74E0
:104C5300F6120A6FEAFEEBFF121494900E7EE0F850
:104C6300E9C3984009900345125DA412149AEE24F7
:104C730002F8EF1263B490034712626E900347E0A9
:104C830004F0EEFAEFFB1214A0850882850983E095
:104C930002686AC082C083790090034580010912CB
:104CA3005DA48A828B83E582458370F20244897412
:104CB300F7120A6FEAFEEBFFEE4F605690034512C0
:104CC300592A604E888289837A007B00EE65827060
:104CD30003EF6583600FAA82AB83124D18E582450B
:104CE30083602F80E7900345124D24687002EF69BB
:104CF3008E828F8370081246AC9003458003127135
:104D0300601246B8EEFAEFFB122940EEFAEFFB12FF
:104D13001EF6024615124D1C221250988882898372
:104D230022125094EE22C082C083900345800488EF
:104D330082898312592A600B888289831253DCEC9F
:104D43004D70EC8A828B83E4F0A3F0E84960068817
:104D5300828983800390034512462502448974F7B0
:104D6300120A6F90034580048A828B83124DA14BF4
:104D730060257E0080010E124DA650ECEE75F00604
:104D8300A4FCADF0EA2CFCEB3DFDEC2410F582ED28
:104D9300124DF670E180047A007B00024615126220
:104DA30043EA22124DFFEEC3982274F7120A6F7D75
:104DB3000080010D124DFBEDC3985034ED75F006E4
:104DC300A4FEA8F0E8FFEA2EFEEB3FFFEE2410F569
:104DD30082EF124DF670DCED75F006A4FEE8FFEAF3
:104DE3002EFAEB3FFBEA2411F582EB126D264CF011
:104DF300024615126D326922124DFF2212766CEBB8
:104E03003400F583E0F82274F6120A6F1215BA7AA9
:104E1300007B008025EAF8EBF9E875F006A4F8AC0E
:104E2300F075F006E9A42C12621812752DA3E41292
:104E3300630EF0A31275331276AA90329C123B4F85
:104E430040D37A007B00801C8A088B09740378089E
:104E5300121232125CCCA374FEF0A3041260EEA310
:104E6300E41276AA9032A6124EA940DC7A007B00A7
:104E7300801D8A088B097403780812123274C312D6
:104E8300699E740D1271E574FEF0A3041276AA9064
:104E930032AC124EA940DB9032B0E493900353F04E
:104EA300124EB30246C1E493F8C3EA98EB9400228E
:104EB3007CE87D037A107B009003C2E0F9121FB6F1
:104EC3002274F0120A6F74F51211068A088B09898D
:104ED3000A8C0BE9A2E050147508FC7509FFA2E1E6
:104EE3005005D2E4024F86D2E3024F86125B8B70E9
:104EF30003A3E06970057900025053AC0A7902AA52
:104F030008AB09121596E960EDE50AF50C780C1269
:104F1300104879027CFE7DFFAA08AB0912590612DC
:104F23001072E96003025051E50AC2E5F50A9003E5
:104F3300B5E07051E50AA2E6404B7403121337AC97
:104F430082AD83AA08AB09122826E97032125227D0
:104F53008A0C8B0DA80CA90DE8FEE9FFE849602532
:104F6300EE24020A0AEF12385F601AEE2402FCEF05
:104F73003400FD7403121337AA82AB8312273CE576
:104F83000AD2E5F50A900348E0F50C900368E0F5D2
:104F93000EA3E0F50F780E1210447D017C00900300
:104FA30048E0F9AA0EAB0F12154E7402121072E903
:104FB300F8900348E004F0E86003025051E50AA2C8
:104FC300E55004740E80027406C0E07401121337B6
:104FD300D0E01266808A0E8B0FAE0EAF0FEE4F60DD
:104FE30069125071125088888289837401F0747831
:104FF300550AA3127672E50C127672A3E508F0E562
:1050030009125060E4F0E50AA2E5500F740312138D
:1050130037AC82AD83E824061250578E828F83A368
:10502300A374FDF0A374FFF0E50B60159032B3E4B5
:1050330093F8E50BC3985009EE2413126653E50B5E
:10504300F0EEFAEFFB1213DA80067910800279C7CB
:10505300740B8049FAE93400FB12273C22888289C9
:1050630083A3A3A3A312506C221263E7A322EE240B
:10507300171266647401F012170AEE241A1266649A
:10508300EAF0A3EB22F0127666340012509222F576
:105093008312509822E0F8A3E0F922740D121072E3
:1050A3007F08020D2474F6120A6F7A007B10126BCC
:1050B3006E60089003D47401F08029900636E06492
:1050C30001900ED97006E0FC79018004E0FC7903BD
:1050D3007A007B001214B890329A1250EA7A007B5D
:1050E300101250F80246C11250EE22E493FC7401F0
:1050F30093FD227B009003C2E0F9121FB02274ECEF
:10510300120A6F8A088B098C0C8D0D890E74141288
:105113001337125AE57416121337E0F510A3E0F5AE
:1051230011121782E960077AFF7BFF025224900E67
:10513300D8E0640260030252177900AA08AB09128F
:10514300159CA90E1215908A128B13AE12AF13EE93
:105153004F70030251FF8E828F83A3A3A3A3A3E007
:1051630064018E828F83A3A37069125DA48E828FE4
:1051730083A3A3A3A3A3A3E0541860439032B1E491
:10518300938E828F83A3A3A3A3F0EA650C7003EB32
:10519300650D6014EA650A7003EB650B600AEA6546
:1051A300107003EB6511701F7810121044AC0AAD38
:1051B3000BAA0CAB0D12187E7402121072800890A9
:1051C3000367126B58A3F074FE6A700374FF6B607D
:1051D3001D804EA3A3A3E0640360298E828F83A363
:1051E300A3A3A3A3E0640470057AFE02512C8E826C
:1051F3008F83A3A3A3A3A3E0640270089003B4E086
:10520300640270101252278B0BEA450B6006AA0842
:10521300AB09800DAA08AB09900349124B991229D7
:105223009F02714E90037512590C1218422274F7A3
:10523300120A6FEAFEEBFF12138CE9700AEEFAEF23
:10524300FB121398E96006EEFAEFFB80047AFE7B0B
:10525300FF02461574F0120A6F8A0A8B0B8C0E8DAF
:105263000F8909750800121782E979006003025358
:10527300CEAA0AAB0B12159CA9091215908A0C8BA6
:105283000DAE0CAF0DEE4F60198E828F83A3A3A3D7
:10529300A3A3E0640270559003B4E06402700302B8
:1052A30053CCAA0AAB0B90034F124B9912299F12AE
:1052B300139E8A0C8B0DA80CA90DE84970030253A9
:1052C300CC88828983A3A3A3A3A3E0A2E040030223
:1052D30053CC750C01A2E150687901AC0AAD0BAA5D
:1052E3000EAB0F1214E8E970640253CC8E828F83E5
:1052F300A3A3A3A3A3E064037005750C0280528EDD
:10530300828F83A3A3A3A3A3E0640160030253CC0E
:105313009003751253DC8E828F831257318A0C8B64
:105323000DA80CA90DE84960D19032AAE493FA883C
:10533300828983E0C39A50C2A3E060030253CC8006
:10534300B988828983A3A3A3A3A3D2E1F0EE4F601C
:105353003A8E828F83A3A3A3A3A3A3E05418602B45
:105363007508018E828F83A3A3120E29750CFE7517
:105373000DFF780C1210447900AC0AAD0BAA0EABEA
:105383000F1215AE7404121072803E900368E0652C
:105393000E7004A3E0650F70149032B2E493FCA97D
:1053A30009AA0AAB0B1214B8750801801CA90CAC2E
:1053B3000AAD0BAA0EAB0F1214E8E9700C750801C5
:1053C300A909AA0AAB0B121542A9080250A3E50CBE
:1053D3002415F582E50D1266671260C42274EA1281
:1053E3000A6F74F01211068A0C8B0D8C088D0974E8
:1053F30026121337E0F514A3E0F515751206900392
:10540300F512592A60239003751253DCAA08AB09DD
:1054130012186C8A108B11EA4511600D8A828B83F6
:10542300A3E070057900025719E50C241DF50EE57C
:105433000D3400F50F850E82125916F513888289F3
:1054430083A3A3A3E0FA88828983A3A3A3A3E0F998
:10545300EA2400FEE439FFAA08AB09121548850EB9
:1054630082850F83125754E029F50BE50AA2E55014
:105473000375120E7487550A70177418550A641849
:10548300600FE50C2417F582E50D126D2665126099
:10549300077901122724808C530A78C3EE94F8EF1E
:1054A30094FF501D7900EEFAEFFB12572360128828
:1054B300828983A3A3A3A3A3A3E054186003025484
:1054C3002778081210447D00125747121072E9F82A
:1054D3007403687003025427E8600302559274183A
:1054E300550A7003025647E50AD2E0F50AA2E450D2
:1054F30004D2E1F50AA90A125D9D1257236053886D
:10550300828983A3A3A3A3A3A3E05418604488823E
:105513008983A3A3A3A3A3E064017036E510451117
:1055230060309003751253DC888289831257318A65
:105533000E8B0FA80EA90FE849601788828983A3F1
:10554300E0600F851082851183A3126875500302F2
:105553005427E50AF50E780E12104812573A121026
:1055630072E9702B7C007D0085148285158374FF9E
:10557300F0A3F0850C82850D83A3A3A3A3A3A3A308
:10558300A3E060031253D1A90B125D9D1220C485C1
:105593001482851583E0F47003A3E0F4603990036B
:1055A300B4E064027003025427125AD6E0FAA3E06F
:1055B300124B9512299FEA65087003EB6509600396
:1055C300025427EEFAEF124B9512299F8514828518
:1055D3001583EAF0A3EBF078081210447D0112570B
:1055E30047121072A90AEEFAEFFB12159C8A088B78
:1055F30009A808A909900368E0687003A3E069603B
:105603000302570AEEFAEFFB12139E8A088B09A8CE
:1056130008A909E849606E88828983A3A3A3A3E04C
:105623006401600D88828983A3A3A3A3E06402704D
:1056330054851882851983AC82AD83EEFAEFFB1291
:1056430028268055900361E0600FE50AF50E780E79
:1056530012104812573A121072E50AF50E780E121C
:10566300104879027CFE7DFFEEFAEFFB1259061219
:105673001072E9600302559285148285158374FFC5
:10568300F0A30255D912170AEAFCEBFD85188285AF
:105693001983AA82AB8312273C850C82850D83A3D1
:1056A300A3A3A3A3A3A3A3E06401700F1253D17414
:1056B30008121337AA82AB8312273C1258E01264F4
:1056C300EC4430F50878081210487401121337853A
:1056D30082088583097808121044740B12133785E6
:1056E30082088583097808121044E513F5087808C1
:1056F3001210487900EEFCEFFD125D9D1214E27466
:10570300061210720254271258E0126656125754AA
:10571300E50BF012172274101210727F0E020D2483
:105723001215908A0E8B0FA80EA90FE84922A3A386
:1057330012624312186C227901AC08AD0912623867
:1057430012590622AC0BA91312623812154E7402B9
:10575300221264F4A3A3A3A32274F0120A6F74F0B9
:105763001211068A0C8B0DECFAEDFB750F089003F2
:10577300F512592A601412686E8A828B83E582457A
:10578300836007A3E070030258DB1258E034001271
:105793005916F50B888289831258E9E0FBEC240043
:1057A300FEE43BFF88828983A3A31258E9A3A3E005
:1057B300FBECF508E43BF50988828983A3A3A3A343
:1057C300A3A3A3E0F50EE50AA2E45003750F10A20C
:1057D300E550067408250FF50F748F550A700FE511
:1057E3000C2417F582E50D126D26650F600879010B
:1057F3001227240258DB530A707800E50AA2E4500A
:10580300221258E0126D262408FCA3E03400FD7434
:1058130008121337AA82AB8312273C7808E50AC221
:10582300E4F50AE50AA2E550281258E0126D26288D
:10583300F8A3E03400F9E82408FCE93400FD8518F6
:1058430082851983AA82AB8312273CE50AC2E5F558
:105853000AAC0EA90BEEFAEFFB121554E9F8740328
:10586300686075900368E06E7003A3E06F605EE8A4
:105873007054E50AF50F780F1210481258F71210FA
:1058830072E97054780A1210487401121337858232
:105893000C85830D780C121044740B121337858218
:1058A3000C85830D780C121044E50BF50A780A1267
:1058B3001048A90EAC08AD09EEFAEFFB1214E2741E
:1058C300061210728012740468700D80B7780A1281
:1058D30010481258F712107274100250A0E50C24ED
:1058E3001DF582E50D22A3A3A3E0FC88828983A38F
:1058F300A3A3A3227901125ADD12666712590C126F
:1059030059062212150C740122E0FCA3E0FDAA083B
:10591300AB0922F583124D1CA3E0F50A8882898323
:10592300A3A3E02290033912629F2274E8120A6F44
:1059330074F5121106EAFEEBFF8C088D09891474C5
:1059430023121337E0F50F7424121337E0F512A373
:10595300E0F5137426121337E0F516A3E0F5177478
:1059630028121337E0F50EA90F12155A8A108B115E
:1059730074011213377408F0E50EA2E45003741097
:10598300F0E50EA2E55004E02408F085188285199D
:1059930083AA82AB8312176A8A0C8B0DEA450D70BA
:1059A30003025ABDEA2417F582EB125ACF12170AE3
:1059B300E50C241AF582E50D12665612462574038A
:1059C300121337AC82AD83AA10AB11122826E960FB
:1059D3001D125AC77403121337A882A983E50C2436
:1059E30018F582E50D126656E8F0A3E98024E50E6A
:1059F300A2E4501FE5106E7003E5116F7015125A83
:105A0300C7E50C2418F582E50D126656E512F0A3DE
:105A1300E513F0125AD6125AE5850A82F583740209
:105A2300F0A3E50E125AEDE50FF0EE850A82850B21
:105A330083A3A3A3F0EF850A82850B83A3A3A3A368
:105A4300125AEDA3A3A3E508F0E509850A82850BA5
:105A530083A3A3A3A3A3A3F0AA10AB11121548E930
:105A63002514850A82850B83A3A3A3A3A3A3A3F071
:105A7300750800E50EA2E45011AC12AD13E50A243B
:105A830008FAE50B125059750808E50EA2E5501403
:105A9300AC16AD17E50A2508F8E50B3400F9E82440
:105AA30008125057850C82850D83A3A3E510F0A33C
:105AB300E511F0AA0CAB0D1213DA740B1210727FFE
:105AC30010020D24E50C2416F582E50D12666774A9
:105AD30001F022125ADD12666722E50C12766DE59B
:105AE3000D22E0F50AA3E0F50B22F0850A82850B6F
:105AF30083A3A32274F2120A6F8A088B09ECFEEDCA
:105B0300FF890A7900125B8B7003A3E06970047943
:105B1300018073750B01900368E065087004A3E0CE
:105B23006509601F750B00780B121048A90AEEFC7B
