:020000040800F2
:10000000484200209D0100084126000855210008B3
:10001000FD25000829070008DD2C0008000000006D
:10002000000000000000000000000000C1260008E1
:10003000850900080000000063260008DF2600088C
:10004000B7010008B7010008B7010008B7010008B0
:10005000B7010008B7010008B7010008B7010008A0
:10006000B7010008B7010008B7010008B701000890
:10007000B7010008B7010008B7010008B701000880
:10008000B7010008B7010008B7010008B701000870
:10009000B7010008B7010008B7010008B701000860
:1000A000B7010008B7010008B7010008B701000850
:1000B000B7010008B7010008B7010008B701000840
:1000C000B7010008B7010008B7010008B701000830
:1000D000B7010008B92C0008C52C0008D12C000875
:1000E000B7010008B7010008B7010008B701000810
:1000F000B7010008B7010008B7010008B701000800
:10010000B7010008B7010008B7010008B7010008EF
:10011000B7010008B7010008B7010008B7010008DF
:10012000D5080008B7010008B7010008B7010008AA
:10013000B7010008B7010008B7010008B7010008BF
:10014000B7010008B7010008B7010008B7010008AF
:10015000B7010008B7010008B7010008B70100089F
:10016000B7010008B7010008B7010008B70100088F
:10017000B7010008B7010008B7010008000000003F
:10018000B7010008B7010008DFF80CD000F0E6F96D
:1001900000480047053100084842002006488047D3
:1001A00006480047FEE7FEE7FEE7FEE7FEE7FEE75C
:1001B000FEE7FEE7FEE7FEE7792700088901000871
:1001C0002DE9F05F0546002092469B46884606468C
:1001D000814640241BE0284641464746224600F01F
:1001E00019F953465A46C01A914110D31146184680
:1001F000224600F000F92D1A67EB01084F4622460F
:100200000120002100F0F7F817EB00094E41201EF5
:10021000A4F10104DFDC484631462A464346BDE8E6
:10022000F09F40EA01039B0703D009E008C9121FB1
:1002300008C0042AFAD203E011F8013B00F8013BA0
:10024000521EF9D27047D2B201E000F8012B491ECC
:10025000FBD270470022F6E710B513460A46044663
:100260001946FFF7F0FF204610BD30B505462A4677
:100270000B4612F8010B13F8014B08B1A042F8D05D
:100280001CB1002802D06D1CF1E7284630BD2DE9D5
:10029000F04D81EA030404F0004B21F000451446C0
:1002A0004FF0000A23F0004150EA050220D054EA42
:1002B00001021DD0C5F30A570246C5F31303C1F36B
:1002C0001300C1F30A5640F4801543F48013A7EBE2
:1002D0000608101BD64608F2FD3873EB050002D362
:1002E00008F1010801E092185B41B8F1000F03DA50
:1002F00000200146BDE8F08D00204FF48011064635
:1003000084460EE0171B73EB050705D3121B63EB46
:10031000050306434CEA010C49084FEA30009218E5
:100320005B4150EA0107EDD152EA030012D082EAA4
:10033000040083EA0501084305D0101BAB4106D237
:100340000122002306E000224FF0004302E06FF09C
:10035000010253101AEB06004CEB085110EB0A0097
:1003600041EB0B01BDE8F04D00F09BB800F00042FE
:1003700030F000400AD0C10D01F56071C0F31600E5
:1003800042EA0151C208400711437047002001466C
:10039000704701F0004330B421F0004150EA0102FF
:1003A00006D00A0DA2F56072C1F31301002A02DC27
:1003B00030BC00207047440F44EAC104C100E0187B
:1003C00030BC00EBC25000F035B830B50B460146EA
:1003D00000202022012409E021FA02F59D4205D3E4
:1003E00003FA02F5491B04FA02F52844151EA2F18E
:1003F0000102F1DC30BD202A04DB203A00FA02F1D0
:10040000002070479140C2F1200320FA03F3194302
:1004100090407047202A04DB203A21FA02F00021A4
:10042000704721FA02F3D040C2F120029140084304
:10043000194670470029A8BF7047401C490008BFF3
:1004400020F00100704710B4B0FA80FC00FA0CF004
:1004500050EA010404BF10BC704749B1CCF120043C
:1004600021FA04F411FA0CF118BF012121430843C9
:10047000A3EB0C01CB1D4FEA00614FEA102042BFF5
:10048000002010BC704700EBC35010440029A4BFEB
:1004900010BC7047401C490008BF20F0010010BC90
:1004A000704710B5141E73F1000408DA401C41F1C6
:1004B000000192185B411A4301D120F0010010BDE8
:1004C0002DE9F04D92469B4611B1B1FA81F202E05E
:1004D000B0FA80F220329046FFF78DFF04460F46B7
:1004E00040EA0A0041EA0B0153465A46084313D03A
:1004F000114653EA010019D0C8F140025046FFF7F7
:1005000089FF05460E46504659464246FFF773FF9F
:10051000084305D0012004E020463946BDE8F08DAF
:100520000020054346EAE0762C4337430A986305EA
:10053000E40AA0EB08000022FD0A44EA47540A300E
:1005400002D500200146E9E7010510196941DDE9FE
:10055000084500196941BDE8F04DA2E7064C074D7A
:1005600006E0E06840F0010394E807009847103483
:10057000AC42F6D3FFF70CFEA4320008C4320008E8
:1005800010B50146806B026C12F0500F05D0806BE5
:10059000C26CBDE8104008461047016C41F4007180
:1005A000016401688A6812F0405F17D18269AAB9B4
:1005B000CA6A12F4700F02D08A6852050ED44A68D3
:1005C00022F020024A60016C21F480710164016C08
:1005D000C90403D4016C41F00101016400F096FBF1
:1005E00010BD10B5806B40210164416C41F00401E5
:1005F000416400F08DFB10BD10B5806B00F087FBEF
:1006000010BD0000454910B54A6822F440324A60E6
:100610004A6843681A434A6001684A6822F4807253
:100620004A6001684A68036942EA03224A60016835
:100630004A6822F040724A6001684A6883681A4337
:100640004A6001688A6822F400628A6001688A68E8
:10065000C3681A438A60816A6FF07062D142016890
:100660008A6822F070628A6001688A680CD0836AA6
:100670001A438A6001688A6822F040528A600168E1
:100680008A68C36A1A4301E022F040528A60016816
:100690008A6822F002028A6001688A68836942EAF5
:1006A00043028A60016A002901684A680FD042F457
:1006B00000624A6001684A6822F460424A60016848
:1006C0004A68174C436A04EB43331A4301E022F4AF
:1006D00000624A600168CA6A22F47002CA62016854
:1006E000CA6A838B0F4C04EB03531A43CA62016836
:1006F0008A6822F400728A6001688A68036B42EAA1
:1007000043228A6001688A6822F480628A600168F4
:100710008A68406942EA8020886010BD0023014059
:1007200000E0FFFF0000F0FFFEE70000094808B509
:10073000016841F008010160006800F008000090C5
:1007400000F00CF80122BDE808400821024800F042
:10075000F8BE000030380240000C024000B585B001
:100760000820009001200190022003906946024871
:1007700000F00AFE05B000BD000C02402DE9F0417A
:100780000025154E2C4601270821304600F0D4FEE6
:100790000028F9D0282002F09DFC0821304600F006
:1007A000CBFE01280BD0C4F1070007FA00F0854307
:1007B000641CE4B2082CE7D32846BDE8F081082188
:1007C000304600F0B9FE0128F9D0C4F1070007FA5D
:1007D00000F0C0B20543EBE7000C024030B585B035
:1007E0000446FFF7BBFF394D00220821284600F0E0
:1007F000A8FE132000F00CFD01220821284600F07D
:10080000A0FE1E2002F066FC08200090002001904F
:10081000012002906946284600F0B6FD08212846CE
:1008200000F08AFE10B1002005B030BD0821284636
:1008300000F082FE0028F9D00821284600F07CFE56
:100840000128F9D0FFF79AFF2070FFF797FF60703B
:10085000FFF794FFA070FFF791FFE070FFF78EFFA6
:100860002071FFF77BFF01220821284600F069FE76
:100870002378657803EBC30000EB031005EB8000E1
:1008800000EE100ADFED120AB8EE400A80EE201AE0
:1008900084ED021AA178E27801EBC10000EB0110AF
:1008A00002EB800000EE100A58191144B8EE400A1D
:1008B0000844C0B280EE201A84ED031A21798142E7
:1008C00001D10220B0E70120AEE70000000C024099
:1008D0000000C842014800F025BB0000CC00002009
:1008E00001681823CAB2103AB2FBF3F2054B6FF35A
:1008F0000901032A9B5CC36500D9091D816508466F
:10090000704700008432000810B5014600208B6952
:100910008A6A4FF0C07453B1B3F5005F15D072B15D
:10092000012A0CD0022A0AD0032A09D104E01AB104
:10093000012A06D0022A03D1C96AC90100D50120C3
:1009400010BDC96AA142FAD010BD002AF7D0012A11
:10095000F2D0022AF3D0032AF3D010BD30B50468D8
:10096000256825F480252560046863608368402B32
:10097000036803D099600068C26030BD9A60006867
:10098000C16030BD704700000A23122201A1064851
:1009900001F082BB616463207374617274206661CC
:1009A000696C65640A00000068010020002229B11A
:1009B00001291AD002291BD04FF440720E490B684E
:1009C00023F440730B600B6813430B600A6822F03A
:1009D000F8020A600A68022303EBC00002430A60BF
:1009E000086840F48030086070474FF48072E5E793
:1009F0004FF40072E2E70000103C02401348016827
:100A000089050FD5016821F400710160016841F486
:100A100000610160016821F400610160016841F436
:100A200000710160016849050FD5016821F48061FA
:100A30000160016841F480510160016821F4805136
:100A40000160016841F4806101607047003C024030
:100A500008490A6822F440720A600A6842F00402F7
:100A60000A600A684FF4803343EA002002430A60B8
:100A700070470000103C0240064A136823F440739C
:100A8000136013681360136843F00103136001706F
:100A900070470000103C0240084910B50C6824F46F
:100AA00040740C600C6844F440740C600C6844F0B2
:100AB00001040C600260436010BD0000103C024065
:100AC000074A136823F440731360136843F4807378
:100AD0001360136843F00103136001807047000046
:100AE000103C0240074A136823F4407313601368F4
:100AF00043F400731360136843F001031360016053
:100B000070470000103C024017490868C2061748A9
:100B100005D5C26942F01002C26110220A600A685B
:100B2000920605D5C26942F00802C26120220A601D
:100B30000A68520605D5C26942F00402C261402229
:100B40000A600A68120605D5C26942F00202C26153
:100B500080220A600A68920705D5C26942F0200225
:100B6000C2610220086070470C3C0240280200204D
:100B700070B5114904460020C86100F0E7FC064644
:100B80000E4D09E0601C07D024B100F0DFFC801B93
:100B9000A04201D9032070BD2868C003F2D42868A0
:100BA000C00701D001202860286810F0F200F2D0C0
:100BB000FFF7AAFF012070BD280200200C3C024074
:100BC00078B50024009490F83C20012A19D0012225
:100BD00080F83C200A6807230568092A13D9EE68C3
:100BE0000A3A02EB420293409E43EE600B788A6819
:100BF0000A3B03EB43039A400368DD682A43DA604B
:100C000010E0022078BD2E6902EB420293409E4321
:100C10002E610B788A6803EB43039A4003681D69D1
:100C20002A431A614A681F23072A13D205686E6B8C
:100C3000521E02EB820293409E436E630B790A8838
:100C40005B1E92B203EB83039A4003685D6B2A43F9
:100C50005A6327E005680D2A12D22E6BD21F02EBD1
:100C6000820293409E432E630B790A88DB1F92B267
:100C700003EB83039A4003681D6B2A431A6311E058
:100C8000EE6A0D3A02EB820293409E43EE620B79CC
:100C90000A880D3B92B203EB83039A400368DD6A36
:100CA0002A43DA62164B0568144A9D4206D10D6844
:100CB000122D03D1556845F48005556005689D42A5
:100CC00018D10B68102B01D0112B13D1536843F4AA
:100CD00000035360096810290CD10A490A4A0968BF
:100CE000B1FBF2F101EB8101490000E0491E0091E6
:100CF0000029FBD180F83C40002078BD0023014052
:100D0000002001402C00002040420F007047704737
:100D1000704770B504004FF0000503D0206C00262A
:100D200010B107E0012070BD666484F83C60204685
:100D300000F01AF8206CC00610D4206C20F4885003
:100D400040F0020020642046FFF75CFC6664206CE3
:100D500020F0020040F00100206400E0012584F84A
:100D60003C60284670BD000070B586B00646142170
:100D70006846FFF76FFA1D493068884234D11C4835
:100D80000025016841F480710160006800F4807002
:100D9000059017481438016841F0040101600068AB
:100DA000694600F004000590012000900320CDE981
:100DB0000105104800F0E8FA104C0F48C4E900059E
:100DC0000015A560C4E90350400060618000A06187
:100DD0004011C4E907052046656200F073F908B1C7
:100DE000FFF7D2FDB463A66306B070BD00200140DA
:100DF000443802400008024010640240CC00002049
:100E0000F8B50E4600210446009190F83C000128F8
:100E100007D0012084F83C0020688368DB0702D0FB
:100E200011E00220F8BD836843F0010383602D4880
:100E30002D4B0068B0FBF3F000EB400000E0401EDB
:100E400000900028FBD120688368DB0748D0236C22
:100E500040F20165AB4343F480732364406840056E
:100E600005D5206C20F4005040F480502064206CA4
:100E7000C00404D5606C20F00600606400E061648A
:100E800084F83C10A16B1A48184DC863A16B19482F
:100E90000864A16B1848C86421686FF022000860DC
:100EA0002068416841F0806141602068816841F4B8
:100EB000807181602168134632464C31A06B00F08E
:100EC0006BF96868C006206802D00C49884207D1D7
:100ED000816811F0405F03D1816841F080418160F9
:100EE0000020F8BD2C00002040420F0000230140EC
:100EF00081050008F9050008E3050008002001400D
:100F000090F83510022903D08021416501207047F7
:100F1000052180F835100068016821F001010160A9
:100F2000002070472DE9F84304464FF00009CDF842
:100F3000009063484FF41651A56D0068B0FBF1F7BF
:100F40002E6894F85C10082000FA01F131420FD0AD
:100F500021680A6852070BD50A6822F004020A6069
:100F600094F85C108840A860606D40F001006065F6
:100F700094F85C104FF0010808FA01F0304208D0F4
:100F800021684969090604D5A860606D40F0020037
:100F9000606594F85C1004208840304208D02168D5
:100FA0000968890704D5A860606D40F00400606599
:100FB00094F85C1010208840304218D021680968ED
:100FC000090714D5A86020680168490304D50068A2
:100FD000000308D5A16C07E00168C90503D40168C6
:100FE00021F008010160216C09B12046884794F87E
:100FF0005C1020208840304231D021680968C90641
:101000002DD5A86094F8350005282068016806D021
:10101000490347D5006800031DD4616C1CE021F032
:10102000160101602068416921F080014161206C56
:1010300008B9A06C20B12068016821F008010160A6
:1010400094F85C103F208840A86084F8349084F8BD
:101050003580216D1FE0E16B09B120468847606D46
:1010600000282BD0606DC00714D0052084F835000F
:101070002068016821F0010101600098401C009087
:10108000B84203D820680068C007F6D184F83490CD
:1010900084F83580E16C002910D001B02046BDE80D
:1010A000F04308470168C905D5D4016821F0100153
:1010B000016084F8349084F83580CCE7BDE8F8838B
:1010C0002C0000202DE9F041044600F03FFA0646CE
:1010D0005CB1002584F83450022084F83500206883
:1010E000016821F0010101600DE00120BDE8F081FF
:1010F00000F02CFA801B052805D92020606503200C
:1011000084F83500F2E720680068C007F0D1226853
:10111000116820480140D4E901031843D4E903369B
:101120003343184363691843A3691843E3691843B9
:10113000236A18430843616A042903D1D4E90B13D5
:1011400019430843106020684069666A20F007016F
:1011500030460E43012704280CD1A06A0643E06AFA
:1011600040B12046FFF7D0FB20B14020606584F8F5
:101170003570BAE7206846612046FFF7B1FB94F866
:101180005C203F2191408160656584F835700020C6
:10119000ACE700003F8010F02DE9F0410446866D79
:1011A00090F83400002501280DD0012084F8340087
:1011B00094F835700020012F07D084F83400022500
:1011C0002846BDE8F0810220FBE7022784F835704D
:1011D00060652046FFF7C2FB94F85C103F20884012
:1011E000B0602068016841F0160101602068416923
:1011F00041F080014161206C20B12068016841F01C
:10120000080101602068016841F001010160D7E731
:1012100070B5044600F09AF90546601C02D00448F7
:101220000078044400F092F9401BA042FAD370BD4C
:10123000200000202DE9F047044622480F46017E99
:1012400001290AD00121804601764CF250394846E6
:10125000FFF78EFC020003D02FE00220BDE8F087EC
:101260004FF0FF3038602068174D012801D0A66884
:101270001CE0207C6168FFF7EBFB4846FFF778FC39
:101280000246286820F00400286014E0217C3046E3
:10129000FFF78CFB4846FFF76BFC0200286820F044
:1012A000FA00286001D03E6005E0761CD4E9021007
:1012B0000844B042EAD8FFF7A1FB002188F81810D3
:1012C0001046CBE728020020103C0240034801688A
:1012D00041F000410160002070470000103C0240D6
:1012E0002DE9F0471B4E05461446307E1F468946C1
:1012F000012808D0012030764CF250384046FFF7E4
:1013000037FC18B114E00220BDE8F0879DB1012D33
:1013100016D0022D19D022463B464846FFF7BCFBAB
:101320004046FFF725FC0C490A6822F001020A60DA
:1013300000213176E8E7E1B24846FFF79DFBEFE791
:10134000A1B24846FFF7BCFBEAE721464846FFF753
:10135000C9FBE5E728020020103C024007490020B5
:101360000A68002A09DA054A054B0C3A1360054B56
:1013700013600968002900DA01207047103C024020
:1013800023016745AB89EFCD2DE9F84FDFF87CB13C
:1013900000224FF001084FF0030A4FF00F090BF144
:1013A000040E00BF0B6808FA02F42340A3426ED17A
:1013B0004D68022D01D0122D0ED1D50800EB850C01
:1013C000DCF820505607F70E09FA07F6B5430E6908
:1013D000BE402E43CCF82060066855000F790AFA0B
:1013E00005FC07F0030726EA0C06AF403743076009
:1013F0004E68012E05D0022E03D0112E01D0122EE0
:101400000ED18668CF6826EA0C06AF403743876066
:101410004668A6430C79C4F30014944034434460F6
:10142000C6688C6826EA0C06AC403443C4604C683D
:10143000E40065D5364C256845F480452560246870
:1014400022F0030504F480440094324C2E19D6F89F
:10145000084895072F0F09FA07F5AC432E4DA8420F
:1014600001D1002524E02D4DA84201D101251FE026
:101470002B4DA84201D102251AE02A4DA84201D1E4
:10148000032515E0284DA84202D1042510E037E0DD
:10149000264DA84201D105250AE0254DA84201D1DB
:1014A000062505E0234DA84201D1072500E00825C7
:1014B000BD402543C6F80858DBF800405D464E683D
:1014C0009C43F60300D51C432C60DEF800407546B3
:1014D0004E689C43B60300D51C432C600B4D083569
:1014E0002C684E689C43F60200D51C432C60074DC7
:1014F0000C352C684E689C43B60200D51C432C600A
:10150000521C102AFFF44EAFBDE8F88F003C01409A
:101510004438024000300140000002400004024014
:1015200000080240000C024000100240001402407B
:1015300000180240001C02400069084000D0012051
:1015400070470AB1816170470904FBE70148806870
:101550007047000020000020024881680278114492
:1015600081607047200000200B4810B5016841F4ED
:1015700000710160016841F480610160016841F41B
:1015800080710160032000F06DF8002000F006F883
:1015900000F024F8002010BD003C024070B50D4D55
:1015A00004464FF47A712878B1FBF0F00A490968D3
:1015B000B1FBF0F000F0DEFA48B9102C07D200229F
:1015C0002146501E00F02EF800206C6070BD0120F6
:1015D00070BD0000200000202C0000200A4808B543
:1015E000016841F480410160006800F4804000908F
:1015F0000548001F016841F080510160006800F05B
:101600008050009008BD00004438024000F01F02E6
:10161000012191404009800000F1E020C0F8001154
:1016200070470000F0B40E4B1B680C46C3F3022356
:10163000C3F10705042D00D90425191D072901D27E
:10164000002300E0DB1E012606FA05F1491E2140B9
:1016500099409E40761E16403143F0BC00F0F1BF29
:101660000CED00E0064900F0070208684FF6FF03A2
:10167000184040EA0220034A104308607047000007
:101680000CED00E00000FA052DE9F0470E460500DC
:1016900065D0DFF81481D8F80000F7B200F00F0031
:1016A000B04207D288F80070D8F8000000F00F00B0
:1016B000B04254D128683D4C810712D5400703D56C
:1016C000206840F4E05020602878000703D52068A7
:1016D00040F4604020602068A96820F0F0000843D2
:1016E00020602878C0072DD0304968680839012863
:1016F00012D0022813D0032811D0096889070029C5
:101700002DDA216821F0030101432160FFF71EFF5C
:10171000814641F2883A0EE009688903EFE70968DB
:101720008901ECE7FFF712FFA0EB0901514502D94F
:101730000320BDE8F0872068696800F00C00B0EB7A
:10174000810FEFD1D8F80010404601F00F01B142EF
:1017500007D90770006800F00F00B04201D00120E7
:10176000E7E72878400705D52068E96820F4E050CD
:10177000084320602878000706D52068296920F4EE
:10178000604040EAC100206000F036F82168084A55
:10179000C1F30311515CC840064908600020FFF7FF
:1017A000FDFE0020C5E70000003C02400838024072
:1017B0008C3200082C0000200448054900680968A4
:1017C000044AC1F38221515CC84070472C000020BC
:1017D000083802409C32000804480549006809683E
:1017E000044AC1F34231515CC84070472C000020CC
:1017F000083802409C320008154810B5006810F007
:101800000C02144813D04110042A0FD0082A0ED11C
:101810000F4C241F2268236802F03F025B0207D5A9
:101820002068C0F38810A0FB010106E0084610BD47
:101830002168C1F38811A1FB00010023FEF7C0FC61
:101840002168C1F30141491C4900B0FBF1F010BD12
:10185000083802400024F4002DE9F84F050076D046
:101860002878DFF8F8B2BE4CC00749D0DBF800108A
:101870005846C1F38101012908D00068C0F38100F6
:1018800002280AD1201D0068400206D52068800386
:1018900036D568680028E2D032E06868B0F5803F4D
:1018A00010D0B0F5A02F206810D020F48030206038
:1018B000206820F4802020606868A0B1FFF746FE11
:1018C00006460CE0206840F48030F4E740F48020C5
:1018D0002060F7E7FFF73AFE801B642873D8206882
:1018E0008003F7D50CE0FFF731FE064605E000BFA8
:1018F000FFF72CFE801B6428F0D820688003F7D403
:101900002878DFF8608280074FF000093ED5DBF8C9
:101910000010584611F00C0F09D00068C0F3810088
:1019200002280BD18D48001F0068400206D42068B1
:10193000800715D5E868012809D111E0E868B8B139
:101940000120C8F80000FFF701FE064605E002E1AD
:10195000FFF7FCFD801B0228C0D820688007F7D560
:101960002068296920F0F80040EAC10020600DE0FD
:10197000C8F80090FFF7EAFD064604E0FFF7E6FD31
:10198000801B02281FD820688007F7D4287800071A
:1019900022D5724E744869696C3671B101210160BB
:1019A000FFF7D4FD074604E0FFF7D0FDC01B022877
:1019B00009D830688007F7D50EE0C0F80090FFF72F
:1019C000C5FD074605E083E0FFF7C0FDC01B022808
:1019D0007ED830688007F7D42878400768D5DFF8CC
:1019E0007CA100270AF1380ADAF80000C0000BD405
:1019F000DAF8001041F08051CAF80010DAF800005F
:101A0000012700F080500090584E3068C00510D477
:101A1000306840F480703060FFF798FD009005E07A
:101A2000FFF794FD0099401A022851D83068C0058C
:101A3000F6D54A4EA868683601280FD005283068C8
:101A400010D020F001003060306820F004003060D9
:101A5000A868B8B1FFF77AFD00900FE0306840F059
:101A60000100F4E740F004003060F7E7FFF76EFD97
:101A70000099411A41F28830814264D83068800769
:101A8000F4D50EE0FFF762FD009007E0FFF75EFD82
:101A90000099411A41F28830814254D83068800759
:101AA000F4D42FB1DAF8001021F08051CAF80010F8
:101AB000A869C0B3DBF80010C1F3810102294AD044
:101AC0000228484607D0C8F86000FFF73FFD00E055
:101AD00039E005463AE04746C8F86000FFF736FDB2
:101AE000064604E0FFF732FD801B02282BD8206851
:101AF0008001F7D4D5E907010843A96A1C4A4908BF
:101B000002EB01416A6A41EA8211084395F82C1000
:101B100040EA01611148001F016001203866FFF7AB
:101B200015FD054605E014E0FFF710FD401B0228F7
:101B300009D820688001F7D50BE000BFFFF706FD4C
:101B4000401B022802D90320BDE8F88F20688001DD
:101B5000F4D40020F8E70120F6E70000083802403E
:101B60000038024000004742800E474200700040AB
:101B70000000FFFF10B5401EB0F1807F01D30120AF
:101B800010BD4FF0E02460610F21601700F059FD97
:101B90000020A06107202061002010BD30B590F822
:101BA0003820012A20D0012280F83820022380F832
:101BB000393003685C6824F070045C6003685C681A
:101BC0000D682C435C6003689C6824F080049C6072
:101BD00003689C6849680C439C6080F839200021A8
:101BE00080F83810084630BD022030BD10B5040022
:101BF00003D094F8390010B107E0012010BD002097
:101C000084F83800204600F00DF8022084F83900EE
:101C1000211D206800F0DAFD012084F83900002041
:101C200010BD000008B500680649884208D1064882
:101C3000016841F020010160006800F02000009080
:101C400008BD00000014004040380240022180F826
:101C5000391001680A6842F001020A60012180F827
:101C6000391000207047022180F8391001680A6A93
:101C700041F211131A4207D10A6A9B101A4203D18A
:101C80000A6822F001020A60012180F83910002060
:101C90007047704770B5026804461068D168536990
:101CA00010F00F0F50D003F0010501F4907635438A
:101CB0005DD0C20705D0CA0503D5E26B42F0010230
:101CC000E263420705D5DA0703D0E26B42F0020275
:101CD000E263820705D5DA0703D0E26B42F0040223
:101CE000E263020705D5DA0703D0E26B42F008028F
:101CF000E263E26B002A33D0800604D5880602D561
:101D0000204600F0D9FD20684069E16BC0F38010E7
:101D1000090700D428B3204600F0C0FD20684169BF
:101D200049061AD5416921F040014161606BA0B1BB
:101D30001B490165606BFFF7E3F8002810D0606B6A
:101D4000016DBDE870400847830610D58B060ED59F
:101D50002046BDE8704000F0AFBD2046FFF799FF78
:101D600070BD2046FFF795FF0020E06370BD0306BD
:101D700006D50B0604D52046BDE8704000F038BFFC
:101D80004006F3D54806F1D5D168204621F0400140
:101D9000D160202184F8391000F0DBF970BD00001B
:101DA0008D28000870B5040004D094F8390000258F
:101DB00010B106E0012070BD84F83850204600F0D4
:101DC00023F8242084F839002068C16821F40051E8
:101DD000C160204600F0B6FD2068016921F4904101
:101DE00001612068416921F02A0141612068C168D0
:101DF00041F40051C160E563202084F8390084F883
:101E00003A00002070BD0000F0B587B004461421F0
:101E10006846FEF71FFA384A27683849022301242A
:101E200003250726364897421ED1344A14321768D4
:101E300047F010071760126802F0100205920A6856
:101E400042F001020A60096801F00101059169028E
:101E50008DE87A006946FFF797FA0022114625209F
:101E6000FFF7E0FB252021E0244ADFF898C010327C
:101E700067451FD1176847F400371760126802F4EE
:101E8000003205920A6842F001020A60096801F016
:101E9000010105910C218DE87A006946FFF774FA7B
:101EA000002211462620FFF7BDFB2620FFF7AEFBE0
:101EB00007B0F0BD14488742FAD1106840F4802082
:101EC0001060106800F480200590086840F002005F
:101ED00008600868694600F0020005904FF4406011
:101EE0008DE879000948FFF74FFA002211462720B4
:101EF000FFF798FB2720D9E7001001403038024057
:101F0000000002400044004000480040000402403D
:101F100090F83A30202B1DD1D1B1CAB190F83830A9
:101F2000012B17D081628285C2850021C1632222E4
:101F300080F83A2080F8381001684A6942F00102BE
:101F40004A610068C16841F49071C1600020704727
:101F5000012070470220704770B50068334988B08F
:101F6000884260D1324C00254FF47A7620784028A0
:101F700007D9257033460B222EA1314800F08CF88A
:101F80002AE0304962780A54401CC0B220700844EC
:101F900010F8012C0A2A03D110F8020C0D2803D0E6
:101FA000087823281DD01FE027A12648FEF75DF9F9
:101FB00010B127A00FC806E029A12248FEF755F965
:101FC00048B129A20FCA8DE80F0033460F22694697
:101FD0001B4800F061F8257040211A48FEF73AF9D5
:101FE00002E04879232808D008B01149BDE87040C4
:101FF0000122491C2048FFF78BBF002006AA069546
:102000000B185B781354401C0428F9DB042206A942
:102010001A4801F007F9182219A16846FEF701F9DC
:1020200033461522D3E708B070BD000000440040DD
:1020300018000020546F6F204C6F6E67210D0A004E
:102040006801002044000020434F4E4E4543540099
:10205000C0B6D1C0C1ACBDD3B3C9B9A6210A000076
:102060004449534300000000C0B6D1C0B6CFBFAA58
:10207000C1ACBDD3210A0000A801002000800008E7
:10208000C9E8D6C3CEC2CAAAB6C8E3D0D6B5B3C9CA
:10209000B9A6210A000000002DE9F843044690F893
:1020A00039001F4616460D46202850D1A5B19EB1D5
:1020B00094F8380001284AD0012084F838004FF005
:1020C0000008C4F83C80212084F83900FFF73EFA6C
:1020D000A6848146E68426E00120BDE8F883E08CF2
:1020E000401EE084A0684B46B0F5805F4FF00002D0
:1020F0004FF080012046009703D000F0AAFDE8B918
:102100000DE000F0A6FDC8B928882168C0F30800DA
:102110004860206908B16D1C05E0AD1C03E0216832
:1021200015F8010B4860E08C0028D8D14B460022FE
:1021300040212046009700F08CFD08B10320CCE739
:10214000202084F8390084F838800020C5E7022078
:10215000C3E77047FEE700002DE9F041164D01226C
:1021600002212846FFF7EDF9012204212846FFF756
:10217000E8F9052000F0AEFF00247006070E0122EA
:1021800002212846FFF7DDF9052000F0A3FF042116
:102190002846FFF7D1F940EA070600220221284627
:1021A000FFF7CFF9052000F095FF641CE4B2082C7E
:1021B000E3D33046BDE8F0810008024070B5104D11
:1021C000012204212846FFF7BCF9012202212846FA
:1021D000FFF7B7F9052000F07DFF04212846FFF73F
:1021E000ABF901280AD00024002202212846FFF77B
:1021F000A8F9052000F06EFF204670BD0124F3E72A
:102200000008024010B50F4C012801D010B106E0C3
:10221000012200E0002204212046FFF792F901226A
:1022200002212046FFF78DF9052000F053FF002220
:1022300002212046FFF785F9BDE81040052000F097
:1022400049BF00000008024070B51B4D0646012240
:1022500004212846FFF775F9002202212846FFF7DE
:1022600070F9052000F036FF5FF0000406FA04F074
:10227000000601D5012200E0002204212846FFF7D4
:1022800060F9052000F026FF012202212846FFF711
:1022900058F9052000F01EFF002202212846FFF712
:1022A00050F9052000F016FF641CE4B2082CDDD3C1
:1022B000BDE87040FFF782BF0008024010B50E4C29
:1022C000012204212046FFF73CF901220221204689
:1022D000FFF737F9052000F0FDFE0022042120461B
:1022E000FFF72FF9052000F0F5FE20460022BDE89B
:1022F00010400221FFF725B90008024010B50C4C30
:10230000002204212046FFF71CF901220221204669
:10231000FFF717F9052000F0DDFE01220421204619
:10232000FFF70FF9BDE81040052000F0D3BE000014
:102330000008024010B56420FEF76AFFBDE81040B7
:10234000012000F0BEB900007FB5002414480094BD
:10235000019402941149039401604FF40031C0E9E3
:1023600001140125046185610E490462C0E90A1463
:10237000C56105634561C460FEF7CBFC08B1FEF79B
:1023800003FB0A20CDE90005694602940448FEF7E4
:1023900017FC002801D0FEF7F7FA7FBD00200140AE
:1023A000840000200100000F094808B5016841F4CD
:1023B000800101600068002200F480000090114656
:1023C0003820FFF72FF9BDE808403820FFF71EB985
:1023D000303802402DE9F04786B014216846FDF7F9
:1023E00039FF46480024016841F01001016001688E
:1023F00001F010010591016841F0040101600168DC
:1024000001F004010591016841F0200101600168BB
:1024100001F020010591016841F08001016001682F
:1024200001F080010591016841F00101016001683E
:1024300001F001010591016841F0020101600168AC
:1024400001F002010591016841F008010160006896
:102450002B4F00F008004FF4E06605900022314653
:102460003846FFF76EF8DFF89C80002206214046D0
:10247000FFF767F8DFF89090002210214846FFF739
:1024800060F8DFF888A0002210215046FFF759F8C5
:102490001C2001258DE8310069461D48FEF774FFB8
:1024A0004020CDE90004694638460294FEF76CFFEF
:1024B0000096CDE90154694638460394FEF764FF5F
:1024C000062000901120CDE901046946404603949E
:1024D000FEF75AFF10260096CDE90154694648469A
:1024E0000394FEF751FF0096CDE90154694650462A
:1024F0000394FEF749FF06B0BDE8F087303802408C
:102500000014024000080240000C02400004024097
:10251000001002401CB500240D4800940B490194A2
:1025200001605321C0E901140121C160FFF75EFB86
:1025300008B1FEF729FA0094694605480194FFF7AF
:102540002DFB002801D0FEF71FFA1CBD001400402F
:102550002C0100200C4810B50A4901604FF4E1310C
:102560004160002181600C22C160C0E904128161D8
:10257000C161FFF717FC002803D0BDE81040FEF74B
:1025800003BA10BD00100140680100200C4810B5CE
:102590000A4901604FF416514160002181600C220C
:1025A000C160C0E904128161C161FFF7FBFB002833
:1025B00003D0BDE81040FEF7E7B910BD004400406D
:1025C000A80100200C4810B50A4901604FF4E13120
:1025D0004160002181600C22C160C0E90412816168
:1025E000C161FFF7DFFB002803D0BDE81040FEF714
:1025F000CBB910BD00480040E8010020FEE7000014
:1026000070B5FFF75BFE4720FFF71EFE00240B4D61
:10261000FFF7A2FD2855032C0DD00020FFF7F2FD97
:10262000641CE4B2032CF3D3FFF768FEBDE87040EE
:10263000052000F04FBD0120F0E700001000002051
:1026400070470907090E002806DA00F00F0000F1B4
:10265000E02080F8141D704700F1E02080F800149D
:1026600070477047FEB50020134D0090019004465E
:102670006E460290284600F0D3FD3055641C2D1D97
:10268000042CF7DB9DF800009DF80110303800EBBA
:1026900080026FF02F0000EB42020A4407494A8093
:1026A0009DF802209DF80330303A02EB820200EBE5
:1026B000420018448880FEBD0080000818000020F9
:1026C000704710B50446FFF7F9FD4620FFF7BCFD43
:1026D0002046FFF7B9FDBDE81040FFF70FBEFEF73B
:1026E0003BBF000030B593B030216846FDF7B2FD26
:1026F00014210CA8FDF7AEFD1D480025016841F02E
:1027000080510160006800F0805011901948016804
:1027100041F4804101600068022400F4804011907F
:1027200001200090000401908001CDE9064008AA34
:102730000420A82182E813000B906846FFF78CF86C
:1027400008B1FEF721F90CA90F2081E831004FF400
:10275000A0500F904FF48050109005210CA8FEF768
:1027600093FF002801D0FEF70FF913B030BD000031
:1027700040380240007000401048016841F4700188
:1027800001600F48016841F0010101600C4A00211D
:102790000832116002680B4B1A400260031D0A4A9E
:1027A0001A60026822F48022026005480C30016041
:1027B00002495806803908607047000088ED00E043
:1027C00000380240FFFFF6FE10300024F0B502682A
:1027D000234B244D244E254F254C4FF0804C9842DE
:1027E00009D0604507D0A84205D0B04203D0B84216
:1027F00001D0A04204D122F0700E4A6842EA0E02D3
:1028000098421BD0604519D0A84217D0B04215D0CD
:10281000B84213D0A04211D0164DA8420ED0164D8A
:10282000A8420BD0154DA84208D0154DA84205D09E
:10283000144DA84202D0144DA84203D122F4407591
:10284000CA682A4302608A68C2620A688262984241
:1028500001D0A04201D10969016301214161F0BDAC
:10286000000001400004004000080040000C00404F
:102870000004014000400140004401400048014084
:1028800000180040001C00400020004010B5806B84
:102890000021C185C184FFF7FCF910BD0168CA6839
:1028A00022F49072CA6001684A6922F001024A610A
:1028B000202180F83A10704710B590F83A1022297C
:1028C00001D0022010BD8168B1F5805F11D001698F
:1028D000002901681FD0496801F07F03816A4A1C02
:1028E00082620B70C18D491E0904090CC18518D084
:1028F00026E00269816A002A0268526805D0D2B2D5
:102900000A80816A491C8162ECE7C2F308020A80EE
:10291000816A891CF7E74A68816A4B1C83620A70E6
:10292000E0E70168CA6822F49072CA6001684A69E7
:1029300022F001024A61202180F83A10FFF70CFBD7
:10294000002010BD2DE9F04104460068016921F422
:102950004052E168114301612168C86849F20C6284
:1029600090432369A268E5691A4363692B431A43BC
:102970000243CA602168486920F44072A06910438C
:102980004861E1696425B1F5004F9748974A21688D
:102990004FF032083FD0914201D081427CD1FEF706
:1029A0001BFF00EBC00101EB001061688900B0FB68
:1029B000F1F6FEF711FF00EBC00101EB00106168BA
:1029C0008900B0FBF1F0B0FBF5F06FF0180148435F
:1029D00006EB800108EB0110B0FBF5F000F0F0060B
:1029E000FEF7FAFE00EBC00101EB00106168890000
:1029F000B0FBF1F0B0FBF5F006EB0016FEF7ECFED5
:102A000000EBC00101EB001061688900B0FBF1F739
:102A1000FEF7E2FED2E0914201D081423DD1FEF7C5
:102A2000DBFE00EBC00101EB001061684900B0FB68
:102A3000F1F0B0FBF5F00601FEF7CEFE00EBC001B1
:102A400001EB001061684900B0FBF1F7FEF7C4FE2E
:102A500000EBC00101EB001061684900B0FBF1F030
:102A6000B0FBF5F06FF01801484307EB800108EB6D
:102A7000C100B0FBF5F000F0F80006EB4006FEF7F1
:102A8000ABFE00EBC00101EB001061684900B0FB38
:102A9000F1F7FEF7A1FE3CE055E0FEF78DFE00EBFE
:102AA000C00101EB001061684900B0FBF1F0B0FB20
:102AB000F5F00601FEF780FE00EBC00101EB00100F
:102AC00061684900B0FBF1F7FEF776FE00EBC0014C
:102AD00001EB001061684900B0FBF1F0B0FBF5F0CC
:102AE0006FF01801484307EB800108EBC100B0FB11
:102AF000F5F000F0F80006EB4006FEF75DFE00EB97
:102B0000C00101EB001061684900B0FBF1F7FEF76E
:102B100053FE00EBC00101EB001061684900B0FBFF
:102B2000F1F0B0FBF5F06FF01801484307EB8001BE
:102B300008EBC100B0FBF5F000F00700216830445D
:102B40008860BDE8F081FEF737FE00EBC00101EBC5
:102B5000001061688900B0FBF1F6FEF72DFE00EB76
:102B6000C00101EB001061688900B0FBF1F0B0FB1F
:102B7000F5F06FF01801484306EB800108EB0110F7
:102B8000B0FBF5F000F0F006FEF716FE00EBC0011A
:102B900001EB001061688900B0FBF1F0B0FBF5F0CB
:102BA00006EB0016FEF708FE00EBC00101EB00107B
:102BB00061688900B0FBF1F7FEF7FEFD00EBC00194
:102BC00001EB001061688900B0FBF1F0B0FBF5F09B
:102BD0006FF01801484307EB800108EB0110B0FBD0
:102BE000F5F000F00F00A9E70014014000100140CB
:102BF00090F83910212901D0022070478168B1F581
:102C0000805F016A0BD04A1C026202680978516039
:102C1000C18C491E0904090CC1840ED017E0098833
:102C20000268C1F30801516001690029016A02D0FC
:102C3000491C0162ECE7891CFBE70168CA6822F0C5
:102C40008002CA600068C16841F04001C160002094
:102C500070472DE9F041984617460E460446069DFA
:102C60001DE0681C1BD02DB1FEF770FCA0EB080026
:102C7000A84214D92068C16821F4D071C1602068CD
:102C8000416921F001014161202084F8390084F874
:102C90003A00002084F838000320BDE8F081206865
:102CA000006836EA000004D00020B842D9D00020E5
:102CB000F3E70120F9E700000148FEF7EBBF000051
:102CC000680100200148FEF7E5BF0000A8010020D0
:102CD0000148FEF7DFBF0000E8010020FEE700002A
:102CE00010B50120FFF7EDFC1020FFF7EAFCB4203F
:102CF00000F0F0F9FFF784FC0E48A0F10804017819
:102D0000407800EB012000EE100A2060B8EEC00A07
:102D100010EE100AFDF72AFB9FED071B53EC112B59
:102D2000FDF7B5FAFDF735FB00EE100A84ED010A58
:102D300010BD000010000020333333333333F33F32
:102D40000FB4084B10B504A902AA039800F01CF8B0
:102D5000044602A9002000F0B8F9204610BC5DF836
:102D600014FB0000CB30000802E008C8121F08C1A5
:102D7000002AFAD170477047002001E001C1121FFC
:102D8000002AFBD1704700002DE9FF4F8BB0884629
:102D90000546002606E025280BD0DDE90D129047F8
:102DA0006D1C761C28780028F5D10FB03046BDE8A0
:102DB000F08F0024A146A2460122AE4900E0044360
:102DC00015F8013F203B02FA03F00842F7D12878BA
:102DD0002A2810D06FF02F022878A0F1300109299D
:102DE00015D809EB890102EB410144F0020400EB24
:102DF00001096D1CF0E758F8041B5FEA010903D5CF
:102E000044F40054C9F1000944F002046D1C287810
:102E10002E2817D115F8010F44F004042A280ED0EB
:102E20006FF02F022878A0F1300109290AD80AEBA7
:102E30008A0102EB410100EB010A6D1CF2E758F830
:102E400004AB6D1C28786C280FD006DC4C2817D0FA
:102E500068280DD06A2814D104E0742810D07A288C
:102E60000FD10DE044F400140AE044F4801401E0B2
:102E700044F440146978814202D104F580146D1C39
:102E80006D1C2878692865D006DC00288DD0632861
:102E900027D0642806D15DE06E2808D073282AD098
:102EA000752877D0DDE90D129047761CE0E0C4F379
:102EB0000250022809D003280DD0D8F800100428A9
:102EC0000DD00E6008F10408D2E0D8F80010F21717
:102ED000C1E90062F6E7D8F800100E80F2E70E7044
:102EE000F0E718F8041B8DF8001000208DF80100A1
:102EF000EB46012003E058F804BB4FF0FF306107B8
:102F00004FF0000701D40AE07F1C57450DDA8742D5
:102F1000FADB1BF807100029F6D106E07F1C874278
:102F2000FCDB1BF807100029F8D1DDE90D23A9EB24
:102F300007008146214600F0B1F83044C61904E08C
:102F4000DDE90D121BF8010B90477F1EF8D22146D8
:102F5000484688E058F8040BC4F302514FF00A0BBE
:102F6000032900D100B2042900D140B2002802DABE
:102F700040422D2102E0210505D52B218DF824109A
:102F8000012104E006E0E10710D02021F6E708AFB8
:102F9000089113E058F8040BC4F302514FF00A0BE8
:102FA000032900D180B2042900D1C0B20021EEE78C
:102FB0005946FDF70AFA303107F8011D0028F7D10C
:102FC000ADEB070000F1200B600702D524F480343C
:102FD00001E04FF0010ADA4502DDAAEB0B0000E048
:102FE0000020824600EB0B0108980144A9EB010088
:102FF0000A90E00306D4DDE90D2321460A9800F08B
:103000004DF806444FF0000908E009A911F809003D
:10301000DDE90D12904709F10109761C08998945EF
:10302000F3DBE0030CD5DDE90D2321460A9800F01F
:1030300035F8064404E0DDE90D1230209047761C97
:10304000BAF10001AAF1010AF5DC05E0DDE90D1293
:1030500017F8010B9047761CBBF10001ABF1010B97
:10306000F4DC0A982146DDE90D2300F005F806445A
:103070006D1C97E6092801002DE9F0410446002562
:103080001E461746880404D405E039462020B04780
:103090006D1C641EF9D52846BDE8F0812DE9F0418C
:1030A000044600251E469046C80301D5302700E09F
:1030B0002027880404D505E041463846B0476D1CFA
:1030C000641EF9D52846BDE8F0810A68531C0B60E0
:1030D0001070704770B54FF6FA75281A84B2084818
:1030E000FEF7B4FD064801684C62006801E0416AE1
:1030F0008CB2AC42FBD3BDE870400148FEF7B3BDD3
:103100002C01002094B0FEF72FFAFFF7EBFAFFF73F
:1031100061F9FFF749F9FFF71DFAFFF7FBF9FFF730
:1031200013F9FFF74FFAFFF731FAFDF7FFFAFFF750
:1031300099FAFFF7FFF82D4C012251022046FEF7C5
:1031400000FA012291022046FEF7FBF90C220DA99C
:103150002748FDF755FE08B1FDF716FC0122254969
:103160002548FEF7D5FE234D244E6D1E4FF4FA7709
:103170004FF47A78142108A8FDF76CF804A8FDF73D
:103180002DFB022803D01EA108A8FFF7D9FDFFF7E9
:1031900069FAFFF7A5FDBDEEC00ADDED070A1AA129
:1031A00010EE104A9DED060AFDEEE00A08A8BDEEFD
:1031B000C00ACDED000A8DED010A0294AB886A8841
:1031C000FFF7BEFD0A23112208A91448FEF764FF89
:1031D000BC4201DA012200E0002210213046FEF755
:1031E000B0F94046FEF714F8C4E7000000140240AE
:1031F0008400002019000020A8010020000C0240DB
:10320000303030300A000000253264253264253227
:10321000642532642534640A00000000680100203F
:1032200000687047F8B516460F46FEF797F8114844
:1032300002210022016181600260C1606946009242
:10324000FDF7F8FF0D4C0C48002520600C4860602D
:103250000AE07A5D002302202168FEF741F810B9E8
:103260002068001D20606D1CB542F2DBFEF72EF8D1
:10327000F8BD0000300000200080000800000020A1
:1032800000C000080006101600061016000000001E
:103290000000000001020304060708090000000006
:1032A00001020304C43200080000002030000000C6
:1032B000682D0008F4320008300000201842000099
:1032C000782D000800000000000000000000000051
:1032D00000000000000000000000000000000000EE
:1032E00000000000010000001000000000000000CD
:0432F0000024F400C2
:040000050800018965
:00000001FF
