:0300000002045E99
:0C045E00787FE4F6D8FD7581200201C50E
:10028F00AB07AA067C277D10120162EF2430F50D13
:10029F007C277D10AF03AE02120162AA04AB057C6E
:1002AF00037DE8AF03AE02120162EF2430F5087C44
:1002BF00037DE8AF03AE02120162AA04AB057C0016
:1002CF007D64AF03AE02120162EF2430F5097C00AA
:1002DF007D64AF03AE02120162AA04AB057C007D00
:1002EF000AAF03AE02120162EF2430F50C7C007DE1
:0E02FF000AAF03AE02120162ED2430F50E22AA
:10033600E4FDFCC3ED9FEC9E5015E4FBFA0BBB00FD
:0F034600010AEB64794A70F50DBD00010C80E4EB
:010355002285
:1003DC007580FFC2A0D2A100D2A20000E58020E768
:0403EC00FBC2A2228C
:1003C700ED60031203DCC2A0C2A1008F8000D2A29D
:0503D7000000C2A2229B
:1003F0001203DCD2A0C2A1008F8000D2A20000C2F2
:02040000A22236
:100393007D017F381203C77F081203C77F01120351
:0B03A300C77F061203C77F0C0203C7D0
:10035600AE07AC0353050153060FED600343064099
:0F036600430680AF06E4FD1203C7AF040203F0A5
:1004140000000000000000000000000000000000D8
:0104240022B5
:0E0425007F307E02EF1FAC0670011E4C70F699
:0104330022A6
:0F043400D291D290120414C291120414C29022D9
:0C046A00C291D290120414D2910204142A
:0E044300A2009291D290120414C290020414EE
:0D045100D290120414A291C2901204142241
:1003AE00E4FEEF25E0FF9291D290120414C2901257
:0903BE0004140EBE08EC02045107
:10037500E4FFD291FEEF25E0FFD290120414A29182
:0D038500E4334207C2901204140EBE08E8D3
:010392002248
:10040200AD071204347F461203AEAF051203AE02EB
:02041200046A7A
:10030D001204347F471203AEE4FD120375740F2DF2
:10031D00F8A607BD0304D2008002C2001204430DEB
:09032D00BD03E712046A02042575
:050476007F01020402F9
:1001C5007FC87E001203361203931204767F011254
:1001D50004027F101204027FB47E0012033612035C
:1001E5000D750A00850F0BE50BFE7C00E42510F567
:1001F5000BEC3EF50AFCAD0B1200A87B9A7A9979B7
:1002050099783F1200068F1A8E198D188C171200D7
:10021500E112028F7B4CE4FDFF1203567B69E4FD7E
:100225007F011203567B67E4FD7F021203560BE440
:10023500FD7F031203567B74E4FD7F041203567B96
:100245003AE4FD7F05120356AB0DE4FD7F0712036B
:1002550056AB08E4FD7F08120356AB09E4FD7F09A0
:10026500120356AB0CE4FD7F0A120356AB0EE4FDF8
:100275007F0B1203567B6CE4FD7F0D1203567B78D2
:0A028500E4FD7F0E1203560201D2C1
:10000300020157EC5D046005E85904700302014DD9
:10001300120118580460F6EC4860F2EC7004FDFE1F
:10002300FF22C860DB2481C85009C39860025006D0
:100033000201549850CAF582E9294B4A7005AB82F4
:1000430002014375F0007C1A7880C3EF9BEE9AEDB2
:1000530099400DC3EF9BFFEE9AFEED99FDE842F048
:10006300DC23ACF0D0E0FFD0E0FED0E0FDAB82209B
:10007300E7101BEB60BAEC2CFCEF33FFEE33FEED25
:1000830033FD02012FE803F830E705C0F075F000F7
:10009300EF2FFFEE33FEED33FD40B830E7C280AA09
:1000A30075F020800E75F010800575F0087D007ED8
:1000B300007F003392D530D5031201B7EC334010E3
:1000C300EF33FFEE33FEED33FDEC33FCD5F0ED22E1
:0E00D300E5F0247EA2D513CC92E7CDCEFF221D
:1000E100EDD2E7CD33EC3392D524814006E4FFFE17
:1000F100FDFC22FCE4CFCECDCC24E0501174FF8076
:10010100EDC3CC13CCCD13CDCE13CECF13CF047012
:07011100F030D5DE0201B75A
:10011800E9D2E7C933E833F892D5EDD2E7CD33EC2D
:0701280033FC5002B2D522A6
:10012F00EC30E7100FBF000C0EBE00080DBD000431
:10013F000BEB6014A2D5EB13FCED92E7FD2274FFDD
:10014F00FCFDFEFF22E480F8A2D574FF13FC7D8036
:03015F00E480EF4A
:10016200BC000BBE0029EF8DF084FFADF022E4CC81
:10017200F875F008EF2FFFEE33FEEC33FCEE9DEC4A
:10018200984005FCEE9DFE0FD5F0E9E4CEFD22ED90
:10019200F8F5F0EE8420D21CFEADF075F008EF2FDA
:1001A200FFED33FD4007985006D5F0F222C398FDCB
:0501B2000FD5F0EA2268
:0E01B700C3E49FFFE49EFEE49DFDE49CFC2259
:00000001FF
