:020000040000FA
:060000000212AB0207BA78
:03002B000210BF01
:03003300020E3F7B
:03004300020F5B4E
:030053000206EBB7
:03006B00020E255D
:1000830002074F0101FF0503013D183D183D183DCF
:1000930018F916F3163D185A2C00000000BC2C006A
:1000A3000000000C0000000C0001040000291A00ED
:1000B3000000000000E91A0000000000000000003A
:1000C30000FFFF010101002C050000007D05E8038E
:1000D30064006400B801020200080000050207057D
:1000E3001E02051E0A03B80B020102F1FF021F00E4
:1000F300E0079651180002020612303132333435CC
:100103003637383941424344454600286E756C6C96
:1001130020706F696E74657229003F3F3F000000D5
:10012300807F0000803FF9021550B743BA510000A9
:10013300204100E7DB2E0000A04010000000080073
:1001430000000A0000001212F760461212CA603D56
:10015300E9687008F618F618F618F622748067F73F
:1001630012017D090909748067F7221212CA601D02
:100173001212F77005191919801A121131701F1212
:10018300115BC37003E66733191919400718181870
:100193002208080874FFF618F618F618F62212114A
:1001A3005B6017121336702192F0121340701950CE
:1001B3001720F014080808090909E7F61819E7F6E3
:1001C3001819E7F61819E7F62212134060E6E869F2
:1001D300701F0808E62480F608E436F618547FB446
:1001E3007F0CE654806007F6E418F618F622181818
:1001F30022E9C6CC08C6CD08C6CE08C6CFC0E0E803
:10020300C0E0EAC0E0EBC0E009E9F809E7FA09E772
:10021300FBE6F918E6F8C3EC98ED99EE9AEBC2E722
:10022300F5F0EFC2E795F0500E600CEBCFFBEACE92
:10023300FAE9CDF9E8CCF8EAA2E7D2E7FAEB33FB27
:1002430013F5F0EEA2E7D2E7FEEF33FFC5F013A2FA
:10025300E730E601B313C5F0C3C0E0C0F07F00C3CD
:100263009BFB605B9418600C401AD0E023F9D0E04C
:10027300F802034C8AF0E9486003D2F0E4AFF0FAE5
:10028300F9F8803BEB30E40D89F0EA6003D2F0E447
:10029300AFF0F9CAF8EB30E30D88F0EF6002D2F06B
:1002A300AFF0E4CAC9F8EB54076014FBC3EA13FACE
:1002B300E913F9E813F8EF135002D2E0FFDBEDD0B6
:1002C300E0C0E030E739C3E49FFFF5F0EC98FC426F
:1002D300F0ED99FD42F0EE9AFE42F0D0E0F9D0E065
:1002E300F8E5F0607AE923F9EE20E742D802806767
:1002F300C3EF33FFEC33FCED33FDEE33FE80EAEC6A
:1003030028FCED39FDEE3AFED0E023F9D0E0F840C9
:1003130002801BC3EE13FEED13FDEC13FCEF135031
:1003230002D2E0FF08B800067F7F74FF802EEF3310
:1003330050178CF020F00260100CBC000C0DBD00B7
:10034300080EBE000408E860DFE933E813FFEE237C
:1003530013FE4F4D4C8008E95480FFE4FEFDFCEE94
:1003630033EF33F47004FCFD7E80D0E0FBD0E0FA81
:10037300D0E0F8D0E0CFC618CEC618CDC618CCC68C
:10038300F9221212CA7004181818221212F7700DEB
:1003930074FFF61819F61819F61819F622E754809F
:1003A30066F6121340700F12133670F014F608F647
:1003B30008F608F680D1121336700CF608F60876A4
:1003C3008008E6447F80EC12115E700C12113460D9
:1003D300BFE65480F6E480BB121134700519191975
:1003E30080A5E869700C763F18768018F618F6E851
:1003F300F922E6CDC0E018ECC0E0E633CD33CDD32F
:1004030013F6E719FCE7191933CC33C3947F400E75
:10041300CD9D502408E65480F6E418F6800FF404CA
:100423003D14501408E6447FF6187680E418F61855
:10043300F6D0E0FCD0E0FD22CCD313CCFD18E4C60B
:10044300CBC0E018E4C6CAC0E00808ED08C633E62E
:1004530013F618E433C675F003C3CA97CA09CB97DA
:10046300CB199C40047D08802EBD000302052E1687
:10047300B6FF050606081618C3CA33CACB33CB33F7
:10048300CA27CA09CB37CB193CC37D08803E187DE8
:100493000820E75CC633C6CA33CACB33CB33DDF19E
:1004A300D5F0EB30E77BCA97CA09CB974ACB199CA7
:1004B300406F4B7025E620E0218066187D08C3CA93
:1004C30097CA09CB97CB199CD3C633C6CA33CACBB9
:1004D30033CB3350C9DDE7D5F0E1D3E4C636C608E4
:1004E300C636C608C636C608C636C61818188031BA
:1004F300C3CA97CA09CB97CB199CB34097C633C6D7
:10050300CA33CACB33CB33DD34D5F02EC6A2E0C613
:1005130040C8CA27CA09CB37194A70BECB3CB4803E
:10052300B90808E63308E633601F181818D0E0FA54
:10053300D0E0FBD0E0FCD0E0FD22187D08CA27CA3A
:1005430009CB37CB193CD3808013F618E4B67F115F
:10055300F618B6FF0EF618C60470D2080876808027
:10056300CAF618F618F680C5001212CA604F1212A6
:10057300F76012E7548066F61211317011121336C8
:10058300703B090909F4F618F618F618F622121149
:100593005B701512134008080860EAE6447FF618FA
:1005A300768018E4F618F6221213406016121336FA
:1005B3007012E4F608F608F608E65480F60909090D
:1005C30018181822EAC0E0EBC0E0ECC0E0EDC0E090
:1005D300E687F0A4FBACF008E687F0A42CFCE43536
:1005E300F0FA1809E687F0A42C4B60027401CA35AF
:1005F300F0FCE433FB09E687F0D2F7A42CCB35F00B
:10060300FC1908E687F0A42BCC35F0FBE433FD0896
:1006130019E687F0D2E7A42C4ACB35F0CD3400FCA1
:1006230009E687F0D2E7A42DCC35F0FDE433FA09CF
:1006330018E687F0D2F7A42CCD35F0CA3400FC08B5
:10064300E687F0D2E7D2F7A42ACC35F07A7E20E70A
:100653000B0ACB33CBCD33CDCC33CC33CB3350148C
:100663007004ED30E00ED2F1E4CD3DCDCC3CCC3B7B
:100673005005DA05C2F1EB547FC63308E63392F036
:10068300FBE73309E733C39A502D2B70190C0D4C3C
:100693004D70151806E608C333700D20F10AA2F059
:1006A30013F6E418800B4024E4F630F00276801849
:1006B300F618F618F68024D33B14501074FFA2F0FA
:1006C30013F6187680E418F618F6800FA2F013F6E6
:1006D30018E63303F618ECF618EDF6D0E0FDD0E09B
:1006E300FCD0E0FBD0E0FA22C0E074F2120ADAA2F6
:1006F300AFE433FED2AFE5A7FFE5A1F5085F5410E1
:10070300600612219D75A1EFE5085F540860081289
:1007130021A375A1F7802BEFA2E0C0D0E508A2E0EA
:1007230092F01211E6158182F05017906198E0F86B
:10073300900856E0C398A2D265D0335002E8F07512
:10074300A1FEEEA2E092AF7F01020B39C0E074F28A
:10075300120ADAA2AFE433FED2AF9061A4E0F875D7
:100763009B00E59158540860087591F71221EB80BE
:100773002AE59158541060087591EF1221F1801BFE
:10078300E8A2E0C0D0E591A2E092F01211E6158153
:1007930082F05007E0C2E0F01223359061A3E0F845
:1007A300E5E9585404600E12230B75E9FB9061933D
:1007B300E0A2E640F2808BC0E074F2120ADAA2AF44
:1007C300E433FED2AF9061A5E0F8E5BF585404606E
:1007D3000675BFFB12234D020745C3E498F8E4995D
:1007E300F912081E8026C3E49AFAE49BFBE920E78A
:1007F300E912081EE498F8E499F922C3E498F8E4AE
:1008030099F912081EE498F8E499F9C3E49AFAE412
:100813009BFB22EB20E7CFE920E7E0B90010BB0008
:1008230008E88AF084F8AAF022E4FBC8FA22EB7005
:10083300227B10C833C8C933C9335007C39AC3DBFB
:10084300F280069A50012ADBEAC833F4C8C933F4AC
:10085300C9FA2275F008E4C833C8C933C933C99A41
:10086300C99B5004C92AC93BD5F0ECFBC833F4C873
:10087300E4C9FA221208B720F01430E72B74FFFC06
:10088300FBFA747F8022E4FCFBFA7480801AB48044
:1008930008BC00F2BB00EF800F50EBF9E4C39AFAF7
:1008A300E49BFBE49CFCE499C6CC18C6CB18C6CAEF
:1008B30018C6F922E4C9C608CAC608CBC6D333038F
:1008C30008CCC63392F0C3947F402E94184019C9C4
:1008D300B90704CACBCC225025C309CA33CACB33C8
:1008E300CBCC33CC33D9F422F4600DC9CCC313CBB6
:1008F30013CBCA13CAD9F6CC22E4FCFBFA2214FCAC
:10090300FBFA22080808EAC0E0EBC0E086F0E7A49F
:10091300FA180986F0E7A42AFA180986F0E7A42A48
:10092300FA180986F0E7A42AFA1986F0E7A4FBE58A
:10093300F02AFA190886F0E7A42BFBE5F03AFA1936
:100943000886F0E7A42BFBE5F03AFA18180986F0BD
:10095300E7A4C5F02BFBE43AFA1908E7C5F0C6A4EF
:1009630026F6E5F03BFBE43AFA1886F0E7A4F6E551
:10097300F00826F6E43B08F6E43A08F6D0E0FBD0AC
:10098300E0FA22080808E630E71112119912099ECD
:10099300080808C64480C618181822181818E979D8
:1009A3009EC608CAC608CBC608CCC6C370207996B3
:1009B300CACBCC7019798ECBCC70137986CC700EE0
:1009C300F9802ACA33CACB33CBCC33CC331930E7C3
:1009D300F2CCCBCA3350147004EA30E00DE4CA3AC7
:1009E300CACB3BCBCC3CCC500209C3E913C6CC18D1
:1009F3002313C6CB18C6CA18C6F922E4CFC0E0E455
:100A0300CEC0E0E4CDC0E0E4CCC0E075F020C3E6A6
:100A130033F608E633F608E633F608E633F6181835
:100A230018EC33FCED33FDEE33FEEF33FFC3EC97ED
:100A330009ED9709EE9709EF97191919400FFFEC84
:100A430097FC09ED97FD09EE97FE191906D5F0BE3F
:100A5300ECF709EDF709EEF709EFF7191919D0E0EB
:100A6300FCD0E0FDD0E0FED0E0FF222518C582C017
:100A7300E0E51934FFC583C0E0E518C3958224F887
:100A830010AF0885831985821880088583198582AC
:100A930018D2AFCEF0A3E520F0A37808E608F0A3C0
:100AA300DEFAEFF0A3E58124FAF8E608F0A3E608FE
:100AB300F0A3E608F0A30808E608F0A3E608F0A30D
:100AC30015811581D0E0FED0E0F8158115811581DF
:100AD300E8C0E0EEC0E022C0D02518C582C0E0E542
:100AE3001934FFC583C0E0E518C3958224F310AF22
:100AF300088583198582188008858319858218D211
:100B0300AFC8F0A3E9F0A3EAF0A3EBF0A37908E7F9
:100B130009F0A3D8FAECF0A3EDF0A3EEF0A3EFF005
:100B2300A3D0E0F0A3D0E0F0A3D0E0F0A3E520F061
:100B3300A3E5F0F0A322851983851882E0C0E0A322
:100B4300E0F9A3E0FAA3E0FBA37808E0F608A3DF4B
:100B5300FAE0FCA3E0FDA3E0FEA3E0FFA3E0C0E016
:100B6300A3E0C0E0A3E0F5D0A3E0F520A3E0A3F564
:100B7300F010AF088583198582188008858319854D
:100B83008218D2AFD082D083D0E0F8D0E0321213F3
:100B93002BB90003020BD3E490030178AD790A80EB
:100BA30002F0A3D8FCD9FA900CADAA82AB839000D3
:100BB3008678C479018015E493A3AC82AD838A82DD
:100BC3008B83F0A3AA82AB838C828D83D8E9D9E788
:100BD3007582E57583B9740312101E758259758386
:100BE30026740012101EE8030875F0108E1A8F1B6E
:100BF30085821F85831E851882851983E0CEA3E035
:100C0300CF851F82851E83EBC9EAC8EDCBECCAC32F
:100C1300E833C8E933C9EA33CAEB33CBC3EA9EF5F9
:100C23001DEB9FF51CB35004AB1CAA1DEC33CCED9C
:100C330033CDD5F0DAAE1AAF1B221212CA601C12E2
:100C430012F7601712134070071213367001D32284
:100C5300C0D01213367006D0D0B322C32233D0D003
:100C6300501430E0F6C3E7960809E7960809E796BB
:100C73000809E796B32220E0D5E6970809E6970826
:100C830009E6970809E697B322D083D082ECC0E047
:100C9300EDC0E0E493A3FCE493A3FDED4C600D12DF
:100CA3000DB0EC24FFFCED34FFFD80EFE493A3FCD7
:100CB300E493A3FDED4C600D120EE0EC24FFFCED7C
:100CC30034FFFD80EFD0E0FDD0E0FCE493A3C0E06F
:100CD300E493C0E0221212CA601B1212F7601612CC
:100CE30013407007121336600CB322C0D0121336B0
:100CF3007005D0D022C32233D0D0501330E0EBC3E1
:100D0300E7960809E7960809E7960809E796222077
:100D1300E0E4E6970809E6970809E6970809E697E5
:100D230022851983851882E0A3FEE0A3F5207808C5
:100D3300E0A3F608DFFAE0A3FFE0A3C0E0E0A3C06E
:100D4300E0E0A3C0E0E0A3C0E0E0A3C0E010AF0890
:100D53008582188583198008858218858319D2AF07
:100D6300D083D082021024D083D082E9C0E0E49300
:100D7300A3C386F0C5F095F0F908E493A386F0C504
:100D8300F095F0700BE493A3C3994005E904800246
:100D9300A3E475F002A42582F582E5F03583F5839B
:100DA300D0E0F9E493A3C0E0E493C0E022C0E0C341
:100DB300E49396087401939618400FE493667008C1
:100DC30008740193661870007019A3A3C3E4939683
:100DD300087401939618A3A3400DD0E0D0E0D0E0AF
:100DE300020CC8A3A3A3A3A3A3D0E022D083D082E1
:100DF300C5F0E493A3C5F0C395F0F5F0E493A3C362
:100E030095F04005E5F0048001E475F002A4258225
:100E1300F582E5F03583F583E493A3C0E0E493C062
:100E2300E022C0E074F2120ADAE589A2E15003126B
:100E33002059758900C2C57F01020B39C0E074F2E5
:100E4300120ADAE58BA2E05003122059758B00C217
:100E5300E880E47404800474028000CCC0E0EDC038
:100E6300E0E518C39CCCAD1950011D10AF068C18DA
:100E73008D1980068C188D19D2AF120FA0D0E0FD0A
:100E8300D0E0FC2274028000CCC0E0EDC0E0E518A5
:100E9300C39CCCAD1950011D10AF068C188D198061
:100EA300068C188D19D2AF120F7ED0E0FDD0E0FC76
:100EB300221212CA60251212F76020121340700327
:100EC300021336080808E76670101819E766700AF7
:100ED3001819E76670041819E76622F422C0E0C007
:100EE300F088F0E493667008087401936618700044
:100EF300A8F0A3A3700BD0F0D0E0D0E0D0E0020CB8
:100F0300C8A3A3D0F0D0E022D083D082CCC0E0E449
:100F130093A36006120FC11470FAE493A360061240
:100F230010F01470FAD0E0FCE493A3C0E0E493C0A3
:100F3300E022C008C3E096F50808A3E0964208083B
:100F4300A3E096420808A3E0964208A2D265D033F4
:100F5300E5087001D3D00822C0E074F2120ADAA2C5
:100F6300AFE433FED2AFC2C0E5D1A2E450031221F5
:100F730013EEA2E092AF7F01020B39CAC0E0E49303
:100F8300A3C582CCC582C583CDC583F0A3C582CC5E
:100F9300C582C583CDC583DAE5D0E0CA22CAC0E0E5
:100FA300E0A3C582CCC582C583CDC583F0A3C5822A
:100FB300CCC582C583CDC583DAE6D0E0CA22C0E0C2
:100FC300E493A3D39C5010E493A3C39C400AD0E0C2
:100FD300D0E0D0E0020F28A3A3A3D0E02270090839
:100FE3000808226016181818C6C333C608C633C6C5
:100FF30008C633C608C633C6D5E0EA22C008C3E034
:1010030096F50808A3E096420808A3E0964208086C
:10101300A3E09645087001D3D00822C09FF59FE452
:1010230073D09F22D083D082C09FE493C0E0740129
:1010330093C0E0740293F59F227404800A740380C2
:1010430006740280027401C0E0F404121057D0E069
:10105300121306222518F58210AF08F51840021561
:10106300198008F51840021519D2AF85198322C0DB
:10107300D0251810AF08F518500205198008F51887
:1010830050020519D2AFD0D022BB0102E722C082A1
:10109300C08389828A83BB0003E08002E493D08308
:1010A300D082226016080808C6C313C618C613C622
:1010B30018C613C618C613C6D5E0EA22C0E0C0D0CE
:1010C300E8C0E0E5A8D2AFC2C7A2E792AFD0E0F88C
:1010D300D0D0D0E032C3E0C696F608A3E0C696F6B9
:1010E30008A3E0C696F608A3E0C696F622C0E0E49D
:1010F30093A36C7009D0E0D0E0D0E0020F28A3A343
:10110300D0E022251810AF08F51840021519800801
:10111300F51840021519D2AF22E066701008A3E05B
:1011230066700A08A3E066700408A3E06622181834
:1011330018E6084608700AE608C3337005E633F478
:10114300220822E76670100809E766700A0809E7B3
:101153006670040809E76622191919E70947097037
:101163000AE709C3337005E733F4220922C3E09683
:1011730008A3E09608A3E09608A3E096A2D265D060
:101183003322C3E096F008A3E096F008A3E096F0BC
:1011930008A3E096F022181818E4C396F608E4961C
:1011A300F608E496F608E496F622E026F608A3E0AD
:1011B30036F608A3E036F608A3E036F622E026F07A
:1011C30008A3E036F008A3E036F008A3E036F022E7
:1011D300E627F60809E637F60809E637F60809E6CA
:1011E30037F622C0E0E8C0E0E58124FCF8E6A2E798
:1011F300D0E0F8D0E022E657F60809E657F60809EA
:10120300E657F60809E657F622E056F608A3E05635
:10121300F608A3E056F608A3E056F622E056F008D7
:10122300A3E056F008A3E056F008A3E056F022E04E
:1012330066F608A3E066F608A3E066F608A3E06690
:10124300F622700422600D18C6C333C608C633C61F
:10125300D5E0F41822E647F60809E647F60809E65A
:1012630047F60809E647F622C3E09608A3E0960886
:10127300A3E09608A3E09622C6F4C608C6F4C608FF
:10128300C6F4C608C6F4C622600D08C6A2E713C694
:1012930018C613C6D5E0F322C3E7960809E79608F4
:1012A30009E7960809E7962275D0007581407518FD
:1012B3000175190300020B91E6F008A3E6F008A3F9
:1012C300E6F008A3E6F022E6084608C3134608330F
:1012D3006002E633F422600C08C6C313C618C613B3
:1012E300C6D5E0F422E0F608A3E0F608A3E0F6088A
:1012F300A3E0F622E7094709C3134709336002E76E
:1013030033F422CAC0E0E6F0A308DAFAD0E0FA2206
:10131300EAF0A3EBF0A3ECF0A3EDF022E0FAA3E0F4
:10132300FBA3E0FCA3E0FD22E5C754F84401F5C7A5
:10133300790122E7C33319471947194722E6C33313
:10134300184618461846222518F582E43519F58300
:1013530022C2AF75D69F02000022121027BFDE0102
:10136300121027E6DE0112102737DF01121027E7DC
:10137300DF011210279FE00112102767E10112100D
:101383002744E201121027CAE201121027D9E20111
:10139300121027E4E201121027EDE301121027FED9
:1013A300E30112102774E40112102706E50112105D
:1013B300275EE50112102724E60112102755E601E6
:1013C3001210279AE601121027A7E6011210273BF5
:1013D300E8011210279EE901121027BAEA01121040
:1013E3002724ED011210272FED0112102739ED01EB
:1013F30012102744ED011210274EED011210275849
:10140300ED0112102763ED011210276EED0112108A
:10141300279FED01121027C3ED01121027E7ED01FD
:101423001210274CEE0112102790EE01121027AC78
:10143300EE0112102723EF011210275BEF011210A8
:1014430027A7EF0112102704F001121027E6F1017C
:101453001210276CF2011210273DF3011210274DD1
:10146300F601121027A2F601121027CEF601121070
:10147300271AF8011210276AF801121027BFF80182
:10148300121027C0F90112102758FA01121027DA97
:10149300FA011210277AFB01121027DB2E0012101B
:1014A30027142F00121027EE30001210272D3100C1
:1014B3001210277731001210271C32001210277BDD
:1014C3003200121027AF32001210271C3300121003
:1014D30027393400121027413500121027D7350061
:1014E3001210271E3900121027C73900121027A324
:1014F3003A00121027043B00121027213C0012105F
:10150300274B3E00121027023F001210270C3F000A
:101513001210273F3F00121027064000121027A188
:1015230040001210270641001210272F410012100D
:1015330027514100121027804300121027574400FF
:101543001210279B4400121027084500121027C3CE
:101553004500121027F545001210273946001210D6
:10156300276C4600121027C14600121027164700A9
:10157300121027AA47001210270C480012102774D4
:1015830048001210271D4A00121027054B001210A5
:1015930027474C00121027754E00121027354F00B5
:1015A300121027645100121027075200121027450A
:1015B3005200121027F15300121027055400121085
:1015C300270F5400121027395400121027455400D6
:1015D3001210276454001210271B55001210275AAB
:1015E30055001210276455001210271856001210C8
:1015F30027175700121027105800121027AD580054
:101603001210274F59001210276659001210279DF8
:101613005900121027BB5900121027FF590012104E
:1016230027245A001210270A5B00121027765B004A
:10163300121027F05B00121027FF5C001210273EE8
:101643005E00121027A05E001210275A5F001210CE
:10165300277D5F001210275160001210279C600045
:10166300121027DE60001210273561001210276C5C
:1016730061001210279A6100121027D36100121023
:1016830027F86100121027806200121027A364005C
:101693001210270265001210279665001210270208
:1016A3006600121027566600121027B7FF011210AA
:1016B30027F6FF0112102783B401121027DDB401AE
:1016C30012102739B50112102785B501121027A072
:1016D300B501121027D1B501121027EEB501121072
:1016E30027FAB5011210276EB70112102787B70129
:1016F300121027EEB70112102701B8011210270F9D
:10170300B801121027C3B801121027A7B90112108C
:1017130027ADBA0112102733BB011210273DBB01BD
:10172300121027AABB01121027C1BB01121027F305
:10173300BB011210272CBC0112102756BC0112103A
:1017430027B7BC01121027D7BC01121027F5BC0123
:101753001210273BBD0112102761BE01121027AEE4
:10176300BE01121027DDBE0112102753BF01121054
:10177300277BBF01121027B4BF01121027C2BF017C
:101783001210271AC00112102769C001121027A8CE
:10179300C001121027D8C00112102704C101121072
:1017A300270FC1011210272DC101121027EFC1010C
:1017B300121027F9C10112102734C2011210274A4F
:1017C300C20112102753C201121027A8C20112101E
:1017D30027BCC201121027CAC301121027DDC3019F
:1017E300121027F2C30112102794C40112102717F5
:1017F300C501121027D5C501121027E0C50112102B
:101803002706C70112102722C70112102774C70128
:10181300121027B3C701121027C8C7011210270AD5
:10182300C80112102757CA01121027D5CA01121076
:101833002748CB011210276ACD0112102782CD0150
:1018430012102785CD0112102791CD01121027A563
:10185300CD01121027ADCD01121027E0CD011210DA
:101863002790CE0112102706CF0112102779CF013E
:101873001210272DD001121027E2D00112102701D8
:10188300D101121027A1D101121027ADD1011210DD
:1018930027D8D101121027DBD10112102745D2011D
:1018A3001210276DD30112102745D401121027D02F
:1018B300D401121027E9D501121027A6D601121060
:1018C30027DFD60112102710D701121027B0D70136
:1018D300121027E0D701121027BBD801121027548A
:1018E300D901121027DFD90112102790DA01121043
:1018F3002712DB0112102744DB0112102785DB01BD
:10190300121027C0E20212102725E30212102762E9
:10191300E302121027B1E302121027C7E5021210E7
:1019230027AAE70212102714EB021210274FEB022B
:1019330012102771EB02121027D4EB0212102708A2
:10194300EC021210272BEC0212102758EC02121093
:1019530027B4EC02121027AACC0212102728CD02BA
:101963001210275ECD02121027CACD021210273D96
:10197300CF0212102759CF021210279ECF02121046
:10198300272CD00212102785D002121027B2D102C1
:10199300121027C4D20212102721D3021210278D4E
:1019A300D302121027EED3021210272FD4021210E3
:1019B30027DCD402121027EED50212102719D60203
:1019C30012102764D602121027ABD6021210273D3D
:1019D300D702121027F8D70212102732AE031210C3
:1019E3002762AE03121027B7AE03121027997F00A8
:1019F3001210279E7F001210274FC6031210276074
:101A0300C603121027B1C603121027F6C60312101D
:101A130027A0C703121027CDCE0312102780C103BE
:101A2300121027D8C2031210276FD80212102714DE
:101A3300D90212102734D90212102754D9021210D6
:101A43002768D902121027C0D902121027F0D90231
:101A530012102771DB0212102717DC02121027F96C
:101A6300DC021210274ADD021210278DDD0212104C
:101A730027D0DD0212102736DE0212102757DE02AE
:101A8300121027E3DE0212102714DF021210278838
:101A9300DF0212102736E10212102710E2021210A1
:101AA3002752E202121027ACE202121027F7BD03FD
:101AB30012102718BE031210274EBF0312102778E7
:101AC300BF03121027F9BB031210277FBC031210A8
:101AD3002789BC03121027AABC03121027D6BD0303
:101AE3001210276DC00212102770C0021210272A8D
:101AF300C10212102755C1021210279CC1021210F5
:101B030027C1C102121027E2C10212102716C20216
:101B13001210274FC20212102778C302121027AFE8
:101B2300C302121027CFC3021210276AC402121075
:101B3300272FC50212102766C502121027DBC60223
:101B43001210277EC70212102777C802121027A08F
:101B5300C802121027F4C802121027BAC9021210C1
:101B630027E8C9021210277DCB02121027FECB02F1
:101B730012102731CC0212102700ED021210270A8F
:101B8300ED0212102756ED02121027C4ED021210B7
:101B930027E5ED02121027FCED02121027ACEE022E
:101BA30012102740F10212102749F1021210279C4C
:101BB300F102121027C5F1021210272CF2021210A3
:101BC30027BDF202121027FFF20212102749F30277
:101BD300121027A8F30212102739F40212102778E3
:101BE300F402121027B7F402121027ECF4021210B9
:101BF30027FEF40212102732B1011210272FF5022B
:101C030012102738F502121027EEF5021210272EB4
:101C1300F602121027719A03121027449B03121025
:101C2300275E9B031210276F9B03121027849D03CB
:101C3300121027A39D03121027B3B703121027E92D
:101C4300B70312102732B80312102782B9031210F8
:101C530027906600121027CF67001210270B680029
:101C6300121027CA6900121027F369001210278681
:101C73006C001210277BDE01121027536E00121026
:101C830027EB6E00121027536F00121027F46F001A
:101C930012102736700012102776700012102701D9
:101CA300720012102771730012102796750012101C
:101CB30027C47500121027EB7500121027F4750066
:101CC3001210274F7600121027E276001210270019
:101CD3007A00121027817A00121027E4FF021210F3
:101CE30027E4D2031210277CA2031210278FA2032A
:101CF3001210272CA30312102767A30312102782A5
:101D0300A303121027A7A303121027ECA303121097
:101D1300271DA4031210274EA403121027D4A503D2
:101D230012102718C9031210274EC9031210276A6D
:101D3300C903121027ACC903121027BCC903121020
:101D43002751CA031210275BCA031210275C8603AC
:101D5300121027908603121027CF8603121027B084
:101D630087031210275E880312102774880312104A
:101D730027348903121027578B03121027DEB00272
:101D830012102736B102121027E0B1021210278871
:101D9300B202121027E5B2021210273EB30212104C
:101DA3002752B3021210271CB50212102797B5024F
:101DB300121027C1B5021210277EB70212102799FD
:101DC300B702121027E8B702121027FEB70212104B
:101DD300270BB8021210273FB80212102755B8027A
:101DE300121027DBB802121027EAB8021210274399
:101DF300B9021210279DB902121027EBB902121073
:101E030027F5BA0212102777BD0212102711BE025E
:101E130012102753BE02121027E8BE021210270524
:101E2300BF0212102708BF021210270BBF021210A5
:101E3300277EBF0212102799BF02121027C5BF02C7
:101E430012102700C00212102703C0021210271617
:101E5300C0021210273DC00212102761D2031210D4
:101E6300276DD203121027A7D2031210270DA10248
:101E730012102738A10212102704A2021210278978
:101E8300A202121027F2A2021210273EA30212107E
:101E930027BDA3021210274FA402121027DBA402AE
:101EA3001210271DA50212102789A9021210270953
:101EB300AB0212102748AB0212102711AC0212100A
:101EC30027C5AC0212102775AE0212102701AF020C
:101ED300121027008002121027BA80021210272C3A
:101EE30081021210273B8102121027B581021210C2
:101EF300272482021210272E8302121027578302EF
:101F0300121027F78302121027458402121027B5F7
:101F13008402121027E98502121027C586021210C7
:101F230027368702121027B38802121027758902F9
:101F3300121027108A021210276B8A02121027D65A
:101F43008A02121027DA8B021210279B8D021210BD
:101F5300273A8E02121027AC8E02121027698F02C5
:101F630012102701A90312102755A903121027AD38
:101F7300A903121027F8A9031210275AAA03121053
:101F830027F3AA031210275BAB0312102767AB03D7
:101F93001210275DB5031210278EB50312102748C0
:101FA300B603121027AEB6031210271FB703121081
:101FB300276DBA0312102727C30312102734C30354
:101FC30012102749C3031210275EC3031210277B85
:101FD300C3031210279FC303121027C8C303121091
:101FE30027E9C30312102712C40312102785C40361
:101FF300121027C0CF03121027D1CF03121027715D
:10200300D003121027C8BF03121027D6BF03121024
:10201300277AD403121027CBD103121027DBD10365
:10202300121027F6D10312102757D203121027CB11
:10203300CD0312102750CE03121027B4CE03121073
:1020430027B9CC03121027DBCC0312102745CD038D
:1020530012102750CD0312102794CD03121027001E
:1020630080031210270E80031210274F80031210D3
:1020730027708003121027FA80031210271C810394
:10208300121027888103121027A38103121027BE81
:102093008103121027C88103121027D28103121063
:1020A30027E58103121027FE81031210279A82036A
:1020B300121027568303121027CD830312102747CC
:1020C3008403121027AD84031210272DFC01121074
:1020D300273BFC01121027B5FC0112102799FD01C3
:1020E30012102752FF011210273AD403121027D2DD
:1020F3008B031210273F8C03121027008D0312103D
:1021030027708D03121027798E03121027F18F0386
:10211300121027559003121027AA9003121027B309
:102123009003121027C29003121027D590031210A8
:1021330027EB9003121027F49003121027DE7A0086
:10214300121027337B001210272F7D0012102761F6
:102153007D00121027837D001210279C7D00121032
:1021630027B57D00121027BF7E001210275A7F006B
:10217300121027B7C703121027DBC703121027F467
:10218300C70312102727C80312102758C8031210B9
:102193002786C803121027E8C803121027F7C803BD
:1021A30012102701C9031210270EC903121027A208
:1021B300AB03121027C8AB0312102705AC03121090
:1021C3002714AC0312102733AC031210279BAC0364
:1021D300121027A4AC0312102703AD0312102727F4
:1021E300AD03121027E6AD03121027F3AD0312104F
:1021F3002704AE0312102773D30312102790D303BF
:102203001210273F91031210279D9203121027AA41
:102213009203121027BD9203121027DC92031210AF
:1022230027F292031210270693031210277B9303BE
:10223300121027E0930312102790940312102765BE
:102243009503121027759503121027849503121016
:102253002732D10312102756D1031210277ED10340
:10226300121027A6D1031210279AB003121027C108
:10227300B003121027E2B00312102747B103121064
:102283002700B30312102719B30312102725B30332
:1022930012102739B30312102757B3031210276103
:1022A300B3031210276BB3031210277EB30312106C
:1022B30027D1B3031210270AB40312102739B4032A
:1022C30012102787B403121027D6B403121027F174
:1022D300B403121027FBB4031210270CB50312101A
:1022E3002752B50312102793FF0212102757F60245
:1022F30012102781F6021210279DF602121027B042
:10230300F602121027C6F60212102723F702121044
:102313002756F70212102792FB02121027B8FC026D
:10232300121027EBFC0212102737FD02121027634D
:10233300FE021210278BFE02121027A0FE021210BB
:1023430027B0FE02121027F4FE0212102755FF02D7
:1023530012102765FF0212102773CA031210278E6B
:10236300CA03121027B7CA03121027D1CA031210C7
:1023730027F6CA0312102715CB031210272DCB0300
:102383001210275BCB0312102775CB031210272FD4
:10239300D303121027FC9E03121027039F0312106E
:1023A300270FA0031210273FA00312102765A003D5
:1023B30012102788A003121027AAA003121027E4E3
:1023C300A0031210274AA10312102783A10312109E
:1023D30027CFA103121027FCA1031210271CA2036D
:1023E300121027C2C403121027D4C403121027BF2C
:1023F300C5031210274CC603121027A6CB031210D5
:102403002718CC0312102756CC0312102797CC039E
:10241300121027E1A503121027FDA5031210274C64
:10242300A60312102768A60312102799A6031210F9
:1024330027A9A60312102795A7031210279FA70306
:10244300121027ACA703121027BCA803121027D021
:10245300A803121027D9A803121027BD9503121041
:1024630027029A03121027079A03121027E5D303B2
:102473001210278BD003121027B5D003121027AFE9
:10248300D30312102712D4031210275CD4031210A3
:1024930027BE9002121027DC9502121027DFAF012E
:1024A30012102790AD0112102799AC011210277D4D
:1024B300AC0112102729AC01121027E1AB01121055
:1024C300271FAB0112102792AA0112102785AA0118
:1024D30012102793A70112102740DE011210271AAA
:1024E300DE01121027E5A401121027B9A30112106F
:1024F3002701DE01121027ADDD011210270DA30104
:102503001210275EA101121027199F01121027A094
:102513009E01121027479E01121027DB9D01121006
:1025230027B29D01121027A59B01121027719B0151
:102533001210273E9B01121027229B0112102748DD
:102543009A01121027009A011210273598011210D0
:1025530027B59701121027B29701121027B99601D8
:10256300121027879601121027C49501121027EF26
:102573009301121027809301121027529301121016
:102583002709DD011210277FDC011210271EDC0151
:10259300121027CCDB01121027BADB011210274FD0
:1025A30093011210273C9301121027D492011210A9
:1025B30027C392011210273EB301121027A49101E1
:1025C3001210276E9101121027319101121027D298
:1025D300900112102720B301121027CA6C001210A9
:1025E30027A190011210275C8D011210274D8C0139
:1025F300121027DC8B01121027A18B011210276CFC
:102603008B01121027608B01121027C08A01121050
:1026130027078A01121027DA87011210276685011E
:10262300121027248501121027EF8301121027A40B
:102633008301121027D682011210272D8201121056
:1026430027C98101121027038201121027D5B10176
:1026530012102710F50200000080FBE47300000055
:102663000000000000000000000000000010101037
:10267300101010000030300000001428500000003B
:10268300000000000000000000002828FC2848503B
:10269300FC505000000000103854543018145454A7
:1026A30038100000000044A8A8B0541A2A2A440095
:1026B3000000000020505060ACA898927C000000FD
:1026C300606020C00000000000000000000004085B
:1026D300081010101010100808040000004020100B
:1026E3000804081020400000000000001010D63835
:1026F30038D61010000000000000101010FE10105B
:102703001000000000000000000000000000006056
:102713006020C0000000000000FC0000000000007A
:1027230000000000000000000000006060000000E6
:1027330002040404080810102020204000000000B8
:102743003048848484848448300000000000107082
:102753001010101010107C000000000038444404D6
:10276300081020447C00000000003844441804048E
:1027730044443800000000080818284848887C08AA
:102783001C00000000007C404078440444443800AE
:10279300000000003C4480B8C484848478000000B6
:1027A30000007C44480810101010100000000000C6
:1027B30078848448788484847800000000007884D6
:1027C30084848C740488F000000000000000303022
:1027D3000000003030000000000000000010000086
:1027E30000001010200000040810204020100804EE
:1027F3000000000000000000FC0000FC00000000DE
:1028030000000040201008040810204000000000D1
:102813000078848484081010003030000000000029
:1028230038449AAAAAAAB4423C000000000010103F
:10283300282828384444EE0000000000F844447877
:1028430044444444F800000000003C4484808080F9
:102853008044380000000000F048444444444448A5
:10286300F00000000000FC44404878484044FC006D
:1028730000000000FC42404878484040E00000006F
:1028830000003C448480808E8444380000000000B3
:10289300EE4444447C444444EE00000000007C10B9
:1028A3001010101010107C00000000007C1010109D
:1028B300101010101090E0000000EE4448507048D3
:1028C3004844EE0000000000E040404040404044E7
:1028D300FC0000000000EE6C6C6C54545454D600A1
:1028E30000000000EE64645454544C4CE4000000B7
:1028F3000000304884848484844830000000000051
:10290300F844444478404040E00000000000304870
:1029130084848484B448380C00000000F84444786C
:1029230050484844E600000000003C44402018049E
:102933000444780000000000FE92101010101010E4
:10294300380000000000EE4444444444444438004A
:1029530000000000EE44442828282810100000003E
:102963000000D6545454546C28282800000000005A
:10297300EE44282810282844EE0000000000EE440E
:102983002828101010103800000000007C88081060
:1029930020204044FC0000001C10101010101010E8
:1029A3001010101C000070101010101010101010D8
:1029B3001070000070101010101010101010107014
:1029C30000001028000000000000000000000000CC
:1029D300000000000000000000000000FE00606036
:1029E30020C0000000000000000000000000000004
:1029F3000038441C24443E0000000000C0404078DE
:102A0300444444447800000000000000003C44407B
:102A130040443800000000000C04043C4444444497
:102A23003E000000000000000038447C40443800B1
:102A3300000000001C2420F8202020207800000043
:102A430000000000003C4848304078443800000053
:102A5300C040405864444444EE00000000001000AD
:102A63000070101010107C000000000008000038F7
:102A730008080808080870000000C040405C48507F
:102A83007048EC00000000007010101010101010BF
:102A93007C0000000000000000F854545454D60099
:102AA30000000000000000D864444444EE0000002D
:102AB3000000000000384444444438000000000093
:102AC300000000F8444444447840E0000000000063
:102AD300003C444444443C040E000000000000EC6D
:102AE30030202020F800000000000000003C4430AB
:102AF30008447800000000000010107C1010101033
:102B03000C0000000000000000CC444444443E009C
:102B130000000000000000EE4428282810000000F8
:102B23000000000000D65454542828000000000080
:102B3300000000DC48303048EC00000000000000DA
:102B430000EE442828101020E00000000000007C64
:102B5300481010247C0000101010101010101010DA
:102B6300101010101000013636010100010201009F
:102B7300010301000104010606050200000701002C
:102B8300340801000F090401010D0100FF0E0800C4
:102B93000017020000190100FF1A0100011B0100C8
:102BA300FE1C0100081D0200001F0100012001009E
:102BB30001210200002301000F240200002601006E
:102BC3000127010008280200FF2A0100072B010248
:102BD300402C0100002D0100012E0100012F0100F6
:102BE300FF30010B1C310800003A0100083B0100D3
:102BF3000F2F010000030271023001600211027005
:102C0300020102020202028002100261023A004142
:102C1300006302730272026202430200021302386B
:102C2300000002000204021202000200020002007D
:102C33000204020402370037003C02440200023956
:102C43000000020002650200023502810200020553
:102C5300028202830200020300710030016000114E
:102C63000070003102200350048000100061000056
:102C7300001400630073007200620043000000133D
:102C83000006000000000004001200000000000025
:102C930000000004000400370037003C0244000039
:102CA3000000000000000065000000350081000006
:102CB300000500000083000000010371030103010C
:102CC30003010301030103220302030103100300B1
:102CD3000300030003000300030003000342030097
:102CE3000324030603000300030403120325032341
:102CF3000325032303040304030003000300034425
:102D0300030003000323030003650321003503814C
:102D13000300030503000300030003010171010124
:102D230001010111010101310101010101800110C2
:102D33000161013B001400630173017201620143ED
:102D4300010001130106013D0135000401120100D8
:102D53000100010001000104010401330133013CBE
:102D63000144013201360000010001650100013513
:102D73000081010001050182018301000136000188
:102D830000060000000F000000000000000000002B
:102D930000000003FFFF00000403FFFF0000FFFF2C
:102DA3000FF4010005C4040320000100030B00001D
:102DB30000000000000003010F01000F1F02008547
:102DC3001E03008B1E0400911E0500971E0600A320
:102DD3001E1100BB1E1400C11E1500B51EFFFF000F
:102DE300005317831759175F177D1771176B1789CF
:102DF300178F179517A11765174D17471703EAF58F
:102E0300E5D5D5C5B5A5959585857575656555557F
:102E13004545353525251515050A1F1502E9140500
:102E2300FB1407EF140CCB140DDD14FF0000001688
:102E33000F00000B150B020002220F320000063DAB
:102E4300184F1855181D175B18171723179D18BB14
:102E530018C118A318AF18A91800034948424D1800
:102E6300172505020C0E020B040B0A0708000F00BE
:102E73000119161816161523030000383C3E363B7D
:102E83003B352B432C303016181920231A1C1E30C7
:102E9300303017181921301B1D1F3077179B17B5BA
:102EA30018A717AD1791186118671873186D1802D2
:102EB300040201010101090200000000000000BE3C
:102EC300040A0E00150004002800050C0A03090873
:102ED300FF1E1E0F0404100C74F7120A6EE9900310
:102EE300B0F0900365E4F01223E39003B5E4F0A39C
:102EF300F09003B1F0A3F01216571223E9900334B4
:102F0300E4F0A3F0902ED693FA7902122449025BDF
:102F13007174F2120A6EEAFEEBFF5480606990034B
:102F2300B0E0F9121BBB8A088B09EA4509604F7CA4
:102F33000080010CEC75F003A4F8A9F0741C28F5CB
:102F430082742E39F583E493F4602CE493F88508B6
:102F5300828B83E06870DCAA08EC75F003A4F87434
:102F63001D28F582742E39F583E493C0E074019330
:102F7300F583D08212265EAA08AB09121BAFEEFAC4
:102F8300EF6480FB0230E1EF5420601D1215798A53
:102F9300088B09EA4509600A1214DDAA08AB091275
:102FA3001BAFEEFAEF642080DAEEA2E0501A900332
:102FB3006AE0640F700B79001214A7E96003123002
:102FC300E4EE6401FAEF80BB542070030230AF7566
:102FD3000C001245B68B09EA450970107C027D008E
:102FE3007A207B009003B0E0F9121D057C00790480
:102FF3007A007B001215558A088B09801885088290
:10300300850983A3A3A3A3A3A3A3A3A37401F08507
:103013000A08850B09E5084509606D7C007904AA57
:1030230008AB091215558A0A8B0B750C01E50824A8
:1030330004F8E50912435A24FFF0A3E034FF1266B3
:103043004D70CC850882850983A3A3A3A3A3A3A35F
:10305300A3A3A3E0640170A5850882850983A3A3C4
:10306300A3A3A3A3E054047094850882850983A3D2
:10307300A3A3A3A3A3A3A3A37406F07AB78508828B
:1030830085098312321080871215257C0079017A15
:10309300007B001215558B09EA45097009E50C7090
:1030A300057A20125510EE6420022FC7EF540260F8
:1030B3000B121651EEFAEF6402022F86EF540460EE
:1030C300191256A71255C7790190036312592B128F
:1030D30013EDEEFAEF6404022F867A007B000233CD
:1030E30017900CF81239AE1214BF22C082C0837439
:1030F300EA121106851882851983AA82AB83794B5C
:1031030012241F740812134A7402F0740912134A2A
:10311300AA82AB83795012241F741312134AE41248
:103123005AFA12243D7416024AD474F7120A6E74C2
:10313300E1121106EAFEEBFFEE4F6033851882853C
:103143001983AC82AD8312159D740612134AE06095
:103153001E741712134AE0FD740112134AE0FCEEC9
:10316300FAEFFB79001225D5E9600479A48002798E
:1031730000025B6C74F6120A6EEAFEEBFF8E828F1E
:1031830083A3A3A3A3A3A3E05440601B125FE9128C
:1031930032DE60067AFF7BFF801A8E828F831247AE
:1031A30060FAA3E0FB80031215C174FE6A70037416
:1031B300FF6B6041125FE9125554121615E98E82B6
:1031C3008F836006123209E480051232097401F01C
:1031D3007CAD7D148E828F8312592B122443E9F523
:1031E300087015EE4F60097901EEFAEFFB12153105
:1031F300A9080255857508CDAA088E828F831232DD
:1032030010E960DF80EAE0240D124C2F22E0240C49
:10321300124C2FE0F91214B92274F6120A6EE9FE69
:10322300EAFF7A0F7B00121BA9EA4B60198A828B93
:1032330083740CF0EEA3A3F0EF8A828B83A3F012C6
:1032430055B07900802FEEF912155B8A088B09A817
:1032530008A909E849601C88828983A3A3A3A3A3BF
:10326300A3A3A3A37406126274E0F9121471EEF916
:103273001215377910025585C082C08390036AE026
:10328300640F7014EA4B6010900365E064086005F6
:10329300E06404700312329E024AFEEAFCEBFD7AFC
:1032A300017B009003B0E0F9121CFF22C082C083AF
:1032B3007900EA241DF582EB12475D24FD600B14AF
:1032C300600824FD600424FD700109024AFE8E8219
:1032D3008F83A3A3A3A3A3A3A3A3A31232E22212C4
:1032E30047A5FB121615E9228E828F83A3A3A3A3FE
:1032F300A3A3A3A3A31232E26402228E828F83A329
:10330300A3A3A3A3A3A3A3A3124AF5900356E06820
:10331300221210727F06020D2474F4120A6E74FDD9
:103323001211068A088B098A828B83A3A3E0F91200
:10333300155B8A0A8B0BAE0AAF0BEE4F7003023498
:1033430023850882850983A3E064F16030850882C0
:10335300850983A3E064CD6024850882850983A35E
:10336300E0641A6018850882850983A3E064E96034
:103373000C850882850983A3E064E1700879001253
:103383001531E9706C850882850983A3E0C0E07478
:103393000212134AD0E0124AD9EEF0A3EF123E0410
:1033A300851882851983AA82AB8370051213D58091
:1033B300031215FD740212134AE064E970338E821E
:1033C3008F8312342F750A01780A121048750AE99F
:1033D300780A121048E508240CF582E5091238F63C
:1033E300123DE1FCA3E0FD8A828B83123DFB1210A8
:1033F300728E828F83A3A3A3A3A3A3A3A3A3E06437
:103403000270108E828F83A3A3A3A3A3A3A3A3A35A
:103413007406F0850882850983A3A3E0F9121537A2
:10342300121525900CFC1230E70239B3E0F8A3E043
:10343300F9E8FAE9FB2274F4120A6EEAFEEBFF756F
:1034430008008E828F83A3A3A3A3A3E06042750821
:10345300088E828F83A3A3A3A3A3A3A3A3124A08C3
:103463008B0BEA450B601075082C8E828F83A3A308
:10347300A3A3A3E0D2E0F08E828F83A3A3A3A3A38D
:10348300E05403640160030235224308110235222C
:10349300EE24181239C06033EE241A1239C0700FAB
:1034A3001232FE7003A3E06970757508228070EE16
:1034B300241BF582EF123527241AF582EF123E0CF6
:1034C300EE241912601D12145F80541232EB700344
:1034D3007508011232FE7003A3E0697006E508D295
:1034E300E1F508E50860158E828F83A3A3E07006DB
:1034F300E508D2E58004E508D2E6F5081232D16486
:10350300017006E508D2E0F5088E828F83A3A3E05D
:10351300600D12353564016006E508C2E0F508A9BF
:10352300080239B812474B12352E22E0FCA3E0FD06
:10353300EE2212474512477DF9121603E922C08293
:10354300C08379018A828B83A3A3E0C394024001E1
:10355300198A828B83A3A3A3A3E0C39402400279B5
:10356300008A828B83A3A3A3A3A3A3A3A3A3E0643F
:10357300F87003A3E0F460458A828B83A3A3A3A31B
:10358300A3A3A3A3A3E064F97003A3E0F4602E8ACA
:10359300828B83A3A3A3A3A3A3A3A3A3E064FA702F
:1035A30003A3E0F460178A828B83A3A3A3A3A3A33B
:1035B300A3A3A3E064FB7003A3E0F4700279008A81
:1035C300828B83A3A3A3E0F8900353E0686002799E
:1035D30000024AFE74F0120A6E74DE121106EAFE4D
:1035E300EBFF8E828F83A3A3A3A3E0600E900CFA5C
:1035F30012557C6006900CFA1230E7740312134ADA
:10360300AC82AD838E828F83A3A3A31255FE125E79
:1036130037E9600F740312134AAA82AB831214D7DB
:10362300E9700879011223F50238EBEE241B1247E7
:1036330050741012134A1255C7740912134AE060EA
:1036430021741A12134AE0FD740412134AE0FC8E2B
:10365300828F8312592979011225D5E960047902F1
:1036630080C3740312134AAA82AB831214D1E9F5FF
:103673000A740912134AE0702A90034DE06024741F
:1036830022550A6422601C7442550A644270CF7446
:103693002012134A123909600A742012134A12398C
:1036A3000270BBE9A2E65041740312134AAA82AB2B
:1036B300831214C5E97003023626742012134A12CA
:1036C30047606403700F742012134AA312556EA34C
:1036D300E0640D6014740312134AAA82AB831216BA
:1036E30027E9640170030238EBEE242C1238F3123D
:1036F3003C177003A3E069701C750800780812106A
:10370300487808121048EE242E12601D12390F1249
:103713003DFB121072740912134AE070030237C89A
:1037230012390F12592B12167B8A088B09EA4509A5
:103733007003023865740412134AE0F88E828F8393
:10374300A3A3E028F8A3E03400F9E8240D1238FA23
:103753008A828B83A3A3A3E068601CE88A828B839D
:10376300A3A3A3F090818412131F85088285098384
:10377300A3A3A3A31213137904E912134A125E1429
:103783002AF8A3E034008882F583A3AA82AB8312CC
:103793001B978A0C8B0D8C0E8D0F850882850983F0
:1037A300A3A3A3A3780C120FFF40030238EB90816D
:1037B300B8780C1211AD850882850983A3A3A3A34E
:1037C300780C1212BB900365E064046008E064099E
:1037D30060030238EBE50AA2E540030238A3EE24B6
:1037E3002E1239C0851882851983F0EE242F1239E1
:1037F300C0C0E0740112134AD0E0F0EE2430123955
:10380300C0C0E0740212134AD0E0F0741412134AD9
:10381300E064017027740E12134A124756EE241205
:103823001239C0687003A3E0697011740C12134A53
:103833001232F87007741412134AE4F0EE242412BF
:1038430038F3120E56740412134AAC82AD83740714
:1038530012134AAA82AB831213DB7404121072028E
:1038630038EB9003AAE0640160030237C8742012A6
:10387300134A1239097009E50AA2E650030237C850
:10388300741012134AE0F47003A3E0F4605AEEFCE0
:10389300EFFD740312134AAA82AB831214E3804828
:1038A300A2E65044742012134A12593A701A741A39
:1038B30012134AE064027030740312134AAA82ABF3
:1038C3008379001215F18020742012134A123902F1
:1038D3007016741A12134AE06404700C7403121302
:1038E3004AAA82AB831215EB7422025CE6EE240B28
:1038F300F582EF12474B22F582E91255E0F82212C6
:103903005FFBE064072212477D640622EE242A123D
:10391300474812352E24121247482274F4120A6EB5
:10392300EAFEEBFF8C088D099005DAE0600F123296
:10393300FE7003A3E069700512144D804F790012E5
:10394300591E12147D8A828B83E58245836035A3D9
:10395300A3A3A3A3A3E05418602AE508241BF582BC
:10396300E5091238F6120E5A123FF41238F6120E07
:103973005AEE241812601D12399112148F74041216
:1039830010728008790012399112145380278E82A5
:103993008F83A3A3A3A3A3A3A3A3A312352E240BB3
:1039A300F582EF1239AA223400F5831247A5FB22D0
:1039B30074031210727F04020D24EE2417F582EFB4
:1039C3001255E02274F7120A6E74F7121106EAFE1A
:1039D300EBFF900365E06403600DE064016008E0C1
:1039E30064096003023A918E828F83A3E0707E7C28
:1039F300007D007A027B001223EFEE2402FAEF121D
:103A030043611247569003561255C7795312242522
:103A13007900123A96E064096003123E2985188200
:103A2300851983740112559D9003657404F0740124
:103A330012134AAA82AB83794A12241F7401121308
:103A43004AAC82AD837A5B7B0312240D900356123A
:103A53005E2D7A03123E33900350E0A2E35004D26A
:103A6300F08002C2F012558A1230E4801E8E828FDB
:103A730083A3AE82AF83FC7D007A037B101223EF16
:103A83008E828F83E0F9123A96E4F012150D7409D1
:103A9300025B6E9003631239AE1213ED900365223D
:103AA300C082C08390033412557C701F900365E07D
:103AB30014600924FC600A14600C800F90033C809E
:103AC30032900338802D90033A8028E849600890AB
:103AD3000335123DDB700C8A828B83A3E0F912134A
:103AE300E1801B9003351240907005121645800E3D
:103AF3009003D212557C600612556E12265E024A5E
:103B0300FE74F4120A6E74FB1211068A088B097A8A
:103B13000F7B00121BA98A0A8B0BAE0AAF0BEE4F69
:103B23007003023C0B8E828F83125AF87950122451
:103B33001F850882850983A3E06003023BF390039A
:103B430063E0F47003A3E0F46034900363E064FE85
:103B53007003A3E0F46027851882851983123C174C
:103B63007003A3E0696017850882850983A374EA5B
:103B7300123E117A637B03795012242580728518D3
:103B830082851983125FDC1255C77A567B037953FA
:103B930012241F9003561255F81255C77A597B0306
:103BA300794B12241F7A587B0379E112241F900367
:103BB3006AE0C3940F5021900358E0C0E0740212EE
:103BC300134AD0E0F0740412134A7401F004121380
:103BD3004AAA82AB83122437750A00780A12104866
:103BE300780A121048900D22E0F9123DF212107279
:103BF300850882850983123C10A3F0900365740342
:103C0300F0EEFAEFFB1255B074050239B5A3E08E5E
:103C1300828F8322125FE0E06822124C362274F511
:103C2300120A6E74D81211068A088B098A828B8352
:103C3300A3A3A3124782741512134AAC82AD838ADD
:103C4300828B83A3A3A3A3A3A3A3A3123DE1FAA3FC
:103C5300E0FB121513741512134AE0706B8508828A
:103C6300850983A3A3A3A3A3A3A3A3E0C3940B40A6
:103C7300578E828F83A3A3A3A3A3A3A3A3E064026A
:103C83007046EE240B1239C0F4703D900365E06476
:103C930002603AE06406603590033412557C600597
:103CA300123DDB604F900365E064086005E0640447
:103CB3007016741712134AE0F9741C12134AAC827B
:103CC300AD8312591E12151974280264FA90033435
:103CD30012557C701F750800780812104878081276
:103CE3001048EE24101238F3126035124449123D85
:103CF300FB1210728E828F8312589A1243731247EB
:103D030056740212134A1255C7EE240D1239C0C05D
:103D1300E0740412134AD0E0123E04F508A3E0F560
:103D230009740F78081212D9740512134AE508F0C2
:103D3300741912134AE0C0E0740612134AD0E0F07B
:103D4300741B12134AE0C0E0740712134AD0E0F068
:103D5300741612134AE0C0E0740912134AD0E0F05B
:103D6300741712134AE0C0E0740812134AD0E0F04B
:103D7300EE24101239C0C0E0740A12134AD0E0F0E6
:103D8300741A12134AE0C0E0740B12134AD0E0F025
:103D9300742712134AE0C0E0740C12134AD0E0F007
:103DA300741C12134AA982AA8389088A09750A0016
:103DB30078081210407C087D00741012134AAA82FE
:103DC300AB8312512B121072851882851983AA8234
:103DD300AB831213E7023CCB124096640122E0F955
:103DE3008A828B83A3A3A3A3A3A3A3A3A3E0229069
:103DF3000363125E319003591239AE1215D3740264
:103E030022F0EE240B1255DD221255E0FA22F07A4D
:103E1300567B037953123E1C221224257A597B03C5
:103E2300794B122425229003631239AE12167522A0
:103E33007B001223EF900359125E317A047B001248
:103E430023EF22F01260402274F2120A6E74F81209
:103E53001106EAFEEBFF8C0A8D0B890C851882850F
:103E63001983AC82AD8375838175823A7408120F0E
:103E7300A0F50DEEFCEFFD851882851983AA82ABB0
:103E8300831257FB7003750D019003B1803BEEFC69
:103E9300EFFDE508240BFAE50934001257FA601E1A
:103EA300850882850983A3A3E0650C7011850882C8
:103EB300850983E0650A7004A3E0650B6038E508B3
:103EC3002414F582E5091238F612436BE508450917
:103ED3006024E50DA2E040B6850882850983E0658C
:103EE3000A7004A3E0650B70D5850882850983A356
:103EF300A3E0650C70C8AA08AB097408023314C0A8
:103F030082C0839003B1024AFB74F7120A6E9003D6
:103F1300B11247A58012EA2414F582EB1238F61287
:103F23004782121C4BEEFAEFFBEA4B70E99003B1A8
:103F3300E4F0A3F0025B717F07020D2474F1120A0F
:103F43006EEAFEEBFF890A8C088D098E828F83E06F
:103F53008C828D83124A12AE82AF83E01251EB1230
:103F6300515CC41251EB123FFDE054038C828D83EC
:103F730012515AA2E2E4338C828D831251591313E6
:103F830013541F1251EB125158A2E7E4338C828D64
:103F930083A3A3A3A3123FFD8E0C8F0D750E007890
:103FA3000C1210407C087D00E5082407125DA01266
:103FB3001072125E0B8E0C8F0D780C1210407C0366
:103FC3007D00E508240F125DA0121072E50AC39468
:103FD3000F40148E828F83A3A3A3E0C0E0123FF4AB
:103FE3001238F6D0E08006123FF4126268F0023F06
:103FF3003AE5082412F582E50922A3A3124A160E14
:10400300AF832274F4120A6E74F9121106EAFEEBFE
:10401300FF890890033412557C600E12409070099A
:10402300EEFAEFFB12163F805F900363E06E7003BE
:10403300A3E06F70537401650860097A777B0312FC
:1040430057FB70447A007B021245BA8B0BEA450B8F
:10405300703690036612131F851882851983121315
:104063001390036CE0C0E0740412134AD0E0F074C0
:104073000512134A7401F0740612134A125AF81205
:1040830013B1E9609B1213B774070239B512409656
:10409300640222125FFCA3A3A3A3A3A3E02274F5EB
:1040A300120A6E8A088B098A828B83A3AE82AF833E
:1040B300E0F91214058E828F83E064EB600C8508AF
:1040C30082850983A3E064E17009850882850983F9
:1040D300A3E4F01230E4750A01780A121048850847
:1040E30082850983A3E0F508780812104879001245
:1040F3003DF21210721215250264FDEAF0A3EBF0F3
:10410300024AFE74F6120A6E9003B4E0701B7C0040
:1041130079017A007B00121555EA4B600C8A828B79
:104123008312557C60031214B3025585C082C08389
:104133001245A2401079FF12154FE9F8902EDAE4E8
:1041430093C3985004790180027900024AFE74F007
:10415300120A6E8A088B09890B750C008A828B837D
:10416300A3A3A3A3A3A3A3A3E0F912155B8A0E8BB6
:104173000FAE0EAF0F750A01EE4F600302422F859B
:104183000882850983A3A3A3A3A3A3125E2D850895
:1041930082850983A3A3A3A3A3A3A3124F2B12591D
:1041A3002B1215438A0C8B0DAE0CAF0DEE4F700323
:1041B3000243528E828F83A3A3A3A3E4F0A3F0E56B
:1041C30008240B12435EE0C0E01238F0D0E0F01296
:1041D300161BEE240CF582EF125550E508240EF55C
:1041E30082E509124753EE240EF582EF1255C4758A
:1041F3000C01EE2406F8EF12435A547FF0A3E05467
:10420300FC126092E0540460030242B5900D001268
:104213004F1C740778081212458E828F83A3A3A3C1
:10422300A3A3A3E04508F0A3E04509F08E828F83A2
:10423300A3A3A3A3124369740778081212D9E5084C
:104243005407F508E50B607A8E828F83A3A3A3A39B
:10425300A3A3A3A3A3740212515D240D124C2BE05C
:10426300A2E2500B9003511255F8A3A31255C7E5D0
:10427300087003024327EE2406F8EF3400F9E8FA46
:10428300E9FB8A828B83E0547FFCA3E054FCFDE5C9
:104293000824FFF508E434FFF509740778081212BF
:1042A30045EC4508F8ED4509F98A828B831255C719
:1042B30080728E828F83A3A3A3A3A3A3E04480026F
:1042C300422EE5087005750A0080598E828F83A3FC
:1042D300A3A3A3A3A3E054206012121BA3EA547F59
:1042E300245F8E828F83A3A3A3A380238E828F83D5
:1042F300A3A3A3A3A3A3E05410600A121BA3EA542D
:104303000F240A80DD8E828F83A3A3A3A37401F0FD
:10431300A3E412437374041245B18B09EA4509708F
:1043230003125543E50CA2E050288E828F83A3A38A
:10433300A3A3125B5EF9EEFAEFFB121549E96012D3
:10434300125572600312473BEEFAEFFB121C4B75DA
:104353000A00A90A025CE91256BB22FAE5093400F5
:10436300FB8A828B8322A3A3E0F508A3E0F509224D
:1043730012437722125DBCA3A3A3A3A32274F41256
:104383000A6E74F71211067E0012155BEA4B700376
:104393000244428A828B83A3A3A3A3A3A3A3A3A3BD
:1043A300E0640660030244428A828B83A3A3A3A32F
:1043B300A3A3A3E0FF8A828B83124C3EE0C0E07488
:1043C3000812134AD0E01247761258011255C71249
:1043D300156DEF54086066851882851983125E2D6A
:1043E3007A007B0012153D8B0BEA450B704F90034F
:1043F3006312486612244F7C007D007A007B0080A4
:10440300288E828F83124760F47003A3E0F4602D3B
:1044130090036312444912592B122143E9641A6031
:104423001C7C007D00EEFAEFFB12153D8A0A8B0B14
:10443300AE0AAF0BEE4F70C979001224557E01EE20
:10444300F974090239B512444D22E0FCA3E0FD8E54
:10445300828F8322C082C083EA4B70059003B580AC
:10446300068A828B83A3A312466660258A828B8386
:10447300A3A3A3A3A3A3A3E0540860E5EC4D601595
:104483008A828B831247606C7003A3E06D70D280C5
:10449300047A007B00024AFE74F2120A6EEAFEEB13
:1044A300FF890A8C088D097A107B00121C45EA4BA0
:1044B300603F8A828B83A3A3A3A3A3A3A3A3A3E4A1
:1044C300124764A3E50A126002A31244FE8A828B98
:1044D30083A3A3A3A3E4F0A3124770A3F0125E96F1
:1044E300EA240CF582EB124A021244F7A3A3F0A3C9
:1044F300F0023317A3F08A828B8322A3A3E508F08B
:10450300A3E509F02274F4120A6EEAFEEBFF8908B0
:104513008C0A8D0BEE4F6055740165087014790198
:1045230012154FE9F8902ED2E493C398500F7911E6
:10453300806A74046508702F1245A240F18E828F41
:1045430083A3A3A3A3A3A3A3A3A3E508124A12A32C
:104553001265878E828F83A3A3E4F0A3F09003B543
:1045630012557C6021800D7402650860D079C1808A
:104573002BE0F8A31255F1A3A31246668882898320
:10458300A3A370ED80039003B5EEF0A3EF1245B142
:104593008B0BEA450B700312554379000239B87946
:1045A3000412154FE9F8902ECDE493C39822F0122C
:1045B30045B6227A207B009003B0E0F9121D112248
:1045C300C082C083E9F879009003B5801D8A828B8D
:1045D30083A3A3A3A3A3A3A3A3A3E068600574FF7A
:1045E300687001098A828B83A3A312466670DE0278
:1045F3004AFE74F7120A6EEA4B70059003B5800603
:104603008A828B83A3A312466660248A828B83A348
:10461300A3A3A3A3A3A3A3A3E06970E4EC60148AF8
:10462300828B83E0240D125E1EA2E240D380047AC3
:10463300007B00025B71C082C0839003B580068A51
:10464300828B83A3A312466660128A828B83A3A301
:10465300A3A3A3A3A3A3E06970E580047A007B006E
:10466300024AFE1239AEEA4B2274F2120A6E8A0A29
:104673008B0B8C0C8D0D750800750900EA450B60DA
:104683002E9003B580068E828F83A3A31246B96052
:104693001EAC0CAD0DEEFAEFFB850A82850B83127F
:1046A300265EE9640170DFEEF8EFF988088909AA4C
:1046B30008AB09023317E0FEA3E0FFEE4F2274F7C5
:1046C300120A6E9003B51247567C007D00800DE8F8
:1046D300FCE9FD88828983A3A3124756E849603029
:1046E300EA687002EB6970E79003B512592BE86A28
:1046F3007002E96B88828983A3A3700812475690DE
:1047030003B580091247568C828D83A3A31255C724
:10471300025B7174F7120A6EEAFEEBFFEE4F60154F
:10472300121567124788125572600312473BEEFA5F
:10473300EFFB121C4B025B71EE240C12474812472D
:104743009D22EE241DF582EF3400F58322F582EFDE
:1047530012474B124AF522F582EF12474B12477D5F
:10476300221247682212600AA3A3A3A32212476856
:10477300A3A3221244F812477D22125FF5E022E040
:10478300FEA3E0FF228E828F83E0241C124C2F12A3
:10479300479D8E828F8312479D221247A5FB121CD1
:1047A3004B22E0FAA3E022C082C083EAFCEBFDECDB
:1047B3004D700479058044EC24FBF582ED34FF123F
:1047C300557A7007124801E0F46005121BAF80E3CD
:1047D3009003B0E0C0E0124801D0E0F0902ECFE4A7
:1047E30093F97AB77B03121BD9E96401700B7A0042
:1047F3007B20125547790080027904024AFEEC249B
:10480300FFF582ED34FFF5832274F4120A6EA2AF32
:10481300E433F508C2AF9003B71246B96038EE240B
:10482300FBF582EF34FF12557A7A007B209003B0B8
:10483300600512554A8005E0F9121BE5E4F50AF517
:104843000B780A121044EEFCEFFD7AB77B03121BC0
:10485300D37402121072E508A2E092AFEEFAEFFBF6
:104863000239B8125E31851882851983AA82AB8317
:104873002274F2120A6E74FC121106EAFEEBFF7543
:104883000AFE750BFF12152BE9600579110249F732
:10489300EE24151239C06037900D14E0C43354E090
:1048A300F8E0333354FC48C0E0EE24151238F3D05B
:1048B300E0124A12124A088B09EA45096011750A87
:1048C300FFEE240F1239C044041255D5D2E0F08E06
:1048D300828F831232DC6006EE24121249FFEE242B
:1048E300131239C07010902ED5E493C0E0EE241358
:1048F3001238F3D0E0F08E828F83E0A2E7500454A5
:1049030003801CEE24141239C07015900342E0C0DA
:10491300E0EE24141238F3D0E0F0900342E004F008
:10492300EE24111239C0640170169005D1E0600DB8
:1049330090034DE0700A8E828F83E070031249FC6E
:104943008E828F83E064017013EE240B12475A6446
:10495300027009EE240F1239C04440F08518828595
:104963001983AC82AD83EEFAEFFB1215918A088BA3
:104973000974FE650A700374FFF470098E828F83D5
:10498300A3A3125DACEA450960668E828F83E0C003
:10499300E0740112134AD0E0F0740212134A125E5B
:1049A3009A740112134A85820C85830D780C1210B8
:1049B30044EE240F1238F3120E5AEE240E1239C0AD
:1049C300F50C780C121048900356120E5A74071205
:1049D300134AE0F9AC0AAD0B12158B74071210726F
:1049E300E9FE74106E700BAA08AB09121C4B80020F
:1049F3007E10EEF97404023314EE2411F582EF12E3
:104A0300474BE4F022A31239AE79FF1224BB2212E2
:104A13004A1622F08E828F83A322C082C08374DE63
:104A23001211068A828B83A3A3A3A3124756740E83
:104A330012134AE8F0A3E9124AEC740C12134A1257
:104A43004AE5240DF582EB1239C3C0E0741A121340
:104A53004AD0E0F0125CF9EB124753742012134A68
:104A6300124AE52415F582EB1239C3C0E07408122B
:104A7300134AD0E0F0EA241CF582EB124753741278
:104A830012134A124AE52411F582EB1239C3C0E02E
:104A9300740912134AD0E0124AD974FFF074011258
:104AA300134A74FFF0740212134A74FFF090818466
:104AB300120E56740412134AAC82AD837407121398
:104AC3004AAA82AB831213DB740412107279007446
:104AD300221210728025124ADD22F0851882851970
:104AE3008322E8F0A3E9F0EA221244F8A3124AF47D
:104AF30022A3E0F8A3E0F92212592BD083D082023B
:104B0300102474EC120A6E74EE1211068A128B13BF
:104B1300ECFEEDFF8909742612134A125DAC74286A
:104B230012134AE0F510742912134A124C20742B05
:104B330012134AE0F50EA3E0F50F7508107A1E7BF9
:104B430000121C45740212134A12555474021213B4
:104B53004A12557C7003024C19851882851983AA61
:104B630082AB83795012542F12592B740212134AB9
:104B7300124C3EA3125554741012134A12658974D1
:104B83000212134AE0240B124C2B7402F012134A44
:104B9300124C3E7402F012134A125FED125E9A74C5
:104BA3000212134A125940E509F0740212134AE043
:104BB300240C124C2BE510F0740212134A124C28E9
:104BC300E512F0A3E513F0740812134AE50CF0A301
:104BD300E50DF0740A12134AE510F0850E82850F75
:104BE30083C082C083740D12134AAC82AD83D08319
:104BF300D0827403120FA0F9740212134AAA82AB73
:104C030083121531E9640170057508008008740288
:104C130012134A124741A9087412025DC3E0F50C4E
:104C2300A3E0F50D22E0241C124C2F22F8A3E0127E
:104C33004C36223400F98882898322125933A3A384
:104C4300A3A3A32274EE120A6EEAFEEBFF8C088D77
:104C5300098E828F83A37408125610E060088E8237
:104C63008F83A37410F01239BD60098E828F83A3E2
:104C7300E02408F0EE24151239C060088E828F8379
:104C8300A3E004F08E828F83A3A3A3A3A3A3E06076
:104C9300198E828F83A3A3A3A3A3A3A3E0C3332467
:104CA30002F88E828F83A3E028F0EE24111239C01C
:104CB3006005750B0E8003750B008E828F83A3C076
:104CC30082C083EE240D1239C0D083D082F8E0284D
:104CD300250B8C828D83F0EE24111239C0600512EE
:104CE300513B28F0850882850983E0C39475400908
:104CF300750800750900024E29E0FA7B00125F482F
:104D03007003024E29EEFAEFFB121597EA8508822B
:104D1300850983125555EE2402F8EF123C1D124FFC
:104D230023124E65F0EE24040808EF123C1D1253C3
:104D330065A3124E65A3A3F0EE2413124E4BF0EEBF
:104D43002414124E4BA3F0750A08EE24161239C030
:104D53006010EE2418125E2AE508240812602B75F1
:104D63000A101239BD6016EE241A125E2A850A0C47
:104D7300E508250C12602B7408250AF50A8E828F2C
:104D830083A3A3A3A3A3A3E06059EE2407F510EF25
:104D93003400F511851082F583E0C0E0124E321223
:104DA30038F6D0E0124E55E0C0E0124E321238F61B
:104DB300D0E0124E55A3124E3E121040851082854C
:104DC3001183E0C333FCE433FD850A0CE508250CAD
:104DD300125DA0121072851082851183E0C3332502
:104DE3000AF50AEE24151239C0600BC0E0124E32E8
:104DF3001238F6D0E0F01238F0124E3E121040EEA8
:104E0300240D1239C0FC7D00850B0A8E828F83A38B
:104E1300E0F8E50828F8E5093400F9E8250AFAE995
:104E2300125DA3121072AA08AB097F0A020D248532
:104E33000A0CE508250CF582E50922E0F50CA3E050
:104E4300F50D750E00780C22124748124E6FA3A37E
:104E5300A322F0050A8E828F83A3A3A3A3A3A3A3F4
:104E6300A322A3A3126096A3124E6F22125369A327
:104E7300A32274F6120A6E8A828B83E0FC9003539A
:104E8300124F1C74027808121245EC4508FCAD0958
:104E9300EA2412124F1674067808121245EC4508DC
:104EA300FCED4509FDEA2415F582EB1239C36004D4
:104EB300780180027800E4C8F9ED49FDEA2411F590
:104EC30082EB1239C3F50888097409780812124570
:104ED300ED4509FDEA2416124F16740B78081212D9
:104EE30045ED4509FDEA2417124F16740C78081294
:104EF3001245ED4509FD8A828B83A3A3A3A3A3A334
:104F0300124F1C740A7808121245ECFAED4509FB9E
:104F1300025585F582EB12474BE0F508750900222F
:104F2300E085088285098322A3E0F9850882850943
:104F3300832274EE120A6E8A0A8B0BECFEEDFF7568
:104F43000F01E9C39408500579000251288E828F1E
:104F530083E9F012538EE96003750F001253728ECA
:104F6300828F831253BCEE125CFAEF1253B1C0E08E
:104F7300EE24111238F3D0E01253A9C0E0EE24124C
:104F83001238F3D0E0124A127408125DB4A3A3A33B
:104F9300E0601512535AEE2413F582EF1255C48EB6
:104FA300828F83A3E02408F08E828F83A3A3A3A31D
:104FB300A3A3A3A3E060218E828F83A385820885A8
:104FC300830912539DEE2415F582EF1255C485080B
:104FD30082850983E02408F08E828F83A3A3A3A391
:104FE300A3E0601A8E828F83A385820885830912CA
:104FF30053818E828F83A3A3A3A3A312514DEE24C7
:10500300191249FFEE241B1249FFA3125608E07040
:10501300030250BCEE2419F8EF3400F98E828F831B
:10502300A3858208858309E0FAE50A2AF582E50B60
:105033001239C38882898312514DFAE50A2AF5820F
:10504300E50B1239C3C0E0EE241A1238F3D0E01294
:10505300514D88828983E06059F8902ECEE493C342
:1050630098500575110C8008EE24191239C0F511FA
:105073008E828F83A3E0F8E50A28F50CE50B125125
:1050830031121040E511C333FCE433FD7AB17B0BDD
:1050930012512B121072EE241B1238F374B1F0A3C9
:1050A300740BF0E511C333F8850882850983E02882
:1050B3008006EE2418126265F08E828F83A3E0F8D7
:1050C3008E828F83E0C3985003024F4BA3E0FA8A8A
:1050D30008E50A2508F8E50B3400F9EE241DF582EE
:1050E300EF1256D012515DC39AC0E0EE2417123866
:1050F300F3D0E01255CD602BEE2417F8EF3400F90E
:10510300880889098882F583E024F21256B1240EB7
:10511300FAA3E03400FB8882898312555412513B71
:10512300C398F0A90F024E2D121B7F740322340083
:10513300F50D750E00780C2290034EE0F91225B799
:10514300E9F8850882850983E022F08508828509CC
:1051530083E004F022A3A3A3A3A3F08E828F83E0B2
:105163002274F4120A6E8A088B09EA1251F2F0EAE9
:105173001313543F1251EBA3A3A3F0EAC413131266
:1051830051F2A3A3F0EB1251E41251FC7409780A13
:105193001212D91251E21251FB740A780A1212D96F
:1051A300E50A5401C0E0EC2418F582ED1238F6D07C
:1051B300E0125201740B780A1212D91251E2A312AF
:1051C30051FB740C780A1212D91251E2A3A3A3A3C0
:1051D300A3A3A3A3F0740D78081212D9023522E514
:1051E3000A54018C828D8322540F8C828D83225426
:1051F300038C828D83A3A322A3A3A3A3A3A3F08AD7
:105203000A8B0B22C082C08379008A828B83A3A37B
:10521300A3A3A3A3E090034D600FE070228A828BC7
:1052230083A3A3E07019098016E060138A828B833D
:10523300125922900356E06A7003A3E06B70E702F1
:105243004AFE74F0120A6E8A0A8B0B890C8C088D45
:105253000912538E1253728508828509831253BC37
:10526300E508125CFAE5091253B1C0E0E508241120
:10527300F582E5091238F6D0E01253A9C0E0123FD7
:10528300F41238F6D0E01256D874081256F16011B1
:1052930012535AE50824131256CC1256D8E02408A8
:1052A300F0850882850983A3A3A3A3A3A3A3A3E0F3
:1052B3006017850882850983A3125399E50824158D
:1052C3001256CC12515D2408F0850882850983A308
:1052D300A3A3A3A3E06019850882850983A3AE82F3
:1052E300AF8312538185088285098312515804F0D4
:1052F300AA08AB091215A9E9F50D70568508828530
:105303000983A3A3A3A3A3A31253657014E0FA8A8A
:105313000EE50A250EF8E50B1255B9E50CC39A8084
:1053230021125399E8240EF8E91255B990034EE07F
:10533300F91225B78E828F83E0F8E50CC39824F227
:10534300C399C0E0E5082417F582E5091238F6D0C1
:10535300E0F0A90D025CE9E50A2408F8E50B340046
:10536300F92212536922E0850882850983A32285E5
:105373000A82850B83A3A31253D2E0F9EA22E0F851
:10538300E50A28F582E50B1255E0228A828B831207
:105393005CEE1215A322AE82AF83E0F8E50A28F88B
:1053A300E50B3400F9221253E5A3A3A3E02212472D
:1053B3004BE81253DEA3A3E022A3A3A3A3A3A3A3B7
:1053C300A3A31253DE1253D2A3A3E0F9EAF822E017
:1053D300FA850A82850B83A3A3A322F0A3E91253C0
:1053E300E522F0850A82850B83A3A3A3A322C082AF
:1053F300C0837AC57B0379E212241F7AC57B03023B
:105403004AFEC082C083900356024AFBC082C08317
:1054130074FE121106851882851983AA82AB8379DB
:105423004B12542F12592B7402024AD412241F8593
:10543300188285198322C082C083794A12241F02ED
:105443004AFE74F6120A6E9003CDE0FE04F0EEF904
:1054530012155B8B09EA450970EDEE60EAF9025516
:105463008574F0120A6EEAFEEBFF8C088D09890A37
:10547300741012134AE0F50B741112134AE0F50C81
:1054830012167BEA4B7013E50C7042A90AAC08AD07
:1054930009EEFAEFFB121693806EE50A6021EA2407
:1054A30002F582EB1239C3850A082508F8E43400B3
:1054B30013E813F070098A828B83A3A37401F0E5C8
:1054C3000C6045E50B70068A828B83E4F0740165FA
:1054D3000C7035E50B9003D47004E4F0802AE004EB
:1054E300F0900D01E0F89003D4E0C398401AE4F083
:1054F300900359E06E7003A3E06F700CEEFAEFFBBC
:1055030079011213FF12550E025CE97A017B0090B8
:1055130003B0E0F9121D0B22C082C08374016A70CC
:1055230001EB70077A011255458012900CF8125561
:1055330054EA4B600512329E800312550E024AFE56
:105543007A207B009003B0E0F9121BDF223400F5D0
:1055530083EAF0A3EBF022C082C083900CFA0240EE
:10556300FEC082C083900CFC0240FE125FFC22EE60
:10557300240CF582EF3400F583124AF5E849221230
:1055830010727F02020D24A2F0E43385188285197C
:10559300831255A67952122425221255A679421256
:1055A300242522F0AA82AB8322AA08AB099003B078
:1055B300E0F9121BB5223400F9E508241DF582E554
:1055C3000912474BE8F0A3E9F022125DB8A3A3E068
:1055D30022A3F0EE24151255DD22F582EF3400F5F7
:1055E30083E0221255EA223400F583E0F8A3E0F9C0
:1055F3008882898322E0F81255FE22A3E0F98E8285
:105603008F83A3A322F0EE241812474822F0EE243E
:10561300161247482274F4120A6EEAFEEBFF7A0070
:105623007B041255121256A71255C79003657409CD
:10563300F01215B58A088B09AC08AD09EE241312D4
:1056430038F312592B1257FB640170487A0F125624
:105653009A60418A828B8374021256B1FAA3E0FBEB
:105663008A828B83A3E0FC8A828B83A3A3E0FBEC77
:10567300850882850983A3A31255558882898312DD
:10568300592F124F231255D4FAA3E0FB794A12245F
:10569300251255AC0239B87B00121BA98A088B0965
:1056A300EA450922900336124AF5900CFC22F0EEEB
:1056B300241DF8EF1256BB22124C36E0221256C4B8
:1056C300223400F5837401F022F582E50912474B79
:1056D300E8F0A3E9221256DC221256E022F08508F4
:1056E30082850983A3221256E0A3A3A3A322125601
:1056F300E9A3A3E022125B0212160922EE2417F596
:1057030082EF1256C41215B5EE241A124748EAF076
:10571300A3EBF02274F4120A6E74F31211068908D3
:10572300EAFEEBFF7C0D7D007900851882851983E5
:10573300AA82AB83121B8BEE241D1238F3125FED8A
:10574300A3E0F8741F58600A79011223F579000267
:1057530057F2E8A2E55008740C12134A7401F0E8FA
:10576300A2E75008740B12134A7401F0E8A2E6741E
:105773000A500812134A7401F0800812134AE064B5
:10578300017005EE24138003EE2415125E2A7402C1
:1057930012134AAA82AB8312240D1238F012580056
:1057A3001255C7740A12134AE0640170331232D1DE
:1057B300703B1215C18A0A8B0BA80AA90BEE240BA6
:1057C3001239C0687003A3E06970221215B5EAFCB0
:1057D300EBFD740212134AAA82AB831257FB600DCE
:1057E300851882851983AA82AB831213F9A90874D9
:1057F3000D0239B5EEFAEFFB122407E922E0125845
:105803000522F8A3E0F98518828519832274F6121C
:105813000A6E74F31211068A088B09ECFEEDFF7C05
:105823000D7D007900851882851983AA82AB8312C6
:105833006192A3A3A3A3A3A3A3A3A312589A125849
:10584300A3F8A2E55008740B12134A7401F0E8A2FE
:10585300E75008740A12134A7401F0E8A2E6EE5006
:1058630004241380022415125E2A740212134A12AE
:10587300588CA3A3E0C0E0740C12134AD0E0125A70
:10588300FA1213F3740D025582AA82AB8312240D0C
:1058930085088285098322E0125805E8F0A3E922EE
:1058A300F0124745125FF1A3E02274F7120A6E74F7
:1058B300E1121106EAFEEBFF8E828F8312592FA3AA
:1058C300A3A3E0A2E050518E828F831234318A82E7
:1058D3008B83A3A3A3A3A3A3E054FE1259478A82F5
:1058E3008B83125940E0F98A828B83E0241CFAA34C
:1058F300E012436112592B1215AFE9701B741D128C
:10590300134A12593A7011851882851983AC82ADF6
:1059130083EEFAEFFB1215F7025B6C8E828F83A383
:10592300A3A3A3A3A3A3A3A31239AE221259332281
:10593300125FF5A3A3A32212477D640422E0241B74
:10594300124C2F22124ADDAC82AD8322E9F8790092
:10595300740468600A740A68600574036870010956
:1059630002102474F6120A6E8A828B837420F0A3C9
:10597300A37401F01213A58A088B09AE08AF09EED0
:105983004F60108E828F837401F09003A3E0700345
:105993001256FFEEFAEFFB025585C082C0839003D7
:1059A300B97401F0E9A2E350037403F0E9A2E150F2
:1059B30004E0D2E2F0024AFE74F6120A6E79007C29
:1059C300008A088B097808120D6AF8FF07EE59EC74
:1059D30059EC59EC59EC59E559E959EE59E2590C8E
:1059E30080097C0480050C80F67C089003B9E05C98
:1059F3006003098003EC60010902558574F6120AFD
:105A03006E8A828B83E07012A312557C600C8A82AB
:105A13008B8312592A1225BD80047A007B0002551C
:105A23008574F5120A6E74F31211068A088B09EC59
:105A3300FEEDFF750A12EA450970057900025AF373
:105A4300900356E065087004A3E06509701412150D
:105A5300B5EAFCEBFD1257F77005750A0180037573
:105A63000A00851882851983E4F00412134AE508B5
:105A7300F0A3E509125AFA121369E96027740312B5
:105A8300134AAA82AB831224DFE964017016750AF4
:105A930001740312134AAC82AD831257F760217568
:105AA3000A00801C7412650A70169003A2E0640257
:105AB300700EEEFCEFFDAA08AB09121381E970DF4B
:105AC300EEFCEFFDAA08AB09121681E9F8740A6827
:105AD3007005750A01801774A0687012EEFCEFFD63
:105AE300AA08AB0912168DAA08AB0912169FA90AB8
:105AF300740D0264FA7402125AFE22125B0222121D
:105B03004ADDAA82AB832274F7120A6EEAFEEBFF28
:105B13008E828F83A3A3A3A3A3A3A3A3E06015EE05
:105B230024151238F312399E121621E96401700408
