:020000040000FA
:060000000212980207BB8A
:03002B000210BF01
:03003300020E704A
:03004300020F5B4E
:030053000206ECB6
:03006B00020E562C
:100083000207500101FF0503013018301830183002
:1000930018EC16E61630182F2C00000000912C00E7
:1000A3000000000C0000000C0001040000101A0006
:1000B3000000000000D01A00000000000000000053
:1000C30000FFFF010101010021050000007205E8A6
:1000D3000364006400B8010202000800000502077F
:1000E300051E02051E0A03B80B020102F1FF021FDF
:1000F30000E0079651180002020612303132333401
:10010300353637383941424344454600286E756CCD
:100113006C20706F696E74657229003F3F3F000069
:1001230000807F0000803FF9021550B743BA5100A9
:1001330000204100E7DB2E0000A040100000000873
:100143000000000A0000001212E460461212B760B9
:100153003DE9687008F618F618F618F622748067F9
:10016300F712017E090909748067F7221212B7603A
:100173001D1212E47005191919801A121131701F1A
:1001830012115BC37003E667331919194007181876
:10019300182208080874FFF618F618F618F6221243
:1001A300115B6017121323702192F012132D701933
:1001B300501720F014080808090909E7F61819E789
:1001C300F61819E7F61819E7F62212132D60E6E878
:1001D30069701F0808E62480F608E436F618547F91
:1001E300B47F0CE654806007F6E418F618F622187C
:1001F3001822E9C6CC08C6CD08C6CE08C6CFC0E0D3
:10020300E8C0E0EAC0E0EBC0E009E9F809E7FA0971
:10021300E7FBE6F918E6F8C3EC98ED99EE9AEBC222
:10022300E7F5F0EFC2E795F0500E600CEBCFFBEA79
:10023300CEFAE9CDF9E8CCF8EAA2E7D2E7FAEB3354
:10024300FB13F5F0EEA2E7D2E7FEEF33FFC5F013A1
:10025300A2E730E601B313C5F0C3C0E0C0F07F00EE
:10026300C39BFB605B9418600C401AD0E023F9D069
:10027300E0F802034D8AF0E9486003D2F0E4AFF0FE
:10028300FAF9F8803BEB30E40D89F0EA6003D2F031
:10029300E4AFF0F9CAF8EB30E30D88F0EF6002D277
:1002A300F0AFF0E4CAC9F8EB54076014FBC3EA13D8
:1002B300FAE913F9E813F8EF135002D2E0FFDBED8C
:1002C300D0E0C0E030E739C3E49FFFF5F0EC98FCE1
:1002D30042F0ED99FD42F0EE9AFE42F0D0E0F9D003
:1002E300E0F8E5F0607AE923F9EE20E742D80280EE
:1002F30067C3EF33FFEC33FCED33FDEE33FE80EAEF
:10030300EC28FCED39FDEE3AFED0E023F9D0E0F81D
:100313004002801BC3EE13FEED13FDEC13FCEF1341
:100323005002D2E0FF08B800067F7F74FF802EEFF3
:100333003350178CF020F00260100CBC000C0DBD84
:1003430000080EBE000408E860DFE933E813FFEE9F
:100353002313FE4F4D4C8008E95480FFE4FEFDFC5F
:10036300EE33EF33F47004FCFD7E80D0E0FBD0E08D
:10037300FAD0E0F8D0E0CFC618CEC618CDC618CC58
:10038300C6F9221212B77004181818221212E47058
:100393000D74FFF61819F61819F61819F622E75412
:1003A3008066F612132D700F12132370F014F608E3
:1003B300F608F608F680D1121323700CF608F60837
:1003C300768008E6447F80EC12115E700C121134C3
:1003D30060BFE65480F6E480BB121134700519192E
:1003E3001980A5E869700C763F18768018F618F620
:1003F300E8F922E6CDC0E018ECC0E0E633CD33CD1A
:10040300D313F6E719FCE7191933CC33C3947F40B0
:100413000ECD9D502408E65480F6E418F6800FF4C0
:10042300043D14501408E6447FF6187680E418F669
:1004330018F6D0E0FCD0E0FD22CCD313CCFD18E4B9
:10044300C6CBC0E018E4C6CAC0E00808ED08C6334E
:10045300E613F618E433C675F003C3CA97CA09CB8B
:1004630097CB199C40047D08802EBD000302052F05
:1004730016B6FF050606081618C3CA33CACB33CB14
:1004830033CA27CA09CB37CB193CC37D08803E1832
:100493007D0820E75CC633C6CA33CACB33CB33DD12
:1004A300F1D5F0EB30E77BCA97CA09CB974ACB1952
:1004B3009C406F4B7025E620E0218066187D08C3C1
:1004C300CA97CA09CB97CB199CD3C633C6CA33CABA
:1004D300CB33CB3350C9DDE7D5F0E1D3E4C636C621
:1004E30008C636C608C636C608C636C618181880E3
:1004F30031C3CA97CA09CB97CB199CB34097C6336C
:10050300C6CA33CACB33CB33DD34D5F02EC6A2E013
:10051300C640C8CA27CA09CB37194A70BECB3CB4F8
:1005230080B90808E63308E633601F181818D0E0CE
:10053300FAD0E0FBD0E0FCD0E0FD22187D08CA270A
:10054300CA09CB37CB193CD3808013F618E4B67FA6
:1005530011F618B6FF0EF618C60470D20808768096
:1005630080CAF618F618F680C5001212B7604F124B
:1005730012E46012E7548066F612113170111213FF
:1005830023703B090909F4F618F618F618F6221237
:10059300115B701512132D08080860EAE6447FF614
:1005A30018768018E4F618F62212132D601612132B
:1005B300237012E4F608F608F608E65480F60909F3
:1005C3000918181822EAC0E0EBC0E0ECC0E0EDC067
:1005D300E0E687F0A4FBACF008E687F0A42CFCE48B
:1005E30035F0FA1809E687F0A42C4B60027401CAAF
:1005F30035F0FCE433FB09E687F0D2F7A42CCB35C6
:10060300F0FC1908E687F0A42BCC35F0FBE433FDAE
:100613000819E687F0D2E7A42C4ACB35F0CD340095
:10062300FC09E687F0D2E7A42DCC35F0FDE433FADC
:100633000918E687F0D2F7A42CCD35F0CA3400FCB4
:1006430008E687F0D2E7D2F7A42ACC35F07A7E20E9
:10065300E70B0ACB33CBCD33CDCC33CC33CB3350B9
:10066300147004ED30E00ED2F1E4CD3DCDCC3CCCA2
:100673003B5005DA05C2F1EB547FC63308E63392EB
:10068300F0FBE73309E733C39A502D2B70190C0D98
:100693004C4D70151806E608C333700D20F10AA2FD
:1006A300F013F6E418800B4024E4F630F002768071
:1006B30018F618F618F68024D33B14501074FFA2D2
:1006C300F013F6187680E418F618F6800FA2F013EC
:1006D300F618E63303F618ECF618EDF6D0E0FDD085
:1006E300E0FCD0E0FBD0E0FA22C0E074F2120ADBB7
:1006F300A2AFE433FED2AFE5A7FFE5A1F5085F544F
:1007030010600612217875A1EFE5085F54086008B0
:1007130012217E75A1F7802BEFA2E0C0D0E508A2DD
:10072300E092F01211E6158182F05017906198E083
:10073300F890084BE0C398A2D265D0335002E8F09A
:1007430075A1FEEEA2E092AF7F01020B3AC0E07406
:10075300F2120ADBA2AFE433FED2AF9061A4E0F859
:10076300759B00E59158540860087591F71221C6EE
:10077300802AE59158541060087591EF1221CC80BE
:100783001BE8A2E0C0D0E591A2E092F01211E615B9
:100793008182F05007E0C2E0F01223109061A3E0E1
:1007A300F8E5E9585404600E1222E675E9FB9061FE
:1007B30093E0A2E640F2808BC0E074F2120ADBA25F
:1007C300AFE433FED2AF9061A5E0F8E5BF5854041F
:1007D300600675BFFB122328020746C3E498F8E4BA
:1007E30099F912081F8026C3E49AFAE49BFBE920D7
:1007F300E7E912081FE498F8E499F922C3E498F8AA
:10080300E499F912081FE498F8E499F9C3E49AFA11
:10081300E49BFB22EB20E7CFE920E7E0B90010BB24
:100823000008E88AF084F8AAF022E4FBC8FA22EB75
:1008330070227B10C833C8C933C9335007C39AC366
:10084300DBF280069A50012ADBEAC833F4C8C933C5
:10085300F4C9FA2275F008E4C833C8C933C933C9E7
:100863009AC99B5004C92AC93BD5F0ECFBC833F4A1
:10087300C8E4C9FA221208B820F01430E72B74FF39
:10088300FCFBFA747F8022E4FCFBFA7480801AB4C8
:100893008008BC00F2BB00EF800F50EBF9E4C39A71
:1008A300FAE49BFBE49CFCE499C6CC18C6CB18C6BF
:1008B300CA18C6F922E4C9C608CAC608CBC6D333C8
:1008C3000308CCC63392F0C3947F402E941840198A
:1008D300C9B90704CACBCC225025C309CA33CACB32
:1008E30033CBCC33CC33D9F422F4600DC9CCC3134E
:1008F300CB13CBCA13CAD9F6CC22E4FCFBFA2214DD
:10090300FCFBFA22080808EAC0E0EBC0E086F0E747
:10091300A4FA180986F0E7A42AFA180986F0E7A4CE
:100923002AFA180986F0E7A42AFA1986F0E7A4FB45
:10093300E5F02AFA190886F0E7A42BFBE5F03AFA6A
:10094300190886F0E7A42BFBE5F03AFA1818098694
:10095300F0E7A4C5F02BFBE43AFA1908E7C5F0C6A3
:10096300A426F6E5F03BFBE43AFA1886F0E7A4F692
:10097300E5F00826F6E43B08F6E43A08F6D0E0FB97
:10098300D0E0FA22080808E630E71112119912099B
:100993009F080808C64480C618181822181818E9B2
:1009A300799EC608CAC608CBC608CCC6C3702079D0
:1009B30096CACBCC7019798ECBCC70137986CC7058
:1009C3000EF9802ACA33CACB33CBCC33CC3319309C
:1009D300E7F2CCCBCA3350147004EA30E00DE4CA1A
:1009E3003ACACB3BCBCC3CCC500209C3E913C6CCAF
:1009F300182313C6CB18C6CA18C6F922E4CFC0E021
:100A0300E4CEC0E0E4CDC0E0E4CCC0E075F020C3A8
:100A1300E633F608E633F608E633F608E633F61867
:100A23001818EC33FCED33FDEE33FEEF33FFC3EC6C
:100A33009709ED9709EE9709EF97191919400FFFD9
:100A4300EC97FC09ED97FD09EE97FE191906D5F011
:100A5300BEECF709EDF709EEF709EFF7191919D00D
:100A6300E0FCD0E0FDD0E0FED0E0FF222518C582F7
:100A7300C0E0E51934FFC583C0E0E518C3958224BF
:100A8300F810AF0885831985821880088583198536
:100A93008218D2AFCEF0A3E520F0A37808E608F0E1
:100AA300A3DEFAEFF0A3E58124FAF8E608F0A3E663
:100AB30008F0A3E608F0A30808E608F0A3E608F0A8
:100AC300A315811581D0E0FED0E0F81581158115BD
:100AD30081E8C0E0EEC0E022C0D02518C582C0E0A6
:100AE300E51934FFC583C0E0E518C3958224F310EC
:100AF300AF08858319858218800885831985821834
:100B0300D2AFC8F0A3E9F0A3EAF0A3EBF0A379080E
:100B1300E709F0A3D8FAECF0A3EDF0A3EEF0A3EF0E
:100B2300F0A3D0E0F0A3D0E0F0A3D0E0F0A3E52061
:100B3300F0A3E5F0F0A322851983851882E0C0E0D5
:100B4300A3E0F9A3E0FAA3E0FBA37808E0F608A387
:100B5300DFFAE0FCA3E0FDA3E0FEA3E0FFA3E0C017
:100B6300E0A3E0C0E0A3E0F5D0A3E0F520A3E0A379
:100B7300F5F010AF088583198582188008858319DD
:100B8300858218D2AFD082D083D0E0F8D0E0321281
:100B93001318B90003020BD4E490030178A2790A75
:100BA3008002F0A3D8FCD9FA900CA2AA82AB83905E
:100BB300008678C579018015E493A3AC82AD838A5E
:100BC300828B83F0A3AA82AB838C828D83D8E9D9ED
:100BD300E775829C7583B8740312101E75822E7597
:100BE3008326740012101EE80375F0108E1A8F1BF3
:100BF30085821F85831E851882851983E0CEA3E035
:100C0300CF851F82851E83EBC9EAC8EDCBECCAC32F
:100C1300E833C8E933C9EA33CAEB33CBC3EA9EF5F9
:100C23001DEB9FF51CB35004AB1CAA1DEC33CCED9C
:100C330033CDD5F0DAAE1AAF1B221212B7601C12F5
:100C430012E4601712132D70071213237001D322BD
:100C5300C0D01213237006D0D0B322C32233D0D016
:100C6300501430E0F6C3E7960809E7960809E796BB
:100C73000809E796B32220E0D5E6970809E6970826
:100C830009E6970809E697B3221212B7601B1212FE
:100C9300E4601612132D7007121323600CB322C0E5
:100CA300D01213237005D0D022C32233D0D05013D7
:100CB30030E0EBC3E7960809E7960809E7960809C9
:100CC300E7962220E0E4E6970809E6970809E69705
:100CD3000809E69722D083D082ECC0E0EDC0E0E4BF
:100CE30093A3FCE493A3FDED4C600D120DB0EC2433
:100CF300FFFCED34FFFD80EFE493A3FCE493A3FD3D
:100D0300ED4C600D120EE0EC24FFFCED34FFFD8092
:100D1300EFD0E0FDD0E0FCE493A3C0E0E493C0E0B7
:100D230022851983851882E0A3FEE0A3F5207808C5
:100D3300E0A3F608DFFAE0A3FFE0A3C0E0E0A3C06E
:100D4300E0E0A3C0E0E0A3C0E0E0A3C0E010AF0890
:100D53008582188583198008858218858319D2AF07
:100D6300D083D082021024D083D082E9C0E0E49300
:100D7300A3C386F0C5F095F0F908E493A386F0C504
:100D8300F095F0700BE493A3C3994005E904800246
:100D9300A3E475F002A42582F582E5F03583F5839B
:100DA300D0E0F9E493A3C0E0E493C0E022C0E0C341
:100DB300E49396087401939618400FE493667008C1
:100DC30008740193661870007019A3A3C3E4939683
:100DD300087401939618A3A3400DD0E0D0E0D0E0AF
:100DE300020D14A3A3A3A3A3A3D0E022D083D08294
:100DF300C5F0E493A3C5F0C395F0F5F0E493A3C362
:100E030095F04005E5F0048001E475F002A4258225
:100E1300F582E5F03583F583E493A3C0E0E493C062
:100E2300E0227404800474028000CCC0E0EDC0E0D2
:100E3300E518C39CCCAD1950011D10AF068C188D5D
:100E43001980068C188D19D2AF120FA0D0E0FDD0F7
:100E5300E0FC22C0E074F2120ADBE589A2E1500350
:100E6300122034758900C2C57F01020B3AC0E074B9
:100E7300F2120ADBE58BA2E05003122034758B00DB
:100E8300C2E880E474028000CCC0E0EDC0E0E51865
:100E9300C39CCCAD1950011D10AF068C188D198061
:100EA300068C188D19D2AF120F7ED0E0FDD0E0FC76
:100EB300221212B760251212E4602012132D700360
:100EC300021323080808E76670101819E766700A0A
:100ED3001819E76670041819E76622F422C0E0C007
:100EE300F088F0E493667008087401936618700044
:100EF300A8F0A3A3700BD0F0D0E0D0E0D0E0020DB7
:100F030014A3A3D0F0D0E022D083D082CCC0E0E4FD
:100F130093A36006120FC11470FAE493A360061240
:100F230010F01470FAD0E0FCE493A3C0E0E493C0A3
:100F3300E022C008C3E096F50808A3E0964208083B
:100F4300A3E096420808A3E0964208A2D265D033F4
:100F5300E5087001D3D00822C0E074F2120ADBA2C4
:100F6300AFE433FED2AFC2C0E5D1A2E450031220F6
:100F7300EEEEA2E092AF7F01020B3ACAC0E0E49327
:100F8300A3C582CCC582C583CDC583F0A3C582CC5E
:100F9300C582C583CDC583DAE5D0E0CA22CAC0E0E5
:100FA300E0A3C582CCC582C583CDC583F0A3C5822A
:100FB300CCC582C583CDC583DAE6D0E0CA22C0E0C2
:100FC300E493A3D39C5010E493A3C39C400AD0E0C2
:100FD300D0E0D0E0020F28A3A3A3D0E02270090839
:100FE3000808226016181818C6C333C608C633C6C5
:100FF30008C633C608C633C6D5E0EA22C008C3E034
:1010030096F50808A3E096420808A3E0964208086C
:10101300A3E09645087001D3D00822C09FF59FE452
:1010230073D09F22D083D082C09FE493C0E0740129
:1010330093C0E0740293F59F227404800A740380C2
:1010430006740280027401C0E0F404121057D0E069
:101053001212F3222518F58210AF08F51840021575
:10106300198008F51840021519D2AF85198322C0DB
:10107300D0251810AF08F518500205198008F51887
:1010830050020519D2AFD0D022BB0102E722C082A1
:10109300C08389828A83BB0003E08002E493D08308
:1010A300D082226016080808C6C313C618C613C622
:1010B30018C613C618C613C6D5E0EA22C0E0C0D0CE
:1010C300E8C0E0E5A8D2AFC2C7A2E792AFD0E0F88C
:1010D300D0D0D0E032C3E0C696F608A3E0C696F6B9
:1010E30008A3E0C696F608A3E0C696F622C0E0E49D
:1010F30093A36C7009D0E0D0E0D0E0020F28A3A343
:10110300D0E022251810AF08F51840021519800801
:10111300F51840021519D2AF22E066701008A3E05B
:1011230066700A08A3E066700408A3E06622181834
:1011330018E6084608700AE608C3337005E633F478
:10114300220822E76670100809E766700A0809E7B3
:101153006670040809E76622191919E70947097037
:101163000AE709C3337005E733F4220922C3E09683
:1011730008A3E09608A3E09608A3E096A2D265D060
:101183003322C3E096F008A3E096F008A3E096F0BC
:1011930008A3E096F022181818E4C396F608E4961C
:1011A300F608E496F608E496F622E026F608A3E0AD
:1011B30036F608A3E036F608A3E036F622E026F07A
:1011C30008A3E036F008A3E036F008A3E036F022E7
:1011D300E627F60809E637F60809E637F60809E6CA
:1011E30037F622C0E0E8C0E0E58124FCF8E6A2E798
:1011F300D0E0F8D0E022E657F60809E657F60809EA
:10120300E657F60809E657F622E056F608A3E05635
:10121300F608A3E056F608A3E056F622E647F608DA
:1012230009E647F60809E647F60809E647F6227095
:101233000422600D18C6C333C608C633C6D5E0F40E
:101243001822E056F008A3E056F008A3E056F00891
:10125300A3E056F022C3E09608A3E09608A3E09625
:1012630008A3E09622C6F4C608C6F4C608C6F4C6A8
:1012730008C6F4C622600D08C6A2E713C618C61333
:10128300C6D5E0F322C3E7960809E7960809E7966F
:101293000809E7962275D000758140751801751904
:1012A3000300020B92E6F008A3E6F008A3E6F008B9
:1012B300A3E6F022E6084608C3134608336002E6B5
:1012C30033F422600C08C6C313C618C613C6D5E090
:1012D300F422E0F608A3E0F608A3E0F608A3E0F69C
:1012E30022E7094709C3134709336002E733F422AE
:1012F300CAC0E0E6F0A308DAFAD0E0FA22EAF0A3E3
:10130300EBF0A3ECF0A3EDF022E0FAA3E0FBA3E003
:10131300FCA3E0FD22E5C754F84401F5C779012297
:10132300E7C33319471947194722E6C33318461849
:10133300461846222518F582E43519F58322C2AFF3
:1013430075D69F0200002212102768DE01121027B3
:10135300ACDE01121027D3DE0112102724DF0112A5
:101363001027D4DF011210278CE00112102754E15B
:101373000112102731E201121027B7E201121027E0
:10138300C6E201121027D1E201121027DAE301129B
:101393001027EBE30112102761E401121027F3E495
:1013A300011210274BE50112102711E60112102735
:1013B30042E60112102787E60112102794E6011274
:1013C300102728E8011210278BE901121027A7EA3A
:1013D3000112102711ED011210271CED0112102725
:1013E30026ED0112102731ED011210273BED0112FA
:1013F300102745ED0112102750ED011210275BED68
:10140300011210278CED01121027B0ED01121027E5
:10141300D4ED0112102739EE011210277DEE0112CF
:10142300102799EE0112102710EF0112102748EF31
:101433000112102794EF01121027F1EF0112102768
:10144300D3F10112102759F2011210272AF30112C6
:1014530010273AF6011210278FF601121027BBF658
:101463000112102707F80112102757F8011210274D
:10147300ACF801121027ADF90112102745FA011239
:101483001027C7FA0112102767FB01121027B12E8C
:1014930000121027EA2E00121027C4300012102762
:1014A3000331001210274D3100121027F2310012C0
:1014B3001027513200121027853200121027F23202
:1014C300001210270F3400121027173500121027AF
:1014D300AD3500121027F438001210279D39001281
:1014E3001027793A00121027DA3A00121027F73B37
:1014F30000121027213E00121027D83E0012102799
:10150300E23E00121027153F00121027DC3F0012A5
:101513001027774000121027DC40001210270541E6
:1015230000121027274100121027564300121027DC
:101533002D4400121027714400121027DE440012BC
:101543001027994500121027CB45001210270F468C
:101553000012102742460012102797460012102748
:10156300EC4600121027804700121027E2470012B2
:1015730010274A4800121027F34900121027DB4AAC
:10158300001210271D4C001210274B4E001210277B
:101593000B4F001210273A5100121027DD51001291
:1015A30010271B5200121027C75300121027DB53BA
:1015B30000121027E553001210270F5400121027B2
:1015C3001B54001210273A5400121027F154001232
:1015D30010273055001210273A5500121027EE55E8
:1015E30000121027ED5600121027E657001210279D
:1015F3008358001210272559001210273C59001256
:101603001027735900121027915900121027D5592A
:1016130000121027FA5900121027E05A001210275F
:101623004C5B00121027C65B00121027D55C00121A
:101633001027145E00121027765E00121027305F09
:1016430000121027535F0012102727600012102783
:10165300726000121027B460001210270B61001291
:101663001027426100121027706100121027A96130
:1016730000121027CE6100121027566200121027A5
:10168300796400121027D864001210276C650012C9
:101693001027D865001210272C6600121027CFD010
:1016A300031210270ED10312102770B40112102752
:1016B300CAB40112102726B50112102772B5011200
:1016C30010278DB501121027BEB501121027DBB507
:1016D30001121027E7B5011210275BB7011210277B
:1016E30074B701121027DBB701121027EEB70112EE
:1016F3001027FCB701121027B0B80112102794B9B4
:10170300011210279ABA0112102720BB01121027C9
:101713002ABB0112102797BB01121027AEBB01127F
:101723001027E0BB0112102719BC0112102743BC7C
:1017330001121027A4BC01121027C4BC01121027E8
:10174300E2BC0112102728BD011210274EBE011260
:1017530010279BBE01121027CABE0112102740BFDB
:101763000112102768BF01121027A1BF0112102711
:10177300AFBF0112102707C00112102756C0011274
:10178300102795C001121027C5C001121027F1C000
:1017930001121027FCC0011210271AC101121027D1
:1017A300DCC101121027E6C10112102721C2011268
:1017B300102737C20112102740C20112102795C209
:1017C30001121027A9C201121027B7C30112102753
:1017D300CAC301121027DFC30112102781C40112EB
:1017E300102704C501121027C2C501121027CDC549
:1017F30001121027F3C6011210270FC70112102779
:1018030061C701121027A0C701121027B5C7011223
:101813001027F7C70112102744CA01121027C2CAA2
:101823000112102735CB0112102757CD01121027B3
:101833006FCD0112102772CD011210277ECD011238
:10184300102792CD011210279ACD01121027CDCD6A
:10185300011210277DCE01121027F3CE011210279B
:1018630066CF011210271AD001121027CFD0011210
:101873001027EED0011210278ED1011210279AD112
:1018830001121027C5D101121027C8D10112102748
:1018930032D2011210275AD30112102732D4011267
:1018A3001027BDD401121027D6D50112102793D6C5
:1018B30001121027CCD601121027FDD601121027D2
:1018C3009DD701121027CDD701121027A8D80112D6
:1018D300102741D901121027CCD9011210277DDA24
:1018E30001121027FFDA0112102731DB0112102732
:1018F30072DB01121027C0E20212102725E3021245
:10190300102762E302121027B1E302121027C7E582
:1019130002121027AAE70212102714EB0212102753
:101923004FEB0212102771EB02121027D4EB0212B5
:10193300102708EC021210272BEC0212102758EC88
:1019430002121027B4EC02121027AACC021210279D
:1019530028CD021210275ECD02121027CACD021223
:1019630010273DCF0212102759CF021210279ECF06
:10197300021210272CD00212102785D00212102732
:10198300B2D102121027C4D20212102721D302129D
:1019930010278DD302121027EED3021210272FD453
:1019A30002121027DCD402121027EED502121027E0
:1019B30019D60212102764D602121027ABD60212D0
:1019C30010273DD702121027F8D702121027D1ACE7
:1019D3000312102701AD0312102756AD031210276F
:1019E300DCC203121027EDC2031210273EC30312F9
:1019F300102783C3031210272DC403121027B8CC5A
:101A03000312102739BE0312102791BF03121027A8
:101A13006FD80212102714D90212102734D90212D8
:101A2300102754D90212102768D902121027C0D9DF
:101A330002121027F0D90212102771DB02121027AD
:101A430017DC02121027F9DC021210274ADD0212FA
:101A530010278DDD02121027D0DD0212102736DE8B
:101A63000212102757DE02121027E3DE021210279C
:101A730014DF0212102788DF0212102736E1021248
:101A8300102710E20212102752E202121027ACE2D2
:101A930002121027B0BA03121027D1BA031210276B
:101AA30007BC0312102731BC031210276DC10312A8
:101AB3001027F9C10312102703C20312102724C2EF
:101AC30003121027BBC2031210276DC00212102786
:101AD30070C0021210272AC10212102755C1021228
:101AE30010279CC102121027C1C102121027E2C1A4
:101AF3000212102716C2021210274FC20212102719
:101B030078C302121027AFC302121027CFC30212E9
:101B130010276AC4021210272FC50212102766C5A8
:101B230002121027DBC6021210277EC702121027EB
:101B330077C802121027A0C802121027F4C8021295
:101B43001027BAC902121027E8C9021210277DCB49
:101B530002121027FECB0212102731CC02121027DB
:101B630000ED021210270AED0212102756ED0212A1
:101B73001027C4ED02121027E5ED02121027FCED29
:101B830002121027ACEE0212102740F102121027A6
:101B930049F1021210279CF102121027C5F102121B
:101BA30010272CF202121027BDF202121027FFF2A7
:101BB3000212102749F302121027A8F3021210276A
:101BC30039F40212102778F402121027B7F4021224
:101BD3001027ECF402121027CCAF0112102710F5D6
:101BE300021210272FF50212102738F502121027C0
:101BF300EEF5021210272EF6021210271099031287
:101C03001027E39903121027FD99031210270E9A48
:101C130003121027239C03121027429C0312102740
:101C23006AB603121027A0B603121027E9B60312EF
:101C3300102739B803121027666600121027A5670C
:101C430000121027E16700121027A0690012102765
:101C5300C969001210272DDE01121027A06C001293
:101C63001027296E00121027C16E00121027296F4A
:101C730000121027CA6F001210270C7000121027D1
:101C83004C7000121027D7710012102747730012EF
:101C930010276C75001210279A7500121027C17552
:101CA30000121027CA75001210272576001210277C
:101CB300B87600121027D67900121027577A00122F
:101CC3001027E97F0012102793FF021210271BA190
:101CD300031210272EA103121027CBA103121027E2
:101CE30006A20312102721A20312102746A20312F1
:101CF30010278BA203121027BCA203121027EDA2F8
:101D03000312102773A40312102703C7031210270B
:101D130039C70312102755C70312102797C7031299
:101D23001027A7C7031210273CC80312102746C861
:101D3300031210277C9403121027479503121027D0
:101D4300F795031210270D960312102744970312D9
:101D53001027799803121027FE9803121027DEB07C
:101D63000212102736B102121027E0B10212102717
:101D730088B202121027E5B2021210273EB30212F4
:101D8300102752B3021210271CB50212102797B561
:101D930002121027C1B5021210277EB702121027B4
:101DA30099B702121027E8B702121027FEB70212E2
:101DB30010270BB8021210273FB80212102755B88C
:101DC30002121027DBB802121027EAB802121027FA
:101DD30043B9021210279DB902121027EBB9021260
:101DE3001027F5BA0212102777BD0212102711BE71
:101DF3000212102753BE02121027E8BE0212102748
:101E030005BF0212102708BF021210270BBF0212D0
:101E130010277EBF0212102799BF02121027C5BFD9
:101E23000212102700C00212102703C0021210274B
:101E330016C0021210273DC0021210274CD0031205
:101E4300102758D00312102792D0031210270DA188
:101E53000212102738A10212102704A2021210271F
:101E630089A202121027F2A2021210273EA3021225
:101E73001027BDA3021210274FA402121027DBA4C0
:101E8300021210271DA50212102789A9021210277A
:101E930009AB0212102748AB0212102711AC021231
:101EA3001027C5AC0212102775AE0212102701AF1E
:101EB30002121027008002121027BA800212102784
:101EC3002C81021210273B8102121027B5810212C6
:101ED30010272482021210272E8302121027578301
:101EE30002121027F78302121027458402121027CB
:101EF300B58402121027E98502121027C586021243
:101F03001027368702121027B3880212102775890B
:101F130002121027108A021210276B8A021210274E
:101F2300D68A02121027DA8B021210279B8D021217
:101F330010273A8E02121027AC8E02121027698FD7
:101F430002121027A0A703121027F4A703121027C9
:101F53004CA80312102797A803121027F9A80312FD
:101F6300102792A903121027FAA90312102706AA11
:101F73000312102714B40312102745B403121027B9
:101F8300FFB40312102765B503121027D6B5031249
:101F9300102724B903121027A5C503121027B2C5B1
:101FA30003121027C7C503121027DCC5031210271D
:101FB300F9C5031210271DC60312102746C60312C4
:101FC300102767C60312102790C603121027ABCD44
:101FD30003121027BCCD031210275CCE0312102767
:101FE30081BC031210278FBC0312102741D20312A6
:101FF3001027B6CF03121027C6CF03121027E1CF45
:102003000312102742D003121027B6CB0312102756
:102013003BCC031210279FCC03121027A4CA031230
:102023001027C6CA0312102730CB031210273BCB4D
:10203300031210277FCB03121027008003121027EF
:102043000E80031210274F80031210277080031293
:102053001027FA80031210271C810312102788818E
:1020630003121027A38103121027BE810312102726
:10207300C88103121027D28103121027E5810312AE
:102083001027FE81031210279A820312102756830A
:1020930003121027CD83031210274784031210273E
:1020A300AD84031210271AFC0112102728FC011219
:1020B3001027A2FC0112102786FD011210273FFFF3
:1020C30001121027DEFF02121027B47A0012102724
:1020D300217B00121027E27B00121027527C001292
:1020E30010275B7D00121027D37E00121027377F45
:1020F300001210278C7F00121027957F00121027E3
:10210300A47F00121027B77F00121027CD7F001283
:102113001027D67F00121027578603121027AC868C
:1021230003121027A88803121027DA880312102736
:10213300FC88031210271589031210272E89031216
:102143001027388A03121027D38A0312102744C496
:102153000312102768C40312102781C40312102727
:10216300B4C403121027E5C40312102713C50312C6
:10217300102775C50312102784C5031210278EC5B7
:10218300031210279BC50312102741AA031210271D
:1021930067AA03121027A4AA03121027B3AA0312D3
:1021A3001027D2AA031210273AAB0312102743AB0E
:1021B30003121027A2AB03121027C6AB031210277A
:1021C30085AC0312102792AC03121027A3AC0312A1
:1021D30010275CD10312102779D1031210274A8BE1
:1021E30003121027A88C03121027B58C0312102793
:1021F300C88C03121027E78C03121027FD8C0312DF
:102203001027118D03121027868D03121027EB8DD3
:10221300031210279B8E03121027708F03121027AF
:10222300808F031210278F8F031210271DCF0312E5
:10223300102741CF0312102769CF0312102791CF24
:102243000312102751AF0312102778AF0312102780
:1022530099AF03121027FEAF03121027B7B1031271
:102263001027D0B103121027DCB103121027F0B1ED
:10227300031210270EB20312102718B203121027ED
:1022830022B20312102735B20312102788B20312A9
:102293001027C1B203121027F0B2031210273EB366
:1022A300031210278DB303121027A8B303121027AC
:1022B300B2B303121027C3B30312102709B40312D6
:1022C3001027A4FF0112102757F60212102781F6D8
:1022D300021210279DF602121027B0F602121027E1
:1022E300C6F60212102723F70212102756F702121E
:1022F300102792FB02121027B8FC02121027EBFCE6
:102303000212102737FD0212102763FE0212102754
:102313008BFE02121027A0FE02121027B0FE02123B
:102323001027F4FE0212102755FF0212102765FF33
:10233300021210275EC80312102779C80312102750
:10234300A2C803121027BCC803121027E1C8031246
:10235300102700C90312102718C90312102746C9F2
:102363000312102760C90312102718D10312102774
:102373009B9D03121027A29D03121027AE9E0312EA
:102383001027DE9E03121027049F03121027279F96
:1023930003121027499F03121027839F031210274C
:1023A300E99F0312102722A0031210276EA0031225
:1023B30010279BA003121027BBA003121027E0BF16
:1023C30003121027F2BF03121027DDC003121027D8
:1023D3006AC10312102791C90312102703CA0312FB
:1023E300102741CA0312102782CA0312102780A4A0
:1023F300031210279CA403121027EBA40312102727
:1024030007A50312102738A50312102748A50312A6
:10241300102734A6031210273EA6031210274BA63B
:10242300031210275BA7031210276FA703121027AD
:1024330078A703121027C88F031210270D940312D5
:102443001027129403121027CED10312102776CE31
:1024530003121027A0CE0312102798D103121027BE
:10246300FBD10312102723D203121027BE900212AE
:102473001027DC95021210277DAD0112102786ACC0
:10248300011210276AAC0112102716AC0112102793
:10249300CEAB011210270CAB011210277FAA011239
:1024A300102772AA0112102780A701121027D2A4A5
:1024B3000112102707DE01121027EEDD011210278B
:1024C300A6A301121027FAA2011210279ADD011206
:1024D3001027F6DC011210274BA101121027069FCB
:1024E300011210278D9E01121027349E011210270E
:1024F300C89D011210279F9D01121027929B011264
:1025030010275E9B011210272B9B011210270F9B94
:1025130001121027359A01121027ED990112102785
:10252300229801121027A297011210279F970112D8
:102533001027A69601121027749601121027B19541
:1025430001121027DC93011210276D93011210273B
:102553003F93011210276CDC011210270BDC0112D0
:102563001027B9DB01121027A7DB011210272BB3A9
:10257300011210273C9301121027299301121027EF
:10258300C19201121027B092011210270DB301124C
:1025930010279191011210275B91011210271E91B0
:1025A30001121027BF9001121027C2B10112102788
:1025B3005C6C001210278E9001121027498D0112B6
:1025C30010273A8C01121027C98B011210278E8B0A
:1025D30001121027598B011210274D8B011210275E
:1025E300AD8A01121027F48901121027C78701123F
:1025F3001027538501121027118501121027DC8340
:1026030001121027918301121027C3820112102790
:102613001A8201121027B68101121027F0810112CC
:1026230010271FB101121027FEF40200000080FBE7
:10263300E473000000000000000000000000000040
:1026430000001010101010100000303000000014B3
:1026530028500000000000000000000000000028D7
:1026630028FC284850FC50500000000010385454F7
:10267300301814545438100000000044A8A8B05473
:102683001A2A2A44000000000020505060ACA89889
:10269300927C000000606020C00000000000000089
:1026A300000000040808101010101010080804009F
:1026B3000000402010080408102040000000000023
:1026C300001010D63838D61010000000000000109B
:1026D3001010FE10101000000000000000000000A9
:1026E30000000000606020C0000000000000FC004B
:1026F30000000000000000000000000000000000D7
:102703006060000000020404040808101020202068
:1027130040000000003048848484848448300000F2
:1027230000000010701010101010107C000000004A
:102733000038444404081020447C000000000038A2
:1027430044441804044444380000000008081828CE
:102753004848887C081C00000000007C4040784406
:102763000444443800000000003C4480B8C484841E
:10277300847800000000007C4448081010101010FA
:102783000000000000788484487884848478000002
:10279300000000788484848C740488F000000000B6
:1027A3000000003030000000303000000000000066
:1027B300000010000000001010200000040810208A
:1027C30040201008040000000000000000FC00008E
:1027D300FC00000000000000402010080408102046
:1027E300400000000000788484840810100030301A
:1027F300000000000038449AAAAAAAB4423C000090
:102803000000001010282828384444EE000000007F
:1028130000F844447844444444F800000000003C79
:1028230044848080808044380000000000F04844E5
:102833004444444448F00000000000FC444048780D
:10284300484044FC0000000000FC424048784840F7
:1028530040E000000000003C448480808E844438C3
:102863000000000000EE4444447C444444EE000075
:102873000000007C101010101010107C00000000ED
:10288300007C101010101010101090E0000000EEEB
:1028930044485070484844EE0000000000E04040C7
:1028A3004040404044FC0000000000EE6C6C6C545F
:1028B300545454D60000000000EE64645454544C45
:1028C3004CE4000000000030488484848484483051
:1028D3000000000000F844444478404040E0000019
:1028E300000000304884848484B448380C0000001D
:1028F30000F844447850484844E600000000003C97
:1029030044402018040444780000000000FE9210A4
:102913001010101010380000000000EE444444442E
:10292300444444380000000000EE4444282828288A
:1029330010100000000000D6545454546C2828286A
:102943000000000000EE44282810282844EE000070
:10295300000000EE4428281010101038000000007A
:10296300007C88081020204044FC0000001C10104C
:1029730010101010101010101C0000701010101008
:1029830010101010101070000070101010101010A4
:10299300101010107000001028000000000000004C
:1029A3000000000000000000000000000000000024
:1029B30000FE00606020C000000000000000000076
:1029C30000000000000038441C24443E00000000C6
:1029D30000C04040784444444478000000000000B4
:1029E30000003C444040443800000000000C040454
:1029F3003C444444443E00000000000000003844CE
:102A03007C40443800000000001C2420F8202020D3
:102A1300207800000000000000003C484830407867
:102A23004438000000C040405864444444EE000071
:102A330000000010000070101010107C0000000057
:102A4300000800003808080808080870000000C0E3
:102A530040405C48507048EC0000000000701010CB
:102A630010101010107C0000000000000000F8544B
:102A7300545454D60000000000000000D8644444BD
:102A830044EE000000000000000038444444443891
:102A93000000000000000000F8444444447840E093
:102AA3000000000000003C444444443C040E000089
:102AB30000000000EC30202020F80000000000009F
:102AC30000003C443008447800000000000010106F
:102AD3007C101010100C0000000000000000CC441B
:102AE3004444443E0000000000000000EE44282857
:102AF30028100000000000000000D6545454282879
:102B03000000000000000000DC48303048EC00000A
:102B1300000000000000EE442828101020E0000010
:102B2300000000007C481010247C000010101010DE
:102B33001010101010101010101000013636010183
:102B43000001020100010301000104010606050260
:102B53000000070100340801000F090401010D0101
:102B630000FF0E08000017020000190100FF1A0100
:102B730000011B0100FE1C0100081D0200001F01D3
:102B8300000120010001210200002301000F2402A3
:102B930000002601000127010008280200FF2A0186
:102BA30000072B0102402C0100002D0100012E0122
:102BB30000012F0100FF30010B1C310800003A0116
:102BC30000083B01000F2F010000030271023001D6
:102BD300600211027002010202020202800210026C
:102BE30061023A004100630273027202620243020D
:102BF3000002130238000002000204021202000263
:102C030000020002000204020402370037003C0203
:102C1300440200023900000200026502000235028C
:102C23008102000205028202830200020300710096
:102C33003001600011007000310220035004800055
:102C43001000610000001400630073007200620052
:102C530043000000130006000000000004001200FF
:102C630000000000000000000400040037003700EB
:102C73003C0244000000000000000000650000006A
:102C830035008100000005000000830000000103FF
:102C9300710301030103010301030103220302037F
:102CA30001031003000300030003000300030003F8
:102CB3000003420300032403060300030003040389
:102CC300120325032303250323030403040300033F
:102CD300000300034403000300032303000365030D
:102CE30021003503810300030503000300030003F0
:102CF3000101710101010101110101013101010111
:102D030001018001100161013B00140063017301A3
:102D13007201620143010001130106013D01350007
:102D2300040112010001000100010001040104017A
:102D3300330133013C01440132013600000100013B
:102D43006501000135008101000105018201830154
:102D5300000136000100060000000F000000000023
:102D6300000000000000000003FFFF00000403FF59
:102D7300FF0000FFFF0FF4010005C404032000015E
:102D830000030B000000000000000003010F01001E
:102D9300F01E0200661E03006C1E0400721E050076
:102DA300781E0600841E11009C1E1400A21E15002E
:102DB300961EFFFF0000461776174C175217701721
:102DC30064175E177C1782178817941758174017D4
:102DD3003A1703EAF5E5D5D5C5B5A5959585857566
:102DE30075656555554545353525251515050A126E
:102DF3001502DC1405EE1407E2140CBE140DD014F6
:102E0300FF000000160F00000B150B020002220F3B
:102E13003200000630184218481810174E180A17C7
:102E230016179018AE18B4189618A2189C18000319
:102E33004948424D18172505020C0E020B040B0AD4
:102E43000708000F000119161816161523030000B2
:102E5300383C3E363B3B352B432C3030161819207B
:102E6300231A1C1E30303017181921301B1D1F3038
:102E73006A178E17A8189A17A017841854185A1887
:102E83006618601802040201010101090200000032
:102E930000000000BE040A0E00150004002800080C
:102EA300050C0A030908FF1E1E0F0404100C74F717
:102EB300120A6FE99003B0F0900365E4F01223BEA9
:102EC3009003B5E4F0A3F09003B1F0A3F012164A17
:102ED3001223C4900334E4F0A3F0902EAC93FA7958
:102EE30002122424025B4774F2120A6FEAFEEBFF1C
:102EF300548060699003B0E0F9121BA28A088B0921
:102F0300EA4509604F7C0080010CEC75F003A4F8DE
:102F1300A9F074F128F582742D39F583E493F460F4
:102F23002CE493F88508828B83E06870DCAA08ECB4
:102F330075F003A4F874F228F582742D39F583E44F
:102F430093C0E0740193F583D082122633AA08ABB1
:102F530009121B96EEFAEF6480FB0230B7EF5420A0
:102F6300601D12156C8A088B09EA4509600A121460
:102F7300D0AA08AB09121B96EEFAEF642080DAEEB2
:102F8300A2E0501A90036AE0640F700B79001214E8
:102F93009AE960031230BAEE6401FAEF80BB542061
:102FA3007003023085750C0012458C8B09EA4509C4
:102FB30070107C027D007A207B009003B0E0F91250
:102FC3001CEC7C0079047A007B001215488A088B7C
:102FD300098018850882850983A3A3A3A3A3A3A3B8
:102FE300A3A37401F0850A08850B09E50845096068
:102FF3006D7C007904AA08AB091215488A0A8B0B69
:10300300750C01E5082404F8E50912433024FFF0A8
:10301300A3E034FF12662370CC850882850983A35D
:10302300A3A3A3A3A3A3A3A3A3E0640170A58508FB
:1030330082850983A3A3A3A3A3A3E0540470948567
:103043000882850983A3A3A3A3A3A3A3A3A37406AD
:10305300F07AB78508828509831231E680871215D5
:10306300187C0079017A007B001215488B09EA4528
:10307300097009E50C70057A201254E6EE6420020B
:103083002F9DEF5402600B121644EEFAEF64020216
:103093002F5CEF5404601912567D12559D790190EF
:1030A30003631259011213E0EEFAEF6404022F5C7A
:1030B3007A007B000232ED900CEE1239841214B2C6
:1030C30022C082C08374EA1211068518828519838F
:1030D300AA82AB83794B1223FA7408121337740252
:1030E300F07409121337AA82AB8379501223FA744E
:1030F30013121337E4125AD01224187416024AAA70
:1031030074F7120A6F74E1121106EAFEEBFFEE4F39
:103113006033851882851983AC82AD831215907450
:1031230006121337E0601E7417121337E0FD7401A3
:10313300121337E0FCEEFAEFFB790012258CE960FD
:103143000479A480027900025B4274F6120A6FEAE2
:10315300FEEBFF8E828F83A3A3A3A3A3A3E054401C
:10316300601B125FBF1232B460067AFF7BFF801AC6
:103173008E828F83124736FAA3E0FB80031215B4C5
:1031830074FE6A700374FF6B6041125FBF12552AAD
:10319300121608E98E828F8360061231DFE4800500
:1031A3001231DF7401F07CA07D148E828F8312595B
:1031B3000112241EE9F5087015EE4F60097901EE3E
:1031C300FAEFFB121524A90802555B7508CDAA086E
:1031D3008E828F831231E6E960DF80EAE0240D12EC
:1031E3004C0522E0240C124C05E0F91214AC2274B5
:1031F300F6120A6FE9FEEAFF7A0F7B00121B90EAD0
:103203004B60198A828B83740CF0EEA3A3F0EF8AD0
:10321300828B83A3F01255867900802FEEF9121565
:103223004E8A088B09A808A909E849601C88828985
:1032330083A3A3A3A3A3A3A3A3A3740612624AE035
:10324300F9121464EEF912152A791002555BC08243
:10325300C08390036AE0640F7014EA4B601090031C
:1032630065E064086005E064047003123274024A86
:10327300D4EAFCEBFD7A017B009003B0E0F9121C69
:10328300E622C082C0837900EA241DF582EB12474F
:103293003324FD600B14600824FD600424FD7001D9
:1032A30009024AD48E828F83A3A3A3A3A3A3A3A3B8
:1032B300A31232B82212477BFB121608E9228E8230
:1032C3008F83A3A3A3A3A3A3A3A3A31232B86402CC
:1032D300228E828F83A3A3A3A3A3A3A3A3A3124A90
:1032E300CB900356E068221210727F06020D2474FD
:1032F300F4120A6F74FD1211068A088B098A828BF5
:1033030083A3A3E0F912154E8A0A8B0BAE0AAF0B07
:10331300EE4F70030233F9850882850983A3E064C5
:10332300F16030850882850983A3E064CD6024853C
:103333000882850983A3E0641A60188508828509D9
:1033430083A3E064E9600C850882850983A3E064B4
:10335300E170087900121524E9706C8508828509EB
:1033630083A3E0C0E07402121337D0E0124AAFEE39
:10337300F0A3EF123DDA851882851983AA82AB8305
:1033830070051213C880031215F07402121337E08C
:1033930064E970338E828F83123405750A01780ACB
:1033A300121048750AE9780A121048E508240CF54A
:1033B30082E5091238CC123DB7FCA3E0FD8A828B6B
:1033C30083123DD11210728E828F83A3A3A3A3A372
:1033D300A3A3A3A3E0640270108E828F83A3A3A38D
:1033E300A3A3A3A3A3A37406F0850882850983A3DB
:1033F300A3E0F912152A121518900CF21230BD022F
:103403003989E0F8A3E0F9E8FAE9FB2274F4120A37
:103413006FEAFEEBFF7508008E828F83A3A3A3A33D
:10342300A3E060427508088E828F83A3A3A3A3A39E
:10343300A3A3A31249DE8B0BEA450B601075082C7E
:103443008E828F83A3A3A3A3A3E0D2E0F08E828F07
:1034530083A3A3A3A3A3E05403640160030234F88A
:103463004308110234F8EE24181239966033EE241F
:103473001A123996700F1232D47003A3E069707573
:103483007508228070EE241BF582EF1234FD241A96
:10349300F582EF123DE2EE2419125FF3121452800B
:1034A300541232C170037508011232D47003A3E0C1
:1034B300697006E508D2E1F508E50860158E828F8C
:1034C30083A3A3E07006E508D2E58004E508D2E60D
:1034D300F5081232A764017006E508D2E0F5088EFC
:1034E300828F83A3A3E0600D12350B64016006E5B0
:1034F30008C2E0F508A90802398E124721123504E3
:1035030022E0FCA3E0FDEE2212471B124753F912FF
:1035130015F6E922C082C08379018A828B83A3A333
:10352300E0C394024001198A828B83A3A3A3A3E07F
:10353300C39402400279008A828B83A3A3A3A3A32B
:10354300A3A3A3A3E064F87003A3E0F460458A8215
:103553008B83A3A3A3A3A3A3A3A3A3E064F97003EF
:10356300A3E0F4602E8A828B83A3A3A3A3A3A3A3C4
:10357300A3A3E064FA7003A3E0F460178A828B8349
:10358300A3A3A3A3A3A3A3A3A3E064FB7003A3E048
:10359300F4700279008A828B83A3A3A3E0F89003DB
:1035A30053E06860027900024AD474F0120A6F741F
:1035B300DE121106EAFEEBFF8E828F83A3A3A3A381
:1035C300E0600E900CF01255526006900CF0123031
:1035D300BD7403121337AC82AD838E828F83A3A392
:1035E300A31255D4125E0DE9600F7403121337AAA8
:1035F30082AB831214CAE9700879011223D002380E
:10360300C1EE241B124726741012133712559D74F2
:1036130009121337E06021741A121337E0FD7404A2
:10362300121337E0FC8E828F831258FF7901122523
:103633008CE96004790280C37403121337AA82AB46
:10364300831214C4E9F50A7409121337E0702A903F
:10365300034DE060247422550A6422601C744255B1
:103663000A644270CF74201213371238DF600A7471
:10367300201213371238D870BBE9A2E65041740305
:10368300121337AA82AB831214B8E970030235FC14
:1036930074201213371247366403700F7420121309
:1036A30037A3125544A3E0640D6014740312133757
:1036B300AA82AB8312161AE9640170030238C1EEC1
:1036C300242C1238C9123BED7003A3E069701C75FA
:1036D300080078081210487808121048EE242E12B9
:1036E3005FF31238E5123DD11210727409121337C9
:1036F300E0700302379E1238E512590112166E8AE2
:10370300088B09EA4509700302383B740412133726
:10371300E0F88E828F83A3A3E028F8A3E03400F9B6
:10372300E8240D1238D08A828B83A3A3A3E06860B8
:103733001CE88A828B83A3A3A3F090816B12130CE2
:10374300850882850983A3A3A3A31213007904E93F
:10375300121337125DEA2AF8A3E034008882F58356
:10376300A3AA82AB83121B7E8A0C8B0D8C0E8D0F4A
:10377300850882850983A3A3A3A3780C120FFF40B6
:10378300030238C190817F780C1211AD85088285C0
:103793000983A3A3A3A3780C1212A8900365E06482
:1037A300046008E0640960030238C1E50AA2E54049
:1037B30003023879EE242E123996851882851983EF
:1037C300F0EE242F123996C0E07401121337D0E0C3
:1037D300F0EE2430123996C0E07402121337D0E0B1
:1037E300F07414121337E064017027740E12133748
:1037F30012472CEE2412123996687003A3E0697005
:1038030011740C1213371232CE700774141213375B
:10381300E4F0EE24241238C9120E2574041213376F
:10382300AC82AD837407121337AA82AB831213CE13
:1038330074041210720238C19003AAE06401600399
:1038430002379E74201213371238DF7009E50AA27B
:10385300E6500302379E7410121337E0F47003A38B
:10386300E0F4605AEEFCEFFD7403121337AA82AB47
:10387300831214D68048A2E65044742012133712E0
:103883005910701A741A121337E0640270307403FB
:10389300121337AA82AB8379001215E480207420B7
:1038A3001213371238D87016741A121337E06404DF
:1038B300700C7403121337AA82AB831215DE7422C1
:1038C300025CBCEE240BF582EF12472122F582E95C
:1038D3001255B6F822125FD1E064072212475364EF
:1038E3000622EE242A12471E123504241212471E02
:1038F3002274F4120A6FEAFEEBFF8C088D0990051F
:10390300CFE0600F1232D47003A3E0697005121484
:1039130040804F79001258F41214708A828B83E529
:103923008245836035A3A3A3A3A3A3E05418602A0D
:10393300E508241BF582E5091238CC120E29123F43
:10394300CA1238CC120E29EE2418125FF31239670B
:1039530012148274041210728008790012396712EB
:10396300144680278E828F83A3A3A3A3A3A3A3A319
:10397300A3123504240BF582EF123980223400F5AB
:103983008312477BFB2274031210727F04020D24FF
:10399300EE2417F582EF1255B62274F7120A6F74EC
:1039A300F7121106EAFEEBFF900365E06403600D76
:1039B300E064016008E064096003023A678E828F65
:1039C30083A3E0707E7C007D007A027B001223CA11
:1039D300EE2402FAEF12433712472C900356125586
:1039E3009D79531224007900123A6CE06409600354
:1039F300123DFF8518828519837401125573900354
:103A0300657404F07401121337AA82AB83794A12E6
:103A130023FA7401121337AC82AD837A5B7B0312F2
:103A230023E8900356125E037A03123E0990035073
:103A3300E0A2E35004D2F08002C2F01255601230CB
:103A4300BA801E8E828F83A3AE82AF83FC7D007A01
:103A5300037B101223CA8E828F83E0F9123A6CE43F
:103A6300F01215007409025B449003631239841247
:103A730013E090036522C082C08390033412555231
:103A8300701F900365E014600924FC600A14600C45
:103A9300800F90033C8032900338802D90033A804E
:103AA30028E8496008900335123DB1700C8A828B77
:103AB30083A3E0F91213D4801B9003351240667080
:103AC30005121638800E9003D21255526006125515
:103AD30044122633024AD474F4120A6F74FB12118F
:103AE300068A088B097A0F7B00121B908A0A8B0BBC
:103AF300AE0AAF0BEE4F7003023BE18E828F83124F
:103B03005ACE79501223FA850882850983A3E0608F
:103B130003023BC9900363E0F47003A3E0F4603451
:103B2300900363E064FE7003A3E0F46027851882CA
:103B3300851983123BED7003A3E069601785088242
:103B4300850983A374EA123DE77A637B03795012F4
:103B530024008072851882851983125FB212559DE5
:103B63007A567B0379531223FA9003561255CE12D9
:103B7300559D7A597B03794B1223FA7A587B037943
:103B8300E11223FA90036AE0C3940F502190035883
:103B9300E0C0E07402121337D0E0F074041213375C
:103BA3007401F004121337AA82AB83122412750A2C
:103BB30000780A121048780A121048900D18E0F99C
:103BC300123DC8121072850882850983123BE6A351
:103BD300F09003657403F0EEFAEFFB12558674055B
:103BE30002398BA3E08E828F8322125FB6E06822B4
:103BF300124C0C2274F5120A6F74D81211068A083B
:103C03008B098A828B83A3A3A312475874151213BB
:103C130037AC82AD838A828B83A3A3A3A3A3A3A37D
:103C2300A3123DB7FAA3E0FB12150674151213375E
:103C3300E0706B850882850983A3A3A3A3A3A3A331
:103C4300A3E0C3940B40578E828F83A3A3A3A3A3A4
:103C5300A3A3A3E064027046EE240B123996F4701A
:103C63003D900365E06402603AE0640660359003CA
:103C7300341255526005123DB1604F900365E06404
:103C8300086005E0640470167417121337E0F974C2
:103C93001C121337AC82AD831258F412150C74281E
:103CA3000264D0900334125552701F7508007808CF
:103CB3001210487808121048EE24101238C9126006
:103CC3000B12441F123DD11210728E828F83125831
:103CD3007012434912472C740212133712559DEE8A
:103CE300240D123996C0E07404121337D0E0123D4C
:103CF300DAF508A3E0F509740F78081212C6740503
:103D0300121337E508F07419121337E0C0E0740694
:103D1300121337D0E0F0741B121337E0C0E07407BE
:103D2300121337D0E0F07416121337E0C0E07409B1
:103D3300121337D0E0F07417121337E0C0E07408A1
:103D4300121337D0E0F0EE2410123996C0E0740A53
:103D5300121337D0E0F0741A121337E0C0E0740B7B
:103D6300121337D0E0F07427121337E0C0E0740C5D
:103D7300121337D0E0F0741C121337A982AA838977
:103D8300088A09750A0078081210407C087D0074BF
:103D930010121337AA82AB831251011210728518C5
:103DA30082851983AA82AB831213DA023CA11240E3
:103DB3006C640122E0F98A828B83A3A3A3A3A3A348
:103DC300A3A3A3E022900363125E07900359123961
:103DD300841215C6740222F0EE240B1255B322127C
:103DE30055B6FA22F07A567B037953123DF222122A
:103DF30024007A597B03794B122400229003631227
:103E03003984121668227B001223CA900359125E6A
:103E1300077A047B001223CA22F01260162274F27E
:103E2300120A6F74F8121106EAFEEBFF8C0A8D0B6F
:103E3300890C851882851983AC82AD83758381755E
:103E430082367408120FA0F50DEEFCEFFD85188283
:103E5300851983AA82AB831257D17003750D019024
:103E630003B1803BEEFCEFFDE508240BFAE50934D2
:103E7300001257D0601E850882850983A3A3E065DD
:103E83000C7011850882850983E0650A7004A3E03C
:103E9300650B6038E5082414F582E5091238CC1265
:103EA3004341E50845096024E50DA2E040B68508D5
:103EB30082850983E0650A7004A3E0650B70D585EC
:103EC3000882850983A3A3E0650C70C8AA08AB091F
:103ED30074080232EAC082C0839003B1024AD174EB
:103EE300F7120A6F9003B112477B8012EA2414F58C
:103EF30082EB1238CC124758121C32EEFAEFFBEA6F
:103F03004B70E99003B1E4F0A3F0025B477F070233
:103F13000D2474F1120A6FEAFEEBFF890A8C088DF7
:103F2300098E828F83E08C828D831249E8AE82AF43
:103F330083E01251C1125132C41251C1123FD3E076
:103F430054038C828D83125130A2E2E4338C828D30
:103F53008312512F131313541F1251C112512EA246
:103F6300E7E4338C828D83A3A3A3A3123FD38E0CE8
:103F73008F0D750E00780C1210407C087D00E5084B
:103F83002407125D76121072125DE18E0C8F0D788C
:103F93000C1210407C037D00E508240F125D76129D
:103FA3001072E50AC3940F40148E828F83A3A3A3D8
:103FB300E0C0E0123FCA1238CCD0E08006123FCAFC
:103FC30012623EF0023F10E5082412F582E5092251
:103FD300A3A31249EC0EAF832274F4120A6F74F98F
:103FE300121106EAFEEBFF89089003341255526062
:103FF3000E1240667009EEFAEFFB121632805F90E4
:104003000363E06E7003A3E06F705374016508608F
:10401300097A777B031257D170447A007B021245E9
:10402300908B0BEA450B703690036612130C8518C0
:104033008285198312130090036CE0C0E0740412AC
:104043001337D0E0F074051213377401F0740612BD
:104053001337125ACE1213A4E9609B1213AA7407E2
:1040630002398B12406C640222125FD2A3A3A3A372
:10407300A3A3E02274F5120A6F8A088B098A828B44
:1040830083A3AE82AF83E0F91213F88E828F83E0AD
:1040930064EB600C850882850983A3E064E1700901
:1040A300850882850983A3E4F01230BA750A017882
:1040B3000A121048850882850983A3E0F508780869
:1040C3001210487900123DC81210721215180264BA
:1040D300D3EAF0A3EBF0024AD474F6120A6F90030A
:1040E300B4E0701B7C0079017A007B00121548EA6A
:1040F3004B600C8A828B8312555260031214A60202
:10410300555BC082C083124578401079FF12154277
:10411300E9F8902EB0E493C39850047901800279B2
:1041230000024AD474F0120A6F8A088B09890B754E
:104133000C008A828B83A3A3A3A3A3A3A3A3E0F965
:1041430012154E8A0E8B0FAE0EAF0F750A01EE4F8E
:104153006003024205850882850983A3A3A3A3A361
:10416300A3125E03850882850983A3A3A3A3A3A344
:10417300A3124F011259011215368A0C8B0DAE0C86
:10418300AF0DEE4F70030243288E828F83A3A3A348
:10419300A3E4F0A3F0E508240B124334E0C0E012DB
:1041A30038C6D0E0F012160EEE240CF582EF12554D
:1041B30026E508240EF582E509124729EE240EF5BB
:1041C30082EF12559A750C01EE2406F8EF12433074
:1041D300547FF0A3E054FC126068E05404600302CF
:1041E300428B900CF6124EF2740778081212328E3C
:1041F300828F83A3A3A3A3A3A3E04508F0A3E04571
:1042030009F08E828F83A3A3A3A312433F7407787D
:10421300081212C6E5085407F508E50B607A8E828A
:104223008F83A3A3A3A3A3A3A3A3A37402125133B2
:10423300240D124C01E0A2E2500B9003511255CE13
:10424300A3A312559DE50870030242FDEE2406F870
:10425300EF3400F9E8FAE9FB8A828B83E0547FFCB0
:10426300A3E054FCFDE50824FFF508E434FFF50959
:1042730074077808121232EC4508F8ED4509F98AFB
:10428300828B8312559D80728E828F83A3A3A3A3F7
:10429300A3A3E04480024204E5087005750A008088
:1042A300598E828F83A3A3A3A3A3A3E054206012F8
:1042B300121B8AEA547F245F8E828F83A3A3A3A356
:1042C30080238E828F83A3A3A3A3A3A3E0541060B0
:1042D3000A121B8AEA540F240A80DD8E828F83A37D
:1042E300A3A3A37401F0A3E4124349740412458702
:1042F3008B09EA45097003125519E50CA2E0502811
:104303008E828F83A3A3A3A3125B34F9EEFAEFFB90
:1043130012153CE960121255486003124711EEFA78
:10432300EFFB121C32750A00A90A025CBF125691F8
:1043330022FAE5093400FB8A828B8322A3A3E0F5EA
:1043430008A3E0F5092212434D22125D92A3A3A311
:10435300A3A32274F4120A6F74F71211067E0012DB
:10436300154EEA4B70030244188A828B83A3A3A3DE
:10437300A3A3A3A3A3A3E0640660030244188A8251
:104383008B83A3A3A3A3A3A3A3E0FF8A828B83129C
:104393004C14E0C0E07408121337D0E012474C12FB
:1043A30057D712559D121560EF5408606685188221
:1043B300851983125E037A007B001215308B0BEA9A
:1043C300450B704F90036312483C12242A7C007DF6
:1043D300007A007B0080288E828F83124736F47028
:1043E30003A3E0F4602D90036312441F12590112DA
:1043F300211EE9641A601C7C007D00EEFAEFFB12BB
:1044030015308A0A8B0BAE0AAF0BEE4F70C97900D9
:104413001224307E01EEF9740902398B12442322EF
:10442300E0FCA3E0FD8E828F8322C082C083EA4B2F
:1044330070059003B580068A828B83A3A312463C42
:1044430060258A828B83A3A3A3A3A3A3A3E0540819
:1044530060E5EC4D60158A828B831247366C7003DE
:10446300A3E06D70D280047A007B00024AD474F218
:10447300120A6FEAFEEBFF890A8C088D097A107B1A
:1044830000121C2CEA4B603F8A828B83A3A3A3A355
:10449300A3A3A3A3A3E412473AA3E50A125FD8A3F5
:1044A3001244D48A828B83A3A3A3A3E4F0A3124769
:1044B30046A3F0125E6CEA240CF582EB1249D81283
:1044C30044CDA3A3F0A3F00232EDA3F08A828B8341
:1044D30022A3A3E508F0A3E509F02274F4120A6FFE
:1044E300EAFEEBFF89088C0A8D0BEE4F60557401D1
:1044F300650870147901121542E9F8902EA8E49327
:10450300C398500F7911806A74046508702F12459F
:104513007840F18E828F83A3A3A3A3A3A3A3A3A312
:10452300E5081249E8A312655D8E828F83A3A3E495
:10453300F0A3F09003B51255526021800D7402650B
:104543000860D079C1802BE0F8A31255C7A3A3124A
:10455300463C88828983A3A370ED80039003B5EE64
:10456300F0A3EF1245878B0BEA450B700312551925
:10457300790002398E7904121542E9F8902EA3E4EA
:1045830093C39822F012458C227A207B009003B0CB
:10459300E0F9121CF822C082C083E9F87900900385
:1045A300B5801D8A828B83A3A3A3A3A3A3A3A3A3E1
:1045B300E068600574FF687001098A828B83A3A396
:1045C30012463C70DE024AD474F7120A6FEA4B704B
:1045D300059003B580068A828B83A3A312463C60B1
:1045E300248A828B83A3A3A3A3A3A3A3A3A3E06986
:1045F30070E4EC60148A828B83E0240D125DF4A2D4
:10460300E240D380047A007B00025B47C082C08310
:104613009003B580068A828B83A3A312463C601263
:104623008A828B83A3A3A3A3A3A3A3A3E06970E5B7
:1046330080047A007B00024AD4123984EA4B227444
:10464300F2120A6F8A0A8B0B8C0C8D0D750800759C
:104653000900EA450B602E9003B580068E828F8396
:10466300A3A312468F601EAC0CAD0DEEFAEFFB85D3
:104673000A82850B83122633E9640170DFEEF8EFBB
:10468300F988088909AA08AB090232EDE0FEA3E024
:10469300FFEE4F2274F7120A6F9003B512472C7C7A
:1046A300007D00800DE8FCE9FD88828983A3A312C5
:1046B300472CE8496030EA687002EB6970E79003C1
:1046C300B5125901E86A7002E96B88828983A3A352
:1046D300700812472C9003B5800912472C8C828DE9
:1046E30083A3A312559D025B4774F7120A6FEAFE78
:1046F300EBFFEE4F601512155A12475E12554860D4
:1047030003124711EEFAEFFB121C32025B47EE2451
:104713000C12471E12477322EE241DF582EF34005C
:10472300F58322F582EF124721124ACB22F582EF5D
:104733001247211247532212473E22125FE0A3A3DE
:10474300A3A32212473EA3A3221244CE124753220D
:10475300125FCBE022E0FEA3E0FF228E828F83E094
:10476300241C124C051247738E828F8312477322C7
:1047730012477BFB121C3222E0FAA3E022C082C064
:1047830083EAFCEBFDEC4D700479058044EC24FBDB
:10479300F582ED34FF12555070071247D7E0F460ED
:1047A30005121B9680E39003B0E0C0E01247D7D018
:1047B300E0F0902EA5E493F97AB77B03121BC0E9CE
:1047C3006401700B7A007B2012551D7900800279F9
:1047D30004024AD4EC24FFF582ED34FFF5832274FE
:1047E300F4120A6FA2AFE433F508C2AF9003B71215
:1047F300468F6038EE24FBF582EF34FF1255507A72
:10480300007B209003B060051255208005E0F9126B
:104813001BCCE4F50AF50B780A121044EEFCEFFD0D
:104823007AB77B03121BBA7402121072E508A2E076
:1048330092AFEEFAEFFB02398E125E07851882857E
:104843001983AA82AB832274F2120A6F74FC1211C9
:1048530006EAFEEBFF750AFE750BFF12151EE960F3
:104863000579110249CDEE24151239966037900D62
:104873000AE0C43354E0F8E0333354FC48C0E0EEBC
:1048830024151238C9D0E01249E81249DE8B09EA2F
:1048930045096011750AFFEE240F1239964404127C
:1048A30055ABD2E0F08E828F831232B26006EE24D3
:1048B300121249D5EE24131239967010902EABE4E0
:1048C30093C0E0EE24131238C9D0E0F08E828F83B8
:1048D300E0A2E750045403801CEE241412399670AE
:1048E30015900342E0C0E0EE24141238C9D0E0F082
:1048F300900342E004F0EE2411123996640170161D
:104903009005C6E0600D90034DE0700A8E828F83A0
:10491300E070031249D28E828F83E064017013EE3C
:10492300240B12473064027009EE240F12399644A7
:1049330040F0851882851983AC82AD83EEFAEFFBD4
:104943001215848A088B0974FE650A700374FFF4D8
:1049530070098E828F83A3A3125D82EA4509606684
:104963008E828F83E0C0E07401121337D0E0F074BD
:1049730002121337125E70740112133785820C858D
:10498300830D780C121044EE240F1238C9120E292D
:10499300EE240E123996F50C780C1210489003563B
:1049A300120E297407121337E0F9AC0AAD0B121576
:1049B3007E7407121072E9FE74106E700BAA08ABB6
:1049C30009121C3280027E10EEF974040232EAEE00
:1049D3002411F582EF124721E4F022A312398479DE
:1049E300FF122490221249EC22F08E828F83A3229D
:1049F300C082C08374DE1211068A828B83A3A3A3B1
:104A0300A312472C740E121337E8F0A3E9124AC21B
:104A1300740C121337124ABB240DF582EB12399929
:104A2300C0E0741A121337D0E0F0125CCFEB1247D8
:104A3300297420121337124ABB2415F582EB12395D
:104A430099C0E07408121337D0E0F0EA241CF58211
:104A5300EB1247297412121337124ABB2411F58241
:104A6300EB123999C0E07409121337D0E0124AAF40
:104A730074FFF0740112133774FFF07402121337CA
:104A830074FFF090816B120E257404121337AC82FD
:104A9300AD837407121337AA82AB831213CE740447
:104AA300121072790074221210728025124AB322F6
:104AB300F085188285198322E8F0A3E9F0EA22122F
:104AC30044CEA3124ACA22A3E0F8A3E0F922125962
:104AD30001D083D08202102474EC120A6F74EE1298
:104AE30011068A128B13ECFEEDFF8909742612134B
:104AF30037125D827428121337E0F51074291213EC
:104B030037124BF6742B121337E0F50EA3E0F50FB3
:104B13007508107A1E7B00121C2C740212133712B4
:104B2300552A74021213371255527003024BEF8544
:104B33001882851983AA82AB8379501254051259BE
:104B4300017402121337124C14A312552A74101253
:104B5300133712655F7402121337E0240B124C01F2
:104B63007402F0121337124C147402F0121337123A
:104B73005FC3125E707402121337125916E509F0FF
:104B83007402121337E0240C124C01E510F0740286
:104B9300121337124BFEE512F0A3E513F07408125B
:104BA3001337E50CF0A3E50DF0740A121337E51083
:104BB300F0850E82850F83C082C083740D12133774
:104BC300AC82AD83D083D0827403120FA0F9740238
:104BD300121337AA82AB83121524E9640170057599
:104BE300080080087402121337124717A9087412B9
:104BF300025D99E0F50CA3E0F50D22E0241C124CB4
:104C03000522F8A3E0124C0C223400F98882898330
:104C130022125909A3A3A3A3A32274EE120A6FEAD3
:104C2300FEEBFF8C088D098E828F83A374081255C7
:104C3300E6E060088E828F83A37410F012399360CC
:104C4300098E828F83A3E02408F0EE24151239968F
:104C530060088E828F83A3E004F08E828F83A3A3E8
:104C6300A3A3A3A3E060198E828F83A3A3A3A3A30B
:104C7300A3A3E0C3332402F88E828F83A3E028F03A
:104C8300EE24111239966005750B0E8003750B0027
:104C93008E828F83A3C082C083EE240D123996D0F7
:104CA30083D082F8E028250B8C828D83F0EE2411CB
:104CB300123996600512511128F0850882850983FF
:104CC300E0C394754009750800750900024DFFE0C3
:104CD300FA7B00125F1E7003024DFFEEFAEFFB1228
:104CE300158AEA85088285098312552BEE2402F87A
:104CF300EF123BF3124EF9124E3BF0EE2404080878
:104D0300EF123BF312533BA3124E3BA3A3F0EE244B
:104D130013124E21F0EE2414124E21A3F0750A084B
:104D2300EE24161239966010EE2418125E00E50880
:104D33002408126001750A101239936016EE241AC2
:104D4300125E00850A0CE508250C12600174082523
:104D53000AF50A8E828F83A3A3A3A3A3A3E06059BA
:104D6300EE2407F510EF3400F511851082F583E08A
:104D7300C0E0124E081238CCD0E0124E2BE0C0E057
:104D8300124E081238CCD0E0124E2BA3124E14123E
:104D93001040851082851183E0C333FCE433FD8525
:104DA3000A0CE508250C125D7612107285108285B7
:104DB3001183E0C333250AF50AEE241512399660F0
:104DC3000BC0E0124E081238CCD0E0F01238C612F5
:104DD3004E14121040EE240D123996FC7D00850B03
:104DE3000A8E828F83A3E0F8E50828F8E5093400EA
:104DF300F9E8250AFAE9125D79121072AA08AB09DB
:104E03007F0A020D24850A0CE508250CF582E509C5
:104E130022E0F50CA3E0F50D750E00780C22124785
:104E23001E124E45A3A3A322F0050A8E828F83A3ED
:104E3300A3A3A3A3A3A3A322A3A312606CA3124EB1
:104E4300452212533FA3A32274F6120A6F8A828B60
:104E530083E0FC900353124EF2740278081212326C
:104E6300EC4508FCAD09EA2412124EEC74067808EE
:104E7300121232EC4508FCED4509FDEA2415F582D2
:104E8300EB1239996004780180027800E4C8F9EDE7
:104E930049FDEA2411F582EB123999F50888097462
:104EA300097808121232ED4509FDEA2416124EEC78
:104EB300740B7808121232ED4509FDEA2417124EDD
:104EC300EC740C7808121232ED4509FD8A828B834B
:104ED300A3A3A3A3A3A3124EF2740A780812123257
:104EE300ECFAED4509FB02555BF582EB124721E035
:104EF300F50875090022E085088285098322A3E06D
:104F0300F98508828509832274EE120A6F8A0A8B57
:104F13000BECFEEDFF750F01E9C394085005790012
:104F23000250FE8E828F83E9F0125364E9600375A9
:104F33000F001253488E828F83125392EE125CD06D
:104F4300EF125387C0E0EE24111238C9D0E0125398
:104F53007FC0E0EE24121238C9D0E01249E8740889
:104F6300125D8AA3A3A3E06015125330EE2413F558
:104F730082EF12559A8E828F83A3E02408F08E82EB
:104F83008F83A3A3A3A3A3A3A3A3E060218E828FF4
:104F930083A3858208858309125373EE2415F58252
:104FA300EF12559A850882850983E02408F08E82E2
:104FB3008F83A3A3A3A3A3E0601A8E828F83A38509
:104FC30082088583091253578E828F83A3A3A3A3D9
:104FD300A3125123EE24191249D5EE241B1249D5ED
:104FE300A31255DEE07003025092EE2419F8EF3459
:104FF30000F98E828F83A3858208858309E0FAE511
:105003000A2AF582E50B1239998882898312512382
:10501300FAE50A2AF582E50B123999C0E0EE241A63
:105023001238C9D0E012512388828983E06059F88D
:10503300902EA4E493C398500575110C8008EE24B8
:1050430019123996F5118E828F83A3E0F8E50A28A9
:10505300F50CE50B125107121040E511C333FCE4C4
:1050630033FD7AA67B0B125101121072EE241B1230
:1050730038C974A6F0A3740BF0E511C333F885089F
:1050830082850983E0288006EE241812623BF08EA5
:10509300828F83A3E0F88E828F83E0C3985003024C
:1050A3004F21A3E0FA8A08E50A2508F8E50B340046
:1050B300F9EE241DF582EF1256A6125133C39AC09E
:1050C300E0EE24171238C9D0E01255A3602BEE246A
:1050D30017F8EF3400F9880889098882F583E024FA
:1050E300F2125687240EFAA3E03400FB88828983E8
:1050F30012552A125111C398F0A90F024E03121B25
:10510300667403223400F50D750E00780C229003AB
:105113004EE0F912256EE9F8850882850983E022BD
:10512300F0850882850983E004F022A3A3A3A3A347
:10513300F08E828F83E02274F4120A6F8A088B093F
:10514300EA1251C8F0EA1313543F1251C1A3A3A3A7
:10515300F0EAC413131251C8A3A3F0EB1251BA120D
:1051630051D27409780A1212C61251B81251D1746D
:105173000A780A1212C6E50A5401C0E0EC2418F5B5
:1051830082ED1238CCD0E01251D7740B780A121288
:10519300C61251B8A31251D1740C780A1212C61256
:1051A30051B8A3A3A3A3A3A3A3A3F0740D780812D8
:1051B30012C60234F8E50A54018C828D8322540FFF
:1051C3008C828D832254038C828D83A3A322A3A379
:1051D300A3A3A3A3F08A0A8B0B22C082C083790006
:1051E3008A828B83A3A3A3A3A3A3E090034D600FA1
:1051F300E070228A828B83A3A3E07019098016E0F2
:1052030060138A828B831258F8900356E06A700306
:10521300A3E06B70E7024AD474F0120A6F8A0A8B18
:105223000B890C8C088D091253641253488508822C
:10523300850983125392E508125CD0E5091253875E
:10524300C0E0E5082411F582E5091238CCD0E0125C
:10525300537FC0E0123FCA1238CCD0E01256AE746E
:10526300081256C76011125330E50824131256A2D0
:105273001256AEE02408F0850882850983A3A3A310
:10528300A3A3A3A3A3E06017850882850983A312C0
:10529300536FE50824151256A21251332408F085E2
:1052A3000882850983A3A3A3A3A3E06019850882C9
:1052B300850983A3AE82AF8312535785088285097C
:1052C3008312512E04F0AA08AB0912159CE9F50DBF
:1052D3007056850882850983A3A3A3A3A3A31253AE
:1052E3003B7014E0FA8A0EE50A250EF8E50B125519
:1052F3008FE50CC39A802112536FE8240EF8E9124C
:10530300558F90034EE0F912256E8E828F83E0F85D
:10531300E50CC39824F2C399C0E0E5082417F5828D
:10532300E5091238CCD0E0F0A90D025CBFE50A24F0
:1053330008F8E50B3400F92212533F22E085088276
:10534300850983A322850A82850B83A3A31253A80D
:10535300E0F9EA22E0F8E50A28F582E50B1255B6F2
:10536300228A828B83125CC412159622AE82AF838B
:10537300E0F8E50A28F8E50B3400F9221253BBA341
:10538300A3A3E022124721E81253B4A3A3E022A36C
:10539300A3A3A3A3A3A3A3A31253B41253A8A3A386
:1053A300E0F9EAF822E0FA850A82850B83A3A3A336
:1053B30022F0A3E91253BB22F0850A82850B83A353
:1053C300A3A3A322C082C0837AC57B0379E21223FD
:1053D300FA7AC57B03024AD4C082C0839003560283
:1053E3004AD1C082C08374FE1211068518828519C2
:1053F30083AA82AB83794B125405125901740202BA
:105403004AAA1223FA85188285198322C082C0838F
:10541300794A1223FA024AD474F6120A6F9003CD22
:10542300E0FE04F0EEF912154E8B09EA450970ED22
:10543300EE60EAF902555B74F0120A6FEAFEEBFFC5
:105443008C088D09890A7410121337E0F50B741157
:10545300121337E0F50C12166EEA4B7013E50C705D
:1054630042A90AAC08AD09EEFAEFFB121686806E6C
:10547300E50A6021EA2402F582EB123999850A08CC
:105483002508F8E4340013E813F070098A828B834B
:10549300A3A37401F0E50C6045E50B70068A828BCB
:1054A30083E4F07401650C7035E50B9003D470044C
:1054B300E4F0802AE004F0900CF7E0F89003D4E0E5
:1054C300C398401AE4F0900359E06E7003A3E06FB1
:1054D300700CEEFAEFFB79011213F21254E4025C42
:1054E300BF7A017B009003B0E0F9121CF222C08264
:1054F300C08374016A7001EB70077A0112551B8037
:1055030012900CEE12552AEA4B6005123274800396
:105513001254E4024AD47A207B009003B0E0F912DB
:105523001BC6223400F583EAF0A3EBF022C082C04D
:1055330083900CF00240D4C082C083900CF20240EE
:10554300D4125FD222EE240CF582EF3400F58312DD
:105553004ACBE849221210727F02020D24A2F0E422
:105563003385188285198312557C795212240022BF
:1055730012557C794212240022F0AA82AB8322AA1C
:1055830008AB099003B0E0F9121B9C223400F9E543
:1055930008241DF582E509124721E8F0A3E9F0226A
:1055A300125D8EA3A3E022A3F0EE24151255B322BD
:1055B300F582EF3400F583E0221255C0223400F562
:1055C30083E0F8A3E0F98882898322E0F81255D4B6
:1055D30022A3E0F98E828F83A3A322F0EE24181274
:1055E300471E22F0EE241612471E2274F4120A6F8D
:1055F300EAFEEBFF7A007B041254E812567D125543
:105603009D9003657409F01215A88A088B09AC08EC
:10561300AD09EE24131238C91259011257D164018E
:1056230070487A0F12567060418A828B837402121B
:105633005687FAA3E0FB8A828B83A3E0FC8A828BE2
:1056430083A3A3E0FBEC850882850983A3A31255FA
:105653002B88828983125905124EF91255AAFAA38F
:10566300E0FB794A12240012558202398E7B001224
:105673001B908A088B09EA450922900336124ACB0C
:10568300900CF222F0EE241DF8EF12569122124CE8
:105693000CE02212569A223400F5837401F022F5AD
:1056A30082E509124721E8F0A3E9221256B2221239
:1056B30056B622F0850882850983A3221256B6A323
:1056C300A3A3A3221256BFA3A3E022125AD81215F2
:1056D300FC22EE2417F582EF12569A1215A8EE2437
:1056E3001A12471EEAF0A3EBF02274F4120A6F7445
:1056F300F31211068908EAFEEBFF7C0D7D007900A9
:10570300851882851983AA82AB83121B72EE241D2E
:105713001238C9125FC3A3E0F8741F58600A7901F5
:105723001223D079000257C8E8A2E55008740C127E
:1057330013377401F0E8A2E75008740B121337749F
:1057430001F0E8A2E6740A50081213377401F080DE
:1057530008121337E064017005EE24138003EE246E
:1057630015125E007402121337AA82AB831223E868
:105773001238C61257D612559D740A121337E064B5
:105783000170331232A7703B1215B48A0A8B0BA82F
:105793000AA90BEE240B123996687003A3E0697013
:1057A300221215A8EAFCEBFD7402121337AA82AB8E
:1057B300831257D1600D851882851983AA82AB8322
:1057C3001213ECA908740D02398BEEFAEFFB1223C6
:1057D300E2E922E01257DB22F8A3E0F9851882857B
:1057E30019832274F6120A6F74F31211068A088B56
:1057F30009ECFEEDFF7C0D7D00790085188285198B
:1058030083AA82AB83126168A3A3A3A3A3A3A3A3C5
:10581300A3125870125879F8A2E55008740B1213AA
:10582300377401F0E8A2E75008740A1213377401C1
:10583300F0E8A2E6EE5004241380022415125E0061
:105843007402121337125862A3A3E0C0E0740C125F
:105853001337D0E0125AD01213E6740D025558AA2A
:1058630082AB831223E885088285098322E01257DD
:10587300DBE8F0A3E922F012471B125FC7A3E02283
:1058830074F7120A6F74E1121106EAFEEBFF8E82BF
:105893008F83125905A3A3A3E0A2E050518E828FF8
:1058A300831234078A828B83A3A3A3A3A3A3E05405
:1058B300FE12591D8A828B83125916E0F98A828B54
:1058C30083E0241CFAA3E01243371259011215A2F4
:1058D300E9701B741D121337125910701185188249
:1058E300851983AC82AD83EEFAEFFB1215EA025BF6
:1058F300428E828F83A3A3A3A3A3A3A3A3A312393B
:10590300842212590922125FCBA3A3A32212475365
:10591300640422E0241B124C0522124AB3AC82AD6C
:105923008322E9F87900740468600A740A686005E0
:1059330074036870010902102474F6120A6F8A82D4
:105943008B837420F0A3A37401F01213988A088B3D
:1059530009AE08AF09EE4F60108E828F837401F099
:105963009003A3E070031256D5EEFAEFFB02555BEA
:10597300C082C0839003B97401F0E9A2E3500374B9
:1059830003F0E9A2E15004E0D2E2F0024AD474F653
:10599300120A6F79007C008A088B097808120D6A55
:1059A300F8FF07C459C259C259C259C259BB59BF9A
:1059B30059C459B8590C80097C0480050C80F67CC5
:1059C300089003B9E05C6003098003EC60010902FD
:1059D300555B74F6120A6F8A828B83E07012A312EE
:1059E3005552600C8A828B831259001225928004CF
:1059F3007A007B0002555B74F5120A6F74F312117F
:105A0300068A088B09ECFEEDFF750A12EA45097058
:105A1300057900025AC9900356E065087004A3E0B3
:105A2300650970141215A8EAFCEBFD1257CD700539
:105A3300750A018003750A00851882851983E4F0CD
:105A430004121337E508F0A3E509125AD012135CC8
:105A5300E960277403121337AA82AB831224B4E9D3
:105A630064017016750A017403121337AC82AD8397
:105A73001257CD6021750A00801C7412650A7016D6
:105A83009003A2E06402700EEEFCEFFDAA08AB09DE
:105A9300121374E970DFEEFCEFFDAA08AB091216CE
:105AA30074E9F8740A687005750A01801774A068B0
:105AB3007012EEFCEFFDAA08AB09121680AA08AB20
:105AC30009121692A90A740D0264D07402125AD4F0
:105AD30022125AD822124AB3AA82AB832274F71233
:105AE3000A6FEAFEEBFF8E828F83A3A3A3A3A3A374
:105AF300A3A3E06015EE24151238C91239741216E7
:105B030014E964017004790180258E828F83A3A335
:105B1300A3A3A3A3A3E06015EE24131238C9125B59
:105B230034FAA3E0FB121614E9640160D97900800A
