:020000040000FA
:06000000020A8A0201CD94
:03002B000208C503
:030033000206E1E1
:0300430002077A37
:030053000200FEAA
:03006B000206C7C3
:100083000201620101FF01010503010F10FEFF1AC6
:10009300131A131A131A13D011CA111A13CF2600E5
:1000A3000000003127000000000C0000000C0001DC
:1000B3000000E814000000000000A8150000000084
:1000C300000000000000FFFF0102005D05000000CA
:1000D300D0056400020200080000050207051E02A5
:1000E300051E020A0A03B80B02803E0102F1FF1447
:1000F3001F00E00796511800020206C0E074F212D6
:1001030003E6A2AFE433FED2AFE5A7FFE5A1F5080E
:100113005F54106006121CD475A1EFE5085F540804
:100123006008121CDA75A1F7802BEFA2E0C0D0E5BE
:1001330008A2E092F01209C7158182F0501790616E
:1001430098E0F89008ADE0C398A2D265D03350028E
:10015300E8F075A1FEEEA2E092AF7F01020445C074
:10016300E074F21203E6A2AFE433FED2AF9061A4CF
:10017300E0F8759B00E59158540860087591F712F3
:100183001D22802AE59158541060087591EF121DC5
:1001930028801BE8A2E0C0D0E591A2E092F012090A
:1001A300C7158182F05007E0C2E0F0121E6C906127
:1001B300A3E0F8E5E9585404600E121E4275E9FB0A
:1001C300906193E0A2E640F2808BC0E074F21203E8
:1001D300E6A2AFE433FED2AF9061A5E0F8E5BF58E5
:1001E3005404600675BFFB121E84020158C3E498D1
:1001F300F8E499F91202318026C3E49AFAE49BFBEE
:10020300E920E7E9120231E498F8E499F922C3E41A
:1002130098F8E499F9120231E498F8E499F9C3E4FF
:100223009AFAE49BFB22EB20E7CFE920E7E0B90051
:1002330010BB0008E88AF084F8AAF022E4FBC8FAAD
:1002430022EB70227B10C833C8C933C9335007C3AC
:100253009AC3DBF280069A50012ADBEAC833F4C85A
:10026300C933F4C9FA2275F008E4C833C8C933C9DD
:1002730033C99AC99B5004C92AC93BD5F0ECFBC8C2
:1002830033F4C8E4C9FA22080808EAC0E0EBC0E086
:1002930086F0E7A4FA180986F0E7A42AFA18098673
:1002A300F0E7A42AFA180986F0E7A42AFA1986F0D7
:1002B300E7A4FBE5F02AFA190886F0E7A42BFBE58F
:1002C300F03AFA190886F0E7A42BFBE5F03AFA189E
:1002D300180986F0E7A4C5F02BFBE43AFA1908E7FE
:1002E300C5F0C6A426F6E5F03BFBE43AFA1886F01F
:1002F300E7A4F6E5F00826F6E43B08F6E43A08F648
:10030300D0E0FBD0E0FA22E4CFC0E0E4CEC0E0E4EA
:10031300CDC0E0E4CCC0E075F020C3E633F608E6D8
:1003230033F608E633F608E633F6181818EC33FC10
:10033300ED33FDEE33FEEF33FFC3EC9709ED970981
:10034300EE9709EF97191919400FFFEC97FC09ED88
:1003530097FD09EE97FE191906D5F0BEECF709EDE6
:10036300F709EEF709EFF7191919D0E0FCD0E0FD12
:10037300D0E0FED0E0FF222518C582C0E0E51934A5
:10038300FFC583C0E0E518C3958224F810AF088544
:1003930083198582188008858319858218D2AFCE88
:1003A300F0A3E520F0A37808E608F0A3DEFAEFF067
:1003B300A3E58124FAF8E608F0A3E608F0A3E6082B
:1003C300F0A30808E608F0A3E608F0A31581158159
:1003D300D0E0FED0E0F8158115811581E8C0E0EE8C
:1003E300C0E022C0D02518C582C0E0E51934FFC59E
:1003F30083C0E0E518C3958224F310AF0885831901
:100403008582188008858319858218D2AFC8F0A326
:10041300E9F0A3EAF0A3EBF0A37908E709F0A3D886
:10042300FAECF0A3EDF0A3EEF0A3EFF0A3D0E0F02D
:10043300A3D0E0F0A3D0E0F0A3E520F0A3E5F0F033
:10044300A322851983851882E0C0E0A3E0F9A3E025
:10045300FAA3E0FBA37808E0F608A3DFFAE0FCA325
:10046300E0FDA3E0FEA3E0FFA3E0C0E0A3E0C0E063
:10047300A3E0F5D0A3E0F520A3E0A3F5F010AF08C7
:100483008583198582188008858319858218D2AFE0
:10049300D082D083D0E0F8D0E032120AECB9000366
:1004A3000204DFE49003017874790C8002F0A3D88E
:1004B300FCD9FA900E74AA82AB839000867879797E
:1004C300018015E493A3AC82AD838A828B83F0A36E
:1004D300AA82AB838C828D83D8E9D9E7758265754F
:1004E3008392740412083D7582307583217400125F
:1004F300083D0E000975F0108E1A8F1B85821F852B
:10050300831E851882851983E0CEA3E0CF851F82E1
:10051300851E83EBC9EAC8EDCBECCAC3E833C8E94F
:1005230033C9EA33CAEB33CBC3EA9EF51DEB9FF520
:100533001CB35004AB1CAA1DEC33CCED33CDD5F06A
:10054300DAAE1AAF1B22D083D082ECC0E0EDC0E05C
:10055300E493A3FCE493A3FDED4C600D120621ECA0
:1005630024FFFCED34FFFD80EFE493A3FCE493A3AD
:10057300FDED4C600D120725EC24FFFCED34FFFD6F
:1005830080EFD0E0FDD0E0FCE493A3C0E0E493C0AF
:10059300E022851983851882E0A3FEE0A3F5207885
:1005A30008E0A3F608DFFAE0A3FFE0A3C0E0E0A3BE
:1005B300C0E0E0A3C0E0E0A3C0E0E0A3C0E010AF70
:1005C300088582188583198008858218858319D246
:1005D300AFD083D082020843D083D082E9C0E0E465
:1005E30093A3C386F0C5F095F0F908E493A386F0CE
:1005F300C5F095F0700BE493A3C3994005E904801B
:1006030002A3E475F002A42582F582E5F03583F5B3
:1006130083D0E0F9E493A3C0E0E493C0E022C0E018
:10062300C3E49396087401939618400FE49366709D
:100633000808740193661870007019A3A3C3E493A8
:1006430096087401939618A3A3400DD0E0D0E0D090
:10065300E0020585A3A3A3A3A3A3D0E022D083D064
:1006630082C5F0E493A3C5F0C395F0F5F0E493A33A
:10067300C395F04005E5F0048001E475F002A4257C
:1006830082F582E5F03583F583E493A3C0E0E49338
:10069300C0E0227404800474028000CCC0E0EDC08A
:1006A300E0E518C39CCCAD1950011D10AF068C18A2
:1006B3008D1980068C188D19D2AF1207BFD0E0FDBB
:1006C300D0E0FC22C0E074F21203E6E589A2E15017
:1006D30003121B8A758900C2C57F01020445C0E06D
:1006E30074F21203E6E58BA2E05003121B8A758BAA
:1006F30000C2E880E474028000CCC0E0EDC0E0E515
:1007030018C39CCCAD1950011D10AF068C188D1960
:1007130080068C188D19D2AF12079DD0E0FDD0E072
:10072300FC22C0E0C0F088F0E4936670080874010E
:100733009366187000A8F0A3A3700BD0F0D0E0D09C
:10074300E0D0E0020585A3A3D0F0D0E022D083D08F
:1007530082CCC0E0E493A3600612081E1470FAE48E
:1007630093A3600612090F1470FAD0E0FCE493A37C
:10077300C0E0E493C0E022C0E074F21203E6A2AF4B
:10078300E433FED2AFC2C0E5D1A2E45003121C4A47
:10079300EEA2E092AF7F01020445CAC0E0E493A356
:1007A300C582CCC582C583CDC583F0A3C582CCC524
:1007B30082C583CDC583DAE5D0E0CA22CAC0E0E0B2
:1007C300A3C582CCC582C583CDC583F0A3C582CC26
:1007D300C582C583CDC583DAE6D0E0CA2270090895
:1007E3000808226016181818C6C333C608C633C6CD
:1007F30008C633C608C633C6D5E0EA22C008C3E03C
:1008030096F50808A3E096420808A3E09642080874
:10081300A3E09645087001D3D00822C0E0E493A377
:10082300D39C5010E493A3C39C400AD0E0D0E0D003
:10083300E002076DA3A3A3D0E022C09FF59FE4735A
:10084300D09F22D083D082C09FE493C0E0740193F1
:10085300C0E0740293F59F227404800A7403800637
:10086300740280027401C0E0F404120876D0E0122E
:100873000AC7222518F58210AF08F518400215198A
:100883008008F51840021519D2AF85198322BB01E0
:1008930002E722C082C08389828A83BB0003E0808F
:1008A30002E493D083D08222C0D0251810AF08F57C
:1008B30018500205198008F51850020519D2AFD057
:1008C300D022C0E0C0D0E8C0E0E5A8D2AFC2C7A242
:1008D300E792AFD0E0F8D0D0D0E032601608080835
:1008E300C6C313C618C613C618C613C618C613C67E
:1008F300D5E0EA22C3E0C696F608A3E0C696F6085A
:10090300A3E0C696F608A3E0C696F622C0E0E493F9
:10091300A36C7009D0E0D0E0D0E002076DA3A3D0B0
:10092300E022251810AF08F518400215198008F5C4
:100933001840021519D2AF22E76670100809E7665E
:10094300700A0809E76670040809E76622E0667022
:100953001008A3E066700A08A3E066700408A3E029
:100963006622C3E09608A3E09608A3E09608A3E0F6
:1009730096A2D265D03322C3E096F008A3E096F0A6
:1009830008A3E096F008A3E096F022E026F008A37F
:10099300E036F008A3E036F008A3E036F022E627BD
:1009A300F60809E637F60809E637F60809E637F6E2
:1009B30022E026F608A3E036F608A3E036F608A3FD
:1009C300E036F622C0E0E8C0E0E58124FCF8E6A2C8
:1009D300E7D0E0F8D0E022E647F60809E647F60854
:1009E30009E647F60809E647F622E657F60809E658
:1009F30057F60809E657F60809E657F622E056F6D1
:100A030008A3E056F608A3E056F608A3E056F6223C
:100A1300E056F008A3E056F008A3E056F008A3E080
:100A230056F022700422600D18C6C333C608C633BD
:100A3300C6D5E0F41822E4C396F608E496F608E473
:100A430096F608E496F622600D08C6A2E713C618C8
:100A5300C613C6D5E0F322C6F4C608C6F4C608C654
:100A6300F4C608C6F4C622C3E7960809E796080940
:100A7300E7960809E79622C3E09608A3E09608A341
:100A8300E09608A3E0962275D000758140751801A1
:100A93007519030002049DE0F608A3E0F608A3E03D
:100AA300F608A3E0F622600C08C6C313C618C613E3
:100AB300C6D5E0F422E6F008A3E6F008A3E6F008C2
:100AC300A3E6F022CAC0E0E6F0A308DAFAD0E0FA1F
:100AD30022E0FAA3E0FBA3E0FCA3E0FD22EAF0A3FB
:100AE300EBF0A3ECF0A3EDF022E5C754F84401F5D5
:100AF300C77901222518F582E43519F58322C2AF9F
:100B030075D69F020000221208460CE40212084622
:100B1300AFE402120846F6E50212084614E6021292
:100B230008464F2A00120846612A00120846B32AD3
:100B330000120846142B001208469E2B001208468A
:100B4300422C00120846962C00120846AF2C0012C5
:100B53000846D52C00120846102D00120846542DC5
:100B6300001208467B2D00120846CC2D00120846C1
:100B73007C2E00120846342F00120846FC2F001268
:100B83000846BC30001208460031001208462531E1
:100B930000120846683100120846B53100120846B3
:100BA3000D3300120846933300120846B133001286
:100BB3000846DB3300120846F533001208460434B6
:100BC300001208460F3400120846CF3400120846BC
:100BD300283500120846EA3500120846F23500129D
:100BE3000846B636001208462237001208464D382A
:100BF30000120846723800120846E8380012084608
:100C03007A3900120846D23900120846923A001285
:100C13000846B13A00120846C03B00120846D23BD0
:100C230000120846413C00120846963D0012084651
:100C3300C83D001208465B3E00120846943E00126F
:100C43000846E03E00120846FC3F001208464542B3
:100C5300001208465042001208465B420012084642
:100C63006642001208467042001208467B42001298
:100C730008469542001208469F4200120846A942C0
:100C830000120846B44200120846DC42001208462D
:100C930037430012084641430012084665430012D9
:100CA3000846894300120846E743001208462B44CE
:100CB30000120846474400120846BE440012084684
:100CC300F644001208464245001208469F450012AA
:100CD30008465946001208463D4800120846964801
:100CE30000120846C64900120846EC49001208469D
:100CF300754B00120846F14E00120846C35000120D
:100D030008468C5200120846395300120846A45470
:100D1300001208464355001208468855001208463B
:100D2300F255001208460156001208468858001270
:100D330008463A5A00120846A75A00120846865B2C
:100D4300001208469F5C001208461C5E001208460B
:100D53003B5E00120846905E00120846955F001243
:100D63000846BD5F00120846156000120846F4608D
:100D730000120846386100120846836100120846D3
:100D8300EE61001208462F630012084693630012B7
:100D93000846E1640012084641670012084672677C
:100DA300001208462A69001208467F6900120846A5
:100DB300836A00120846206B00120846796B001202
:100DC30008462C6C00120846CE6C001208466E6D65
:100DD30000120846136E00120846D9810112084614
:100DE3001882011208465F8401120846A984011281
:100DF3000846C485011208462C86011208466186FE
:100E030001120846D58701120846588A011208467E
:100E1300818B01120846178C011208461F95011297
:100E23000846B495011208469B98011208468E990C
:100E330001120846FC9901120846429B011208461A
:100E4300249C01120846099E011208461AA00112A9
:100E5300084684A00112084656A10112084684A13F
:100E63000112084641A20112084618A301120846BE
:100E7300DFA30112084683A401120846ACA40112A1
:100E83000846CEA40112084624A701120846FCA76F
:100E93000112084640A801120846A8A801120846F4
:100EA30060A90112084692A901120846D6A90112A7
:100EB30008460CAA0112084658AA01120846ADAA10
:100EC30001120846B2AA0112084605AB01120846F0
:100ED3002AAB0112084639AC011208469DAC011237
:100EE30008460DAD0112084699AD0112084666B0D9
:100EF300011208464AB101120846CDB20112084652
:100F030003B501120846B1B50112084661B60112D4
:100F13000846A2B80112084645B9011208468CB921
:100F23000112084638BB011208464CBB01120846A1
:100F330056BB011208467EBB011208468ABB01124A
:100F43000846A9BB01120846C9BD0112084618BFCD
:100F5300011208465CBF0112084604C0011208468C
:100F6300E7C00112084692C101120846DEC201120F
:100F73000846DCC30112084682C40112084612C5A2
:100F83000112084629C50112084660C50112084628
:100F93006AC50112084675C50112084693C50112B8
:100FA3000846D7C50112084634C60112084659C679
:100FB3000112084673C601120846FFC6011208460D
:100FC3001CC80112084689C80112084670C90112DB
:100FD300084697C9011208460BCA0112084686CA79
:100FE300011208468ACB0112084680CC011208463A
:100FF3002FCD0112084642CE01120846DECE011261
:1010030008466BCF0112084649D00112084681D029
:1010130001120846D9D001120846A2D1011208468E
:10102300C3D1011208464AD2011208466ED20112F8
:10103300084690D201120846D9D201120846EFD4CD
:1010430001120846D6D50112084687D60112084672
:10105300BDD8011208460DD9011208464DD9011217
:1010630008468FD901120846EBD90112084619DA4E
:10107300011208463DDA0112084690DA01120846C9
:10108300BEDA01120846F7DA011208464CDB0112F8
:101093000846B2DB0112084606DD0112084629DFC5
:1010A3000112084696DF01120846BFDF0112084607
:1010B3004AE001120846B1E001120846FCE00112C1
:1010C300084620E10112084644E1011208469FE167
:1010D30001120846BAE10112084673E201120846FA
:1010E300F1A60412084630A70412084678800212BB
:1010F3000846BE80021208469E8102120846A0825C
:1011030002120846A383021208462F8502120846DC
:101113008D85021208464A86021208466887021223
:101123000846D987021208461588021208466388C2
:10113300021208466D8802120846B1880212084658
:101143000D8902120846A88902120846258A02124E
:101153000846F48A021208468D8B02120846AD8BAC
:1011630002120846E38B02120846148C0212084648
:10117300D58C02120846E58C02120846398D0212FC
:101183000846548D02120846668D021208466F8D7A
:1011930002120846C98D02120846258E021208461D
:1011A300718E021208468C8E02120846BD8E021200
:1011B3000846DA8E02120846E68E021208465A9054
:1011C30002120846739002120846DA900212084689
:1011D300ED9002120846FB9002120846AF910212EC
:1011E30008469392021208469993021208462394E2
:1011F300021208462D94021208469A9402120846D7
:10120300B19402120846E394021208461C95021296
:101213000846469502120846A79502120846C79546
:1012230002120846E595021208462B96021208465A
:101233005197021208469E9702120846CD97021252
:1012430008464398021208466B9802120846A4986F
:1012530002120846B298021208460A990212084678
:10126300599902120846989902120846C89902121F
:101273000846F49902120846FF99021208461D9A7D
:1012830002120846DF9A02120846E99A0212084639
:10129300249B021208463A9B021208468F9B0212B5
:1012A3000846A39B02120846B19C02120846C49C3E
:1012B30002120846D99C021208467B9D0212084678
:1012C300FE9D02120846BC9E02120846C79E0212E9
:1012D3000846F39F021208460FA00212084661A0B7
:1012E30002120846A0A002120846B5A00212084640
:1012F30017A102120846A6A102120846F1A1021282
:10130300084642A402120846C0A40212084635A5A4
:101313000212084657A7021208466FA70212084690
:1013230072A7021208467EA70212084692A702126B
:1013330008469AA702120846CDA7021208467DA8BE
:1013430002120846F3A80212084666A902120846CA
:101353001AAA02120846CFAA02120846EEAA0212DD
:1013630008468EAB021208469AAB02120846C5AB7A
:1013730002120846C8AB0212084632AC02120846F3
:101383005AAD0212084632AE02120846BDAE021230
:101393000846D6AF0212084693B002120846CCB0F4
:1013A30002120846FDB002120846BBB102120846FB
:1013B300EBB102120846C6B2021208465FB302122C
:1013C3000846EAB3021208469BB4021208461EB549
:1013D3000212084650B50212084691B50212084699
:1013E300B9B5031208461EB6031208465BB60312CC
:1013F3000846AAB603120846C0B803120846A3BAA1
:10140300031208460DBE0312084648BE03120846DF
:101413006ABE03120846CDBE0312084601BF03127B
:10142300084624BF0312084651BF03120846ADBF46
:1014330003120846A39F0312084621A0031208467D
:1014430057A003120846C3A00312084636A203128C
:10145300084652A20312084697A20312084625A380
:10146300031208467EA303120846ABA403120846E0
:10147300BDA5031208461AA60312084686A6031240
:101483000846E7A60312084628A703120846D5A76D
:1014930003120846E7A80312084612A903120846D6
:1014A3005DA903120846A4A90312084636AA03122B
:1014B3000846F1AA031208460F9D04120846209D10
:1014C30004120846719D04120846B69D041208468C
:1014D300609E0412084645A404120846EC990412BF
:1014E3000846449B0412084668AB031208460DAC39
:1014F300031208462DAC031208464DAC03120846EE
:1015030061AC03120846B9AC03120846E9AC0312F6
:1015130008466AAE0312084610AF03120846F2AF3C
:101523000312084643B00312084686B00312084666
:10153300C9B0031208462FB10312084650B1031273
:101543000846DCB1031208460DB20312084681B205
:10155300031208462FB40312084609B503120846BE
:101563004BB50312084671DA021208466396041259
:101573000846849604120846BA9704120846E4976C
:1015830004120846939B041208461E9C0412084644
:10159300289C04120846499C04120846EE9C041237
:1015A3000846669303120846699303120846239478
:1015B300031208464E9403120846959403120846F4
:1015C300BA9403120846BFE2021208460F950312AB
:1015D3000846489503120846719603120846A896D2
:1015E30003120846C8960312084663970312084677
:1015F3002898031208465F9803120846D4990312E9
:101603000846779A03120846709B03120846999B73
:1016130003120846ED9B03120846B39C03120846C7
:10162300E19C03120846769E03120846F79E0312B6
:1016330008462A9F03120846F9BF0312084603C04F
:10164300031208464FC003120846BDC003120846E2
:10165300DEC003120846F5C003120846A5C10312F3
:10166300084639C40312084642C40312084695C407
:1016730003120846BEC40312084625C503120846D2
:10168300B6C503120846F8C50312084642C603123C
:101693000846A1C603120846CDC6031208465EC714
:1016A300031208469DC703120846DCC70312084607
:1016B30011C80312084623C80312084635C803128B
:1016C300084654C8031208465DC80312084613C9E6
:1016D3000312084653C903120846AEEF0312084625
:1016E30081F0031208469BF003120846ACF0031284
:1016F3000846C1F203120846E0F20312084633908B
:1017030004120846699004120846B290041208466F
:101713000292041208463BE6021208467AE70212D6
:101723000846B6E70212084675E9021208469EE922
:101733000212084631EC0212084675EC0212084602
:10174300FEED0212084696EE02120846FEEE021263
:1017530008469FEF02120846E1EF0212084621F005
:1017630002120846ACF1021208461CF302120846A4
:1017730041F5021208466FF50212084696F5021269
:1017830008469FF502120846FAF5021208468DF63E
:1017930002120846ABF9021208462CFA0212084656
:1017A300FEA70412084614A80412084654A60412FD
:1017B3000846808304120846938304120846308443
:1017C300041208466B8404120846868404120846F1
:1017D300AB8404120846F0840412084621850412DF
:1017E3000846528504120846D88604120846D89F34
:1017F300041208460EA0041208462AA00412084642
:101803006CA0041208467CA00412084611A104121D
:1018130008461BA104120846FE8D04120846C98E11
:10182300041208465E8F041208465F6E00120846D3
:10183300B76E00120846A06F0012084639700012F6
:101843000846837000120846E0700012084639719A
:10185300001208464D71001208467F7100120846B7
:101863007D7200120846E17200120846FC720012F3
:1018730008464B73001208466173001208466E73E4
:1018830000120846A27300120846BB7300120846F2
:101893004C74001208465B7400120846E37400128D
:1018A30008463D75001208468B7500120846AD7553
:1018B3000012084624780012084659780012084698
:1018C300E978001208465E7900120846637900122F
:1018D30008469F7900120846F57900120846B97A3E
:1018E30000120846DE7A00120846E87A001208461B
:1018F300EB7A00120846747B001208468F7B0012B5
:101903000846A27B00120846CE7B00120846097CDB
:10191300001208460C7C00120846177C0012084689
:10192300537C00120846667C001208468D7C001228
:101933000846A4A604120846BCA604120846B8D258
:101943000312084607D303120846A9D40312084614
:1019530067D603120846AFD603120846D1D703123F
:10196300084602D90312084624D90312084680D92F
:101973000312084602DA03120846ADE201120846D2
:10198300CEE20112084658E301120846DDE30112D4
:10199300084659E401120846C2E4011208460EE55E
:1019A300011208468DE5011208461FE6011208469A
:1019B300ABE601120846EDE60112084659EB0112A7
:1019C3000846D9EC0112084618ED01120846FFED4E
:1019D3000112084602EE01120846B6EE011208464D
:1019E300EBEF01120846D6F10112084656F4011234
:1019F30008460FF5011208462CF60112084683F932
:101A03000112084693F901120846F4FA0112084636
:101A130080FB01120846B4FC01120846A5FD011221
:101A2300084627FE01120846008003120846BA80C2
:101A3300031208462C81031208463B810312084611
:101A4300B581031208462482031208462B8303122E
:101A53000846548303120846F4830312084642845B
:101A630003120846B284031208466B870312084622
:101A7300428803120846AF88031208462C8A0312D1
:101A83000846E08A031208468E8B03120846E98B48
:101A930003120846548C03120846548D0312084659
:101AA3002E8F03120846419003120846DA90031260
:101AB30008464C910312084612920312084614F882
:101AC3000312084668F803120846C0F803120846D2
:101AD3000BF9031208466DF903120846D9F90312EC
:101AE30008468CFA03120846CDFA03120846E3FAB5
:101AF300031208463FFB031208467DFB0312084608
:101B0300A88B04120846D98B04120846938C04123E
:101B13000846F98C041208466A8D04120846EF92AF
:101B23000412084638A50412084649A504120846BB
:101B3300E9A5041208463498041208464298041290
:101B430008463CA80412084638FF0312084648FF1B
:101B53000312084663FF03120846C4FF0312084634
:101B630043A304120846C8A3041208462CA4041273
:101B7300084631A20412084653A204120846BDA225
:101B830004120846C8A2041208460CA3041208460D
:101B930036DA0312084644DA0312084685DA0312DA
:101BA3000846A6DA0312084623DB0312084623DCA1
:101BB3000312084645DC03120846B1DC031208464B
:101BC300CCDC03120846E7DC03120846F1DC0312FF
:101BD3000846FBDC031208460EDD0312084627DD28
:101BE30003120846C3DD031208467FDE03120846CC
:101BF300F6DE0312084670DF03120846D6DF03122F
:101C03000846AEFB03120846BCFB0312084636FC2B
:101C1300031208461AFD03120846D3FE03120846B0
:101C2300DCA70412084689FA02120846F6FA0212E1
:101C33000846B7FB0212084627FC0212084630FD8D
:101C430002120846A8FE021208460CFF02120846BA
:101C530061FF021208466AFF0212084679FF021268
:101C630008468CFF02120846A2FF02120846ABFF89
:101C7300021208463DE60312084692E6031208469E
:101C83008EE803120846C0E803120846E2E803128E
:101C93000846FBE80312084614E9031208461EEA45
:101CA30003120846B9EA03120846779E041208464F
:101CB3009B9E04120846B49E04120846E79E041233
:101CC3000846189F04120846469F04120846A89F18
:101CD30004120846B79F04120846C19F041208461F
:101CE300CE9F04120846C77C00120846ED7C001202
:101CF30008462A7D00120846397D00120846587DA1
:101D030000120846C07D00120846C97D001208462D
:101D1300287E001208464C7E001208460B7F0012F4
:101D23000846187F00120846297F00120846BEFFA6
:101D330002120846DBFF0212084630EB0312084684
:101D43008EEC031208469BEC03120846AEEC03121A
:101D53000846CDEC03120846E3EC03120846F7EC01
:101D6300031208466CED03120846D1ED0312084630
:101D730081EE0312084656EF0312084666EF03127C
:101D8300084675EF031208465E7F00120846827FFD
:101D930000120846AA7F00120846D27F00120846A6
:101DA300E586041208460C87041208462D870412A0
:101DB30008469287041208464B8904120846648930
:101DC30004120846708904120846848904120846DE
:101DD300A28904120846AC8904120846B689041283
:101DE3000846C989041208461C8A04120846558A03
:101DF30004120846848A04120846D28A041208464A
:101E0300218B041208463C8B04120846468B0412AD
:101E13000846578B041208469D8B0412084603A6F6
:101E2300041208467CC903120846A6C903120846D1
:101E3300C2C903120846D5C903120846EBC90312E7
:101E4300084648CA031208467BCA03120846B7CE9F
:101E530003120846DDCF0312084610D003120846CA
:101E63005CD00312084688D103120846B0D103128E
:101E73000846C5D103120846D5D10312084619D224
:101E8300031208467AD2031208468AD2031208467E
:101E9300BFFE01120846DAFE0112084603FF0112D3
:101EA30008461DFF0112084642FF0112084661FF62
:101EB3000112084679FF01120846A7FF01120846DE
:101EC300C1FF011208463AA7041208460080041213
:101ED300084607800412084613810412084643810A
:101EE300041208466981041208468C8104120846CC
:101EF300AE8104120846E881041208464E82041299
:101F03000846878204120846D382041208460083D7
:101F1300041208462083041208467B9404120846E0
:101F2300939404120846819504120846609604129D
:101F330008461EA10412084690A104120846CEA129
:101F4300041208460FA20412084639F40312084685
:101F530058F403120846A7F403120846C3F4031205
:101F63000846F4F40312084604F50312084611F573
:101F7300031208461EF5031208460AF60312084622
:101F830048F60312084652F60312084662F7031294
:101F930008466DF7031208467FF70312084688F7D1
:101FA3000312084692F70312084680E1031208461B
:101FB300C5E503120846D3E503120846CEFF031214
:101FC30008467EA704120846B4A7041208461EA8B2
:101FD30004120846D3D7021208469CD602120846BA
:101FE300F0D50212084636D402120846E6D1021290
:101FF30008466DD10212084614D102120846A4D035
:10200300021208467BD0021208465BCE0212084633
:1020130027CE02120846F4CD02120846D8CD02128A
:102023000846F1CC02120846A9CC02120846F4CAAB
:102033000212084674CA0212084671CA02120846FE
:102043006EC9021208463CC90212084679C8021238
:102053000846A4C6021208466AE00212084688DF50
:10206300021208466CDF021208460CDF0212084611
:10207300C4DE0212084635C60212084607C602121B
:10208300084604C602120846F1C50212084612DECB
:10209300021208469CC5021208468BC50212084666
:1020A3007DC40212084647C40212084684DD0212A8
:1020B3000846DB9403120846F5C30212084696C38A
:1020C3000212084665C3021208462DC002120846D2
:1020D300EDBF02120846E1BF0212084641BF0212D9
:1020E300084681BE0212084603BC0212084694B990
:1020F3000212084652B90212084626B802120846CE
:10210300DBB7021208461AB702120846EDB60212EE
:10211300084630B602120846C6B50212084600B693
:102123000212084677DD02120846A5B50300000037
:1021330080FBE473000000000000000000000000CA
:1021430000000000101010101010000030300000CC
:1021530000142850000000000000000000000000F0
:10216300002828FC284850FC50500000000010387C
:102173005454301814545438100000000044A8A8D4
:10218300B0541A2A2A44000000000020505060ACCA
:10219300A898927C000000606020C000000000004E
:1021A30000000000000408081010101010100808A8
:1021B3000400000040201008040810204000000024
:1021C3000000001010D63838D610100000000000B0
:1021D30000101010FE10101000000000000000009E
:1021E300000000000000606020C00000000000004C
:1021F300FC000000000000000000000000000000E0
:1022030000006060000000020404040808101020AD
:1022130020204000000000304884848484844830B7
:10222300000000000010701010101010107C00004F
:1022330000000038444404081020447C00000000DF
:1022430000384444180404444438000000000808DB
:1022530018284848887C081C00000000007C404087
:1022630078440444443800000000003C4480B8C46F
:102273008484847800000000007C44480810101017
:1022830010100000000000788484487884848478E7
:102293000000000000788484848C740488F00000BB
:1022A300000000000030300000003030000000006B
:1022B30000000000100000000010102000000408BF
:1022C300102040201008040000000000000000FC63
:1022D3000000FC000000000000004020100804087B
:1022E300102040000000000078848484081010004F
:1022F3003030000000000038449AAAAAAAB4423C35
:1023030000000000001010282828384444EE000084
:10231300000000F844447844444444F800000000BA
:10232300003C44848080808044380000000000F03A
:1023330048444444444448F00000000000FC444046
:102343004878484044FC0000000000FC42404878C4
:10235300484040E000000000003C448480808E84BC
:1023630044380000000000EE4444447C444444EEFE
:1023730000000000007C101010101010107C0000F2
:102383000000007C101010101010101090E00000DE
:1023930000EE44485070484844EE0000000000E05E
:1023A30040404040404044FC0000000000EE6C6CA4
:1023B3006C54545454D60000000000EE646454542A
:1023C300544C4CE40000000000304884848484842E
:1023D30048300000000000F844444478404040E0A6
:1023E3000000000000304884848484B448380C0022
:1023F300000000F844447850484844E600000000D8
:10240300003C44402018040444780000000000FE0F
:1024130092101010101010380000000000EE444419
:102423004444444444380000000000EE4444282857
:10243300282810100000000000D6545454546C286F
:1024430028280000000000EE44282810282844EE25
:102453000000000000EE442828101010103800007F
:102463000000007C88081020204044FC0000001C71
:10247300101010101010101010101C00007010100D
:1024830010101010101010107000007010101010A9
:102493001010101010107000001028000000000031
:1024A3000000000000000000000000000000000029
:1024B300000000FE00606020C0000000000000007B
:1024C300000000000000000038441C24443E0000CB
:1024D300000000C0404078444444447800000000B9
:1024E300000000003C444040443800000000000C61
:1024F30004043C444444443E000000000000000047
:1025030038447C40443800000000001C2420F8209C
:102513002020207800000000000000003C484830E4
:1025230040784438000000C040405864444444EEBE
:10253300000000000010000070101010107C00005C
:1025430000000008000038080808080808700000A8
:1025530000C040405C48507048EC00000000007030
:10256300101010101010107C00000000000000007C
:10257300F854545454D60000000000000000D864FE
:10258300444444EE0000000000000000384444448A
:1025930044380000000000000000F844444444783C
:1025A30040E00000000000003C444444443C040E6E
:1025B300000000000000EC30202020F800000000A4
:1025C300000000003C443008447800000000000094
:1025D30010107C101010100C000000000000000010
:1025E300CC444444443E0000000000000000EE449C
:1025F300282828100000000000000000D65454547E
:1026030028280000000000000000DC48303048ECBF
:102613000000000000000000EE442828101020E015
:102623000000000000007C481010247C0000101003
:10263300101010101010101010101010000136366A
:10264300010100010201000103010001040106066A
:1026530005020000070100340801000F090401010D
:102663000D0100FF0E08000017020000190100FF12
:102673001A0100011B0100FE1C0100081D020000DD
:102683001F01000120010001210200002301000FAE
:10269300240200002601000127010008280200FF90
:1026A3002A0100072B0102402C0100002D0100012B
:1026B3002E0100012F0100FF30010B1C3108000027
:1026C3003A0100083B01000F2F01000003007100D5
:1026D30030016000110070003102200350048000BB
:1026E30010006100000014006300730072006200B8
:1026F3004300000013000600000000000400120065
:102703000000000000000000040004003700370050
:102713003C024400000000000000000065000000CF
:102723003500810000000500000083000000010364
:1027330071030103010301030103010322030203E4
:10274300010310030003000300030003000300035D
:1027530000034203000324030603000300030403EE
:1027630012032503230325032303040304030003A4
:102773000003000344030003000323030003650372
:102783002100350381030003050300030003000355
:102793000101710101010101110101013101010176
:1027A30001018001100161013B0014006301730109
:1027B3007201620143010001130106013D0135006D
:1027C30004011201000100010001000104010401E0
:1027D300330133013C0144013201360000010001A1
:1027E30065010001350081010001050182018301BA
:1027F3000001030271023001600211027002010242
:10280300020202028002100261023A0041006302E6
:1028130073027202620243020002130238000002D2
:10282300000204021202000200020002000204027B
:102833000402370037003C02440200023900000260
:1028430000026502000235028102000205028202D3
:10285300830200020304710402046004110470047F
:1028630002040204010402041004610400041404B9
:10287300630473047204620443040004130406042F
:10288300000400040404120400040004000400040F
:102893005104640000040004000444040004000420
:1028A3000004000465040004350481046400050485
:1028B30000048304000436000100060000000F003A
:1028C30000000000000000000000000003FFFF0004
:1028D300000403FFFF0000FFFF0FF4010005C40421
:1028E3000320000100030B000000000000000003B0
:1028F300010F0000641A1300E0190100641A0200BA
:10290300981903009E190400A4190500AA190600CA
:10291300B6191100D4191400DA191500C819FFFFEC
:10292300000001220E06520E084C0E0B5E0E109E86
:102933000D02280E05400E072E0E0C040E0D160E6A
:10294300FF000003EAF5E5D5D5C5B5A595958585C1
:102953007575656555554545353525251515052A7F
:10296300125A123012361254124812421260126670
:10297300126C1278123C1224121E1200160F000061
:102983000B150B020002220F320000061A132C1340
:102993003213F4113813EE11FA112E1128116411A8
:1029A3006A115E1116117A1398139E1380138C13F8
:1029B300861300011916181616152303000C0E02B0
:1029C3000B040B0A0708000F00034948424D181770
:1029D30025050200383C3E363B3B352B432C30303B
:1029E30017181921301B1D1F3030301618192023DA
:1029F3001A1C1E306E133E13441350134A134E1207
:102A0300721292137E12841202040201010101095F
:102A1300023A114011341170110000000000004609
:102A230011581100BE040A150004007F00E8030CCE
:102A3300002800000000000308100C0A0308090026
:102A4300040001FF1E1E0C05040F1008C082C08382
:102A53008A828B83E0D2E7F01218EA023C1EC0821E
:102A6300C0837900122F1B125DEBC082C0839003D9
:102A730034124B71D083D082C3E09CA3E09D500CF1
:102A83001264BFFAA3E0122A92600109023C1EFB02
:102A9300EA75F00BA4FAA8F075F00BEBA428FB90F1
:102AA3000336E02AF8A3E03B8882F583E0540F2243
:102AB30074F712037A8908122F1B122FC1ACF07519
:102AC300F00BE9A42CF9900336E028FEA3E039FFCC
:102AD3007401650860067402650870208A828B831E
:102AE300122FAD123E4D74026508701B122E6C122C
:102AF3002FF470138E828F83E4F0800BEA2403FC9F
:102B0300EB122F8F122F9BEEFAEFFB120B22023DDB
:102B1300AA74F412037A126DE679008E828F83E031
:102B23006076890A890B8065E50A75F00BA4FAA81B
:102B3300F075F00BE50B122A9F7046E50A75F00B52
:102B4300A4F8AAF075F00BE50B122FD38E828F83B6
:102B5300E08508828509831230B58508828509835B
:102B6300A3123E4DEE2403FCEF122F98123C2B12BE
:102B73005865AA08AB09120B22790190033412524B
:102B83007AE50A2401F50AE50B3400F50B122E74DD
:102B9300E50A9AE50B9B4090023FF774F512037A1E
:102BA300EAFEEBFF740B120AF7123C30750A01ECD4
:102BB3004D602BEC126E02ED125DEB123E45790176
:102BC300120B2EE5084509606F850882850983A3EA
:102BD300126DF07902AA08AB09120B2E805AE50890
:102BE3004509602B125DEF1244B9123C2C122FDE03
:102BF300700CEEFAEFFB120B34E9F50A80CBEE24EE
:102C030003FA122F1670317903EEFAEFFB80CA8EA6
:102C1300828F83A3E064FE7003A3E0F4700BEE24C1
:102C2300030A0A0A122F16700CEEFAEFFB120B348A
:102C3300E9F50A8003750A00A90A7F030205957462
:102C4300F712037A900334123DBAEA4B602FEA7508
:102C5300F00BA4FAA8F075F00BEBA428FBEAFEEB4B
:102C6300FF12170A900336123DBA9003361250BF73
:102C73006012EEFCEFFD790012164A8007900336CE
:102C8300E4F0A3F0023DAA900334124829C3EE985E
:102C9300EF9922C082C083EC4D6005121F44800966
:102CA3007C087D00790012164A023C1E74F612035A
:102CB3007A7900EA4B601878008808126132EB12C7
:102CC30064BB60047901780808E8C3940840EA0209
:102CD3003E5674F712037A74F3120925ECFEEDFFE6
:102CE300851882851983E4F004120AF7EAF0A3EB4E
:102CF3001255EB7403120AF7AC82AD83EEFAEFFBC5
:102D0300120B46EEFAEFFB120B4C023DA574F712C1
:102D1300037A74F3120925ECFEEDFF8518828519F9
:102D230083E4F0EAFCEBFD7403120AF71230AE748D
:102D330001120AF7123E418E828F83123E4D74FEBA
:102D430068700374FF696004790180027900023DB1
:102D5300A574F712037AEAFEEBFF122DB270141278
:102D63002DBD8E828F83E0F4F88A828B83E058F046
:102D7300120B22A908023DAA74F712037AEAFEEBAA
:102D8300FF7508008E828F83E06022122DB2701DC2
:102D9300122DBD8A828B83E08F838E82F8E0587078
:102DA3000CE0F88A828B83E048F0120B2280C41275
:102DB3000B28E9F5087401650822126DFB122FC573
:102DC300122F07FAA3E039FB2274F412037A8A085C
:102DD3008B097C007D00122E6C122F9B122F2C125C
:102DE3006DED7900850882850983A3E064FE700395
:102DF300A3E0F460717E007F008062EEFAEF122A96
:102E0300926057EEFAEFFBEA75F00BA4FAA8F0759F
:102E1300F00BEBA428FB900336E02AF50AA3E03B72
:102E2300F50B850882850983A3125539850A8285A6
:102E33000B83A3E06A7003A3E06B701EE50A24030F
:102E4300FAE50B122F17700AE50A2403FCE50B12AF
:102E53002F98122F207901125E0112380B122E7453
:102E6300EE9AEF9B4095023FF7EA24030A0A0AEB26
:102E7300229003341259D8C32274F312037A8A08B6
:102E83008B098A828B83A3126DF0122F1B126DEDB7
:102E9300750C00122E6C122F1770547E007F008069
:102EA30049122EF9FAA3E0398A82F583E0540F60C0
:102EB30036122EF9F50AA3E039F50BE50A2403FCD3
:102EC300E50B122FA23400FB121F3EE964017017B9
:102ED300850A82850B83A3125A99A3123E4D122FA2
:102EE30020750C01125E0112380B122C8A40B2A914
:102EF3000C7F05020595EEF8EFF9E875F00BA4F8E1
:102F0300122F0722AAF075F00BE9A42AF9900336D1
:102F1300E02822EF122FEE22126E01EB22122F2C49
:102F2300125DFCEEF0A3EFF022E508126E02E50954
:102F33002274F512037AEAFEEBFF8E828F83A312CB
:102F43006DF07C007D00EE24030A0A0AEF122F9B2A
:102F5300EEFAEFFB120B28E9F50A7401650A7029F2
:102F6300126DFB122FC1AAF075F00BE9122FD38556
:102F73000882F583122FAD122FDE700DE5082403AE
:102F8300FCE509122F8F122F9B022C3B3400FDEE20
:102F93002403FAEF22122FA23400FB120B46223431
:102FA30000FDE5082403FAE50922A3122FB2221239
:102FB3002FB622E0F8A3E0F98E828F83A322122F8B
:102FC300C5223400F58312482DE875F00BA4F822CE
:102FD300122F0DF508A3E039F50922E8F0A3E9F073
:102FE300E5082403FAE509122FEE22122FF46401F7
:102FF300223400FB120B4CE92274F312037A74E6B9
:10300300120925126DE6750C017508007509007526
:103013000A00750B00851882851983E4F0EE2403FA
:10302300FCEF3400FD7403120AF71230AEE96401B9
:103033007023740B120AF7123E457401120AF71239
:10304300553D7003A3E06960518518828519838516
:103053008208858309740D120AF7E41230B5740EE1
:10306300120AF7123E4D740D120AF7AA82AB8312AD
:103073000B6AE96401700B740D120AF785820A85E5
:10308300830B780A120863AC08AD09EEFAEFFB1262
:103093000B3A74021208ABE9F50CEEFAEFFB120BD4
:1030A30064A90C741A1208AB022EF4123381120BAA
:1030B3007022123DB512482922C082C0837800795C
:1030C3000080031231AC122E74E89AE99B5029E870
:1030D300FAE9FBEA75F00BA4FAACF075F00BEBA47C
:1030E3002CFB900336E02AFCA3E03B8C82F583E0C3
:1030F300540F70CF790080027901023C1EC082C058
:1031030083902A2A12487FEC75F012A4FCA8F0756C
:10311300F012EDA428FD79FF7A1C7B0912164A02EE
:103123003C1E74F712037AE9FEEAFF7A007B00780B
:103133000079008028E8FCE9FDEC75F012A4FC8519
:10314300F00875F012EDA425081235C1C39E400A9C
:10315300E0FCEFC39C40031236E01231AC1235B5EC
:1031630040D3023DAAC082C0837800790080031255
:1031730031AC1231A0501F1235C5F470F2E875F06E
:1031830012A4F8AAF075F012E9A42AF9741C28FA1B
:10319300740939FB80047A007B00023C1E902A2AC2
:1031A300123676C3E89AE99B22E8240108E9340041
:1031B300F92274F012037A74F31209258A0A8B0B2D
:1031C3008C0C8D0D8908EC450D6016AA0CAB0D1205
:1031D3000BBE8A0E8B0FAE0EAF0FEE4F60030232A3
:1031E30073120B948A0E8B0FA80EA90FE8FEE9FF4A
:1031F300E849607C902A381232D56022740365084E
:1032030060067404650870167A047903120B8E90B5
:103213002A381232EC40077A007B000232D2902A1D
:10322300361232D5601B74016508600674026508A6
:10323300700F7A027901120B8E902A361232EC50FB
:10324300D68518828519837401F0120AF71258651E
:10325300AC0CAD0D7403120AF712337A740B120A15
:10326300F7123C3812422DE412584D12106E8004AE
:10327300EE4F604A780074FF2508C3940450027827
:10328300048E828F831258658E828F83A3A3A3A398
:10329300E508F0E88E828F83A3A3A3A3A312586D3E
:1032A30012022912368D8E828F83A3A3A3A3A3A315
:1032B300A3F0123684120AD4125DE5120AE0123228
:1032C300DA4005900E78E4F0120F48EEFAEFFB02B5
:1032D300483312598749227A047900120B8E902AB7
:1032E3002A1264A1EA98EB992212330575832A7591
:1032F300822AE493C398F8A3E49399F9C3EA98EB79
:103303009922E493F8740193F92274F212037A7404
:10331300F31209258A088B09ECFEEDFF750A00EE0E
:10332300FAEFFB120BBE8A0C8B0DA80CA90DE84912
:10333300603E88828983E065087004A3E0650960C4
:103343002F88828983A3A3A3A3E0C39405502112EA
:103353005C938518828519837401F0120AF7125C55
:1033630097EEFCEFFD7403120AF712337A750A0124
:10337300A90A740D025331123381120B7C22AA82E3
:10338300AB83120B46851882851983AA82AB8322ED
:1033930074F612037A1233CF600FA3A3A3A3E0142E
:1033A300C394045004790180027900023E5674F6F6
:1033B30012037A1233CF600FA3A3A3A3E014C39421
:1033C300025004790180027900023E56120BB88A3A
:1033D300828B83E58245832274F612037A1233CFFC
:1033E300600BA3A3A3A3E070047901800279000218
:1033F3003E56C082C083EAFCEBFD7A007B00023CB0
:103403001BC082C0837C007D00023C1B74F412034A
:103413007A74F3120925EAFEEBFF8C0A8D0BC3ECD9
:1034230094F8ED94FF4007EE4F70030234C875081B
:1034330000750900802E8518828519837401F012A6
:103443003833120AF712384160137403120AF7ACC7
:1034530082AD83EEFAEFFB121F3EE97049E50824C3
:1034630001123661902A2AE412598FE50898E5097A
:10347300995052E50875F012A4F8AAF075F012E518
:1034830009A42AF91264D460D4EE4F70A974FF65BD
:103493000A700474FF650B60C4123823650A700454
:1034A300A3E0650B70B7E50875F012A4F508A8F062
:1034B30075F012E509A428F509741C2508FA7409A6
:1034C3003509FB80047A007B00023FF274F4120397
:1034D3007A74F3120925750800120BBE8A0A8B0B46
:1034E300AE0AAF0BEE4F602A8518828519837401EB
:1034F300123DAFF8A3E0F9740B120AF7123ED01293
:103503000B5E7C127D0079FFEEFAEFFB12164A7513
:1035130008011232DA5009900E787401F0120F4844
:10352300A908023FF274F712037AE9FE74FE6A7087
:103533000374FF6B78007900700580521231AC126E
:1035430035B5504AE8FCE9FDEC75F012A4FCAFF088
:1035530075F012EDA42F1235C1F460E0E8FCE9FD2B
:10356300EC75F012A4FC75F012EDA42FFD741C2C65
:10357300F58274093DF583E06A7003A3E06B70BCC8
:1035830080091235C514C3940440171231AC1231AB
:10359300A05018EE70EC1235C564016005E06403B9
:1035A30070E9123814FAA3E0FB80047AFE7BFF0271
:1035B3003DAA902A2A124883C3E89CE99D22123728
:1035C3001522E8FAE9FBEA75F012A4FAACF075F0FB
:1035D30012EBA42CFB74202AF58274093BF583E0DB
:1035E30022120BD0023C1EC082C083790180F27488
:1035F300F012037A8A0A8B0B7A047901120B8E8AF2
:103603000C8B0DEA450D603EEAC333FAEB33FB1234
:10361300170A8A088B09AE08AF09EE4F60237AFEBA
:103623007BFF120BD674FE6A700374FF6B601B85FD
:103633000882850983123DBAE508240212366180A7
:10364300E1750C0080047E007F00850A82850B8370
:10365300E50CF0EEFAEFFB024838E5082407F5081D
:10366300E5093400F50922902A2A124883C3EA9C0B
:10367300EB9D22E493FA740193FB2212163E74032A
:1036830022125DF6E4F09081A322E88E828F83A359
:10369300A3A3A3A3A3A3A31236AF74011236AFA3AC
:1036A300F0EE2410125DF9E4F0A3F022124239A3E4
:1036B300A3A322C082C0837A007B00800419123640
:1036C300E012366A50101236FFC3940550F0E970C9
:1036D300EC1236E980047A007B00023C1EEA2401E6
:1036E3000AEB3400FB22EA75F012A4FA75F012EB30
:1036F300A428FB741C2AFA74093BFB22EAFCEBFDA9
:10370300EC75F012A4FCA8F075F012EDA4281237A2
:103713001522FD74202CF58274093DF583E0227493
:10372300F712037A74F31209257E007F000237C76C
:10373300E50875F017A4F8A9F0126735FAA3E0FBC2
:10374300EEF8EFF9E875F012A4F8ACF075F012E9B1
:10375300A42C1238226A7003A3E06B603FE508755E
:10376300F017A4F8AAF0EA126734F8A3E0F9740199
:10377300120AF7E0687003A3E0696020E50875F0BA
:1037830017A4F8EAF9749828FC740A39FD74031233
:103793000AF7AA82AB83121F3EE96014E50875F0AD
:1037A30017A4F8A9F0749628FA740A39FB12107A50
:1037B3000508902A3CE493F8E508C39850030237C0
:1037C3003312380B902A2A126A7B5039EEF8EFF93C
:1037D300123814F47003A3E0F460E68518828519A7
:1037E300837401F0EEF8EFF9E875F012A4F875F0C0
:1037F30012E9A42AF9123833120AF712384160C1C8
:1038030075080080AD023DA5EE24010EEF3400FFE4
:1038130022E875F012A4F8AAF075F012E9A42AF9C7
:1038230012382722741C28F582740939F583E022A3
:10383300741E28F582740939124827740B22E8F0A4
:10384300A3E9123ED8120B76E922C082C08390030B
:103853003D743AF0A3740EF090033F7434F0A374F4
:103863000EF09003437454F0A3740CF0023C1E74E6
:10387300F712037AEAFEEBFF900377E06408601B1C
:10388300E0640460168E828F83E054036401704801
:10389300123C2B12432EE06406703D8E828F83A36D
:1038A300A3E064FE7003A3E0F4602D8E828F83A3F4
:1038B300A3123E41900368E0687003A3E069700BB4
:1038C300EE2415F582EF1264BB6008120EE8E9F5E9
:1038D300088008120EEE80F67508C2EEFAEFFB12AE
:1038E3001710022D7674F412037A8A088B098A82E0
:1038F3008B83E0F8A3E0FAE82AFAE43400FB12171A
:103903000A8A0A8B0BAE0AAF0BEE4F6063850882FF
:10391300850983E0FC7D00790012164A8E828F832D
:10392300A3A3126DF0120F2A8E828F83A3A3A3A3E6
:10393300123DBA850882850983E0F8EE28F8EF3452
:1039430000123E49850882850983A3E0C0E0EE2486
:103953000D125DE8D0E0F0120F3CEE240E125DE88C
:10396300E912549AE0C0E0EE2411125DE8D0E0F0D1
:10397300EEFAEFFB023FF774F412037A74EB1209C9
:10398300258A088B098C0A8D0BE9FE900377E06486
:10399300046005E06408700479C2802EA3780812DD
:1039A3000AB8EE90037E123C25120AB87405120A77
:1039B300F7E9F07404120AF77401F07407120AF7B6
:1039C300E4F09003777402123BB97415023FF47468
:1039D300F612037A74EB120925EAFEEBFF1250BCD0
:1039E3006003023A767A077B0012170A90033912B2
:1039F3003DBA1250BC60788E828F83120AD4900332
:103A03003A124331120AE0126CB4C0E0123A82D087
:103A1300E0F0EE2405FAEF3400FB8A088B098A8272
:103A2300F583E0C0E0123A7DD0E0123FEEE0C0E063
:103A3300123A7DA3D0E0123E2E120AD48518828555
:103A43001983120AE088828983E0C0E07405120AB0
:103A5300F7D0E0F0850882850983E0C0E0740412A2
:103A63000AF7D0E0F07407120AF7123BB880067920
:103A730010800279017415023E53123A82A32290F8
:103A83000339E0FAA3E0F5838A82A3A3A3A322C0A8
:103A930082C0831250BC600D9003391259C6900343
:103AA30039E4F0A3F0120E5812101A023C1E74F0FF
:103AB30012037A74EB120925ECFEEDFF89087425D5
:103AC300120AF7780C120A9A7429120AF7E0F974A9
:103AD3002A120AF7E0FC742B120AF7E0FD740F694F
:103AE3007005740F6C6012900ED3E0640270057958
:103AF300C1023BB3E9C39C40F6900378780C120AE9
:103B0300B8E50890037EF0E990037CF0ECA3F0EDB8
:103B130090037FF074FF6A700374FF6B701D900E47
:103B2300DEE0F47003A3E0F47005121662800C90DB
:103B33000EDE123D82E8F0A3E98007900375EAF0F8
:103B4300A3EBF0EE4F6017EEFAEFFB1210DAE96425
:103B530001700BEEFCEFFD7A897B03121F44900387
:103B630068E4F0A3F090036BF0A3F0900388F09067
:103B73000ED3E06402700890037C740FF0A3F090FE
:103B830003777405F014120AF7E4F0900378120A2D
:103B9300D4851882851983120AE090037EE0C0E081
:103BA3007405120AF7D0E0F07407120AF7123BB853
:103BB3007415024835E4123ED8121F7422C082C025
:103BC30083900338E070031219CE120C1E804CC090
:103BD30082C083900338E0900E777004E4F0802D68
:103BE3007401F0900338E0F460237C41E0C3944116
:103BF3005002E0FCECF8E0C398F0EC75F0E8A4CCDC
:103C0300A8F075F003A428FD7A8012488B7A777B9D
:103C13000E7941121F5C8003120BC4D083D0820241
:103C23000843123E39780822EE125DF722E0F508C8
:103C3300A3E0F50922123C3C22122FB6A32274F50D
:103C430012037A74E2120925851882851983ECF030
:103C5300A3EDF0EAFEEBFF89087429120AF7E0F5F9
:103C630009742C120AF7E0F50A900377E064046004
:103C730005E06408700579C2023D73742A120AF7DD
:103C8300E064FE7003A3E0F4700579C3023D739012
:103C930003777403123ED47950121F5C742A120AFC
:103CA300F7AA82AB83794B121F5C8518828519832F
:103CB300123D82123E4DE50890036AF0742A120AFF
:103CC300F7123D7B123E4DE509900362123D897464
:103CD300CE55094480C0E07412120AF7D0E0F074A4
:103CE30001250A900388F0740F120AF77402F07426
:103CF3002A120AF7123E417407120AF7E8F0A3E901
:103D0300123DC07410120AF7123E4D7405120AF7E1
:103D1300E508F0741B120AF7E4F090037D740FF0CA
:103D23007A7D7B037954121F5C90037C740FF07AC5
:103D33007C7B037947121F5C90037CE0C3940F5094
:103D4300237405120AF7E0C0E07402120AF7D0E008
:103D5300F07404120AF77401F004120AF7AA82AB92
:103D630083121F807405120AF7AA82AB83121F62A3
:103D7300741E1208AB022C3D12482990036B2212C9
:103D8300482990037522F0EEFCEFFD7A897B03123C
:103D93001F442274F712037AEB90037FF0120E464E
:103DA3008005740D1208AB7F01020595123DB5A382
:103DB300E022123E2EA322EAF0A3EBF022123E34BD
:103DC300F8A3E0F92274F712037A74F8120925EACA
:103DD300FEEBFF7900900377E06408704485188256
:103DE30085198374FDF0A374FFF0120F247402127B
:103DF3000AF7123DBA7405120AF7E4123DB5E0C0A2
:103E0300E07404120AF7D0E0123E29C0E0740612EF
:103E13000AF7D0E0F07407120AF7E4123ED4120F47
:103E2300667408023DA7123E2EE022F08E828F8335
:103E330022123E39E022F085188285198322124826
:103E43002922E0F8A3E0F9125DF6E8F0A3E9F022F5
:103E53001208AB7F02020595C082C08390034974A8
:103E6300E4F0A3740CF09003EF74C0F0A3740FF0AC
:103E730090034D741AF0A3740DF090034F74E4F0A3
:103E8300A3740CF09003517420F0A3740DF0023C62
:103E93001E74F412037A74F91209258A088B098CAB
:103EA3000A8D0B8518828519837808120AB8740461
:103EB300120AF7E9F07405120AF7E4F07406120A1D
:103EC300F7E4123ED4120C067407023FF4E8F0A3A1
:103ED300E9123ED822123E39AA82AB832274F4122D
:103EE300037A8A088B098A828B83125E04EE4F70F1
:103EF30003023FEC9003121250BF60158A828B833A
:103F0300A3A3E0F9EEFAEFFB90031312433112215E
:103F1300358E828F83A3A3A3A3A3A3A3A3A3E06448
:103F23000270748E828F83A3A3A3A3A3A3E054027E
:103F33007003023FBE850882850983A3A3E064E979
:103F430060798E828F83A3A3A3A3A3A3A3A3A3A315
:103F5300E07014900ED6E0048E828F83A3A3A3A3F4
:103F6300A3A3A3A3A3A3F08E828F83A3A3A3A3A33B
:103F7300A3A3A3A3A3E014123FEEA3A3A37404F08B
:103F8300900ED712583FE8F0A3E91269188B0BEA99
:103F9300450B70031262F68E828F83A3A3A3A3A3A0
:103FA300A3A3A3A3E0640260128E828F83A3A3A3BF
:103FB300A3A3A3A3A3A3E06406702E8E828F83A37F
:103FC300A3A3A3A3A3E0A2E0501F850882850983CE
:103FD300A3A3E0F9EEFAEFFB1220168E828F83A3E0
:103FE300A3A3A3A3A3E054FEF080091242352274D5
:103FF3000D1208AB7F0402059574EC12037A74DD8D
:10400300120925EAFEEBFF8C088D097437120AF7B3
:10401300780C120A9A750A007405120AF7AC82AD7D
:10402300831220587412120AF7E070087415120AEA
:10403300F7E060207405120AF7E0A2E6501E8E82B4
:104043008F83A3A3A3A3A3A3A3A3A3125539120FDF
:104053009CE960087903121F2C02421B7405120AA3
:10406300F7E0540C64047005750B018003750B00B5
:10407300E0A2E55035750A01E50BA2E0402C120FD2
:104083002A8A108B11A810A911123C2BE068700327
:10409300A3E06960157405120AF7126DF71255351E
:1040A300122022E96004790480AC7405120AF7E057
:1040B300A2E650227406120AF7E05403701874053E
:1040C300120AF7E0540C640C600CE0540C640860B2
:1040D3000575100180037510007405120AF7E0548A
:1040E30003F8740268700C126DF7125535120B1039
:1040F30002421B740168703AE510A2E050031242B9
:10410300237405120AF7A882A9837403120AF7E835
:10411300F0A3E912481D85188285198312422DE008
:10412300C0E07402120AF7D0E0123ED41221060254
:10413300421BE8600302421B90035FE064017010BE
:104143008E828F83A3A3A3A3A3A3E070030240A93A
:104153007422120AF7740212481D741A120AF71213
:104163003E4DE510A2E050087405120AF7124223EF
:10417300E50BA2E0506AEE240FF582EF1264BBC098
:10418300E07417120AF7D0E0F09003141250BF70D6
:104193000302421B120F2A8A128B13A812A913744B
:1041A3001A120AF7E0687003A3E069706B780C12C7
:1041B300085B780A1208677808120863A910740C60
:1041C300120AF7AC82AD837421120AF7AA82AB8379
:1041D30090031412432E12213574071208AB803852
:1041E300780C12085B780A12086778081208639043
:1041F300037512069AEE2412F582EF1261E9742315
:10420300120AF7AC82AD83740E120AF7AA82AB834B
:1042130012200A74091208AB74231208AB0268E374
:10422300126DF71259D41215C622E8F0A3E912420F
:10423300352212423922F08E828F83A3A3A3A3A334
:10424300A32274F712037A1218A2023DAA74F7127A
:10425300037A1218A8023DAA74F712037A1218B44B
:10426300023DAAC082C0831218AE023C1E74F7122C
:10427300037A1218BA023DAA74F712037A74091268
:104283000AF7E0F50878081208671218C6740102E5
:104293003DA7C082C0831218D2023C1EC082C083D5
:1042A3001218D8023C1E74F712037A1218DE023D6C
:1042B300AA74F712037AEAFEEBFF89087401650812
:1042C30070147900120D5C902A47E493FC7900EE98
:1042D300FAEFFB120CD2023DAA74F412037A74F9BA
:1042E300120925E9FE8A088B098C0A8D0B741312B7
:1042F3000AF71255399005901250BF6027EE8518C2
:1043030082851983F07401120AF77808120AB8EA51
:10431300F8EBF97405120AF7123ED0900590124398
:104323002E122135023ECBFB90034BE0F8A3E0F5C0
:1043330083888222C082C083121914023C1E74F740
:1043430012037A900E7AE0F97E00800B1264A75470
:104353000D64017001190E12453B5003E970ED0223
:104363003DAA74F712037A900E7BE0F97E00800B6E
:104373001264A7548D64817001190E12453B5003DA
:10438300E970ED023DAA74F212037A890BE975F024
:1043930006A4240CF508E5F01236658A0CE5082519
:1043A3000CFAE5093400FB12170A8A0C8B0DAE0CCC
:1043B300AF0DEE4F6027AC08AD09790012164A1213
:1043C3003C2BE50BF0EE2508F8EF3509F98E828FCB
:1043D30083A3A3A3A3A3A3A3A3A3123E4DEEFAEF28
:1043E300FB02533474F612037AEAFEEBFF120CAEAF
:1043F300900E79E0F8E9C3984009900345125539C6
:10440300120CB4EE2402F8EF125B49900347125AE0
:1044130003900347E004F0EEFAEFFB120CBA8508B1
:1044230082850983E0025FFFC082C0837900900325
:10443300458001091255398A828B83E58245837051
:10444300F2023C1E74F712037AEAFEEBFFEE4F60B2
:10445300569003451250BF604E888289837A007B51
:1044630000EE65827003EF6583600FAA82AB83124F
:1044730044ADE5824583602F80E79003451244B93C
:10448300687002EF698E828F837008123E41900339
:104493004580031268F5123E4DEEFAEFFB1220D66B
:1044A300EEFAEFFB121710023DAA1244B122124892
:1044B3002D8882898322124829EE22C082C08390EC
:1044C30003458004888289831250BF600B888289E8
:1044D30083124B71EC4D70EC8A828B83E4F0A3F072
:1044E300E8496006888289838003900345123DBAB8
:1044F300023C1E74F712037A90034580048A828B70
:10450300831245364B60257E0080010E12453B50D9
:10451300ECEE75F006A4FCADF0EA2CFCEB3DFDECF3
:104523002410F582ED12458B70E180047A007B0044
:10453300023DAA1259D8EA22124594EEC398227476
:10454300F712037A7D0080010D124590EDC3985058
:1045530034ED75F006A4FEA8F0E8FFEA2EFEEB3F6B
:10456300FFEE2410F582EF12458B70DCED75F0063B
:10457300A4FEE8FFEA2EFAEB3FFBEA2411F582EBF7
:104583001264BB4CF0023DAA1264C769221245941F
:1045930022126E01EB3400F583E0F82274F6120365
:1045A3007A120DD47A007B008025EAF8EBF9E875DE
:1045B300F006A4F8ACF075F006E9A42C1259AD127C
:1045C3006CC2A3E4125AA3F0A3126CC8126E3F90FC
:1045D3002A321232E440D37A007B00801C8A088B93
:1045E3000974037808120A26125461A374FEF0A317
:1045F30004125883A3E4126E3F902A3B12463E40B6
:10460300DC7A007B00801D8A088B0974037808120A
:104613000A2674BE126133740D12697A74FEF0A314
:1046230004126E3F902A4112463E40DB902A45E435
:1046330093900353F0124648023E56E493F8C3EABC
:1046430098EB9400227CE87D037A107B009003C2F0
:10465300E0F91217D02274F012037A74F5120925C7
:104663008A088B09890A8C0BE9A2E050147508FCAF
:104673007509FFA2E15005D2E402471BD2E30247CA
:104683001B1253207003A3E069700579000247E809
:10469300AC0A7902AA08AB09120DB0E960EDE50A8C
:1046A300F50C780C12086779027CFE7DFFAA08AB33
:1046B3000912509B1208ABE960030247E6E50AC200
:1046C300E5F50A9003B5E07051E50AA2E6404B74A4
:1046D30003120AF7AC82AD83AA08AB09120B52E9A5
:1046E30070321249BC8A0C8B0DA80CA90DE8FEE9A7
:1046F300FFE8496025EE24020A0AEF122FF4601A3C
:10470300EE2402FCEF3400FD7403120AF7AA82AB15
:1047130083121F44E50AD2E5F50A900348E0F50C3D
:10472300900368E0F50EA3E0F50F780E1208637DA1
:10473300017C00900348E0F9AA0EAB0F120D6874D8
:10474300021208ABE9F8900348E004F0E8600302C2
:1047530047E6E50AA2E55004740E80027406C0E041
:104763007401120AF7D0E0125E158A0E8B0FAE0E9B
:10477300AF0FEE4F606912480612481D8882898385
:104783007401F07478550AA3126E07E50C126E07D4
:10479300A3E508F0E5091247F5E4F0E50AA2E550C0
:1047A3000F7403120AF7AC82AD83E824061247ECB8
:1047B3008E828F83A3A374FDF0A374FFF0E50B60D7
:1047C30015902A48E493F8E50BC3985009EE241397
:1047D300125DE8E50BF0EEFAEFFB120BF4800679BD
:1047E30010800279C7740B8049FAE93400FB121F69
:1047F300442288828983A3A3A3A312480122125BC4
:104803007CA322EE2417125DF97401F0120F24EE3B
:10481300241A125DF9EAF0A3EB22F0126DFB3400C7
:1048230012482722F58312482D22E0F8A3E0F9224B
:10483300740D1208AB7F0802059574F612037A7A99
:10484300007B1012630360089003D47401F0802985
:10485300900631E06401900ED47006E0FC7901808B
:1048630004E0FC79037A007B00120CD2902A301208
:10487300487F7A007B1012488D023E5612488322ED
:10488300E493FC740193FD227B009003C2E0F912D0
:1048930017CA2274EC12037A8A088B098C0C8D0DCB
:1048A300890E7414120AF712527A7416120AF7E078
:1048B300F510A3E0F511120F9CE960077AFF7BFF67
:1048C3000249B9900ED3E0640260030249AC790057
:1048D300AA08AB09120DB6A90E120DAA8A128B13E0
:1048E300AE12AF13EE4F70030249948E828F83A3EF
:1048F300A3A3A3A3E064018E828F83A3A370691291
:1049030055398E828F83A3A3A3A3A3A3E054186076
:1049130043902A46E4938E828F83A3A3A3A3F0EA52
:10492300650C7003EB650D6014EA650A7003EB65B3
:104933000B600AEA65107003EB6511701F781012A3
:104943000863AC0AAD0BAA0CAB0D121098740212DB
:1049530008AB80089003671262EDA3F074FE6A70DF
:104963000374FF6B601D804EA3A3A3E0640360295F
:104973008E828F83A3A3A3A3A3E0640470057AFEAE
:104983000248C18E828F83A3A3A3A3A3E064027012
:10499300089003B4E0640270101249BC8B0BEA4523
:1049A3000B6006AA08AB09800DAA08AB099003495E
:1049B30012432E1221350268E39003751250A1129F
:1049C300105C2274F712037AEAFEEBFF120BA6E9DE
:1049D300700AEEFAEFFB120BB2E96006EEFAEFFB98
:1049E30080047AFE7BFF023DAA74F012037A8A0ADE
:1049F3008B0B8C0E8D0F8909750800120F9CE979BA
:104A0300006003024B63AA0AAB0B120DB6A909128D
:104A13000DAA8A0C8B0DAE0CAF0DEE4F60198E8272
:104A23008F83A3A3A3A3A3E0640270559003B4E010
:104A330064027003024B61AA0AAB0B90034F12434B
:104A43002E122135120BB88A0C8B0DA80CA90DE878
:104A5300497003024B6188828983A3A3A3A3A3E0C4
:104A6300A2E04003024B61750C01A2E15068790199
:104A7300AC0AAD0BAA0EAB0F120D02E97064024B28
:104A8300618E828F83A3A3A3A3A3E0640370057540
:104A93000C0280528E828F83A3A3A3A3A3E064019D
:104AA3006003024B61900375124B718E828F8312E8
:104AB3004EC68A0C8B0DA80CA90DE84960D1902A2B
:104AC3003FE493FA88828983E0C39A50C2A3E060EB
:104AD30003024B6180B988828983A3A3A3A3A3D2D2
:104AE300E1F0EE4F603A8E828F83A3A3A3A3A3A327
:104AF300E05418602B7508018E828F83A3A31206DE
:104B03009A750CFE750DFF780C1208637900AC0AD8
:104B1300AD0BAA0EAB0F120DC874041208AB803E86
:104B2300900368E0650E7004A3E0650F7014902A8B
:104B330047E493FCA909AA0AAB0B120CD27508012E
:104B4300801CA90CAC0AAD0BAA0EAB0F120D02E927
:104B5300700C750801A909AA0AAB0B120D5CA90810
:104B6300024838E50C2415F582E50D125DFC125858
:104B7300592274EA12037A74F01209258A0C8B0DF8
:104B83008C088D097426120AF7E0F514A3E0F515D5
:104B93007512069003F51250BF6023900375124BF4
:104BA30071AA08AB091210868A108B11EA451160AD
:104BB3000D8A828B83A3E070057900024EAEE50C6B
:104BC300241DF50EE50D3400F50F850E821250AB52
:104BD300F51388828983A3A3A3E0FA88828983A338
:104BE300A3A3A3E0F9EA2400FEE439FFAA08AB0972
:104BF300120D62850E82850F83124EE9E029F50BB3
:104C0300E50AA2E5500375120E7487550A701774EE
:104C130018550A6418600FE50C2417F582E50D1288
:104C230064BB651260077901121F2C808C530A78CC
:104C3300C3EE94F8EF94FF501D7900EEFAEFFB12E8
:104C43004EB8601288828983A3A3A3A3A3A3E054CD
:104C5300186003024BBC78081208637D00124EDC17
:104C63001208ABE9F87403687003024BBCE86003F5
:104C7300024D277418550A7003024DDCE50AD2E091
:104C8300F50AA2E45004D2E1F50AA90A1255321238
:104C93004EB8605388828983A3A3A3A3A3A3E0543C
:104CA30018604488828983A3A3A3A3A3E06401704B
:104CB30036E51045116030900375124B7188828977
:104CC30083124EC68A0E8B0FA80EA90FE8496017F0
:104CD30088828983A3E0600F851082851183A312E4
:104CE300600A5003024BBCE50AF50E780E12086702
:104CF300124ECF1208ABE9702B7C007D0085148225
:104D030085158374FFF0A3F0850C82850D83A3A31F
:104D1300A3A3A3A3A3A3E06003124B66A90B12559D
:104D2300321218CC851482851583E0F47003A3E056
:104D3300F460399003B4E064027003024BBC125276
:104D43006BE0FAA3E012432A122135EA65087003E7
:104D5300EB65096003024BBCEEFAEF12432A122102
:104D630035851482851583EAF0A3EBF078081208E1
:104D7300637D01124EDC1208ABA90AEEFAEFFB12B7
:104D83000DB68A088B09A808A909900368E0687022
:104D930003A3E0696003024E9FEEFAEFFB120BB828
:104DA3008A088B09A808A909E849606E8882898363
:104DB300A3A3A3A3E06401600D88828983A3A3A3B3
:104DC300A3E064027054851882851983AC82AD8395
:104DD300EEFAEFFB120B528055900361E0600FE592
:104DE3000AF50E780E120867124ECF1208ABE50AC9
:104DF300F50E780E12086779027CFE7DFFEEFAEF5E
:104E0300FB12509B1208ABE96003024D2785148205
:104E130085158374FFF0A3024D6E120F24EAFCEB99
:104E2300FD851882851983AA82AB83121F44850CE2
:104E330082850D83A3A3A3A3A3A3A3A3E06401700B
:104E43000F124B667408120AF7AA82AB83121F442F
:104E5300125075125C814430F508780812086774A3
:104E630001120AF78582088583097808120863749A
:104E73000B120AF78582088583097808120863E50F
:104E830013F50878081208677900EEFCEFFD125558
:104E930032120CFC74061208AB024BBC1250751292
:104EA3005DEB124EE9E50BF0120F3C74101208ABE8
:104EB3007F0E020595120DAA8A0E8B0FA80EA90F5D
:104EC300E84922A3A31259D8121086227901AC080B
:104ED300AD091259CD12509B22AC0BA9131259CD17
:104EE300120D68740222125C89A3A3A3A32274F097
:104EF30012037A74F01209258A0C8B0DECFAEDFB80
:104F0300750F089003F51250BF60141260038A8274
:104F13008B83E58245836007A3E070030250701220
:104F2300507534001250ABF50B8882898312507E82
:104F3300E0FBEC2400FEE43BFF88828983A3A312F9
:104F4300507EA3A3E0FBECF508E43BF509888289D6
:104F530083A3A3A3A3A3A3A3E0F50EE50AA2E450AE
:104F630003750F10A2E550067408250FF50F748F13
:104F7300550A700FE50C2417F582E50D1264BB6525
:104F83000F60087901121F2C025070530A707800C9
:104F9300E50AA2E450221250751264BB2408FCA354
:104FA300E03400FD7408120AF7AA82AB83121F448F
:104FB3007808E50AC2E4F50AE50AA2E5502812508A
:104FC300751264BB28F8A3E03400F9E82408FCE96F
:104FD3003400FD851882851983AA82AB83121F448E
:104FE300E50AC2E5F50AAC0EA90BEEFAEFFB120DCA
:104FF3006EE9F87403686075900368E06E7003A34C
:10500300E06F605EE87054E50AF50F780F120867E9
:1050130012508C1208ABE97054780A1208677401B5
:10502300120AF785820C85830D780C120863740BC2
:10503300120AF785820C85830D780C120863E50B41
:10504300F50A780A120867A90EAC08AD09EEFAEF63
:10505300FB120CFC74061208AB8012740468700D0A
:1050630080B7780A12086712508C1208AB741002CA
:105073004835E50C241DF582E50D22A3A3A3E0FC2E
:1050830088828983A3A3A3A3227901125272125D9A
:10509300FC1250A112509B22120D26740122E0FC37
:1050A300A3E0FDAA08AB0922F5831244B1A3E0F5FE
:1050B3000A88828983A3A3E022900339125A3422F7
:1050C30074E812037A74F5120925EAFEEBFF8C08E3
:1050D3008D0989147423120AF7E0F50F7424120A58
:1050E300F7E0F512A3E0F5137426120AF7E0F516BC
:1050F300A3E0F5177428120AF7E0F50EA90F120DB5
:10510300748A108B117401120AF77408F0E50EA269
:10511300E450037410F0E50EA2E55004E02408F017
:10512300851882851983AA82AB83120F848A0C8B1C
:105133000DEA450D7003025252EA2417F582EB1271
:105143005264120F24E50C241AF582E50D125DEB6F
:10515300123DBA7403120AF7AC82AD83AA10AB11E5
:10516300120B52E9601D12525C7403120AF7A882F3
:10517300A983E50C2418F582E50D125DEBE8F0A395
:10518300E98024E50EA2E4501FE5106E7003E511DB
:105193006F701512525CE50C2418F582E50D125D53
:1051A300EBE512F0A3E513F012526B12527A850A63
:1051B30082F5837402F0A3E50E125282E50FF0EE3E
:1051C300850A82850B83A3A3A3F0EF850A82850B4F
:1051D30083A3A3A3A3125282A3A3A3E508F0E50923
:1051E300850A82850B83A3A3A3A3A3A3F0AA10AB71
:1051F30011120D62E92514850A82850B83A3A3A3EB
:10520300A3A3A3A3F0750800E50EA2E45011AC120A
:10521300AD13E50A2408FAE50B1247EE750808E515
:105223000EA2E55014AC16AD17E50A2508F8E50BF8
:105233003400F9E824081247EC850C82850D83A31A
:10524300A3E510F0A3E511F0AA0CAB0D120BF47457
:105253000B1208AB7F10020595E50C2416F582E5C9
:105263000D125DFC7401F022125272125DFC22E5F4
:105273000C126E02E50D22E0F50AA3E0F50B22F015
:10528300850A82850B83A3A32274F212037A8A0808
:105293008B09ECFEEDFF890A79001253207003A3FA
:1052A300E069700479018073750B01900368E06510
:1052B300087004A3E06509601F750B00780B1208E2
:1052C30067A90AEEFCEFFDAA08AB09120FD8740117
:1052D3001208ABE9F50B80417900EEFAEFFB120DF2
:1052E300AAEA4B602B8A828B83A3A3A3A3A3A3E085
:1052F3005418601C7508FE7509FF78081208638A44
:10530300828B83A3A312069A126C171208AB80092F
:105313007901EEFAEFFB120C84A90B8014120DB67F
:105323008A0C8B0DA80CA90D900368E06822120863
:10533300AB7F0602059574F412037A7508067509A6
:105343000C7A1012691F8B0BEA450B700312464847
:10535300900353E014F0700C902A45E493900353A8
:10536300F0120DC27E007F00806C85088285098360
:10537300A3A3A3A3E06059F46056E5082404F582CF
:10538300E5091262E77049850882850983A3A3A30F
:10539300A3A3E06403701979028508828509831247
:1053A3004B71850882850983A3A3125539120D0217
:1053B300850882850983A3A3A3A3A3E064016010E6
:1053C30085088285098374FEF0A304125493E4F0E4
:1053D30012380B12365D902A34126A7B408C7E00A1
:1053E3007F008039120ECA8E088F09740378081261
:1053F3000A26747E2508FC740D3509FD7A0E7B0D93
:10540300120EB8EA4B70DD8E088F09740378081208
:105413000A26125461126CC2E4F012380B902A3B34
:10542300E493F8C3EE98EF9400501B8E088F097431
:10543300037808120A26125469E82407F582E91250
:1054430062E770D680A17E007F00800A12547460E8
:105453000214F012380B126A7840F1023FF712542B
:10546300698882898322747E2508F8740D3509F9C9
:1054730022EEF8EFF9E875F006A4F8AAF075F00645
:10548300E9A42AF9741E28F582740D39F583E02204
:1054930012549AA3A3A322F0850882850983A3A3A8
:1054A3002274F712037A74E1120925ECFEEDFF75FD
:1054B3000800EE4F60728A828B83E0241C1263180B
:1054C3001250BF60638A828B831255398518828597
:1054D3001983AC82AD83EA241BF582EB1261E9EAFE
:1054E300241CF582EB125535120F0C740B120AF7BC
:1054F30012553D7003A3E069702E7402120AF7E09F
:1055030064017024741D120AF712432EE0640170C3
:1055130017741D120AF7124330A3A3E0F88E828F8B
:1055230083E0687003750801A908741F023DA71280
:1055330052723400F5831259D822122FB2E0682236
:1055430074F412037AE97024790090034D12432E08
:105553001221358A0A8B0BAE0AAF0B74FE6E7003F1
:1055630074FF6F701A902A42E493601379019003D9
:105573004D12432E1221358A0A8B0BAE0AAF0B1242
:105583000F4802397374F612037A74F31209251261
:1055930016628A088B09AE08AF09900368E06E7043
:1055A30003A3E06F60E9120F30EA6E7002EB6F60E5
:1055B300DEEEFAEFFB120F9CE970D4EE4F60D0855C
:1055C3001882851983E4F004120AF7EEF0A3EF12B0
:1055D30055EBE970BA74FE6E700374FF6F60B0EE42
:1055E300FAEFFB740D023E53123ED8120B6A22C02F
:1055F30082C083120F48023C1E7F0A02059574F293
:1056030012037AEAFEEBFF8C0A8D0B8908740E12E3
:105613000AF7E0F50974FC6E700374FF6F70057987
:10562300000253347900120DB68A0C8B0DAE0CAF09
:105633000D900368E06E7003A3E06F7006E509A2A6
:10564300E650DCA909126B05706179007AFE7BFFD5
:10565300126B057056741855097003025738780099
:10566300790080031231AC902A341231A340030233
:105673005738E8FAE9FBEA75F007A4FAACF075F0DD
:1056830007EBA42CFB740C2AF582740C3BF583E026
:10569300541870D0E875F007A4F8AAF075F007E97C
:1056A300A42AF9740628F8740C39F988828983A32B
:1056B300A3A3A3A3A3E054186009741855097003A6
:1056C30002562288828983EEF0A3EFF074FE650A06
:1056D300700474FF650B600312585F88828983A38B
:1056E300A3A3A3A3A3E509F0A2E0500D88828983B5
:1056F300A3A3A3A3A3A3D2E2F074016508888289BC
:1057030083A3A3A3A3A370387401125883E054188E
:105713006028902A46E49388828983A3A3A3A312D3
:10572300584D1210868B0DEA450D60030256227800
:1057330000790080397902025624900367E080D70C
:10574300E06401700302562288828983A3A3A3A382
:10575300A3A3E054186007902A46E49380049003BF
:1057630066E01247F5E508F00256221231AC902AA2
:105773003CE493FAC3E89AE9940040030256227A80
:10578300007B00804BEAFCEBFDEC75F007A4FCAE5C
:10579300F075F007EDA42EFD74082CF582740C3D12
:1057A300F583125E04E8FCE9FDEC75F017A4FC85B3
:1057B300F00975F017EDA42509FD74962CF5827494
:1057C3000A3DF583E06E7003A3E06F609E1236E03E
:1057D300902A3412366D40AD12487FEC6A7002EDA8
:1057E3006B7088E875F017A4F8AAF075F017E9A4B0
:1057F3002AF9749628FE740A39FF7C177D00790014
:10580300EEFAEFFB12164A8E828F831258659003CD
:105813007512583FA3A3A3A3A3A3E8F0A3E91258C7
:10582300457401F0EE240E125DE8740112586D12F6
:105833000229EE240D125DE8E802576A123C3CA3EC
:10584300A322F0EE240F125DF922F0125856AA0A91
:10585300AB0B22900375E0FCA3E0FD2288828983D1
:10586300A3A3E50AF0A3E50BF022F01258722290ED
:105873002A3FE4932401F8E43400F97A027B0022FE
:10588300124801A32274ED12037A8A088B09890E48
:105893001259B64005790502598412191AAA08ABA0
:1058A30009125A88902A32125987650A7003E965EA
:1058B3000B70077AFE7BFF125A88902A32E4125942
:1058C3008FE50A98E50B99400302598212599360B8
:1058D30012E50A75F006A4F875F006E50B1259DE19
:1058E300121710E50E6018E50A75F006A4F8AAF081
:1058F30075F006E50B125A0A701A7901025984E50C
:105903000A75F006A4F8AAF075F006E50B1259EB38
:10591300E4F0A3F0E50A75F006A4F8AAF075F00622
:10592300E50B1259ABA3125C9788828983A3AA82E1
:10593300AB831259F98A828B83E0603F12599360DB
:105943003A8E108F11751200781012085FE50EC39E
:1059530033FCE433FDE50A75F006A4F50AA8F075F7
:10596300F006E50BA428F50B7422250AF582740DC5
:10597300350B12553712367E1208AB790080027947
:1059830007026B1B123305E822902A2A1264A22213
:10599300E50A75F006A4F8AAF075F006E50B1259AE
:1059A300E6F8A3E0F9E84922A42A125B3F8882893A
:1059B30083A322ECFEEDFF902A3DE493F8E9C3981C
:1059C30022F5831259D812171022E50C126E02E544
:1059D3000D3400F583E0FAA3E0FB221259E6FAA3A3
:1059E300E0FB221259EBE022A42AF9742228F58263
:1059F300740D39F58322E50EF0900ED5125A032269
:105A0300E088828983F022125B63F50CE93400F5A8
:105A13000DE50EC333FAE433FB12170A850C8285B6
:105A23000D83EAF0A3EBF0850C82850D83125A34C3
:105A33002212482DE8492274F412037AECFEEDFF9A
:105A4300740C120AF7123E4188088909125A88AC6D
:105A53000AAD0BECF8EDF9902A32125A905021E876
:105A630075F006A4F8AAF075F006E91259ABE08EBA
:105A7300828F83125AA3125A99123E4D79008002E3
:105A83007904023FF7120D388A0A8B0B22123676FD
:105A9300C3EC9AED9B22124829850882850983224B
:105AA300125B782274F612037A7E007F008028EE60
:105AB300F8EFF9E875F006A4F8ACF075F006E9A480
:105AC3002CF9742028F582740D1267266A7003A3DB
:105AD300E06B605712380B126A7840D3126A737006
:105AE30002E96F704674FE6A700374FF6B703C7E4C
:105AF300007F00800312380B126A78502E12547400
:105B030070F3EEF8EFF9E875F006A4F8125B3512BE
:105B13005B6A6017125B51F8E9125B49888212597C
:105B2300C4850882850983E4F0A3F0EEFAEFFB0253
