:020000040000FA
:060000000212980207BA8B
:03002B000210BF01
:03003300020E704A
:03004300020F5B4E
:030053000206EBB7
:03006B00020E562C
:1000830002074F0101FF0503013018301830183003
:1000930018EC16E6163018ED2B000000004F2C006C
:1000A3000000000C0000000C0001040000101A0006
:1000B3000000000000D01A00000000000000000053
:1000C30000FFFF0101010020050000007105E803A6
:1000D30064006400B801020200080000050207057D
:1000E3001E02051E0A03B80B020102F1FF021F00E4
:1000F300E0079651180002020612303132333435CC
:100103003637383941424344454600286E756C6C96
:1001130020706F696E74657229003F3F3F000000D5
:10012300807F0000803FF9021550B743BA510000A9
:10013300204100E7DB2E0000A04010000000080073
:1001430000000A0000001212E460461212B7603D7C
:10015300E9687008F618F618F618F622748067F73F
:1001630012017D090909748067F7221212B7601D15
:100173001212E47005191919801A121131701F1225
:10018300115BC37003E66733191919400718181870
:100193002208080874FFF618F618F618F62212114A
:1001A3005B6017121323702192F012132D701950F4
:1001B3001720F014080808090909E7F61819E7F6E3
:1001C3001819E7F61819E7F62212132D60E6E86905
:1001D300701F0808E62480F608E436F618547FB446
:1001E3007F0CE654806007F6E418F618F622181818
:1001F30022E9C6CC08C6CD08C6CE08C6CFC0E0E803
:10020300C0E0EAC0E0EBC0E009E9F809E7FA09E772
:10021300FBE6F918E6F8C3EC98ED99EE9AEBC2E722
:10022300F5F0EFC2E795F0500E600CEBCFFBEACE92
:10023300FAE9CDF9E8CCF8EAA2E7D2E7FAEB33FB27
:1002430013F5F0EEA2E7D2E7FEEF33FFC5F013A2FA
:10025300E730E601B313C5F0C3C0E0C0F07F00C3CD
:100263009BFB605B9418600C401AD0E023F9D0E04C
:10027300F802034C8AF0E9486003D2F0E4AFF0FAE5
:10028300F9F8803BEB30E40D89F0EA6003D2F0E447
:10029300AFF0F9CAF8EB30E30D88F0EF6002D2F06B
:1002A300AFF0E4CAC9F8EB54076014FBC3EA13FACE
:1002B300E913F9E813F8EF135002D2E0FFDBEDD0B6
:1002C300E0C0E030E739C3E49FFFF5F0EC98FC426F
:1002D300F0ED99FD42F0EE9AFE42F0D0E0F9D0E065
:1002E300F8E5F0607AE923F9EE20E742D802806767
:1002F300C3EF33FFEC33FCED33FDEE33FE80EAEC6A
:1003030028FCED39FDEE3AFED0E023F9D0E0F840C9
:1003130002801BC3EE13FEED13FDEC13FCEF135031
:1003230002D2E0FF08B800067F7F74FF802EEF3310
:1003330050178CF020F00260100CBC000C0DBD00B7
:10034300080EBE000408E860DFE933E813FFEE237C
:1003530013FE4F4D4C8008E95480FFE4FEFDFCEE94
:1003630033EF33F47004FCFD7E80D0E0FBD0E0FA81
:10037300D0E0F8D0E0CFC618CEC618CDC618CCC68C
:10038300F9221212B77004181818221212E4700D11
:1003930074FFF61819F61819F61819F622E754809F
:1003A30066F612132D700F12132370F014F608F66D
:1003B30008F608F680D1121323700CF608F60876B7
:1003C3008008E6447F80EC12115E700C12113460D9
:1003D300BFE65480F6E480BB121134700519191975
:1003E30080A5E869700C763F18768018F618F6E851
:1003F300F922E6CDC0E018ECC0E0E633CD33CDD32F
:1004030013F6E719FCE7191933CC33C3947F400E75
:10041300CD9D502408E65480F6E418F6800FF404CA
:100423003D14501408E6447FF6187680E418F61855
:10043300F6D0E0FCD0E0FD22CCD313CCFD18E4C60B
:10044300CBC0E018E4C6CAC0E00808ED08C633E62E
:1004530013F618E433C675F003C3CA97CA09CB97DA
:10046300CB199C40047D08802EBD000302052E1687
:10047300B6FF050606081618C3CA33CACB33CB33F7
:10048300CA27CA09CB37CB193CC37D08803E187DE8
:100493000820E75CC633C6CA33CACB33CB33DDF19E
:1004A300D5F0EB30E77BCA97CA09CB974ACB199CA7
:1004B300406F4B7025E620E0218066187D08C3CA93
:1004C30097CA09CB97CB199CD3C633C6CA33CACBB9
:1004D30033CB3350C9DDE7D5F0E1D3E4C636C608E4
:1004E300C636C608C636C608C636C61818188031BA
:1004F300C3CA97CA09CB97CB199CB34097C633C6D7
:10050300CA33CACB33CB33DD34D5F02EC6A2E0C613
:1005130040C8CA27CA09CB37194A70BECB3CB4803E
:10052300B90808E63308E633601F181818D0E0FA54
:10053300D0E0FBD0E0FCD0E0FD22187D08CA27CA3A
:1005430009CB37CB193CD3808013F618E4B67F115F
:10055300F618B6FF0EF618C60470D2080876808027
:10056300CAF618F618F680C5001212B7604F1212B9
:10057300E46012E7548066F61211317011121323EE
:10058300703B090909F4F618F618F618F622121149
:100593005B701512132D08080860EAE6447FF6180D
:1005A300768018E4F618F62212132D601612132320
:1005B3007012E4F608F608F608E65480F60909090D
:1005C30018181822EAC0E0EBC0E0ECC0E0EDC0E090
:1005D300E687F0A4FBACF008E687F0A42CFCE43536
:1005E300F0FA1809E687F0A42C4B60027401CA35AF
:1005F300F0FCE433FB09E687F0D2F7A42CCB35F00B
:10060300FC1908E687F0A42BCC35F0FBE433FD0896
:1006130019E687F0D2E7A42C4ACB35F0CD3400FCA1
:1006230009E687F0D2E7A42DCC35F0FDE433FA09CF
:1006330018E687F0D2F7A42CCD35F0CA3400FC08B5
:10064300E687F0D2E7D2F7A42ACC35F07A7E20E70A
:100653000B0ACB33CBCD33CDCC33CC33CB3350148C
:100663007004ED30E00ED2F1E4CD3DCDCC3CCC3B7B
:100673005005DA05C2F1EB547FC63308E63392F036
:10068300FBE73309E733C39A502D2B70190C0D4C3C
:100693004D70151806E608C333700D20F10AA2F059
:1006A30013F6E418800B4024E4F630F00276801849
:1006B300F618F618F68024D33B14501074FFA2F0FA
:1006C30013F6187680E418F618F6800FA2F013F6E6
:1006D30018E63303F618ECF618EDF6D0E0FDD0E09B
:1006E300FCD0E0FBD0E0FA22C0E074F2120ADAA2F6
:1006F300AFE433FED2AFE5A7FFE5A1F5085F5410E1
:10070300600612213675A1EFE5085F5408600812F0
:10071300213C75A1F7802BEFA2E0C0D0E508A2E051
:1007230092F01211E6158182F05017906198E0F86B
:1007330090084AE0C398A2D265D0335002E8F0751E
:10074300A1FEEEA2E092AF7F01020B39C0E074F28A
:10075300120ADAA2AFE433FED2AF9061A4E0F875D7
:100763009B00E59158540860087591F71221848025
:100773002AE59158541060087591EF12218A801B65
:10078300E8A2E0C0D0E591A2E092F01211E6158153
:1007930082F05007E0C2E0F01222CE9061A3E0F8AD
:1007A300E5E9585404600E1222A475E9FB906193A5
:1007B300E0A2E640F2808BC0E074F2120ADAA2AF44
:1007C300E433FED2AF9061A5E0F8E5BF585404606E
:1007D3000675BFFB1222E6020745C3E498F8E499C5
:1007E300F912081E8026C3E49AFAE49BFBE920E78A
:1007F300E912081EE498F8E499F922C3E498F8E4AE
:1008030099F912081EE498F8E499F9C3E49AFAE412
:100813009BFB22EB20E7CFE920E7E0B90010BB0008
:1008230008E88AF084F8AAF022E4FBC8FA22EB7005
:10083300227B10C833C8C933C9335007C39AC3DBFB
:10084300F280069A50012ADBEAC833F4C8C933F4AC
:10085300C9FA2275F008E4C833C8C933C933C99A41
:10086300C99B5004C92AC93BD5F0ECFBC833F4C873
:10087300E4C9FA221208B720F01430E72B74FFFC06
:10088300FBFA747F8022E4FCFBFA7480801AB48044
:1008930008BC00F2BB00EF800F50EBF9E4C39AFAF7
:1008A300E49BFBE49CFCE499C6CC18C6CB18C6CAEF
:1008B30018C6F922E4C9C608CAC608CBC6D333038F
:1008C30008CCC63392F0C3947F402E94184019C9C4
:1008D300B90704CACBCC225025C309CA33CACB33C8
:1008E300CBCC33CC33D9F422F4600DC9CCC313CBB6
:1008F30013CBCA13CAD9F6CC22E4FCFBFA2214FCAC
:10090300FBFA22080808EAC0E0EBC0E086F0E7A49F
:10091300FA180986F0E7A42AFA180986F0E7A42A48
:10092300FA180986F0E7A42AFA1986F0E7A4FBE58A
:10093300F02AFA190886F0E7A42BFBE5F03AFA1936
:100943000886F0E7A42BFBE5F03AFA18180986F0BD
:10095300E7A4C5F02BFBE43AFA1908E7C5F0C6A4EF
:1009630026F6E5F03BFBE43AFA1886F0E7A4F6E551
:10097300F00826F6E43B08F6E43A08F6D0E0FBD0AC
:10098300E0FA22080808E630E71112119912099ECD
:10099300080808C64480C618181822181818E979D8
:1009A3009EC608CAC608CBC608CCC6C370207996B3
:1009B300CACBCC7019798ECBCC70137986CC700EE0
:1009C300F9802ACA33CACB33CBCC33CC331930E7C3
:1009D300F2CCCBCA3350147004EA30E00DE4CA3AC7
:1009E300CACB3BCBCC3CCC500209C3E913C6CC18D1
:1009F3002313C6CB18C6CA18C6F922E4CFC0E0E455
:100A0300CEC0E0E4CDC0E0E4CCC0E075F020C3E6A6
:100A130033F608E633F608E633F608E633F6181835
:100A230018EC33FCED33FDEE33FEEF33FFC3EC97ED
:100A330009ED9709EE9709EF97191919400FFFEC84
:100A430097FC09ED97FD09EE97FE191906D5F0BE3F
:100A5300ECF709EDF709EEF709EFF7191919D0E0EB
:100A6300FCD0E0FDD0E0FED0E0FF222518C582C017
:100A7300E0E51934FFC583C0E0E518C3958224F887
:100A830010AF0885831985821880088583198582AC
:100A930018D2AFCEF0A3E520F0A37808E608F0A3C0
:100AA300DEFAEFF0A3E58124FAF8E608F0A3E608FE
:100AB300F0A3E608F0A30808E608F0A3E608F0A30D
:100AC30015811581D0E0FED0E0F8158115811581DF
:100AD300E8C0E0EEC0E022C0D02518C582C0E0E542
:100AE3001934FFC583C0E0E518C3958224F310AF22
:100AF300088583198582188008858319858218D211
:100B0300AFC8F0A3E9F0A3EAF0A3EBF0A37908E7F9
:100B130009F0A3D8FAECF0A3EDF0A3EEF0A3EFF005
:100B2300A3D0E0F0A3D0E0F0A3D0E0F0A3E520F061
:100B3300A3E5F0F0A322851983851882E0C0E0A322
:100B4300E0F9A3E0FAA3E0FBA37808E0F608A3DF4B
:100B5300FAE0FCA3E0FDA3E0FEA3E0FFA3E0C0E016
:100B6300A3E0C0E0A3E0F5D0A3E0F520A3E0A3F564
:100B7300F010AF088583198582188008858319854D
:100B83008218D2AFD082D083D0E0F8D0E0321213F3
:100B930018B90003020BD3E490030178A1790A800A
:100BA30002F0A3D8FCD9FA900CA1AA82AB839000DF
:100BB3008678C479018015E493A3AC82AD838A82DD
:100BC3008B83F0A3AA82AB838C828D83D8E9D9E788
:100BD30075822C7583B7740312101E7582EC7583AE
:100BE30025740012101EE8030875F0108E1A8F1B6F
:100BF30085821F85831E851882851983E0CEA3E035
:100C0300CF851F82851E83EBC9EAC8EDCBECCAC32F
:100C1300E833C8E933C9EA33CAEB33CBC3EA9EF5F9
:100C23001DEB9FF51CB35004AB1CAA1DEC33CCED9C
:100C330033CDD5F0DAAE1AAF1B221212B7601C12F5
:100C430012E4601712132D70071213237001D322BD
:100C5300C0D01213237006D0D0B322C32233D0D016
:100C6300501430E0F6C3E7960809E7960809E796BB
:100C73000809E796B32220E0D5E6970809E6970826
:100C830009E6970809E697B3221212B7601B1212FE
:100C9300E4601612132D7007121323600CB322C0E5
:100CA300D01213237005D0D022C32233D0D05013D7
:100CB30030E0EBC3E7960809E7960809E7960809C9
:100CC300E7962220E0E4E6970809E6970809E69705
:100CD3000809E69722D083D082ECC0E0EDC0E0E4BF
:100CE30093A3FCE493A3FDED4C600D120DB0EC2433
:100CF300FFFCED34FFFD80EFE493A3FCE493A3FD3D
:100D0300ED4C600D120EE0EC24FFFCED34FFFD8092
:100D1300EFD0E0FDD0E0FCE493A3C0E0E493C0E0B7
:100D230022851983851882E0A3FEE0A3F5207808C5
:100D3300E0A3F608DFFAE0A3FFE0A3C0E0E0A3C06E
:100D4300E0E0A3C0E0E0A3C0E0E0A3C0E010AF0890
:100D53008582188583198008858218858319D2AF07
:100D6300D083D082021024D083D082E9C0E0E49300
:100D7300A3C386F0C5F095F0F908E493A386F0C504
:100D8300F095F0700BE493A3C3994005E904800246
:100D9300A3E475F002A42582F582E5F03583F5839B
:100DA300D0E0F9E493A3C0E0E493C0E022C0E0C341
:100DB300E49396087401939618400FE493667008C1
:100DC30008740193661870007019A3A3C3E4939683
:100DD300087401939618A3A3400DD0E0D0E0D0E0AF
:100DE300020D14A3A3A3A3A3A3D0E022D083D08294
:100DF300C5F0E493A3C5F0C395F0F5F0E493A3C362
:100E030095F04005E5F0048001E475F002A4258225
:100E1300F582E5F03583F583E493A3C0E0E493C062
:100E2300E0227404800474028000CCC0E0EDC0E0D2
:100E3300E518C39CCCAD1950011D10AF068C188D5D
:100E43001980068C188D19D2AF120FA0D0E0FDD0F7
:100E5300E0FC22C0E074F2120ADAE589A2E1500351
:100E6300121FF2758900C2C57F01020B39C0E074FD
:100E7300F2120ADAE58BA2E05003121FF2758B001F
:100E8300C2E880E474028000CCC0E0EDC0E0E51865
:100E9300C39CCCAD1950011D10AF068C188D198061
:100EA300068C188D19D2AF120F7ED0E0FDD0E0FC76
:100EB300221212B760251212E4602012132D700360
:100EC300021323080808E76670101819E766700A0A
:100ED3001819E76670041819E76622F422C0E0C007
:100EE300F088F0E493667008087401936618700044
:100EF300A8F0A3A3700BD0F0D0E0D0E0D0E0020DB7
:100F030014A3A3D0F0D0E022D083D082CCC0E0E4FD
:100F130093A36006120FC11470FAE493A360061240
:100F230010F01470FAD0E0FCE493A3C0E0E493C0A3
:100F3300E022C008C3E096F50808A3E0964208083B
:100F4300A3E096420808A3E0964208A2D265D033F4
:100F5300E5087001D3D00822C0E074F2120ADAA2C5
:100F6300AFE433FED2AFC2C0E5D1A2E450031220F6
:100F7300ACEEA2E092AF7F01020B39CAC0E0E4936A
:100F8300A3C582CCC582C583CDC583F0A3C582CC5E
:100F9300C582C583CDC583DAE5D0E0CA22CAC0E0E5
:100FA300E0A3C582CCC582C583CDC583F0A3C5822A
:100FB300CCC582C583CDC583DAE6D0E0CA22C0E0C2
:100FC300E493A3D39C5010E493A3C39C400AD0E0C2
:100FD300D0E0D0E0020F28A3A3A3D0E02270090839
:100FE3000808226016181818C6C333C608C633C6C5
:100FF30008C633C608C633C6D5E0EA22C008C3E034
:1010030096F50808A3E096420808A3E0964208086C
:10101300A3E09645087001D3D00822C09FF59FE452
:1010230073D09F22D083D082C09FE493C0E0740129
:1010330093C0E0740293F59F227404800A740380C2
:1010430006740280027401C0E0F404121057D0E069
:101053001212F3222518F58210AF08F51840021575
:10106300198008F51840021519D2AF85198322C0DB
:10107300D0251810AF08F518500205198008F51887
:1010830050020519D2AFD0D022BB0102E722C082A1
:10109300C08389828A83BB0003E08002E493D08308
:1010A300D082226016080808C6C313C618C613C622
:1010B30018C613C618C613C6D5E0EA22C0E0C0D0CE
:1010C300E8C0E0E5A8D2AFC2C7A2E792AFD0E0F88C
:1010D300D0D0D0E032C3E0C696F608A3E0C696F6B9
:1010E30008A3E0C696F608A3E0C696F622C0E0E49D
:1010F30093A36C7009D0E0D0E0D0E0020F28A3A343
:10110300D0E022251810AF08F51840021519800801
:10111300F51840021519D2AF22E066701008A3E05B
:1011230066700A08A3E066700408A3E06622181834
:1011330018E6084608700AE608C3337005E633F478
:10114300220822E76670100809E766700A0809E7B3
:101153006670040809E76622191919E70947097037
:101163000AE709C3337005E733F4220922C3E09683
:1011730008A3E09608A3E09608A3E096A2D265D060
:101183003322C3E096F008A3E096F008A3E096F0BC
:1011930008A3E096F022181818E4C396F608E4961C
:1011A300F608E496F608E496F622E026F608A3E0AD
:1011B30036F608A3E036F608A3E036F622E026F07A
:1011C30008A3E036F008A3E036F008A3E036F022E7
:1011D300E627F60809E637F60809E637F60809E6CA
:1011E30037F622C0E0E8C0E0E58124FCF8E6A2E798
:1011F300D0E0F8D0E022E657F60809E657F60809EA
:10120300E657F60809E657F622E056F608A3E05635
:10121300F608A3E056F608A3E056F622E647F608DA
:1012230009E647F60809E647F60809E647F6227095
:101233000422600D18C6C333C608C633C6D5E0F40E
:101243001822E056F008A3E056F008A3E056F00891
:10125300A3E056F022C3E09608A3E09608A3E09625
:1012630008A3E09622C6F4C608C6F4C608C6F4C6A8
:1012730008C6F4C622600D08C6A2E713C618C61333
:10128300C6D5E0F322C3E7960809E7960809E7966F
:101293000809E7962275D000758140751801751904
:1012A3000300020B91E6F008A3E6F008A3E6F008BA
:1012B300A3E6F022E6084608C3134608336002E6B5
:1012C30033F422600C08C6C313C618C613C6D5E090
:1012D300F422E0F608A3E0F608A3E0F608A3E0F69C
:1012E30022E7094709C3134709336002E733F422AE
:1012F300CAC0E0E6F0A308DAFAD0E0FA22EAF0A3E3
:10130300EBF0A3ECF0A3EDF022E0FAA3E0FBA3E003
:10131300FCA3E0FD22E5C754F84401F5C779012297
:10132300E7C33319471947194722E6C33318461849
:10133300461846222518F582E43519F58322C2AFF3
:1013430075D69F020000221210274BDE01121027D0
:101353008FDE01121027B6DE0112102707DF0112FC
:101363001027B7DF011210276FE00112102737E1B2
:101373000112102714E2011210279AE2011210271A
:10138300A9E201121027B4E201121027BDE30112F2
:101393001027CEE30112102744E401121027D6E4EC
:1013A300011210272EE501121027F4E50112102770
:1013B30025E6011210276AE60112102777E60112CB
:1013C30010270BE8011210276EE9011210278AEA91
:1013D30001121027F4EC01121027FFEC0112102761
:1013E30009ED0112102714ED011210271EED011251
:1013F300102728ED0112102733ED011210273EEDBF
:10140300011210276FED0112102793ED011210271F
:10141300B7ED011210271CEE0112102760EE011226
:1014230010277CEE01121027F3EE011210272BEF89
:101433000112102777EF01121027D4EF01121027A2
:10144300B6F1011210273CF2011210270DF301121D
:1014530010271DF60112102772F6011210279EF6AF
:1014630001121027EAF7011210273AF80112102788
:101473008FF80112102790F90112102728FA011290
:101483001027AAFA011210274AFB011210276E2E09
:1014930000121027A72E00121027813000121027E8
:1014A300C030001210270A3100121027AF3100128A
:1014B30010270E3200121027423200121027AF32CB
:1014C30000121027CC3300121027D4340012102737
:1014D3006A3500121027B138001210275A3900124A
:1014E3001027363A00121027973A00121027B43B00
:1014F30000121027DE3D00121027953E0012102720
:101503009F3E00121027D23E00121027993F00126F
:101513001027344000121027994000121027C240B0
:1015230000121027E4400012102713430012102763
:10153300EA43001210272E44001210279B44001286
:101543001027564500121027884500121027CC4556
:1015530000121027FF4500121027544600121027CF
:10156300A946001210273D47001210279F4700127B
:101573001027074800121027B04900121027984A75
:1015830000121027DA4B00121027084E0012102702
:10159300C84E00121027F750001210279A5100125C
:1015A3001027D85100121027845300121027985384
:1015B30000121027A25300121027CC530012102739
:1015C300D85300121027F75300121027AE540012FD
:1015D3001027ED5400121027F75400121027AB55B3
:1015E30000121027AA5600121027A3570012102723
:1015F300405800121027E25800121027F958001221
:1016030010273059001210274E59001210279259F3
:1016130000121027B759001210279D5A00121027E5
:10162300095B00121027835B00121027925C0012E3
:101633001027D15D00121027335E00121027ED5ED4
:1016430000121027105F00121027E45F001210270A
:101653002F6000121027716000121027C86000125B
:101663001027FF60001210272D61001210276661FA
:10167300001210278B61001210271362001210272B
:101683003664001210279564001210272965001292
:101693001027956500121027E9650012102793FFA4
:1016A30002121027D2FF0212102753B4011210277F
:1016B300ADB40112102709B50112102755B5011257
:1016C300102770B501121027A1B501121027BEB55E
:1016D30001121027CAB5011210273EB701121027B5
:1016E30057B701121027BEB701121027D1B7011245
:1016F3001027DFB70112102793B80112102777B90B
:10170300011210277DBA0112102703BB0112102703
:101713000DBB011210277ABB0112102791BB0112D6
:101723001027C3BB01121027FCBB0112102726BCD4
:101733000112102787BC01121027A7BC0112102722
:10174300C5BC011210270BBD0112102731BE0112B7
:1017530010277EBE01121027ADBE0112102723BF32
:10176300011210274BBF0112102784BF011210274B
:1017730092BF01121027EABF0112102739C00112CC
:10178300102778C001121027A8C001121027D4C057
:1017930001121027DFC001121027FDC0011210270C
:1017A300BFC101121027C9C10112102704C20112BF
:1017B30010271AC20112102723C20112102778C260
:1017C300011210278CC2011210279AC3011210278D
:1017D300ADC301121027C2C30112102764C4011242
:1017E3001027E7C401121027A5C501121027B0C5A1
:1017F30001121027D6C601121027F2C601121027B4
:1018030044C70112102783C70112102798C701127A
:101813001027DAC70112102727CA01121027A5CAF9
:101823000112102718CB011210273ACD01121027ED
:1018330052CD0112102755CD0112102761CD01128F
:10184300102775CD011210277DCD01121027B0CDC1
:101853000112102760CE01121027D6CE01121027D5
:1018630049CF01121027FDCF01121027B2D0011268
:101873001027D1D00112102771D1011210277DD169
:1018830001121027A8D101121027ABD10112102782
:1018930015D2011210273DD30112102715D40112BE
:1018A3001027A0D401121027B9D50112102776D61C
:1018B30001121027AFD601121027E0D6011210270C
:1018C30080D701121027B0D7011210278BD801122D
:1018D300102724D901121027AFD90112102760DA7B
:1018E30001121027E2DA0112102714DB011210276C
:1018F30055DB01121027C0E20212102725E3021262
:10190300102762E302121027B1E302121027C7E582
:1019130002121027AAE70212102714EB0212102753
:101923004FEB0212102771EB02121027D4EB0212B5
:10193300102708EC021210272BEC0212102758EC88
:1019430002121027B4EC02121027AACC021210279D
:1019530028CD021210275ECD02121027CACD021223
:1019630010273DCF0212102759CF021210279ECF06
:10197300021210272CD00212102785D00212102732
:10198300B2D102121027C4D20212102721D302129D
:1019930010278DD302121027EED3021210272FD453
:1019A30002121027DCD402121027EED502121027E0
:1019B30019D60212102764D602121027ABD60212D0
:1019C30010273DD702121027F8D70212102761AB58
:1019D3000312102791AB03121027E6AB0312102753
:1019E3006CC1031210277DC103121027CEC103124D
:1019F300102713C203121027BDC203121027EAC90E
:101A030003121027C9BC0312102721BE031210278B
:101A13006FD80212102714D90212102734D90212D8
:101A2300102754D90212102768D902121027C0D9DF
:101A330002121027F0D90212102771DB02121027AD
:101A430017DC02121027F9DC021210274ADD0212FA
:101A530010278DDD02121027D0DD0212102736DE8B
:101A63000212102757DE02121027E3DE021210279C
:101A730014DF0212102788DF0212102736E1021248
:101A8300102710E20212102752E202121027ACE2D2
:101A93000212102740B90312102761B9031210274D
:101AA30097BA03121027C1BA03121027FDBF0312FE
:101AB300102789C00312102793C003121027B4C044
:101AC300031210274BC1031210276DC002121027F7
:101AD30070C0021210272AC10212102755C1021228
:101AE30010279CC102121027C1C102121027E2C1A4
:101AF3000212102716C2021210274FC20212102719
:101B030078C302121027AFC302121027CFC30212E9
:101B130010276AC4021210272FC50212102766C5A8
:101B230002121027DBC6021210277EC702121027EB
:101B330077C802121027A0C802121027F4C8021295
:101B43001027BAC902121027E8C9021210277DCB49
:101B530002121027FECB0212102731CC02121027DB
:101B630000ED021210270AED0212102756ED0212A1
:101B73001027C4ED02121027E5ED02121027FCED29
:101B830002121027ACEE0212102740F102121027A6
:101B930049F1021210279CF102121027C5F102121B
:101BA30010272CF202121027BDF202121027FFF2A7
:101BB3000212102749F302121027AFAF01121027A8
:101BC30039F40212102778F402121027B7F4021224
:101BD3001027ECF402121027FEF40212102710F55E
:101BE300021210272FF50212102738F502121027C0
:101BF300EEF5021210272EF6021210277C94031220
:101C030010274F95031210276995031210277A9511
:101C1300031210278F9703121027AE970312102772
:101C2300FAB40312102730B50312102779B5031243
:101C33001027C9B60312102710DE0112102762679E
:101C4300001210279E67001210275D6900121027EB
:101C5300866900121027196C001210275D6C0012A0
:101C63001027E66D001210277E6E00121027E66E15
:101C730000121027876F00121027C96F0012102758
:101C830009700012102794710012102704730012B8
:101C930010272975001210275775001210277E751B
:101CA30000121027877500121027E2750012102703
:101CB300757600121027937900121027147A0012F8
:101CC3001027FDCE0312102787FF01121027879CD0
:101CD300031210279A9C03121027379D0312102713
:101CE300729D031210278D9D03121027B29D0312BC
:101CF3001027F79D03121027289E03121027599EC1
:101D030003121027DF9F0312102735C40312102775
:101D13006BC40312102787C403121027C9C403120C
:101D23001027D9C4031210276EC50312102778C5D4
:101D330003121027EC9F03121027A7A003121027EA
:101D430057A103121027CFA10312102722A20312B7
:101D53001027DEB00212102736B102121027E0B1AD
:101D63000212102788B202121027E5B202121027BE
:101D73003EB30212102752B3021210271CB50212EF
:101D8300102797B502121027C1B5021210277EB78C
:101D93000212102799B702121027E8B70212102770
:101DA300FEB7021210270BB8021210273FB8021217
:101DB300102755B802121027DBB802121027EAB811
:101DC3000212102743B9021210279DB902121027DD
:101DD300EBB902121027F5BA0212102777BD0212CF
:101DE300102711BE0212102753BE02121027E8BE9D
:101DF3000212102705BF0212102708BF0212102774
:101E03000BBF021210277EBF0212102799BF0212C6
:101E13001027C5BF0212102700C00212102703C0EB
:101E23000212102716C0021210273DC002121027FB
:101E33007ECD031210278ACD03121027C4CD0312BF
:101E430010270DA10212102738A10212102704A295
:101E53000212102789A202121027F2A202121027DF
:101E63003EA302121027BDA3021210274FA4021291
:101E73001027DBA4021210271DA50212102789A91F
:101E83000212102709AB0212102748AB02121027C7
:101E930011AC02121027C5AC0212102775AE021244
:101EA300102701AF02121027008002121027BA80F8
:101EB300021210272C81021210273B8102121027D5
:101EC300B581021210272482021210272E830212D8
:101ED3001027578302121027F78302121027458415
:101EE30002121027B58402121027E9850212102767
:101EF300C58602121027368702121027B3880212F2
:101F03001027758902121027108A021210276B8A74
:101F130002121027D68A02121027DA8B0212102718
:101F23009B8D021210273A8E02121027AC8E0212DA
:101F33001027698F0212102730A60312102784A6D8
:101F430003121027DCA60312102727A7031210275A
:101F530089A70312102722A8031210278AA80312A5
:101F6300102796A803121027A4B203121027D5B284
:101F7300031210278FB303121027F5B30312102790
:101F830066B403121027B4B703121027DDCA031275
:101F93001027EECA031210278ECB0312102711BB92
:101FA300031210271FBB0312102713CF031210278E
:101FB300E8CC03121027F8CC0312102713CD031219
:101FC300102774CD03121027E8C8031210276DC918
:101FD30003121027D1C903121027D6C703121027E3
:101FE300F8C70312102762C8031210276DC8031223
:101FF3001027B1C8031210270080031210270E8088
:10200300031210274F80031210277080031210272A
:10201300FA80031210271C810312102788810312F0
:102023001027A38103121027BE8103121027C88132
:1020330003121027D28103121027E5810312102700
:10204300FE81031210279A8203121027568303126C
:102053001027CD8303121027478403121027AD8462
:1020630003121027FDFB011210270BFC011210278E
:1020730085FC0112102769FD0112102722FF0112AE
:102083001027DCFF02121027717A00121027DE7A64
:10209300001210279F7B001210270F7C00121027BD
:1020A300187D00121027907E00121027F47E001274
:1020B3001027497F00121027527F00121027617FDB
:1020C30000121027747F001210278A7F0012102736
:1020D300937F00121027578603121027AC86031232
:1020E3001027A88803121027DA8803121027FC8808
:1020F300031210271589031210272E8903121027A4
:10210300388A03121027D38A03121027D4C203126A
:102113001027F8C20312102711C30312102744C358
:102123000312102775C303121027A3C3031210272A
:1021330005C40312102714C4031210271EC403126C
:1021430010272BC403121027D1A803121027F7A8B6
:102153000312102734A90312102743A903121027CF
:1021630062A903121027CAA903121027D3A90312C5
:10217300102732AA0312102756AA0312102715ABF1
:102183000312102722AB0312102733AB03121027BD
:1021930045CE0312102762CE031210274A8B031277
:1021A3001027A88C03121027B58C03121027C88C94
:1021B30003121027E78C03121027FD8C031210273C
:1021C300118D03121027868D03121027EB8D031236
:1021D30010279B8E03121027708F03121027808FF6
:1021E300031210278F8F03121027AFCB0312102770
:1021F300D3CB03121027FBCB0312102723CC0312DC
:102203001027E1AD0312102708AE0312102729AEE1
:10221300031210278EAE0312102747B003121027A4
:1022230060B0031210276CB00312102780B00312A2
:1022330010279EB003121027A8B003121027B2B0C4
:1022430003121027C5B00312102718B10312102769
:1022530051B10312102780B103121027CEB103121C
:1022630010271DB20312102738B20312102742B2EF
:102273000312102753B20312102799B20312102727
:10228300A67F0012102757F60212102781F60212BA
:1022930010279DF602121027B0F602121027C6F679
:1022A3000212102723F70212102756F702121027E3
:1022B30092FB02121027B8FC02121027EBFC021249
:1022C300102737FD0212102763FE021210278BFE20
:1022D30002121027A0FE02121027B0FE02121027CE
:1022E300F4FE0212102755FF0212102765FF021297
:1022F300102790C503121027ABC503121027D4C5AE
:1023030003121027EEC50312102713C6031210275A
:1023130032C6031210274AC60312102778C60312C7
:10232300102792C60312102701CE03121027079914
:10233300031210270E99031210271A9A031210275B
:102343004A9A03121027709A03121027939A0312C2
:102353001027B59A03121027EF9A03121027559BE3
:10236300031210278E9B03121027DA9B03121027E8
:10237300079C03121027279C0312102770BE031219
:10238300102782BE031210276DBF03121027FABF56
:1023930003121027C3C60312102735C703121027D1
:1023A30073C703121027B4C70312102710A3031215
:1023B30010272CA3031210277BA30312102797A324
:1023C30003121027C8A303121027D8A30312102740
:1023D300C4A403121027CEA403121027DBA40312F4
:1023E3001027EBA503121027FFA50312102708A639
:1023F30003121027C88F031210270D9403121027FE
:10240300129403121027D2FF0112102748CC031293
:10241300102772CC0312102781CE03121027B7CED8
:1024230003121027DFCE03121027BE9002121027CB
:10243300DC950212102760AD0112102769AC01125E
:1024430010274DAC01121027F9AB01121027B1ABC5
:1024530001121027EFAA0112102762AA01121027F6
:1024630055AA0112102763A701121027B5A4011260
:102473001027EADD01121027D1DD0112102789A3ED
:1024830001121027DDA2011210277DDD0112102792
:10249300D9DC011210272EA101121027E99E011287
:1024A3001027709E01121027179E01121027AB9D53
:1024B30001121027829D01121027759B011210270C
:1024C300419B011210270E9B01121027F29A011251
:1024D3001027189A01121027D09901121027059876
:1024E30001121027859701121027829701121027D6
:1024F30089960112102757960112102794950112FD
:102503001027BF9301121027509301121027229313
:10251300011210274FDC01121027EEDB01121027E6
:102523009CDB011210278ADB011210270EB3011264
:1025330010271F93011210270C9301121027A49246
:1025430001121027939201121027F0B201121027E3
:102553007491011210273E9101121027019101126B
:102563001027A29001121027A5B10112102723668C
:10257300001210277190011210272C8D01121027C1
:102583001D8C01121027AC8B01121027718B0112C5
:1025930010273C8B01121027308B01121027908AD1
:1025A30001121027D78901121027AA8701121027B9
:1025B300368501121027F48401121027BF830112FC
:1025C3001027748301121027A68201121027FD81A0
:1025D30001121027998101121027D38101121027AC
:1025E30002B101121027A8F30200000080FBE4737C
:1025F30000000000000000000000000000000000D8
:10260300101010101010000030300000001428507B
:10261300000000000000000000000000002828FC6B
:10262300284850FC50500000000010385454301813
:1026330014545438100000000044A8A8B0541A2AB7
:102643002A44000000000020505060ACA898927CFF
:10265300000000606020C0000000000000000000D7
:1026630000040808101010101010080804000000DF
:102673004020100804081020400000000000001053
:1026830010D63838D61010000000000000101010CB
:10269300FE10101000000000000000000000000009
:1026A3000000606020C0000000000000FC0000008B
:1026B3000000000000000000000000000000606057
:1026C3000000000204040408081010202020400029
:1026D3000000003048848484848448300000000073
:1026E3000010701010101010107C00000000003853
:1026F300444404081020447C000000000038444493
:102703001804044444380000000008081828484806
:10271300887C081C00000000007C4040784404448E
:10272300443800000000003C4480B8C484848478AA
:1027330000000000007C4448081010101010000036
:102743000000007884844878848484780000000042
:1027530000788484848C740488F0000000000000F6
:1027630000303000000030300000000000000000A6
:10277300100000000010102000000408102040206A
:102783001008040000000000000000FC0000FC0032
:102793000000000000004020100804081020400042
:1027A300000000007884848408101000303000009A
:1027B30000000038449AAAAAAAB4423C00000000D0
:1027C300001010282828384444EE0000000000F8C8
:1027D30044447844444444F800000000003C4484EA
:1027E3008080808044380000000000F04844444466
:1027F300444448F00000000000FC4440487848404E
:1028030044FC0000000000FC42404878484040E09F
:1028130000000000003C448480808E844438000023
:10282300000000EE4444447C444444EE00000000B5
:10283300007C101010101010107C00000000007CB1
:10284300101010101010101090E0000000EE44481B
:102853005070484844EE0000000000E04040404013
:10286300404044FC0000000000EE6C6C6C54545477
:1028730054D60000000000EE64645454544C4CE4FD
:1028830000000000003048848484848448300000C1
:10289300000000F844444478404040E00000000059
:1028A30000304884848484B448380C00000000F865
:1028B30044447850484844E600000000003C44404B
:1028C3002018040444780000000000FE9210101049
:1028D300101010380000000000EE44444444444407
:1028E30044380000000000EE444428282828101033
:1028F3000000000000D6545454546C2828280000CB
:10290300000000EE44282810282844EE00000000B0
:1029130000EE442828101010103800000000007C3E
:1029230088081020204044FC0000001C10101010E8
:102933001010101010101C00007010101010101048
:1029430010101010700000701010101010101010E4
:1029530010107000001028000000000000000000AC
:10296300000000000000000000000000000000FE66
:1029730000606020C00000000000000000000000B4
:102983000000000038441C24443E0000000000C046
:1029930040407844444444780000000000000000B4
:1029A3003C444040443800000000000C04043C4414
:1029B3004444443E000000000000000038447C40D2
:1029C300443800000000001C2420F8202020207838
:1029D30000000000000000003C48483040784438C4
:1029E300000000C040405864444444EE000000002E
:1029F3000010000070101010107C00000000000890
:102A030000003808080808080870000000C04040AB
:102A13005C48507048EC000000000070101010106B
:102A23001010107C0000000000000000F854545403
:102A330054D60000000000000000D864444444EE73
:102A43000000000000000000384444444438000003
:102A5300000000000000F8444444447840E00000D3
:102A6300000000003C444444443C040E00000000C9
:102A73000000EC30202020F80000000000000000DF
:102A83003C443008447800000000000010107C1023
:102A93001010100C0000000000000000CC4444445F
:102AA300443E0000000000000000EE4428282810E7
:102AB3000000000000000000D654545428280000F1
:102AC300000000000000DC48303048EC000000004B
:102AD30000000000EE442828101020E00000000051
:102AE30000007C481010247C0000101010101010FF
:102AF30010101010101010100001363601010001E3
:102B030002010001030100010401060605020000A1
:102B1300070100340801000F090401010D0100FF42
:102B23000E08000017020000190100FF1A0100013E
:102B33001B0100FE1C0100081D0200001F01000113
:102B430020010001210200002301000F24020000E4
:102B53002601000127010008280200FF2A010007BF
:102B63002B0102402C0100002D0100012E01000168
:102B73002F0100FF30010B1C310800003A0100084F
:102B83003B01000F2F0100000302710230016002BC
:102B930011027002010202020202800210026102AB
:102BA3003A004100630273027202620243020002AE
:102BB30013023800000200020402120200020002A3
:102BC3000002000204020402370037003C02440200
:102BD3000002390000020002650200023502810290
:102BE3000002050282028302000203007100300129
:102BF30060001100700031022003500480001000B7
:102C0300610000001400630073007200620043005F
:102C13000000130006000000000004001200000082
:102C230000000000000004000400370037003C02ED
:102C330044000000000000000000650000003500B3
:102C43008100000005000000830000000103710300
:102C5300010301030103010301032203020301032F
:102C63001003000300030003000300030003000339
:102C730042030003240306030003000304031203B7
:102C83002503230325032303040304030003000391
:102C9300000344030003000323030003650321002F
:102CA300350381030003050300030003000301014F
:102CB3007101010101011101010131010101010151
:102CC3008001100161013B00140063017301720173
:102CD300620143010001130106013D0135000401B6
:102CE300120100010001000100010401040133018C
:102CF30033013C014401320136000001000165014A
:102D030000013500810100010501820183010001F9
:102D130036000100060000000F0000000000000064
:102D230000000000000003FFFF00000403FFFF009A
:102D330000FFFF0FF4010005C4040320000100039A
:102D43000B000000000000000003010F0100E41E5F
:102D530002005A1E0300601E0400661E05006C1E5E
:102D63000600781E1100901E1400961E15008A1E80
:102D7300FFFF0000461776174C175217701764179A
:102D83005E177C17821788179417581740173A173E
:102D930003EAF5E5D5D5C5B5A5959585857575651D
:102DA3006555554545353525251515050A12150271
:102DB300DC1405EE1407E2140CBE140DD014FF004E
:102DC3000000160F00000B150B020002220F320049
:102DD300000630184218481810174E180A1716170D
:102DE3009018AE18B4189618A2189C1800034948F6
:102DF300424D18172505020C0E020B040B0A070897
:102E0300000F000119161816161523030000383C8D
:102E13003E363B3B352B432C303016181920231AF2
:102E23001C1E30303017181921301B1D1F306A1734
:102E33008E17A8189A17A017841854185A186618CA
:102E430060180204020101010109020000000000F0
:102E53000000BE040A0E00150004002800050C0A39
:102E6300030908FF1E1E0F0404100C74F7120A6EE8
:102E7300E99003B0F0900365E4F012237C9003B56E
:102E8300E4F0A3F09003B1F0A3F012164A122382E8
:102E9300900334E4F0A3F0902E6993FA790212239D
:102EA300E2025B0474F2120A6EEAFEEBFF548060E6
:102EB300699003B0E0F9121BA28A088B09EA45095D
:102EC300604F7C0080010CEC75F003A4F8A9F0744A
:102ED300AF28F582742D39F583E493F4602CE493E1
:102EE300F88508828B83E06870DCAA08EC75F00330
:102EF300A4F874B028F582742D39F583E493C0E007
:102F0300740193F583D0821225F1AA08AB09121B31
:102F130096EEFAEF6480FB023074EF5420601D12CA
:102F2300156C8A088B09EA4509600A1214D0AA08AD
:102F3300AB09121B96EEFAEF642080DAEEA2E050A2
:102F43001A90036AE0640F700B790012149AE96017
:102F530003123077EE6401FAEF80BB542070030252
:102F63003042750C001245498B09EA450970107C03
:102F7300027D007A207B009003B0E0F9121CEC7C08
:102F83000079047A007B001215488A088B0980189F
:102F9300850882850983A3A3A3A3A3A3A3A3A374DF
:102FA30001F0850A08850B09E5084509606D7C0079
:102FB3007904AA08AB091215488A0A8B0B750C0110
:102FC300E5082404F8E5091242ED24FFF0A3E034F8
:102FD300FF1265E070CC850882850983A3A3A3A3B0
:102FE300A3A3A3A3A3A3E0640170A5850882850915
:102FF30083A3A3A3A3A3A3E05404709485088285A9
:103003000983A3A3A3A3A3A3A3A3A37406F07AB7DB
:103013008508828509831231A380871215187C00E5
:1030230079017A007B001215488B09EA450970097A
:10303300E50C70057A201254A3EE6420022F5AEF98
:103043005402600B121644EEFAEF6402022F19EFDA
:103053005404601912563A12555A790190036312B7
:1030630058BE1213E0EEFAEF6404022F197A007BC4
:10307300000232AA900CEC1239411214B222C0821F
:10308300C08374EA121106851882851983AA82AB5C
:1030930083794B1223B874081213377402F074093E
:1030A300121337AA82AB8379501223B87413121305
:1030B30037E4125A8D1223D67416024A6774F71234
:1030C3000A6E74E1121106EAFEEBFFEE4F603385E0
:1030D3001882851983AC82AD83121590740612137E
:1030E30037E0601E7417121337E0FD7401121337B3
:1030F300E0FCEEFAEFFB790012254AE9600479A4BB
:1031030080027900025AFF74F6120A6EEAFEEBFFA0
:103113008E828F83A3A3A3A3A3A3E05440601B12B7
:103123005F7C12327160067AFF7BFF801A8E828F7A
:10313300831246F3FAA3E0FB80031215B474FE6A0C
:10314300700374FF6B6041125F7C1254E712160820
:10315300E98E828F83600612319CE4800512319CD4
:103163007401F07CA07D148E828F831258BE1223CB
:10317300DCE9F5087015EE4F60097901EEFAEFFB13
:10318300121524A9080255187508CDAA088E828F36
:10319300831231A3E960DF80EAE0240D124BC222DF
:1031A300E0240C124BC2E0F91214AC2274F6120A9A
:1031B3006EE9FEEAFF7A0F7B00121B90EA4B60195F
:1031C3008A828B83740CF0EEA3A3F0EF8A828B8345
:1031D300A3F01255437900802FEEF912154E8A0899
:1031E3008B09A808A909E849601C88828983A3A3DD
:1031F300A3A3A3A3A3A3A37406126207E0F9121463
:1032030064EEF912152A7910025518C082C0839012
:10321300036AE0640F7014EA4B6010900365E06486
:10322300086005E064047003123231024A91EAFC3B
:10323300EBFD7A017B009003B0E0F9121CE622C09B
:1032430082C0837900EA241DF582EB1246F024FD47
:10325300600B14600824FD600424FD700109024A18
:10326300918E828F83A3A3A3A3A3A3A3A3A31232A9
:103273007522124738FB121608E9228E828F83A328
:10328300A3A3A3A3A3A3A3A31232756402228E82D2
:103293008F83A3A3A3A3A3A3A3A3A3124A889003E7
:1032A30056E068221210727F06020D2474F4120A8B
:1032B3006E74FD1211068A088B098A828B83A3A37D
:1032C300E0F912154E8A0A8B0BAE0AAF0BEE4F7064
:1032D300030233B6850882850983A3E064F1603075
:1032E300850882850983A3E064CD602485088285EF
:1032F3000983A3E0641A6018850882850983A3E023
:1033030064E9600C850882850983A3E064E17008A1
:103313007900121524E9706C850882850983A3E07E
:10332300C0E07402121337D0E0124A6CEEF0A3EF40
:10333300123D97851882851983AA82AB8370051283
:1033430013C880031215F07402121337E064E97096
:10335300338E828F831233C2750A01780A121048A2
:10336300750AE9780A121048E508240CF582E50984
:10337300123889123D74FCA3E0FD8A828B83123DCF
:103383008E1210728E828F83A3A3A3A3A3A3A3A3DE
:10339300A3E0640270108E828F83A3A3A3A3A3A3CD
:1033A300A3A3A37406F0850882850983A3A3E0F988
:1033B30012152A121518900CF012307A023946E0D1
:1033C300F8A3E0F9E8FAE9FB2274F4120A6EEAFEC4
:1033D300EBFF7508008E828F83A3A3A3A3A3E060F2
:1033E300427508088E828F83A3A3A3A3A3A3A3A3D9
:1033F30012499B8B0BEA450B601075082C8E828F4C
:1034030083A3A3A3A3A3E0D2E0F08E828F83A3A31D
:10341300A3A3A3E05403640160030234B54308117A
:103423000234B5EE24181239536033EE241A1239DC
:1034330053700F1232917003A3E0697075750822FF
:103443008070EE241BF582EF1234BA241AF582EF52
:10345300123D9FEE2419125FB0121452805412329F
:103463007E70037508011232917003A3E069700640
:10347300E508D2E1F508E50860158E828F83A3A3E2
:10348300E07006E508D2E58004E508D2E6F5081207
:10349300326464017006E508D2E0F5088E828F83FA
:1034A300A3A3E0600D1234C864016006E508C2E01E
:1034B300F508A90802394B1246DE1234C122E0FC9A
:1034C300A3E0FDEE221246D8124710F91215F6E9D1
:1034D30022C082C08379018A828B83A3A3E0C39431
:1034E300024001198A828B83A3A3A3A3E0C394029E
:1034F300400279008A828B83A3A3A3A3A3A3A3A3DC
:10350300A3E064F87003A3E0F460458A828B83A38D
:10351300A3A3A3A3A3A3A3A3E064F97003A3E0F469
:10352300602E8A828B83A3A3A3A3A3A3A3A3A3E055
:1035330064FA7003A3E0F460178A828B83A3A3A3C6
:10354300A3A3A3A3A3A3E064FB7003A3E0F470020B
:1035530079008A828B83A3A3A3E0F8900353E068E6
:1035630060027900024A9174F0120A6E74DE12113D
:1035730006EAFEEBFF8E828F83A3A3A3A3E0600E74
:10358300900CEE12550F6006900CEE12307A740315
:10359300121337AC82AD838E828F83A3A3A31255FC
:1035A30091125DCAE9600F7403121337AA82AB83C9
:1035B3001214CAE97008790112238E02387EEE24B0
:1035C3001B1246E3741012133712555A740912135F
:1035D30037E06021741A121337E0FD7404121337B5
:1035E300E0FC8E828F831258BC790112254AE96070
:1035F30004790280C37403121337AA82AB831214B3
:10360300C4E9F50A7409121337E0702A90034DE0F8
:1036130060247422550A6422601C7442550A644271
:1036230070CF742012133712389C600A742012135F
:103633003712389570BBE9A2E65041740312133771
:10364300AA82AB831214B8E970030235B97420124D
:1036530013371246F36403700F7420121337A31247
:103663005501A3E0640D60147403121337AA82ABEF
:103673008312161AE96401700302387EEE242C12B9
:103683003886123BAA7003A3E069701C75080078A2
:10369300081210487808121048EE242E125FB01258
:1036A30038A2123D8E1210727409121337E07003A0
:1036B30002375B1238A21258BE12166E8A088B09A3
:1036C300EA450970030237F87404121337E0F88EE1
:1036D300828F83A3A3E028F8A3E03400F9E8240D44
:1036E30012388D8A828B83A3A3A3E068601CE88AC7
:1036F300828B83A3A3A3F090815612130C850882B7
:10370300850983A3A3A3A31213007904E912133732
:10371300125DA72AF8A3E034008882F583A3AA8266
:10372300AB83121B7E8A0C8B0D8C0E8D0F8508824A
:10373300850983A3A3A3A3780C120FFF40030238C8
:103743007E90817E780C1211AD850882850983A352
:10375300A3A3A3780C1212A8900365E06404600885
:10376300E06409600302387EE50AA2E540030238FB
:1037730036EE242E123953851882851983F0EE24F0
:103783002F123953C0E07401121337D0E0F0EE2446
:1037930030123953C0E07402121337D0E0F07414BE
:1037A300121337E064017027740E1213371246E9BF
:1037B300EE2412123953687003A3E0697011740C7C
:1037C30012133712328B70077414121337E4F0EEAE
:1037D3002424123886120E257404121337AC82ADDA
:1037E300837407121337AA82AB831213CE740412A5
:1037F300107202387E9003AAE06401600302375B13
:10380300742012133712389C7009E50AA2E650039C
:1038130002375B7410121337E0F47003A3E0F46013
:103823005AEEFCEFFD7403121337AA82AB83121412
:10383300D68048A2E6504474201213371258CD7034
:103843001A741A121337E0640270307403121337B8
:10385300AA82AB8379001215E480207420121337F7
:103863001238957016741A121337E06404700C74CE
:1038730003121337AA82AB831215DE7422025C791A
:10388300EE240BF582EF1246DE22F582E912557320
:10389300F822125F8EE0640722124710640622EEBC
:1038A300242A1246DB1234C124121246DB2274F49A
:1038B300120A6EEAFEEBFF8C088D099005CEE060DC
:1038C3000F1232917003A3E0697005121440804F08
:1038D30079001258B11214708A828B83E582458372
:1038E3006035A3A3A3A3A3A3E05418602AE5082487
:1038F3001BF582E509123889120E29123F87123807
:1039030089120E29EE2418125FB012392412148280
:10391300740412107280087900123924121446803C
:10392300278E828F83A3A3A3A3A3A3A3A3A312344A
:10393300C1240BF582EF12393D223400F58312477F
:1039430038FB2274031210727F04020D24EE241735
:10395300F582EF1255732274F7120A6E74F712117F
:1039630006EAFEEBFF900365E06403600DE064018B
:103973006008E064096003023A248E828F83A3E027
:10398300707E7C007D007A027B00122388EE240285
:10399300FAEF1242F41246E990035612555A79533C
:1039A3001223BE7900123A29E064096003123DBC78
:1039B3008518828519837401125530900365740448
:1039C300F07401121337AA82AB83794A1223B874B5
:1039D30001121337AC82AD837A5B7B031223A6906B
:1039E3000356125DC07A03123DC6900350E0A2E372
:1039F3005004D2F08002C2F012551D123077801E9F
:103A03008E828F83A3AE82AF83FC7D007A037B100B
:103A13001223888E828F83E0F9123A29E4F012157B
:103A2300007409025B019003631239411213E090A1
:103A3300036522C082C08390033412550F701F9018
:103A43000365E014600924FC600A14600C800F9085
:103A5300033C8032900338802D90033A8028E84954
:103A63006008900335123D6E700C8A828B83A3E04D
:103A7300F91213D4801B90033512402370051216DC
:103A830038800E9003D212550F600612550112258D
:103A9300F1024A9174F4120A6E74FB1211068A0839
:103AA3008B097A0F7B00121B908A0A8B0BAE0AAF2D
:103AB3000BEE4F7003023B9E8E828F83125A8B79DB
:103AC300501223B8850882850983A3E06003023B73
:103AD30086900363E0F47003A3E0F460349003631F
:103AE300E064FE7003A3E0F46027851882851983E0
:103AF300123BAA7003A3E0696017850882850983D6
:103B0300A374EA123DA47A637B0379501223BE8027
:103B130072851882851983125F6F12555A7A567B04
:103B23000379531223B890035612558B12555A7AC0
:103B3300597B03794B1223B87A587B0379E112231B
:103B4300B890036AE0C3940F5021900358E0C0E09B
:103B53007402121337D0E0F074041213377401F0B7
:103B630004121337AA82AB831223D0750A00780A92
:103B7300121048780A121048900D16E0F9123D858C
:103B8300121072850882850983123BA3A3F0900368
:103B9300657403F0EEFAEFFB1255437405023948DE
:103BA300A3E08E828F8322125F73E06822124BC9D7
:103BB3002274F5120A6E74D81211068A088B098AC8
:103BC300828B83A3A3A31247157415121337AC82F8
:103BD300AD838A828B83A3A3A3A3A3A3A3A3123D31
:103BE30074FAA3E0FB1215067415121337E0706B19
:103BF300850882850983A3A3A3A3A3A3A3A3E0C3E7
:103C0300940B40578E828F83A3A3A3A3A3A3A3A341
:103C1300E064027046EE240B123953F4703D9003B6
:103C230065E06402603AE06406603590033412553F
:103C33000F6005123D6E604F900365E064086005F8
:103C4300E0640470167417121337E0F9741C12132E
:103C530037AC82AD831258B112150C742802648DEF
:103C630090033412550F701F75080078081210481E
:103C73007808121048EE2410123886125FC81243D7
:103C8300DC123D8E1210728E828F8312582D1243D6
:103C9300061246E9740212133712555AEE240D1216
:103CA3003953C0E07404121337D0E0123D97F5087E
:103CB300A3E0F509740F78081212C67405121337BE
:103CC300E508F07419121337E0C0E07406121337D5
:103CD300D0E0F0741B121337E0C0E07407121337FF
:103CE300D0E0F07416121337E0C0E07409121337F2
:103CF300D0E0F07417121337E0C0E07408121337E2
:103D0300D0E0F0EE2410123953C0E0740A121337D6
:103D1300D0E0F0741A121337E0C0E0740B121337BB
:103D2300D0E0F07427121337E0C0E0740C1213379D
:103D3300D0E0F0741C121337A982AA8389088A0978
:103D4300750A0078081210407C087D007410121365
:103D530037AA82AB831250BE12107285188285195E
:103D630083AA82AB831213DA023C5E1240296401F8
:103D730022E0F98A828B83A3A3A3A3A3A3A3A3A370
:103D8300E022900363125DC4900359123941121566
:103D9300C6740222F0EE240B12557022125573FAE8
:103DA30022F07A567B037953123DAF221223BE7A57
:103DB300597B03794B1223BE2290036312394112BC
:103DC3001668227B00122388900359125DC47A047B
:103DD3007B0012238822F0125FD32274F2120A6E40
:103DE30074F8121106EAFEEBFF8C0A8D0B890C8521
:103DF3001882851983AC82AD837583807582F874CC
:103E030008120FA0F50DEEFCEFFD851882851983CE
:103E1300AA82AB8312578E7003750D019003B18094
:103E23003BEEFCEFFDE508240BFAE50934001257DD
:103E33008D601E850882850983A3A3E0650C70113C
:103E4300850882850983E0650A7004A3E0650B6039
:103E530038E5082414F582E5091238891242FEE593
:103E63000845096024E50DA2E040B685088285096E
:103E730083E0650A7004A3E0650B70D5850882852D
:103E83000983A3A3E0650C70C8AA08AB09740802F0
:103E930032A7C082C0839003B1024A8E74F7120A1C
:103EA3006E9003B11247388012EA2414F582EB12A4
:103EB3003889124715121C32EEFAEFFBEA4B70E910
:103EC3009003B1E4F0A3F0025B047F07020D2474B6
:103ED300F1120A6EEAFEEBFF890A8C088D098E82C5
:103EE3008F83E08C828D831249A5AE82AF83E0126B
:103EF300517E1250EFC412517E123F90E054038C56
:103F0300828D831250EDA2E2E4338C828D831250B2
:103F1300EC131313541F12517E1250EBA2E7E43338
:103F23008C828D83A3A3A3A3123F908E0C8F0D7558
:103F33000E00780C1210407C087D00E5082407125F
:103F43005D33121072125D9E8E0C8F0D780C121061
:103F5300407C037D00E508240F125D33121072E5E7
:103F63000AC3940F40148E828F83A3A3A3E0C0E0FF
:103F7300123F87123889D0E08006123F871261FB17
:103F8300F0023ECDE5082412F582E50922A3A3122F
:103F930049A90EAF832274F4120A6E74F912110642
:103FA300EAFEEBFF890890033412550F600E1240AE
:103FB300237009EEFAEFFB121632805F900363E081
:103FC3006E7003A3E06F70537401650860097A771C
:103FD3007B0312578E70447A007B0212454D8B0B84
:103FE300EA450B703690036612130C851882851907
:103FF3008312130090036CE0C0E07404121337D0F3
:10400300E0F074051213377401F0740612133712BB
:104013005A8B1213A4E9609B1213AA74070239483E
:10402300124029640222125F8FA3A3A3A3A3A3E0D8
:104033002274F5120A6E8A088B098A828B83A3AED7
:1040430082AF83E0F91213F88E828F83E064EB6012
:104053000C850882850983A3E064E17009850882E1
:10406300850983A3E4F0123077750A01780A1210E8
:1040730048850882850983A3E0F50878081210486B
:104083007900123D85121072121518026490EAF03D
:10409300A3EBF0024A9174F6120A6E9003B4E07037
:1040A3001B7C0079017A007B00121548EA4B600CF7
:1040B3008A828B8312550F60031214A6025518C00F
:1040C30082C083124535401079FF121542E9F890FA
:1040D3002E6DE493C3985004790180027900024A5B
:1040E3009174F0120A6E8A088B09890B750C008A89
:1040F300828B83A3A3A3A3A3A3A3A3E0F912154EC7
:104103008A0E8B0FAE0EAF0F750A01EE4F600302DE
:1041130041C2850882850983A3A3A3A3A3A3125D38
:10412300C0850882850983A3A3A3A3A3A3A3124ED7
:10413300BE1258BE1215368A0C8B0DAE0CAF0DEEA7
:104143004F70030242E58E828F83A3A3A3A3E4F0FF
:10415300A3F0E508240B1242F1E0C0E0123883D04B
:10416300E0F012160EEE240CF582EF1254E3E5088C
:10417300240EF582E5091246E6EE240EF582EF12CF
:104183005557750C01EE2406F8EF1242ED547FF0FB
:10419300A3E054FC126025E05404600302424890FB
:1041A3000CF4124EAF740778081212328E828F838A
:1041B300A3A3A3A3A3A3E04508F0A3E04509F08EBE
:1041C300828F83A3A3A3A31242FC7407780812125D
:1041D300C6E5085407F508E50B607A8E828F83A342
:1041E300A3A3A3A3A3A3A3A374021250F0240D12A9
:1041F3004BBEE0A2E2500B90035112558BA3A312C6
:10420300555AE50870030242BAEE2406F8EF34006B
:10421300F9E8FAE9FB8A828B83E0547FFCA3E0543C
:10422300FCFDE50824FFF508E434FFF5097407787D
:1042330008121232EC4508F8ED4509F98A828B839E
:1042430012555A80728E828F83A3A3A3A3A3A3E0E4
:1042530044800241C1E5087005750A0080598E82C9
:104263008F83A3A3A3A3A3A3E054206012121B8AEA
:10427300EA547F245F8E828F83A3A3A3A380238E1C
:10428300828F83A3A3A3A3A3A3E05410600A121BEA
:104293008AEA540F240A80DD8E828F83A3A3A3A30B
:1042A3007401F0A3E412430674041245448B09EA33
:1042B300450970031254D6E50CA2E050288E828F74
:1042C30083A3A3A3A3125AF1F9EEFAEFFB12153C51
:1042D300E9601212550560031246CEEEFAEFFB12A7
:1042E3001C32750A00A90A025C7C12564E22FAE5BA
:1042F300093400FB8A828B8322A3A3E0F508A3E0A1
:10430300F5092212430A22125D4FA3A3A3A3A322FA
:1043130074F4120A6E74F71211067E0012154EEA37
:104323004B70030243D58A828B83A3A3A3A3A3A3C6
:10433300A3A3A3E0640660030243D58A828B83A30D
:10434300A3A3A3A3A3A3E0FF8A828B83124BD1E091
:10435300C0E07408121337D0E012470912579412C1
:10436300555A121560EF54086066851882851983C3
:10437300125DC07A007B001215308B0BEA450B707F
:104383004F9003631247F91223E87C007D007A0003
:104393007B0080288E828F831246F3F47003A3E0A0
:1043A300F4602D9003631243DC1258BE1220DCE943
:1043B300641A601C7C007D00EEFAEFFB1215308A54
:1043C3000A8B0BAE0AAF0BEE4F70C979001223EEC6
:1043D3007E01EEF974090239481243E022E0FCA39E
:1043E300E0FD8E828F8322C082C083EA4B700590EA
:1043F30003B580068A828B83A3A31245F960258ABD
:10440300828B83A3A3A3A3A3A3A3E0540860E5EC37
:104413004D60158A828B831246F36C7003A3E06DA3
:1044230070D280047A007B00024A9174F2120A6E01
:10443300EAFEEBFF890A8C088D097A107B00121CB7
:104443002CEA4B603F8A828B83A3A3A3A3A3A3A3DA
:10445300A3A3E41246F7A3E50A125F95A3124491BE
:104463008A828B83A3A3A3A3E4F0A3124703A3F03D
:10447300125E29EA240CF582EB12499512448AA3B1
:10448300A3F0A3F00232AAA3F08A828B8322A3A310
:10449300E508F0A3E509F02274F4120A6EEAFEEBD4
:1044A300FF89088C0A8D0BEE4F6055740165087007
:1044B300147901121542E9F8902E65E493C39850DC
:1044C3000F7911806A74046508702F12453540F125
:1044D3008E828F83A3A3A3A3A3A3A3A3A3E50812FD
:1044E30049A5A312651A8E828F83A3A3E4F0A3F0D8
:1044F3009003B512550F6021800D7402650860D0DA
:1045030079C1802BE0F8A3125584A3A31245F9883F
:10451300828983A3A370ED80039003B5EEF0A3EF2C
:104523001245448B0BEA450B70031254D6790002F3
:10453300394B7904121542E9F8902E60E493C3983D
:1045430022F0124549227A207B009003B0E0F91251
:104553001CF822C082C083E9F879009003B5801D5E
:104563008A828B83A3A3A3A3A3A3A3A3A3E06860CB
:104573000574FF687001098A828B83A3A31245F92E
:1045830070DE024A9174F7120A6EEA4B70059003CB
:10459300B580068A828B83A3A31245F960248A829D
:1045A3008B83A3A3A3A3A3A3A3A3A3E06970E4ECB6
:1045B30060148A828B83E0240D125DB1A2E240D3A2
:1045C30080047A007B00025B04C082C0839003B541
:1045D30080068A828B83A3A31245F960128A828B99
:1045E30083A3A3A3A3A3A3A3A3E06970E580047A91
:1045F300007B00024A91123941EA4B2274F2120AFB
:104603006E8A0A8B0B8C0C8D0D750800750900EAF8
:10461300450B602E9003B580068E828F83A3A31271
:10462300464C601EAC0CAD0DEEFAEFFB850A82859D
:104633000B831225F1E9640170DFEEF8EFF98808C6
:104643008909AA08AB090232AAE0FEA3E0FFEE4FF4
:104653002274F7120A6E9003B51246E97C007D00BE
:10466300800DE8FCE9FD88828983A3A31246E9E86B
:10467300496030EA687002EB6970E79003B512583D
:10468300BEE86A7002E96B88828983A3A37008126B
:1046930046E99003B580091246E98C828D83A3A372
:1046A30012555A025B0474F7120A6EEAFEEBFFEE30
:1046B3004F601512155A12471B1255056003124617
:1046C300CEEEFAEFFB121C32025B04EE240C124610
:1046D300DB12473022EE241DF582EF3400F58322EE
:1046E300F582EF1246DE124A8822F582EF1246DE89
:1046F300124710221246FB22125F9DA3A3A3A322FB
:104703001246FBA3A32212448B12471022125F8886
:10471300E022E0FEA3E0FF228E828F83E0241C12BE
:104723004BC21247308E828F831247302212473892
:10473300FB121C3222E0FAA3E022C082C083EAFC0F
:10474300EBFDEC4D700479058044EC24FBF582ED20
:1047530034FF12550D7007124794E0F46005121BE5
:104763009680E39003B0E0C0E0124794D0E0F0906D
:104773002E62E493F97AB77B03121BC0E9640170DC
:104783000B7A007B201254DA790080027904024A02
:1047930091EC24FFF582ED34FFF5832274F4120AC1
:1047A3006EA2AFE433F508C2AF9003B712464C6074
:1047B30038EE24FBF582EF34FF12550D7A007B208F
:1047C3009003B060051254DD8005E0F9121BCCE4C0
:1047D300F50AF50B780A121044EEFCEFFD7AB77B6D
:1047E300031225E67402121072E508A2E092AFEEFE
:1047F300FAEFFB02394B125DC4851882851983AA2F
:1048030082AB832274F2120A6E74FC121106EAFE62
:10481300EBFF750AFE750BFF12151EE96005791192
:1048230002498AEE24151239536037900D08E0C40B
:104833003354E0F8E0333354FC48C0E0EE2415125F
:104843003886D0E01249A512499B8B09EA450960D5
:1048530011750AFFEE240F1239534404125568D21E
:10486300E0F08E828F8312326F6006EE24121249BB
:1048730092EE24131239537010902E68E493C0E023
:10488300EE2413123886D0E0F08E828F83E0A2E705
:1048930050045403801CEE241412395370159003F2
:1048A30042E0C0E0EE2414123886D0E0F0900342D8
:1048B300E004F0EE2411123953640170169005C51B
:1048C300E0600D90034DE0700A8E828F83E07003E9
:1048D30012498F8E828F83E064017013EE240B12D2
:1048E30046ED64027009EE240F1239534440F085FB
:1048F3001882851983AC82AD83EEFAEFFB1215841F
:104903008A088B0974FE650A700374FFF470098EBC
:10491300828F83A3A3125D3FEA450960668E828F6F
:1049230083E0C0E07401121337D0E0F07402121375
:1049330037125E2D740112133785820C85830D782F
:104943000C121044EE240F123886120E29EE240E98
:10495300123953F50C780C121048900356120E2995
:104963007407121337E0F9AC0AAD0B12157E740706
:10497300121072E9FE74106E700BAA08AB09121CB8
:104983003280027E10EEF974040232A7EE2411F590
:1049930082EF1246DEE4F022A312394179FF12249A
:1049A3004E221249A922F08E828F83A322C082C095
:1049B3008374DE1211068A828B83A3A3A3A31246F8
:1049C300E9740E121337E8F0A3E9124A7F740C124C
:1049D3001337124A78240DF582EB123956C0E0746E
:1049E3001A121337D0E0F0125C8CEB1246E67420F7
:1049F300121337124A782415F582EB123956C0E0A8
:104A03007408121337D0E0F0EA241CF582EB124647
:104A1300E67412121337124A782411F582EB123915
:104A230056C0E07409121337D0E0124A6C74FFF0D9
:104A3300740112133774FFF0740212133774FFF00A
:104A4300908156120E257404121337AC82AD837411
:104A530007121337AA82AB831213CE740412107297
:104A6300790074221210728025124A7022F0851880
:104A73008285198322E8F0A3E9F0EA2212448BA38A
:104A8300124A8722A3E0F8A3E0F9221258BED0838A
:104A9300D08202102474EC120A6E74EE1211068A8C
:104AA300128B13ECFEEDFF89097426121337125D86
:104AB3003F7428121337E0F5107429121337124B81
:104AC300B3742B121337E0F50EA3E0F50F7508103E
:104AD3007A1E7B00121C2C74021213371254E774D3
:104AE3000212133712550F7003024BAC85188285DF
:104AF3001983AA82AB8379501253C21258BE74022F
:104B0300121337124BD1A31254E774101213371236
:104B1300651C7402121337E0240B124BBE7402F0AF
:104B2300121337124BD17402F0121337125F801233
:104B33005E2D74021213371258D3E509F074021272
:104B43001337E0240C124BBEE510F0740212133736
:104B5300124BBBE512F0A3E513F07408121337E50B
:104B63000CF0A3E50DF0740A121337E510F0850E6F
:104B730082850F83C082C083740D121337AC82AD5C
:104B830083D083D0827403120FA0F97402121337F7
:104B9300AA82AB83121524E96401700575080080AD
:104BA3000874021213371246D4A9087412025D5610
:104BB300E0F50CA3E0F50D22E0241C124BC222F811
:104BC300A3E0124BC9223400F98882898322125848
:104BD300C6A3A3A3A3A32274EE120A6EEAFEEBFFFD
:104BE3008C088D098E828F83A374081255A3E0600D
:104BF300088E828F83A37410F012395060098E825D
:104C03008F83A3E02408F0EE241512395360088E35
:104C1300828F83A3E004F08E828F83A3A3A3A3A335
:104C2300A3E060198E828F83A3A3A3A3A3A3A3E00E
:104C3300C3332402F88E828F83A3E028F0EE24117D
:104C43001239536005750B0E8003750B008E828F2E
:104C530083A3C082C083EE240D123953D083D08244
:104C6300F8E028250B8C828D83F0EE241112395342
:104C730060051250CE28F0850882850983E0C3942D
:104C8300754009750800750900024DBCE0FA7B0008
:104C9300125EDB7003024DBCEEFAEFFB12158AEADB
:104CA3008508828509831254E8EE2402F8EF123B4B
:104CB300B0124EB6124DF8F0EE24040808EF123B82
:104CC300B01252F8A3124DF8A3A3F0EE2413124D21
:104CD300DEF0EE2414124DDEA3F0750A08EE24165E
:104CE3001239536010EE2418125DBDE50824081232
:104CF3005FBE750A101239506016EE241A125DBD9C
:104D0300850A0CE508250C125FBE7408250AF50A0E
:104D13008E828F83A3A3A3A3A3A3E06059EE2407EA
:104D2300F510EF3400F511851082F583E0C0E01231
:104D33004DC5123889D0E0124DE8E0C0E0124DC5F0
:104D4300123889D0E0124DE8A3124DD112104085DC
:104D53001082851183E0C333FCE433FD850A0CE53F
:104D630008250C125D33121072851082851183E0C1
:104D7300C333250AF50AEE2415123953600BC0E03C
:104D8300124DC5123889D0E0F0123883124DD1127A
:104D93001040EE240D123953FC7D00850B0A8E82E0
:104DA3008F83A3E0F8E50828F8E5093400F9E8253E
:104DB3000AFAE9125D36121072AA08AB097F0A02D9
:104DC3000D24850A0CE508250CF582E50922E0F59A
:104DD3000CA3E0F50D750E00780C221246DB124E83
:104DE30002A3A3A322F0050A8E828F83A3A3A3A306
:104DF300A3A3A3A322A3A3126029A3124E022212E8
:104E030052FCA3A32274F6120A6E8A828B83E0FCFF
:104E1300900353124EAF74027808121232EC450815
:104E2300FCAD09EA2412124EA97406780812123254
:104E3300EC4508FCED4509FDEA2415F582EB123932
:104E4300566004780180027800E4C8F9ED49FDEA70
:104E53002411F582EB123956F5088809740978088C
:104E6300121232ED4509FDEA2416124EA9740B788D
:104E730008121232ED4509FDEA2417124EA9740CEB
:104E83007808121232ED4509FD8A828B83A3A3A30E
:104E9300A3A3A3124EAF740A7808121232ECFAEDF0
:104EA3004509FB025518F582EB1246DEE0F508755D
:104EB300090022E085088285098322A3E0F9850899
:104EC300828509832274EE120A6E8A0A8B0BECFE2A
:104ED300EDFF750F01E9C39408500579000250BB3B
:104EE3008E828F83E9F0125321E96003750F00125C
:104EF30053058E828F8312534FEE125C8DEF125344
:104F030044C0E0EE2411123886D0E012533CC0E0D6
:104F1300EE2412123886D0E01249A57408125D47B8
:104F2300A3A3A3E060151252EDEE2413F582EF1252
:104F330055578E828F83A3E02408F08E828F83A33C
:104F4300A3A3A3A3A3A3A3E060218E828F83A3853E
:104F53008208858309125330EE2415F582EF12552A
:104F630057850882850983E02408F08E828F83A306
:104F7300A3A3A3A3E0601A8E828F83A385820885EF
:104F830083091253148E828F83A3A3A3A3A3125066
:104F9300E0EE2419124992EE241B124992A31255F2
:104FA3009BE0700302504FEE2419F8EF3400F98EA2
:104FB300828F83A3858208858309E0FAE50A2AF5AF
:104FC30082E50B123956888289831250E0FAE50A8A
:104FD3002AF582E50B123956C0E0EE241A12388600
:104FE300D0E01250E088828983E06059F8902E6106
:104FF300E493C398500575110C8008EE24191239F7
:1050030053F5118E828F83A3E0F8E50A28F50CE5AA
:105013000B1250C4121040E511C333FCE433FD7A84
:10502300A57B0B1250BE121072EE241B123886742D
:10503300A5F0A3740BF0E511C333F8850882850945
:1050430083E0288006EE24181261F8F08E828F83A5
:10505300A3E0F88E828F83E0C3985003024EDEA351
:10506300E0FA8A08E50A2508F8E50B3400F9EE248E
:105073001DF582EF1256631250F0C39AC0E0EE247E
:1050830017123886D0E0125560602BEE2417F8EF24
:105093003400F9880889098882F583E024F21256DE
:1050A30044240EFAA3E03400FB888289831254E778
:1050B3001250CEC398F0A90F024DC0121B667403A1
:1050C300223400F50D750E00780C2290034EE0F9A2
:1050D30012252CE9F8850882850983E022F08508EA
:1050E30082850983E004F022A3A3A3A3A3F08E8205
:1050F3008F83E02274F4120A6E8A088B09EA125134
:1051030085F0EA1313543F12517EA3A3A3F0EAC41C
:105113001313125185A3A3F0EB12517712518F741D
:1051230009780A1212C612517512518E740A780A3E
:105133001212C6E50A5401C0E0EC2418F582ED1200
:105143003889D0E0125194740B780A1212C61251A6
:1051530075A312518E740C780A1212C6125175A3DC
:10516300A3A3A3A3A3A3A3F0740D78081212C602EA
:1051730034B5E50A54018C828D8322540F8C828DC1
:10518300832254038C828D83A3A322A3A3A3A3A36B
:10519300A3F08A0A8B0B22C082C08379008A828B98
:1051A30083A3A3A3A3A3A3E090034D600FE0702206
:1051B3008A828B83A3A3E07019098016E060138AA7
:1051C300828B831258B5900356E06A7003A3E06B99
:1051D30070E7024A9174F0120A6E8A0A8B0B890CEB
:1051E3008C088D0912532112530585088285098382
:1051F30012534FE508125C8DE509125344C0E0E5F4
:10520300082411F582E509123889D0E012533CC015
:10521300E0123F87123889D0E012566B7408125699
:105223008460111252EDE508241312565F12566B77
:10523300E02408F0850882850983A3A3A3A3A3A37D
:10524300A3A3E06017850882850983A312532CE585
:1052530008241512565F1250F02408F08508828541
:105263000983A3A3A3A3A3E0601985088285098307
:10527300A3AE82AF8312531485088285098312502B
:10528300EB04F0AA08AB0912159CE9F50D705685DD
:105293000882850983A3A3A3A3A3A31252F87014BE
:1052A300E0FA8A0EE50A250EF8E50B12554CE50CDB
:1052B300C39A802112532CE8240EF8E912554C901E
:1052C300034EE0F912252C8E828F83E0F8E50CC3A0
:1052D3009824F2C399C0E0E5082417F582E5091282
:1052E3003889D0E0F0A90D025C7CE50A2408F8E5D2
:1052F3000B3400F9221252FC22E0850882850983CF
:10530300A322850A82850B83A3A3125365E0F9EADE
:1053130022E0F8E50A28F582E50B125573228A820A
:105323008B83125C8112159622AE82AF83E0F8E57F
:105333000A28F8E50B3400F922125378A3A3A3E05B
:10534300221246DEE8125371A3A3E022A3A3A3A370
:10535300A3A3A3A3A3125371125365A3A3E0F9EA72
:10536300F822E0FA850A82850B83A3A3A322F0A384
:10537300E912537822F0850A82850B83A3A3A3A3A2
:1053830022C082C0837AC57B0379E21223B87AC52F
:105393007B03024A91C082C083900356024A8EC0A7
:1053A30082C08374FE121106851882851983AA822E
:1053B300AB83794B1253C21258BE7402024A67126E
:1053C30023B885188285198322C082C083794A1243
:1053D30023B8024A9174F6120A6E9003CDE0FE04DC
:1053E300F0EEF912154E8B09EA450970EDEE60EA0D
:1053F300F902551874F0120A6EEAFEEBFF8C088D61
:1054030009890A7410121337E0F50B74111213375C
:10541300E0F50C12166EEA4B7013E50C7042A90A04
:10542300AC08AD09EEFAEFFB121686806EE50A6052
:1054330021EA2402F582EB123956850A082508F879
:10544300E4340013E813F070098A828B83A3A374F6
:1054530001F0E50C6045E50B70068A828B83E4F06E
:105463007401650C7035E50B9003D47004E4F0808F
:105473002AE004F0900CF5E0F89003D4E0C39840E0
:105483001AE4F0900359E06E7003A3E06F700CEE22
:10549300FAEFFB79011213F21254A1025C7C7A0138
:1054A3007B009003B0E0F9121CF222C082C0837427
:1054B300016A7001EB70077A011254D88012900CC4
:1054C300EC1254E7EA4B600512323180031254A107
:1054D300024A917A207B009003B0E0F9121BC622A6
:1054E3003400F583EAF0A3EBF022C082C083900C72
:1054F300EE024091C082C083900CF0024091125F93
:105503008F22EE240CF582EF3400F583124A88E8EB
:1055130049221210727F02020D24A2F0E43385188F
:105523008285198312553979521223BE22125539B5
:1055330079421223BE22F0AA82AB8322AA08AB09C6
:105543009003B0E0F9121B9C223400F9E508241DF6
:10555300F582E5091246DEE8F0A3E9F022125D4B7D
:10556300A3A3E022A3F0EE241512557022F582EFD7
:105573003400F583E02212557D223400F583E0F8F0
:10558300A3E0F98882898322E0F812559122A3E0EF
:10559300F98E828F83A3A322F0EE24181246DB2216
:1055A300F0EE24161246DB2274F4120A6EEAFEEBC6
:1055B300FF7A007B041254A512563A12555A9003EF
:1055C300657409F01215A88A088B09AC08AD09EEB9
:1055D30024131238861258BE12578E640170487A0B
:1055E3000F12562D60418A828B837402125644FA3D
:1055F300A3E0FB8A828B83A3E0FC8A828B83A3A331
:10560300E0FBEC850882850983A3A31254E8888212
:1056130089831258C2124EB6125567FAA3E0FB797A
:105623004A1223BE12553F02394B7B00121B908A4C
:10563300088B09EA450922900336124A88900CF038
:1056430022F0EE241DF8EF12564E22124BC9E0222F
:10565300125657223400F5837401F022F582E509CE
:105663001246DEE8F0A3E92212566F221256732285
:10567300F0850882850983A322125673A3A3A3A3EB
:105683002212567CA3A3E022125A951215FC22EE95
:105693002417F582EF1256571215A8EE241A124654
:1056A300DBEAF0A3EBF02274F4120A6E74F3121126
:1056B300068908EAFEEBFF7C0D7D007900851882E0
:1056C300851983AA82AB83121B72EE241D123886BE
:1056D300125F80A3E0F8741F58600A790112238EC9
:1056E3007900025785E8A2E55008740C1213377449
:1056F30001F0E8A2E75008740B1213377401F0E8C5
:10570300A2E6740A50081213377401F080081213CA
:1057130037E064017005EE24138003EE2415125D57
:10572300BD7402121337AA82AB831223A6123883E5
:1057330012579312555A740A121337E064017033E7
:10574300123264703B1215B48A0A8B0BA80AA90B98
:10575300EE240B123953687003A3E069702212150B
:10576300A8EAFCEBFD7402121337AA82AB8312572B
:105773008E600D851882851983AA82AB831213EC80
:10578300A908740D023948EEFAEFFB1223A0E922AF
:10579300E012579822F8A3E0F9851882851983222D
:1057A30074F6120A6E74F31211068A088B09ECFE62
:1057B300EDFF7C0D7D007900851882851983AA820F
:1057C300AB83126125A3A3A3A3A3A3A3A3A31258EB
:1057D3002D125836F8A2E55008740B1213377401D2
:1057E300F0E8A2E75008740A1213377401F0E8A234
:1057F300E6EE5004241380022415125DBD740212D8
:10580300133712581FA3A3E0C0E0740C121337D050
:10581300E0125A8D1213E6740D025515AA82AB835A
:105823001223A685088285098322E0125798E8F09F
:10583300A3E922F01246D8125F84A3E02274F71280
:105843000A6E74E1121106EAFEEBFF8E828F831259
:1058530058C2A3A3A3E0A2E050518E828F831233D8
:10586300C48A828B83A3A3A3A3A3A3E054FE1258E9
:10587300DA8A828B831258D3E0F98A828B83E024FD
:105883001CFAA3E01242F41258BE1215A2E9701BCF
:10589300741D1213371258CD701185188285198320
:1058A300AC82AD83EEFAEFFB1215EA025AFF8E8249
:1058B3008F83A3A3A3A3A3A3A3A3A3123941221258
:1058C30058C622125F88A3A3A3221247106404229E
:1058D300E0241B124BC222124A70AC82AD8322E930
:1058E300F87900740468600A740A686005740368D0
:1058F30070010902102474F6120A6E8A828B837473
:1059030020F0A3A37401F01213988A088B09AE0840
:10591300AF09EE4F60108E828F837401F09003A362
:10592300E07003125692EEFAEFFB025518C082C0E4
:10593300839003B97401F0E9A2E350037403F0E91F
:10594300A2E15004E0D2E2F0024A9174F6120A6E28
:1059530079007C008A088B097808120D6AF8FF0722
:1059630081597F597F597F597F5978597C5981597A
:1059730075590C80097C0480050C80F67C08900323
:10598300B9E05C6003098003EC60010902551874F7
:10599300F6120A6E8A828B83E07012A312550F608F
:1059A3000C8A828B831258BD12255080047A007BA7
:1059B3000002551874F5120A6E74F31211068A0860
:1059C3008B09ECFEEDFF750A12EA450970057900B3
:1059D300025A86900356E065087004A3E0650970D7
:1059E300141215A8EAFCEBFD12578A7005750A011B
:1059F3008003750A00851882851983E4F004121365
:105A030037E508F0A3E509125A8D12135CE9602704
:105A13007403121337AA82AB83122472E9640170F0
:105A230016750A017403121337AC82AD8312578AB9
:105A33006021750A00801C7412650A70169003A217
:105A4300E06402700EEEFCEFFDAA08AB09121374BA
:105A5300E970DFEEFCEFFDAA08AB09121674E9F852
:105A6300740A687005750A01801774A0687012EED5
:105A7300FCEFFDAA08AB09121680AA08AB0912169F
:105A830092A90A740D02648D7402125A9122125A59
:105A93009522124A70AA82AB832274F7120A6EEA25
:105AA300FEEBFF8E828F83A3A3A3A3A3A3A3A3E0F1
:105AB3006015EE2415123886123931121614E96472
:105AC300017004790180258E828F83A3A3A3A3A3EE
:105AD300A3A3E06015EE2413123886125AF1FAA339
:105AE300E0FB121614E9640160D9790080131243B4
:105AF300E0A3A3A3A3A3A3A3A3A3E022741F121051
:105B0300727F01020D2474F0120A6E74FD121106E5
:105B13008A088B09ECFEEDFF890B7413121337E02F
:105B2300F50C750A0174011213377404125FB8601F
