:020000040000FA
:060000000212940207B990
:03002B000210BB05
:03003300020E6C4E
:03004300020F5752
:030053000206EAB8
:03006B00020E5230
:1000830002074E0101FF0503012C182C182C182C14
:1000930018E816E2162C18DD2B000000003F2C0098
:1000A3000000000C0000000C00010000FA19000021
:1000B30000000000BA1A0000000000000000000069
:1000C300FFFF0101010010050000006105E8036462
:1000D300006400B801020200080000050207051EC3
:1000E30002051E0A03B80B020102F1FF021F00E022
:1000F3000796511800020206123031323334353676
:1001030037383941424344454600286E756C6C20AC
:10011300706F696E74657229003F3F3F0000008075
:100123007F0000803FF9021550B743BA5100002009
:100133004100E7DB2E0000A0401000000008000093
:10014300000A0000001212E060461212B3603DE99B
:10015300687008F618F618F618F622748067F71216
:10016300017C090909748067F7221212B3601D121A
:1001730012E07005191919801A12112D701F12112E
:1001830057C37003E6673319191940071818182263
:1001930008080874FFF618F618F618F62212115715
:1001A300601712131F702192F01213297019501740
:1001B30020F014080808090909E7F61819E7F618E2
:1001C30019E7F61819E7F62212132960E6E86970B1
:1001D3001F0808E62480F608E436F618547FB47F37
:1001E3000CE654806007F6E418F618F62218182275
:1001F300E9C6CC08C6CD08C6CE08C6CFC0E0E8C065
:10020300E0EAC0E0EBC0E009E9F809E7FA09E7FB37
:10021300E6F918E6F8C3EC98ED99EE9AEBC2E7F528
:10022300F0EFC2E795F0500E600CEBCFFBEACEFA8D
:10023300E9CDF9E8CCF8EAA2E7D2E7FAEB33FB130E
:10024300F5F0EEA2E7D2E7FEEF33FFC5F013A2E726
:1002530030E601B313C5F0C3C0E0C0F07F00C39B19
:10026300FB605B9418600C401AD0E023F9D0E0F8EF
:1002730002034B8AF0E9486003D2F0E4AFF0FAF9E5
:10028300F8803BEB30E40D89F0EA6003D2F0E4AF91
:10029300F0F9CAF8EB30E30D88F0EF6002D2F0AF6B
:1002A300F0E4CAC9F8EB54076014FBC3EA13FAE994
:1002B30013F9E813F8EF135002D2E0FFDBEDD0E0BF
:1002C300C0E030E739C3E49FFFF5F0EC98FC42F05F
:1002D300ED99FD42F0EE9AFE42F0D0E0F9D0E0F85D
:1002E300E5F0607AE923F9EE20E742D8028067C39C
:1002F300EF33FFEC33FCED33FDEE33FE80EAEC2805
:10030300FCED39FDEE3AFED0E023F9D0E0F84002EF
:10031300801BC3EE13FEED13FDEC13FCEF13500231
:10032300D2E0FF08B800067F7F74FF802EEF3350C2
:10033300178CF020F00260100CBC000C0DBD0008FF
:100343000EBE000408E860DFE933E813FFEE231371
:10035300FE4F4D4C8008E95480FFE4FEFDFCEE3374
:10036300EF33F47004FCFD7E80D0E0FBD0E0FAD0E4
:10037300E0F8D0E0CFC618CEC618CDC618CCC6F963
:10038300221212B37004181818221212E0700D749E
:10039300FFF61819F61819F61819F622E7548066AD
:1003A300F6121329700F12131F70F014F608F608D3
:1003B300F608F680D112131F700CF608F608768043
:1003C30008E6447F80EC12115A700C12113060BFA2
:1003D300E65480F6E480BB121130700519191980B8
:1003E300A5E869700C763F18768018F618F6E8F9D8
:1003F30022E6CDC0E018ECC0E0E633CD33CDD31315
:10040300F6E719FCE7191933CC33C3947F400ECDBB
:100413009D502408E65480F6E418F6800FF4043D5A
:1004230014501408E6447FF6187680E418F618F69C
:10043300D0E0FCD0E0FD22CCD313CCFD18E4C6CB36
:10044300C0E018E4C6CAC0E00808ED08C633E613E6
:10045300F618E433C675F003C3CA97CA09CB97CB22
:10046300199C40047D08802EBD000302052D16B69D
:10047300FF050606081618C3CA33CACB33CB33CAE3
:1004830027CA09CB37CB193CC37D08803E187D08AA
:1004930020E75CC633C6CA33CACB33CB33DDF1D5D1
:1004A300F0EB30E77BCA97CA09CB974ACB199C403C
:1004B3006F4B7025E620E0218066187D08C3CA973C
:1004C300CA09CB97CB199CD3C633C6CA33CACB331D
:1004D300CB3350C9DDE7D5F0E1D3E4C636C608C651
:1004E30036C608C636C608C636C61818188031C3BD
:1004F300CA97CA09CB97CB199CB34097C633C6CAD0
:1005030033CACB33CB33DD34D5F02EC6A2E0C6409D
:10051300C8CA27CA09CB37194A70BECB3CB480B9C5
:100523000808E63308E633601F181818D0E0FAD03D
:10053300E0FBD0E0FCD0E0FD22187D08CA27CA0901
:10054300CB37CB193CD3808013F618E4B67F11F672
:1005530018B6FF0EF618C60470D20808768080CA53
:10056300F618F618F680C5001212B3604F1212E0A7
:100573006012E7548066F612112D701112131F706A
:100583003B090909F4F618F618F618F62212115762
:10059300701512132908080860EAE6447FF61876F6
:1005A3008018E4F618F622121329601612131F702E
:1005B30012E4F608F608F608E65480F60909091865
:1005C300181822EAC0E0EBC0E0ECC0E0EDC0E0E6C2
:1005D30087F0A4FBACF008E687F0A42CFCE435F02C
:1005E300FA1809E687F0A42C4B60027401CA35F0AF
:1005F300FCE433FB09E687F0D2F7A42CCB35F0FCFF
:100603001908E687F0A42BCC35F0FBE433FD081979
:10061300E687F0D2E7A42C4ACB35F0CD3400FC09B1
:10062300E687F0D2E7A42DCC35F0FDE433FA0918C0
:10063300E687F0D2F7A42CCD35F0CA3400FC08E6E7
:1006430087F0D2E7D2F7A42ACC35F07A7E20E70BE5
:100653000ACB33CBCD33CDCC33CC33CB3350147027
:1006630004ED30E00ED2F1E4CD3DCDCC3CCC3B509B
:1006730005DA05C2F1EB547FC63308E63392F0FB8B
:10068300E73309E733C39A502D2B70190C0D4C4DEA
:1006930070151806E608C333700D20F10AA2F01393
:1006A300F6E418800B4024E4F630F002768018F666
:1006B30018F618F68024D33B14501074FFA2F013DD
:1006C300F6187680E418F618F6800FA2F013F618E1
:1006D300E63303F618ECF618EDF6D0E0FDD0E0FCB7
:1006E300D0E0FBD0E0FA22C0E074F2120AD9A2AF44
:1006F300E433FED2AFE5A7FFE5A1F5085F54106030
:100703000612212675A1EFE5085F5408600812213F
:100713002C75A1F7802BEFA2E0C0D0E508A2E092F0
:10072300F01211E2158182F05017906198E0F89071
:10073300083AE0C398A2D265D0335002E8F075A11D
:10074300FEEEA2E092AF7F01020B38C0E074F2121A
:100753000AD9A2AFE433FED2AF9061A4E0F8759B4F
:1007630000E59158540860087591F7122174802AA6
:10077300E59158541060087591EF12217A801BE8B7
:10078300A2E0C0D0E591A2E092F01211E2158182BD
:10079300F05007E0C2E0F01222BE9061A3E0F8E55A
:1007A300E9585404600E12229475E9FB906193E0BA
:1007B300A2E640F2808BC0E074F2120AD9A2AFE441
:1007C30033FED2AF9061A5E0F8E5BF58540460064C
:1007D30075BFFB1222D6020744C3E498F8E499F9E3
:1007E30012081D8026C3E49AFAE49BFBE920E7E99B
:1007F30012081DE498F8E499F922C3E498F8E499FF
:10080300F912081DE498F8E499F9C3E49AFAE49B11
:10081300FB22EB20E7CFE920E7E0B90010BB00089B
:10082300E88AF084F8AAF022E4FBC8FA22EB7022EB
:100833007B10C833C8C933C9335007C39AC3DBF22B
:1008430080069A50012ADBEAC833F4C8C933F4C9D5
:10085300FA2275F008E4C833C8C933C933C99AC941
:100863009B5004C92AC93BD5F0ECFBC833F4C8E458
:10087300C9FA221208B620F01430E72B74FFFCFBF0
:10088300FA747F8022E4FCFBFA7480801AB4800837
:10089300BC00F2BB00EF800F50EBF9E4C39AFAE41B
:1008A3009BFBE49CFCE499C6CC18C6CB18C6CA18BB
:1008B300C6F922E4C9C608CAC608CBC6D33303089F
:1008C300CCC63392F0C3947F402E94184019C9B913
:1008D3000704CACBCC225025C309CA33CACB33CBB6
:1008E300CC33CC33D9F422F4600DC9CCC313CB136E
:1008F300CBCA13CAD9F6CC22E4FCFBFA2214FCFBC4
:10090300FA22080808EAC0E0EBC0E086F0E7A4FAA0
:10091300180986F0E7A42AFA180986F0E7A42AFA48
:10092300180986F0E7A42AFA1986F0E7A4FBE5F094
:100933002AFA190886F0E7A42BFBE5F03AFA19081E
:1009430086F0E7A42BFBE5F03AFA18180986F0E7DE
:10095300A4C5F02BFBE43AFA1908E7C5F0C6A426B0
:10096300F6E5F03BFBE43AFA1886F0E7A4F6E5F087
:100973000826F6E43B08F6E43A08F6D0E0FBD0E0BC
:10098300FA22080808E630E71112119512099D08AA
:100993000808C64480C618181822181818E9799E42
:1009A300C608CAC608CBC608CCC6C370207996CA87
:1009B300CBCC7019798ECBCC70137986CC700EF9B1
:1009C300802ACA33CACB33CBCC33CC331930E7F2CA
:1009D300CCCBCA3350147004EA30E00DE4CA3ACAEF
:1009E300CB3BCBCC3CCC500209C3E913C6CC182378
:1009F30013C6CB18C6CA18C6F922E4CFC0E0E4CEAA
:100A0300C0E0E4CDC0E0E4CCC0E075F020C3E63341
:100A1300F608E633F608E633F608E633F618181850
:100A2300EC33FCED33FDEE33FEEF33FFC3EC9709FC
:100A3300ED9709EE9709EF97191919400FFFEC97F6
:100A4300FC09ED97FD09EE97FE191906D5F0BEECEA
:100A5300F709EDF709EEF709EFF7191919D0E0FCDB
:100A6300D0E0FDD0E0FED0E0FF222518C582C0E033
:100A7300E51934FFC583C0E0E518C3958224F81057
:100A8300AF088583198582188008858319858218A4
:100A9300D2AFCEF0A3E520F0A37808E608F0A3DEFA
:100AA300FAEFF0A3E58124FAF8E608F0A3E608F0EC
:100AB300A3E608F0A30808E608F0A3E608F0A315E8
:100AC300811581D0E0FED0E0F8158115811581E80C
:100AD300C0E0EEC0E022C0D02518C582C0E0E51911
:100AE30034FFC583C0E0E518C3958224F310AF0833
:100AF3008583198582188008858319858218D2AF6A
:100B0300C8F0A3E9F0A3EAF0A3EBF0A37908E7099F
:100B1300F0A3D8FAECF0A3EDF0A3EEF0A3EFF0A36B
:100B2300D0E0F0A3D0E0F0A3D0E0F0A3E520F0A361
:100B3300E5F0F0A322851983851882E0C0E0A3E0E5
:100B4300F9A3E0FAA3E0FBA37808E0F608A3DFFA31
:100B5300E0FCA3E0FDA3E0FEA3E0FFA3E0C0E0A36D
:100B6300E0C0E0A3E0F5D0A3E0F520A3E0A3F5F017
:100B730010AF0885831985821880088583198582BB
:100B830018D2AFD082D083D0E0F8D0E03212131461
:100B9300B90003020BD2E49003017891790A800231
:100BA300F0A3D8FCD9FA900C91AA82AB839000866B
:100BB30078C379018015E493A3AC82AD838A828BD9
:100BC30083F0A3AA82AB838C828D83D8E9D9E7759E
:100BD30082EA7583B5740312101A7582DC75832556
:100BE300740012101A75F0108E1A8F1B85821F85E0
:100BF300831E851882851983E0CEA3E0CF851F82EB
:100C0300851E83EBC9EAC8EDCBECCAC3E833C8E958
:100C130033C9EA33CAEB33CBC3EA9EF51DEB9FF529
:100C23001CB35004AB1CAA1DEC33CCED33CDD5F073
:100C3300DAAE1AAF1B221212B3601C1212E0601755
:100C4300121329700712131F7001D322C0D012137D
:100C53001F7006D0D0B322C32233D0D0501430E05B
:100C6300F6C3E7960809E7960809E7960809E796A1
:100C7300B32220E0D5E6970809E6970809E6970826
:100C830009E697B3221212B3601B1212E060161228
:100C93001329700712131F600CB322C0D012131F45
:100CA3007005D0D022C32233D0D0501330E0EBC331
:100CB300E7960809E7960809E7960809E7962220C8
:100CC300E0E4E6970809E6970809E6970809E69736
:100CD30022D083D082ECC0E0EDC0E0E493A3FCE437
:100CE30093A3FDED4C600D120DACEC24FFFCED3431
:100CF300FFFD80EFE493A3FCE493A3FDED4C600DB3
:100D0300120EDCEC24FFFCED34FFFD80EFD0E0FDA0
:100D1300D0E0FCE493A3C0E0E493C0E02285198310
:100D2300851882E0A3FEE0A3F5207808E0A3F60887
:100D3300DFFAE0A3FFE0A3C0E0E0A3C0E0E0A3C0CC
:100D4300E0E0A3C0E0E0A3C0E010AF08858218850F
:100D530083198008858218858319D2AFD083D08206
:100D6300021020D083D082E9C0E0E493A3C386F0CD
:100D7300C5F095F0F908E493A386F0C5F095F070FB
:100D83000BE493A3C3994005E9048002A3E475F03F
:100D930002A42582F582E5F03583F583D0E0F9E4FA
:100DA30093A3C0E0E493C0E022C0E0C3E4939608B9
:100DB3007401939618400FE49366700808740193C6
:100DC300661870007019A3A3C3E493960874019383
:100DD3009618A3A3400DD0E0D0E0D0E0020D10A3FD
:100DE300A3A3A3A3A3D0E022D083D082C5F0E4932E
:100DF300A3C5F0C395F0F5F0E493A3C395F04005C4
:100E0300E5F0048001E475F002A42582F582E5F0A3
:100E13003583F583E493A3C0E0E493C0E022740434
:100E2300800474028000CCC0E0EDC0E0E518C39CF0
:100E3300CCAD1950011D10AF068C188D1980068C8E
:100E4300188D19D2AF120F9CD0E0FDD0E0FC22C068
:100E5300E074F2120AD9E589A2E15003121FE27588
:100E63008900C2C57F01020B38C0E074F2120AD9AF
:100E7300E58BA2E05003121FE2758B00C2E880E409
:100E830074028000CCC0E0EDC0E0E518C39CCCAD9B
:100E93001950011D10AF068C188D1980068C188D02
:100EA30019D2AF120F7AD0E0FDD0E0FC221212B3B8
:100EB30060251212E06020121329700302131F0829
:100EC3000808E76670101819E766700A1819E766CC
:100ED30070041819E76622F422C0E0C0F088F0E439
:100EE300936670080874019366187000A8F0A3A3B2
:100EF300700BD0F0D0E0D0E0D0E0020D10A3A3D06F
:100F0300F0D0E022D083D082CCC0E0E493A360068B
:100F1300120FBD1470FAE493A360061210EC147060
:100F2300FAD0E0FCE493A3C0E0E493C0E022C0085D
:100F3300C3E096F50808A3E096420808A3E09642AA
:100F43000808A3E0964208A2D265D033E5087001F1
:100F5300D3D00822C0E074F2120AD9A2AFE433FE60
:100F6300D2AFC2C0E5D1A2E4500312209CEEA2E0AE
:100F730092AF7F01020B38CAC0E0E493A3C582CCD1
:100F8300C582C583CDC583F0A3C582CCC582C58385
:100F9300CDC583DAE5D0E0CA22CAC0E0E0A3C582AA
:100FA300CCC582C583CDC583F0A3C582CCC582C51C
:100FB30083CDC583DAE6D0E0CA22C0E0E493A3D3AD
:100FC3009C5010E493A3C39C400AD0E0D0E0D0E04F
:100FD300020F24A3A3A3D0E022700908080822600B
:100FE30016181818C6C333C608C633C608C633C690
:100FF30008C633C6D5E0EA22C008C3E096F5080860
:10100300A3E096420808A3E096420808A3E09645A9
:10101300087001D3D00822C09FF59FE473D09F22AC
:10102300D083D082C09FE493C0E0740193C0E07486
:101033000293F59F227404800A740380067402806D
:10104300027401C0E0F404121053D0E01212EF2234
:101053002518F58210AF08F518400215198008F518
:101063001840021519D2AF85198322C0D025181054
:10107300AF08F518500205198008F5185002051934
:10108300D2AFD0D022BB0102E722C082C0838982C3
:101093008A83BB0003E08002E493D083D082226082
:1010A30016080808C6C313C618C613C618C613C63F
:1010B30018C613C6D5E0EA22C0E0C0D0E8C0E0E518
:1010C300A8D2AFC2C7A2E792AFD0E0F8D0D0D0E0A9
:1010D30032C3E0C696F608A3E0C696F608A3E0C6B8
:1010E30096F608A3E0C696F622C0E0E493A36C70DC
:1010F30009D0E0D0E0D0E0020F24A3A3D0E0222562
:101103001810AF08F518400215198008F5184002A9
:101113001519D2AF22E066701008A3E066700A08C2
:10112300A3E066700408A3E06622181818E60846D0
:1011330008700AE608C3337005E633F4220822E791
:101143006670100809E766700A0809E76670040804
:1011530009E76622191919E7094709700AE709C35C
:10116300337005E733F4220922C3E09608A3E0961F
:1011730008A3E09608A3E096A2D265D03322C3E089
:1011830096F008A3E096F008A3E096F008A3E09693
:10119300F022181818E4C396F608E496F608E496C5
:1011A300F608E496F622E026F608A3E036F608A34E
:1011B300E036F608A3E036F622E026F008A3E03690
:1011C300F008A3E036F008A3E036F022E627F6089D
:1011D30009E637F60809E637F60809E637F622C0C6
:1011E300E0E8C0E0E58124FCF8E6A2E7D0E0F8D02F
:1011F300E022E657F60809E657F60809E657F60827
:1012030009E657F622E056F608A3E056F608A3E0EF
:1012130056F608A3E056F622E647F60809E647F62F
:101223000809E647F60809E647F622700422600D2E
:1012330018C6C333C608C633C6D5E0F41822E05631
:10124300F008A3E056F008A3E056F008A3E056F038
:1012530022C3E09608A3E09608A3E09608A3E096CD
:1012630022C6F4C608C6F4C608C6F4C608C6F4C641
:1012730022600D08C6A2E713C618C613C6D5E0F34D
:1012830022C3E7960809E7960809E7960809E7964F
:101293002275D00075814075180175190300020B82
:1012A30090E6F008A3E6F008A3E6F008A3E6F02230
:1012B300E6084608C3134608336002E633F42260A7
:1012C3000C08C6C313C618C613C6D5E0F422E0F64D
:1012D30008A3E0F608A3E0F608A3E0F622E709472F
:1012E30009C3134709336002E733F422CAC0E0E6B7
:1012F300F0A308DAFAD0E0FA22EAF0A3EBF0A3ECC9
:10130300F0A3EDF022E0FAA3E0FBA3E0FCA3E0FDF1
:1013130022E5C754F84401F5C7790122E7C333191D
:10132300471947194722E6C3331846184618462279
:101333002518F582E43519F58322C2AF75D69F02CD
:101343000000221210239DDE01121023E1DE0112A0
:10135300102308DF0112102359DF0112102309E0C3
:1013630001121023C1E00112102389E1011210239D
:1013730066E201121023ECE201121023FBE20112D8
:10138300102306E3011210230FE40112102320E4BB
:101393000112102396E40112102328E501121023F1
:1013A30080E50112102346E60112102377E60112AD
:1013B3001023BCE601121023C9E6011210235DE8D5
:1013C30001121023C0E901121023DCEA01121023D9
:1013D30046ED0112102351ED011210235BED0112B2
:1013E300102366ED0112102370ED011210237AED24
:1013F3000112102385ED0112102390ED0112102329
:10140300C1ED01121023E5ED0112102309EE0112C3
:1014130010236EEE01121023B2EE01121023CEEE52
:101423000112102345EF011210237DEF0112102347
:10143300C9EF0112102326F00112102308F2011242
:1014430010238EF2011210235FF3011210236FF6A3
:1014530001121023C4F601121023F0F60112102317
:101463003CF8011210238CF801121023E1F8011249
:101473001023E2F9011210237AFA01121023FCFA65
:10148300011210239CFB01121023612E0012102362
:101493009A2E00121023743000121023B33000125E
:1014A3001023FD3000121023A23100121023013249
:1014B30000121023353200121023A232001210231F
:1014C300BF3300121023C734001210235D350012FE
:1014D3001023A438001210234D3900121023293A87
:1014E300001210238A3A00121023A73B0012102384
:1014F300D13D00121023883E00121023923E0012A9
:101503001023C53E001210238C3F001210232740E6
:10151300001210238C4000121023B5400012102338
:10152300D74000121023064300121023DD4300129C
:1015330010232144001210238E4400121023494526
:10154300001210237B4500121023BF450012102305
:10155300F245001210234746001210239C46001246
:101563001023304700121023924700121023FA472A
:1015730000121023A349001210238B4A00121023D8
:10158300CD4B00121023FB4D00121023BB4E001253
:101593001023EA50001210238D5100121023CB5157
:1015A300001210237753001210238B5300121023C1
:1015B300955300121023BF5300121023CB53001274
:1015C3001023EA5300121023A15400121023E054F5
:1015D30000121023EA54001210239E550012102308
:1015E3009D560012102396570012102333580012F1
:1015F3001023D55800121023EC580012102323593E
:101603000012102341590012102385590012102390
:10161300AA5900121023905A00121023FC5A0012E8
:101623001023765B00121023855C00121023C45D27
:1016330000121023265E00121023E05E0012102316
:10164300035F00121023D75F0012102322600012E1
:101653001023646000121023BB6000121023F26099
:10166300001210232061001210235961001210236D
:101673007E610012102306620012102329640012F7
:1016830010238864001210231C6500121023886540
:1016930000121023DC6500121023A8CC03121023C0
:1016A300E7CC03121023A5B401121023FFB40112D7
:1016B30010235BB501121023A7B501121023C2B585
:1016C30001121023F3B50112102310B601121023D7
:1016D3001CB60112102390B701121023A9B70112EF
:1016E300102310B80112102323B80112102331B8AC
:1016F30001121023E5B801121023C9B901121023F6
:10170300CFBA0112102355BB011210235FBB011284
:101713001023CCBB01121023E3BB0112102315BC11
:10172300011210234EBC0112102378BC01121023A6
:10173300D9BC01121023F9BC0112102317BD0112E9
:1017430010235DBD0112102383BE01121023D0BEEE
:1017530001121023FFBE0112102375BF01121023C3
:101763009DBF01121023D6BF01121023E4BF011243
:1017730010233CC0011210238BC001121023CAC0D6
:1017830001121023FAC00112102326C101121023E3
:1017930031C1011210234FC10112102311C20112D2
:1017A30010231BC20112102356C2011210236CC254
:1017B3000112102375C201121023CAC20112102391
:1017C300DEC201121023ECC301121023FFC3011266
:1017D300102314C401121023B6C40112102339C5F7
:1017E30001121023F7C50112102302C601121023A0
:1017F30028C70112102344C70112102396C70112F0
:101803001023D5C701121023EAC7011210232CC8D5
:101813000112102379CA01121023F7CA01121023EF
:101823006ACB011210238CCD01121023A4CD011217
:101833001023A7CD01121023B3CD01121023C7CD5E
:1018430001121023CFCD0112102302CE0112102357
:10185300B2CE0112102328CF011210239BCF011205
:1018630010234FD00112102304D10112102323D1CE
:1018730001121023C3D101121023CFD1011210235F
:10188300FAD101121023FDD10112102367D20112E4
:1018930010238FD30112102367D401121023F2D423
:1018A300011210230BD601121023C8D601121023E4
:1018B30001D70112102332D701121023D2D70112FC
:1018C300102302D801121023DDD80112102376D978
:1018D3000112102301DA01121023B2DA01121023CC
:1018E30034DB0112102366DB01121023A7DB011284
:1018F3001023C0E20212102325E30212102362E335
:1019030002121023B1E302121023C7E502121023BF
:10191300AAE70212102314EB021210234FEB021258
:10192300102371EB02121023D4EB0212102308ECE4
:10193300021210232BEC0212102358EC0212102374
:10194300B4EC02121023AACC0212102328CD0212E7
:1019530010235ECD02121023CACD021210233DCFF5
:101963000212102359CF021210239ECF021210230A
:101973002CD00212102385D002121023B2D10212EE
:101983001023C4D20212102321D3021210238DD3A9
:1019930002121023EED3021210232FD402121023AB
:1019A300DCD402121023EED50212102319D6021230
:1019B300102364D602121023ABD6021210233DD794
:1019C30002121023F8D7021210232BC00312102384
:1019D3003CC0031210238DC003121023D2C0031284
:1019E30010237CC10312102391C80312102389BB57
:1019F30003121023E1BC031210236FD80212102329
:101A030014D90212102334D90212102354D902120A
:101A1300102368D902121023C0D902121023F0D95F
:101A23000212102371DB0212102317DC021210239F
:101A3300F9DC021210234ADD021210238DDD02129B
:101A43001023D0DD0212102336DE0212102357DEDC
:101A530002121023E3DE0212102314DF02121023FA
:101A630088DF0212102336E10212102310E2021261
:101A7300102352E202121023ACE20212102300B828
:101A83000312102321B80312102357B90312102392
:101A930081B903121023BDBE0312102348BF0312E2
:101AA300102352BF0312102373BF031210230AC063
:101AB300031210236DC00212102370C002121023F0
:101AC3002AC10212102355C1021210239CC1021213
:101AD3001023C1C102121023E2C10212102316C245
:101AE300021210234FC20212102378C302121023D2
:101AF300AFC302121023CFC3021210236AC402120F
:101B030010232FC50212102366C502121023DBC651
:101B1300021210237EC70212102377C80212102369
:101B2300A0C802121023F4C802121023BAC9021269
:101B33001023E8C9021210237DCB02121023FECB1F
:101B43000212102331CC0212102300ED02121023D3
:101B53000AED0212102356ED02121023C4ED0212F5
:101B63001023E5ED02121023FCED02121023ACEE5C
:101B73000212102340F10212102349F10212102322
:101B83009CF102121023C5F1021210232CF202124F
:101B93001023BDF202121023FFF20212102349F3A5
:101BA30002121023A8F30212102339F40212102395
:101BB30001B001121023B7F402121023ECF4021245
:101BC3001023FEF40212102310F5021210232FF536
:101BD3000212102338F502121023EEF5021210231D
:101BE3002EF6021210237C94031210234F95031236
:101BF30010236995031210237A95031210238F97EC
:101C030003121023AE9703121023B8B30312102349
:101C1300EEB30312102337B40312102387B5031254
:101C2300102316660012102355670012102362DE7C
:101C33000112102350690012102379690012102336
:101C43000C6C00121023506C00121023D96D00127B
:101C53001023716E00121023D96E001210237A6FB5
:101C630000121023BC6F00121023FC6F001210230C
:101C7300877100121023F772001210231C750012D3
:101C830010234A75001210237175001210237A7500
:101C930000121023D575001210236876001210234A
:101CA300867900121023077A00121023EA7F0012AC
:101CB300102393FF02121023E9A003121023FCA0A8
:101CC3000312102399A103121023D4A1031210238A
:101CD300EFA10312102314A20312102359A203121B
:101CE30010238AA203121023BBA20312102341A4C0
:101CF30003121023F4C2031210232AC30312102366
:101D030046C30312102388C30312102398C303127C
:101D130010232DC403121023079903121023D29901
:101D230003121023829A03121023FA9A0312102328
:101D33004D9B031210233E9D03121023579D031244
:101D43001023DEB00212102336B102121023E0B1C9
:101D53000212102388B202121023E5B202121023DA
:101D63003EB30212102352B3021210231CB5021207
:101D7300102397B502121023C1B5021210237EB7A8
:101D83000212102399B702121023E8B7021210238C
:101D9300FEB7021210230BB8021210233FB802122F
:101DA300102355B802121023DBB802121023EAB82D
:101DB3000212102343B9021210239DB902121023F9
:101DC300EBB902121023F5BA0212102377BD0212E7
:101DD300102311BE0212102353BE02121023E8BEB9
:101DE3000212102305BF0212102308BF0212102390
:101DF3000BBF021210237EBF0212102399BF0212DF
:101E03001023C5BF0212102300C00212102303C007
:101E13000212102316C0021210233DC00212102317
:101E230025CC0312102331CC031210236BCC0312E5
:101E330010230DA10212102338A10212102304A2B1
:101E43000212102389A202121023F2A202121023FB
:101E53003EA302121023BDA3021210234FA40212A9
:101E63001023DBA4021210231DA50212102389A93B
:101E73000212102309AB0212102348AB02121023E3
:101E830011AC02121023C5AC0212102375AE02125C
:101E9300102301AF02121023008002121023BA8014
:101EA300021210232C81021210233B8102121023F1
:101EB300B581021210232482021210232E830212F0
:101EC3001023578302121023F78302121023458431
:101ED30002121023B58402121023E9850212102383
:101EE300C58602121023368702121023B38802120A
:101EF3001023758902121023108A021210236B8A91
:101F030002121023D68A02121023DA8B0212102334
:101F13009B8D021210233A8E02121023AC8E0212F2
:101F23001023698F021210236EA703121023C2A776
:101F3300031210231AA80312102365A803121023F7
:101F4300C7A80312102360A903121023C8A9031200
:101F53001023D4A90312102362B10312102393B1E7
:101F6300031210234DB203121023B3B20312102332
:101F730024B30312102374B60312102384C903126B
:101F8300102395C90312102335CA03121023D1B9A4
:101F930003121023DFB903121023FCCD0312102305
:101FA3008FCB031210239FCB03121023BACB031240
:101FB30010231BCC031210238FC70312102314C842
:101FC3000312102378C8031210237DC603121023B3
:101FD3009FC60312102309C70312102314C7031249
:101FE300102358C7031210230080031210230E80FE
:101FF300031210234F800312102370800312102347
:10200300FA80031210231C81031210238881031208
:102013001023A38103121023BE8103121023C8814E
:1020230003121023D28103121023E581031210231C
:10203300FE81031210239A82031210235683031284
:102043001023CD8303121023478403121023AD847E
:10205300031210234FFC011210235DFC0112102305
:10206300D7FC01121023BBFD0112102374FF0112D0
:102073001023D9FF01121023647A00121023D17A9E
:1020830000121023927B00121023027C00121023F3
:102093000B7D00121023837E00121023E77E0012B3
:1020A30010233C7F00121023457F00121023547F1E
:1020B30000121023677F001210237D7F001210236C
:1020C300867F00121023578603121023AC86031257
:1020D3001023A88803121023DA8803121023FC8824
:1020E300031210231589031210232E8903121023C0
:1020F300388A03121023D38A0312102393C10312C5
:102103001023B7C103121023D0C10312102303C23B
:102113000312102334C20312102362C203121023CA
:10212300C4C203121023D3C203121023DDC203124D
:102133001023EAC2031210230FAA0312102335AA95
:102143000312102372AA0312102381AA031210236D
:10215300A0AA0312102308AB0312102311AB03121E
:10216300102370AB0312102394AB0312102353AC50
:102173000312102360AC0312102371AC031210235B
:1021830035CD0312102352CD031210234A8B0312B1
:102193001023A88C03121023B58C03121023C88CB0
:1021A30003121023E78C03121023FD8C0312102358
:1021B300118D03121023868D03121023EB8D03124E
:1021C30010239B8E03121023708F03121023808F12
:1021D300031210238F8F0312102356CA03121023E6
:1021E3007ACA03121023A2CA03121023CACA031203
:1021F30010239FAC03121023C6AC03121023E7ACC9
:10220300031210234CAD0312102305AF0312102346
:102213001EAF031210232AAF031210233EAF031283
:1022230010235CAF0312102366AF0312102370AFA9
:102233000312102383AF03121023D6AF031210230C
:102243000FB0031210233EB0031210238CB00312FD
:102253001023DBB003121023F6B00312102300B1D6
:102263000312102311B10312102357B103121023C9
:10227300997F0012102357F60212102381F60212DF
:1022830010239DF602121023B0F602121023C6F695
:102293000212102323F70212102356F702121023FF
:1022A30092FB02121023B8FC02121023EBFC021261
:1022B300102337FD0212102363FE021210238BFE3C
:1022C30002121023A0FE02121023B0FE02121023EA
:1022D300F4FE0212102355FF0212102365FF0212AF
:1022E300102337C40312102352C4031210237BC4D8
:1022F3000312102395C403121023BAC4031210232C
:10230300D9C403121023F1C4031210231FC50312EF
:10231300102339C503121023F1CC03121023699D36
:1023230003121023709D031210237C9E03121023AB
:10233300AC9E03121023D29E03121023F59E0312A8
:102343001023179F03121023519F03121023B79FCB
:1023530003121023F09F031210233CA00312102337
:1023630069A00312102389A00312102330BD0312A6
:10237300102342BD031210232DBE03121023BABE35
:10238300031210236AC503121023DCC503121023A2
:102393001AC6031210235BC6031210234EA40312A2
:1023A30010236AA403121023B9A403121023D5A483
:1023B3000312102306A50312102316A503121023DC
:1023C30002A6031210230CA60312102319A603124C
:1023D300102329A7031210233DA70312102346A796
:1023E30003121023C88F031210230D94031210231A
:1023F300129403121023A7CD03121023EFCA031262
:10240300102319CB0312102371CD03121023D4CD43
:1024130003121023DEFF02121023BE9002121023B8
:10242300DC9502121023B2AD01121023BBAC0112D2
:1024330010239FAC011210234BAC0112102303ACE9
:102443000112102341AB01121023B4AA011210236D
:10245300A7AA01121023B5A70112102307A5011281
:1024630010233CDE0112102323DE01121023DBA311
:10247300011210232FA301121023CFDD0112102309
:102483002BDD0112102380A1011210233B9F0112A7
:102493001023C29E01121023699E01121023FD9D79
:1024A30001121023D49D01121023C79B0112102384
:1024B300939B01121023609B01121023449B011272
:1024C30010236A9A01121023229A0112102357989B
:1024D30001121023D79701121023D497011210234E
:1024E300DB9601121023A99601121023E69501121F
:1024F3001023119401121023A29301121023749339
:1025030001121023A1DC0112102340DC011210235D
:10251300EEDB01121023DCDB0112102360B3011286
:1025230010237193011210235E9301121023F6926C
:1025330001121023E5920112102342B3011210235A
:10254300C69101121023909101121023539101128D
:102553001023F49001121023F7B101121023916795
:1025630000121023C390011210237E8D0112102339
:102573006F8C01121023FE8B01121023C38B0112E7
:1025830010238E8B01121023828B01121023E28AF7
:1025930001121023298A01121023FC870112102330
:1025A300888501121023468501121023118401121C
:1025B3001023C68301121023F882011210234F82C5
:1025C30001121023EB810112102325820112102323
:1025D30054B10112102378F40200000080FBE4736D
:1025E30000000000000000000000000000000000E8
:1025F300101010101010000030300000001428508C
:10260300000000000000000000000000002828FC7B
:10261300284850FC50500000000010385454301823
:1026230014545438100000000044A8A8B0541A2AC7
:102633002A44000000000020505060ACA898927C0F
:10264300000000606020C0000000000000000000E7
:1026530000040808101010101010080804000000EF
:102663004020100804081020400000000000001063
:1026730010D63838D61010000000000000101010DB
:10268300FE10101000000000000000000000000019
:102693000000606020C0000000000000FC0000009B
:1026A3000000000000000000000000000000606067
:1026B3000000000204040408081010202020400039
:1026C3000000003048848484848448300000000083
:1026D3000010701010101010107C00000000003863
:1026E300444404081020447C0000000000384444A3
:1026F3001804044444380000000008081828484817
:10270300887C081C00000000007C4040784404449E
:10271300443800000000003C4480B8C484848478BA
:1027230000000000007C4448081010101010000046
:102733000000007884844878848484780000000052
:1027430000788484848C740488F000000000000006
:1027530000303000000030300000000000000000B6
:10276300100000000010102000000408102040207A
:102773001008040000000000000000FC0000FC0042
:102783000000000000004020100804081020400052
:1027930000000000788484840810100030300000AA
:1027A30000000038449AAAAAAAB4423C00000000E0
:1027B300001010282828384444EE0000000000F8D8
:1027C30044447844444444F800000000003C4484FA
:1027D3008080808044380000000000F04844444476
:1027E300444448F00000000000FC4440487848405E
:1027F30044FC0000000000FC42404878484040E0B0
:1028030000000000003C448480808E844438000033
:10281300000000EE4444447C444444EE00000000C5
:10282300007C101010101010107C00000000007CC1
:10283300101010101010101090E0000000EE44482B
:102843005070484844EE0000000000E04040404023
:10285300404044FC0000000000EE6C6C6C54545487
:1028630054D60000000000EE64645454544C4CE40D
:1028730000000000003048848484848448300000D1
:10288300000000F844444478404040E00000000069
:1028930000304884848484B448380C00000000F875
:1028A30044447850484844E600000000003C44405B
:1028B3002018040444780000000000FE9210101059
:1028C300101010380000000000EE44444444444417
:1028D30044380000000000EE444428282828101043
:1028E3000000000000D6545454546C2828280000DB
:1028F300000000EE44282810282844EE00000000C1
:1029030000EE442828101010103800000000007C4E
:1029130088081020204044FC0000001C10101010F8
:102923001010101010101C00007010101010101058
:1029330010101010700000701010101010101010F4
:1029430010107000001028000000000000000000BC
:10295300000000000000000000000000000000FE76
:1029630000606020C00000000000000000000000C4
:102973000000000038441C24443E0000000000C056
:1029830040407844444444780000000000000000C4
:102993003C444040443800000000000C04043C4424
:1029A3004444443E000000000000000038447C40E2
:1029B300443800000000001C2420F8202020207848
:1029C30000000000000000003C48483040784438D4
:1029D300000000C040405864444444EE000000003E
:1029E3000010000070101010107C000000000008A0
:1029F30000003808080808080870000000C04040BC
:102A03005C48507048EC000000000070101010107B
:102A13001010107C0000000000000000F854545413
:102A230054D60000000000000000D864444444EE83
:102A33000000000000000000384444444438000013
:102A4300000000000000F8444444447840E00000E3
:102A5300000000003C444444443C040E00000000D9
:102A63000000EC30202020F80000000000000000EF
:102A73003C443008447800000000000010107C1033
:102A83001010100C0000000000000000CC4444446F
:102A9300443E0000000000000000EE4428282810F7
:102AA3000000000000000000D65454542828000001
:102AB300000000000000DC48303048EC000000005B
:102AC30000000000EE442828101020E00000000061
:102AD30000007C481010247C00001010101010100F
:102AE30010101010101010100001363601010001F3
:102AF30002010001030100010401060605020000B2
:102B0300070100340801000F090401010D0100FF52
:102B13000E08000017020000190100FF1A0100014E
:102B23001B0100FE1C0100081D0200001F01000123
:102B330020010001210200002301000F24020000F4
:102B43002601000127010008280200FF2A010007CF
:102B53002B0102402C0100002D0100012E01000178
:102B63002F0100FF30010B1C310800003A0100085F
:102B73003B01000F2F0100000302710230016002CC
:102B830011027002010202020202800210026102BB
:102B93003A004100630273027202620243020002BE
:102BA30013023800000200020402120200020002B3
:102BB3000002000204020402370037003C02440210
:102BC30000023900000200026502000235028102A0
:102BD3000002050282028302000203007100300139
:102BE30060001100700031022003500480001000C7
:102BF3006100000014006300730072006200430070
:102C03000000130006000000000004001200000092
:102C130000000000000004000400370037003C02FD
:102C230044000000000000000000650000003500C3
:102C33008100000005000000830000000103710310
:102C4300010301030103010301032203020301033F
:102C53001003000300030003000300030003000349
:102C630042030003240306030003000304031203C7
:102C730025032303250323030403040300030003A1
:102C8300000344030003000323030003650321003F
:102C9300350381030003050300030003000301015F
:102CA3007101010101011101010131010101010161
:102CB3008001100161013B00140063017301720183
:102CC300620143010001130106013D0135000401C6
:102CD300120100010001000100010401040133019C
:102CE30033013C014401320136000001000165015A
:102CF300000135008101000105018201830100010A
:102D030036000100060000000F0000000000000074
:102D130000000000000003FFFF00000403FFFF00AA
:102D230000FFFF0FF4010005C404032000010003AA
:102D33000B000000000000000003010F0100D41E7F
:102D430002004A1E0300501E0400561E05005C1EAE
:102D53000600681E1100801E1400861E15007A1ED0
:102D6300FFFF00004217721748174E176C176017C2
:102D73005A1778177E178417901754173C1736176E
:102D830003EAF5E5D5D5C5B5A5959585857575652D
:102D93006555554545353525251515050A0E150285
:102DA300D81405EA1407DE140CBA140DCC14FF0072
:102DB3000000160F00000B150B020002220F320059
:102DC30000062C183E1844180C174A180617121739
:102DD3008C18AA18B01892189E189818000349481E
:102DE300424D18172505020C0E020B040B0A0708A7
:102DF300000F000119161816161523030000383C9E
:102E03003E363B3B352B432C303016181920231A02
:102E13001C1E30303017181921301B1D1F30661748
:102E23008A17A41896179C178018501856186218FA
:102E33005C18020402010101010902000000000004
:102E43000000BE040AE8030E001500040028000871
:102E5300050C0A030908FF1E1E0F0404100C74F767
:102E6300120A6DE99003B0F0900365E4F012236C4D
:102E73009003B5E4F0A3F09003B1F0A3F01216466B
:102E8300122372900334E4F0A3F0902E5C93FA794A
:102E9300021223D2025AF774F2120A6DEAFEEBFF12
:102EA300548060699003B0E0F9121B8C8A088B0987
:102EB300EA4509604F7C0080010CEC75F003A4F82F
:102EC300A9F0749F28F582742D39F583E493F46097
:102ED3002CE493F88508828B83E06870DCAA08EC05
:102EE30075F003A4F874A028F582742D39F583E4F2
:102EF30093C0E0740193F583D0821225E1AA08AB55
:102F030009121B80EEFAEF6480FB023067EF542056
:102F1300601D1215688A088B09EA4509600A1214B4
:102F2300CCAA08AB09121B80EEFAEF642080DAEE1C
:102F3300A2E0501A90036AE0640F700B7900121438
:102F430096E9600312306AEE6401FAEF80BB542005
:102F53007003023035750C0012453C8B09EA4509B4
:102F630070107C027D007A207B009003B0E0F912A0
:102F73001CD67C0079047A007B001215448A088BE6
:102F8300098018850882850983A3A3A3A3A3A3A308
:102F9300A3A37401F0850A08850B09E508450960B8
:102FA3006D7C007904AA08AB091215448A0A8B0BBD
:102FB300750C01E5082404F8E5091242E024FFF04A
:102FC300A3E034FF1265D370CC850882850983A3FF
:102FD300A3A3A3A3A3A3A3A3A3E0640170A585084C
:102FE30082850983A3A3A3A3A3A3E05404709485B8
:102FF3000882850983A3A3A3A3A3A3A3A3A37406FE
:10300300F07AB78508828509831231968087121575
:10301300147C0079017A007B001215448B09EA4580
:10302300097009E50C70057A20125496EE642002AB
:103033002F4DEF5402600B121640EEFAEF640202BA
:103043002F0CEF5404601912562D12554D7901902F
:1030530003631258B11213DCEEFAEF6404022F0C6F
:103063007A007B0002329D900CDB1239341214AECD
:1030730022C082C08374EA121102851882851983E3
:10308300AA82AB83794B1223A874081213337402F8
:10309300F07409121333AA82AB8379501223A874F4
:1030A30013121333E4125A801223C67416024A5AB7
:1030B30074F7120A6D74E1121102EAFEEBFFEE4F90
:1030C3006033851882851983AC82AD8312158C74A5
:1030D30006121333E0601E7417121333E0FD7401FC
:1030E300121333E0FCEEFAEFFB790012253AE960A4
:1030F3000479A480027900025AF274F6120A6DEA86
:10310300FEEBFF8E828F83A3A3A3A3A3A3E054406C
:10311300601B125F6F12326460067AFF7BFF801AB6
:103123008E828F831246E6FAA3E0FB80031215B06A
:1031330074FE6A700374FF6B6041125F6F1254DA9E
:10314300121604E98E828F83600612318FE48005A4
:1031530012318F7401F07C9C7D148E828F83125800
:10316300B11223CCE9F5087015EE4F60097901EE31
:10317300FAEFFB121520A90802550B7508CDAA0812
:103183008E828F83123196E960DF80EAE0240D128C
:103193004BB522E0240C124BB5E0F91214A82274AB
:1031A300F6120A6DE9FEEAFF7A0F7B00121B7AEA38
:1031B3004B60198A828B83740CF0EEA3A3F0EF8A21
:1031C300828B83A3F01255367900802FEEF9121506
:1031D3004A8A088B09A808A909E849601C888289DA
:1031E30083A3A3A3A3A3A3A3A3A374061261FAE0D7
:1031F300F9121460EEF9121526791002550BC082EC
:10320300C08390036AE0640F7014EA4B601090036C
:1032130065E064086005E064047003123224024A26
:1032230084EAFCEBFD7A017B009003B0E0F9121C09
:10323300D022C082C0837900EA241DF582EB1246B6
:10324300E324FD600B14600824FD600424FD700179
:1032530009024A848E828F83A3A3A3A3A3A3A3A358
:10326300A31232682212472BFB121604E9228E8224
:103273008F83A3A3A3A3A3A3A3A3A312326864026C
:10328300228E828F83A3A3A3A3A3A3A3A3A3124AE0
:103293007B900356E0682212106E7F06020D2074A5
:1032A300F4120A6D74FD1211028A088B098A828B4B
:1032B30083A3A3E0F912154A8A0A8B0BAE0AAF0B5C
:1032C300EE4F70030233A9850882850983A3E06466
:1032D300F16030850882850983A3E064CD6024858D
:1032E3000882850983A3E0641A601885088285092A
:1032F30083A3E064E9600C850882850983A3E06405
:10330300E170087900121520E9706C85088285093F
:1033130083A3E0C0E07402121333D0E0124A5FEEDD
:10332300F0A3EF123D8A851882851983AA82AB83A5
:1033330070051213C480031215EC7402121333E0E8
:1033430064E970338E828F831233B5750A01780A6C
:10335300121044750AE9780A121044E508240CF5A2
:1033630082E50912387C123D67FCA3E0FD8A828B5B
:1033730083123D8112106E8E828F83A3A3A3A3A316
:10338300A3A3A3A3E0640270108E828F83A3A3A3DD
:10339300A3A3A3A3A3A37406F0850882850983A32B
:1033A300A3E0F9121526121514900CDF12306D02EA
:1033B3003939E0F8A3E0F9E8FAE9FB2274F4120AD8
:1033C3006DEAFEEBFF7508008E828F83A3A3A3A390
:1033D300A3E060427508088E828F83A3A3A3A3A3EF
:1033E300A3A3A312498E8B0BEA450B601075082C1F
:1033F3008E828F83A3A3A3A3A3E0D2E0F08E828F58
:1034030083A3A3A3A3A3E05403640160030234A82A
:103413004308110234A8EE24181239466033EE240F
:103423001A123946700F1232847003A3E069707563
:103433007508228070EE241BF582EF1234AD241A36
:10344300F582EF123D92EE2419125FA312144E80FF
:103453005412327170037508011232847003A3E0B1
:10346300697006E508D2E1F508E50860158E828FDC
:1034730083A3A3E07006E508D2E58004E508D2E65D
:10348300F50812325764017006E508D2E0F5088E9C
:10349300828F83A3A3E0600D1234BB64016006E551
:1034A30008C2E0F508A90802393E1246D11234B425
:1034B30022E0FCA3E0FDEE221246CB124703F912F1
:1034C30015F2E922C082C08379018A828B83A3A388
:1034D300E0C394024001198A828B83A3A3A3A3E0D0
:1034E300C39402400279008A828B83A3A3A3A3A37C
:1034F300A3A3A3A3E064F87003A3E0F460458A8266
:103503008B83A3A3A3A3A3A3A3A3A3E064F970033F
:10351300A3E0F4602E8A828B83A3A3A3A3A3A3A314
:10352300A3A3E064FA7003A3E0F460178A828B8399
:10353300A3A3A3A3A3A3A3A3A3E064FB7003A3E098
:10354300F4700279008A828B83A3A3A3E0F890032B
:1035530053E06860027900024A8474F0120A6D74C1
:10356300DE121102EAFEEBFF8E828F83A3A3A3A3D5
:10357300E0600E900CDD1255026006900CDD1230F7
:103583006D7403121333AC82AD838E828F83A3A336
:10359300A3125584125DBDE9600F7403121333AA9D
:1035A30082AB831214C6E97008790112237E0238B4
:1035B30071EE241B1246D6741012133312554D7438
:1035C30009121333E06021741A121333E0FD7404FB
:1035D300121333E0FC8E828F831258AF79011225C8
:1035E3003AE96004790280C37403121333AA82ABED
:1035F300831214C0E9F50A7409121333E0702A9098
:10360300034DE060247422550A6422601C74425501
:103613000A644270CF742012133312388F600A7415
:103623002012133312388870BBE9A2E650417403A9
:10363300121333AA82AB831214B4E970030235ACBC
:1036430074201213331246E66403700F74201213AE
:1036530033A31254F4A3E0640D6014740312133300
:10366300AA82AB83121616E964017003023871EE65
:10367300242C123879123B9D7003A3E069701C75EA
:10368300080078081210447808121044EE242E1211
:103693005FA3123895123D8112106E740912133311
:1036A300E0700302374E1238951258B112166A8A27
:1036B300088B09EA450970030237EB7404121333CC
:1036C300E0F88E828F83A3A3E028F8A3E03400F907
:1036D300E8240D1238808A828B83A3A3A3E0686059
:1036E3001CE88A828B83A3A3A3F09081AE121308F4
:1036F300850882850983A3A3A3A31212FC7904E995
:10370300121333125D9A2AF8A3E034008882F583FA
:10371300A3AA82AB83121B688A0C8B0D8C0E8D0FB0
:10372300850882850983A3A3A3A3780C120FFB400A
:10373300030238719081B2780C1211A98508828531
:103743000983A3A3A3A3780C1212A4900365E064D6
:10375300046008E064096003023871E50AA2E540E9
:1037630003023829EE242E123946851882851983DF
:10377300F0EE242F123946C0E07401121333D0E067
:10378300F0EE2430123946C0E07402121333D0E055
:10379300F07414121333E064017027740E121333A0
:1037A3001246DCEE2412123946687003A3E06970F6
:1037B30011740C12133312327E7007741412133304
:1037C300E4F0EE2424123879120E21740412133318
:1037D300AC82AD837407121333AA82AB831213CA6C
:1037E300740412106E0238719003AAE0640160033E
:1037F30002374E742012133312388F7009E50AA270
:10380300E6500302374E7410121333E0F47003A32F
:10381300E0F4605AEEFCEFFD7403121333AA82AB9B
:10382300831214D28048A2E6504474201213331238
:1038330058C0701A741A121333E0640270307403A0
:10384300121333AA82AB8379001215E0802074200F
:103853001213331238887016741A121333E0640487
:10386300700C7403121333AA82AB831215DA742219
:10387300025C6CEE240BF582EF1246D122F582E94D
:10388300125566F822125F81E0640722124703642F
:103893000622EE242A1246CE1234B424121246CE45
:1038A3002274F4120A6DEAFEEBFF8C088D09900571
:1038B300BEE0600F1232847003A3E0697005121436
:1038C3003C804F79001258A412146C8A828B83E5D2
:1038D3008245836035A3A3A3A3A3A3E05418602A5E
:1038E300E508241BF582E50912387C120E25123FE8
:1038F3007A12387C120E25EE2418125FA3123917A0
:1039030012147E740412106E800879001239171293
:10391300144280278E828F83A3A3A3A3A3A3A3A36D
:10392300A31234B4240BF582EF123930223400F59C
:103933008312472BFB22740312106E7F04020D20A7
:10394300EE2417F582EF1255662274F7120A6D748E
:10395300F7121102EAFEEBFF900365E06403600DCA
:10396300E064016008E064096003023A178E828F05
:1039730083A3E0707E7C007D007A027B00122378B3
:10398300EE2402FAEF1242E71246DC900356125578
:103993004D79531223AE7900123A1CE06409600397
:1039A300123DAF8518828519837401125523900344
:1039B300657404F07401121333AA82AB83794A123B
:1039C30023A87401121333AC82AD837A5B7B031299
:1039D3002396900356125DB37A03123DB9900350B8
:1039E300E0A2E35004D2F08002C2F012551012306C
:1039F3006A801E8E828F83A3AE82AF83FC7D007AA2
:103A0300037B101223788E828F83E0F9123A1CE431
:103A1300F01214FC7409025AF4900363123934123D
:103A230013DC90036522C082C083900334125502D5
:103A3300701F900365E014600924FC600A14600C95
:103A4300800F90033C8032900338802D90033A809E
:103A530028E8496008900335123D61700C8A828B17
:103A630083A3E0F91213D0801B9003351240167024
:103A730005121634800E9003D212550260061254BA
:103A8300F41225E1024A8474F4120A6D74FB1211D4
:103A9300028A088B097A0F7B00121B7A8A0A8B0B26
:103AA300AE0AAF0BEE4F7003023B918E828F8312EF
:103AB3005A7E79501223A8850882850983A3E06082
:103AC30003023B79900363E0F47003A3E0F46034F2
:103AD300900363E064FE7003A3E0F460278518821B
:103AE300851983123B9D7003A3E0696017850882E3
:103AF300850983A374EA123D977A637B0379501295
:103B030023AE8072851882851983125F6212554D28
:103B13007A567B0379531223A890035612557E12CB
:103B2300554D7A597B03794B1223A87A587B037935
:103B3300E11223A890036AE0C3940F502190035825
:103B4300E0C0E07402121333D0E0F07404121333B4
:103B53007401F004121333AA82AB831223C0750AD3
:103B630000780A121044780A121044900D05E0F907
:103B7300123D7812106E850882850983123B96A345
:103B8300F09003657403F0EEFAEFFB1255367405FB
:103B930002393BA3E08E828F8322125F66E06822A4
:103BA300124BBC2274F5120A6D74D81211028A08E2
:103BB3008B098A828B83A3A3A3124708741512135C
:103BC30033AC82AD838A828B83A3A3A3A3A3A3A3D2
:103BD300A3123D67FAA3E0FB121502741512133307
:103BE300E0706B850882850983A3A3A3A3A3A3A382
:103BF300A3E0C3940B40578E828F83A3A3A3A3A3F5
:103C0300A3A3A3E064027046EE240B123946F470BA
:103C13003D900365E06402603AE06406603590031A
:103C2300341255026005123D61604F900365E064F4
:103C3300086005E0640470167417121333E0F97416
:103C43001C121333AC82AD831258A41215087428C6
:103C5300026480900334125502701F7508007808BF
:103C63001210447808121044EE2410123879125FAF
:103C7300BB1243CF123D8112106E8E828F83125876
:103C8300201242F91246DC740212133312554DEE20
:103C9300240D123946C0E07404121333D0E0123DF0
:103CA3008AF508A3E0F509740F78081212C27405A7
:103CB300121333E508F07419121333E0C0E07406ED
:103CC300121333D0E0F0741B121333E0C0E0740717
:103CD300121333D0E0F07416121333E0C0E074090A
:103CE300121333D0E0F07417121333E0C0E07408FA
:103CF300121333D0E0F0EE2410123946C0E0740AF8
:103D0300121333D0E0F0741A121333E0C0E0740BD3
:103D1300121333D0E0F07427121333E0C0E0740CB5
:103D2300121333D0E0F0741C121333A982AA8389CF
:103D3300088A09750A00780812103C7C087D007413
:103D430010121333AA82AB831250B112106E85186E
:103D530082851983AA82AB831213D6023C51124087
:103D63001C640122E0F98A828B83A3A3A3A3A3A3E8
:103D7300A3A3A3E022900363125DB7900359123902
:103D8300341215C2740222F0EE240B125563221270
:103D93005566FA22F07A567B037953123DA222121A
:103DA30023AE7A597B03794B1223AE22900363121D
:103DB3003934121664227B00122378900359125D62
:103DC300B77A047B0012237822F0125FC62274F2C2
:103DD300120A6D74F8121102EAFEEBFF8C0A8D0BC6
:103DE300890C851882851983AC82AD8375838175AF
:103DF30082447408120F9CF50DEEFCEFFD851882CA
:103E0300851983AA82AB831257817003750D0190C4
:103E130003B1803BEEFCEFFDE508240BFAE5093422
:103E230000125780601E850882850983A3A3E0657D
:103E33000C7011850882850983E0650A7004A3E08C
:103E4300650B6038E5082414F582E50912387C1205
:103E530042F1E50845096024E50DA2E040B6850876
:103E630082850983E0650A7004A3E0650B70D5853C
:103E73000882850983A3A3E0650C70C8AA08AB096F
:103E8300740802329AC082C0839003B1024A8174DB
:103E9300F7120A6D9003B112472B8012EA2414F52E
:103EA30082EB12387C124708121C1CEEFAEFFBEA75
:103EB3004B70E99003B1E4F0A3F0025AF77F0702D5
:103EC3000D2074F1120A6DEAFEEBFF890A8C088D4E
:103ED300098E828F83E08C828D83124998AE82AFE4
:103EE30083E01251711250E2C4125171123F83E008
:103EF30054038C828D831250E0A2E2E4338C828DD2
:103F0300831250DF131313541F1251711250DEA288
:103F1300E7E4338C828D83A3A3A3A3123F838E0C88
:103F23008F0D750E00780C12103C7C087D00E5089F
:103F33002407125D2612106E125D918E0C8F0D7880
:103F43000C12103C7C037D00E508240F125D261241
:103F5300106EE50AC3940F40148E828F83A3A3A32C
:103F6300E0C0E0123F7A12387CD0E08006123F7A3C
:103F73001261EEF0023EC0E5082412F582E5092243
:103F8300A3A312499C0EAF832274F4120A6D74F931
:103F9300121102EAFEEBFF89089003341255026006
:103FA3000E1240167009EEFAEFFB12162E805F9088
:103FB3000363E06E7003A3E06F70537401650860E0
:103FC300097A777B0312578170447A007B0212458A
:103FD300408B0BEA450B7036900366121308851865
:103FE300828519831212FC90036CE0C0E074041202
:103FF3001333D0E0F074051213337401F074061216
:104003001333125A7E1213A0E9609B1213A674078E
:1040130002393B12401C640222125F82A3A3A3A3B2
:10402300A3A3E02274F5120A6D8A088B098A828B96
:1040330083A3AE82AF83E0F91213F48E828F83E001
:1040430064EB600C850882850983A3E064E1700951
:10405300850882850983A3E4F012306A750A017822
:104063000A121044850882850983A3E0F5087808BD
:104073001210447900123D7812106E121514026466
:1040830083EAF0A3EBF0024A8474F6120A6D9003FC
:10409300B4E0701B7C0079017A007B00121544EABE
:1040A3004B600C8A828B8312550260031214A202A6
:1040B300550BC082C083124528401079FF12153E6C
:1040C300E9F8902E60E493C3985004790180027953
:1040D30000024A8474F0120A6D8A088B09890B75F1
:1040E3000C008A828B83A3A3A3A3A3A3A3A3E0F9B6
:1040F30012154A8A0E8B0FAE0EAF0F750A01EE4FE3
:1041030060030241B5850882850983A3A3A3A3A302
:10411300A3125DB3850882850983A3A3A3A3A3A3E5
:10412300A3124EB11258B11215328A0C8B0DAE0C7C
:10413300AF0DEE4F70030242D88E828F83A3A3A3E9
:10414300A3E4F0A3F0E508240B1242E4E0C0E0127C
:104153003876D0E0F012160AEE240CF582EF1254F2
:10416300D6E508240EF582E5091246D9EE240EF5AC
:1041730082EF12554A750C01EE2406F8EF1242E065
:10418300547FF0A3E054FC126018E054046003026F
:10419300423B900CE3124EA27407780812122E8E43
:1041A300828F83A3A3A3A3A3A3E04508F0A3E045C1
:1041B30009F08E828F83A3A3A3A31242EF7407781F
:1041C300081212C2E5085407F508E50B607A8E82DF
:1041D3008F83A3A3A3A3A3A3A3A3A374021250E354
:1041E300240D124BB1E0A2E2500B90035112557E05
:1041F300A3A312554DE50870030242ADEE2406F861
:10420300EF3400F9E8FAE9FB8A828B83E0547FFC00
:10421300A3E054FCFDE50824FFF508E434FFF509A9
:104223007407780812122EEC4508F8ED4509F98A4F
:10423300828B8312554D80728E828F83A3A3A3A397
:10424300A3A3E044800241B4E5087005750A008029
:10425300598E828F83A3A3A3A3A3A3E05420601248
:10426300121B74EA547F245F8E828F83A3A3A3A3BC
:1042730080238E828F83A3A3A3A3A3A3E054106000
:104283000A121B74EA540F240A80DD8E828F83A3E3
:10429300A3A3A37401F0A3E41242F97404124537F3
:1042A3008B09EA450970031254C9E50CA2E05028B2
:1042B3008E828F83A3A3A3A3125AE4F9EEFAEFFB32
:1042C300121538E960121254F860031246C1EEFA6F
:1042D300EFFB121C1C750A00A90A025C6F125641FF
:1042E30022FAE5093400FB8A828B8322A3A3E0F53B
:1042F30008A3E0F509221242FD22125D42A3A3A303
:10430300A3A32274F4120A6D74F71211027E001231
:10431300154AEA4B70030243C88A828B83A3A3A383
:10432300A3A3A3A3A3A3E0640660030243C88A82F2
:104333008B83A3A3A3A3A3A3A3E0FF8A828B8312EC
:104343004BC4E0C0E07408121333D0E01246FC12F1
:10435300578712554D12155CEF5408606685188215
:10436300851983125DB37A007B0012152C8B0BEA3F
:10437300450B704F9003631247EC1223D87C007DEA
:10438300007A007B0080288E828F831246E6F470C9
:1043930003A3E0F4602D9003631243CF1258B112CC
:1043A30020CCE9641A601C7C007D00EEFAEFFB125E
:1043B300152C8A0A8B0BAE0AAF0BEE4F70C979002E
:1043C3001223DE7E01EEF9740902393B1243D32234
:1043D300E0FCA3E0FD8E828F8322C082C083EA4B80
:1043E30070059003B580068A828B83A3A31245ECE4
:1043F30060258A828B83A3A3A3A3A3A3A3E054086A
:1044030060E5EC4D60158A828B831246E66C70037F
:10441300A3E06D70D280047A007B00024A8474F2B8
:10442300120A6DEAFEEBFF890A8C088D097A107B6C
:1044330000121C16EA4B603F8A828B83A3A3A3A3BB
:10444300A3A3A3A3A3E41246EAA3E50A125F88A3E6
:104453001244848A828B83A3A3A3A3E4F0A312460A
:10446300F6A3F0125E1CEA240CF582EB12498812C3
:10447300447DA3A3F0A3F002329DA3F08A828B8331
:1044830022A3A3E508F0A3E509F02274F4120A6D50
:10449300EAFEEBFF89088C0A8D0BEE4F6055740121
:1044A30065087014790112153EE9F8902E58E493CB
:1044B300C398500F7911806A74046508702F1245F0
:1044C3002840F18E828F83A3A3A3A3A3A3A3A3A3B3
:1044D300E508124998A312650D8E828F83A3A3E486
:1044E300F0A3F09003B51255026021800D740265AC
:1044F3000860D079C1802BE0F8A3125577A3A312EB
:1045030045EC88828983A3A370ED80039003B5EE05
:10451300F0A3EF1245378B0BEA450B70031254C916
:10452300790002393E790412153EE9F8902E53E4DE
:1045330093C39822F012453C227A207B009003B06B
:10454300E0F9121CE222C082C083E9F879009003EB
:10455300B5801D8A828B83A3A3A3A3A3A3A3A3A331
:10456300E068600574FF687001098A828B83A3A3E6
:104573001245EC70DE024A8474F7120A6DEA4B703E
:10458300059003B580068A828B83A3A31245EC6052
:10459300248A828B83A3A3A3A3A3A3A3A3A3E069D6
:1045A30070E4EC60148A828B83E0240D125DA4A274
:1045B300E240D380047A007B00025AF7C082C083B2
:1045C3009003B580068A828B83A3A31245EC601205
:1045D3008A828B83A3A3A3A3A3A3A3A3E06970E508
:1045E30080047A007B00024A84123934EA4B227435
:1045F300F2120A6D8A0A8B0B8C0C8D0D75080075EF
:104603000900EA450B602E9003B580068E828F83E6
:10461300A3A312463F601EAC0CAD0DEEFAEFFB8573
:104623000A82850B831225E1E9640170DFEEF8EF5E
:10463300F988088909AA08AB0902329DE0FEA3E0C4
:10464300FFEE4F2274F7120A6D9003B51246DC7C1D
:10465300007D00800DE8FCE9FD88828983A3A31215
:1046630046DCE8496030EA687002EB6970E7900362
:10467300B51258B1E86A7002E96B88828983A3A3F3
:1046830070081246DC9003B580091246DC8C828DDB
:1046930083A3A312554D025AF774F7120A6DEAFE6B
:1046A300EBFFEE4F601512155612470E1254F860C9
:1046B300031246C1EEFAEFFB121C1C025AF7EE245A
:1046C3000C1246CE12472322EE241DF582EF34004E
:1046D300F58322F582EF1246D1124A7B22F582EF4F
:1046E3001246D1124703221246EE22125F90A3A371
:1046F300A3A3221246EEA3A32212447E124703224F
:10470300125F7BE022E0FEA3E0FF228E828F83E034
:10471300241C124BB51247238E828F831247232208
:1047230012472BFB121C1C22E0FAA3E022C082C01A
:1047330083EAFCEBFDEC4D700479058044EC24FB2B
:10474300F582ED34FF1255007007124787E0F460DD
:1047530005121B8080E39003B0E0C0E0124787D0CE
:10476300E0F0902E55E493F97AB77B03121BAAE984
:104773006401700B7A007B201254CD79008002799A
:1047830004024A84EC24FFF582ED34FFF58322749E
:10479300F4120A6DA2AFE433F508C2AF9003B71267
:1047A300463F6038EE24FBF582EF34FF1255007A62
:1047B300007B209003B060051254D08005E0F9120D
:1047C3001BB6E4F50AF50B780A121040EEFCEFFD78
:1047D3007AB77B03121BA4740212106EE508A2E0E1
:1047E30092AFEEFAEFFB02393E125DB78518828570
:1047F3001983AA82AB832274F2120A6D74FC12111C
:1048030002EAFEEBFF750AFE750BFF12151AE9604B
:1048130005791102497DEE24151239466037900C53
:10482300F7E0C43354E0F8E0333354FC48C0E0EE1F
:104833002415123879D0E012499812498E8B09EA6F
:1048430045096011750AFFEE240F1239464404121C
:10485300555BD2E0F08E828F831232626006EE24C3
:1048630012124985EE24131239467010902E5BE420
:1048730093C0E0EE2413123879D0E0F08E828F8358
:10488300E0A2E750045403801CEE2414123946704E
:1048930015900342E0C0E0EE2414123879D0E0F022
:1048A300900342E004F0EE241112394664017016BD
:1048B3009005B5E0600D90034DE0700A8E828F8302
:1048C300E070031249828E828F83E064017013EEDD
:1048D300240B1246E064027009EE240F1239464499
:1048E30040F0851882851983AC82AD83EEFAEFFB25
:1048F3001215808A088B0974FE650A700374FFF42D
:1049030070098E828F83A3A3125D32EA4509606624
:104913008E828F83E0C0E07401121333D0E0F07411
:1049230002121333125E20740112133385820C8535
:10493300830D780C121040EE240F123879120E25D5
:10494300EE240E123946F50C780C121044900356DF
:10495300120E257407121333E0F9AC0AAD0B1215CE
:104963007A740712106EE9FE74106E700BAA08AB0E
:1049730009121C1C80027E10EEF9740402329AEEB6
:104983002411F582EF1246D1E4F022A312393479CF
:10499300FF12243E2212499C22F08E828F83A3228F
:1049A300C082C08374DE1211028A828B83A3A3A305
:1049B300A31246DC740E121333E8F0A3E9124A7211
:1049C300740C121333124A6B240DF582EB1239491E
:1049D300C0E0741A121333D0E0F0125C7FEB12467E
:1049E300D97420121333124A6B2415F582EB123952
:1049F30049C0E07408121333D0E0F0EA241CF582B6
:104A0300EB1246D97412121333124A6B2411F58236
:104A1300EB123949C0E07409121333D0E0124A5F34
:104A230074FFF0740112133374FFF0740212133322
:104A330074FFF09081AE120E217404121333AC8212
:104A4300AD837407121333AA82AB831213CA74049F
:104A530012106E7900742212106E8025124A63229E
:104A6300F085188285198322E8F0A3E9F0EA22127F
:104A7300447EA3124A7A22A3E0F8A3E0F922125853
:104A8300B1D083D08202102074EC120A6D74EE123E
:104A930011028A128B13ECFEEDFF8909742612139F
:104AA30033125D327428121333E0F5107429121394
:104AB30033124BA6742B121333E0F50EA3E0F50F5C
:104AC3007508107A1E7B00121C167402121333121F
:104AD30054DA74021213331255027003024B9F858A
:104AE3001882851983AA82AB8379501253B5125861
:104AF300B17402121333124BC4A31254DA7410129A
:104B0300133312650F7402121333E0240B124BB1EB
:104B13007402F0121333124BC47402F012133312E3
:104B23005F73125E2074021213331258C6E509F044
:104B33007402121333E0240C124BB1E510F074022B
:104B4300121333124BAEE512F0A3E513F0740812FF
:104B53001333E50CF0A3E50DF0740A121333E510DB
:104B6300F0850E82850F83C082C083740D121333C8
:104B7300AC82AD83D083D0827403120F9CF974028C
:104B8300121333AA82AB83121520E96401700575F1
:104B93000800800874021213331246C7A90874125E
:104BA300025D49E0F50CA3E0F50D22E0241C124B55
:104BB300B522F8A3E0124BBC223400F98882898322
:104BC300221258B9A3A3A3A3A32274EE120A6DEA77
:104BD300FEEBFF8C088D098E828F83A37408125518
:104BE30096E060088E828F83A37410F012394360BD
:104BF300098E828F83A3E02408F0EE241512394630
:104C030060088E828F83A3E004F08E828F83A3A338
:104C1300A3A3A3A3E060198E828F83A3A3A3A3A35B
:104C2300A3A3E0C3332402F88E828F83A3E028F08A
:104C3300EE24111239466005750B0E8003750B00C7
:104C43008E828F83A3C082C083EE240D123946D097
:104C530083D082F8E028250B8C828D83F0EE24111B
:104C630012394660051250C128F0850882850983F0
:104C7300E0C394754009750800750900024DAFE063
:104C8300FA7B00125ECE7003024DAFEEFAEFFB1219
:104C93001586EA8508828509831254DBEE2402F81F
:104CA300EF123BA3124EA9124DEBF0EE24040808B9
:104CB300EF123BA31252EBA3124DEBA3A3F0EE248E
:104CC30013124DD1F0EE2414124DD1A3F0750A083E
:104CD300EE24161239466010EE2418125DB0E50872
:104CE3002408125FB1750A101239436016EE241AB4
:104CF300125DB0850A0CE508250C125FB174082516
:104D03000AF50A8E828F83A3A3A3A3A3A3E060590A
:104D1300EE2407F510EF3400F511851082F583E0DA
:104D2300C0E0124DB812387CD0E0124DDBE0C0E099
:104D3300124DB812387CD0E0124DDBA3124DC412D1
:104D4300103C851082851183E0C333FCE433FD8579
:104D53000A0CE508250C125D2612106E851082855B
:104D63001183E0C333250AF50AEE24151239466090
:104D73000BC0E0124DB812387CD0E0F01238761236
:104D83004DC412103CEE240D123946FC7D00850BF8
:104D93000A8E828F83A3E0F8E50828F8E50934003A
:104DA300F9E8250AFAE9125D2912106EAA08AB097F
:104DB3007F0A020D20850A0CE508250CF582E5091A
:104DC30022E0F50CA3E0F50D750E00780C221246D7
:104DD300CE124DF5A3A3A322F0050A8E828F83A3DF
:104DE300A3A3A3A3A3A3A322A3A312601CA3124D53
:104DF300F5221252EFA3A32274F6120A6D8A828B54
:104E030083E0FC900353124EA27402780812122E10
:104E1300EC4508FCAD09EA2412124E9C740678088E
:104E230012122EEC4508FCED4509FDEA2415F58226
:104E3300EB1239496004780180027800E4C8F9ED87
:104E430049FDEA2411F582EB123949F50888097402
:104E530009780812122EED4509FDEA2416124E9C1C
:104E6300740B780812122EED4509FDEA2417124E31
:104E73009C740C780812122EED4509FD8A828B83EF
:104E8300A3A3A3A3A3A3124EA2740A780812122EFB
:104E9300ECFAED4509FB02550BF582EB1246D1E026
:104EA300F50875090022E085088285098322A3E0BD
:104EB300F98508828509832274EE120A6D8A0A8BAA
:104EC3000BECFEEDFF750F01E9C394085005790063
:104ED3000250AE8E828F83E9F0125314E96003759A
:104EE3000F001252F88E828F83125342EE125C80AF
:104EF300EF125337C0E0EE2411123879D0E0125389
:104F03002FC0E0EE2412123879D0E01249987408C9
:104F1300125D3AA3A3A3E060151252E0EE2413F549
:104F230082EF12554A8E828F83A3E02408F08E828B
:104F33008F83A3A3A3A3A3A3A3A3E060218E828F44
:104F430083A3858208858309125323EE2415F582F2
:104F5300EF12554A850882850983E02408F08E8282
:104F63008F83A3A3A3A3A3E0601A8E828F83A38559
:104F730082088583091253078E828F83A3A3A3A379
:104F8300A31250D3EE2419124985EE241B1249852E
:104F9300A312558EE07003025042EE2419F8EF3449
:104FA30000F98E828F83A3858208858309E0FAE561
:104FB3000A2AF582E50B123949888289831250D374
:104FC300FAE50A2AF582E50B123949C0E0EE241A04
:104FD300123879D0E01250D388828983E06059F87F
:104FE300902E54E493C398500575110C8008EE2459
:104FF30019123946F5118E828F83A3E0F8E50A284A
:10500300F50CE50B1250B712103CE511C333FCE469
:1050130033FD7A957B0B1250B112106EEE241B12E6
:1050230038797495F0A3740BF0E511C333F8850850
:1050330082850983E0288006EE24181261EBF08E46
:10504300828F83A3E0F88E828F83E0C3985003029C
:105053004ED1A3E0FA8A08E50A2508F8E50B3400E7
:10506300F9EE241DF582EF1256561250E3C39AC08F
:10507300E0EE2417123879D0E0125553602BEE245A
:1050830017F8EF3400F9880889098882F583E0244A
:10509300F2125637240EFAA3E03400FB8882898388
:1050A3001254DA1250C1C398F0A90F024DB3121B68
:1050B300507403223400F50D750E00780C22900312
:1050C3004EE0F912251CE9F8850882850983E02260
:1050D300F0850882850983E004F022A3A3A3A3A398
:1050E300F08E828F83E02274F4120A6D8A088B0992
:1050F300EA125178F0EA1313543F125171A3A3A398
:10510300F0EAC41313125178A3A3F0EB12516A12FD
:1051130051827409780A1212C212516812518174B1
:105123000A780A1212C2E50A5401C0E0EC2418F509
:1051330082ED12387CD0E0125187740B780A121278
:10514300C2125168A3125181740C780A1212C2124E
:105153005168A3A3A3A3A3A3A3A3F0740D78081278
:1051630012C20234A8E50A54018C828D8322540FA3
:105173008C828D832254038C828D83A3A322A3A3C9
:10518300A3A3A3A3F08A0A8B0B22C082C083790056
:105193008A828B83A3A3A3A3A3A3E090034D600FF1
:1051A300E070228A828B83A3A3E07019098016E042
:1051B30060138A828B831258A8900356E06A7003A7
:1051C300A3E06B70E7024A8474F0120A6D8A0A8BBB
:1051D3000B890C8C088D091253141252F88508821E
:1051E300850983125342E508125C80E5091253379F
:1051F300C0E0E5082411F582E50912387CD0E012FD
:10520300532FC0E0123F7A12387CD0E012565E74FE
:105213000812567760111252E0E508241312565211
:1052230012565EE02408F0850882850983A3A3A3B0
:10523300A3A3A3A3A3E06017850882850983A31210
:10524300531FE50824151256521250E32408F08523
:105253000882850983A3A3A3A3A3E0601985088219
:10526300850983A3AE82AF8312530785088285091C
:10527300831250DE04F0AA08AB09121598E9F50D64
:105283007056850882850983A3A3A3A3A3A31252FF
:10529300EB7014E0FA8A0EE50A250EF8E50B1255B9
:1052A3003FE50CC39A802112531FE8240EF8E9123C
:1052B300553F90034EE0F912251C8E828F83E0F850
:1052C300E50CC39824F2C399C0E0E5082417F582DE
:1052D300E50912387CD0E0F0A90D025C6FE50A24E1
:1052E30008F8E50B3400F9221252EF22E085088218
:1052F300850983A322850A82850B83A3A3125358AE
:10530300E0F9EA22E0F8E50A28F582E50B12556692
:10531300228A828B83125C7412159222AE82AF832F
:10532300E0F8E50A28F8E50B3400F92212536BA3E1
:10533300A3A3E0221246D1E8125364A3A3E022A35D
:10534300A3A3A3A3A3A3A3A3125364125358A3A376
:10535300E0F9EAF822E0FA850A82850B83A3A3A386
:1053630022F0A3E912536B22F0850A82850B83A3F3
:10537300A3A3A322C082C0837AC57B0379E212234D
:10538300A87AC57B03024A84C082C0839003560275
:105393004A81C082C08374FE121102851882851966
:1053A30083AA82AB83794B1253B51258B1740202AC
:1053B3004A5A1223A885188285198322C082C08382
:1053C300794A1223A8024A8474F6120A6D9003CD17
:1053D300E0FE04F0EEF912154A8B09EA450970ED77
:1053E300EE60EAF902550B74F0120A6DEAFEEBFF68
:1053F3008C088D09890A7410121333E0F50B7411AC
:10540300121333E0F50C12166AEA4B7013E50C70B5
:1054130042A90AAC08AD09EEFAEFFB121682806EC0
:10542300E50A6021EA2402F582EB123949850A086C
:105433002508F8E4340013E813F070098A828B839B
:10544300A3A37401F0E50C6045E50B70068A828B1B
:1054530083E4F07401650C7035E50B9003D470049C
:10546300E4F0802AE004F0900CE4E0F89003D4E048
:10547300C398401AE4F0900359E06E7003A3E06F01
:10548300700CEEFAEFFB79011213EE125494025CE6
:105493006F7A017B009003B0E0F9121CDC22C0821A
:1054A300C08374016A7001EB70077A011254CB80D8
:1054B30012900CDB1254DAEA4B600512322480039B
:1054C300125494024A847A207B009003B0E0F912CC
:1054D30025D6223400F583EAF0A3EBF022C082C084
:1054E30083900CDD024084C082C083900CDF0240B5
:1054F30084125F8222EE240CF582EF3400F58312CE
:105503004A7BE8492212106E7F02020D20A2F0E4CA
:105513003385188285198312552C79521223AE22B2
:1055230012552C79421223AE22F0AA82AB8322AA0F
:1055330008AB099003B0E0F9121B86223400F9E5A9
:1055430008241DF582E5091246D1E8F0A3E9F0220B
:10555300125D3EA3A3E022A3F0EE241512556322AD
:10556300F582EF3400F583E022125570223400F502
:1055730083E0F8A3E0F98882898322E0F812558456
:1055830022A3E0F98E828F83A3A322F0EE241812C4
:1055930046CE22F0EE24161246CE2274F4120A6D81
:1055A300EAFEEBFF7A007B0412549812562D125533
:1055B3004D9003657409F01215A48A088B09AC0891
:1055C300AD09EE24131238791258B11257816401D0
:1055D30070487A0F12562060418A828B83740212BC
:1055E3005637FAA3E0FB8A828B83A3E0FC8A828B83
:1055F30083A3A3E0FBEC850882850983A3A312544C
:10560300DB888289831258B5124EA912555AFAA320
:10561300E0FB794A1223AE12553202393E7B001267
:105623001B7A8A088B09EA450922900336124A7BC2
:10563300900CDF22F0EE241DF8EF12564122124B9C
:10564300BCE02212564A223400F5837401F022F59D
:1056530082E5091246D1E8F0A3E92212566222122A
:10566300566622F0850882850983A322125666A313
:10567300A3A3A32212566FA3A3E022125A881215E2
:10568300F822EE2417F582EF12564A1215A4EE24DF
:105693001A1246CEEAF0A3EBF02274F4120A6D74E8
:1056A300F31211028908EAFEEBFF7C0D7D007900FD
:1056B300851882851983AA82AB83121B5CEE241D95
:1056C300123879125F73A3E0F8741F58600A7901E6
:1056D30012237E7900025778E8A2E55008740C1271
:1056E30013337401F0E8A2E75008740B12133374F8
:1056F30001F0E8A2E6740A50081213337401F08033
:1057030008121333E064017005EE24138003EE24C2
:1057130015125DB07402121333AA82AB831223965F
:1057230012387612578612554D740A121333E064F9
:10573300017033123257703B1215B08A0A8B0BA8D3
:105743000AA90BEE240B123946687003A3E06970B3
:10575300221215A4EAFCEBFD7402121333AA82ABE6
:1057630083125781600D851882851983AA82AB83C2
:105773001213E8A908740D02393BEEFAEFFB12236A
:1057830090E922E012578B22F8A3E0F9851882856D
:1057930019832274F6120A6D74F31211028A088BAC
:1057A30009ECFEEDFF7C0D7D0079008518828519DB
:1057B30083AA82AB83126118A3A3A3A3A3A3A3A366
:1057C300A3125820125829F8A2E55008740B12139B
:1057D300337401F0E8A2E75008740A12133374011A
:1057E300F0E8A2E6EE5004241380022415125DB003
:1057F3007402121333125812A3A3E0C0E0740C1204
:105803001333D0E0125A801213E2740D025508AA22
:1058130082AB8312239685088285098322E012577F
:105823008BE8F0A3E922F01246CB125F77A3E022C4
:1058330074F7120A6D74E1121102EAFEEBFF8E8215
:105843008F831258B5A3A3A3E0A2E050518E828F99
:10585300831233B78A828B83A3A3A3A3A3A3E054A6
:10586300FE1258CD8A828B831258C6E0F98A828B46
:1058730083E0241CFAA3E01242E71258B112159EEA
:10588300E9701B741D1213331258C07011851882EE
:10589300851983AC82AD83EEFAEFFB1215E6025A4B
:1058A300F28E828F83A3A3A3A3A3A3A3A3A31239DB
:1058B30034221258B922125F7BA3A3A322124703F7
:1058C300640422E0241B124BB522124A63AC82AD5E
:1058D3008322E9F87900740468600A740A68600531
:1058E30074036870010902102074F6120A6D8A822B
:1058F3008B837420F0A3A37401F01213948A088B92
:1059030009AE08AF09EE4F60108E828F837401F0E9
:105913009003A3E07003125685EEFAEFFB02550BDA
:10592300C082C0839003B97401F0E9A2E350037409
:1059330003F0E9A2E15004E0D2E2F0024A8474F6F3
:10594300120A6D79007C008A088B097808120D66AB
:10595300F8FF07745972597259725972596B596F1A
:1059630059745968590C80097C0480050C80F67CB5
:10597300089003B9E05C6003098003EC600109024D
:10598300550B74F6120A6D8A828B83E07012A31290
:105993005502600C8A828B831258B0122540800412
:1059A3007A007B0002550B74F5120A6D74F3121121
:1059B300028A088B09ECFEEDFF750A12EA450970AD
:1059C300057900025A79900356E065087004A3E054
:1059D300650970141215A4EAFCEBFD12577D7005DE
:1059E300750A018003750A00851882851983E4F01E
:1059F30004121333E508F0A3E509125A8012135871
:105A0300E960277403121333AA82AB83122462E979
:105A130064017016750A017403121333AC82AD83EB
:105A230012577D6021750A00801C7412650A701676
:105A33009003A2E06402700EEEFCEFFDAA08AB092E
:105A4300121370E970DFEEFCEFFDAA08AB09121622
:105A530070E9F8740A687005750A01801774A06804
:105A63007012EEFCEFFDAA08AB0912167CAA08AB74
:105A73000912168EA90A740D0264807402125A84E4
:105A830022125A8822124A63AA82AB832274F71223
:105A93000A6DEAFEEBFF8E828F83A3A3A3A3A3A3C6
:105AA300A3A3E06015EE24151238791239241216D7
:105AB30010E964017004790180258E828F83A3A38A
:105AC300A3A3A3A3A3E06015EE2413123879125AFB
:105AD300E4FAA3E0FB121610E9640160D9790080AF
:105AE300131243D3A3A3A3A3A3A3A3A3A3E0227447
:105AF3001F12106E7F01020D2074F0120A6D74FDE7
:105B03001211028A088B09ECFEEDFF890B74131244
:105B13001333E0F50C750A01740112133374041284
:105B23005FAB6048E50C601DEA2417F582EB126158
