:040000000C948000DC
:1400E4009A99993F0000000000206C75784C696768743A2032
:0700F8002020202020200041
:14010000CFEFD1E2CDBFDEBFCE51D0400AEA08830024E7E1B7
:14011400F2E012E0E731F10711F00192FBCF0083E8EEF0E07C
:14012800A0E0B2E010E000E00BBFEF3FF10721F0C8953196BC
:14013C000D92F9CF0E94F701FFCF000008950E946D025801D9
:140150004427552703C0F7DF4F5F5F4F4A155B05D0F30C949D
:1401640072020027112702C00F5F1F4F0C3DE5E01E07D0F320
:1401780008950E946D0258014427552703C0EFDF4F5F5F4F98
:14018C004A155B05D0F30C94720284EA86BF26B627FEFDCF49
:1401A00081B1887F883011F001E01CC086E483B984E886BF45
:1401B40026B627FEFDCF81B1887F883111F001E00FC003B90B
:1401C80084E886BF26B627FEFDCF81B1887F883211F001E0D0
:1401DC0003C084E986BF0027089584EA86BF26B627FEFDCF56
:1401F00081B1887F883019F001E010E021C087E483B984E83C
:1402040086BF26B627FEFDCF81B1887F803419F001E010E00D
:1402180013C084E886BF84EC86BF26B627FEFDCF03B11127E0
:14022C0084E886BF26B627FEFDCF23B0102F022D84E986BF4D
:14024000089522978AB3806F8ABBA79AA69A08E21FD018D0A1
:1402540004E610E078DF08E219D00CE017D001E015D00AE00F
:1402680010E087DF89E092E0998388832227002756D00AE0AA
:14027C0010E07DDF22960895AF9A0AE010E05FDFAF98089588
:140290004A93402F00E110E058DFAE988BB38F708BBB842F8A
:1402A400807F2BB2282A2BBAEBDF842F8F708295482F8BB3EB
:1402B8008F708BBB842F807F2BB2282A2BBADEDF49910895F3
:1402CC004A93402F00E110E03ADFAE9A8BB38F708BBB842F6A
:1402E000807F2BB2282A2BBACDDF842F8F708295482F8BB3CD
:1402F4008F708BBB842F807F2BB2282A2BBAC0DF49910895D5
:140308000E947702A22E602FAA2019F4462F405802C0462F4C
:14031C004054042FB7DF0C947E020E948502C22EA02E4E819A
:140330005F812C2D0A2DE8DF05C0FA010081C6DF4F5F5F4F40
:14034400FA0120802220B9F70C948C02AA92CA92C22EA02E94
:140358002C2D0A2DD5DF0A81B5DFC990A99008954A935A9335
:14036C00A80120E137E28A010E943F02C801C0968093000218
:1403800020E137E28A010E943D02A80128EE33E00E943F022E
:14039400C801C0968093010228EE33E08A010E943D02A801E2
:1403A80024E630E00E943F02C801C0968093020224E630E0F4
:1403BC008A010E943D02A8012AE030E00E943F02C801C096FC
:1403D000809303022AE030E08A010E943D02A801CA01C096B1
:1403E4008093040259914991089526970AE010E0C2DE25DF50
:1403F80001E0CDDEA02E0AE010E0BBDE37C001E0C6DE00E1C7
:14040C00C4DEC02EAC2C222426BE04EB10E0AFDECC2051F5AC
:14042000E2DE58010E94C8020A831B832C833D832A803B8044
:140434004C805D8004EE10E00E9459023A932A931A930A9358
:14044800810192010E94F1020A831B832C833D830A811B8135
:14045C002C813D810E949C0281DF80E092E09983888322273F
:1404700007E059DFC8CF26960895689401C0E894EA92FA9228
:140484008A93EE24FF2480E1000F111FEE1CFF1CE216F3065C
:1404980018F0E21AF30A03958A95A1F716F40E2D1F2D899155
:1404AC00F990E9900895EA93FA930A92E02FF12FD895002D2E
:1404C0003196D895102D3196D895202D3196D895302D09900C
:1404D400F991E99108955A934A93BA92AA920895A990B99002
:1404E8004991599108957A936A935A934A93BA92AA920895A6
:1404FC00A990B990499159916991799108955A934A93DA92CF
:14051000CA92BA92AA920895A990B990C990D990499159914E
:14052400089500951095209530950F5F1F4F2F4F3F4F0895ED
:140538004A935A936A930E94A803F1F05523C2F04F31A8F474
:14054C004731C1F050F44195495E05C035952795179507951E
:140560004A95D1F70DC04751000F111F221F331F4A95D1F702
:1405740005C03FE7232F132F032F04C0662311F00E9493023D
:140588006991599149910895689401C0E8942227332746F0F2
:14059C0017FD209517FD309503C0689401C0E8944A935A93E3
:1405B0006A9347E1662755272EF033231AF40E94930260E808
:1405C4000E94BD036991599149910895FA93EA93EA81FB8175
:1405D80027D0E991F99122960895FA93EA93EC2FFD2F3296A6
:1405EC001DD0E991F99124960895FA93EA93EA81FB8114D0DE
:14060000E991F991398328831A930A930895FA93EA93EC2F6F
:14061400FD2F329607D0E991F9913B832A83198308830895D4
:140628004A925A926A927A928A929A92AA92BA92CA92DA9256
:14063C00EA92FA924A935A936A937A938A939A933A932A93FA
:140650001A930A9300811181228133810E94A80309F461C077
:14066400E62ED52EC42EB32EA22E912E802E0991199129915D
:1406780039910E94A80391F16E254C195D09403853070CF0A9
:14068C003EC041387FEF57070CF442C080E27724632E522E07
:1406A000412E302F2227112700276694579447943795279588
:1406B400000F111F221F331F441C551C661C771C28F0481802
:1406C80059086A087B0804C0480C591C6A1C7B1C0AF00160C3
:1406DC008A9551F70E94BD0399918991799169915991499135
:1406F000F990E990D990C990B990A99099908990799069906C
:140704005990499008950FEF102F2FE73FE7662339F30E94B2
:140718009302E4CF0027102F202F302FDFCF099119912991C5
:14072C003991EDCF0FD029F0662311F00E94930298940895B1
:14074000002329F4112319F4222309F433230895F7DF79F0B0
:14075400632F6078220F331F432F5FE7451B552750402695C5
:1407680030E8232B3327989408954427552766270895E2DF22
:14077C0021F19A938A938EE790E0332351F03695279517955E
:14079000079548175907C4F44F5F5F4FF4CF80959095019652
:1407A4002223AAF0000F111F221F481759071CF041505040F6
:1407B800F5CF002711272227332789919991089533270FEF2E
:1407CC00102F2FE7322F89919991B4DF39F041585F4F342FB9
:1407E000220F36952795362B0895AADF21F00F9300E83027D4
:1407F4000F910895F8DF3A932A931A930A9308958A929A9224
:14080800AA92BA92CA92DA92EA92FA924A935A936A937A93B0
:14081C008A939A930895999189917991699159914991F9904C
:10083000E990D990C990B990A9909990899008951C
:00000001FF
