:020000040000FA
:06000000020A8A0201CD94
:03002B000208C503
:030033000206E1E1
:0300430002077A37
:030053000200FEAA
:03006B000206C7C3
:100083000201620101FF01010503010F10FEFF1AC6
:10009300131A131A131A13D011CA111A13E12600D3
:1000A3000000004327000000000C0000000C0001CA
:1000B3000000E814000000000000A8150000000084
:1000C300000000000000FFFF0102006205000000C5
:1000D300D5056400020200080000050207051E02A0
:1000E300051E020A0A03B80B02803E0102F1FF1447
:1000F3001F00E00796511800020206C0E074F212D6
:1001030003E6A2AFE433FED2AFE5A7FFE5A1F5080E
:100113005F54106006121CE675A1EFE5085F5408F2
:100123006008121CEC75A1F7802BEFA2E0C0D0E5AC
:1001330008A2E092F01209C7158182F0501790616E
:1001430098E0F89008B2E0C398A2D265D033500289
:10015300E8F075A1FEEEA2E092AF7F01020445C074
:10016300E074F21203E6A2AFE433FED2AF9061A4CF
:10017300E0F8759B00E59158540860087591F712F3
:100183001D34802AE59158541060087591EF121DB3
:100193003A801BE8A2E0C0D0E591A2E092F01209F8
:1001A300C7158182F05007E0C2E0F0121E7E906115
:1001B300A3E0F8E5E9585404600E121E5475E9FBF8
:1001C300906193E0A2E640F2808BC0E074F21203E8
:1001D300E6A2AFE433FED2AF9061A5E0F8E5BF58E5
:1001E3005404600675BFFB121E96020158C3E498BF
:1001F300F8E499F91202318026C3E49AFAE49BFBEE
:10020300E920E7E9120231E498F8E499F922C3E41A
:1002130098F8E499F9120231E498F8E499F9C3E4FF
:100223009AFAE49BFB22EB20E7CFE920E7E0B90051
:1002330010BB0008E88AF084F8AAF022E4FBC8FAAD
:1002430022EB70227B10C833C8C933C9335007C3AC
:100253009AC3DBF280069A50012ADBEAC833F4C85A
:10026300C933F4C9FA2275F008E4C833C8C933C9DD
:1002730033C99AC99B5004C92AC93BD5F0ECFBC8C2
:1002830033F4C8E4C9FA22080808EAC0E0EBC0E086
:1002930086F0E7A4FA180986F0E7A42AFA18098673
:1002A300F0E7A42AFA180986F0E7A42AFA1986F0D7
:1002B300E7A4FBE5F02AFA190886F0E7A42BFBE58F
:1002C300F03AFA190886F0E7A42BFBE5F03AFA189E
:1002D300180986F0E7A4C5F02BFBE43AFA1908E7FE
:1002E300C5F0C6A426F6E5F03BFBE43AFA1886F01F
:1002F300E7A4F6E5F00826F6E43B08F6E43A08F648
:10030300D0E0FBD0E0FA22E4CFC0E0E4CEC0E0E4EA
:10031300CDC0E0E4CCC0E075F020C3E633F608E6D8
:1003230033F608E633F608E633F6181818EC33FC10
:10033300ED33FDEE33FEEF33FFC3EC9709ED970981
:10034300EE9709EF97191919400FFFEC97FC09ED88
:1003530097FD09EE97FE191906D5F0BEECF709EDE6
:10036300F709EEF709EFF7191919D0E0FCD0E0FD12
:10037300D0E0FED0E0FF222518C582C0E0E51934A5
:10038300FFC583C0E0E518C3958224F810AF088544
:1003930083198582188008858319858218D2AFCE88
:1003A300F0A3E520F0A37808E608F0A3DEFAEFF067
:1003B300A3E58124FAF8E608F0A3E608F0A3E6082B
:1003C300F0A30808E608F0A3E608F0A31581158159
:1003D300D0E0FED0E0F8158115811581E8C0E0EE8C
:1003E300C0E022C0D02518C582C0E0E51934FFC59E
:1003F30083C0E0E518C3958224F310AF0885831901
:100403008582188008858319858218D2AFC8F0A326
:10041300E9F0A3EAF0A3EBF0A37908E709F0A3D886
:10042300FAECF0A3EDF0A3EEF0A3EFF0A3D0E0F02D
:10043300A3D0E0F0A3D0E0F0A3E520F0A3E5F0F033
:10044300A322851983851882E0C0E0A3E0F9A3E025
:10045300FAA3E0FBA37808E0F608A3DFFAE0FCA325
:10046300E0FDA3E0FEA3E0FFA3E0C0E0A3E0C0E063
:10047300A3E0F5D0A3E0F520A3E0A3F5F010AF08C7
:100483008583198582188008858319858218D2AFE0
:10049300D082D083D0E0F8D0E032120AECB9000366
:1004A3000204DFE49003017879790C8002F0A3D889
:1004B300FCD9FA900E79AA82AB8390008678797979
:1004C300018015E493A3AC82AD838A828B83F0A36E
:1004D300AA82AB838C828D83D8E9D9E77582BA75FA
:1004E3008393740412083D7582427583217400124C
:1004F300083D0E000975F0108E1A8F1B85821F852B
:10050300831E851882851983E0CEA3E0CF851F82E1
:10051300851E83EBC9EAC8EDCBECCAC3E833C8E94F
:1005230033C9EA33CAEB33CBC3EA9EF51DEB9FF520
:100533001CB35004AB1CAA1DEC33CCED33CDD5F06A
:10054300DAAE1AAF1B22D083D082ECC0E0EDC0E05C
:10055300E493A3FCE493A3FDED4C600D120621ECA0
:1005630024FFFCED34FFFD80EFE493A3FCE493A3AD
:10057300FDED4C600D120725EC24FFFCED34FFFD6F
:1005830080EFD0E0FDD0E0FCE493A3C0E0E493C0AF
:10059300E022851983851882E0A3FEE0A3F5207885
:1005A30008E0A3F608DFFAE0A3FFE0A3C0E0E0A3BE
:1005B300C0E0E0A3C0E0E0A3C0E0E0A3C0E010AF70
:1005C300088582188583198008858218858319D246
:1005D300AFD083D082020843D083D082E9C0E0E465
:1005E30093A3C386F0C5F095F0F908E493A386F0CE
:1005F300C5F095F0700BE493A3C3994005E904801B
:1006030002A3E475F002A42582F582E5F03583F5B3
:1006130083D0E0F9E493A3C0E0E493C0E022C0E018
:10062300C3E49396087401939618400FE49366709D
:100633000808740193661870007019A3A3C3E493A8
:1006430096087401939618A3A3400DD0E0D0E0D090
:10065300E0020585A3A3A3A3A3A3D0E022D083D064
:1006630082C5F0E493A3C5F0C395F0F5F0E493A33A
:10067300C395F04005E5F0048001E475F002A4257C
:1006830082F582E5F03583F583E493A3C0E0E49338
:10069300C0E0227404800474028000CCC0E0EDC08A
:1006A300E0E518C39CCCAD1950011D10AF068C18A2
:1006B3008D1980068C188D19D2AF1207BFD0E0FDBB
:1006C300D0E0FC22C0E074F21203E6E589A2E15017
:1006D30003121B9C758900C2C57F01020445C0E05B
:1006E30074F21203E6E58BA2E05003121B9C758B98
:1006F30000C2E880E474028000CCC0E0EDC0E0E515
:1007030018C39CCCAD1950011D10AF068C188D1960
:1007130080068C188D19D2AF12079DD0E0FDD0E072
:10072300FC22C0E0C0F088F0E4936670080874010E
:100733009366187000A8F0A3A3700BD0F0D0E0D09C
:10074300E0D0E0020585A3A3D0F0D0E022D083D08F
:1007530082CCC0E0E493A3600612081E1470FAE48E
:1007630093A3600612090F1470FAD0E0FCE493A37C
:10077300C0E0E493C0E022C0E074F21203E6A2AF4B
:10078300E433FED2AFC2C0E5D1A2E45003121C5C35
:10079300EEA2E092AF7F01020445CAC0E0E493A356
:1007A300C582CCC582C583CDC583F0A3C582CCC524
:1007B30082C583CDC583DAE5D0E0CA22CAC0E0E0B2
:1007C300A3C582CCC582C583CDC583F0A3C582CC26
:1007D300C582C583CDC583DAE6D0E0CA2270090895
:1007E3000808226016181818C6C333C608C633C6CD
:1007F30008C633C608C633C6D5E0EA22C008C3E03C
:1008030096F50808A3E096420808A3E09642080874
:10081300A3E09645087001D3D00822C0E0E493A377
:10082300D39C5010E493A3C39C400AD0E0D0E0D003
:10083300E002076DA3A3A3D0E022C09FF59FE4735A
:10084300D09F22D083D082C09FE493C0E0740193F1
:10085300C0E0740293F59F227404800A7403800637
:10086300740280027401C0E0F404120876D0E0122E
:100873000AC7222518F58210AF08F518400215198A
:100883008008F51840021519D2AF85198322BB01E0
:1008930002E722C082C08389828A83BB0003E0808F
:1008A30002E493D083D08222C0D0251810AF08F57C
:1008B30018500205198008F51850020519D2AFD057
:1008C300D022C0E0C0D0E8C0E0E5A8D2AFC2C7A242
:1008D300E792AFD0E0F8D0D0D0E032601608080835
:1008E300C6C313C618C613C618C613C618C613C67E
:1008F300D5E0EA22C3E0C696F608A3E0C696F6085A
:10090300A3E0C696F608A3E0C696F622C0E0E493F9
:10091300A36C7009D0E0D0E0D0E002076DA3A3D0B0
:10092300E022251810AF08F518400215198008F5C4
:100933001840021519D2AF22E76670100809E7665E
:10094300700A0809E76670040809E76622E0667022
:100953001008A3E066700A08A3E066700408A3E029
:100963006622C3E09608A3E09608A3E09608A3E0F6
:1009730096A2D265D03322C3E096F008A3E096F0A6
:1009830008A3E096F008A3E096F022E026F008A37F
:10099300E036F008A3E036F008A3E036F022E627BD
:1009A300F60809E637F60809E637F60809E637F6E2
:1009B30022E026F608A3E036F608A3E036F608A3FD
:1009C300E036F622C0E0E8C0E0E58124FCF8E6A2C8
:1009D300E7D0E0F8D0E022E647F60809E647F60854
:1009E30009E647F60809E647F622E657F60809E658
:1009F30057F60809E657F60809E657F622E056F6D1
:100A030008A3E056F608A3E056F608A3E056F6223C
:100A1300E056F008A3E056F008A3E056F008A3E080
:100A230056F022700422600D18C6C333C608C633BD
:100A3300C6D5E0F41822E4C396F608E496F608E473
:100A430096F608E496F622600D08C6A2E713C618C8
:100A5300C613C6D5E0F322C6F4C608C6F4C608C654
:100A6300F4C608C6F4C622C3E7960809E796080940
:100A7300E7960809E79622C3E09608A3E09608A341
:100A8300E09608A3E0962275D000758140751801A1
:100A93007519030002049DE0F608A3E0F608A3E03D
:100AA300F608A3E0F622600C08C6C313C618C613E3
:100AB300C6D5E0F422E6F008A3E6F008A3E6F008C2
:100AC300A3E6F022CAC0E0E6F0A308DAFAD0E0FA1F
:100AD30022E0FAA3E0FBA3E0FCA3E0FD22EAF0A3FB
:100AE300EBF0A3ECF0A3EDF022E5C754F84401F5D5
:100AF300C77901222518F582E43519F58322C2AF9F
:100B030075D69F020000221208460CE40212084622
:100B1300AFE402120846F6E50212084614E6021292
:100B23000846612A00120846732A00120846C52A9D
:100B330000120846262B00120846B02B0012084666
:100B4300542C00120846A82C00120846C12C00128F
:100B53000846E72C00120846222D00120846662D8F
:100B6300001208468D2D00120846DE2D001208469D
:100B73008E2E00120846462F001208460E30001231
:100B83000846CE30001208461231001208463731AB
:100B9300001208467A3100120846C731001208468F
:100BA3001F3300120846A53300120846C333001250
:100BB3000846ED330012084607340012084616347F
:100BC30000120846213400120846E1340012084698
:100BD3003A3500120846FC35001208460436001266
:100BE3000846C836001208463437001208465F38F4
:100BF30000120846843800120846FA3800120846E4
:100C03008C3900120846E43900120846A43A00124F
:100C13000846C33A00120846D23B00120846E43B9A
:100C230000120846533C00120846A83D001208462D
:100C3300DA3D001208466D3E00120846A63E001239
:100C43000846F23E001208460E400012084657427C
:100C5300001208466242001208466D42001208461E
:100C63007842001208468242001208468D42001262
:100C73000846A74200120846B14200120846BB428A
:100C830000120846C64200120846EE420012084609
:100C930049430012084653430012084677430012A3
:100CA30008469B4300120846F943001208463D4498
:100CB30000120846594400120846D0440012084660
:100CC300084500120846544500120846B145001273
:100CD30008466B46001208464F4800120846A848CB
:100CE30000120846D84900120846FE490012084679
:100CF300874B00120846034F00120846D5500012D6
:100D030008469E52001208464B5300120846B6543A
:100D1300001208465555001208469A550012084617
:100D23000456001208461356001208469A58001239
:100D330008464C5A00120846B95A00120846985BF6
:100D430000120846B15C001208462E5E00120846E7
:100D53004D5E00120846A25E00120846A75F00120D
:100D63000846CF5F00120846276000120846066156
:100D7300001208464A6100120846956100120846AF
:100D8300006200120846416300120846A563001280
:100D93000846F36400120846536700120846846746
:100DA300001208463C690012084691690012084681
:100DB300956A00120846326B001208468B6B0012CC
:100DC30008463E6C00120846E06C00120846806D2F
:100DD30000120846256E00120846E48101120846F7
:100DE3002382011208466A8401120846B484011260
:100DF3000846CF85011208463786011208466C86DD
:100E030001120846E08701120846638A0112084668
:100E13008C8B01120846228C011208462A95011276
:100E23000846BF9501120846A698011208469999EB
:100E330001120846079A011208464D9B0112084603
:100E43002F9C01120846149E0112084625A0011288
:100E530008468FA00112084661A1011208468FA11E
:100E6300011208464CA20112084623A301120846A8
:100E7300EAA3011208468EA401120846B7A4011280
:100E83000846D9A4011208462FA70112084607A84D
:100E9300011208464BA801120846B3A801120846DE
:100EA3006BA9011208469DA901120846E1A9011286
:100EB300084617AA0112084663AA01120846B8AAEF
:100EC30001120846BDAA0112084610AB01120846DA
:100ED30035AB0112084644AC01120846A8AC011216
:100EE300084618AD01120846A4AD0112084671B0B8
:100EF3000112084655B101120846D8B2011208463C
:100F03000EB501120846BCB5011208466CB60112B3
:100F13000846ADB80112084650B90112084697B900
:100F23000112084643BB0112084657BB011208468B
:100F330061BB0112084689BB0112084695BB011229
:100F43000846B4BB01120846D4BD0112084623BFAC
:100F53000112084667BF011208460FC00112084676
:100F6300F2C0011208469DC101120846E9C20112EE
:100F73000846E7C3011208468DC4011208461DC581
:100F83000112084634C5011208466BC50112084612
:100F930075C50112084680C5011208469EC5011297
:100FA3000846E2C5011208463FC60112084664C658
:100FB300011208467EC6011208460AC701120846F6
:100FC30027C80112084694C8011208467BC90112BA
:100FD3000846A2C90112084616CA0112084691CA58
:100FE3000112084695CB011208468BCC0112084624
:100FF3003ACD011208464DCE01120846E9CE011240
:10100300084676CF0112084654D0011208468CD008
:1010130001120846E4D001120846ADD10112084678
:10102300CED10112084655D20112084679D20112D7
:1010330008469BD201120846E4D201120846FAD4AC
:1010430001120846E1D50112084692D6011208465C
:10105300C8D80112084618D90112084658D90112F6
:1010630008469AD901120846F6D90112084624DA2D
:101073000112084648DA011208469BDA01120846B3
:10108300C9DA0112084602DB0112084657DB0112D6
:101093000846BDDB0112084611DD0112084634DFA4
:1010A30001120846A1DF01120846CADF01120846F1
:1010B30055E001120846BCE00112084607E101129F
:1010C30008462BE1011208464FE101120846AAE146
:1010D30001120846C5E1011208467EE201120846E4
:1010E30066A904120846A5A90412084678800212CC
:1010F3000846BE80021208469E8102120846A0825C
:1011030002120846A383021208462F8502120846DC
:101113008D85021208464A86021208466887021223
:101123000846D987021208461588021208466388C2
:10113300021208466D8802120846B1880212084658
:101143000D8902120846A88902120846258A02124E
:101153000846F48A021208468D8B02120846AD8BAC
:1011630002120846E38B02120846148C0212084648
:10117300D58C02120846E58C02120846398D0212FC
:101183000846548D02120846668D021208466F8D7A
:1011930002120846C98D02120846258E021208461D
:1011A300718E021208468C8E02120846BD8E021200
:1011B3000846DA8E02120846E68E021208465A9054
:1011C30002120846739002120846DA900212084689
:1011D300ED9002120846FB9002120846AF910212EC
:1011E30008469392021208469993021208462394E2
:1011F300021208462D94021208469A9402120846D7
:10120300B19402120846E394021208461C95021296
:101213000846469502120846A79502120846C79546
:1012230002120846E595021208462B96021208465A
:101233005197021208469E9702120846CD97021252
:1012430008464398021208466B9802120846A4986F
:1012530002120846B298021208460A990212084678
:10126300599902120846989902120846C89902121F
:101273000846F49902120846FF99021208461D9A7D
:1012830002120846DF9A02120846E99A0212084639
:10129300249B021208463A9B021208468F9B0212B5
:1012A3000846A39B02120846B19C02120846C49C3E
:1012B30002120846D99C021208467B9D0212084678
:1012C300FE9D02120846BC9E02120846C79E0212E9
:1012D3000846F39F021208460FA00212084661A0B7
:1012E30002120846A0A002120846B5A00212084640
:1012F30017A102120846A6A102120846F1A1021282
:10130300084642A402120846C0A40212084635A5A4
:101313000212084657A7021208466FA70212084690
:1013230072A7021208467EA70212084692A702126B
:1013330008469AA702120846CDA7021208467DA8BE
:1013430002120846F3A80212084666A902120846CA
:101353001AAA02120846CFAA02120846EEAA0212DD
:1013630008468EAB021208469AAB02120846C5AB7A
:1013730002120846C8AB0212084632AC02120846F3
:101383005AAD0212084632AE02120846BDAE021230
:101393000846D6AF0212084693B002120846CCB0F4
:1013A30002120846FDB002120846BBB102120846FB
:1013B300EBB102120846C6B2021208465FB302122C
:1013C3000846EAB3021208469BB4021208461EB549
:1013D3000212084650B50212084691B50212084699
:1013E300B9B5031208461EB6031208465BB60312CC
:1013F3000846AAB603120846C0B803120846A3BAA1
:10140300031208460DBE0312084648BE03120846DF
:101413006ABE03120846CDBE0312084601BF03127B
:10142300084624BF0312084651BF03120846ADBF46
:1014330003120846A39F0312084621A0031208467D
:1014430057A003120846C3A00312084636A203128C
:10145300084652A20312084697A20312084625A380
:10146300031208467EA303120846ABA403120846E0
:10147300BDA5031208461AA60312084686A6031240
:101483000846E7A60312084628A703120846D5A76D
:1014930003120846E7A80312084612A903120846D6
:1014A3005DA903120846A4A90312084636AA03122B
:1014B3000846F1AA03120846E49E04120846F59E64
:1014C30004120846469F041208468B9F04120846DE
:1014D30035A0041208461AA6041208463D9D0412BC
:1014E3000846959E0412084668AB031208460DACE5
:1014F300031208462DAC031208464DAC03120846EE
:1015030061AC03120846B9AC03120846E9AC0312F6
:1015130008466AAE0312084610AF03120846F2AF3C
:101523000312084643B00312084686B00312084666
:10153300C9B0031208462FB10312084650B1031273
:101543000846DCB1031208460DB20312084681B205
:10155300031208462FB40312084609B503120846BE
:101563004BB503120846A5B503120846B4990412F5
:10157300084671DA021208460B9B04120846359B93
:1015830004120846CE9504120846549604120846DF
:101593005E96041208467F9604120846AB9704121F
:1015A3000846669303120846699303120846239478
:1015B300031208464E9403120846959403120846F4
:1015C300BA9403120846DB9403120846BFE20212E0
:1015D3000846489503120846719603120846A896D2
:1015E30003120846C8960312084663970312084677
:1015F3002898031208465F9803120846D4990312E9
:101603000846779A03120846709B03120846999B73
:1016130003120846ED9B03120846B39C03120846C7
:10162300E19C03120846769E03120846F79E0312B6
:1016330008462A9F03120846F9BF0312084603C04F
:10164300031208464FC003120846BDC003120846E2
:10165300DEC003120846F5C003120846A5C10312F3
:10166300084639C40312084642C40312084695C407
:1016730003120846BEC40312084625C503120846D2
:10168300B6C503120846F8C50312084642C603123C
:101693000846A1C603120846CDC6031208465EC714
:1016A300031208469DC703120846DCC70312084607
:1016B30011C80312084623C80312084635C803128B
:1016C300084654C8031208465DC80312084613C9E6
:1016D3000312084653C903120846AEEF0312084625
:1016E30081F0031208469BF003120846ACF0031284
:1016F3000846C1F203120846E0F203120846889135
:1017030004120846BE9104120846079204120846C2
:101713005793041208463BE6021208467AE7021280
:101723000846B6E70212084675E9021208469EE922
:101733000212084631EC0212084675EC0212084602
:10174300FEED0212084696EE02120846FEEE021263
:1017530008469FEF02120846E1EF0212084621F005
:1017630002120846ACF1021208461CF302120846A4
:1017730041F5021208466FF50212084696F5021269
:1017830008469FF502120846FAF5021208468DF63E
:1017930002120846ABF9021208462CFA0212084656
:1017A300A0AA04120846B6AA04120846C9A804123D
:1017B30008460A87041208461D8704120846BA879A
:1017C30004120846F58704120846108804120846D6
:1017D3003588041208467A8804120846AB88041236
:1017E3000846DC8804120846628A04120846ADA142
:1017F30004120846E3A104120846FFA10412084696
:1018030041A20412084651A204120846E6A2041299
:101813000846F0A20412084639F40312084602F5FA
:1018230003120846B2F503120846D2F6031208461D
:10183300C5F7031208465AF803120846716E0012E0
:101843000846C96E00120846B26F001208464B7074
:1018530000120846957000120846F27000120846FE
:101863004B71001208465F71001208469171001215
:1018730008468F7200120846F372001208460E7370
:10188300001208465D73001208467373001208467F
:10189300807300120846B47300120846CD73001219
:1018A30008465E74001208466D7400120846F5740B
:1018B300001208464F75001208469D75001208462F
:1018C300BF75001208463678001208466B7800127E
:1018D3000846FB78001208467079001208467579AD
:1018E30000120846B17900120846077A001208462A
:1018F300CB7A00120846F07A00120846FA7A0012F0
:101903000846FD7A00120846867B00120846A17B32
:1019130000120846B47B00120846E07B001208461A
:101923001B7C001208461E7C00120846297C00120C
:101933000846657C00120846787C001208469F7CA6
:101943000012084619A90412084631A904120846D0
:10195300B8D20312084607D303120846A9D40312C8
:10196300084667D603120846AFD603120846D1D7F6
:101973000312084602D90312084624D90312084663
:1019830080D90312084602DA03120846B8E20112AC
:101993000846D9E20112084663E301120846E8E368
:1019A3000112084664E401120846CDE40112084618
:1019B30019E50112084698E5011208462AE60112C4
:1019C3000846B6E601120846F8E60112084664EB3B
:1019D30001120846E4EC0112084623ED0112084601
:1019E3000AEE011208460DEE01120846C1EE01127D
:1019F3000846F6EF01120846E1F10112084661F4C8
:101A0300011208461AF50112084637F60112084674
:101A13008EF9011208469EF901120846FFFA0112D7
:101A230008468BFB01120846BFFC01120846B0FDB5
:101A33000112084632FE01120846008003120846CE
:101A4300BA80031208462C81031208463B81031215
:101A53000846B581031208462482031208462B83E5
:101A630003120846548303120846F48303120846FC
:101A7300428403120846B284031208466B8703129A
:101A83000846428803120846AF88031208462C8A88
:101A930003120846E08A031208468E8B0312084697
:101AA300E98B03120846548C03120846548D031223
:101AB30008462E8F03120846419003120846DA9017
:101AC300031208464C910312084612920312084669
:101AD30061FC03120846B5FC031208460DFD031210
:101AE300084658FD03120846BAFD0312084626FEAF
:101AF30003120846D9FE031208461AFF03120846CA
:101B030030FF031208468CFF03120846CAFF031274
:101B13000846328F04120846638F041208461D904C
:101B230004120846839004120846F49004120846EF
:101B33004294041208460DA7041208461EA7041275
:101B43000846BEA704120846859B04120846939BC9
:101B530004120846DEAA04120846697F00120846EA
:101B6300797F00120846947F00120846F57F001221
:101B7300084618A5041208469DA50412084601A6A6
:101B83000412084606A40412084628A404120846B0
:101B930092A4041208469DA404120846E1A4041268
:101BA300084636DA0312084644DA0312084685DA91
:101BB30003120846A6DA0312084623DB031208467B
:101BC30023DC0312084645DC03120846B1DC03128A
:101BD3000846CCDC03120846E7DC03120846F1DCB6
:101BE30003120846FBDC031208460EDD0312084607
:101BF30027DD03120846C3DD031208467FDE031206
:101C03000846F6DE0312084670DF03120846D6DFE5
:101C1300031208460080041208460E800412084688
:101C23008880041208466C81041208462583041236
:101C330008467EAA0412084689FA02120846F6FAF2
:101C430002120846B7FB0212084627FC0212084696
:101C530030FD02120846A8FE021208460CFF0212CB
:101C6300084661FF021208466AFF0212084679FF1E
:101C7300021208468CFF02120846A2FF021208460F
:101C8300ABFF021208463DE60312084692E6031232
:101C930008468EE803120846C0E803120846E2E845
:101CA30003120846FBE80312084614E90312084628
:101CB3001EEA03120846B9EA031208464CA00412AE
:101CC300084670A00412084689A004120846BCA066
:101CD30004120846EDA0041208461BA1041208468C
:101CE3007DA1041208468CA10412084696A1041291
:101CF3000846A3A104120846D97C00120846FF7CBB
:101D0300001208463C7D001208464B7D001208462F
:101D13006A7D00120846D27D00120846DB7D001260
:101D230008463A7E001208465E7E001208461D7F72
:101D3300001208462A7F001208463B7F001208461D
:101D4300BEFF02120846DBFF0212084630EB031205
:101D530008468EEC031208469BEC03120846AEECD1
:101D630003120846CDEC03120846E3EC03120846BF
:101D7300F7EC031208466CED03120846D1ED03128B
:101D8300084681EE0312084656EF0312084666EF33
:101D93000312084675EF03120846DFA7041208462C
:101DA30003A8041208462BA80412084653A80412D9
:101DB30008466F8A04120846968A04120846B78AB0
:101DC300041208461C8B04120846D58C04120846DC
:101DD300EE8C04120846FA8C041208460E8D041287
:101DE30008462C8D04120846368D04120846408D91
:101DF30004120846538D04120846A68D04120846A1
:101E0300DF8D041208460E8E041208465C8E0412FF
:101E13000846AB8E04120846C68E04120846D08EBE
:101E230004120846E18E04120846278F041208465E
:101E330078A8041208467CC903120846A6C90312EF
:101E43000846C2C903120846D5C903120846EBC99E
:101E53000312084648CA031208467BCA03120846FF
:101E6300B7CE03120846DDCF0312084610D0031283
:101E730008465CD00312084688D103120846B0D145
:101E830003120846C5D103120846D5D103120846EA
:101E930019D2031208467AD2031208468AD20312D1
:101EA3000846CAFE01120846E5FE011208460EFF67
:101EB3000112084628FF011208464DFF0112084689
:101EC3006CFF0112084684FF01120846B2FF01129B
:101ED3000846CCFF01120846AFA9041208468A83BC
:101EE300041208469183041208469D84041208468E
:101EF300CD8404120846F38404120846168504129E
:101F03000846388504120846728504120846D885A7
:101F1300041208461186041208465D860412084618
:101F23008A8604120846AA8604120846CC9704122D
:101F33000846E49704120846D29804120846B19959
:101F430004120846F3A20412084665A304120846C5
:101F5300A3A304120846E4A30412084686F8031256
:101F63000846A5F803120846F4F80312084610F9C8
:101F73000312084641F90312084651F903120846B1
:101F83005EF9031208466BF90312084657FA031267
:101F9300084695FA031208469FFA03120846AFFB58
:101FA30003120846BAFB03120846CCFB0312084689
:101FB300D5FB03120846DFFB0312084680E1031238
:101FC3000846C5E503120846D3E50312084629AAC5
:101FD30004120846F3A90412084656AA0412084636
:101FE300C0AA04120846D3D7021208469CD602128E
:101FF3000846F0D50212084636D402120846E6D146
:10200300021208466DD10212084614D10212084684
:10201300A4D0021208467BD0021208465BCE0212FD
:10202300084627CE02120846F4CD02120846D8CD40
:1020330002120846F1CC02120846A9CC0212084645
:10204300F4CA0212084674CA0212084671CA02127E
:1020530008466EC9021208463CC90212084679C8EE
:1020630002120846A4C6021208466AE00212084693
:1020730088DF021208466CDF021208460CDF0212E8
:102083000846C4DE0212084635C60212084607C6D1
:102093000212084604C602120846F1C50212084697
:1020A30012DE021208469CC5021208468BC50212B4
:1020B30008467DC40212084647C40212084684DD5E
:1020C300021208460F9503120846F5C3021208468A
:1020D30096C30212084665C3021208462DC00212B7
:1020E3000846EDBF02120846E1BF0212084641BF8F
:1020F3000212084681BE0212084603BC02120846B9
:1021030094B90212084652B90212084626B80212BE
:102113000846DBB7021208461AB702120846EDB6A4
:102123000212084630B602120846C6B50212084625
:1021330000B60212084677DD02120846D59904005C
:10214300000080FBE47300000000000000000000BA
:1021530000000000000010101010101000003030BC
:1021630000000014285000000000000000000000E0
:102173000000002828FC284850FC505000000000B4
:1021830010385454301814545438100000000044CC
:10219300A8A8B0541A2A2A44000000000020505076
:1021A30060ACA898927C000000606020C000000032
:1021B30000000000000000040808101010101010A8
:1021C3000808040000004020100804081020400004
:1021D30000000000001010D63838D61010000000A0
:1021E300000000101010FE1010100000000000008E
:1021F3000000000000000000606020C0000000003C
:102203000000FC00000000000000000000000000CF
:1022130000000000606000000002040404080810CD
:1022230010202020400000000030488484848484EF
:102233004830000000000010701010101010107CC7
:10224300000000000038444404081020447C0000CF
:1022530000000038444418040444443800000000DB
:10226300080818284848887C081C00000000007CE7
:10227300404078440444443800000000003C44805B
:10228300B8C48484847800000000007C44480810AB
:1022930010101010000000000078848448788484B3
:1022A30084780000000000788484848C740488F0AF
:1022B300000000000000003030000000303000005B
:1022C30000000000000010000000001010200000BB
:1022D3000408102040201008040000000000000043
:1022E30000FC0000FC00000000000000402010087B
:1022F3000408102040000000000078848484081043
:1023030010003030000000000038449AAAAAAAB492
:10231300423C00000000001010282828384444EEF6
:102323000000000000F844447844444444F80000AA
:102333000000003C4484808080804438000000001A
:1023430000F048444444444448F00000000000FCCA
:1023530044404878484044FC0000000000FC4240F0
:102363004878484040E000000000003C44848080FE
:102373008E8444380000000000EE4444447C44440E
:1023830044EE00000000007C101010101010107CB0
:1023930000000000007C101010101010101090E0CE
:1023A300000000EE44485070484844EE000000002E
:1023B30000E040404040404044FC0000000000EE8C
:1023C3006C6C6C54545454D60000000000EE6464EA
:1023D3005454544C4CE4000000000030488484847E
:1023E300848448300000000000F8444444784040AE
:1023F30040E00000000000304884848484B44838FE
:102403000C00000000F844447850484844E60000BB
:102413000000003C444020180404447800000000FD
:1024230000FE92101010101010380000000000EE93
:1024330044444444444444380000000000EE44440F
:102443002828282810100000000000D654545454A3
:102453006C2828280000000000EE442828102828B3
:1024630044EE0000000000EE44282810101010383D
:1024730000000000007C88081020204044FC00007D
:10248300001C101010101010101010101C00007001
:102493001010101010101010101070000070101099
:1024A3001010101010101010700000102800000001
:1024B3000000000000000000000000000000000019
:1024C3000000000000FE00606020C000000000006B
:1024D3000000000000000000000038441C24443EBB
:1024E3000000000000C040407844444444780000A9
:1024F3000000000000003C4440404438000000005D
:10250300000C04043C444444443E0000000000002A
:10251300000038447C40443800000000001C2420A4
:10252300F8202020207800000000000000003C4834
:10253300483040784438000000C040405864444468
:1025430044EE000000000010000070101010107C1A
:102553000000000000080000380808080808087098
:10256300000000C040405C48507048EC0000000090
:102573000070101010101010107C000000000000FC
:102583000000F854545454D600000000000000002A
:10259300D864444444EE00000000000000003844C6
:1025A300444444380000000000000000F844444460
:1025B300447840E00000000000003C444444443CB4
:1025C300040E000000000000EC30202020F8000082
:1025D3000000000000003C44300844780000000084
:1025E300000010107C101010100C00000000000000
:1025F3000000CC444444443E0000000000000000BE
:10260300EE44282828100000000000000000D654E3
:10261300545428280000000000000000DC4830303B
:1026230048EC0000000000000000EE4428281010D1
:1026330020E00000000000007C481010247C000013
:1026430010101010101010101010101010100001A6
:1026530036360101000102010001030100010401FA
:10266300060605020000070100340801000F0904F3
:1026730001010D0100FF0E080000170200001901FF
:1026830000FF1A0100011B0100FE1C0100081D02CE
:1026930000001F01000120010001210200002301AD
:1026A300000F240200002601000127010008280270
:1026B30000FF2A0100072B0102402C0100002D011D
:1026C30000012E0100012F0100FF30010B1C310816
:1026D30000003A0100083B01000F2F010000030036
:1026E30071003001600011007000310220035004BA
:1026F300800010006100000014006300730072008A
:102703006200430000001300060000000000040004
:102713001200000000000000000004000400370065
:1027230037003C0244000000000000000000650088
:102733000000350081000000050000008300000058
:1027430001037103010301030103010301032203D5
:10275300020301031003000300030003000300034B
:1027630000030003420300032403060300030003E2
:102773000403120325032303250323030403040390
:1027830000030003000344030003000323030003C7
:1027930065032100350381030003050300030003E0
:1027A3000003010171010101010111010101310165
:1027B300010101018001100161013B00140063016B
:1027C30073017201620143010001130106013D011E
:1027D30035000401120100010001000100010401A0
:1027E3000401330133013C0144013201360000018D
:1027F300000165010001350081010001050182012D
:1028030083010001030271023001600211027002B0
:102813000102020202028002100261023A00410038
:10282300630273027202620243020002130238005F
:10283300000200020402120200020002000200026F
:1028430004020402370037003C024402000239004C
:102853000002000265020002350281020002050245
:10286300820283020002030471040204600411045F
:10287300700402040204010402041004610400044D
:102883001404630473047204620443040004130411
:1028930006040004000404041204000400040004F9
:1028A3000004510464000004000400044404000410
:1028B300000400040004650400043504810464007A
:1028C3000504000483040004360001000600000030
:1028D3000F0000000000000000000000000003FFE4
:1028E300FF00000403FFFF0000FFFF0FF4010005DA
:1028F300C4040320000100030B00000000000000DB
:102903000003010F0000761A1300F2190100761A72
:102913000200AA190300B0190400B6190500BC1976
:102923000600C8191100E6191400EC191500DA198C
:10293300FFFF000001220E06520E084C0E0B5E0E26
:10294300109E0D02280E05400E072E0E0C040E0DD0
:10295300160EFF000003EAF5E5D5D5C5B5A5959597
:102963008585757565655555454535352525151594
:10297300052A125A123012361254124812421260A9
:102983001266126C1278123C1224121E1200160FD9
:1029930000000B150B020002220F320000061A136F
:1029A3002C133213F4113813EE11FA112E112811CE
:1029B30064116A115E1116117A1398139E13801312
:1029C3008C13861300011916181616152303000C11
:1029D3000E020B040B0A0708000F00034948424D7F
:1029E300181725050200383C3E363B3B352B432C5C
:1029F300303017181921301B1D1F303030161819AD
:102A030020231A1C1E306E133E13441350134A1313
:102A13004E12721292137E128412020402010101F9
:102A23000109023A11401134117011000000000035
:102A3300004611581100BE040A150004007F00E887
:102A4300030C002800000000000308100C0A030810
:102A53000900040001FF1E1E0C05040F1008C082AC
:102A6300C0838A828B83E0D2E7F01218FC023C30E9
:102A7300C082C0837900122F2D125DFDC082C083F6
:102A8300900334124B83D083D082C3E09CA3E09D98
:102A9300500C1264D1FAA3E0122AA4600109023C8B
:102AA30030FBEA75F00BA4FAA8F075F00BEBA42841
:102AB300FB900336E02AF8A3E03B8882F583E054D9
:102AC3000F2274F712037A8908122F2D122FD3AC19
:102AD300F075F00BE9A42CF9900336E028FEA3E08F
:102AE30039FF7401650860067402650870208A82E4
:102AF3008B83122FBF123E5F74026508701B122E68
:102B03007E12300670138E828F83E4F0800BEA24EA
:102B130003FCEB122FA1122FADEEFAEFFB120B22E7
:102B2300023DBC74F412037A126DF879008E828F21
:102B330083E06076890A890B8065E50A75F00BA44A
:102B4300FAA8F075F00BE50B122AB17046E50A7589
:102B5300F00BA4F8AAF075F00BE50B122FE58E82AB
:102B63008F83E08508828509831230C785088285B3
:102B73000983A3123E5FEE2403FCEF122FAA123C3B
:102B83003D125877AA08AB09120B2279019003343E
:102B930012528CE50A2401F50AE50B3400F50B12F9
:102BA3002E86E50A9AE50B9B409002400974F512C4
:102BB300037AEAFEEBFF740B120AF7123C42750A22
:102BC30001EC4D602BEC126E14ED125DFD123E57BD
:102BD3007901120B2EE5084509606F850882850986
:102BE30083A3126E027902AA08AB09120B2E805A34
:102BF300E5084509602B125E011244CB123C3E12DC
:102C03002FF0700CEEFAEFFB120B34E9F50A80CBD0
:102C1300EE2403FA122F2870317903EEFAEFFB80CA
:102C2300CA8E828F83A3E064FE7003A3E0F4700B6B
:102C3300EE24030A0A0A122F28700CEEFAEFFB1295
:102C43000B34E9F50A8003750A00A90A7F0302051C
:102C53009574F712037A900334123DCCEA4B602F3C
:102C6300EA75F00BA4FAA8F075F00BEBA428FBEAC5
:102C7300FEEBFF12170A900336123DCC9003361277
:102C830050D16012EEFCEFFD790012164A800790D6
:102C93000336E4F0A3F0023DBC90033412483BC377
:102CA300EE98EF9922C082C083EC4D6005121F5647
:102CB30080097C087D00790012164A023C3074F6C4
:102CC30012037A7900EA4B6018780088081261448D
:102CD300EB1264CD60047901780808E8C3940840D6
:102CE300EA023E6874F712037A74F3120925ECFEC4
:102CF300EDFF851882851983E4F004120AF7EAF0E0
:102D0300A3EB1255FD7403120AF7AC82AD83EEFAFE
:102D1300EFFB120B46EEFAEFFB120B4C023DB774BE
:102D2300F712037A74F3120925ECFEEDFF8518827E
:102D3300851983E4F0EAFCEBFD7403120AF7123001
:102D4300C07401120AF7123E538E828F83123E5FC4
:102D530074FE68700374FF6960047901800279006E
:102D6300023DB774F712037AEAFEEBFF122DC4702B
:102D730014122DCF8E828F83E0F4F88A828B83E046
:102D830058F0120B22A908023DBC74F712037AEA29
:102D9300FEEBFF7508008E828F83E06022122DC444
:102DA300701D122DCF8A828B83E08F838E82F8E091
:102DB30058700CE0F88A828B83E048F0120B228073
:102DC300C4120B28E9F5087401650822126E0D126E
:102DD3002FD7122F19FAA3E039FB2274F412037AC6
:102DE3008A088B097C007D00122E7E122FAD122FD4
:102DF3003E126DFF7900850882850983A3E064FE96
:102E03007003A3E0F460717E007F008062EEFAEF4E
:102E1300122AA46057EEFAEFFBEA75F00BA4FAA8A6
:102E2300F075F00BEBA428FB900336E02AF50AA318
:102E3300E03BF50B850882850983A312554B850A70
:102E430082850B83A3E06A7003A3E06B701EE50A1F
:102E53002403FAE50B122F29700AE50A2403FCE583
:102E63000B122FAA122F327901125E1312381D1280
:102E73002E86EE9AEF9B4095024009EA24030A0A44
:102E83000AEB229003341259EAC32274F312037A31
:102E93008A088B098A828B83A3126E02122F2D124A
:102EA3006DFF750C00122E7E122F2970547E007F49
:102EB300008049122F0BFAA3E0398A82F583E0548C
:102EC3000F6036122F0BF50AA3E039F50BE50A2440
:102ED30003FCE50B122FB43400FB121F50E964010D
:102EE3007017850A82850B83A3125AABA3123E5F28
:102EF300122F32750C01125E1312381D122C9C40D6
:102F0300B2A90C7F05020595EEF8EFF9E875F00B11
:102F1300A4F8122F1922AAF075F00BE9A42AF9904C
:102F23000336E02822EF12300022126E13EB221236
:102F33002F3E125E0EEEF0A3EFF022E508126E14A0
:102F4300E5092274F512037AEAFEEBFF8E828F8382
:102F5300A3126E027C007D00EE24030A0A0AEF121C
:102F63002FADEEFAEFFB120B28E9F50A7401650A9F
:102F73007029126E0D122FD3AAF075F00BE9122FE0
:102F8300E5850882F583122FBF122FF0700DE50837
:102F93002403FCE509122FA1122FAD022C4D34009E
:102FA300FDEE2403FAEF22122FB43400FB120B467A
:102FB300223400FDE5082403FAE50922A3122FC4F5
:102FC30022122FC822E0F8A3E0F98E828F83A32276
:102FD300122FD7223400F58312483FE875F00BA473
:102FE300F822122F1FF508A3E039F50922E8F0A310
:102FF300E9F0E5082403FAE509123000221230064D
:103003006401223400FB120B4CE92274F312037A9D
:1030130074E6120925126DF8750C0175080075091F
:1030230000750A00750B00851882851983E4F0EE9C
:103033002403FCEF3400FD7403120AF71230C0E9D5
:1030430064017023740B120AF7123E577401120ABB
:10305300F712554F7003A3E06960518518828519F3
:1030630083858208858309740D120AF7E41230C739
:10307300740E120AF7123E5F740D120AF7AA82AB9E
:1030830083120B6AE96401700B740D120AF78582CF
:103093000A85830B780A120863AC08AD09EEFAEFD0
:1030A300FB120B3A74021208ABE9F50CEEFAEFFBD4
:1030B300120B64A90C741A1208AB022F0612339375
:1030C300120B7022123DC712483B22C082C0837884
:1030D30000790080031231BE122E86E89AE99B50D4
:1030E30029E8FAE9FBEA75F00BA4FAACF075F00BEA
:1030F300EBA42CFB900336E02AFCA3E03B8C82F587
:1031030083E0540F70CF790080027901023C30C014
:1031130082C083902A3C124891EC75F012A4FCA85B
:10312300F075F012EDA428FD79FF7A217B091216C0
:103133004A023C3074F712037AE9FEEAFF7A007B15
:1031430000780079008028E8FCE9FDEC75F012A412
:10315300FC85F00875F012EDA425081235D3C39E43
:10316300400AE0FCEFC39C40031236F21231BE1258
:1031730035C740D3023DBCC082C08378007900804C
:10318300031231BE1231B2501F1235D7F470F2E878
:1031930075F012A4F8AAF075F012E9A42AF97421C3
:1031A30028FA740939FB80047A007B00023C3090D2
:1031B3002A3C123688C3E89AE99B22E8240108E9ED
:1031C3003400F92274F012037A74F31209258A0A7F
:1031D3008B0B8C0C8D0D8908EC450D6016AA0CAB7E
:1031E3000D120BBE8A0E8B0FAE0EAF0FEE4F6003A8
:1031F300023285120B948A0E8B0FA80EA90FE8FEDC
:10320300E9FFE849607C902A4A1232E7602274039E
:10321300650860067404650870167A047903120B56
:103223008E902A4A1232FE40077A007B000232E473
:10323300902A481232E7601B740165086006740225
:103243006508700F7A027901120B8E902A481232A8
:10325300FE50D68518828519837401F0120AF7127D
:103263005877AC0CAD0D7403120AF712338C740B40
:10327300120AF7123C4A12423FE412585F12106ED0
:103283008004EE4F604A780074FF2508C39404500D
:103293000278048E828F831258778E828F83A3A342
:1032A300A3A3E508F0E88E828F83A3A3A3A3A312AD
:1032B300587F12022912369F8E828F83A3A3A3A362
:1032C300A3A3A3F0123696120AD4125DF7120AE0F2
:1032D3001232EC4005900E7DE4F0120F48EEFAEF47
:1032E300FB02484512599949227A047900120B8E40
:1032F300902A3C1264B3EA98EB9922123317758330
:103303002A75823CE493C398F8A3E49399F9C3EA3A
:1033130098EB9922E493F8740193F92274F212035F
:103323007A74F31209258A088B09ECFEEDFF750AFE
:1033330000EEFAEFFB120BBE8A0C8B0DA80CA90D45
:10334300E849603E88828983E065087004A3E065EC
:1033530009602F88828983A3A3A3A3E0C3940550A4
:1033630021125CA58518828519837401F0120AF76E
:10337300125CA9EEFCEFFD7403120AF712338C758D
:103383000A01A90A740D025343123393120B7C22D0
:10339300AA82AB83120B46851882851983AA82AB56
:1033A300832274F612037A1233E1600FA3A3A3A35B
:1033B300E014C394045004790180027900023E684A
:1033C30074F612037A1233E1600FA3A3A3A3E014EC
:1033D300C394025004790180027900023E68120B03
:1033E300B88A828B83E58245832274F612037A12AC
:1033F30033E1600BA3A3A3A3E070047901800279F6
:1034030000023E68C082C083EAFCEBFD7A007B00C9
:10341300023C2DC082C0837C007D00023C2D74F4ED
:1034230012037A74F3120925EAFEEBFF8C0A8D0B63
:10343300C3EC94F8ED94FF4007EE4F70030234DAC7
:10344300750800750900802E85188285198374011B
:10345300F0123845120AF712385360137403120A34
:10346300F7AC82AD83EEFAEFFB121F50E97049E52A
:10347300082401123673902A3CE41259A1E50898F6
:10348300E509995052E50875F012A4F8AAF075F011
:1034930012E509A42AF91264E660D4EE4F70A97408
:1034A300FF650A700474FF650B60C4123835650A42
:1034B3007004A3E0650B70B7E50875F012A4F50876
:1034C300A8F075F012E509A428F50974212508FA76
:1034D30074093509FB80047A007B0002400474F40C
:1034E30012037A74F3120925750800120BBE8A0AB7
:1034F3008B0BAE0AAF0BEE4F602A851882851983BA
:103503007401123DC1F8A3E0F9740B120AF7123EDD
:10351300E2120B5E7C127D0079FFEEFAEFFB1216CE
:103523004A7508011232EC5009900E7D7401F012B5
:103533000F48A90802400474F712037AE9FE74FEE7
:103543006A700374FF6B7800790070058052123142
:10355300BE1235C7504AE8FCE9FDEC75F012A4FC35
:10356300AFF075F012EDA42F1235D3F460E0E8FC50
:10357300E9FDEC75F012A4FC75F012EDA42FFD74B7
:10358300212CF58274093DF583E06A7003A3E06B97
:1035930070BC80091235D714C3940440171231BE8E
:1035A3001231B25018EE70EC1235D764016005E0A9
:1035B300640370E9123826FAA3E0FB80047AFE7BE9
:1035C300FF023DBC902A3C124895C3E89CE99D222A
:1035D30012372722E8FAE9FBEA75F012A4FAACF0F5
:1035E30075F012EBA42CFB74252AF58274093BF5C4
:1035F30083E022120BD0023C30C082C08379018069
:10360300F274F012037A8A0A8B0B7A047901120B93
:103613008E8A0C8B0DEA450D603EEAC333FAEB3319
:10362300FB12170A8A088B09AE08AF09EE4F602315
:103633007AFE7BFF120BD674FE6A700374FF6B6015
:103643001B850882850983123DCCE50824021236C6
:103653007380E1750C0080047E007F00850A8285FB
:103663000B83E50CF0EEFAEFFB02484AE50824076A
:10367300F508E5093400F50922902A3C124895C360
:10368300EA9CEB9D22E493FA740193FB2212163E0B
:10369300740322125E08E4F090818C22E88E828FFC
:1036A30083A3A3A3A3A3A3A3A31236C174011236B6
:1036B300C1A3F0EE2410125E0BE4F0A3F022124239
:1036C3004BA3A3A322C082C0837A007B008004198A
:1036D3001236F212367C5010123711C3940550F093
:1036E300E970EC1236FB80047A007B00023C30EA7E
:1036F30024010AEB3400FB22EA75F012A4FA75F0F8
:1037030012EBA428FB74212AFA74093BFB22EAFC7E
:10371300EBFDEC75F012A4FCA8F075F012EDA428F3
:1037230012372722FD74252CF58274093DF583E0B9
:103733002274F712037A74F31209257E007F0002C4
:1037430037D9E50875F017A4F8A9F0126747FAA36B
:10375300E0FBEEF8EFF9E875F012A4F8ACF075F0C1
:1037630012E9A42C1238346A7003A3E06B603FE5BE
:103773000875F017A4F8AAF0EA126746F8A3E0F96F
:103783007401120AF7E0687003A3E0696020E5089A
:1037930075F017A4F8EAF9749D28FC740A39FD74CE
:1037A30003120AF7AA82AB83121F50E96014E508DB
:1037B30075F017A4F8A9F0749B28FA740A39FB1260
:1037C300107A0508902A4EE493F8E508C39850034D
:1037D30002374512381D902A3C126A8D5039EEF893
:1037E300EFF9123826F47003A3E0F460E68518823B
:1037F3008519837401F0EEF8EFF9E875F012A4F877
:1038030075F012E9A42AF9123845120AF71238534F
:1038130060C175080080AD023DB7EE24010EEF34A0
:1038230000FF22E875F012A4F8AAF075F012E9A4DB
:103833002AF912383922742128F582740939F5835B
:10384300E022742328F582740939124839740B2253
:10385300E8F0A3E9123EEA120B76E922C082C083A4
:1038630090033D743AF0A3740EF090033F7434F068
:10387300A3740EF09003437454F0A3740CF0023C51
:103883003074F712037AEAFEEBFF900377E06408E3
:10389300601BE0640460168E828F83E0540364012E
:1038A3007048123C3D124340E06406703D8E828FA7
:1038B30083A3A3E064FE7003A3E0F4602D8E828FE4
:1038C30083A3A3123E53900368E0687003A3E069E7
:1038D300700BEE2415F582EF1264CD6008120EE82A
:1038E300E9F5088008120EEE80F67508C2EEFAEFCD
:1038F300FB121710022D8874F412037A8A088B09BD
:103903008A828B83E0F8A3E0FAE82AFAE43400FB26
:1039130012170A8A0A8B0BAE0AAF0BEE4F60638550
:103923000882850983E0FC7D00790012164A8E82A5
:103933008F83A3A3126E02120F2A8E828F83A3A3F7
:10394300A3A3123DCC850882850983E0F8EE28F80D
:10395300EF3400123E5B850882850983A3E0C0E053
:10396300EE240D125DFAD0E0F0120F3CEE240E129D
:103973005DFAE91254ACE0C0E0EE2411125DFAD016
:10398300E0F0EEFAEFFB02400974F412037A74EBF1
:103993001209258A088B098C0A8D0BE9FE9003779F
:1039A300E064046005E06408700479C2802EA378A3
:1039B30008120AB8EE90037E123C37120AB8740557
:1039C300120AF7E9F07404120AF77401F07407128B
:1039D3000AF7E4F09003777402123BCB74150240AC
:1039E3000674F612037A74EB120925EAFEEBFF1252
:1039F30050CE6003023A887A077B0012170A9003BD
:103A030039123DCC1250CE60788E828F83120AD445
:103A130090033A124343120AE0126CC6C0E0123A12
:103A230094D0E0F0EE2405FAEF3400FB8A088B090A
:103A33008A82F583E0C0E0123A8FD0E0124000E0C2
:103A4300C0E0123A8FA3D0E0123E40120AD4851888
:103A530082851983120AE088828983E0C0E07405B5
:103A6300120AF7D0E0F0850882850983E0C0E0748C
:103A730004120AF7D0E0F07407120AF7123BCA8067
:103A8300067910800279017415023E65123A94A3F7
:103A930022900339E0FAA3E0F5838A82A3A3A3A3C8
:103AA30022C082C0831250CE600D9003391259D8C0
:103AB300900339E4F0A3F0120E5812101A023C30AE
:103AC30074F012037A74EB120925ECFEEDFF8908FA
:103AD3007425120AF7780C120A9A7429120AF7E06D
:103AE300F9742A120AF7E0FC742B120AF7E0FD744A
:103AF3000F697005740F6C6012900ED8E064027049
:103B03000579C1023BC5E9C39C40F6900378780C64
:103B1300120AB8E50890037EF0E990037CF0ECA369
:103B2300F0ED90037FF074FF6A700374FF6B701DF8
:103B3300900EE3E0F47003A3E0F4700512166280C4
:103B43000C900EE3123D94E8F0A3E980079003750F
:103B5300EAF0A3EBF0EE4F6017EEFAEFFB1210DA88
:103B6300E96401700BEEFCEFFD7A897B03121F56AB
:103B7300900368E4F0A3F090036BF0A3F090038844
:103B8300F0900ED8E06402700890037C740FF0A3E9
:103B9300F09003777405F014120AF7E4F0900378B9
:103BA300120AD4851882851983120AE090037EE0F5
:103BB300C0E07405120AF7D0E0F07407120AF71296
:103BC3003BCA7415024847E4123EEA121F8622C01C
:103BD30082C083900338E070031219E0120C1E8038
:103BE3004CC082C083900338E0900E7C7004E4F0F4
:103BF300802D7401F0900338E0F460237C41E0C32E
:103C030094415002E0FCECF8E0C398F0EC75F0E866
:103C1300A4CCA8F075F003A428FD7A8012489D7AFD
:103C23007C7B0E7941121F6E8003120BC4D083D0AC
:103C330082020843123E4B780822EE125E0922E00C
:103C4300F508A3E0F50922123C4E22122FC8A32245
:103C530074F512037A74E212092585188285198393
:103C6300ECF0A3EDF0EAFEEBFF89087429120AF7E2
:103C7300E0F509742C120AF7E0F50A900377E06483
:103C8300046005E06408700579C2023D85742A1258
:103C93000AF7E064FE7003A3E0F4700579C3023D04
:103CA300859003777403123EE67950121F6E742ACF
:103CB300120AF7AA82AB83794B121F6E851882858D
:103CC3001983123D94123E5FE50890036AF0742A4B
:103CD300120AF7123D8D123E5FE509900362123D11
:103CE3009B74CE55094480C0E07412120AF7D0E0E9
:103CF300F07401250A900388F0740F120AF7740216
:103D0300F0742A120AF7123E537407120AF7E8F006
:103D1300A3E9123DD27410120AF7123E5F74051222
:103D23000AF7E508F0741B120AF7E4F090037D74B8
:103D33000FF07A7D7B037954121F6E90037C740F0E
:103D4300F07A7C7B037947121F6E90037CE0C39467
:103D53000F50237405120AF7E0C0E07402120AF749
:103D6300D0E0F07404120AF77401F004120AF7AAFF
:103D730082AB83121F927405120AF7AA82AB8312D5
:103D83001F74741E1208AB022C4F12483B90036B36
:103D93002212483B90037522F0EEFCEFFD7A897BFB
:103DA30003121F562274F712037AEB90037FF0126B
:103DB3000E468005740D1208AB7F01020595123D76
:103DC300C7A3E022123E40A322EAF0A3EBF02212A3
:103DD3003E46F8A3E0F92274F712037A74F8120945
:103DE30025EAFEEBFF7900900377E06408704485D1
:103DF300188285198374FDF0A374FFF0120F2474E5
:103E030002120AF7123DCC7405120AF7E4123DC7F9
:103E1300E0C0E07404120AF7D0E0123E3BC0E07445
:103E230006120AF7D0E0F07407120AF7E4123EE62E
:103E3300120F667408023DB9123E40E022F08E82F2
:103E43008F8322123E4BE022F0851882851983224C
:103E530012483B22E0F8A3E0F9125E08E8F0A3E978
:103E6300F0221208AB7F02020595C082C083900343
:103E73004974E4F0A3740CF09003EF74C0F0A374DE
:103E83000FF090034D741AF0A3740DF090034F7468
:103E9300E4F0A3740CF09003517420F0A3740DF0BC
:103EA300023C3074F412037A74F91209258A088BE0
:103EB300098C0A8D0B8518828519837808120AB834
:103EC3007404120AF7E9F07405120AF7E4F07406B1
:103ED300120AF7E4123EE6120C067407024006E8E3
:103EE300F0A3E9123EEA22123E4BAA82AB8322746C
:103EF300F412037A8A088B098A828B83125E16EE88
:103F03004F7003023FFE9003121250D160158A8254
:103F13008B83A3A3E0F9EEFAEFFB90031312434361
:103F23001221478E828F83A3A3A3A3A3A3A3A3A337
:103F3300E0640270748E828F83A3A3A3A3A3A3E080
:103F430054027003023FD0850882850983A3A3E04E
:103F530064E960798E828F83A3A3A3A3A3A3A3A3FE
:103F6300A3A3E07014900EDBE0048E828F83A3A3DF
:103F7300A3A3A3A3A3A3A3A3F08E828F83A3A3A32B
:103F8300A3A3A3A3A3A3A3E014124000A3A3A37416
:103F930004F0900EDC125851E8F0A3E912692A8B61
:103FA3000BEA450B70031263088E828F83A3A3A3CE
:103FB300A3A3A3A3A3A3E0640260128E828F83A3AF
:103FC300A3A3A3A3A3A3A3A3E06406702E8E828F4F
:103FD30083A3A3A3A3A3A3E0A2E0501F8508828524
:103FE3000983A3A3E0F9EEFAEFFB1220288E828F58
:103FF30083A3A3A3A3A3A3E054FEF0800912424723
:1040030022740D1208AB7F0402059574EC12037A37
:1040130074DD120925EAFEEBFF8C088D0974371253
:104023000AF7780C120A9A750A007405120AF7AC9B
:1040330082AD8312206A7412120AF7E070087415B5
:10404300120AF7E060207405120AF7E0A2E6501E98
:104053008E828F83A3A3A3A3A3A3A3A3A312554BCE
:10406300120F9CE960087903121F3E02422D74056A
:10407300120AF7E0540C64047005750B0180037594
:104083000B00E0A2E55035750A01E50BA2E0402CD8
:10409300120F2A8A108B11A810A911123C3DE06857
:1040A3007003A3E06960157405120AF7126E091212
:1040B3005547122034E96004790480AC7405120A70
:1040C300F7E0A2E650227406120AF7E054037018D0
:1040D3007405120AF7E0540C640C600CE0540C6491
:1040E30008600575100180037510007405120AF746
:1040F300E05403F8740268700C126E0912554712EB
:104103000B1002422D740168703AE510A2E05003CF
:104113001242357405120AF7A882A9837403120A9E
:10412300F7E8F0A3E912482F851882851983124214
:104133003FE0C0E07402120AF7D0E0123EE612211B
:104143001802422DE8600302422D90035FE06401F0
:1041530070108E828F83A3A3A3A3A3A3E070030293
:1041630040BB7422120AF7740212482F741A120AFF
:10417300F7123E5FE510A2E050087405120AF71229
:104183004235E50BA2E0506AEE240FF582EF12648C
:10419300CDC0E07417120AF7D0E0F0900314125068
:1041A300D1700302422D120F2A8A128B13A812A96F
:1041B30013741A120AF7E0687003A3E069706B784E
:1041C3000C12085B780A1208677808120863A910B2
:1041D300740C120AF7AC82AD837421120AF7AA8217
:1041E300AB8390031412434012214774071208ABA8
:1041F3008038780C12085B780A120867780812086E
:104203006390037512069AEE2412F582EF1261FB96
:104213007423120AF7AC82AD83740E120AF7AA82D2
:10422300AB8312201C74091208AB74231208AB026F
:1042330068F5126E091259E61215CC22E8F0A3E9CB
:104243001242472212424B22F08E828F83A3A3A3F2
:10425300A3A3A32274F712037A1218B4023DBC7409
:10426300F712037A1218BA023DBC74F712037A12DA
:1042730018C6023DBCC082C0831218C0023C307411
:10428300F712037A1218CC023DBC74F712037A7446
:1042930009120AF7E0F50878081208671218D874AB
:1042A30001023DB9C082C0831218E4023C30C082CF
:1042B300C0831218EA023C3074F712037A1218F022
:1042C300023DBC74F712037AEAFEEBFF890874011E
:1042D300650870147900120D5C902A59E493FC79F7
:1042E30000EEFAEFFB120CD2023DBC74F412037A17
:1042F30074F9120925E9FE8A088B098C0A8D0B745F
:1043030013120AF712554B9005951250D16027EE00
:10431300851882851983F07401120AF77808120A46
:10432300B8EAF8EBF97405120AF7123EE290059524
:10433300124340122147023EDDFB90034BE0F8A3FA
:10434300E0F583888222C082C083121926023C30A2
:1043530074F712037A900E7FE0F97E00800B1264EB
:10436300B9540D64017001190E12454D5003E970E3
:10437300ED023DBC74F712037A900E80E0F97E00E3
:10438300800B1264B9548D64817001190E12454D6E
:104393005003E970ED023DBC74F212037A890BE914
:1043A30075F006A4240CF508E5F01236778A0CE5BF
:1043B30008250CFAE5093400FB12170A8A0C8B0D49
:1043C300AE0CAF0DEE4F6027AC08AD0979001216A5
:1043D3004A123C3DE50BF0EE2508F8EF3509F98E5E
:1043E300828F83A3A3A3A3A3A3A3A3A3123E5FEEDE
:1043F300FAEFFB02534674F612037AEAFEEBFF125E
:104403000CAE900E7EE0F8E9C39840099003451284
:10441300554B120CB4EE2402F8EF125B5B9003478A
:10442300125A15900347E004F0EEFAEFFB120CBAB0
:10443300850882850983E0026011C082C083790008
:1044430090034580010912554B8A828B83E582458F
:104453008370F2023C3074F712037AEAFEEBFFEE4C
:104463004F60569003451250D1604E888289837AFB
:10447300007B00EE65827003EF6583600FAA82AB59
:10448300831244BFE5824583602F80E79003451282
:1044930044CB687002EF698E828F837008123E539B
:1044A3009003458003126907123E5FEEFAEFFB1299
:1044B30020E8EEFAEFFB121710023DBC1244C322B0
:1044C30012483F888289832212483BEE22C082C071
:1044D300839003458004888289831250D1600B88BE
:1044E300828983124B83EC4D70EC8A828B83E4F0D8
:1044F300A3F0E8496006888289838003900345120C
:104503003DCC023C3074F712037A90034580048A51
:10451300828B831245484B60257E0080010E124535
:104523004D50ECEE75F006A4FCADF0EA2CFCEB3D2F
:10453300FDEC2410F582ED12459D70E180047A00B4
:104543007B00023DBC1259EAEA221245A6EEC3984B
:104553002274F712037A7D0080010D1245A2EDC388
:10456300985034ED75F006A4FEA8F0E8FFEA2EFE9D
:10457300EB3FFFEE2410F582EF12459D70DCED75E5
:10458300F006A4FEE8FFEA2EFAEB3FFBEA2411F55E
:1045930082EB1264CD4CF0023DBC1264D969221245
:1045A30045A622126E13EB3400F583E0F82274F66D
:1045B30012037A120DD47A007B008025EAF8EBF916
:1045C300E875F006A4F8ACF075F006E9A42C1259CE
:1045D300BF126CD4A3E4125AB5F0A3126CDA126EB4
:1045E30051902A441232F640D37A007B00801C8A11
:1045F300088B0974037808120A26125473A374FEF5
:10460300F0A304125895A3E4126E51902A4D12465A
:104613005040DC7A007B00801D8A088B0974037884
:1046230008120A2674C3126145740D12698C74FE54
:10463300F0A304126E51902A5312465040DB902A85
:1046430057E493900353F012465A023E68E493F8FA
:10465300C3EA98EB9400227CE87D037A107B0090F8
:1046630003C2E0F91217D02274F012037A74F51220
:1046730009258A088B09890A8C0BE9A2E050147575
:1046830008FC7509FFA2E15005D2E402472DD2E3ED
:1046930002472D1253327003A3E0697005790002BB
:1046A30047FAAC0A7902AA08AB09120DB0E960ED2A
:1046B300E50AF50C780C12086779027CFE7DFFAAE7
:1046C30008AB091250AD1208ABE960030247F8E5E5
:1046D3000AC2E5F50A9003B5E07051E50AA2E64087
:1046E3004B7403120AF7AC82AD83AA08AB09120B11
:1046F30052E970321249CE8A0C8B0DA80CA90DE831
:10470300FEE9FFE8496025EE24020A0AEF123006AB
:10471300601AEE2402FCEF3400FD7403120AF7AAB8
:1047230082AB83121F56E50AD2E5F50A900348E0EF
:10473300F50C900368E0F50EA3E0F50F780E120870
:10474300637D017C00900348E0F9AA0EAB0F120DC4
:104753006874021208ABE9F8900348E004F0E860DB
:10476300030247F8E50AA2E55004740E80027406BA
:10477300C0E07401120AF7D0E0125E278A0E8B0F95
:10478300AE0EAF0FEE4F606912481812482F8882A1
:1047930089837401F07478550AA3126E19E50C121B
:1047A3006E19A3E508F0E509124807E4F0E50AA24B
:1047B300E5500F7403120AF7AC82AD83E8240612A6
:1047C30047FE8E828F83A3A374FDF0A374FFF0E5ED
:1047D3000B6015902A5AE493F8E50BC3985009EE41
:1047E3002413125DFAE50BF0EEFAEFFB120BF480E3
:1047F300067910800279C7740B8049FAE93400FB0B
:10480300121F562288828983A3A3A3A312481322CB
:10481300125B8EA322EE2417125E0B7401F0120FAB
:1048230024EE241A125E0BEAF0A3EB22F0126E0DB3
:10483300340012483922F58312483F22E0F8A3E0FE
:10484300F922740D1208AB7F0802059574F6120362
:104853007A7A007B1012631560089003D47401F018
:104863008029900636E06401900ED97006E0FC7949
:10487300018004E0FC79037A007B00120CD2902AB9
:10488300421248917A007B1012489F023E681248F8
:104893009522E493FC740193FD227B009003C2E014
:1048A300F91217CA2274EC12037A8A088B098C0C4A
:1048B3008D0D890E7414120AF712528C7416120A93
:1048C300F7E0F510A3E0F511120F9CE960077AFFFA
:1048D3007BFF0249CB900ED8E0640260030249BE1D
:1048E3007900AA08AB09120DB6A90E120DAA8A12F5
:1048F3008B13AE12AF13EE4F70030249A68E828F55
:1049030083A3A3A3A3A3E064018E828F83A3A370D5
:104913006912554B8E828F83A3A3A3A3A3A3E05451
:10492300186043902A58E4938E828F83A3A3A3A392
:10493300F0EA650C7003EB650D6014EA650A700319
:10494300EB650B600AEA65107003EB6511701F7865
:1049530010120863AC0AAD0BAA0CAB0D12109874BD
:10496300021208AB80089003671262FFA3F074FE83
:104973006A700374FF6B601D804EA3A3A3E06403FE
:1049830060298E828F83A3A3A3A3A3E0640470058D
:104993007AFE0248D38E828F83A3A3A3A3A3E064EA
:1049A3000270089003B4E0640270101249CE8B0BBE
:1049B300EA450B6006AA08AB09800DAA08AB09906B
:1049C30003491243401221470268F59003751250C0
:1049D300B312105C2274F712037AEAFEEBFF120B98
:1049E300A6E9700AEEFAEFFB120BB2E96006EEFAE3
:1049F300EFFB80047AFE7BFF023DBC74F012037A66
:104A03008A0A8B0B8C0E8D0F8909750800120F9C77
:104A1300E979006003024B75AA0AAB0B120DB6A924
:104A230009120DAA8A0C8B0DAE0CAF0DEE4F601957
:104A33008E828F83A3A3A3A3A3E064027055900384
:104A4300B4E064027003024B73AA0AAB0B90034FEA
:104A5300124340122147120BB88A0C8B0DA80CA9E4
:104A63000DE8497003024B7388828983A3A3A3A330
:104A7300A3E0A2E04003024B73750C01A2E150686E
:104A83007901AC0AAD0BAA0EAB0F120D02E97064EB
:104A9300024B738E828F83A3A3A3A3A3E06403704B
:104AA30005750C0280528E828F83A3A3A3A3A3E078
:104AB30064016003024B73900375124B838E828FE4
:104AC30083124ED88A0C8B0DA80CA90DE84960D12E
:104AD300902A51E493FA88828983E0C39A50C2A34F
:104AE300E06003024B7380B988828983A3A3A3A3E5
:104AF300A3D2E1F0EE4F603A8E828F83A3A3A3A3E8
:104B0300A3A3E05418602B7508018E828F83A3A39F
:104B130012069A750CFE750DFF780C120863790066
:104B2300AC0AAD0BAA0EAB0F120DC874041208AB7E
:104B3300803E900368E0650E7004A3E0650F701477
:104B4300902A59E493FCA909AA0AAB0B120CD2755B
:104B53000801801CA90CAC0AAD0BAA0EAB0F120DF9
:104B630002E9700C750801A909AA0AAB0B120D5CC6
:104B7300A90802484AE50C2415F582E50D125E0EDC
:104B830012586B2274EA12037A74F01209258A0C04
:104B93008B0D8C088D097426120AF7E0F514A3E037
:104BA300F5157512069003F51250D1602390037525
:104BB300124B83AA08AB091210868A108B11EA459F
:104BC30011600D8A828B83A3E070057900024EC0C9
:104BD300E50C241DF50EE50D3400F50F850E82124C
:104BE30050BDF51388828983A3A3A3E0FA88828941
:104BF30083A3A3A3A3E0F9EA2400FEE439FFAA08F0
:104C0300AB09120D62850E82850F83124EFBE029DC
:104C1300F50BE50AA2E5500375120E7487550A7069
:104C2300177418550A6418600FE50C2417F582E50C
:104C33000D1264CD651260077901121F3E808C53FB
:104C43000A78C3EE94F8EF94FF501D7900EEFAEF63
:104C5300FB124ECA601288828983A3A3A3A3A3A3D2
:104C6300E054186003024BCE78081208637D0012EB
:104C73004EEE1208ABE9F87403687003024BCEE8FA
:104C83006003024D397418550A7003024DEEE50AAC
:104C9300D2E0F50AA2E45004D2E1F50AA90A1255BA
:104CA30044124ECA605388828983A3A3A3A3A3A3F8
:104CB300E05418604488828983A3A3A3A3A3E06478
:104CC300017036E51045116030900375124B8388EF
:104CD300828983124ED88A0E8B0FA80EA90FE8493A
:104CE300601788828983A3E0600F85108285118312
:104CF300A312601C5003024BCEE50AF50E780E1288
:104D03000867124EE11208ABE9702B7C007D008529
:104D1300148285158374FFF0A3F0850C82850D83BF
:104D2300A3A3A3A3A3A3A3A3E06003124B78A90B9C
:104D33001255441218DE851482851583E0F470033E
:104D4300A3E0F460399003B4E064027003024BCE35
:104D530012527DE0FAA3E012433C122147EA6508B0
:104D63007003EB65096003024BCEEEFAEF12433C8E
:104D7300122147851482851583EAF0A3EBF07808A6
:104D83001208637D01124EEE1208ABA90AEEFAEF88
:104D9300FB120DB68A088B09A808A909900368E0DD
:104DA300687003A3E0696003024EB1EEFAEFFB12F1
:104DB3000BB88A088B09A808A909E849606E88829C
:104DC3008983A3A3A3A3E06401600D88828983A3DD
:104DD300A3A3A3E064027054851882851983AC826F
:104DE300AD83EEFAEFFB120B528055900361E06046
:104DF3000FE50AF50E780E120867124EE11208ABA2
:104E0300E50AF50E780E12086779027CFE7DFFEE47
:104E1300FAEFFB1250AD1208ABE96003024D39857E
:104E2300148285158374FFF0A3024D80120F24EAC8
:104E3300FCEBFD851882851983AA82AB83121F566A
:104E4300850C82850D83A3A3A3A3A3A3A3A3E064DB
:104E530001700F124B787408120AF7AA82AB8312FF
:104E63001F56125087125C934430F50878081208D5
:104E7300677401120AF78582088583097808120886
:104E830063740B120AF78582088583097808120870
:104E930063E513F50878081208677900EEFCEFFD67
:104EA300125544120CFC74061208AB024BCE12507E
:104EB30087125DFD124EFBE50BF0120F3C741012CE
:104EC30008AB7F0E020595120DAA8A0E8B0FA80E52
:104ED300A90FE84922A3A31259EA121086227901E5
:104EE300AC08AD091259DF1250AD22AC0BA9131255
:104EF30059DF120D68740222125C9BA3A3A3A322A1
:104F030074F012037A74F01209258A0C8B0DECFAF3
:104F1300EDFB750F089003F51250D1601412601564
:104F23008A828B83E58245836007A3E07003025086
:104F33008212508734001250BDF50B888289831288
:104F43005090E0FBEC2400FEE43BFF88828983A3BE
:104F5300A3125090A3A3E0FBECF508E43BF509880A
:104F6300828983A3A3A3A3A3A3A3E0F50EE50AA2C7
:104F7300E45003750F10A2E550067408250FF50FD2
:104F8300748F550A700FE50C2417F582E50D126432
:104F9300CD650F60087901121F3E025082530A70DB
:104FA3007800E50AA2E450221250871264CD240847
:104FB300FCA3E03400FD7408120AF7AA82AB831243
:104FC3001F567808E50AC2E4F50AE50AA2E5502867
:104FD3001250871264CD28F8A3E03400F9E82408BE
:104FE300FCE93400FD851882851983AA82AB8312FC
:104FF3001F56E50AC2E5F50AAC0EA90BEEFAEFFB64
:10500300120D6EE9F87403686075900368E06E70C2
:1050130003A3E06F605EE87054E50AF50F780F12A2
:10502300086712509E1208ABE97054780A12086799
:105033007401120AF785820C85830D780C120863BC
:10504300740B120AF785820C85830D780C120863A2
:10505300E50BF50A780A120867A90EAC08AD09EE4C
:10506300FAEFFB120CFC74061208AB80127404688E
:10507300700D80B7780A12086712509E1208AB743D
:1050830010024847E50C241DF582E50D22A3A3A3D6
:10509300E0FC88828983A3A3A3A32279011252840B
:1050A300125E0E1250B31250AD22120D267401225D
:1050B300E0FCA3E0FDAA08AB0922F5831244C3A3D5
:1050C300E0F50A88828983A3A3E022900339125A68
:1050D300462274E812037A74F5120925EAFEEBFFFF
:1050E3008C088D0989147423120AF7E0F50F7424D0
:1050F300120AF7E0F512A3E0F5137426120AF7E09B
:10510300F516A3E0F5177428120AF7E0F50EA90FB8
:10511300120D748A108B117401120AF77408F0E5EA
:105123000EA2E450037410F0E50EA2E55004E0244F
:1051330008F0851882851983AA82AB83120F848AAB
:105143000C8B0DEA450D7003025264EA2417F582B5
:10515300EB125276120F24E50C241AF582E50D1298
:105163005DFD123DCC7403120AF7AC82AD83AA1025
:10517300AB11120B52E9601D12526E7403120AF73F
:10518300A882A983E50C2418F582E50D125DFDE8DC
:10519300F0A3E98024E50EA2E4501FE5106E70032E
:1051A300E5116F701512526EE50C2418F582E50DAA
:1051B300125DFDE512F0A3E513F012527D12528C3D
:1051C300850A82F5837402F0A3E50E125294E50F6B
:1051D300F0EE850A82850B83A3A3A3F0EF850A82F1
:1051E300850B83A3A3A3A3125294A3A3A3E508F05F
:1051F300E509850A82850B83A3A3A3A3A3A3F0AA2E
:1052030010AB11120D62E92514850A82850B83A365
:10521300A3A3A3A3A3A3F0750800E50EA2E4501172
:10522300AC12AD13E50A2408FAE50B124800750821
:1052330008E50EA2E55014AC16AD17E50A2508F8EB
:10524300E50B3400F9E824081247FE850C82850D2E
:1052530083A3A3E510F0A3E511F0AA0CAB0D120B89
:10526300F4740B1208AB7F10020595E50C2416F5B8
:1052730082E50D125E0E7401F022125284125E0E4C
:1052830022E50C126E14E50D22E0F50AA3E0F50BFE
:1052930022F0850A82850B83A3A32274F212037A78
:1052A3008A088B09ECFEEDFF890A790012533270EC
:1052B30003A3E069700479018073750B019003689F
:1052C300E065087004A3E06509601F750B00780BA7
:1052D300120867A90AEEFCEFFDAA08AB09120FD862
:1052E30074011208ABE9F50B80417900EEFAEFFB8C
:1052F300120DAAEA4B602B8A828B83A3A3A3A3A3D9
:10530300A3E05418601C7508FE7509FF780812089D
:10531300638A828B83A3A312069A126C291208ABA9
:1053230080097901EEFAEFFB120C84A90B801412A9
:105333000DB68A0C8B0DA80CA90D900368E06822AA
:105343001208AB7F0602059574F412037A75080BF5
:1053530075090C7A101269318B0BEA450B70031235
:10536300465A900353E014F0700C902A57E493903C
:105373000353F0120DC27E007F00806C8508828586
:105383000983A3A3A3A3E06059F46056E5082404AA
:10539300F582E5091262F97049850882850983A3BC
:1053A300A3A3A3A3E0640370197902850882850986
:1053B30083124B83850882850983A3A312554B125D
:1053C3000D02850882850983A3A3A3A3A3E0640137
:1053D300601085088285098374FEF0A3041254A526
:1053E300E4F012381D12366F902A46126A8D408CF3
:1053F3007E007F008039120ECA8E088F09740378ED
:1054030008120A2674832508FC740D3509FD7A0EEB
:105413007B0D120EB8EA4B70DD8E088F097403788A
:1054230008120A26125473126CD4E4F012381D9039
:105433002A4DE493F8C3EE98EF9400501B8E088F27
:105443000974037808120A2612547BE82407F582AC
:10545300E91262F970D680A17E007F00800A12549F
:1054630086600214F012381D126A8A40F102400964
:1054730012547B888289832274832508F8740D353E
:1054830009F922EEF8EFF9E875F006A4F8AAF07529
:10549300F006E9A42AF9742328F582740D39F583FB
:1054A300E0221254ACA3A3A322F0850882850983CA
:1054B300A3A32274F712037A74E1120925ECFEED1B
:1054C300FF750800EE4F60728A828B83E0241C1202
:1054D300632A1250D160638A828B8312554B8518DD
:1054E30082851983AC82AD83EA241BF582EB1261BA
:1054F300FBEA241CF582EB125547120F0C740B12B6
:105503000AF712554F7003A3E069702E7402120A52
:10551300F7E064017024741D120AF7124340E0643B
:10552300017017741D120AF7124342A3A3E0F88E09
:10553300828F83E0687003750801A908741F023D18
:10554300B91252843400F5831259EA22122FC4E0AF
:10555300682274F412037AE97024790090034D12DF
:1055630043401221478A0A8B0BAE0AAF0B74FE6EBF
:10557300700374FF6F701A902A54E49360137901D7
:1055830090034D1243401221478A0A8B0BAE0AAF98
:105593000B120F4802398574F612037A74F3120959
:1055A300251216628A088B09AE08AF09900368E0DA
:1055B3006E7003A3E06F60E9120F30EA6E7002EBC6
:1055C3006F60DEEEFAEFFB120F9CE970D4EE4F60D2
:1055D300D0851882851983E4F004120AF7EEF0A34C
:1055E300EF1255FDE970BA74FE6E700374FF6F60BD
:1055F300B0EEFAEFFB740D023E65123EEA120B6A3F
:1056030022C082C083120F48023C307F0A020595F4
:1056130074F212037AEAFEEBFF8C0A8D0B8908748D
:105623000E120AF7E0F50974FC6E700374FF6F70D5
:105633000579000253467900120DB68A0C8B0DAE24
:105643000CAF0D900368E06E7003A3E06F7006E586
:1056530009A2E650DCA909126B17706179007AFE82
:105663007BFF126B17705674185509700302574A63
:105673007800790080031231BE902A461231B5407A
:105683000302574AE8FAE9FBEA75F007A4FAACF01B
:1056930075F007EBA42CFB74112AF582740C3BF50F
:1056A30083E0541870D0E875F007A4F8AAF075F0F9
:1056B30007E9A42AF9740B28F8740C39F98882894C
:1056C30083A3A3A3A3A3A3E05418600974185509E3
:1056D300700302563488828983EEF0A3EFF074FEE0
:1056E300650A700474FF650B600312587188828920
:1056F30083A3A3A3A3A3A3E509F0A2E0500D88828B
:105703008983A3A3A3A3A3A3D2E2F07401650888AA
:10571300828983A3A3A3A3A370387401125895E0CD
:1057230054186028902A58E49388828983A3A3A3FA
:10573300A312585F1210868B0DEA450D60030256C3
:10574300347800790080397902025636900367E095
:1057530080D7E06401700302563488828983A3A34F
:10576300A3A3A3A3E054186007902A58E4938004EA
:10577300900366E0124807E508F00256341231BE82
:10578300902A4EE493FAC3E89AE994004003025640
:10579300347A007B00804BEAFCEBFDEC75F007A448
:1057A300FCAEF075F007EDA42EFD740D2CF582749C
:1057B3000C3DF583125E16E8FCE9FDEC75F017A4C9
:1057C300FC85F00975F017EDA42509FD749B2CF5F4
:1057D30082740A3DF583E06E7003A3E06F609E124E
:1057E30036F2902A4612367F40AD124891EC6A7029
:1057F30002ED6B7088E875F017A4F8AAF075F0173E
:10580300E9A42AF9749B28FE740A39FF7C177D00EA
:105813007900EEFAEFFB12164A8E828F83125877C5
:10582300900375125851A3A3A3A3A3A3E8F0A3E97C
:105833001258577401F0EE240E125DFA74011258D7
:105843007F120229EE240D125DFAE802577C123C06
:105853004EA3A322F0EE240F125E0B22F01258681F
:10586300AA0AAB0B22900375E0FCA3E0FD22888219
:105873008983A3A3E50AF0A3E50BF022F012588471
:1058830022902A51E4932401F8E43400F97A027B4C
:105893000022124813A32274ED12037A8A088B099B
:1058A300890E1259C84005790502599612192CAA76
:1058B30008AB09125A9A902A44125999650A70033F
:1058C300E9650B70077AFE7BFF125A9A902A44E42B
:1058D3001259A1E50A98E50B99400302599412590C
:1058E300A56012E50A75F006A4F875F006E50B123B
:1058F30059F0121710E50E6018E50A75F006A4F8C2
:10590300AAF075F006E50B125A1C701A79010259B8
:1059130096E50A75F006A4F8AAF075F006E50B12F1
:1059230059FDE4F0A3F0E50A75F006A4F8AAF075B2
:10593300F006E50B1259BDA3125CA988828983A3E3
:10594300AA82AB83125A0B8A828B83E0603F12597F
:10595300A5603A8E108F11751200781012085FE55A
:105963000EC333FCE433FDE50A75F006A4F50AA87B
:10597300F075F006E50BA428F50B7427250AF582CC
:10598300740D350B1255491236901208AB7900800D
:10599300027907026B2D123317E822902A3C126416
:1059A300B422E50A75F006A4F8AAF075F006E50B33
:1059B3001259F8F8A3E0F9E84922A42A125B5188A6
:1059C300828983A322ECFEEDFF902A4FE493F8E94A
:1059D300C39822F5831259EA12171022E50C126EAE
:1059E30014E50D3400F583E0FAA3E0FB221259F825
:1059F300FAA3E0FB221259FDE022A42AF974272816
:105A0300F582740D39F58322E50EF0900EDA125A01
:105A13001522E088828983F022125B75F50CE93444
:105A230000F50DE50EC333FAE433FB12170A850CB8
:105A330082850D83EAF0A3EBF0850C82850D83123A
:105A43005A462212483FE8492274F412037AECFEC4
:105A5300EDFF740C120AF7123E5388088909125A93
:105A63009AAC0AAD0BECF8EDF9902A44125AA25005
:105A730021E875F006A4F8AAF075F006E91259BDFD
:105A8300E08E828F83125AB5125AAB123E5F7900B1
:105A930080027904024009120D388A0A8B0B221204
:105AA3003688C3EC9AED9B2212483B850882850910
:105AB3008322125B8A2274F612037A7E007F0080AF
:105AC30028EEF8EFF9E875F006A4F8ACF075F006E7
:105AD300E9A42CF9742528F582740D1267386A70CD
:105AE30003A3E06B605712381D126A8A40D3126A0F
:105AF300857002E96F704674FE6A700374FF6B7001
:105B03003C7E007F00800312381D126A8A502E12D9
:105B1300548670F3EEF8EFF9E875F006A4F8125B1B
:105B230047125B7C6017125B63F8E9125B5B888248
