:020000040000FA
:060000000212AB0207BC76
:03002B000210BF01
:03003300020E3F7B
:03004300020F5B4E
:030053000206EDB5
:03006B00020E255D
:100083000207510101FF01010503010F10FEFF0DDE
:100093001B0D1B0D1B0D1BC319BD190D1BB82F0009
:1000A3000000001A30000000000C0000000C0001EA
:1000B300040000F91C000000000000B91D0000004E
:1000C30000000000000000FFFF01020079050000AE
:1000D30000EC056400020200080000050207051E8B
:1000E30002051E020A0A03B80B02803E0102F1FF59
:1000F300141F00E007965118000202063031323314
:1001030034353637383941424344454600286E7505
:100113006C6C20706F696E74657229003F3F3F00FD
:100123000000807F0000803FF9021550B743BA51A9
:100133000000204100E7DB2E0000A040100000007B
:10014300080000000A0000001212F760461212CAEB
:10015300603DE9687008F618F618F618F622748000
:1001630067F712017F090909748067F7221212CA1F
:10017300601D1212F77005191919801A12113170C6
:100183001F12115BC37003E667331919194007186F
:1001930018182208080874FFF618F618F618F6223D
:1001A30012115B6017121336702192F01213407014
:1001B30019501720F014080808090909E7F6181957
:1001C300E7F61819E7F61819E7F62212134060E666
:1001D300E869701F0808E62480F608E436F6185428
:1001E3007FB47F0CE654806007F6E418F618F62215
:1001F300181822E9C6CC08C6CD08C6CE08C6CFC09B
:10020300E0E8C0E0EAC0E0EBC0E009E9F809E7FA9A
:1002130009E7FBE6F918E6F8C3EC98ED99EE9AEBDB
:10022300C2E7F5F0EFC2E795F0500E600CEBCFFBA1
:10023300EACEFAE9CDF9E8CCF8EAA2E7D2E7FAEB9D
:1002430033FB13F5F0EEA2E7D2E7FEEF33FFC5F081
:1002530013A2E730E601B313C5F0C3C0E0C0F07FDB
:1002630000C39BFB605B9418600C401AD0E023F939
:10027300D0E0F802034E8AF0E9486003D2F0E4AF1D
:10028300F0FAF9F8803BEB30E40D89F0EA6003D231
:10029300F0E4AFF0F9CAF8EB30E30D88F0EF600259
:1002A300D2F0AFF0E4CAC9F8EB54076014FBC3EA19
:1002B30013FAE913F9E813F8EF135002D2E0FFDB66
:1002C300EDD0E0C0E030E739C3E49FFFF5F0EC98F0
:1002D300FC42F0ED99FD42F0EE9AFE42F0D0E0F9D7
:1002E300D0E0F8E5F0607AE923F9EE20E742D8029E
:1002F3008067C3EF33FFEC33FCED33FDEE33FE8059
:10030300EAEC28FCED39FDEE3AFED0E023F9D0E02B
:10031300F84002801BC3EE13FEED13FDEC13FCEF5C
:10032300135002D2E0FF08B800067F7F74FF802ECF
:10033300EF3350178CF020F00260100CBC000C0D52
:10034300BD00080EBE000408E860DFE933E813FFD0
:10035300EE2313FE4F4D4C8008E95480FFE4FEFD6D
:10036300FCEE33EF33F47004FCFD7E80D0E0FBD071
:10037300E0FAD0E0F8D0E0CFC618CEC618CDC61844
:10038300CCC6F9221212CA7004181818221212F7D6
:10039300700D74FFF61819F61819F61819F622E7F6
:1003A300548066F6121340700F12133670F014F671
:1003B30008F608F608F680D1121336700CF608F624
:1003C30008768008E6447F80EC12115E700C1211EF
:1003D3003460BFE65480F6E480BB12113470051913
:1003E300191980A5E869700C763F18768018F618FD
:1003F300F6E8F922E6CDC0E018ECC0E0E633CD33F1
:10040300CDD313F6E719FCE7191933CC33C3947F23
:10041300400ECD9D502408E65480F6E418F6800F74
:10042300F4043D14501408E6447FF6187680E4186B
:10043300F618F6D0E0FCD0E0FD22CCD313CCFD18A7
:10044300E4C6CBC0E018E4C6CAC0E00808ED08C69D
:1004530033E613F618E433C675F003C3CA97CA0923
:10046300CB97CB199C40047D08802EBD0003020569
:100473003016B6FF050606081618C3CA33CACB33AF
:10048300CB33CA27CA09CB37CB193CC37D08803E7F
:10049300187D0820E75CC633C6CA33CACB33CB33D7
:1004A300DDF1D5F0EB30E77BCA97CA09CB974ACB8E
:1004B300199C406F4B7025E620E0218066187D086B
:1004C300C3CA97CA09CB97CB199CD3C633C6CA33C1
:1004D300CACB33CB3350C9DDE7D5F0E1D3E4C6361D
:1004E300C608C636C608C636C608C636C61818189D
:1004F3008031C3CA97CA09CB97CB199CB34097C61F
:1005030033C6CA33CACB33CB33DD34D5F02EC6A2C0
:10051300E0C640C8CA27CA09CB37194A70BECB3CCC
:10052300B480B90808E63308E633601F181818D0FA
:10053300E0FAD0E0FBD0E0FCD0E0FD22187D08CA51
:1005430027CA09CB37CB193CD3808013F618E4B6FE
:100553007F11F618B6FF0EF618C60470D208087697
:100563008080CAF618F618F680C5001212CA604FCA
:100573001212F76012E7548066F6121131701112ED
:100583001336703B090909F4F618F618F618F62223
:1005930012115B701512134008080860EAE6447FE5
:1005A300F618768018E4F618F62212134060161235
:1005B30013367012E4F608F608F608E65480F609D6
:1005C300090918181822EAC0E0EBC0E0ECC0E0ED1E
:1005D300C0E0E687F0A4FBACF008E687F0A42CFCAF
:1005E300E435F0FA1809E687F0A42C4B6002740195
:1005F300CA35F0FCE433FB09E687F0D2F7A42CCB31
:1006030035F0FC1908E687F0A42BCC35F0FBE43376
:10061300FD0819E687F0D2E7A42C4ACB35F0CD3498
:1006230000FC09E687F0D2E7A42DCC35F0FDE433D6
:10063300FA0918E687F0D2F7A42CCD35F0CA3400B6
:10064300FC08E687F0D2E7D2F7A42ACC35F07A7E0D
:1006530020E70B0ACB33CBCD33CDCC33CC33CB33E9
:1006630050147004ED30E00ED2F1E4CD3DCDCC3C1E
:10067300CC3B5005DA05C2F1EB547FC63308E633B1
:1006830092F0FBE73309E733C39A502D2B70190C13
:100693000D4C4D70151806E608C333700D20F10A92
:1006A300A2F013F6E418800B4024E4F630F002764F
:1006B3008018F618F618F68024D33B14501074FFF4
:1006C300A2F013F6187680E418F618F6800FA2F05D
:1006D30013F618E63303F618ECF618EDF6D0E0FD42
:1006E300D0E0FCD0E0FBD0E0FA22C0E074F2120AC2
:1006F300DCA2AFE433FED2AFE5A7FFE5A1F5085FC7
:100703005410600612254575A1EFE5085F54086093
:100713000812254B75A1F7802BEFA2E0C0D0E508A6
:10072300A2E092F01211E6158182F05017906198C1
:10073300E0F89008C9E0C398A2D265D0335002E82C
:10074300F075A1FEEEA2E092AF7F01020B3BC0E089
:1007530074F2120ADCA2AFE433FED2AF9061A4E0DC
:10076300F8759B00E59158540860087591F71225B8
:1007730093802AE59158541060087591EF122599DA
:10078300801BE8A2E0C0D0E591A2E092F01211E64E
:10079300158182F05007E0C2E0F01226DD9061A3DC
:1007A300E0F8E5E9585404600E1226B375E9FB90AE
:1007B3006193E0A2E640F2808BC0E074F2120ADC9F
:1007C300A2AFE433FED2AF9061A5E0F8E5BF585481
:1007D30004600675BFFB1226F5020747C3E498F8C9
:1007E300E499F91208208026C3E49AFAE49BFBE912
:1007F30020E7E9120820E498F8E499F922C3E49881
:10080300F8E499F9120820E498F8E499F9C3E49A12
:10081300FAE49BFB22EB20E7CFE920E7E0B90010E5
:10082300BB0008E88AF084F8AAF022E4FBC8FA22A5
:10083300EB70227B10C833C8C933C9335007C39A3E
:10084300C3DBF280069A50012ADBEAC833F4C8C935
:1008530033F4C9FA2275F008E4C833C8C933C9337D
:10086300C99AC99B5004C92AC93BD5F0ECFBC833CC
:10087300F4C8E4C9FA221208B920F01430E72B7443
:10088300FFFCFBFA747F8022E4FCFBFA7480801A7D
:10089300B48008BC00F2BB00EF800F50EBF9E4C357
:1008A3009AFAE49BFBE49CFCE499C6CC18C6CB18EB
:1008B300C6CA18C6F922E4C9C608CAC608CBC6D335
:1008C300330308CCC63392F0C3947F402E94184070
:1008D30019C9B90704CACBCC225025C309CA33CAE4
:1008E300CB33CBCC33CC33D9F422F4600DC9CCC396
:1008F30013CB13CBCA13CAD9F6CC22E4FCFBFA22DE
:1009030014FCFBFA22080808EAC0E0EBC0E086F01A
:10091300E7A4FA180986F0E7A42AFA180986F0E78B
:10092300A42AFA180986F0E7A42AFA1986F0E7A49C
:10093300FBE5F02AFA190886F0E7A42BFBE5F03A69
:10094300FA190886F0E7A42BFBE5F03AFA18180920
:1009530086F0E7A4C5F02BFBE43AFA1908E7C5F0E3
:10096300C6A426F6E5F03BFBE43AFA1886F0E7A4C2
:10097300F6E5F00826F6E43B08F6E43A08F6D0E09C
:10098300FBD0E0FA22080808E630E71112119912A9
:1009930009A0080808C64480C61818182218181891
:1009A300E9799EC608CAC608CBC608CCC6C3702060
:1009B3007996CACBCC7019798ECBCC70137986CC4F
:1009C300700EF9802ACA33CACB33CBCC33CC33195C
:1009D30030E7F2CCCBCA3350147004EA30E00DE4B4
:1009E300CA3ACACB3BCBCC3CCC500209C3E913C6B1
:1009F300CC182313C6CB18C6CA18C6F922E4CFC035
:100A0300E0E4CEC0E0E4CDC0E0E4CCC0E075F0208B
:100A1300C3E633F608E633F608E633F608E633F6BC
:100A2300181818EC33FCED33FDEE33FEEF33FFC340
:100A3300EC9709ED9709EE9709EF97191919400FEC
:100A4300FFEC97FC09ED97FD09EE97FE191906D502
:100A5300F0BEECF709EDF709EEF709EFF7191919ED
:100A6300D0E0FCD0E0FDD0E0FED0E0FF222518C5A9
:100A730082C0E0E51934FFC583C0E0E518C3958261
:100A830024F810AF08858319858218800885831997
:100A9300858218D2AFCEF0A3E520F0A37808E6084C
:100AA300F0A3DEFAEFF0A3E58124FAF8E608F0A359
:100AB300E608F0A3E608F0A30808E608F0A3E608B2
:100AC300F0A315811581D0E0FED0E0F815811581E2
:100AD3001581E8C0E0EEC0E022C0D02518C582C071
:100AE300E0E51934FFC583C0E0E518C3958224F31C
:100AF30010AF08858319858218800885831985823C
:100B030018D2AFC8F0A3E9F0A3EAF0A3EBF0A379FE
:100B130008E709F0A3D8FAECF0A3EDF0A3EEF0A3F5
:100B2300EFF0A3D0E0F0A3D0E0F0A3D0E0F0A3E592
:100B330020F0A3E5F0F0A322851983851882E0C095
:100B4300E0A3E0F9A3E0FAA3E0FBA37808E0F6084A
:100B5300A3DFFAE0FCA3E0FDA3E0FEA3E0FFA3E034
:100B6300C0E0A3E0C0E0A3E0F5D0A3E0F520A3E05C
:100B7300A3F5F010AF088583198582188008858353
:100B830019858218D2AFD082D083D0E0F8D0E0327A
:100B930012132BB90003020BD5E49003017890796B
:100BA3000C8002F0A3D8FCD9FA900E90AA82AB83F2
:100BB30090008678C679018015E493A3AC82AD8357
:100BC3008A828B83F0A3AA82AB838C828D83D8E93C
:100BD300D9E77582E47583FD740312101E758219BB
:100BE30075832A740012101E0975F0108E1A8F1B5C
:100BF30085821F85831E851882851983E0CEA3E035
:100C0300CF851F82851E83EBC9EAC8EDCBECCAC32F
:100C1300E833C8E933C9EA33CAEB33CBC3EA9EF5F9
:100C23001DEB9FF51CB35004AB1CAA1DEC33CCED9C
:100C330033CDD5F0DAAE1AAF1B221212CA601C12E2
:100C430012F7601712134070071213367001D32284
:100C5300C0D01213367006D0D0B322C32233D0D003
:100C6300501430E0F6C3E7960809E7960809E796BB
:100C73000809E796B32220E0D5E6970809E6970826
:100C830009E6970809E697B322D083D082ECC0E047
:100C9300EDC0E0E493A3FCE493A3FDED4C600D12DF
:100CA3000DB0EC24FFFCED34FFFD80EFE493A3FCD7
:100CB300E493A3FDED4C600D120EE0EC24FFFCED7C
:100CC30034FFFD80EFD0E0FDD0E0FCE493A3C0E06F
:100CD300E493C0E0221212CA601B1212F7601612CC
:100CE30013407007121336600CB322C0D0121336B0
:100CF3007005D0D022C32233D0D0501330E0EBC3E1
:100D0300E7960809E7960809E7960809E796222077
:100D1300E0E4E6970809E6970809E6970809E697E5
:100D230022851983851882E0A3FEE0A3F5207808C5
:100D3300E0A3F608DFFAE0A3FFE0A3C0E0E0A3C06E
:100D4300E0E0A3C0E0E0A3C0E0E0A3C0E010AF0890
:100D53008582188583198008858218858319D2AF07
:100D6300D083D082021024D083D082E9C0E0E49300
:100D7300A3C386F0C5F095F0F908E493A386F0C504
:100D8300F095F0700BE493A3C3994005E904800246
:100D9300A3E475F002A42582F582E5F03583F5839B
:100DA300D0E0F9E493A3C0E0E493C0E022C0E0C341
:100DB300E49396087401939618400FE493667008C1
:100DC30008740193661870007019A3A3C3E4939683
:100DD300087401939618A3A3400DD0E0D0E0D0E0AF
:100DE300020CC8A3A3A3A3A3A3D0E022D083D082E1
:100DF300C5F0E493A3C5F0C395F0F5F0E493A3C362
:100E030095F04005E5F0048001E475F002A4258225
:100E1300F582E5F03583F583E493A3C0E0E493C062
:100E2300E022C0E074F2120ADCE589A2E150031269
:100E330023FB758900C2C57F01020B3BC0E074F23E
:100E4300120ADCE58BA2E050031223FB758B00C270
:100E5300E880E47404800474028000CCC0E0EDC038
:100E6300E0E518C39CCCAD1950011D10AF068C18DA
:100E73008D1980068C188D19D2AF120FA0D0E0FD0A
:100E8300D0E0FC2274028000CCC0E0EDC0E0E518A5
:100E9300C39CCCAD1950011D10AF068C188D198061
:100EA300068C188D19D2AF120F7ED0E0FDD0E0FC76
:100EB300221212CA60251212F76020121340700327
:100EC300021336080808E76670101819E766700AF7
:100ED3001819E76670041819E76622F422C0E0C007
:100EE300F088F0E493667008087401936618700044
:100EF300A8F0A3A3700BD0F0D0E0D0E0D0E0020CB8
:100F0300C8A3A3D0F0D0E022D083D082CCC0E0E449
:100F130093A36006120FC11470FAE493A360061240
:100F230010F01470FAD0E0FCE493A3C0E0E493C0A3
:100F3300E022C008C3E096F50808A3E0964208083B
:100F4300A3E096420808A3E0964208A2D265D033F4
:100F5300E5087001D3D00822C0E074F2120ADCA2C3
:100F6300AFE433FED2AFC2C0E5D1A2E450031224F2
:100F7300BBEEA2E092AF7F01020B3BCAC0E0E49359
:100F8300A3C582CCC582C583CDC583F0A3C582CC5E
:100F9300C582C583CDC583DAE5D0E0CA22CAC0E0E5
:100FA300E0A3C582CCC582C583CDC583F0A3C5822A
:100FB300CCC582C583CDC583DAE6D0E0CA22C0E0C2
:100FC300E493A3D39C5010E493A3C39C400AD0E0C2
:100FD300D0E0D0E0020F28A3A3A3D0E02270090839
:100FE3000808226016181818C6C333C608C633C6C5
:100FF30008C633C608C633C6D5E0EA22C008C3E034
:1010030096F50808A3E096420808A3E0964208086C
:10101300A3E09645087001D3D00822C09FF59FE452
:1010230073D09F22D083D082C09FE493C0E0740129
:1010330093C0E0740293F59F227404800A740380C2
:1010430006740280027401C0E0F404121057D0E069
:10105300121306222518F58210AF08F51840021561
:10106300198008F51840021519D2AF85198322C0DB
:10107300D0251810AF08F518500205198008F51887
:1010830050020519D2AFD0D022BB0102E722C082A1
:10109300C08389828A83BB0003E08002E493D08308
:1010A300D082226016080808C6C313C618C613C622
:1010B30018C613C618C613C6D5E0EA22C0E0C0D0CE
:1010C300E8C0E0E5A8D2AFC2C7A2E792AFD0E0F88C
:1010D300D0D0D0E032C3E0C696F608A3E0C696F6B9
:1010E30008A3E0C696F608A3E0C696F622C0E0E49D
:1010F30093A36C7009D0E0D0E0D0E0020F28A3A343
:10110300D0E022251810AF08F51840021519800801
:10111300F51840021519D2AF22E066701008A3E05B
:1011230066700A08A3E066700408A3E06622181834
:1011330018E6084608700AE608C3337005E633F478
:10114300220822E76670100809E766700A0809E7B3
:101153006670040809E76622191919E70947097037
:101163000AE709C3337005E733F4220922C3E09683
:1011730008A3E09608A3E09608A3E096A2D265D060
:101183003322C3E096F008A3E096F008A3E096F0BC
:1011930008A3E096F022181818E4C396F608E4961C
:1011A300F608E496F608E496F622E026F608A3E0AD
:1011B30036F608A3E036F608A3E036F622E026F07A
:1011C30008A3E036F008A3E036F008A3E036F022E7
:1011D300E627F60809E637F60809E637F60809E6CA
:1011E30037F622C0E0E8C0E0E58124FCF8E6A2E798
:1011F300D0E0F8D0E022E657F60809E657F60809EA
:10120300E657F60809E657F622E056F608A3E05635
:10121300F608A3E056F608A3E056F622E056F008D7
:10122300A3E056F008A3E056F008A3E056F022E04E
:1012330066F608A3E066F608A3E066F608A3E06690
:10124300F622700422600D18C6C333C608C633C61F
:10125300D5E0F41822E647F60809E647F60809E65A
:1012630047F60809E647F622C3E09608A3E0960886
:10127300A3E09608A3E09622C6F4C608C6F4C608FF
:10128300C6F4C608C6F4C622600D08C6A2E713C694
:1012930018C613C6D5E0F322C3E7960809E79608F4
:1012A30009E7960809E7962275D0007581407518FD
:1012B3000175190300020B93E6F008A3E6F008A3F7
:1012C300E6F008A3E6F022E6084608C3134608330F
:1012D3006002E633F422600C08C6C313C618C613B3
:1012E300C6D5E0F422E0F608A3E0F608A3E0F6088A
:1012F300A3E0F622E7094709C3134709336002E76E
:1013030033F422CAC0E0E6F0A308DAFAD0E0FA2206
:10131300EAF0A3EBF0A3ECF0A3EDF022E0FAA3E0F4
:10132300FBA3E0FCA3E0FD22E5C754F84401F5C7A5
:10133300790122E7C33319471947194722E6C33313
:10134300184618461846222518F582E43519F58300
:1013530022C2AF75D69F02000022121027B73600B3
:101363001210276737001210271F3800121027E7C3
:101373003800121027A73900121027EB390012107A
:1013830027103A00121027533A00121027A03A00F0
:10139300121027F83B001210277E3C001210279CE6
:1013A3003C00121027C63C00121027E03C0012102C
:1013B30027EF3C00121027FA3C00121027BA3D0019
:1013C300121027133E00121027D53E00121027DDFE
:1013D3003E00121027A13F001210270D40001210EB
:1013E300273841001210275D4100121027D3410016
:1013F300121027654200121027BD42001210277DEC
:1014030043001210279C4300121027AB4400121014
:1014130027BD44001210272C4500121027814600D7
:10142300121027B346001210274647001210277FD9
:101433004700121027CB4700121027E7480012106D
:1014430027304B001210273B4B00121027464B004E
:10145300121027514B001210275B4B001210276606
:101463004B00121027804B001210278A4B001210DA
:1014730027944B001210279F4B00121027C74B00D5
:10148300121027224C001210272C4C001210275048
:101493004C00121027744C00121027D24C0012106B
:1014A30027164D00121027324D00121027A94D00A8
:1014B300121027E14D001210272D4E001210278A1B
:1014C3004E00121027444F0012102728510012100B
:1014D30027815100121027B15200121027D7520052
:1014E300121027605400121027DC5700121027AE89
:1014F3005900121027775B00121027245C0012108A
:10150300278F5D001210272E5E00121027735E00D6
:10151300121027DD5E00121027EC5E0012102773F5
:101523006100121027256300121027926300121026
:10153300277164001210278A6500121027076700BD
:101543001210272667001210277B670012102780CE
:101553006800121027A868001210270069001210F3
:1015630027DF6900121027236A001210276E6A0012
:10157300121027D96A001210271A6C001210277E46
:101583006C00121027CC6D001210272C7000121063
:10159300275D70001210271572001210276A72005F
:1015A3001210276E73001210270B74001210276499
:1015B3007400121027177500121027B97500121046
:1015C30027597600121027FE76001210271A82017F
:1015D300121027598201121027A08401121027EA42
:1015E30084011210270586011210276D860112103F
:1015F30027A28601121027168801121027998A0143
:10160300121027C28B01121027588C011210276069
:101613009501121027F59501121027DC980112107D
:1016230027CF99011210273D9A01121027839B019E
:10163300121027659C011210274A9E011210275B86
:10164300A001121027C5A00112102797A1011210A3
:1016530027C5A10112102782A20112102759A30145
:1016630012102720A401121027C4A401121027ED81
:10167300A4011210270FA50112102765A70112104C
:10168300273DA80112102781A801121027E9A801FC
:10169300121027A1A901121027D3A901121027178D
:1016A300AA011210274DAA0112102799AA0112109C
:1016B30027EEAA01121027F3AA0112102746AB0145
:1016C3001210276BAB011210277AAC01121027DE20
:1016D300AC011210274EAD01121027DAAD01121022
:1016E30027A7B0011210278BB1011210270EB301E7
:1016F30012102744B501121027F2B501121027A2C8
:10170300B601121027E3B80112102786B90112108F
:1017130027CDB90112102779BB011210278DBB0108
:1017230012102797BB01121027BFBB01121027CB42
:10173300BB01121027EABB011210270ABE011210C7
:101743002759BF011210279DBF0112102745C00161
:1017530012102728C101121027D3C1011210271F0D
:10176300C3011210271DC401121027C3C401121094
:101773002753C5011210276AC501121027A1C501FD
:10178300121027ABC501121027B6C501121027D4BA
:10179300C50112102718C60112102775C6011210B1
:1017A300279AC601121027B4C60112102740C70199
:1017B3001210275DC801121027CAC801121027B1E1
:1017C300C901121027D8C9011210274CCA011210DF
:1017D30027C7CA01121027CBCB01121027C1CC0196
:1017E30012102770CD0112102783CE011210271F6C
:1017F300CF01121027ACCF011210278AD00112108B
:1018030027C2D0011210271AD101121027E3D101E8
:1018130012102704D2011210278BD201121027AF06
:10182300D201121027D1D2011210271AD30112109C
:101833002730D50112102717D601121027C8D60159
:10184300121027FED8011210274ED9011210278E2D
:10185300D901121027D0D9011210272CDA01121046
:10186300275ADA011210277EDA01121027D1DA0182
:10187300121027FFDA0112102738DB011210278D0F
:10188300DB01121027F3DB0112102747DD011210D1
:10189300276ADF01121027D7DF0112102700E001AA
:1018A3001210278BE001121027F2E0011210273DDE
:1018B300E10112102761E10112102785E1011210E5
:1018C30027E0E101121027FBE101121027B4E20126
:1018D300121027D9C80412102718C9041210277828
:1018E3008002121027BE80021210279E810212105E
:1018F30027A08202121027A383021210272F85022A
:101903001210278D85021210274A860212102768AB
:101913008702121027D98702121027158802121086
:10192300276388021210276D8802121027B18802DC
:101933001210270D8902121027A8890212102725D9
:101943008A02121027F48A021210278D8B021210BA
:1019530027AD8B02121027E38B02121027148C027F
:10196300121027D58C02121027E58C02121027398A
:101973008D02121027548D02121027668D02121049
:10198300276F8D02121027C98D02121027258E0290
:10199300121027718E021210278C8E02121027BD8F
:1019A3008E02121027DA8E02121027E68E02121010
:1019B300275A9002121027739002121027DA90020E
:1019C300121027ED9002121027FB9002121027AF7E
:1019D3009102121027939202121027999302121068
:1019E300272394021210272D94021210279A94028F
:1019F300121027B19402121027E394021210271C2D
:101A03009502121027469502121027A7950212106D
:101A130027C79502121027E595021210272B96026D
:101A23001210275197021210279E9702121027CDEA
:101A330097021210274398021210276B9802121074
:101A430027A49802121027B298021210270A9902AB
:101A5300121027599902121027989902121027C8B9
:101A63009902121027F49902121027FF99021210FB
:101A7300271D9A02121027DF9A02121027E99A02F1
:101A8300121027249B021210273A9B021210278F51
:101A93009B02121027A39B02121027B19C02121063
:101AA30027C49C02121027D99C021210277B9D0287
:101AB300121027FE9D02121027BC9E02121027C788
:101AC3009E02121027F39F021210270FA00212107A
:101AD3002761A002121027A0A002121027B5A002AE
:101AE30012102717A102121027A6A102121027F124
:101AF300A10212102742A402121027C0A40212103E
:101B03002735A50212102757A7021210276FA70225
:101B130012102772A7021210277EA7021210279213
:101B2300A7021210279AA702121027CDA70212109C
:101B3300277DA802121027F3A80212102766A90214
:101B43001210271AAA02121027CFAA02121027EE88
:101B5300AA021210278EAB021210279AAB021210A0
:101B630027C5AB02121027C8AB0212102732AC02F2
:101B73001210275AAD0212102732AE02121027BDDF
:101B8300AE02121027D6AF0212102793B002121022
:101B930027CCB002121027FDB002121027BBB102EE
:101BA300121027EBB102121027C6B2021210275FE0
:101BB300B302121027EAB3021210279BB4021210C9
:101BC300271EB50212102750B50212102791B50235
:101BD30012102766D403121027CBD4031210270840
:101BE300D50312102757D5031210276DD7031210F0
:101BF3002750D903121027BADC03121027F5DC0390
:101C030012102717DD031210277ADD03121027AEF7
:101C1300DD03121027D1DD03121027FEDD0312109E
:101C2300275ADE0312102750BE03121027CEBE031D
:101C330012102704BF0312102770BF03121027E3EB
:101C4300C003121027FFC00312102744C103121050
:101C530027D2C1031210272BC20312102758C30324
:101C63001210276AC403121027C7C40312102733A4
:101C7300C50312102794C503121027D5C5031210EC
:101C83002782C60312102794C703121027BFC70366
:101C93001210270AC80312102751C803121027E392
:101CA300C8031210279EC90312102737A704121066
:101CB3002767A704121027BCA7041210278AC7049A
:101CC3001210278FC7041210279BBD04121027ACD4
:101CD300BD04121027FDBD0412102742BE041210CA
:101CE30027ECBE0412102700FF0112102759BA0473
:101CF300121027B1BB0412102715CA03121027BAFA
:101D0300CA03121027DACA03121027FACA031210E1
:101D1300270ECB0312102766CB0312102796CB0393
:101D230012102717CD03121027BDCD031210279FC2
:101D3300CE03121027F0CE0312102733CF03121055
:101D43002776CF03121027DCCF03121027FDCF0312
:101D530012102789D003121027BAD0031210272E8E
:101D6300D103121027DCD203121027B6D3031210AB
:101D730027F8D30312102752D403121027D0B60426
:101D8300121027F1B60412102727B8041210275196
:101D9300B804121027EAB20412102770B304121009
:101DA300277AB3041210279BB304121027C7B40475
:101DB30012102713B20312102716B203121027D0E2
:101DC300B203121027FBB20312102742B3031210FF
:101DD3002767B303121027F6E502121027BCB303DB
:101DE300121027F5B3031210271EB503121027553F
:101DF300B50312102775B50312102710B60312107E
:101E030027D5B6031210270CB70312102781B80386
:101E130012102724B9031210271DBA0312102746E4
:101E2300BA031210279ABA0312102760BB031210C9
:101E3300278EBB0312102723BD03121027A4BD0353
:101E4300121027D7BD03121027A6DE03121027B0E6
:101E5300DE031210276636001210276ADF03121002
:101E6300278BDF03121027A2DF0312102752E00390
:101E7300121027E6E203121027EFE20312102742A3
:101E8300E3031210276BE303121027D2E3031210AC
:101E93002763E403121027A5E403121027EFE403DA
:101EA3001210274EE5031210277AE5031210270BB1
:101EB300E6031210274AE60312102789E6031210DD
:101EC30027BEE603121027D0E603121027E2E6032B
:101ED30012102701E7031210270AE703121027C085
:101EE300E70312102700E8031210272E8E041210A6
:101EF30027018F041210271B8F041210272C8F0425
:101F0300121027419104121027609104121027B870
:101F1300B004121027EEB00412102737B1041210C8
:101F23002787B2041210273BE6021210277AE70232
:101F3300121027B6E70212102775E9021210279E26
:101F4300E90212102731EC0212102775EC0212106D
:101F530027FEED0212102796EE02121027FEEE0264
:101F63001210279FEF02121027E1EF021210272110
:101F7300F002121027ACF1021210271CF302121008
:101F83002741F5021210276FF50212102796F5026A
:101F93001210279FF502121027FAF5021210278D4F
:101FA300F602121027ABF9021210272CFA021210B4
:101FB3002727CA041210273DCA041210273CC8045D
:101FC30012102738A1041210274BA104121027E87E
:101FD300A10412102723A2041210273EA2041210F8
:101FE3002763A204121027A8A204121027D9A2045F
:101FF3001210270AA30412102790A40412102764B6
:10200300C0041210279AC004121027B6C00412107D
:1020130027F8C00412102708C1041210279DC10419
:10202300121027A7C104121027BFC1041210278E54
:10203300FA02121027C2FA0212102701FB02121031
:1020430027B6FB0212102764FC021210277AFC0247
:102053001210273AFD021210275DFF02121027B556
:10206300A3031210270DA403121027F6A4031210C2
:10207300278FA503121027D9A50312102736A6030D
:102083001210278FA603121027A3A603121027D519
:10209300A603121027D3A70312102737A803121081
:1020A3002752A803121027A1A803121027B7A803C9
:1020B300121027C4A803121027F8A803121027111F
:1020C300A903121027A2A903121027B1A903121002
:1020D3002739AA0312102793AA03121027E1AA0390
:1020E30012102703AB031210277AAD03121027AF88
:1020F300AD031210273FAE03121027B4AE03121024
:1021030027B9AE03121027F5AE031210274BAF0306
:102113001210270FB00312102734B0031210273EFA
:10212300B00312102741B003121027CAB0031210D4
:1021330027E5B003121027F8B00312102724B103C8
:102143001210275FB10312102762B1031210276D1B
:10215300B103121027A9B103121027BCB103121047
:1021630027E3B1031210278CC804121027A4C80454
:102173001210274A77001210279977001210273B75
:102183007900121027F97A00121027417B001210F0
:1021930027637C00121027947D00121027B67D0060
:1021A300121027127E00121027947E00121027EEC1
:1021B300E2011210270FE30112102799E301121015
:1021C300271EE4011210279AE40112102703E501E8
:1021D3001210274FE501121027CEE50112102760D8
:1021E300E601121027ECE6011210272EE701121068
:1021F300279AEB011210271AED0112102759ED014E
:1022030012102740EE0112102743EE01121027F798
:10221300EE011210272CF00112102717F2011210F1
:102223002797F40112102750F5011210276DF601BC
:10223300121027C4F901121027D4F90112102735FF
:10224300FB01121027C1FB01121027F5FC0112102C
:1022530027E6FD0112102768FE01121027008003F4
:10226300121027BA80031210272C81031210273B68
:102273008103121027B58103121027248203121041
:10228300272B8303121027548303121027F483038D
:10229300121027428403121027B284031210276BF3
:1022A3008703121027428803121027AF88031210E6
:1022B300272C8A03121027E08A031210278E8B0320
:1022C300121027E98B03121027548C031210275482
:1022D3008D031210272E8F03121027419003121023
:1022E30027DA90031210274C91031210271292033E
:1022F300121027949604121027E896041210274010
:1023030097041210278B9704121027ED97041210CD
:10231300275998041210270C99041210274D990479
:10232300121027639904121027BF9904121027FD76
:10233300990412102762AE0412102793AE041210F0
:10234300274DAF04121027B3AF0412102724B00493
:102353001210276CFE0312102700BC041210270D65
:10236300BC0412102722BC0412102737BC0412101D
:102373002754BC0412102778BC04121027A1BC04F4
:10238300121027C2BC04121027EBBC041210275EE4
:10239300BD04121027E9C404121027FAC404121052
:1023A300279AC504121027A1B804121027AFB80446
:1023B30012102765CA04121027F4C604121027044A
:1023C300C7041210271FC70412102780C704121056
:1023D30027E7C3041210276CC404121027D0C404C7
:1023E300121027D5C204121027F7C2041210276156
:1023F300C3041210276CC304121027B0C3041210B5
:102403002765F10312102773F103121027B4F103A8
:10241300121027D5F10312102752F203121027527C
:10242300F30312102774F303121027E0F3031210BF
:1024330027FBF30312102716F40312102720F403CB
:102443001210272AF4031210273DF4031210275603
:10245300F403121027F2F403121027AEF50312103F
:102463002725F6031210279FF60312102705F703FB
:102473001210272E9A041210273C9A04121027B622
:102483009A041210279A9B04121027539D041210CA
:102493002705CA04121027AFF8031210271CF903EB
:1024A300121027DDF9031210274DFA0312102756D5
:1024B300FB03121027CEFC0312102732FD03121068
:1024C3002787FD0312102790FD031210279FFD039A
:1024D300121027B2FD03121027C8FD03121027D1D3
:1024E300FD03121027BD8404121027128504121055
:1024F300270E8704121027408704121027628704CF
:102503001210277B87041210279487041210279E2A
:10251300880412102739890412102703BF041210EC
:102523002727BF0412102740BF0412102773BF04CC
:10253300121027A4BF04121027D2BF04121027348D
:10254300C00412102743C0041210274DC0041210F8
:10255300275AC004121027A7A404121027CDA404DD
:102563001210270AA50412102719A50412102738E0
:10257300A504121027A0A504121027A9A504121060
:102583002708A6041210272CA604121027EBA60472
:10259300121027F8A60412102709A70412102766A1
:1025A300C90412102783C904121027B0890412101A
:1025B300270E8B041210271B8B041210272E8B045B
:1025C3001210274D8B04121027638B0412102777E8
:1025D3008B04121027EC8B04121027518C04121059
:1025E30027018D04121027D68D04121027E68D04BF
:1025F300121027F58D041210275BC6041210277FD3
:10260300C604121027A7C604121027CFC60412103F
:10261300279FA904121027C6A904121027E7A904AB
:102623001210274CAA0412102705AC041210271EFF
:10263300AC041210272AAC041210273EAC0412106B
:10264300275CAC0412102766AC0412102770AC048C
:1026530012102783AC04121027D6AC041210270FD4
:10266300AD041210273EAD041210278CAD041210D6
:1026730027DBAD04121027F6AD0412102700AE04B9
:1026830012102711AE0412102757AE04121027EBB5
:10269300C70412102729E80312102753E803121066
:1026A300276FE80312102782E80312102798E80324
:1026B300121027F5E80312102728E90312102764E4
:1026C300ED031210278AEE03121027BDEE0312103A
:1026D3002709EF0312102735F0031210275DF003CB
:1026E30012102772F00312102782F003121027C66C
:1026F300F00312102727F10312102737F1031210EA
:1027030027C87E00121027E37E001210270C7F00DB
:10271300121027267F001210274B7F001210276A02
:102723007F00121027827F00121027B07F00121043
:1027330027CA7F0012102722C904121027B89D044C
:10274300121027BF9D04121027CB9E04121027FBE3
:102753009E04121027219F04121027449F04121075
:1027630027669F04121027A09F0412102706A004B7
:102773001210273FA0041210278BA004121027B8B1
:10278300A004121027D8A004121027E8B4041210D2
:102793002700B504121027EEB504121027CDB60496
:1027A300121027C2C10412102734C2041210277258
:1027B300C204121027B3C204121027B992041210D4
:1027C30027D8920412102727930412102743930447
:1027D3001210277493041210278493041210279164
:1027E30093041210279E93041210278A9404121044
:1027F30027C89404121027D29404121027E29504D8
:10280300121027ED9504121027FF950412102708C4
:102813009604121027129604121027008004121037
:1028230027458404121027538404121027D8C9049F
:10283300121027B4C504121027DEC504121027A2F4
:10284300C904121027D8FF0212102747CA04121016
:1028530027669303121027849803121027AFE4020C
:102863001210270CE402121027BFE2021210276A8B
:10287300E00212102788DF021210276CDF02121009
:10288300270CDF02121027C4DE0212102712DE0209
:1028930012102784DD021210273F3600121027FB87
:1028A300350012102777DD0212102771DA02121099
:1028B30027C035001210279A3500121027D3D702EC
:1028C3001210279CD602121027F0D50212102736B9
:1028D300D402121027E6D1021210276DD102121072
:1028E3002714D102121027A4D0021210277BD00282
:1028F3001210275BCE0212102727CE02121027F4E4
:10290300CD02121027D8CD02121027F1CC021210DB
:1029130027A9CC02121027F4CA0212102774CA0284
:1029230012102771CA021210276EC9021210273C17
:10293300C90212102779C802121027A4C602121066
:10294300278135001210272D3500121027893400F6
:10295300121027FF33001210279E33001210273561
:10296300C60212102707C60212102704C60212104D
:1029730027F1C5021210274C33001210279CC50201
:102983001210278BC5021210277DC402121027478D
:10299300C4021210273A3300121027FCDE03121070
:1029A30027F5C30212102796C30212102765C3022C
:1029B3001210272DC002121027EDBF02121027E1BB
:1029C300BF0212102741BF0212102781BE0212104C
:1029D3002703BC0212102794B90212102752B9021E
:1029E30012102726B802121027DBB7021210271A7B
:1029F300B702121027EDB60212102730B6021210DA
:102A030027C6B50212102700B60212102714E602D9
:102A130012102788B30300000080FBE4730000005A
:102A23000000000000000000000000000010101073
:102A33001010100000303000000014285000000077
:102A4300000000000000000000002828FC28485077
:102A5300FC505000000000103854543018145454E3
:102A630038100000000044A8A8B0541A2A2A4400D1
:102A73000000000020505060ACA898927C00000039
:102A8300606020C000000000000000000000040897
:102A93000810101010101008080400000040201047
:102AA3000804081020400000000000001010D63871
:102AB30038D61010000000000000101010FE101097
:102AC3001000000000000000000000000000006093
:102AD3006020C0000000000000FC000000000000B7
:102AE3000000000000000000000000606000000023
:102AF30002040404080810102020204000000000F5
:102B030030488484848484483000000000001070BE
:102B13001010101010107C00000000003844440412
:102B2300081020447C0000000000384444180404CA
:102B330044443800000000080818284848887C08E6
:102B43001C00000000007C404078440444443800EA
:102B5300000000003C4480B8C484848478000000F2
:102B630000007C4448081010101010000000000002
:102B73007884844878848484780000000000788412
:102B830084848C740488F00000000000000030305E
:102B930000000030300000000000000000100000C2
:102BA300000010102000000408102040201008042A
:102BB3000000000000000000FC0000FC000000001A
:102BC300000000402010080408102040000000000E
:102BD3000078848484081010003030000000000066
:102BE30038449AAAAAAAB4423C000000000010107C
:102BF300282828384444EE0000000000F8444478B4
:102C030044444444F800000000003C448480808035
:102C13008044380000000000F048444444444448E1
:102C2300F00000000000FC44404878484044FC00A9
:102C330000000000FC42404878484040E0000000AB
:102C430000003C448480808E8444380000000000EF
:102C5300EE4444447C444444EE00000000007C10F5
:102C63001010101010107C00000000007C101010D9
:102C7300101010101090E0000000EE44485070480F
:102C83004844EE0000000000E04040404040404423
:102C9300FC0000000000EE6C6C6C54545454D600DD
:102CA30000000000EE64645454544C4CE4000000F3
:102CB300000030488484848484483000000000008D
:102CC300F844444478404040E000000000003048AD
:102CD30084848484B448380C00000000F8444478A9
:102CE30050484844E600000000003C4440201804DB
:102CF3000444780000000000FE9210101010101021
:102D0300380000000000EE44444444444444380086
:102D130000000000EE44442828282810100000007A
:102D23000000D6545454546C282828000000000096
:102D3300EE44282810282844EE0000000000EE444A
:102D43002828101010103800000000007C8808109C
:102D530020204044FC0000001C1010101010101024
:102D63001010101C00007010101010101010101014
:102D73001070000070101010101010101010107050
:102D83000000102800000000000000000000000008
:102D9300000000000000000000000000FE00606072
:102DA30020C0000000000000000000000000000040
:102DB3000038441C24443E0000000000C04040781A
:102DC300444444447800000000000000003C4440B8
:102DD30040443800000000000C04043C44444444D4
:102DE3003E000000000000000038447C40443800EE
:102DF300000000001C2420F8202020207800000080
:102E030000000000003C484830407844380000008F
:102E1300C040405864444444EE00000000001000E9
:102E23000070101010107C00000000000800003833
:102E330008080808080870000000C040405C4850BB
:102E43007048EC00000000007010101010101010FB
:102E53007C0000000000000000F854545454D600D5
:102E630000000000000000D864444444EE00000069
:102E730000000000003844444444380000000000CF
:102E8300000000F8444444447840E000000000009F
:102E9300003C444444443C040E000000000000ECA9
:102EA30030202020F800000000000000003C4430E7
:102EB30008447800000000000010107C101010106F
:102EC3000C0000000000000000CC444444443E00D9
:102ED30000000000000000EE442828281000000035
:102EE3000000000000D654545428280000000000BD
:102EF300000000DC48303048EC0000000000000017
:102F030000EE442828101020E00000000000007CA0
:102F1300481010247C000010101010101010101016
:102F230010101010100001363601010001020100DB
:102F33000103010001040106060502000007010068
:102F4300340801000F090401010D0100FF0E080000
:102F53000017020000190100FF1A0100011B010004
:102F6300FE1C0100081D0200001F010001200100DA
:102F730001210200002301000F24020000260100AA
:102F83000127010008280200FF2A0100072B010284
:102F9300402C0100002D0100012E0100012F010032
:102FA300FF30010B1C310800003A0100083B01000F
:102FB3000F2F010000030071003001600011007049
:102FC300003102200350048000100061000000144F
:102FD30000630073007200620043000000130006E8
:102FE30000000000000400120000000000000000C8
:102FF3000004000400370037003C024400000000D6
:10300300000000000065000000350081000000059D
:1030130000000083000000010371030103010301A9
:10302300030103010322030203010310030003004E
:10303300030003000300030003000342030003240F
:1030430003060300030003040312032503230325DC
:1030530003230304030403000300030003440300E6
:1030630003000323030003650321003503810300E9
:1030730003050300030003000301017101010101C2
:1030830001110101013101010101018001100161FF
:10309300013B0014006301730172016201430100EB
:1030A30001130106013D0135000401120100010075
:1030B300010001000104010401330133013C014417
:1030C3000132013600000100016501000135008174
:1030D3000100010501820183010001030271023035
:1030E3000160021102700201020202020280021058
:1030F3000261023A004100630273027202620243F8
:10310300020002130238000002000204021202004D
:103113000200020002000204020402370037003CEE
:103123000244020002390000020002650200023577
:10313300028102000205028202830200020304717B
:103143000402046004110470040204020401040272
:10315300041004610400041404630473047204621D
:1031630004430400041304060400040004040412CA
:10317300040004000400040004510464000004007B
:103183000400044404000400040004000465040073
:103193000435048104640005040004830400043638
:1031A300000100060000000F000000000000000006
:1031B300000000000003FFFF00000403FFFF000006
:1031C300FFFF0FF4010005C4040320000100030BFB
:1031D300000000000000000003010F00009922130B
:1031E300001522010099220200CD210300D32104FE
:1031F30000D9210500DF210600EB2111000922146B
:10320300000F221500FD21FFFF00000115160645E2
:1032130016083F160B5116109115021B160533168F
:103223000721160CF7150D0916FF000003EAF5E553
:10323300D5D5C5B5A59595858575756565555545EB
:1032430045353525251515051D1A4D1A231A291A35
:10325300471A3B1A351A531A591A5F1A6B1A2F1A3F
:10326300171A111A00160F00000B150B0200022289
:103273000F320000060D1B1F1B251BE7192B1BE13B
:1032830019ED1921191B1957195D19511909196DCF
:103293001B8B1B911B731B7F1B791B0001191618BA
:1032A3001616152303000C0E020B040B0A07080065
:1032B3000F00034948424D181725050200383C3ECC
:1032C300363B3B352B432C303017181921301B1D4F
:1032D3001F30303016181920231A1C1E30611B3181
:1032E3001B371B431B3D1B411A651A851B711A773C
:1032F3001A0204020101010109022D1933192719C8
:10330300631900000000000039194B1900BE040ABC
:103313000E00150004007F00E8030C0028000000E5
:1033230000000308100C0A03080900040001FF1E33
:103333001E0C05040F1008C082C0838A828B83E0B1
:10334300D2E7F012211F024509C082C0837900121F
:1033530038061266D6C082C08390033412545CD000
:1033630083D082C3E09CA3E09D500C126DAAFAA304
:10337300E012337D600109024509FBEA75F00BA4F5
:10338300FAA8F075F00BEBA428FB900336E02AF8BB
:10339300A3E03B8882F583E0540F2274F7120A708E
:1033A30089081238061238ACACF075F00BE9A42C7E
:1033B300F9900336E028FEA3E039FF740165086045
:1033C300067402650870208A828B8312389812472C
:1033D3003874026508701B1237571238DF70138E6A
:1033E300828F83E4F0800BEA2403FCEB12387A1219
:1033F3003886EEFAEFFB12299502469574F4120A09
:10340300701276D179008E828F83E06076890A8983
:103413000B8065E50A75F00BA4FAA8F075F00BE5CF
:103423000B12338A7046E50A75F00BA4F8AAF075FF
:10343300F00BE50B1238BE8E828F83E08508828500
:1034430009831239A0850882850983A3124738EEC0
:103453002403FCEF123883124516126150AA08ABFD
:10346300091229957901900334125B65E50A240159
:10347300F50AE50B3400F50B12375FE50A9AE50B05
:103483009B40900248E274F5120A70EAFEEBFF7467
:103493000B12134A12451B750A01EC4D602BEC12FB
:1034A30076EDED1266D61247307901122959E508F7
:1034B3004509606F850882850983A31276DB79024B
:1034C300AA08AB09122959805AE5084509602B124D
:1034D30066DA124DA41245171238C9700CEEFAEFD2
:1034E300FB122953E9F50A80CBEE2403FA123801C3
:1034F30070317903EEFAEFFB80CA8E828F83A3E0EB
:1035030064FE7003A3E0F4700BEE24030A0A0A12AC
:103513003801700CEEFAEFFB122953E9F50A800328
:10352300750A00A90A7F03020D2474F7120A70902A
:1035330003341246A5EA4B602FEA75F00BA4FAA8F0
:10354300F075F00BEBA428FBEAFEEBFF121F1B90B8
:1035530003361246A59003361259AA6012EEFCEF09
:10356300FD7900121E5B8007900336E4F0A3F0029E
:103573004695900334125114C3EE98EF9922C082FA
:10358300C083EC4D60051227B580097C087D007966
:1035930000121E5B02450974F6120A707900EA4BA9
:1035A300601878008808126A1DEB126DA660047912
:1035B30001780808E8C3940840EA02474174F71207
:1035C3000A7074F3121106ECFEEDFF85188285195B
:1035D30083E4F00412134AEAF0A3EB125ED67403F9
:1035E30012134AAC82AD83EEFAEFFB122941EEFAD5
:1035F300EFFB1228B702469074F7120A7074F312A5
:103603001106ECFEEDFF851882851983E4F0EAFCD0
:10361300EBFD740312134A123999740112134A12FF
:10362300472C8E828F8312473874FE68700374FFB1
:1036330069600479018002790002469074F7120AE6
:1036430070EAFEEBFF12369D70141236A88E828F3D
:1036530083E0F4F88A828B83E058F0122995A90855
:1036630002469574F7120A70EAFEEBFF7508008EA6
:10367300828F83E0602212369D701D1236A88A82E3
:103683008B83E08F838E82F8E058700CE0F88A8297
:103693008B83E048F012299580C4122977E9F50855
:1036A30074016508221276E61238B01237F2FAA3D3
:1036B300E039FB2274F4120A708A088B097C007DBE
:1036C300001237571238861238171276D8790085C8
:1036D3000882850983A3E064FE7003A3E0F46071AC
:1036E3007E007F008062EEFAEF12337D6057EEFAC0
:1036F300EFFBEA75F00BA4FAA8F075F00BEBA42826
:10370300FB900336E02AF50AA3E03BF50B8508821C
:10371300850983A3125E24850A82850B83A3E06A4D
:103723007003A3E06B701EE50A2403FAE50B12385D
:1037330002700AE50A2403FCE50B12388312380BE6
:1037430079011266EC1240F612375FEE9AEF9B4056
:10375300950248E2EA24030A0A0AEB229003341290
:1037630062C3C32274F3120A708A088B098A828B9C
:1037730083A31276DB1238061276D8750C00123743
:103783005712380270547E007F0080491237E4FAE2
:10379300A3E0398A82F583E0540F60361237E4F5EB
:1037A3000AA3E039F50BE50A2403FCE50B12388D77
:1037B3003400FB1227AFE964017017850A82850B79
:1037C30083A3126384A312473812380B750C0112BA
:1037D30066EC1240F612357540B2A90C7F05020D56
:1037E30024EEF8EFF9E875F00BA4F81237F222AAE9
:1037F300F075F00BE9A42AF9900336E02822EF12C2
:1038030038D9221276ECEB221238171266E7EEF063
:10381300A3EFF022E5081276EDE5092274F5120A0A
:1038230070EAFEEBFF8E828F83A31276DB7C007D32
:1038330000EE24030A0A0AEF123886EEFAEFFB12AF
:103843002977E9F50A7401650A70291276E61238B8
:10385300ACAAF075F00BE91238BE850882F5831225
:1038630038981238C9700DE5082403FCE5091238AD
:103873007A1238860235263400FDEE2403FAEF224D
:1038830012388D3400FB122941223400FDE508244F
:1038930003FAE50922A312389D221238A122E0F887
:1038A300A3E0F98E828F83A3221238B0223400F56D
:1038B30083125118E875F00BA4F8221237F8F508B3
:1038C300A3E039F50922E8F0A3E9F0E5082403FAB7
:1038D300E5091238D9221238DF6401223400FB12C1
:1038E30028B7E92274F3120A7074E61211061276ED
:1038F300D1750C01750800750900750A00750B0078
:10390300851882851983E4F0EE2403FCEF3400FD6F
:10391300740312134A123999E964017023740B1268
:10392300134A124730740112134A125E287003A31C
:10393300E06960518518828519838582088583092A
:10394300740D12134AE41239A0740E12134A12476B
:1039530038740D12134AAA82AB8312135DE9640112
:10396300700B740D12134A85820A85830B780A1231
:103973001044AC08AD09EEFAEFFB12294D740212A4
:103983001072E9F50CEEFAEFFB121E55A90C741A2E
:103993001210720237DF123C6C121363221246A01C
:1039A30012511422C082C083780079008003123A36
:1039B3009712375FE89AE99B5029E8FAE9FBEA7521
:1039C300F00BA4FAACF075F00BEBA42CFB900336D0
:1039D300E02AFCA3E03B8C82F583E0540F70CF799F
:1039E3000080027901024509C082C0839033151219
:1039F300516AEC75F012A4FCA8F075F012EDA4283E
:103A0300FD79FF7A387B09121E5B02450974F712B0
:103A13000A70E9FEEAFF7A007B00780079008028CB
:103A2300E8FCE9FDEC75F012A4FC85F00875F012D2
:103A3300EDA42508123EACC39E400AE0FCEFC39CF4
:103A43004003123FCB123A97123EA040D302469551
:103A5300C082C083780079008003123A97123A8BB0
:103A6300501F123EB0F470F2E875F012A4F8AAF0F9
:103A730075F012E9A42AF9743828FA740939FB801D
:103A8300047A007B00024509903315123F61C3E8B5
:103A93009AE99B22E8240108E93400F92274F01220
:103AA3000A7074F31211068A0A8B0B8C0C8D0D8924
:103AB30008EC450D6016AA0CAB0D1213B18A0E8BE0
:103AC3000FAE0EAF0FEE4F6003023B5E1213878AF9
:103AD3000E8B0FA80EA90FE8FEE9FFE849607C9062
:103AE3003323123BC06022740365086006740465C7
:103AF3000870167A047903121381903323123BD78B
:103B030040077A007B00023BBD903321123BC0602B
:103B13001B74016508600674026508700F7A0279E8
:103B230001121381903321123BD750D68518828519
:103B330019837401F012134A126150AC0CAD0D7469
:103B43000312134A123C65740B12134A12452312D3
:103B53004B18E41261381218618004EE4F604A7802
:103B63000074FF2508C39404500278048E828F8367
:103B73001261508E828F83A3A3A3A3E508F0E88E7E
:103B8300828F83A3A3A3A3A3126158120818123F21
:103B9300788E828F83A3A3A3A3A3A3A3F0123F6F63
:103BA30012131F1266D0121313123BC54005900E59
:103BB30094E4F012173BEEFAEFFB02511E1262720D
:103BC30049227A047900121381903315126D8CEA1D
:103BD30098EB9922123BF0758333758215E493C3F6
:103BE30098F8A3E49399F9C3EA98EB9922E493F83C
:103BF300740193F92274F2120A7074F31211068A93
:103C0300088B09ECFEEDFF750A00EEFAEFFB1213C9
:103C1300B18A0C8B0DA80CA90DE849603E888289F6
:103C230083E065087004A3E06509602F88828983B7
:103C3300A3A3A3A3E0C39405502112657E85188234
:103C43008519837401F012134A126582EEFCEFFDAD
:103C5300740312134A123C65750A01A90A740D0212
:103C63005C1C123C6C12136F22AA82AB8312294193
:103C7300851882851983AA82AB832274F6120A708F
:103C8300123CBA600FA3A3A3A3E014C3940450048B
:103C930079018002790002474174F6120A70123CDE
:103CA300BA600FA3A3A3A3E014C394025004790141
:103CB300800279000247411213AB8A828B83E5822B
:103CC30045832274F6120A70123CBA600BA3A3A3B5
:103CD300A3E07004790180027900024741C082C0E9
:103CE30083EAFCEBFD7A007B00024506C082C083B9
:103CF3007C007D0002450674F4120A7074F31211FD
:103D030006EAFEEBFF8C0A8D0BC3EC94F8ED94FFEF
:103D13004007EE4F7003023DB3750800750900803C
:103D23002E8518828519837401F012411E12134ADD
:103D330012412C6013740312134AAC82AD83EEFA62
:103D4300EFFB1227AFE97049E5082401123F4C90BD
:103D53003315E412627AE50898E509995052E508AB
:103D630075F012A4F8AAF075F012E509A42AF91265
:103D73006DBF60D4EE4F70A974FF650A700474FFC1
:103D8300650B60C412410E650A7004A3E0650B70F5
:103D9300B7E50875F012A4F508A8F075F012E50967
:103DA300A428F50974382508FA74093509FB800439
:103DB3007A007B000248DD74F4120A7074F3121166
:103DC300067508001213B18A0A8B0BAE0AAF0BEE0D
:103DD3004F602A851882851983740112469AF8A3C5
:103DE300E0F9740B12134A1247BB1228997C127D17
:103DF3000079FFEEFAEFFB121E5B750801123BC55B
:103E03005009900E947401F012173BA9080248DD83
:103E130074F7120A70E9FE74FE6A700374FF6B781C
:103E230000790070058052123A97123EA0504AE87A
:103E3300FCE9FDEC75F012A4FCAFF075F012EDA4F3
:103E43002F123EACF460E0E8FCE9FDEC75F012A43F
:103E5300FC75F012EDA42FFD74382CF58274093D26
:103E6300F583E06A7003A3E06B70BC8009123EB077
:103E730014C394044017123A97123A8B5018EE70F9
:103E8300EC123EB064016005E0640370E91240FF88
:103E9300FAA3E0FB80047AFE7BFF0246959033157C
:103EA30012516EC3E89CE99D2212400022E8FAE910
:103EB300FBEA75F012A4FAACF075F012EBA42CFB3C
:103EC300743C2AF58274093BF583E0221213C30282
:103ED3004509C082C083790180F274F0120A708AA6
:103EE3000A8B0B7A0479011213818A0C8B0DEA4534
:103EF3000D603EEAC333FAEB33FB121F1B8A088BB8
:103F030009AE08AF09EE4F60237AFE7BFF1213C997
:103F130074FE6A700374FF6B601B850882850983D6
:103F23001246A5E5082402123F4C80E1750C00807F
:103F3300047E007F00850A82850B83E50CF0EEFA90
:103F4300EFFB025123E5082407F508E5093400F5E2
:103F5300092290331512516EC3EA9CEB9D22E49320
:103F6300FA740193FB22121E4F7403221266E1E4DA
:103F7300F09081AE22E88E828F83A3A3A3A3A3A391
:103F8300A3A3123F9A7401123F9AA3F0EE241012D6
:103F930066E4E4F0A3F022124B24A3A3A322C0827D
:103FA300C0837A007B00800419123FCB123F555027
:103FB30010123FEAC3940550F0E970EC123FD4802D
:103FC300047A007B00024509EA24010AEB3400FB72
:103FD30022EA75F012A4FA75F012EBA428FB7438E8
:103FE3002AFA74093BFB22EAFCEBFDEC75F012A400
:103FF300FCA8F075F012EDA42812400022FD743CD9
:104003002CF58274093DF583E02274F7120A70746B
:10401300F31211067E007F000240B2E50875F01727
:10402300A4F8A9F0127020FAA3E0FBEEF8EFF9E888
:1040330075F012A4F8ACF075F012E9A42C12410D3E
:104043006A7003A3E06B603FE50875F017A4F8AA54
:10405300F0EA12701FF8A3E0F9740112134AE06842
:104063007003A3E0696020E50875F017A4F8EAF986
:1040730074B428FC740A39FD740312134AAA82AB80
:10408300831227AFE96014E50875F017A4F8A9F0C7
:1040930074B228FA740A39FB12186D050890332795
:1040A300E493F8E508C398500302401E1240F690CB
:1040B30033151273665039EEF8EFF91240FFF470BE
:1040C30003A3E0F460E68518828519837401F0EE9A
:1040D300F8EFF9E875F012A4F875F012E9A42AF9DB
:1040E30012411E12134A12412C60C175080080ADA3
:1040F300024690EE24010EEF3400FF22E875F01221
:10410300A4F8AAF075F012E9A42AF9124112227454
:104113003828F582740939F583E022743A28F58248
:10412300740939125112740B22E8F0A3E91247C340
:10413300121369E922C082C08390033D742DF0A35A
:104143007416F090033F7427F0A37416F0900343A2
:104153007447F0A37414F002450974F7120A70EA65
:10416300FEEBFF900377E06408601BE064046016D5
:104173008E828F83E0540364017048124516124CFB
:1041830019E06406703D8E828F83A3A3E064FE7002
:1041930003A3E0F4602D8E828F83A3A312472C9098
:1041A3000368E0687003A3E069700BEE2415F582E1
:1041B300EF126DA660081216DBE9F50880081216E7
:1041C300E180F67508C2EEFAEFFB121F2102366199
:1041D30074F4120A708A088B098A828B83E0F8A32D
:1041E300E0FAE82AFAE43400FB121F1B8A0A8B0B5D
:1041F300AE0AAF0BEE4F6063850882850983E0FC4E
:104203007D007900121E5B8E828F83A3A31276DB5F
:1042130012171D8E828F83A3A3A3A31246A585081D
:1042230082850983E0F8EE28F8EF340012473485DD
:104233000882850983A3E0C0E0EE240D1266D3D083
:10424300E0F012172FEE240E1266D3E9125D85E01B
:10425300C0E0EE24111266D3D0E0F0EEFAEFFB02D9
:1042630048E274F4120A7074EB1211068A088B097F
:104273008C0A8D0BE9FE900377E064046005E0642B
:1042830008700479C2802EA378081212BBEE900343
:104293007E1245101212BB740512134AE9F074041E
:1042A30012134A7401F0740712134AE4F09003776F
:1042B30074021244A474150248DF74F6120A70746F
:1042C300EB121106EAFEEBFF1259A76003024361EA
:1042D3007A077B00121F1B9003391246A51259A7B8
:1042E30060788E828F8312131F90033A124C1C1234
:1042F300131312759FC0E012436DD0E0F0EE240556
:10430300FAEF3400FB8A088B098A82F583E0C0E068
:10431300124368D0E01248D9E0C0E0124368A3D04A
:10432300E012471912131F8518828519831213137C
:1043330088828983E0C0E0740512134AD0E0F085D7
:104343000882850983E0C0E0740412134AD0E0F0C8
:10435300740712134A1244A380067910800279016C
:10436300741502473E12436DA322900339E0FAA36A
:10437300E0F5838A82A3A3A3A322C082C083125938
:10438300A7600D9003391262B1900339E4F0A3F0F2
:1043930012164B12180D02450974F0120A7074EBD1
:1043A300121106ECFEEDFF8908742512134A780CEE
:1043B3001212E8742912134AE0F9742A12134AE01C
:1043C300FC742B12134AE0FD740F697005740F6CB3
:1043D3006012900EF0E06402700579C102449EE918
:1043E300C39C40F6900378780C1212BBE508900347
:1043F3007EF0E990037CF0ECA3F0ED90037FF07482
:10440300FF6A700374FF6B701D900EFBE0F4700382
:10441300A3E0F47005121E73800C900EFB12466D20
:10442300E8F0A3E98007900375EAF0A3EBF0EE4F01
:104433006017EEFAEFFB1218CDE96401700BEEFC86
:10444300EFFD7A897B031227B5900368E4F0A3F0AC
:1044530090036BF0A3F0900388F0900EF0E06402F9
:10446300700890037C740FF0A3F09003777405F049
:104473001412134AE4F090037812131F85188285EF
:10448300198312131390037EE0C0E0740512134ADC
:10449300D0E0F0740712134A1244A374150251209A
:1044A300E41247C31227E522C082C083900338E099
:1044B3007003122203121411804CC082C083900334
:1044C30038E0900E937004E4F0802D7401F09003B3
:1044D30038E0F460237C41E0C394415002E0FCECFB
:1044E300F8E0C398F0EC75F0E8A4CCA8F075F003FD
:1044F300A428FD7A801251767A937B0E7941122794
:10450300CD80031213B7D083D08202102412472424
:10451300780822EE1266E222E0F508A3E0F509220C
:10452300124527221238A1A32274F5120A7074E2ED
:10453300121106851882851983ECF0A3EDF0EAFECB
:10454300EBFF8908742912134AE0F509742C12133E
:104553004AE0F50A900377E064046005E0640870BC
:104563000579C202465E742A12134AE064FE7003A0
:10457300A3E0F4700579C302465E900377740312D7
:1045830047BF79501227CD742A12134AAA82AB83EC
:10459300794B1227CD85188285198312466D1247F0
:1045A30038E50890036AF0742A12134A1246661219
:1045B3004738E50990036212467474CE5509448066
:1045C300C0E0741212134AD0E0F07401250A90037C
:1045D30088F0740F12134A7402F0742A12134A12E9
:1045E300472C740712134AE8F0A3E91246AB741080
:1045F30012134A124738740512134AE508F0741B64
:1046030012134AE4F090037D740FF07A7D7B0379F3
:10461300541227CD90037C740FF07A7C7B03794787
:104623001227CD90037CE0C3940F5023740512131B
:104633004AE0C0E0740212134AD0E0F0740412138B
:104643004A7401F00412134AAA82AB831227F1744D
:104653000512134AAA82AB831227D3741E12107257
:1046630002352812511490036B22125114900375D2
:1046730022F0EEFCEFFD7A897B031227B52274F753
:10468300120A70EB90037FF01216398005740D1235
:1046930010727F01020D241246A0A3E022124719D3
:1046A300A322EAF0A3EBF02212471FF8A3E0F922BA
:1046B30074F7120A7074F8121106EAFEEBFF790020
:1046C300900377E06408704485188285198374FD2C
:1046D300F0A374FFF0121717740212134A1246A5BF
:1046E300740512134AE41246A0E0C0E074041213E6
:1046F3004AD0E0124714C0E0740612134AD0E0F027
:10470300740712134AE41247BF121759740802467A
:1047130092124719E022F08E828F8322124724E0FF
:1047230022F08518828519832212511422E0F8A3FE
:10473300E0F91266E1E8F0A3E9F0221210727F02B9
:10474300020D24C082C08390034974D7F0A374146C
:10475300F09003EF74B3F0A37417F090034D740D4E
:10476300F0A37415F090034F74D7F0A37414F09072
:1047730003517413F0A37415F002450974F4120A7B
:104783007074F91211068A088B098C0A8D0B85182F
:104793008285198378081212BB740412134AE9F054
:1047A300740512134AE4F0740612134AE41247BF65
:1047B3001213F974070248DFE8F0A3E91247C32292
:1047C300124724AA82AB832274F4120A708A088BDC
:1047D300098A828B831266EFEE4F70030248D790EB
:1047E30003121259AA60158A828B83A3A3E0F9EE00
:1047F300FAEFFB900313124C1C122A1E8E828F8336
:10480300A3A3A3A3A3A3A3A3A3E0640270748E82B0
:104813008F83A3A3A3A3A3A3E0540270030248A915
:10482300850882850983A3A3E064E960798E828F7A
:1048330083A3A3A3A3A3A3A3A3A3A3E07014900E92
:10484300F3E0048E828F83A3A3A3A3A3A3A3A3A3B1
:10485300A3F08E828F83A3A3A3A3A3A3A3A3A3A342
:10486300E0141248D9A3A3A37404F0900EF41261C8
:104873002AE8F0A3E91272038B0BEA450B700312CB
:104883006BE18E828F83A3A3A3A3A3A3A3A3A3E01C
:10489300640260128E828F83A3A3A3A3A3A3A3A303
:1048A300A3E06406702E8E828F83A3A3A3A3A3A386
:1048B300E0A2E0501F850882850983A3A3E0F9EEF7
:1048C300FAEFFB1228FF8E828F83A3A3A3A3A3A3D4
:1048D300E054FEF08009124B2022740D1210727FF7
:1048E30004020D2474EC120A7074DD121106EAFE40
:1048F300EBFF8C088D09743712134A780C1212E8F7
:10490300750A00740512134AAC82AD8312286F74C2
:104913001212134AE07008741512134AE0602074EF
:104923000512134AE0A2E6501E8E828F83A3A3A32F
:10493300A3A3A3A3A3A3125E2412178FE96008798C
:104943000312279D024B06740512134AE0540C64AC
:10495300047005750B018003750B00E0A2E550356B
:10496300750A01E50BA2E0402C12171D8A108B116A
:10497300A810A911124516E0687003A3E069601539
:10498300740512134A1276E2125E2012290BE960B3
:1049930004790480AC740512134AE0A2E650227431
:1049A3000612134AE054037018740512134AE054B4
:1049B3000C640C600CE0540C6408600575100180F5
:1049C30003751000740512134AE05403F874026867
:1049D300700C1276E2125E2012285D024B067401FF
:1049E30068703AE510A2E05003124B0E74051213DF
:1049F3004AA882A983740312134AE8F0A3E9125167
:104A030008851882851983124B18E0C0E0740212DE
:104A1300134AD0E01247BF1229EF024B06E86003A6
:104A2300024B0690035FE0640170108E828F83A3B4
:104A3300A3A3A3A3A3E07003024994742212134A0D
:104A43007402125108741A12134A124738E510A25D
:104A5300E05008740512134A124B0EE50BA2E05006
:104A63006AEE240FF582EF126DA6C0E074171213DD
:104A73004AD0E0F09003141259AA7003024B0612B5
:104A8300171D8A128B13A812A913741A12134AE062
:104A9300687003A3E069706B780C12103C780A12FB
:104AA30010487808121044A910740C12134AAC82EF
:104AB300AD83742112134AAA82AB83900314124C60
:104AC30019122A1E74071210728038780C12103CC7
:104AD300780A1210487808121044900375120E5A7F
:104AE300EE2412F582EF126AD4742312134AAC82B5
:104AF300AD83740E12134AAA82AB831228F374098E
:104B030012107274231210720271CE1276E21262C4
:104B1300BF12286922E8F0A3E9124B2022124B248A
:104B230022F08E828F83A3A3A3A3A3A32274F712DD
:104B33000A701220D702469574F7120A701220DD0C
:104B430002469574F7120A701220E9024695C08254
:104B5300C0831220E302450974F7120A701220EF92
:104B630002469574F7120A70740912134AE0F508A5
:104B730078081210481220FB7401024692C082C0CA
:104B830083122107024509C082C08312210D024509
:104B93000974F7120A7012211302469574F7120A68
:104BA30070EAFEEBFF89087401650870147900123E
:104BB300154F903332E493FC7900EEFAEFFB1214B5
:104BC300C502469574F4120A7074F9121106E9FECF
:104BD3008A088B098C0A8D0B741312134A125E24F4
:104BE3009005AC1259AA6027EE851882851983F0C7
:104BF300740112134A78081212BBEAF8EBF9740530
:104C030012134A1247BB9005AC124C19122A1E020A
:104C130047B6FB90034BE0F8A3E0F583888222C0FC
:104C230082C08312214902450974F7120A70900E5B
:104C330096E0F97E00800B126D92540D64017001B1
:104C4300190E124E265003E970ED02469574F712C1
:104C53000A70900E97E0F97E00800B126D92548DCE
:104C630064817001190E124E265003E970ED02465D
:104C73009574F2120A70890BE975F006A4240CF5F9
:104C830008E5F0123F508A0CE508250CFAE50934D3
:104C930000FB121F1B8A0C8B0DAE0CAF0DEE4F6089
:104CA30027AC08AD097900121E5B124516E50BF01F
:104CB300EE2508F8EF3509F98E828F83A3A3A3A30A
:104CC300A3A3A3A3A3124738EEFAEFFB025C1F745E
:104CD300F6120A70EAFEEBFF1214A1900E95E0F8AB
:104CE300E9C3984009900345125E241214A7EE24E9
:104CF30002F8EF1264349003471262EE900347E028
:104D030004F0EEFAEFFB1214AD850882850983E007
:104D13000268EAC082C083790090034580010912CA
:104D23005E248A828B83E582458370F2024509748F
:104D3300F7120A70EAFEEBFFEE4F6056900345123E
:104D430059AA604E888289837A007B00EE6582705F
:104D530003EF6583600FAA82AB83124D98E582450A
:104D630083602F80E7900345124DA4687002EF69BA
:104D73008E828F83700812472C9003458003127133
:104D8300E0124738EEFAEFFB1229BFEEFAEFFB12FF
:104D93001F21024695124D9C221251188882898345
:104DA30022125114EE22C082C083900345800488EE
:104DB3008289831259AA600B8882898312545CEC1E
:104DC3004D70EC8A828B83E4F0A3F0E84960068897
:104DD30082898380039003451246A502450974F72F
:104DE300120A7090034580048A828B83124E214BF2
:104DF30060257E0080010E124E2650ECEE75F00603
:104E0300A4FCADF0EA2CFCEB3DFDEC2410F582EDA7
:104E1300124E7670E180047A007B0002469512629E
:104E2300C3EA22124E7FEEC3982274F7120A707DF2
:104E33000080010D124E7BEDC3985034ED75F006E2
:104E4300A4FEA8F0E8FFEA2EFEEB3FFFEE2410F5E8
:104E530082EF124E7670DCED75F006A4FEE8FFEAF1
:104E63002EFAEB3FFBEA2411F582EB126DA64CF010
:104E7300024695126DB26922124E7F221276ECEB36
:104E83003400F583E0F82274F6120A701215C77A1B
:104E9300007B008025EAF8EBF9E875F006A4F8AC8E
:104EA300F075F006E9A42C1262981275ADA3E41212
:104EB300638EF0A31275B312772A90331D123BCF82
:104EC30040D37A007B00801C8A088B09740378081E
:104ED300121245125D4CA374FEF0A30412616EA37B
:104EE300E412772A903326124F2940DC7A007B00A4
:104EF300801D8A088B097403780812124574DA122C
:104F03006A1E740D12726574FEF0A30412772A9060
:104F1300332C124F2940DB903330E493900353F04A
:104F2300124F33024741E493F8C3EA98EB9400220B
:104F33007CE87D037A107B009003C2E0F9121FE145
:104F43002274F0120A7074F51211068A088B09890B
:104F53000A8C0BE9A2E050147508FC7509FFA2E165
:104F63005005D2E4025006D2E3025006125C0B70E5
:104F730003A3E069700579000250D3AC0A7902AA51
:104F830008AB091215A3E960EDE50AF50C780C12DC
:104F9300104879027CFE7DFFAA08AB0912598612DC
:104FA3001072E960030250D1E50AC2E5F50A9003E5
:104FB300B5E07051E50AA2E6404B740312134AAC04
:104FC30082AD83AA08AB091228B1E970321252A745
:104FD3008A0C8B0DA80CA90DE8FEE9FFE8496025B2
:104FE300EE24020A0AEF1238DF601AEE2402FCEF05
:104FF3003400FD740312134AAA82AB831227B5E56A
:105003000AD2E5F50A900348E0F50C900368E0F551
:105013000EA3E0F50F780E1210447D017C0090037F
:1050230048E0F9AA0EAB0F12155B7402121072E975
:10503300F8900348E004F0E860030250D1E50AA2C7
:10504300E55004740E80027406C0E0740112134A22
:10505300D0E01267008A0E8B0FAE0EAF0FEE4F60DB
:10506300691250F1125108888289837401F07478AF
:10507300550AA31276F2E50C1276F2A3E508F0E5E1
:10508300091250E0E4F0E50AA2E5500F740312138D
:105093004AAC82AD83E824061250D78E828F83A355
:1050A300A374FDF0A374FFF0E50B6015903333E4B4
:1050B30093F8E50BC3985009EE24131266D3E50B5E
:1050C300F0EEFAEFFB1213E780067910800279C73E
:1050D300740B8049FAE93400FB1227B522888289D0
:1050E30083A3A3A3A31250EC22126467A322EE248A
:1050F300171266E47401F0121717EE241A1266E40D
:10510300EAF0A3EB22F01276E6340012511222F5F4
:105113008312511822E0F8A3E0F922740D121072E1
:105123007F08020D2474F6120A707A007B10126B4A
:10513300EE60089003D47401F0802990064DE0647A
:1051430001900EF17006E0FC79018004E0FC790324
:105153007A007B001214C590331B12516A7A007BCC
:105163001012517802474112516E22E493FC7401EC
:1051730093FD227B009003C2E0F9121FDB2274EC43
:10518300120A708A088B098C0C8D0D890E74141207
:10519300134A125B65741612134AE0F510A3E0F587
:1051A3001112178FE960077AFF7BFF0252A4900E5A
:1051B300F0E0640260030252977900AA08AB091277
:1051C30015A9A90E12159D8A128B13AE12AF13EEF9
:1051D3004F700302527F8E828F83A3A3A3A3A3E006
:1051E30064018E828F83A3A37069125E248E828FE3
:1051F30083A3A3A3A3A3A3E054186043903331E490
:10520300938E828F83A3A3A3A3F0EA650C7003EBB1
:10521300650D6014EA650A7003EB650B600AEA65C5
:10522300107003EB6511701F7810121044AC0AADB7
:105233000BAA0CAB0D12188B74021210728008901B
:105243000367126BD8A3F074FE6A700374FF6B607C
:105253001D804EA3A3A3E0640360298E828F83A3E2
:10526300A3A3A3A3E0640470057AFE0251AC8E826B
:105273008F83A3A3A3A3A3E0640270089003B4E005
:10528300640270101252A78B0BEA450B6006AA0842
:10529300AB09800DAA08AB09900349124C19122AD5
:1052A3001E0271CE90037512598C12184F2274F797
:1052B300120A70EAFEEBFF121399E9700AEEFAEF95
:1052C300FB1213A5E96006EEFAEFFB80047AFE7B7E
:1052D300FF02469574F0120A708A0A8B0B8C0E8DAE
:1052E3000F890975080012178FE9790060030254CA
:1052F3004EAA0AAB0B1215A9A90912159D8A0C8B8C
:105303000DAE0CAF0DEE4F60198E828F83A3A3A356
:10531300A3A3E0640270559003B4E0640270030237
:10532300544CAA0AAB0B90034F124C19122A1E12AB
:1053330013AB8A0C8B0DA80CA90DE849700302541A
:105343004C88828983A3A3A3A3A3E0A2E040030222
:10535300544C750C01A2E150687901AC0AAD0BAA5B
:105363000EAB0F1214F5E9706402544C8E828F83D6
:10537300A3A3A3A3A3E064037005750C0280528E5C
:10538300828F83A3A3A3A3A3E06401600302544C0D
:1053930090037512545C8E828F831257B18A0C8BE3
:1053A3000DA80CA90DE84960D190332AE493FA883B
:1053B300828983E0C39A50C2A3E0600302544C8005
:1053C300B988828983A3A3A3A3A3D2E1F0EE4F609C
:1053D3003A8E828F83A3A3A3A3A3A3E05418602BC5
:1053E3007508018E828F83A3A3120E5A750CFE7566
:1053F3000DFF780C1210447900AC0AAD0BAA0EAB6A
:105403000F1215BB7404121072803E900368E0659E
:105413000E7004A3E0650F7014903332E493FCA97B
:1054230009AA0AAB0B1214C5750801801CA90CACA0
:105433000AAD0BAA0EAB0F1214F5E9700C75080137
:10544300A909AA0AAB0B12154FA908025123E50CAF
:105453002415F582E50D1266E71261442274EA12FF
:105463000A7074F01211068A0C8B0D8C088D097466
:105473002612134AE0F514A3E0F5157512069003FE
:10548300F51259AA602390037512545CAA08AB095C
:105493001218798A108B11EA4511600D8A828B8369
:1054A300A3E070057900025799E50C241DF50EE57C
:1054B3000D3400F50F850E82125996F513888289F3
:1054C30083A3A3A3E0FA88828983A3A3A3A3E0F918
:1054D300EA2400FEE439FFAA08AB09121555850E2C
:1054E30082850F831257D4E029F50BE50AA2E55014
:1054F3000375120E7487550A70177418550A6418C9
:10550300600FE50C2417F582E50D126DA665126098
:1055130007790112279D808C530A78C3EE94F8EF24
:1055230094FF501D7900EEFAEFFB1257A360128827
:10553300828983A3A3A3A3A3A3E054186003025403
:10554300A778081210447D001257C7121072E9F8A9
:1055530074036870030254A7E860030256127418B8
:10556300550A70030256C7E50AD2E0F50AA2E450D1
:1055730004D2E1F50AA90A125E1D1257A3605388EB
:10558300828983A3A3A3A3A3A3E0541860448882BE
:105593008983A3A3A3A3A3E064017036E510451197
:1055A300603090037512545C888289831257B18AE4
:1055B3000E8B0FA80EA90FE849601788828983A371
:1055C300E0600F851082851183A31268F5500302F2
:1055D30054A7E50AF50E780E1210481257BA1210A6
:1055E30072E9702B7C007D0085148285158374FF1E
:1055F300F0A3F0850C82850D83A3A3A3A3A3A3A388
:10560300A3E06003125451A90B125E1D1221018500
:105613001482851583E0F47003A3E0F460399003EA
:10562300B4E0640270030254A7125B56E0FAA3E0ED
:10563300124C15122A1EEA65087003EB6509600314
:105643000254A7EEFAEF124C15122A1E8514828516
:105653001583EAF0A3EBF078081210447D0112578A
:10566300C7121072A90AEEFAEFFB1215A98A088B6A
:1056730009A808A909900368E0687003A3E06960BA
:105683000302578AEEFAEFFB1213AB8A088B09A8C1
:1056930008A909E849606E88828983A3A3A3A3E0CC
:1056A3006401600D88828983A3A3A3A3E0640270CD
:1056B30054851882851983AC82AD83EEFAEFFB1211
:1056C30028B18055900361E0600FE50AF50E780E6E
:1056D3001210481257BA121072E50AF50E780E121C
:1056E300104879027CFE7DFFEEFAEFFB1259861219
:1056F3001072E9600302561285148285158374FFC4
:10570300F0A3025659121717EAFCEBFD85188285A0
:105713001983AA82AB831227B5850C82850D83A3D7
:10572300A3A3A3A3A3A3A3E06401700F1254517412
:105733000812134AAA82AB831227B5125960126565
:105743006C4430F5087808121048740112134A8526
:1057530082088583097808121044740B12134A8552
:1057630082088583097808121044E513F508780840
:105773001210487900EEFCEFFD125E1D1214EF7457
:10578300061210720254A71259601266D61257D429
:10579300E50BF012172F74101210727F0E020D24F6
:1057A30012159D8A0E8B0FA80EA90FE84922A3A3F9
:1057B3001262C3121879227901AC08AD091262B8DA
:1057C30012598622AC0BA9131262B812155B74022C
:1057D30022126574A3A3A3A32274F0120A7074F0B7
:1057E3001211068A0C8B0DECFAEDFB750F08900372
:1057F300F51259AA60141268EE8A828B83E58245FA
:10580300836007A3E0700302595B125960340012EE
:105813005996F50B88828983125969E0FBEC2400C1
:10582300FEE43BFF88828983A3A3125969A3A3E003
:10583300FBECF508E43BF50988828983A3A3A3A3C2
:10584300A3A3A3E0F50EE50AA2E45003750F10A28B
:10585300E550067408250FF50F748F550A700FE590
:105863000C2417F582E50D126DA6650F600879010A
:1058730012279D02595B530A707800E50AA2E4508F
:1058830022125960126DA62408FCA3E03400FD74B3
:105893000812134AAA82AB831227B57808E50AC215
:1058A300E4F50AE50AA2E55028125960126DA6280C
:1058B300F8A3E03400F9E82408FCE93400FD851876
:1058C30082851983AA82AB831227B5E50AC2E5F55F
:1058D3000AAC0EA90BEEFAEFFB121561E9F874039B
:1058E300686075900368E06E7003A3E06F605EE824
:1058F3007054E50AF50F780F1210481259771210F9
:1059030072E97054780A121048740112134A85829E
:105913000C85830D780C121044740B12134A858284
:105923000C85830D780C121044E50BF50A780A12E6
:105933001048A90EAC08AD09EEFAEFFB1214EF7490
:10594300061210728012740468700D80B7780A1200
:1059530010481259771210727410025120E50C246A
:105963001DF582E50D22A3A3A3E0FC88828983A30E
:10597300A3A3A3227901125B5D1266E712598C126D
:10598300598622121519740122E0FCA3E0FDAA082E
:10599300AB0922F583124D9CA3E0F50A8882898323
:1059A300A3A3E02290033912631F2274E8120A7042
:1059B30074F5121106EAFEEBFF8C088D0989147445
:1059C3002312134AE0F50F742412134AE0F512A3CD
:1059D300E0F513742612134AE0F516A3E0F51774E5
:1059E3002812134AE0F50EA90F1215678A108B11BE
:1059F300740112134A7408F0E50EA2E45003741004
:105A0300F0E50EA2E55004E02408F085188285191C
:105A130083AA82AB831217778A0C8B0DEA450D702C
:105A230003025B3DEA2417F582EB125B4F12171753
:105A3300E50C241AF582E50D1266D61246A5740309
:105A430012134AAC82AD83AA10AB111228B1E960DC
:105A53001D125B47740312134AA882A983E50C2421
:105A630018F582E50D1266D6E8F0A3E98024E50E69
:105A7300A2E4501FE5106E7003E5116F7015125B01
:105A830047E50C2418F582E50D1266D6E512F0A35E
:105A9300E513F0125B56125B65850A82F583740287
:105AA300F0A3E50E125B6DE50FF0EE850A82850B20
:105AB30083A3A3A3F0EF850A82850B83A3A3A3A3E8
:105AC300125B6DA3A3A3E508F0E509850A82850BA4
:105AD30083A3A3A3A3A3A3F0AA10AB11121555E9A3
:105AE3002514850A82850B83A3A3A3A3A3A3A3F0F1
:105AF300750800E50EA2E45011AC12AD13E50A24BB
:105B030008FAE50B1250D9750808E50EA2E5501402
:105B1300AC16AD17E50A2508F8E50B3400F9E824BF
:105B2300081250D7850C82850D83A3A3E510F0A33B
