:020000040000FA
:060000000212980207BA8B
:03002B000210BF01
:03003300020E704A
:03004300020F5B4E
:030053000206EBB7
:03006B00020E562C
:1000830002074F0101FF0503013018301830183003
:1000930018EC16E6163018FF2B00000000612C0048
:1000A3000000000C0000000C0001040000101A0006
:1000B3000000000000D01A00000000000000000053
:1000C30000FFFF0101010021050000007205E803A4
:1000D30064006400B801020200080000050207057D
:1000E3001E02051E0A03B80B020102F1FF021F00E4
:1000F300E0079651180002020612303132333435CC
:100103003637383941424344454600286E756C6C96
:1001130020706F696E74657229003F3F3F000000D5
:10012300807F0000803FF9021550B743BA510000A9
:10013300204100E7DB2E0000A04010000000080073
:1001430000000A0000001212E460461212B7603D7C
:10015300E9687008F618F618F618F622748067F73F
:1001630012017D090909748067F7221212B7601D15
:100173001212E47005191919801A121131701F1225
:10018300115BC37003E66733191919400718181870
:100193002208080874FFF618F618F618F62212114A
:1001A3005B6017121323702192F012132D701950F4
:1001B3001720F014080808090909E7F61819E7F6E3
:1001C3001819E7F61819E7F62212132D60E6E86905
:1001D300701F0808E62480F608E436F618547FB446
:1001E3007F0CE654806007F6E418F618F622181818
:1001F30022E9C6CC08C6CD08C6CE08C6CFC0E0E803
:10020300C0E0EAC0E0EBC0E009E9F809E7FA09E772
:10021300FBE6F918E6F8C3EC98ED99EE9AEBC2E722
:10022300F5F0EFC2E795F0500E600CEBCFFBEACE92
:10023300FAE9CDF9E8CCF8EAA2E7D2E7FAEB33FB27
:1002430013F5F0EEA2E7D2E7FEEF33FFC5F013A2FA
:10025300E730E601B313C5F0C3C0E0C0F07F00C3CD
:100263009BFB605B9418600C401AD0E023F9D0E04C
:10027300F802034C8AF0E9486003D2F0E4AFF0FAE5
:10028300F9F8803BEB30E40D89F0EA6003D2F0E447
:10029300AFF0F9CAF8EB30E30D88F0EF6002D2F06B
:1002A300AFF0E4CAC9F8EB54076014FBC3EA13FACE
:1002B300E913F9E813F8EF135002D2E0FFDBEDD0B6
:1002C300E0C0E030E739C3E49FFFF5F0EC98FC426F
:1002D300F0ED99FD42F0EE9AFE42F0D0E0F9D0E065
:1002E300F8E5F0607AE923F9EE20E742D802806767
:1002F300C3EF33FFEC33FCED33FDEE33FE80EAEC6A
:1003030028FCED39FDEE3AFED0E023F9D0E0F840C9
:1003130002801BC3EE13FEED13FDEC13FCEF135031
:1003230002D2E0FF08B800067F7F74FF802EEF3310
:1003330050178CF020F00260100CBC000C0DBD00B7
:10034300080EBE000408E860DFE933E813FFEE237C
:1003530013FE4F4D4C8008E95480FFE4FEFDFCEE94
:1003630033EF33F47004FCFD7E80D0E0FBD0E0FA81
:10037300D0E0F8D0E0CFC618CEC618CDC618CCC68C
:10038300F9221212B77004181818221212E4700D11
:1003930074FFF61819F61819F61819F622E754809F
:1003A30066F612132D700F12132370F014F608F66D
:1003B30008F608F680D1121323700CF608F60876B7
:1003C3008008E6447F80EC12115E700C12113460D9
:1003D300BFE65480F6E480BB121134700519191975
:1003E30080A5E869700C763F18768018F618F6E851
:1003F300F922E6CDC0E018ECC0E0E633CD33CDD32F
:1004030013F6E719FCE7191933CC33C3947F400E75
:10041300CD9D502408E65480F6E418F6800FF404CA
:100423003D14501408E6447FF6187680E418F61855
:10043300F6D0E0FCD0E0FD22CCD313CCFD18E4C60B
:10044300CBC0E018E4C6CAC0E00808ED08C633E62E
:1004530013F618E433C675F003C3CA97CA09CB97DA
:10046300CB199C40047D08802EBD000302052E1687
:10047300B6FF050606081618C3CA33CACB33CB33F7
:10048300CA27CA09CB37CB193CC37D08803E187DE8
:100493000820E75CC633C6CA33CACB33CB33DDF19E
:1004A300D5F0EB30E77BCA97CA09CB974ACB199CA7
:1004B300406F4B7025E620E0218066187D08C3CA93
:1004C30097CA09CB97CB199CD3C633C6CA33CACBB9
:1004D30033CB3350C9DDE7D5F0E1D3E4C636C608E4
:1004E300C636C608C636C608C636C61818188031BA
:1004F300C3CA97CA09CB97CB199CB34097C633C6D7
:10050300CA33CACB33CB33DD34D5F02EC6A2E0C613
:1005130040C8CA27CA09CB37194A70BECB3CB4803E
:10052300B90808E63308E633601F181818D0E0FA54
:10053300D0E0FBD0E0FCD0E0FD22187D08CA27CA3A
:1005430009CB37CB193CD3808013F618E4B67F115F
:10055300F618B6FF0EF618C60470D2080876808027
:10056300CAF618F618F680C5001212B7604F1212B9
:10057300E46012E7548066F61211317011121323EE
:10058300703B090909F4F618F618F618F622121149
:100593005B701512132D08080860EAE6447FF6180D
:1005A300768018E4F618F62212132D601612132320
:1005B3007012E4F608F608F608E65480F60909090D
:1005C30018181822EAC0E0EBC0E0ECC0E0EDC0E090
:1005D300E687F0A4FBACF008E687F0A42CFCE43536
:1005E300F0FA1809E687F0A42C4B60027401CA35AF
:1005F300F0FCE433FB09E687F0D2F7A42CCB35F00B
:10060300FC1908E687F0A42BCC35F0FBE433FD0896
:1006130019E687F0D2E7A42C4ACB35F0CD3400FCA1
:1006230009E687F0D2E7A42DCC35F0FDE433FA09CF
:1006330018E687F0D2F7A42CCD35F0CA3400FC08B5
:10064300E687F0D2E7D2F7A42ACC35F07A7E20E70A
:100653000B0ACB33CBCD33CDCC33CC33CB3350148C
:100663007004ED30E00ED2F1E4CD3DCDCC3CCC3B7B
:100673005005DA05C2F1EB547FC63308E63392F036
:10068300FBE73309E733C39A502D2B70190C0D4C3C
:100693004D70151806E608C333700D20F10AA2F059
:1006A30013F6E418800B4024E4F630F00276801849
:1006B300F618F618F68024D33B14501074FFA2F0FA
:1006C30013F6187680E418F618F6800FA2F013F6E6
:1006D30018E63303F618ECF618EDF6D0E0FDD0E09B
:1006E300FCD0E0FBD0E0FA22C0E074F2120ADAA2F6
:1006F300AFE433FED2AFE5A7FFE5A1F5085F5410E1
:10070300600612214875A1EFE5085F5408600812DE
:10071300214E75A1F7802BEFA2E0C0D0E508A2E03F
:1007230092F01211E6158182F05017906198E0F86B
:1007330090084BE0C398A2D265D0335002E8F0751D
:10074300A1FEEEA2E092AF7F01020B39C0E074F28A
:10075300120ADAA2AFE433FED2AF9061A4E0F875D7
:100763009B00E59158540860087591F71221968013
:100773002AE59158541060087591EF12219C801B53
:10078300E8A2E0C0D0E591A2E092F01211E6158153
:1007930082F05007E0C2E0F01222E09061A3E0F89B
:1007A300E5E9585404600E1222B675E9FB90619393
:1007B300E0A2E640F2808BC0E074F2120ADAA2AF44
:1007C300E433FED2AF9061A5E0F8E5BF585404606E
:1007D3000675BFFB1222F8020745C3E498F8E499B3
:1007E300F912081E8026C3E49AFAE49BFBE920E78A
:1007F300E912081EE498F8E499F922C3E498F8E4AE
:1008030099F912081EE498F8E499F9C3E49AFAE412
:100813009BFB22EB20E7CFE920E7E0B90010BB0008
:1008230008E88AF084F8AAF022E4FBC8FA22EB7005
:10083300227B10C833C8C933C9335007C39AC3DBFB
:10084300F280069A50012ADBEAC833F4C8C933F4AC
:10085300C9FA2275F008E4C833C8C933C933C99A41
:10086300C99B5004C92AC93BD5F0ECFBC833F4C873
:10087300E4C9FA221208B720F01430E72B74FFFC06
:10088300FBFA747F8022E4FCFBFA7480801AB48044
:1008930008BC00F2BB00EF800F50EBF9E4C39AFAF7
:1008A300E49BFBE49CFCE499C6CC18C6CB18C6CAEF
:1008B30018C6F922E4C9C608CAC608CBC6D333038F
:1008C30008CCC63392F0C3947F402E94184019C9C4
:1008D300B90704CACBCC225025C309CA33CACB33C8
:1008E300CBCC33CC33D9F422F4600DC9CCC313CBB6
:1008F30013CBCA13CAD9F6CC22E4FCFBFA2214FCAC
:10090300FBFA22080808EAC0E0EBC0E086F0E7A49F
:10091300FA180986F0E7A42AFA180986F0E7A42A48
:10092300FA180986F0E7A42AFA1986F0E7A4FBE58A
:10093300F02AFA190886F0E7A42BFBE5F03AFA1936
:100943000886F0E7A42BFBE5F03AFA18180986F0BD
:10095300E7A4C5F02BFBE43AFA1908E7C5F0C6A4EF
:1009630026F6E5F03BFBE43AFA1886F0E7A4F6E551
:10097300F00826F6E43B08F6E43A08F6D0E0FBD0AC
:10098300E0FA22080808E630E71112119912099ECD
:10099300080808C64480C618181822181818E979D8
:1009A3009EC608CAC608CBC608CCC6C370207996B3
:1009B300CACBCC7019798ECBCC70137986CC700EE0
:1009C300F9802ACA33CACB33CBCC33CC331930E7C3
:1009D300F2CCCBCA3350147004EA30E00DE4CA3AC7
:1009E300CACB3BCBCC3CCC500209C3E913C6CC18D1
:1009F3002313C6CB18C6CA18C6F922E4CFC0E0E455
:100A0300CEC0E0E4CDC0E0E4CCC0E075F020C3E6A6
:100A130033F608E633F608E633F608E633F6181835
:100A230018EC33FCED33FDEE33FEEF33FFC3EC97ED
:100A330009ED9709EE9709EF97191919400FFFEC84
:100A430097FC09ED97FD09EE97FE191906D5F0BE3F
:100A5300ECF709EDF709EEF709EFF7191919D0E0EB
:100A6300FCD0E0FDD0E0FED0E0FF222518C582C017
:100A7300E0E51934FFC583C0E0E518C3958224F887
:100A830010AF0885831985821880088583198582AC
:100A930018D2AFCEF0A3E520F0A37808E608F0A3C0
:100AA300DEFAEFF0A3E58124FAF8E608F0A3E608FE
:100AB300F0A3E608F0A30808E608F0A3E608F0A30D
:100AC30015811581D0E0FED0E0F8158115811581DF
:100AD300E8C0E0EEC0E022C0D02518C582C0E0E542
:100AE3001934FFC583C0E0E518C3958224F310AF22
:100AF300088583198582188008858319858218D211
:100B0300AFC8F0A3E9F0A3EAF0A3EBF0A37908E7F9
:100B130009F0A3D8FAECF0A3EDF0A3EEF0A3EFF005
:100B2300A3D0E0F0A3D0E0F0A3D0E0F0A3E520F061
:100B3300A3E5F0F0A322851983851882E0C0E0A322
:100B4300E0F9A3E0FAA3E0FBA37808E0F608A3DF4B
:100B5300FAE0FCA3E0FDA3E0FEA3E0FFA3E0C0E016
:100B6300A3E0C0E0A3E0F5D0A3E0F520A3E0A3F564
:100B7300F010AF088583198582188008858319854D
:100B83008218D2AFD082D083D0E0F8D0E0321213F3
:100B930018B90003020BD3E490030178A2790A8009
:100BA30002F0A3D8FCD9FA900CA2AA82AB839000DE
:100BB3008678C479018015E493A3AC82AD838A82DD
:100BC3008B83F0A3AA82AB838C828D83D8E9D9E788
:100BD30075821B7583B8740312101E7582FE7583AC
:100BE30025740012101EE8030875F0108E1A8F1B6F
:100BF30085821F85831E851882851983E0CEA3E035
:100C0300CF851F82851E83EBC9EAC8EDCBECCAC32F
:100C1300E833C8E933C9EA33CAEB33CBC3EA9EF5F9
:100C23001DEB9FF51CB35004AB1CAA1DEC33CCED9C
:100C330033CDD5F0DAAE1AAF1B221212B7601C12F5
:100C430012E4601712132D70071213237001D322BD
:100C5300C0D01213237006D0D0B322C32233D0D016
:100C6300501430E0F6C3E7960809E7960809E796BB
:100C73000809E796B32220E0D5E6970809E6970826
:100C830009E6970809E697B3221212B7601B1212FE
:100C9300E4601612132D7007121323600CB322C0E5
:100CA300D01213237005D0D022C32233D0D05013D7
:100CB30030E0EBC3E7960809E7960809E7960809C9
:100CC300E7962220E0E4E6970809E6970809E69705
:100CD3000809E69722D083D082ECC0E0EDC0E0E4BF
:100CE30093A3FCE493A3FDED4C600D120DB0EC2433
:100CF300FFFCED34FFFD80EFE493A3FCE493A3FD3D
:100D0300ED4C600D120EE0EC24FFFCED34FFFD8092
:100D1300EFD0E0FDD0E0FCE493A3C0E0E493C0E0B7
:100D230022851983851882E0A3FEE0A3F5207808C5
:100D3300E0A3F608DFFAE0A3FFE0A3C0E0E0A3C06E
:100D4300E0E0A3C0E0E0A3C0E0E0A3C0E010AF0890
:100D53008582188583198008858218858319D2AF07
:100D6300D083D082021024D083D082E9C0E0E49300
:100D7300A3C386F0C5F095F0F908E493A386F0C504
:100D8300F095F0700BE493A3C3994005E904800246
:100D9300A3E475F002A42582F582E5F03583F5839B
:100DA300D0E0F9E493A3C0E0E493C0E022C0E0C341
:100DB300E49396087401939618400FE493667008C1
:100DC30008740193661870007019A3A3C3E4939683
:100DD300087401939618A3A3400DD0E0D0E0D0E0AF
:100DE300020D14A3A3A3A3A3A3D0E022D083D08294
:100DF300C5F0E493A3C5F0C395F0F5F0E493A3C362
:100E030095F04005E5F0048001E475F002A4258225
:100E1300F582E5F03583F583E493A3C0E0E493C062
:100E2300E0227404800474028000CCC0E0EDC0E0D2
:100E3300E518C39CCCAD1950011D10AF068C188D5D
:100E43001980068C188D19D2AF120FA0D0E0FDD0F7
:100E5300E0FC22C0E074F2120ADAE589A2E1500351
:100E6300122004758900C2C57F01020B39C0E074EA
:100E7300F2120ADAE58BA2E05003122004758B000C
:100E8300C2E880E474028000CCC0E0EDC0E0E51865
:100E9300C39CCCAD1950011D10AF068C188D198061
:100EA300068C188D19D2AF120F7ED0E0FDD0E0FC76
:100EB300221212B760251212E4602012132D700360
:100EC300021323080808E76670101819E766700A0A
:100ED3001819E76670041819E76622F422C0E0C007
:100EE300F088F0E493667008087401936618700044
:100EF300A8F0A3A3700BD0F0D0E0D0E0D0E0020DB7
:100F030014A3A3D0F0D0E022D083D082CCC0E0E4FD
:100F130093A36006120FC11470FAE493A360061240
:100F230010F01470FAD0E0FCE493A3C0E0E493C0A3
:100F3300E022C008C3E096F50808A3E0964208083B
:100F4300A3E096420808A3E0964208A2D265D033F4
:100F5300E5087001D3D00822C0E074F2120ADAA2C5
:100F6300AFE433FED2AFC2C0E5D1A2E450031220F6
:100F7300BEEEA2E092AF7F01020B39CAC0E0E49358
:100F8300A3C582CCC582C583CDC583F0A3C582CC5E
:100F9300C582C583CDC583DAE5D0E0CA22CAC0E0E5
:100FA300E0A3C582CCC582C583CDC583F0A3C5822A
:100FB300CCC582C583CDC583DAE6D0E0CA22C0E0C2
:100FC300E493A3D39C5010E493A3C39C400AD0E0C2
:100FD300D0E0D0E0020F28A3A3A3D0E02270090839
:100FE3000808226016181818C6C333C608C633C6C5
:100FF30008C633C608C633C6D5E0EA22C008C3E034
:1010030096F50808A3E096420808A3E0964208086C
:10101300A3E09645087001D3D00822C09FF59FE452
:1010230073D09F22D083D082C09FE493C0E0740129
:1010330093C0E0740293F59F227404800A740380C2
:1010430006740280027401C0E0F404121057D0E069
:101053001212F3222518F58210AF08F51840021575
:10106300198008F51840021519D2AF85198322C0DB
:10107300D0251810AF08F518500205198008F51887
:1010830050020519D2AFD0D022BB0102E722C082A1
:10109300C08389828A83BB0003E08002E493D08308
:1010A300D082226016080808C6C313C618C613C622
:1010B30018C613C618C613C6D5E0EA22C0E0C0D0CE
:1010C300E8C0E0E5A8D2AFC2C7A2E792AFD0E0F88C
:1010D300D0D0D0E032C3E0C696F608A3E0C696F6B9
:1010E30008A3E0C696F608A3E0C696F622C0E0E49D
:1010F30093A36C7009D0E0D0E0D0E0020F28A3A343
:10110300D0E022251810AF08F51840021519800801
:10111300F51840021519D2AF22E066701008A3E05B
:1011230066700A08A3E066700408A3E06622181834
:1011330018E6084608700AE608C3337005E633F478
:10114300220822E76670100809E766700A0809E7B3
:101153006670040809E76622191919E70947097037
:101163000AE709C3337005E733F4220922C3E09683
:1011730008A3E09608A3E09608A3E096A2D265D060
:101183003322C3E096F008A3E096F008A3E096F0BC
:1011930008A3E096F022181818E4C396F608E4961C
:1011A300F608E496F608E496F622E026F608A3E0AD
:1011B30036F608A3E036F608A3E036F622E026F07A
:1011C30008A3E036F008A3E036F008A3E036F022E7
:1011D300E627F60809E637F60809E637F60809E6CA
:1011E30037F622C0E0E8C0E0E58124FCF8E6A2E798
:1011F300D0E0F8D0E022E657F60809E657F60809EA
:10120300E657F60809E657F622E056F608A3E05635
:10121300F608A3E056F608A3E056F622E647F608DA
:1012230009E647F60809E647F60809E647F6227095
:101233000422600D18C6C333C608C633C6D5E0F40E
:101243001822E056F008A3E056F008A3E056F00891
:10125300A3E056F022C3E09608A3E09608A3E09625
:1012630008A3E09622C6F4C608C6F4C608C6F4C6A8
:1012730008C6F4C622600D08C6A2E713C618C61333
:10128300C6D5E0F322C3E7960809E7960809E7966F
:101293000809E7962275D000758140751801751904
:1012A3000300020B91E6F008A3E6F008A3E6F008BA
:1012B300A3E6F022E6084608C3134608336002E6B5
:1012C30033F422600C08C6C313C618C613C6D5E090
:1012D300F422E0F608A3E0F608A3E0F608A3E0F69C
:1012E30022E7094709C3134709336002E733F422AE
:1012F300CAC0E0E6F0A308DAFAD0E0FA22EAF0A3E3
:10130300EBF0A3ECF0A3EDF022E0FAA3E0FBA3E003
:10131300FCA3E0FD22E5C754F84401F5C779012297
:10132300E7C33319471947194722E6C33318461849
:10133300461846222518F582E43519F58322C2AFF3
:1013430075D69F0200002212102764DE01121027B7
:10135300A8DE01121027CFDE0112102720DF0112B1
:101363001027D0DF0112102788E00112102750E167
:10137300011210272DE201121027B3E201121027E8
:10138300C2E201121027CDE201121027D6E30112A7
:101393001027E7E3011210275DE401121027EFE4A1
:1013A3000112102747E5011210270DE6011210273D
:1013B3003EE60112102783E60112102790E6011280
:1013C300102724E80112102787E901121027A3EA46
:1013D300011210270DED0112102718ED011210272D
:1013E30022ED011210272DED0112102737ED011206
:1013F300102741ED011210274CED0112102757ED74
:101403000112102788ED01121027ACED01121027ED
:10141300D0ED0112102735EE0112102779EE0112DB
:10142300102795EE011210270CEF0112102744EF3D
:101433000112102790EF01121027EDEF0112102770
:10144300CFF10112102755F20112102726F30112D2
:10145300102736F6011210278BF601121027B7F664
:101463000112102703F80112102753F80112102755
:10147300A8F801121027A9F90112102741FA011245
:101483001027C3FA0112102763FB01121027802EC5
:1014930000121027B92E00121027933000121027C4
:1014A300D230001210271C3100121027C131001254
:1014B3001027203200121027543200121027C13295
:1014C30000121027DE3300121027E6340012102713
:1014D3007C3500121027C338001210276C39001214
:1014E3001027483A00121027A93A00121027C63BCA
:1014F30000121027F03D00121027A73E00121027FC
:10150300B13E00121027E43E00121027AB3F001239
:101513001027464000121027AB4000121027D4407A
:1015230000121027F640001210272543001210273F
:10153300FC4300121027404400121027AD44001250
:1015430010276845001210279A4500121027DE4520
:1015530000121027114600121027664600121027AA
:10156300BB46001210274F4700121027B147001245
:101573001027194800121027C24900121027AA4A3F
:1015830000121027EC4B001210271A4E00121027DE
:10159300DA4E00121027095100121027AC51001225
:1015A3001027EA5100121027965300121027AA534E
:1015B30000121027B45300121027DE530012102715
:1015C300EA5300121027095400121027C0540012C6
:1015D3001027FF5400121027095500121027BD557C
:1015E30000121027BC5600121027B55700121027FF
:1015F300525800121027F458001210270B590012EA
:101603001027425900121027605900121027A459BD
:1016130000121027C95900121027AF5A00121027C1
:101623001B5B00121027955B00121027A45C0012AD
:101633001027E35D00121027455E00121027FF5E9E
:1016430000121027225F00121027F65F00121027E6
:10165300416000121027836000121027DA60001225
:1016630010271161001210273F61001210277861C3
:10167300001210279D610012102725620012102707
:10168300486400121027A764001210273B6500125C
:101693001027A76500121027FB6500121027F0CE54
:1016A300031210272FCF031210276CB40112102737
:1016B300C6B40112102722B5011210276EB501120C
:1016C300102789B501121027BAB501121027D7B513
:1016D30001121027E3B50112102757B70112102783
:1016E30070B701121027D7B701121027EAB70112FA
:1016F3001027F8B701121027ACB80112102790B9C0
:101703000112102796BA011210271CBB01121027D1
:1017130026BB0112102793BB01121027AABB01128B
:101723001027DCBB0112102715BC011210273FBC88
:1017330001121027A0BC01121027C0BC01121027F0
:10174300DEBC0112102724BD011210274ABE01126C
:10175300102797BE01121027C6BE011210273CBFE7
:101763000112102764BF011210279DBF0112102719
:10177300ABBF0112102703C00112102752C0011280
:10178300102791C001121027C1C001121027EDC00C
:1017930001121027F8C00112102716C101121027D9
:1017A300D8C101121027E2C1011210271DC2011274
:1017B300102733C2011210273CC20112102791C215
:1017C30001121027A5C201121027B3C3011210275B
:1017D300C6C301121027DBC3011210277DC40112F7
:1017E300102700C501121027BEC501121027C9C555
:1017F30001121027EFC6011210270BC70112102781
:101803005DC7011210279CC701121027B1C701122F
:101813001027F3C70112102740CA01121027BECAAE
:101823000112102731CB0112102753CD01121027BB
:101833006BCD011210276ECD011210277ACD011244
:1018430010278ECD0112102796CD01121027C9CD76
:101853000112102779CE01121027EFCE01121027A3
:1018630062CF0112102716D001121027CBD001121C
:101873001027EAD0011210278AD10112102796D11E
:1018830001121027C1D101121027C4D10112102750
:101893002ED20112102756D3011210272ED4011273
:1018A3001027B9D401121027D2D5011210278FD6D1
:1018B30001121027C8D601121027F9D601121027DA
:1018C30099D701121027C9D701121027A4D80112E2
:1018D30010273DD901121027C8D90112102779DA30
:1018E30001121027FBDA011210272DDB011210273A
:1018F3006EDB01121027C0E20212102725E3021249
:10190300102762E302121027B1E302121027C7E582
:1019130002121027AAE70212102714EB0212102753
:101923004FEB0212102771EB02121027D4EB0212B5
:10193300102708EC021210272BEC0212102758EC88
:1019430002121027B4EC02121027AACC021210279D
:1019530028CD021210275ECD02121027CACD021223
:1019630010273DCF0212102759CF021210279ECF06
:10197300021210272CD00212102785D00212102732
:10198300B2D102121027C4D20212102721D302129D
:1019930010278DD302121027EED3021210272FD453
:1019A30002121027DCD402121027EED502121027E0
:1019B30019D60212102764D602121027ABD60212D0
:1019C30010273DD702121027F8D70212102750AC68
:1019D3000312102780AC03121027D5AC0312102773
:1019E3005BC2031210276CC203121027BDC203127D
:1019F300102702C303121027ACC303121027D9CA3E
:101A030003121027B8BD0312102710BF03121027AB
:101A13006FD80212102714D90212102734D90212D8
:101A2300102754D90212102768D902121027C0D9DF
:101A330002121027F0D90212102771DB02121027AD
:101A430017DC02121027F9DC021210274ADD0212FA
:101A530010278DDD02121027D0DD0212102736DE8B
:101A63000212102757DE02121027E3DE021210279C
:101A730014DF0212102788DF0212102736E1021248
:101A8300102710E20212102752E202121027ACE2D2
:101A9300021210272FBA0312102750BA031210276D
:101AA30086BB03121027B0BB03121027ECC003122E
:101AB300102778C10312102782C103121027A3C174
:101AC300031210273AC2031210276DC00212102707
:101AD30070C0021210272AC10212102755C1021228
:101AE30010279CC102121027C1C102121027E2C1A4
:101AF3000212102716C2021210274FC20212102719
:101B030078C302121027AFC302121027CFC30212E9
:101B130010276AC4021210272FC50212102766C5A8
:101B230002121027DBC6021210277EC702121027EB
:101B330077C802121027A0C802121027F4C8021295
:101B43001027BAC902121027E8C9021210277DCB49
:101B530002121027FECB0212102731CC02121027DB
:101B630000ED021210270AED0212102756ED0212A1
:101B73001027C4ED02121027E5ED02121027FCED29
:101B830002121027ACEE0212102740F102121027A6
:101B930049F1021210279CF102121027C5F102121B
:101BA30010272CF202121027BDF202121027FFF2A7
:101BB3000212102749F302121027A8F3021210276A
:101BC300C8AF0112102778F402121027B7F40212DB
:101BD3001027ECF402121027FEF40212102710F55E
:101BE300021210272FF50212102738F502121027C0
:101BF300EEF5021210272EF6021210277C94031220
:101C030010274F95031210276995031210277A9511
:101C1300031210278F9703121027AE970312102772
:101C2300E9B5031210271FB60312102768B6031273
:101C33001027B8B70312102735660012102729DEC4
:101C430001121027B067001210276F6900121027C6
:101C53009869001210272B6C001210276F6C00126A
:101C63001027F86D00121027906E00121027F86EDF
:101C730000121027996F00121027DB6F0012102734
:101C83001B7000121027A671001210271673001282
:101C930010273B75001210276975001210279075E5
:101CA30000121027997500121027F47500121027DF
:101CB300877600121027A57900121027267A0012C2
:101CC30010271ED00312102793FF021210279AA089
:101CD30003121027ADA0031210274AA103121027E5
:101CE30085A103121027A0A103121027C5A1031277
:101CF30010270AA2031210273BA2031210276CA27B
:101D030003121027F2A30312102724C5031210276E
:101D13005AC50312102776C503121027B8C503123C
:101D23001027C8C5031210275DC60312102767C604
:101D330003121027079903121027CE9903121027B5
:101D43007E9A03121027949A03121027699B031299
:101D53001027749C03121027EF9C03121027089D71
:101D630003121027DEB00212102736B10212102719
:101D7300E0B10212102788B202121027E5B2021254
:101D830010273EB30212102752B3021210271CB5BC
:101D93000212102797B502121027C1B5021210279D
:101DA3007EB70212102799B702121027E8B7021262
:101DB3001027FEB7021210270BB8021210273FB8E4
:101DC3000212102755B802121027DBB8021210278F
:101DD300EAB80212102743B9021210279DB9021262
:101DE3001027EBB902121027F5BA0212102777BD9C
:101DF3000212102711BE0212102753BE021210271F
:101E0300E8BE0212102705BF0212102708BF0212F4
:101E130010270BBF021210277EBF0212102799BF93
:101E230002121027C5BF0212102700C0021210278A
:101E330003C00212102716C0021210273DC002125F
:101E430010276DCE0312102779CE03121027B3CEBD
:101E5300031210270DA10212102738A10212102716
:101E630004A20212102789A202121027F2A2021260
:101E730010273EA302121027BDA3021210274FA45E
:101E830002121027DBA4021210271DA5021210272D
:101E930089A90212102709AB0212102748AB0212BC
:101EA300102711AC02121027C5AC0212102775AE11
:101EB3000212102701AF021210270080021210270E
:101EC300BA80021210272C81021210273B810212C2
:101ED3001027B581021210272482021210272E83A5
:101EE30002121027578302121027F78302121027BA
:101EF300458402121027B58402121027E9850212C5
:101F03001027C58602121027368702121027B388BE
:101F130002121027758902121027108A0212102745
:101F23006B8A02121027D68A02121027DA8B02124A
:101F330010279B8D021210273A8E02121027AC8EA7
:101F430002121027698F021210271FA703121027EE
:101F530073A703121027CBA70312102716A8031287
:101F6300102778A80312102711A90312102779A9A3
:101F73000312102785A90312102793B30312102706
:101F8300C4B3031210277EB403121027E4B4031260
:101F9300102755B503121027A3B803121027CCCB73
:101FA30003121027DDCB031210277DCC0312102759
:101FB30000BC031210270EBC0312102734D00312E7
:101FC3001027D7CD03121027E7CD0312102702CE17
:101FD3000312102763CE03121027D7C90312102749
:101FE3005CCA03121027C0CA03121027C5C8031204
:101FF3001027E7C80312102751C9031210275CC921
:1020030003121027A0C90312102700800312102700
:102013000E80031210274F800312102770800312C3
:102023001027FA80031210271C81031210278881BE
:1020330003121027A38103121027BE810312102756
:10204300C88103121027D28103121027E5810312DE
:102053001027FE81031210279A820312102756833A
:1020630003121027CD83031210274784031210276E
:10207300AD840312102716FC0112102724FC011251
:1020830010279EFC0112102782FD011210273BFF2F
:1020930001121027DEFF02121027837A0012102785
:1020A300F07A00121027B17B00121027217C001256
:1020B30010272A7D00121027A27E00121027067F08
:1020C300001210275B7F00121027647F0012102775
:1020D300737F00121027867F001210279C7F001247
:1020E3001027A57F00121027578603121027AC86EE
:1020F30003121027A88803121027DA880312102767
:10210300FC88031210271589031210272E89031246
:102113001027388A03121027D38A03121027C3C348
:1021230003121027E7C30312102700C4031210275A
:1021330033C40312102764C40312102792C403127A
:102143001027F4C40312102703C5031210270DC56B
:10215300031210271AC503121027C0A90312102750
:10216300E6A90312102723AA0312102732AA031287
:10217300102751AA03121027B9AA03121027C2AAC3
:102183000312102721AB0312102745AB03121027AC
:1021930004AC0312102711AC0312102722AC031254
:1021A300102739CF0312102756CF031210274A8B5B
:1021B30003121027A88C03121027B58C03121027C3
:1021C300C88C03121027E78C03121027FD8C03120F
:1021D3001027118D03121027868D03121027EB8D04
:1021E300031210279B8E03121027708F03121027E0
:1021F300808F031210278F8F031210279ECC031298
:102203001027C2CC03121027EACC0312102712CDD9
:1022130003121027D0AE03121027F7AE03121027B4
:1022230018AF031210277DAF0312102736B1031224
:1022330010274FB1031210275BB1031210276FB1A0
:10224300031210278DB10312102797B10312102721
:10225300A1B103121027B4B10312102707B203125E
:10226300102740B2031210276FB203121027BDB21A
:10227300031210270CB30312102727B303121027DE
:1022830031B30312102742B30312102788B303128A
:102293001027A0FF0112102757F60212102781F60C
:1022A300021210279DF602121027B0F60212102711
:1022B300C6F60212102723F70212102756F702124E
:1022C300102792FB02121027B8FC02121027EBFC16
:1022D3000212102737FD0212102763FE0212102785
:1022E3008BFE02121027A0FE02121027B0FE02126C
:1022F3001027F4FE0212102755FF0212102765FF64
:10230300021210277FC6031210279AC60312102742
:10231300C3C603121027DDC60312102702C7031218
:10232300102721C70312102739C70312102767C7C5
:102333000312102781C703121027B87F001210273A
:102343001A9D03121027219D031210272D9E03129D
:1023530010275D9E03121027839E03121027A69E4B
:1023630003121027C89E03121027029F031210277F
:10237300689F03121027A19F03121027ED9F0312DA
:1023830010271AA0031210273AA0031210275FBFC9
:102393000312102771BF031210275CC0031210270A
:1023A300E9C003121027B2C70312102724C803126F
:1023B300102762C803121027A3C803121027FFA314
:1023C300031210271BA4031210276AA40312102759
:1023D30086A403121027B7A403121027C7A403125D
:1023E3001027B3A503121027BDA503121027CAA5F2
:1023F30003121027DAA603121027EEA603121027E2
:10240300F7A603121027C88F031210270D94031287
:102413001027129403121027ABCF0312102737CDC6
:102423000312102761CD0312102775CF0312102753
:10243300D8CF0312102700D003121027BE90021228
:102443001027DC950212102779AD0112102782ACF8
:102453000112102766AC0112102712AC01121027CB
:10246300CAAB0112102708AB011210277BAA011275
:1024730010276EAA011210277CA701121027CEA4E1
:102483000112102703DE01121027EADD01121027C3
:10249300A2A301121027F6A20112102796DD011242
:1024A3001027F2DC0112102747A101121027029F07
:1024B30001121027899E01121027309E0112102746
:1024C300C49D011210279B9D011210278E9B0112A0
:1024D30010275A9B01121027279B011210270B9BD1
:1024E30001121027319A01121027E99901121027BE
:1024F3001E98011210279E97011210279B97011215
:102503001027A29601121027709601121027AD957D
:1025130001121027D8930112102769930112102773
:102523003B930112102768DC0112102707DC01120C
:102533001027B5DB01121027A3DB0112102727B3E5
:102543000112102738930112102725930112102727
:10255300BD9201121027AC920112102709B3011288
:1025630010278D91011210275791011210271A91EC
:1025730001121027BB9001121027BEB101121027C0
:102583007467001210278A9001121027458D0112DB
:102593001027368C01121027C58B011210278A8B46
:1025A30001121027558B01121027498B0112102796
:1025B300A98A01121027F08901121027C38701127B
:1025C30010274F85011210270D8501121027D8837C
:1025D300011210278D8301121027BF8201121027C9
:1025E300168201121027B28101121027EC81011209
:1025F30010271BB10112102739F40200000080FBE1
:10260300E473000000000000000000000000000070
:1026130000001010101010100000303000000014E3
:102623002850000000000000000000000000002807
:1026330028FC284850FC5050000000001038545427
:10264300301814545438100000000044A8A8B054A3
:102653001A2A2A44000000000020505060ACA898B9
:10266300927C000000606020C000000000000000B9
:1026730000000004080810101010101008080400CF
:102683000000402010080408102040000000000053
:10269300001010D63838D6101000000000000010CB
:1026A3001010FE10101000000000000000000000D9
:1026B30000000000606020C0000000000000FC007B
:1026C3000000000000000000000000000000000007
:1026D3006060000000020404040808101020202099
:1026E3004000000000304884848484844830000023
:1026F30000000010701010101010107C000000007B
:102703000038444404081020447C000000000038D2
:1027130044441804044444380000000008081828FE
:102723004848887C081C00000000007C4040784436
:102733000444443800000000003C4480B8C484844E
:10274300847800000000007C44480810101010102A
:102753000000000000788484487884848478000032
:10276300000000788484848C740488F000000000E6
:102773000000003030000000303000000000000096
:1027830000001000000000101020000004081020BA
:1027930040201008040000000000000000FC0000BE
:1027A300FC00000000000000402010080408102076
:1027B300400000000000788484840810100030304A
:1027C300000000000038449AAAAAAAB4423C0000C0
:1027D3000000001010282828384444EE00000000B0
:1027E30000F844447844444444F800000000003CAA
:1027F30044848080808044380000000000F0484416
:102803004444444448F00000000000FC444048783D
:10281300484044FC0000000000FC42404878484027
:1028230040E000000000003C448480808E844438F3
:102833000000000000EE4444447C444444EE0000A5
:102843000000007C101010101010107C000000001D
:10285300007C101010101010101090E0000000EE1B
:1028630044485070484844EE0000000000E04040F7
:102873004040404044FC0000000000EE6C6C6C548F
:10288300545454D60000000000EE64645454544C75
:102893004CE4000000000030488484848484483081
:1028A3000000000000F844444478404040E0000049
:1028B300000000304884848484B448380C0000004D
:1028C30000F844447850484844E600000000003CC7
:1028D30044402018040444780000000000FE9210D5
:1028E3001010101010380000000000EE444444445F
:1028F300444444380000000000EE444428282828BB
:1029030010100000000000D6545454546C2828289A
:102913000000000000EE44282810282844EE0000A0
:10292300000000EE442828101010103800000000AA
:10293300007C88081020204044FC0000001C10107C
:1029430010101010101010101C0000701010101038
:1029530010101010101070000070101010101010D4
:10296300101010107000001028000000000000007C
:102973000000000000000000000000000000000054
:1029830000FE00606020C0000000000000000000A6
:1029930000000000000038441C24443E00000000F6
:1029A30000C04040784444444478000000000000E4
:1029B30000003C444040443800000000000C040484
:1029C3003C444444443E00000000000000003844FE
:1029D3007C40443800000000001C2420F820202004
:1029E300207800000000000000003C484830407898
:1029F3004438000000C040405864444444EE0000A2
:102A030000000010000070101010107C0000000087
:102A1300000800003808080808080870000000C013
:102A230040405C48507048EC0000000000701010FB
:102A330010101010107C0000000000000000F8547B
:102A4300545454D60000000000000000D8644444ED
:102A530044EE0000000000000000384444444438C1
:102A63000000000000000000F8444444447840E0C3
:102A73000000000000003C444444443C040E0000B9
:102A830000000000EC30202020F8000000000000CF
:102A930000003C443008447800000000000010109F
:102AA3007C101010100C0000000000000000CC444B
:102AB3004444443E0000000000000000EE44282887
:102AC30028100000000000000000D65454542828A9
:102AD3000000000000000000DC48303048EC00003B
:102AE300000000000000EE442828101020E0000041
:102AF300000000007C481010247C0000101010100F
:102B030010101010101010101010000136360101B3
:102B13000001020100010301000104010606050290
:102B23000000070100340801000F090401010D0131
:102B330000FF0E08000017020000190100FF1A0130
:102B430000011B0100FE1C0100081D0200001F0103
:102B5300000120010001210200002301000F2402D3
:102B630000002601000127010008280200FF2A01B6
:102B730000072B0102402C0100002D0100012E0152
:102B830000012F0100FF30010B1C310800003A0146
:102B930000083B01000F2F01000003027102300106
:102BA300600211027002010202020202800210029C
:102BB30061023A004100630273027202620243023D
:102BC3000002130238000002000204021202000293
:102BD30000020002000204020402370037003C0234
:102BE30044020002390000020002650200023502BD
:102BF30081020002050282028302000203007100C7
:102C03003001600011007000310220035004800085
:102C13001000610000001400630073007200620082
:102C2300430000001300060000000000040012002F
:102C3300000000000000000004000400370037001B
:102C43003C0244000000000000000000650000009A
:102C5300350081000000050000008300000001032F
:102C630071030103010301030103010322030203AF
:102C73000103100300030003000300030003000328
:102C830000034203000324030603000300030403B9
:102C9300120325032303250323030403040300036F
:102CA300000300034403000300032303000365033D
:102CB3002100350381030003050300030003000320
:102CC3000101710101010101110101013101010141
:102CD30001018001100161013B00140063017301D4
:102CE3007201620143010001130106013D01350038
:102CF30004011201000100010001000104010401AB
:102D0300330133013C01440132013600000100016B
:102D13006501000135008101000105018201830184
:102D2300000136000100060000000F000000000053
:102D3300000000000000000003FFFF00000403FF89
:102D4300FF0000FFFF0FF4010005C404032000018E
:102D530000030B000000000000000003010F01004E
:102D6300F61E02006C1E0300721E0400781E05008E
:102D73007E1E06008A1E1100A21E1400A81E150046
:102D83009C1EFFFF0000461776174C17521770174B
:102D930064175E177C178217881794175817401704
:102DA3003A1703EAF5E5D5D5C5B5A5959585857596
:102DB30075656555554545353525251515050A129E
:102DC3001502DC1405EE1407E2140CBE140DD01426
:102DD300FF000000160F00000B150B020002220F6C
:102DE3003200000630184218481810174E180A17F8
:102DF30016179018AE18B4189618A2189C1800034A
:102E03004948424D18172505020C0E020B040B0A04
:102E13000708000F000119161816161523030000E2
:102E2300383C3E363B3B352B432C303016181920AB
:102E3300231A1C1E30303017181921301B1D1F3068
:102E43006A178E17A8189A17A017841854185A18B7
:102E53006618601802040201010101090200000062
:102E630000000000BE040A0E00150004002800053F
:102E73000C0A030908FF1E1E0F0404100C74F7123A
:102E83000A6EE99003B0F0900365E4F012238E908C
:102E930003B5E4F0A3F09003B1F0A3F012164A12C5
:102EA3002394900334E4F0A3F0902E7B93FA7902F9
:102EB3001223F4025B1674F2120A6EEAFEEBFF545D
:102EC3008060699003B0E0F9121BA28A088B09EABB
:102ED3004509604F7C0080010CEC75F003A4F8A950
:102EE300F074C128F582742D39F583E493F4602CD2
:102EF300E493F88508828B83E06870DCAA08EC759C
:102F0300F003A4F874C228F582742D39F583E49391
:102F1300C0E0740193F583D082122603AA08AB099B
:102F2300121B96EEFAEF6480FB023086EF542060AA
:102F33001D12156C8A088B09EA4509600A1214D020
:102F4300AA08AB09121B96EEFAEF642080DAEEA210
:102F5300E0501A90036AE0640F700B790012149A20
:102F6300E96003123089EE6401FAEF80BB542070EC
:102F730003023054750C0012455B8B09EA45097056
:102F8300107C027D007A207B009003B0E0F9121CD4
:102F9300EC7C0079047A007B001215488A088B09BF
:102FA3008018850882850983A3A3A3A3A3A3A3A34E
:102FB300A37401F0850A08850B09E5084509606DCE
:102FC3007C007904AA08AB091215488A0A8B0B7591
:102FD3000C01E5082404F8E5091242FF24FFF0A3DD
:102FE300E034FF1265F270CC850882850983A3A3C0
:102FF300A3A3A3A3A3A3A3A3E0640170A58508824D
:10300300850983A3A3A3A3A3A3E054047094850811
:1030130082850983A3A3A3A3A3A3A3A3A37406F0F5
:103023007AB78508828509831231B580871215180E
:103033007C0079017A007B001215488B09EA450967
:103043007009E50C70057A201254B5EE6420022F46
:103053006CEF5402600B121644EEFAEF6402022F77
:103063002BEF5404601912564C12556C79019003DE
:10307300631258D01213E0EEFAEF6404022F2B7A96
:10308300007B000232BC900CED1239531214B222B1
:10309300C082C08374EA121106851882851983AA37
:1030A30082AB83794B1223CA74081213377402F06C
:1030B3007409121337AA82AB8379501223CA74138B
:1030C300121337E4125A9F1223E87416024A7974D2
:1030D300F7120A6E74E1121106EAFEEBFFEE4F607F
:1030E30033851882851983AC82AD831215907406DB
:1030F300121337E0601E7417121337E0FD740112C8
:103103001337E0FCEEFAEFFB790012255CE960046B
:1031130079A480027900025B1174F6120A6EEAFE4A
:10312300EBFF8E828F83A3A3A3A3A3A3E0544060EA
:103133001B125F8E12328360067AFF7BFF801A8E2A
:10314300828F83124705FAA3E0FB80031215B47440
:10315300FE6A700374FF6B6041125F8E1254F912A2
:103163001608E98E828F8360061231AEE480051261
:1031730031AE7401F07CA07D148E828F831258D0FF
:103183001223EEE9F5087015EE4F60097901EEFAA6
:10319300EFFB121524A90802552A7508CDAA088E3B
:1031A300828F831231B5E960DF80EAE0240D124B90
:1031B300D422E0240C124BD4E0F91214AC2274F69E
:1031C300120A6EE9FEEAFF7A0F7B00121B90EA4BAC
:1031D30060198A828B83740CF0EEA3A3F0EF8A82CA
:1031E3008B83A3F01255557900802FEEF912154EFB
:1031F3008A088B09A808A909E849601C8882898381
:10320300A3A3A3A3A3A3A3A3A37406126219E0F920
:10321300121464EEF912152A791002552AC082C0DD
:103223008390036AE0640F7014EA4B6010900365A7
:10323300E064086005E064047003123243024AA3A9
:10324300EAFCEBFD7A017B009003B0E0F9121CE687
:1032530022C082C0837900EA241DF582EB12470263
:1032630024FD600B14600824FD600424FD70010933
:10327300024AA38E828F83A3A3A3A3A3A3A3A3A37F
:103283001232872212474AFB121608E9228E828FD6
:1032930083A3A3A3A3A3A3A3A3A31232876402229A
:1032A3008E828F83A3A3A3A3A3A3A3A3A3124A9A48
:1032B300900356E068221210727F06020D2474F404
:1032C300120A6E74FD1211068A088B098A828B8397
:1032D300A3A3E0F912154E8A0A8B0BAE0AAF0BEECD
:1032E3004F70030233C8850882850983A3E064F124
:1032F3006030850882850983A3E064CD6024850856
:1033030082850983A3E0641A60188508828509838E
:10331300A3E064E9600C850882850983A3E064E186
:1033230070087900121524E9706C85088285098379
:10333300A3E0C0E07402121337D0E0124A7EEEF02D
:10334300A3EF123DA9851882851983AA82AB8370E6
:10335300051213C880031215F07402121337E064C8
:10336300E970338E828F831233D4750A01780A127F
:103373001048750AE9780A121048E508240CF5820A
:10338300E50912389B123D86FCA3E0FD8A828B83FC
:10339300123DA01210728E828F83A3A3A3A3A3A3B3
:1033A300A3A3A3E0640270108E828F83A3A3A3A3BD
:1033B300A3A3A3A3A37406F0850882850983A3A30B
:1033C300E0F912152A121518900CF112308C0239FB
:1033D30058E0F8A3E0F9E8FAE9FB2274F4120A6E64
:1033E300EAFEEBFF7508008E828F83A3A3A3A3A33A
:1033F300E060427508088E828F83A3A3A3A3A3A3CF
:10340300A3A31249AD8B0BEA450B601075082C8EF4
:10341300828F83A3A3A3A3A3E0D2E0F08E828F8342
:10342300A3A3A3A3A3E05403640160030234C7432B
:1034330008110234C7EE24181239656033EE241ADA
:10344300123965700F1232A37003A3E069707575AA
:1034530008228070EE241BF582EF1234CC241AF577
:1034630082EF123DB1EE2419125FC212145280543E
:1034730012329070037508011232A37003A3E0693E
:103483007006E508D2E1F508E50860158E828F83A2
:10349300A3A3E07006E508D2E58004E508D2E6F5CB
:1034A3000812327664017006E508D2E0F5088E82D0
:1034B3008F83A3A3E0600D1234DA64016006E5088C
:1034C300C2E0F508A90802395D1246F01234D3228E
:1034D300E0FCA3E0FDEE221246EA124722F91215A0
:1034E300F6E922C082C08379018A828B83A3A3E099
:1034F300C394024001198A828B83A3A3A3A3E0C3CD
:103503009402400279008A828B83A3A3A3A3A3A37B
:10351300A3A3A3E064F87003A3E0F460458A828B5D
:1035230083A3A3A3A3A3A3A3A3A3E064F97003A307
:10353300E0F4602E8A828B83A3A3A3A3A3A3A3A3F4
:10354300A3E064FA7003A3E0F460178A828B83A379
:10355300A3A3A3A3A3A3A3A3E064FB7003A3E0F427
:10356300700279008A828B83A3A3A3E0F8900353AC
:10357300E06860027900024AA374F0120A6E74DEF6
:10358300121106EAFEEBFF8E828F83A3A3A3A3E0AF
:10359300600E900CEF1255216006900CEF12308CE8
:1035A3007403121337AC82AD838E828F83A3A3A3DC
:1035B3001255A3125DDCE9600F7403121337AA825C
:1035C300AB831214CAE9700879011223A002389060
:1035D300EE241B1246F5741012133712556C74093E
:1035E300121337E06021741A121337E0FD740412CA
:1035F3001337E0FC8E828F831258CE790112255C3B
:10360300E96004790280C37403121337AA82AB837F
:103613001214C4E9F50A7409121337E0702A9003EF
:103623004DE060247422550A6422601C7442550ADA
:10363300644270CF74201213371238AE600A7420BC
:103643001213371238A770BBE9A2E6504174031274
:103653001337AA82AB831214B8E970030235CB7413
:10366300201213371247056403700F7420121337A7
:10367300A3125513A3E0640D60147403121337AA45
:1036830082AB8312161AE964017003023890EE24A8
:103693002C123898123BBC7003A3E069701C7508A8
:1036A3000078081210487808121048EE242E125F92
:1036B300C21238B4123DA01210727409121337E00B
:1036C300700302376D1238B41258D012166E8A087E
:1036D3008B09EA4509700302380A7404121337E0B0
:1036E300F88E828F83A3A3E028F8A3E03400F9E8DF
:1036F300240D12389F8A828B83A3A3A3E068601CE6
:10370300E88A828B83A3A3A3F090819712130C857D
:103713000882850983A3A3A3A31213007904E912E2
:103723001337125DB92AF8A3E034008882F583A326
:10373300AA82AB83121B7E8A0C8B0D8C0E8D0F8598
:103743000882850983A3A3A3A3780C120FFF400368
:1037530002389090817B780C1211AD85088285091F
:1037630083A3A3A3A3780C1212A8900365E06404B7
:103773006008E064096003023890E50AA2E54003AB
:10378300023848EE242E123965851882851983F094
:10379300EE242F123965C0E07401121337D0E0F024
:1037A300EE2430123965C0E07402121337D0E0F012
:1037B3007414121337E064017027740E1213371256
:1037C30046FBEE2412123965687003A3E069701199
:1037D300740C12133712329D70077414121337E4EA
:1037E300F0EE2424123898120E257404121337AC09
:1037F30082AD837407121337AA82AB831213CE747C
:10380300041210720238909003AAE064016003026C
:10381300376D74201213371238AE7009E50AA2E629
:10382300500302376D7410121337E0F47003A3E0F2
:10383300F4605AEEFCEFFD7403121337AA82AB83D4
:103843001214D68048A2E65044742012133712583B
:10385300DF701A741A121337E064027030740312A3
:103863001337AA82AB8379001215E48020742012E7
:1038730013371238A77016741A121337E0640470E2
:103883000C7403121337AA82AB831215DE7422025F
:103893005C8BEE240BF582EF1246F022F582E912DF
:1038A3005585F822125FA0E06407221247226406BE
:1038B30022EE242A1246ED1234D324121246ED22AC
:1038C30074F4120A6EEAFEEBFF8C088D099005CFA3
:1038D300E0600F1232A37003A3E069700512144075
:1038E300804F79001258C31214708A828B83E58249
:1038F30045836035A3A3A3A3A3A3E05418602AE5DB
:1039030008241BF582E50912389B120E29123F99F0
:1039130012389B120E29EE2418125FC21239361286
:10392300148274041210728008790012393612144A
:103933004680278E828F83A3A3A3A3A3A3A3A3A3BA
:103943001234D3240BF582EF12394F223400F5835E
:1039530012474AFB2274031210727F04020D24EEF5
:103963002417F582EF1255852274F7120A6E74F745
:10397300121106EAFEEBFF900365E06403600DE0BD
:1039830064016008E064096003023A368E828F8323
:10399300A3E0707E7C007D007A027B0012239AEE06
:1039A3002402FAEF1243061246FB90035612556C9B
:1039B30079531223D07900123A3BE0640960031271
:1039C3003DCE851882851983740112554290036593
:1039D3007404F07401121337AA82AB83794A122359
:1039E300CA7401121337AC82AD837A5B7B03122353
:1039F300B8900356125DD27A03123DD8900350E07B
:103A0300A2E35004D2F08002C2F012552F12308983
:103A1300801E8E828F83A3AE82AF83FC7D007A03E8
:103A23007B1012239A8E828F83E0F9123A3BE4F0E3
:103A33001215007409025B139003631239531213B6
:103A4300E090036522C082C0839003341255217035
:103A53001F900365E014600924FC600A14600C8065
:103A63000F90033C8032900338802D90033A8028D6
:103A7300E8496008900335123D80700C8A828B837D
:103A8300A3E0F91213D4801B90033512403570055F
:103A9300121638800E9003D2125521600612551368
:103AA300122603024AA374F4120A6E74FB1211065F
:103AB3008A088B097A0F7B00121B908A0A8B0BAE44
:103AC3000AAF0BEE4F7003023BB08E828F83125A04
:103AD3009D79501223CA850882850983A3E0600378
:103AE300023B98900363E0F47003A3E0F460349026
:103AF3000363E064FE7003A3E0F460278518828506
:103B03001983123BBC7003A3E069601785088285A3
:103B13000983A374EA123DB67A637B0379501223B7
:103B2300D08072851882851983125F8112556C7A51
:103B3300567B0379531223CA90035612559D12558F
:103B43006C7A597B03794B1223CA7A587B0379E148
:103B53001223CA90036AE0C3940F5021900358E0E4
:103B6300C0E07402121337D0E0F0740412133774F8
:103B730001F004121337AA82AB831223E2750A0001
:103B8300780A121048780A121048900D17E0F912BB
:103B93003D97121072850882850983123BB5A3F005
:103BA3009003657403F0EEFAEFFB125555740502AA
:103BB300395AA3E08E828F8322125F85E068221236
:103BC3004BDB2274F5120A6E74D81211068A088B25
:103BD300098A828B83A3A3A3124727741512133771
:103BE300AC82AD838A828B83A3A3A3A3A3A3A3A342
:103BF300123D86FAA3E0FB1215067415121337E083
:103C0300706B850882850983A3A3A3A3A3A3A3A39E
:103C1300E0C3940B40578E828F83A3A3A3A3A3A3D4
:103C2300A3A3E064027046EE240B123965F4703DE1
:103C3300900365E06402603AE06406603590033403
:103C43001255216005123D80604F900365E06408C2
:103C53006005E0640470167417121337E0F9741CDE
:103C6300121337AC82AD831258C312150C74280299
:103C7300649F900334125521701F75080078081251
:103C830010487808121048EE2410123898125FDAA0
:103C93001243EE123DA01210728E828F8312583F90
:103CA3001243181246FB740212133712556CEE249A
:103CB3000D123965C0E07404121337D0E0123DA928
:103CC300F508A3E0F509740F78081212C6740512FB
:103CD3001337E508F07419121337E0C0E0740612C5
:103CE3001337D0E0F0741B121337E0C0E0740712EF
:103CF3001337D0E0F07416121337E0C0E0740912E2
:103D03001337D0E0F07417121337E0C0E0740812D1
:103D13001337D0E0F0EE2410123965C0E0740A12B4
:103D23001337D0E0F0741A121337E0C0E0740B12AB
:103D33001337D0E0F07427121337E0C0E0740C128D
:103D43001337D0E0F0741C121337A982AA838908B1
:103D53008A09750A0078081210407C087D007410E7
:103D6300121337AA82AB831250D0121072851882B5
:103D7300851983AA82AB831213DA023C7012403B8B
:103D8300640122E0F98A828B83A3A3A3A3A3A3A341
:103D9300A3A3E022900363125DD690035912395313
:103DA3001215C6740222F0EE240B1255822212550C
:103DB30085FA22F07A567B037953123DC1221223EE
:103DC300D07A597B03794B1223D0229003631239A3
:103DD30053121668227B0012239A900359125DD660
:103DE3007A047B0012239A22F0125FE52274F21206
:103DF3000A6E74F8121106EAFEEBFF8C0A8D0B892A
:103E03000C851882851983AC82AD83758381758295
:103E13004A7408120FA0F50DEEFCEFFD851882859C
:103E23001983AA82AB831257A07003750D01900307
:103E3300B1803BEEFCEFFDE508240BFAE509340005
:103E430012579F601E850882850983A3A3E0650C32
:103E53007011850882850983E0650A7004A3E06513
:103E63000B6038E5082414F582E50912389B1243E8
:103E730010E50845096024E50DA2E040B6850882F7
:103E8300850983E0650A7004A3E0650B70D5850896
:103E930082850983A3A3E0650C70C8AA08AB0974E3
:103EA300080232B9C082C0839003B1024AA074F7FA
:103EB300120A6E9003B112474A8012EA2414F58263
:103EC300EB12389B124727121C32EEFAEFFBEA4B38
:103ED30070E99003B1E4F0A3F0025B167F07020DD3
:103EE3002474F1120A6EEAFEEBFF890A8C088D092D
:103EF3008E828F83E08C828D831249B7AE82AF832B
:103F0300E0125190125101C4125190123FA2E05499
:103F1300038C828D831250FFA2E2E4338C828D8363
:103F23001250FE131313541F1251901250FDA2E7A7
:103F3300E4338C828D83A3A3A3A3123FA28E0C8FA1
:103F43000D750E00780C1210407C087D00E50824E6
:103F530007125D45121072125DB08E0C8F0D780C36
:103F63001210407C037D00E508240F125D451210FA
:103F730072E50AC3940F40148E828F83A3A3A3E038
:103F8300C0E0123F9912389BD0E08006123F99128D
:103F9300620DF0023EDFE5082412F582E50922A353
:103FA300A31249BB0EAF832274F4120A6E74F91282
:103FB3001106EAFEEBFF8908900334125521600EC7
:103FC3001240357009EEFAEFFB121632805F900350
:103FD30063E06E7003A3E06F7053740165086009BA
:103FE3007A777B031257A070447A007B0212455FF5
:103FF3008B0BEA450B703690036612130C851882FF
:1040030085198312130090036CE0C0E0740412134B
:1040130037D0E0F074051213377401F074061213ED
:1040230037125A9D1213A4E9609B1213AA74070254
:10403300395A12403B640222125FA1A3A3A3A3A394
:10404300A3E02274F5120A6E8A088B098A828B8395
:10405300A3AE82AF83E0F91213F88E828F83E064FC
:10406300EB600C850882850983A3E064E170098510
:104073000882850983A3E4F0123089750A01780A5E
:10408300121048850882850983A3E0F50878081291
:1040930010487900123D971210721215180264A28B
:1040A300EAF0A3EBF0024AA374F6120A6E9003B48B
:1040B300E0701B7C0079017A007B00121548EA4B03
:1040C300600C8A828B8312552160031214A6025559
:1040D3002AC082C083124547401079FF121542E976
:1040E300F8902E7FE493C3985004790180027900FD
:1040F300024AA374F0120A6E8A088B09890B750CA5
:10410300008A828B83A3A3A3A3A3A3A3A3E0F9128F
:10411300154E8A0E8B0FAE0EAF0F750A01EE4F6070
:10412300030241D4850882850983A3A3A3A3A3A380
:10413300125DD2850882850983A3A3A3A3A3A3A3A6
:10414300124ED01258D01215368A0C8B0DAE0CAF0E
:104153000DEE4F70030242F78E828F83A3A3A3A3B6
:10416300E4F0A3F0E508240B124303E0C0E01238A7
:1041730095D0E0F012160EEE240CF582EF1254F5F2
:10418300E508240EF582E5091246F8EE240EF582C1
:10419300EF125569750C01EE2406F8EF1242FF5435
:1041A3007FF0A3E054FC126037E054046003024242
:1041B3005A900CF5124EC1740778081212328E828F
:1041C3008F83A3A3A3A3A3A3E04508F0A3E045091A
:1041D300F08E828F83A3A3A3A312430E74077808E0
:1041E3001212C6E5085407F508E50B607A8E828F34
:1041F30083A3A3A3A3A3A3A3A3A37402125102247F
:104203000D124BD0E0A2E2500B90035112559DA327
:10421300A312556CE50870030242CCEE2406F8EFB6
:104223003400F9E8FAE9FB8A828B83E0547FFCA32C
:10423300E054FCFDE50824FFF508E434FFF50974B8
:10424300077808121232EC4508F8ED4509F98A821D
:104253008B8312556C80728E828F83A3A3A3A3A337
:10426300A3E044800241D3E5087005750A00805934
:104273008E828F83A3A3A3A3A3A3E054206012126F
:104283001B8AEA547F245F8E828F83A3A3A3A38018
:10429300238E828F83A3A3A3A3A3A3E05410600A56
:1042A300121B8AEA540F240A80DD8E828F83A3A314
:1042B300A3A37401F0A3E412431874041245568BAC
:1042C30009EA450970031254E8E50CA2E050288E70
:1042D300828F83A3A3A3A3125B03F9EEFAEFFB126E
:1042E300153CE9601212551760031246E0EEFAEF2F
:1042F300FB121C32750A00A90A025C8E1256602258
:10430300FAE5093400FB8A828B8322A3A3E0F50834
:10431300A3E0F5092212431C22125D61A3A3A3A308
:10432300A32274F4120A6E74F71211067E0012159A
:104333004EEA4B70030243E78A828B83A3A3A3A3B2
:10434300A3A3A3A3A3E0640660030243E78A828BCB
:1043530083A3A3A3A3A3A3A3E0FF8A828B83124B0C
:10436300E3E0C0E07408121337D0E012471B125782
:10437300A612556C121560EF540860668518828585
:104383001983125DD27A007B001215308B0BEA453C
:104393000B704F90036312480B1223FA7C007D00CD
:1043A3007A007B0080288E828F83124705F4700386
:1043B300A3E0F4602D9003631243EE1258D0122051
:1043C300EEE9641A601C7C007D00EEFAEFFB121527
:1043D300308A0A8B0BAE0AAF0BEE4F70C97900120D
:1043E30024007E01EEF9740902395A1243F222E0E5
:1043F300FCA3E0FD8E828F8322C082C083EA4B70D0
:10440300059003B580068A828B83A3A312460B60B3
:10441300258A828B83A3A3A3A3A3A3A3E054086049
:10442300E5EC4D60158A828B831247056C7003A3FC
:10443300E06D70D280047A007B00024AA374F2120A
:104443000A6EEAFEEBFF890A8C088D097A107B005D
:10445300121C2CEA4B603F8A828B83A3A3A3A3A3E2
:10446300A3A3A3A3E4124709A3E50A125FA7A31218
:1044730044A38A828B83A3A3A3A3E4F0A3124715C7
:10448300A3F0125E3BEA240CF582EB1249A7124417
:104493009CA3A3F0A3F00232BCA3F08A828B8322F5
:1044A300A3A3E508F0A3E509F02274F4120A6EEA67
:1044B300FEEBFF89088C0A8D0BEE4F605574016586
:1044C3000870147901121542E9F8902E77E493C32A
:1044D30098500F7911806A74046508702F1245474C
:1044E30040F18E828F83A3A3A3A3A3A3A3A3A3E5D6
:1044F300081249B7A312652C8E828F83A3A3E4F01D
:10450300A3F09003B51255216021800D7402650854
:1045130060D079C1802BE0F8A3125596A3A312466D
:104523000B88828983A3A370ED80039003B5EEF01B
:10453300A3EF1245568B0BEA450B70031254E8792F
:104543000002395D7904121542E9F8902E72E49362
:10455300C39822F012455B227A207B009003B0E0DF
:10456300F9121CF822C082C083E9F879009003B5E0
:10457300801D8A828B83A3A3A3A3A3A3A3A3A3E0E6
:1045830068600574FF687001098A828B83A3A31294
:10459300460B70DE024AA374F7120A6EEA4B7005EB
:1045A3009003B580068A828B83A3A312460B6024F3
:1045B3008A828B83A3A3A3A3A3A3A3A3A3E069706A
:1045C300E4EC60148A828B83E0240D125DC3A2E2C3
:1045D30040D380047A007B00025B16C082C08390C4
:1045E30003B580068A828B83A3A312460B60128ACB
:1045F300828B83A3A3A3A3A3A3A3A3E06970E580F2
:10460300047A007B00024AA3123953EA4B2274F264
:10461300120A6E8A0A8B0B8C0C8D0D7508007509B6
:1046230000EA450B602E9003B580068E828F83A32C
:10463300A312465E601EAC0CAD0DEEFAEFFB850ACD
:1046430082850B83122603E9640170DFEEF8EFF92C
:1046530088088909AA08AB090232BCE0FEA3E0FF7F
:10466300EE4F2274F7120A6E9003B51246FB7C00DC
:104673007D00800DE8FCE9FD88828983A3A31246AF
:10468300FBE8496030EA687002EB6970E79003B5B4
:104693001258D0E86A7002E96B88828983A3A370F9
:1046A300081246FB9003B580091246FB8C828D836A
:1046B300A3A312556C025B1674F7120A6EEAFEEBA3
:1046C300FFEE4F601512155A12472D12551760034E
:1046D3001246E0EEFAEFFB121C32025B16EE240CDC
:1046E3001246ED12474222EE241DF582EF3400F507
:1046F3008322F582EF1246F0124A9A22F582EF12D4
:1047030046F01247222212470D22125FAFA3A3A342
:10471300A32212470DA3A32212449D124722221261
:104723005F9AE022E0FEA3E0FF228E828F83E024E3
:104733001C124BD41247428E828F8312474222129D
:10474300474AFB121C3222E0FAA3E022C082C08354
:10475300EAFCEBFDEC4D700479058044EC24FBF599
:1047630082ED34FF12551F70071247A6E0F460056F
:10477300121B9680E39003B0E0C0E01247A6D0E09E
:10478300F0902E74E493F97AB77B031225F8E96469
:1047930001700B7A007B201254EC790080027904BB
:1047A300024AA3EC24FFF582ED34FFF5832274F46F
:1047B300120A6EA2AFE433F508C2AF9003B71246F4
:1047C3005E6038EE24FBF582EF34FF12551F7A004A
:1047D3007B209003B060051254EF8005E0F9121BB3
:1047E300CCE4F50AF50B780A121044EEFCEFFD7ADF
:1047F300B77B03121BBA7402121072E508A2E0928F
:10480300AFEEFAEFFB02395D125DD685188285198A
:1048130083AA82AB832274F2120A6E74FC1211060D
:10482300EAFEEBFF750AFE750BFF12151EE9600524
:10483300791102499CEE24151239656037900D09F0
:10484300E0C43354E0F8E0333354FC48C0E0EE24D2
:1048530015123898D0E01249B71249AD8B09EA45D1
:10486300096011750AFFEE240F12396544041255CD
:104873007AD2E0F08E828F831232816006EE2412A8
:104883001249A4EE24131239657010902E7AE49322
:10489300C0E0EE2413123898D0E0F08E828F83E0CC
:1048A300A2E750045403801CEE24141239657015DA
:1048B300900342E0C0E0EE2414123898D0E0F09068
:1048C3000342E004F0EE241112396564017016907E
:1048D30005C6E0600D90034DE0700A8E828F83E081
:1048E30070031249A18E828F83E064017013EE245A
:1048F3000B1246FF64027009EE240F12396544401F
:10490300F0851882851983AC82AD83EEFAEFFB1232
:1049130015848A088B0974FE650A700374FFF470AA
:10492300098E828F83A3A3125D51EA450960668EC7
:10493300828F83E0C0E07401121337D0E0F0740279
:10494300121337125E3F740112133785820C85836D
:104953000D780C121044EE240F123898120E29EE23
:10496300240E123965F50C780C1210489003561278
:104973000E297407121337E0F9AC0AAD0B12157E3A
:104983007407121072E9FE74106E700BAA08AB095B
:10499300121C3280027E10EEF974040232B9EE2446
:1049A30011F582EF1246F0E4F022A312395379FF96
:1049B300122460221249BB22F08E828F83A322C06D
:1049C30082C08374DE1211068A828B83A3A3A3A3FE
:1049D3001246FB740E121337E8F0A3E9124A9174DE
:1049E3000C121337124A8A240DF582EB123968C070
:1049F300E0741A121337D0E0F0125C9EEB1246F803
:104A03007420121337124A8A2415F582EB1239687F
:104A1300C0E07408121337D0E0F0EA241CF582EBEF
:104A23001246F87412121337124A8A2411F582EBD4
:104A3300123968C0E07409121337D0E0124A7E7449
:104A4300FFF0740112133774FFF0740212133774FA
:104A5300FFF0908197120E257404121337AC82ADC8
:104A6300837407121337AA82AB831213CE74041212
:104A73001072790074221210728025124A8222F079
:104A830085188285198322E8F0A3E9F0EA2212440B
:104A93009DA3124A9922A3E0F8A3E0F9221258D069
:104AA300D083D08202102474EC120A6E74EE1211B9
:104AB300068A128B13ECFEEDFF8909742612133755
:104AC300125D517428121337E0F51074291213374D
:104AD300124BC5742B121337E0F50EA3E0F50F75D7
:104AE30008107A1E7B00121C2C7402121337125406
:104AF300F974021213371255217003024BBE851845
:104B030082851983AA82AB8379501253D41258D069
:104B13007402121337124BE3A31254F974101213D5
:104B23003712652E7402121337E0240B124BD07424
:104B330002F0121337124BE37402F0121337125FB1
:104B430092125E3F74021213371258E5E509F074AE
:104B530002121337E0240C124BD0E510F07402124A
:104B63001337124BCDE512F0A3E513F074081213BB
:104B730037E50CF0A3E50DF0740A121337E510F0D6
:104B8300850E82850F83C082C083740D121337ACE8
:104B930082AD83D083D0827403120FA0F974021202
:104BA3001337AA82AB83121524E9640170057508D3
:104BB30000800874021213371246E6A90874120221
:104BC3005D68E0F50CA3E0F50D22E0241C124BD444
:104BD30022F8A3E0124BDB223400F9888289832276
:104BE3001258D8A3A3A3A3A32274EE120A6EEAFE5B
:104BF300EBFF8C088D098E828F83A374081255B541
:104C0300E060088E828F83A37410F012396260090A
:104C13008E828F83A3E02408F0EE24151239656099
:104C2300088E828F83A3E004F08E828F83A3A3A3D5
:104C3300A3A3A3E060198E828F83A3A3A3A3A3A33B
:104C4300A3E0C3332402F88E828F83A3E028F0EE1F
:104C530024111239656005750B0E8003750B008EE8
:104C6300828F83A3C082C083EE240D123965D08363
:104C7300D082F8E028250B8C828D83F0EE2411126C
:104C8300396560051250E028F0850882850983E0C4
:104C9300C394754009750800750900024DCEE0FA0A
:104CA3007B00125EED7003024DCEEEFAEFFB1215A0
:104CB3008AEA8508828509831254FAEE2402F8EF02
:104CC300123BC2124EC8124E0AF0EE24040808EF3B
:104CD300123BC212530AA3124E0AA3A3F0EE2413EB
:104CE300124DF0F0EE2414124DF0A3F0750A08EE05
:104CF30024161239656010EE2418125DCFE50824DE
:104D030008125FD0750A101239626016EE241A1267
:104D13005DCF850A0CE508250C125FD07408250ABF
:104D2300F50A8E828F83A3A3A3A3A3A3E06059EE06
:104D33002407F510EF3400F511851082F583E0C0E8
:104D4300E0124DD712389BD0E0124DFAE0C0E012CA
:104D53004DD712389BD0E0124DFAA3124DE3121037
:104D630040851082851183E0C333FCE433FD850A5B
:104D73000CE508250C125D45121072851082851111
:104D830083E0C333250AF50AEE2415123965600B57
:104D9300C0E0124DD712389BD0E0F0123895124D77
:104DA300E3121040EE240D123965FC7D00850B0AD9
:104DB3008E828F83A3E0F8E50828F8E5093400F92B
:104DC300E8250AFAE9125D48121072AA08AB097FB6
:104DD3000A020D24850A0CE508250CF582E5092253
:104DE300E0F50CA3E0F50D750E00780C221246EDEC
:104DF300124E14A3A3A322F0050A8E828F83A3A3CA
:104E0300A3A3A3A3A3A322A3A312603BA3124E14A1
:104E13002212530EA3A32274F6120A6E8A828B8384
:104E2300E0FC900353124EC174027808121232EC64
:104E33004508FCAD09EA2412124EBB740678081229
:104E43001232EC4508FCED4509FDEA2415F582EB29
:104E53001239686004780180027800E4C8F9ED49EA
:104E6300FDEA2411F582EB123968F5088809740903
:104E73007808121232ED4509FDEA2416124EBB746E
:104E83000B7808121232ED4509FDEA2417124EBBC6
:104E9300740C7808121232ED4509FD8A828B83A3C4
:104EA300A3A3A3A3A3124EC1740A7808121232EC6F
:104EB300FAED4509FB02552AF582EB1246F0E0F5BF
:104EC3000875090022E085088285098322A3E0F999
:104ED3008508828509832274EE120A6E8A0A8B0B77
:104EE300ECFEEDFF750F01E9C3940850057900024C
:104EF30050CD8E828F83E9F0125333E96003750F2F
:104F0300001253178E828F83125361EE125C9FEF50
:104F1300125356C0E0EE2411123898D0E012534ECB
:104F2300C0E0EE2412123898D0E01249B774081288
:104F33005D59A3A3A3E060151252FFEE2413F5827B
:104F4300EF1255698E828F83A3E02408F08E828F3F
:104F530083A3A3A3A3A3A3A3A3E060218E828F8330
:104F6300A3858208858309125342EE2415F582EF47
:104F7300125569850882850983E02408F08E828FA3
:104F830083A3A3A3A3A3E0601A8E828F83A3858246
:104F9300088583091253268E828F83A3A3A3A3A319
:104FA3001250F2EE24191249A4EE241B1249A4A3B1
:104FB3001255ADE07003025061EE2419F8EF34008E
:104FC300F98E828F83A3858208858309E0FAE50A37
:104FD3002AF582E50B123968888289831250F2FA26
:104FE300E50A2AF582E50B123968C0E0EE241A12AD
:104FF3003898D0E01250F288828983E06059F890A3
:105003002E73E493C398500575110C8008EE241990
:10501300123965F5118E828F83A3E0F8E50A28F52E
:105023000CE50B1250D6121040E511C333FCE433E8
:10503300FD7AA67B0B1250D0121072EE241B12388D
:105043009874A6F0A3740BF0E511C333F8850882B6
:10505300850983E0288006EE241812620AF08E8206
:105063008F83A3E0F88E828F83E0C3985003024EB0
:10507300F0A3E0FA8A08E50A2508F8E50B3400F9FD
:10508300EE241DF582EF125675125102C39AC0E049
:10509300EE2417123898D0E0125572602BEE2417C5
:1050A300F8EF3400F9880889098882F583E024F24F
:1050B300125656240EFAA3E03400FB888289831229
:1050C30054F91250E0C398F0A90F024DD2121B6697
:1050D3007403223400F50D750E00780C2290034EF4
:1050E300E0F912253EE9F8850882850983E022F07C
:1050F300850882850983E004F022A3A3A3A3A3F078
:105103008E828F83E02274F4120A6E8A088B09EA76
:10511300125197F0EA1313543F125190A3A3A3F033
:10512300EAC41313125197A3A3F0EB12518912513E
:10513300A17409780A1212C61251871251A0740A77
:10514300780A1212C6E50A5401C0E0EC2418F5826D
:10515300ED12389BD0E01251A6740B780A1212C6D6
:10516300125187A31251A0740C780A1212C612515D
:1051730087A3A3A3A3A3A3A3A3F0740D7808121278
:10518300C60234C7E50A54018C828D8322540F8CE6
:10519300828D832254038C828D83A3A322A3A3A392
:1051A300A3A3A3F08A0A8B0B22C082C08379008A4F
:1051B300828B83A3A3A3A3A3A3E090034D600FE07B
:1051C30070228A828B83A3A3E07019098016E060A2
:1051D300138A828B831258C7900356E06A7003A325
:1051E300E06B70E7024AA374F0120A6E8A0A8B0B13
:1051F300890C8C088D091253331253178508828545
:105203000983125361E508125C9FE509125356C0E6
:10521300E0E5082411F582E50912389BD0E012532A
:105223004EC0E0123F9912389BD0E012567D7408AD
:1052330012569660111252FFE5082413125671128A
:10524300567DE02408F0850882850983A3A3A3A3E0
:10525300A3A3A3A3E06017850882850983A3125340
:105263003EE50824151256711251022408F08508F0
:1052730082850983A3A3A3A3A3E06019850882857C
:105283000983A3AE82AF83125326850882850983DF
:105293001250FD04F0AA08AB0912159CE9F50D7034
:1052A30056850882850983A3A3A3A3A3A312530A44
:1052B3007014E0FA8A0EE50A250EF8E50B12555E26
:1052C300E50CC39A802112533EE8240EF8E91255E7
:1052D3005E90034EE0F912253E8E828F83E0F8E55F
:1052E3000CC39824F2C399C0E0E5082417F582E5BE
:1052F3000912389BD0E0F0A90D025C8EE50A240860
:10530300F8E50B3400F92212530E22E0850882855A
:105313000983A322850A82850B83A3A3125377E013
:10532300F9EA22E0F8E50A28F582E50B1255852211
:105333008A828B83125C9312159622AE82AF83E02E
:10534300F8E50A28F8E50B3400F92212538AA3A3DF
:10535300A3E0221246F0E8125383A3A3E022A3A3FF
:10536300A3A3A3A3A3A3A3125383125377A3A3E0DB
:10537300F9EAF822E0FA850A82850B83A3A3A32224
:10538300F0A3E912538A22F0850A82850B83A3A333
:10539300A3A322C082C0837AC57B0379E21223CA06
:1053A3007AC57B03024AA3C082C083900356024A94
:1053B300A0C082C08374FE121106851882851983EA
:1053C300AA82AB83794B1253D41258D07402024A87
:1053D300791223CA85188285198322C082C08379F2
:1053E3004A1223CA024AA374F6120A6E9003CDE04E
:1053F300FE04F0EEF912154E8B09EA450970EDEE45
:1054030060EAF902552A74F0120A6EEAFEEBFF8C89
:10541300088D09890A7410121337E0F50B74111201
:105423001337E0F50C12166EEA4B7013E50C70425D
:10543300A90AAC08AD09EEFAEFFB121686806EE5F9
:105443000A6021EA2402F582EB123968850A0825ED
:1054530008F8E4340013E813F070098A828B83A3FD
:10546300A37401F0E50C6045E50B70068A828B831B
:10547300E4F07401650C7035E50B9003D47004E41B
:10548300F0802AE004F0900CF6E0F89003D4E0C337
:1054930098401AE4F0900359E06E7003A3E06F7034
:1054A3000CEEFAEFFB79011213F21254B3025C8E85
:1054B3007A017B009003B0E0F9121CF222C082C093
:1054C3008374016A7001EB70077A011254EA801247
:1054D300900CED1254F9EA4B60051232438003122B
:1054E30054B3024AA37A207B009003B0E0F9121B65
:1054F300C6223400F583EAF0A3EBF022C082C08316
:10550300900CEF0240A3C082C083900CF10240A331
:10551300125FA122EE240CF582EF3400F583124AC8
:105523009AE849221210727F02020D24A2F0E4339A
:1055330085188285198312554B79521223D0221272
:10554300554B79421223D022F0AA82AB8322AA08B8
:10555300AB099003B0E0F9121B9C223400F9E50873
:10556300241DF582E5091246F0E8F0A3E9F02212C2
:105573005D5DA3A3E022A3F0EE241512558222F56C
:1055830082EF3400F583E02212558F223400F58335
:10559300E0F8A3E0F98882898322E0F81255A32278
:1055A300A3E0F98E828F83A3A322F0EE2418124680
:1055B300ED22F0EE24161246ED2274F4120A6EEA7E
:1055C300FEEBFF7A007B041254B712564C12556C53
:1055D3009003657409F01215A88A088B09AC08AD0D
:1055E30009EE24131238981258D01257A064017090
:1055F300487A0F12563F60418A828B837402125697
:1056030056FAA3E0FB8A828B83A3E0FC8A828B8316
:10561300A3A3E0FBEC850882850983A3A31254FAB4
:10562300888289831258D4124EC8125579FAA3E09E
:10563300FB794A1223D012555102395D7B00121BAC
:10564300908A088B09EA450922900336124A9A90F8
:105653000CF122F0EE241DF8EF12566022124BDB00
:10566300E022125669223400F5837401F022F58298
:10567300E5091246F0E8F0A3E922125681221256F8
:105683008522F0850882850983A322125685A3A368
:10569300A3A32212568EA3A3E022125AA71215FC2B
:1056A30022EE2417F582EF1256691215A8EE241A7A
:1056B3001246EDEAF0A3EBF02274F4120A6E74F3CF
:1056C3001211068908EAFEEBFF7C0D7D0079008547
:1056D3001882851983AA82AB83121B72EE241D12D2
:1056E3003898125F92A3E0F8741F58600A79011288
:1056F30023A07900025797E8A2E55008740C12130F
:10570300377401F0E8A2E75008740B1213377401E1
:10571300F0E8A2E6740A50081213377401F0800807
:10572300121337E064017005EE24138003EE241591
:10573300125DCF7402121337AA82AB831223B812FD
:1057430038951257A512556C740A121337E0640189
:105753007033123276703B1215B48A0A8B0BA80A87
:10576300A90BEE240B123965687003A3E06970225C
:105773001215A8EAFCEBFD7402121337AA82AB835D
:105783001257A0600D851882851983AA82AB8312F4
:1057930013ECA908740D02395AEEFAEFFB1223B287
:1057A300E922E01257AA22F8A3E0F98518828519A5
:1057B300832274F6120A6E74F31211068A088B0997
:1057C300ECFEEDFF7C0D7D00790085188285198341
:1057D300AA82AB83126137A3A3A3A3A3A3A3A3A307
:1057E30012583F125848F8A2E55008740B121337A9
:1057F3007401F0E8A2E75008740A1213377401F039
:10580300E8A2E6EE5004241380022415125DCF743F
:1058130002121337125831A3A3E0C0E0740C121321
:1058230037D0E0125A9F1213E6740D025527AA824D
:10583300AB831223B885088285098322E01257AA15
:10584300E8F0A3E922F01246EA125F96A3E022747D
:10585300F7120A6E74E1121106EAFEEBFF8E828FD5
:10586300831258D4A3A3A3E0A2E050518E828F8366
:105873001233D68A828B83A3A3A3A3A3A3E054FEEC
:105883001258EC8A828B831258E5E0F98A828B8363
:10589300E0241CFAA3E01243061258D01215A2E921
:1058A300701B741D1213371258DF7011851882850F
:1058B3001983AC82AD83EEFAEFFB1215EA025B119A
:1058C3008E828F83A3A3A3A3A3A3A3A3A31239535A
:1058D300221258D822125F9AA3A3A322124722644A
:1058E3000422E0241B124BD422124A82AC82AD83E1
:1058F30022E9F87900740468600A740A6860057420
:10590300036870010902102474F6120A6E8A828BEE
:10591300837420F0A3A37401F01213988A088B09EF
:10592300AE08AF09EE4F60108E828F837401F09042
:1059330003A3E070031256A4EEFAEFFB02552AC04C
:1059430082C0839003B97401F0E9A2E350037403A6
:10595300F0E9A2E15004E0D2E2F0024AA374F612A5
:105963000A6E79007C008A088B097808120D6AF8A0
:10597300FF07935991599159915991598A598E59C0
:10598300935987590C80097C0480050C80F67C08A8
:105993009003B9E05C6003098003EC6001090255E0
:1059A3002A74F6120A6E8A828B83E07012A3125550
:1059B30021600C8A828B831258CF12256280047A6D
:1059C300007B0002552A74F5120A6E74F312110655
:1059D3008A088B09ECFEEDFF750A12EA450970058A
:1059E3007900025A98900356E065087004A3E065B5
:1059F3000970141215A8EAFCEBFD12579C7005758B
:105A03000A018003750A00851882851983E4F0046E
:105A1300121337E508F0A3E509125A9F12135CE944
:105A230060277403121337AA82AB83122484E964B8
:105A3300017016750A017403121337AC82AD831219
:105A4300579C6021750A00801C7412650A701690B9
:105A530003A2E06402700EEEFCEFFDAA08AB09128C
:105A63001374E970DFEEFCEFFDAA08AB091216749C
:105A7300E9F8740A687005750A01801774A06870E4
:105A830012EEFCEFFDAA08AB09121680AA08AB09B7
:105A9300121692A90A740D02649F7402125AA32269
:105AA300125AA722124A82AA82AB832274F7120ADD
:105AB3006EEAFEEBFF8E828F83A3A3A3A3A3A3A30C
:105AC300A3E06015EE241512389812394312161408
:105AD300E964017004790180258E828F83A3A3A3D7
:105AE300A3A3A3A3E06015EE2413123898125B035B
:105AF300FAA3E0FB121614E9640160D9790080135C
:105B03001243F2A3A3A3A3A3A3A3A3A3E022741FFB
:105B13001210727F01020D2474F0120A6E74FD12CA
:105B230011068A088B09ECFEEDFF890B741312131F
