:020000040000FA
:060000000212980207BB8A
:03002B000210BF01
:03003300020E704A
:03004300020F5B4E
:030053000206ECB6
:03006B00020E562C
:100083000207500101FF01010503010F10FEFF00EC
:100093001B001B001B001BB619B019001B8D2F0082
:1000A300000000EF2F000000000C0000000C000116
:1000B30000002E1D000000000000EE1D00000000E7
:1000C300000000000000FFFF0102006505000000C2
:1000D300D8056400020200080000050207051E029D
:1000E300051E020A0A03B80B02803E0102F1FF1447
:1000F3001F00E007965118000202063031323334F4
:10010300353637383941424344454600286E756CCD
:100113006C20706F696E74657229003F3F3F000069
:1001230000807F0000803FF9021550B743BA5100A9
:1001330000204100E7DB2E0000A040100000000873
:100143000000000A0000001212E460461212B760B9
:100153003DE9687008F618F618F618F622748067F9
:10016300F712017E090909748067F7221212B7603A
:100173001D1212E47005191919801A121131701F1A
:1001830012115BC37003E667331919194007181876
:10019300182208080874FFF618F618F618F6221243
:1001A300115B6017121323702192F012132D701933
:1001B300501720F014080808090909E7F61819E789
:1001C300F61819E7F61819E7F62212132D60E6E878
:1001D30069701F0808E62480F608E436F618547F91
:1001E300B47F0CE654806007F6E418F618F622187C
:1001F3001822E9C6CC08C6CD08C6CE08C6CFC0E0D3
:10020300E8C0E0EAC0E0EBC0E009E9F809E7FA0971
:10021300E7FBE6F918E6F8C3EC98ED99EE9AEBC222
:10022300E7F5F0EFC2E795F0500E600CEBCFFBEA79
:10023300CEFAE9CDF9E8CCF8EAA2E7D2E7FAEB3354
:10024300FB13F5F0EEA2E7D2E7FEEF33FFC5F013A1
:10025300A2E730E601B313C5F0C3C0E0C0F07F00EE
:10026300C39BFB605B9418600C401AD0E023F9D069
:10027300E0F802034D8AF0E9486003D2F0E4AFF0FE
:10028300FAF9F8803BEB30E40D89F0EA6003D2F031
:10029300E4AFF0F9CAF8EB30E30D88F0EF6002D277
:1002A300F0AFF0E4CAC9F8EB54076014FBC3EA13D8
:1002B300FAE913F9E813F8EF135002D2E0FFDBED8C
:1002C300D0E0C0E030E739C3E49FFFF5F0EC98FCE1
:1002D30042F0ED99FD42F0EE9AFE42F0D0E0F9D003
:1002E300E0F8E5F0607AE923F9EE20E742D80280EE
:1002F30067C3EF33FFEC33FCED33FDEE33FE80EAEF
:10030300EC28FCED39FDEE3AFED0E023F9D0E0F81D
:100313004002801BC3EE13FEED13FDEC13FCEF1341
:100323005002D2E0FF08B800067F7F74FF802EEFF3
:100333003350178CF020F00260100CBC000C0DBD84
:1003430000080EBE000408E860DFE933E813FFEE9F
:100353002313FE4F4D4C8008E95480FFE4FEFDFC5F
:10036300EE33EF33F47004FCFD7E80D0E0FBD0E08D
:10037300FAD0E0F8D0E0CFC618CEC618CDC618CC58
:10038300C6F9221212B77004181818221212E47058
:100393000D74FFF61819F61819F61819F622E75412
:1003A3008066F612132D700F12132370F014F608E3
:1003B300F608F608F680D1121323700CF608F60837
:1003C300768008E6447F80EC12115E700C121134C3
:1003D30060BFE65480F6E480BB121134700519192E
:1003E3001980A5E869700C763F18768018F618F620
:1003F300E8F922E6CDC0E018ECC0E0E633CD33CD1A
:10040300D313F6E719FCE7191933CC33C3947F40B0
:100413000ECD9D502408E65480F6E418F6800FF4C0
:10042300043D14501408E6447FF6187680E418F669
:1004330018F6D0E0FCD0E0FD22CCD313CCFD18E4B9
:10044300C6CBC0E018E4C6CAC0E00808ED08C6334E
:10045300E613F618E433C675F003C3CA97CA09CB8B
:1004630097CB199C40047D08802EBD000302052F05
:1004730016B6FF050606081618C3CA33CACB33CB14
:1004830033CA27CA09CB37CB193CC37D08803E1832
:100493007D0820E75CC633C6CA33CACB33CB33DD12
:1004A300F1D5F0EB30E77BCA97CA09CB974ACB1952
:1004B3009C406F4B7025E620E0218066187D08C3C1
:1004C300CA97CA09CB97CB199CD3C633C6CA33CABA
:1004D300CB33CB3350C9DDE7D5F0E1D3E4C636C621
:1004E30008C636C608C636C608C636C618181880E3
:1004F30031C3CA97CA09CB97CB199CB34097C6336C
:10050300C6CA33CACB33CB33DD34D5F02EC6A2E013
:10051300C640C8CA27CA09CB37194A70BECB3CB4F8
:1005230080B90808E63308E633601F181818D0E0CE
:10053300FAD0E0FBD0E0FCD0E0FD22187D08CA270A
:10054300CA09CB37CB193CD3808013F618E4B67FA6
:1005530011F618B6FF0EF618C60470D20808768096
:1005630080CAF618F618F680C5001212B7604F124B
:1005730012E46012E7548066F612113170111213FF
:1005830023703B090909F4F618F618F618F6221237
:10059300115B701512132D08080860EAE6447FF614
:1005A30018768018E4F618F62212132D601612132B
:1005B300237012E4F608F608F608E65480F60909F3
:1005C3000918181822EAC0E0EBC0E0ECC0E0EDC067
:1005D300E0E687F0A4FBACF008E687F0A42CFCE48B
:1005E30035F0FA1809E687F0A42C4B60027401CAAF
:1005F30035F0FCE433FB09E687F0D2F7A42CCB35C6
:10060300F0FC1908E687F0A42BCC35F0FBE433FDAE
:100613000819E687F0D2E7A42C4ACB35F0CD340095
:10062300FC09E687F0D2E7A42DCC35F0FDE433FADC
:100633000918E687F0D2F7A42CCD35F0CA3400FCB4
:1006430008E687F0D2E7D2F7A42ACC35F07A7E20E9
:10065300E70B0ACB33CBCD33CDCC33CC33CB3350B9
:10066300147004ED30E00ED2F1E4CD3DCDCC3CCCA2
:100673003B5005DA05C2F1EB547FC63308E63392EB
:10068300F0FBE73309E733C39A502D2B70190C0D98
:100693004C4D70151806E608C333700D20F10AA2FD
:1006A300F013F6E418800B4024E4F630F002768071
:1006B30018F618F618F68024D33B14501074FFA2D2
:1006C300F013F6187680E418F618F6800FA2F013EC
:1006D300F618E63303F618ECF618EDF6D0E0FDD085
:1006E300E0FCD0E0FBD0E0FA22C0E074F2120ADBB7
:1006F300A2AFE433FED2AFE5A7FFE5A1F5085F544F
:1007030010600612252075A1EFE5085F5408600804
:1007130012252675A1F7802BEFA2E0C0D0E508A231
:10072300E092F01211E6158182F05017906198E083
:10073300F89008B5E0C398A2D265D0335002E8F030
:1007430075A1FEEEA2E092AF7F01020B3AC0E07406
:10075300F2120ADBA2AFE433FED2AF9061A4E0F859
:10076300759B00E59158540860087591F712256E42
:10077300802AE59158541060087591EF1225748012
:100783001BE8A2E0C0D0E591A2E092F01211E615B9
:100793008182F05007E0C2E0F01226B89061A3E036
:1007A300F8E5E9585404600E12268E75E9FB906152
:1007B30093E0A2E640F2808BC0E074F2120ADBA25F
:1007C300AFE433FED2AF9061A5E0F8E5BF5854041F
:1007D300600675BFFB1226D0020746C3E498F8E40F
:1007E30099F912081F8026C3E49AFAE49BFBE920D7
:1007F300E7E912081FE498F8E499F922C3E498F8AA
:10080300E499F912081FE498F8E499F9C3E49AFA11
:10081300E49BFB22EB20E7CFE920E7E0B90010BB24
:100823000008E88AF084F8AAF022E4FBC8FA22EB75
:1008330070227B10C833C8C933C9335007C39AC366
:10084300DBF280069A50012ADBEAC833F4C8C933C5
:10085300F4C9FA2275F008E4C833C8C933C933C9E7
:100863009AC99B5004C92AC93BD5F0ECFBC833F4A1
:10087300C8E4C9FA221208B820F01430E72B74FF39
:10088300FCFBFA747F8022E4FCFBFA7480801AB4C8
:100893008008BC00F2BB00EF800F50EBF9E4C39A71
:1008A300FAE49BFBE49CFCE499C6CC18C6CB18C6BF
:1008B300CA18C6F922E4C9C608CAC608CBC6D333C8
:1008C3000308CCC63392F0C3947F402E941840198A
:1008D300C9B90704CACBCC225025C309CA33CACB32
:1008E30033CBCC33CC33D9F422F4600DC9CCC3134E
:1008F300CB13CBCA13CAD9F6CC22E4FCFBFA2214DD
:10090300FCFBFA22080808EAC0E0EBC0E086F0E747
:10091300A4FA180986F0E7A42AFA180986F0E7A4CE
:100923002AFA180986F0E7A42AFA1986F0E7A4FB45
:10093300E5F02AFA190886F0E7A42BFBE5F03AFA6A
:10094300190886F0E7A42BFBE5F03AFA1818098694
:10095300F0E7A4C5F02BFBE43AFA1908E7C5F0C6A3
:10096300A426F6E5F03BFBE43AFA1886F0E7A4F692
:10097300E5F00826F6E43B08F6E43A08F6D0E0FB97
:10098300D0E0FA22080808E630E71112119912099B
:100993009F080808C64480C618181822181818E9B2
:1009A300799EC608CAC608CBC608CCC6C3702079D0
:1009B30096CACBCC7019798ECBCC70137986CC7058
:1009C3000EF9802ACA33CACB33CBCC33CC3319309C
:1009D300E7F2CCCBCA3350147004EA30E00DE4CA1A
:1009E3003ACACB3BCBCC3CCC500209C3E913C6CCAF
:1009F300182313C6CB18C6CA18C6F922E4CFC0E021
:100A0300E4CEC0E0E4CDC0E0E4CCC0E075F020C3A8
:100A1300E633F608E633F608E633F608E633F61867
:100A23001818EC33FCED33FDEE33FEEF33FFC3EC6C
:100A33009709ED9709EE9709EF97191919400FFFD9
:100A4300EC97FC09ED97FD09EE97FE191906D5F011
:100A5300BEECF709EDF709EEF709EFF7191919D00D
:100A6300E0FCD0E0FDD0E0FED0E0FF222518C582F7
:100A7300C0E0E51934FFC583C0E0E518C3958224BF
:100A8300F810AF0885831985821880088583198536
:100A93008218D2AFCEF0A3E520F0A37808E608F0E1
:100AA300A3DEFAEFF0A3E58124FAF8E608F0A3E663
:100AB30008F0A3E608F0A30808E608F0A3E608F0A8
:100AC300A315811581D0E0FED0E0F81581158115BD
:100AD30081E8C0E0EEC0E022C0D02518C582C0E0A6
:100AE300E51934FFC583C0E0E518C3958224F310EC
:100AF300AF08858319858218800885831985821834
:100B0300D2AFC8F0A3E9F0A3EAF0A3EBF0A379080E
:100B1300E709F0A3D8FAECF0A3EDF0A3EEF0A3EF0E
:100B2300F0A3D0E0F0A3D0E0F0A3D0E0F0A3E52061
:100B3300F0A3E5F0F0A322851983851882E0C0E0D5
:100B4300A3E0F9A3E0FAA3E0FBA37808E0F608A387
:100B5300DFFAE0FCA3E0FDA3E0FEA3E0FFA3E0C017
:100B6300E0A3E0C0E0A3E0F5D0A3E0F520A3E0A379
:100B7300F5F010AF088583198582188008858319DD
:100B8300858218D2AFD082D083D0E0F8D0E0321281
:100B93001318B90003020BD4E4900301787C790C99
:100BA3008002F0A3D8FCD9FA900E7CAA82AB839082
:100BB300008678C579018015E493A3AC82AD838A5E
:100BC300828B83F0A3AA82AB838C828D83D8E9D9ED
:100BD300E77582827583B1740412101E7582EE75F7
:100BE3008329740012101E0E0075F0108E1A8F1BCD
:100BF30085821F85831E851882851983E0CEA3E035
:100C0300CF851F82851E83EBC9EAC8EDCBECCAC32F
:100C1300E833C8E933C9EA33CAEB33CBC3EA9EF5F9
:100C23001DEB9FF51CB35004AB1CAA1DEC33CCED9C
:100C330033CDD5F0DAAE1AAF1B221212B7601C12F5
:100C430012E4601712132D70071213237001D322BD
:100C5300C0D01213237006D0D0B322C32233D0D016
:100C6300501430E0F6C3E7960809E7960809E796BB
:100C73000809E796B32220E0D5E6970809E6970826
:100C830009E6970809E697B3221212B7601B1212FE
:100C9300E4601612132D7007121323600CB322C0E5
:100CA300D01213237005D0D022C32233D0D05013D7
:100CB30030E0EBC3E7960809E7960809E7960809C9
:100CC300E7962220E0E4E6970809E6970809E69705
:100CD3000809E69722D083D082ECC0E0EDC0E0E4BF
:100CE30093A3FCE493A3FDED4C600D120DB0EC2433
:100CF300FFFCED34FFFD80EFE493A3FCE493A3FD3D
:100D0300ED4C600D120EE0EC24FFFCED34FFFD8092
:100D1300EFD0E0FDD0E0FCE493A3C0E0E493C0E0B7
:100D230022851983851882E0A3FEE0A3F5207808C5
:100D3300E0A3F608DFFAE0A3FFE0A3C0E0E0A3C06E
:100D4300E0E0A3C0E0E0A3C0E0E0A3C0E010AF0890
:100D53008582188583198008858218858319D2AF07
:100D6300D083D082021024D083D082E9C0E0E49300
:100D7300A3C386F0C5F095F0F908E493A386F0C504
:100D8300F095F0700BE493A3C3994005E904800246
:100D9300A3E475F002A42582F582E5F03583F5839B
:100DA300D0E0F9E493A3C0E0E493C0E022C0E0C341
:100DB300E49396087401939618400FE493667008C1
:100DC30008740193661870007019A3A3C3E4939683
:100DD300087401939618A3A3400DD0E0D0E0D0E0AF
:100DE300020D14A3A3A3A3A3A3D0E022D083D08294
:100DF300C5F0E493A3C5F0C395F0F5F0E493A3C362
:100E030095F04005E5F0048001E475F002A4258225
:100E1300F582E5F03583F583E493A3C0E0E493C062
:100E2300E0227404800474028000CCC0E0EDC0E0D2
:100E3300E518C39CCCAD1950011D10AF068C188D5D
:100E43001980068C188D19D2AF120FA0D0E0FDD0F7
:100E5300E0FC22C0E074F2120ADBE589A2E1500350
:100E63001223D6758900C2C57F01020B3AC0E07414
:100E7300F2120ADBE58BA2E050031223D6758B0036
:100E8300C2E880E474028000CCC0E0EDC0E0E51865
:100E9300C39CCCAD1950011D10AF068C188D198061
:100EA300068C188D19D2AF120F7ED0E0FDD0E0FC76
:100EB300221212B760251212E4602012132D700360
:100EC300021323080808E76670101819E766700A0A
:100ED3001819E76670041819E76622F422C0E0C007
:100EE300F088F0E493667008087401936618700044
:100EF300A8F0A3A3700BD0F0D0E0D0E0D0E0020DB7
:100F030014A3A3D0F0D0E022D083D082CCC0E0E4FD
:100F130093A36006120FC11470FAE493A360061240
:100F230010F01470FAD0E0FCE493A3C0E0E493C0A3
:100F3300E022C008C3E096F50808A3E0964208083B
:100F4300A3E096420808A3E0964208A2D265D033F4
:100F5300E5087001D3D00822C0E074F2120ADBA2C4
:100F6300AFE433FED2AFC2C0E5D1A2E450031224F2
:100F730096EEA2E092AF7F01020B3ACAC0E0E4937F
:100F8300A3C582CCC582C583CDC583F0A3C582CC5E
:100F9300C582C583CDC583DAE5D0E0CA22CAC0E0E5
:100FA300E0A3C582CCC582C583CDC583F0A3C5822A
:100FB300CCC582C583CDC583DAE6D0E0CA22C0E0C2
:100FC300E493A3D39C5010E493A3C39C400AD0E0C2
:100FD300D0E0D0E0020F28A3A3A3D0E02270090839
:100FE3000808226016181818C6C333C608C633C6C5
:100FF30008C633C608C633C6D5E0EA22C008C3E034
:1010030096F50808A3E096420808A3E0964208086C
:10101300A3E09645087001D3D00822C09FF59FE452
:1010230073D09F22D083D082C09FE493C0E0740129
:1010330093C0E0740293F59F227404800A740380C2
:1010430006740280027401C0E0F404121057D0E069
:101053001212F3222518F58210AF08F51840021575
:10106300198008F51840021519D2AF85198322C0DB
:10107300D0251810AF08F518500205198008F51887
:1010830050020519D2AFD0D022BB0102E722C082A1
:10109300C08389828A83BB0003E08002E493D08308
:1010A300D082226016080808C6C313C618C613C622
:1010B30018C613C618C613C6D5E0EA22C0E0C0D0CE
:1010C300E8C0E0E5A8D2AFC2C7A2E792AFD0E0F88C
:1010D300D0D0D0E032C3E0C696F608A3E0C696F6B9
:1010E30008A3E0C696F608A3E0C696F622C0E0E49D
:1010F30093A36C7009D0E0D0E0D0E0020F28A3A343
:10110300D0E022251810AF08F51840021519800801
:10111300F51840021519D2AF22E066701008A3E05B
:1011230066700A08A3E066700408A3E06622181834
:1011330018E6084608700AE608C3337005E633F478
:10114300220822E76670100809E766700A0809E7B3
:101153006670040809E76622191919E70947097037
:101163000AE709C3337005E733F4220922C3E09683
:1011730008A3E09608A3E09608A3E096A2D265D060
:101183003322C3E096F008A3E096F008A3E096F0BC
:1011930008A3E096F022181818E4C396F608E4961C
:1011A300F608E496F608E496F622E026F608A3E0AD
:1011B30036F608A3E036F608A3E036F622E026F07A
:1011C30008A3E036F008A3E036F008A3E036F022E7
:1011D300E627F60809E637F60809E637F60809E6CA
:1011E30037F622C0E0E8C0E0E58124FCF8E6A2E798
:1011F300D0E0F8D0E022E657F60809E657F60809EA
:10120300E657F60809E657F622E056F608A3E05635
:10121300F608A3E056F608A3E056F622E647F608DA
:1012230009E647F60809E647F60809E647F6227095
:101233000422600D18C6C333C608C633C6D5E0F40E
:101243001822E056F008A3E056F008A3E056F00891
:10125300A3E056F022C3E09608A3E09608A3E09625
:1012630008A3E09622C6F4C608C6F4C608C6F4C6A8
:1012730008C6F4C622600D08C6A2E713C618C61333
:10128300C6D5E0F322C3E7960809E7960809E7966F
:101293000809E7962275D000758140751801751904
:1012A3000300020B92E6F008A3E6F008A3E6F008B9
:1012B300A3E6F022E6084608C3134608336002E6B5
:1012C30033F422600C08C6C313C618C613C6D5E090
:1012D300F422E0F608A3E0F608A3E0F608A3E0F69C
:1012E30022E7094709C3134709336002E733F422AE
:1012F300CAC0E0E6F0A308DAFAD0E0FA22EAF0A3E3
:10130300EBF0A3ECF0A3EDF022E0FAA3E0FBA3E003
:10131300FCA3E0FD22E5C754F84401F5C779012297
:10132300E7C33319471947194722E6C33318461849
:10133300461846222518F582E43519F58322C2AFF3
:1013430075D69F020000221210273A36001210278A
:101353008B36001210273B3700121027F337001289
:101363001027BB38001210277B3900121027BF3912
:1013730000121027E43900121027273A0012102711
:10138300743A00121027CC3B00121027523C001273
:101393001027703C001210279A3C00121027B43C0F
:1013A30000121027C33C00121027CE3C0012102756
:1013B3008E3D00121027E73D00121027A93E0012B0
:1013C3001027B13E00121027753F00121027E13F8E
:1013D300001210270C410012102731410012102770
:1013E300A741001210273942001210279142001220
:1013F30010275143001210277043001210277F4417
:1014030000121027914400121027004500121027E4
:101413005546001210278746001210271A4700125C
:1014230010275347001210279F4700121027BB486D
:1014330000121027044B001210270F4B0012102725
:101443001A4B00121027254B001210272F4B0012A6
:1014530010273A4B00121027544B001210275E4BF3
:1014630000121027684B00121027734B001210272D
:101473009B4B00121027F64B00121027004C001252
:101483001027244C00121027484C00121027A64C9A
:1014930000121027EA4C00121027064D00121027E5
:1014A3007D4D00121027B54D00121027014E00127A
:1014B30010275E4E00121027184F00121027FC5001
:1014C30000121027555100121027855200121027C1
:1014D300AB5200121027345400121027B0570012D9
:1014E30010278259001210274B5B00121027F85B5C
:1014F30000121027635D00121027025E00121027EE
:10150300475E00121027B15E00121027C05E001262
:101513001027476100121027F96200121027666333
:10152300001210274564001210275E650012102771
:10153300DB6600121027FA66001210274F670012AD
:1015430010275468001210277C6800121027D468F3
:1015530000121027B36900121027F7690012102731
:10156300426A00121027AD6A00121027EE6B0012B8
:101573001027526C00121027A06D00121027007064
:1015830000121027317000121027E9710012102782
:101593003E7200121027427300121027DF730012ED
:1015A3001027387400121027EB74001210278D7562
:1015B300001210272D7600121027D2760012102762
:1015C3000B82011210274A82011210279184011203
:1015D3001027DB8401121027F685011210275E867F
:1015E3000112102793860112102707880112102772
:1015F3008A8A01121027B38B01121027498C01121A
:101603001027519501121027E69501121027CD9846
:1016130001121027C099011210272E9A01121027C8
:10162300749B01121027569C011210273B9E011236
:1016330010274CA001121027B6A00112102788A171
:1016430001121027B6A10112102773A2011210274D
:101653004AA30112102711A401121027B5A40112E5
:101663001027DEA40112102700A50112102756A788
:10167300011210272EA80112102772A80112102799
:10168300DAA80112102792A901121027C4A9011286
:10169300102708AA011210273EAA011210278AAAAE
:1016A30001121027DFAA01121027E4AA0112102742
:1016B30037AB011210275CAB011210276BAC011280
:1016C3001027CFAC011210273FAD01121027CBAD6D
:1016D3000112102798B0011210277CB101121027B4
:1016E300FFB20112102735B501121027E3B501121D
:1016F300102793B601121027D4B80112102777B917
:1017030001121027BEB9011210276ABB011210275C
:101713007EBB0112102788BB01121027B0BB011238
:101723001027BCBB01121027DBBB01121027FBBD26
:10173300011210274ABF011210278EBF0112102772
:1017430036C00112102719C101121027C4C101129A
:10175300102710C3011210270EC401121027B4C49E
:101763000112102744C5011210275BC5011210276F
:1017730092C5011210279CC501121027A7C501129B
:101783001027C5C50112102709C60112102766C606
:10179300011210278BC601121027A5C601121027AC
:1017A30031C7011210274EC801121027BBC80112FE
:1017B3001027A2C901121027C9C9011210273DCA57
:1017C30001121027B8CA01121027BCCB011210272F
:1017D300B2CC0112102761CD0112102774CE011271
:1017E300102710CF011210279DCF011210277BD095
:1017F30001121027B3D0011210270BD101121027A9
:10180300D4D101121027F5D1011210277CD2011275
:101813001027A0D201121027C2D2011210270BD316
:101823000112102721D50112102708D60112102703
:10183300B9D601121027EFD8011210273FD9011290
:1018430010277FD901121027C1D9011210271DDAE1
:10185300011210274BDA011210276FDA0112102739
:10186300C2DA01121027F0DA0112102729DB011264
:1018730010277EDB01121027E4DB0112102738DD6D
:10188300011210275BDF01121027C8DF0112102796
:10189300F1DF011210277CE001121027E3E00112AF
:1018A30010272EE10112102752E10112102776E1D1
:1018B30001121027D1E101121027ECE101121027C8
:1018C300A5E2011210272EC7041210276DC70412B8
:1018D3001027788002121027BE80021210279E81E3
:1018E30002121027A08202121027A38302121027CC
:1018F3002F85021210278D85021210274A860212A5
:101903001027688702121027D9870212102715881B
:10191300021210276388021210276D880212102703
:10192300B188021210270D8902121027A88902120A
:101933001027258A02121027F48A021210278D8B92
:1019430002121027AD8B02121027E38B021210270D
:10195300148C02121027D58C02121027E58C021268
:101963001027398D02121027548D02121027668D0D
:10197300021210276F8D02121027C98D0212102731
:10198300258E02121027718E021210278C8E0212DE
:101993001027BD8E02121027DA8E02121027E68E50
:1019A300021210275A900212102773900212102766
:1019B300DA9002121027ED9002121027FB90021208
:1019C3001027AF91021210279392021210279993B6
:1019D300021210272394021210272D9402121027AB
:1019E3009A9402121027B19402121027E394021260
:1019F30010271C9502121027469502121027A7954F
:101A030002121027C79502121027E595021210271C
:101A13002B96021210275197021210279E9702123B
:101A23001027CD97021210274398021210276B98A4
:101A330002121027A49802121027B298021210273C
:101A43000A99021210275999021210279899021223
:101A53001027C89902121027F49902121027FF9930
:101A6300021210271D9A02121027DF9A0212102762
:101A7300E99A02121027249B021210273A9B0212A2
:101A830010278F9B02121027A39B02121027B19CD1
:101A930002121027C49C02121027D99C021210278D
:101AA3007B9D02121027FE9D02121027BC9E02127C
:101AB3001027C79E02121027F39F021210270FA0B0
:101AC3000212102761A002121027A0A002121027F1
:101AD300B5A00212102717A102121027A6A1021205
:101AE3001027F1A10212102742A402121027C0A44A
:101AF3000212102735A50212102757A7021210272A
:101B03006FA70212102772A7021210277EA70212D4
:101B1300102792A7021210279AA702121027CDA707
:101B2300021210277DA802121027F3A80212102711
:101B330066A9021210271AAA02121027CFAA0212AC
:101B43001027EEAA021210278EAB021210279AABAF
:101B530002121027C5AB02121027C8AB02121027BE
:101B630032AC021210275AAD0212102732AE021203
:101B73001027BDAE02121027D6AF0212102793B062
:101B830002121027CCB002121027FDB00212102748
:101B9300BBB102121027EBB102121027C6B2021218
:101BA30010275FB302121027EAB3021210279BB467
:101BB300021210271EB50212102750B50212102769
:101BC30091B50212102766D403121027CBD4031247
:101BD300102708D50312102757D5031210276DD7E6
:101BE3000312102750D903121027BADC031210274F
:101BF300F5DC0312102717DD031210277ADD031219
:101C03001027AEDD03121027D1DD03121027FEDDEE
:101C1300031210275ADE0312102750BE0312102797
:101C2300CEBE0312102704BF0312102770BF031286
:101C33001027E3C003121027FFC00312102744C16B
:101C430003121027D2C1031210272BC2031210272D
:101C530058C3031210276AC403121027C7C4031200
:101C6300102733C50312102794C503121027D5C5B7
:101C73000312102782C60312102794C703121027DA
:101C8300BFC7031210270AC80312102751C8031233
:101C93001027E3C8031210279EC903121027C7C5D4
:101CA30004121027FBC5041210272FC60412102795
:101CB300718904121027898904121027B589041227
:101CC3001027F889041210270F8A041210272A8A72
:101CD30004121027388A04121027478A0412102787
:101CE300628A041210279F8A04121027F48A0412AE
:101CF30010278C8C04121027148D041210272DBC6E
:101D0300041210273EBC041210278FBC04121027A4
:101D1300D4BC041210277EBD0412102733C2041250
:101D2300102709B90412102761BA0412102715CA23
:101D330003121027BACA03121027DACA0312102794
:101D4300FACA031210270ECB0312102766CB031215
:101D5300102796CB0312102717CD03121027BDCDE2
:101D6300031210279FCE03121027F0CE0312102761
:101D730033CF0312102776CF03121027DCCF0312C1
:101D83001027FDCF0312102789D003121027BAD0D2
:101D9300031210272ED103121027DCD203121027AF
:101DA300B6D303121027F8D30312102752D4031209
:101DB300102780B504121027AFE402121027D7B6FC
:101DC3000412102701B704121027B0BA0412102707
:101DD3003CBB0412102746BB0412102767BB041236
:101DE30010270CBC0412102713B20312102716B2CB
:101DF30003121027D0B203121027FBB203121027CD
:101E030042B30312102767B30312102788B30312D8
:101E13001027BCB303121027F5B3031210271EB506
:101E23000312102755B50312102775B50312102797
:101E330010B6031210271336001210270CB7031223
:101E4300102781B80312102724B9031210271DBAD3
:101E53000312102746BA031210279ABA0312102747
:101E630060BB031210278EBB0312102723BD03127E
:101E73001027A4BD03121027D7BD03121027A6DE17
:101E830003121027B0DE03121027FCDE0312102703
:101E93006ADF031210278BDF03121027A2DF03125E
:101EA300102752E003121027E6E203121027EFE295
:101EB3000312102742E3031210276BE303121027C8
:101EC300D2E30312102763E403121027A5E40312DD
:101ED3001027EFE4031210274EE5031210277AE5CB
:101EE300031210270BE6031210274AE603121027EA
:101EF30089E603121027BEE603121027D0E6031269
:101F03001027E2E60312102701E7031210270AE75E
:101F130003121027C0E70312102700E8031210274B
:101F23001A8E04121027ED8E04121027078F041245
:101F33001027188F041210272D91041210274C918B
:101F43000412102750AF0412102786AF0412102773
:101F5300CFAF041210271FB1041210273BE6021261
:101F630010277AE702121027B6E70212102775E945
:101F7300021210279EE90212102731EC02121027D9
:101F830075EC02121027FEED0212102796EE0212D4
:101F93001027FEEE021210279FEF02121027E1EF27
:101FA3000212102721F002121027ACF1021210279F
:101FB3001CF30212102741F5021210276FF50212CB
:101FC300102796F5021210279FF502121027FAF533
:101FD300021210278DF602121027ABF902121027F6
:101FE3002CFA021210273BC80412102751C80412FE
:101FF300102791C6041210279EA404121027B1A41F
:10200300041210274EA50412102789A504121027C5
:10201300A4A504121027C9A5041210270EA60412A2
:1020230010273FA60412102770A604121027F6A744
:102033000412102795BD04121027CBBD04121027DC
:10204300E7BD0412102729BE0412102739BE04125B
:102053001027CEBE04121027D8BE0412102724A1C5
:1020630004121027E7A10412102794A204121027C8
:10207300A2A204121027B5A3031210270DA4031262
:102083001027F6A4031210278FA503121027D9A532
:102093000312102736A6031210278FA60312102748
:1020A300A3A603121027D5A603121027D3A7031242
:1020B300102737A80312102752A803121027A1A82C
:1020C30003121027B7A803121027C4A8031210275E
:1020D300F8A80312102711A903121027A2A90312AB
:1020E3001027B1A90312102739AA0312102793AAA4
:1020F30003121027E1AA0312102703AB03121027C0
:102103007AAD03121027AFAD031210273FAE0312AF
:102113001027B4AE03121027B9AE03121027F5AE81
:10212300031210274BAF031210270FB0031210270F
:1021330034B0031210273EB00312102741B003122C
:102143001027CAB003121027E5B003121027F8B006
:102153000312102724B1031210275FB103121027B3
:1021630062B1031210276DB103121027A9B1031234
:102173001027BCB103121027E3B103121027E1C6E5
:1021830004121027F9C6041210271E770012102715
:102193006D77001210270F7900121027CD7A0012E5
:1021A3001027157B00121027377C00121027687D3B
:1021B300001210278A7D00121027E67D00121027D7
:1021C300687E00121027DFE20112102700E30112DC
:1021D30010278AE3011210270FE4011210278BE462
:1021E30001121027F4E40112102740E50112102711
:1021F300BFE50112102751E601121027DDE6011297
:1022030010271FE7011210278BEB011210270BED8C
:10221300011210274AED0112102731EE0112102787
:1022230034EE01121027E8EE011210271DF00112FF
:10223300102708F20112102788F40112102741F524
:10224300011210275EF601121027B5F901121027AB
:10225300C5F90112102726FB01121027B2FB011248
:102263001027E6FC01121027D7FD0112102759FE93
:1022730001121027008003121027BA8003121027BF
:102283002C81031210273B8103121027B5810312FF
:1022930010272482031210272B8303121027548341
:1022A30003121027F483031210274284031210270A
:1022B300B284031210276B8703121027428803127C
:1022C3001027AF88031210272C8A03121027E08AE5
:1022D300031210278E8B03121027E98B031210278A
:1022E300548C03121027548D031210272E8F0312C0
:1022F3001027419003121027DA90031210274C91F4
:10230300031210271292031210278096041210272B
:10231300D496041210272C970412102777970412CF
:102323001027D99704121027459804121027F898FC
:10233300041210273999041210274F9904121027F9
:10234300AB9904121027E99904121027FAAC04126E
:1023530010272BAD04121027E5AD041210274BAE46
:1023630004121027BCAE041210270CB2041210275B
:1023730026C30412102737C304121027D7C304122D
:10238300102751B7041210275FB70412102779C81A
:102393000412102731C50412102741C50412102757
:1023A3005CC504121027BDC504121027F1FE0112EB
:1023B300102776FF01121027DAFF0112102721C11F
:1023C3000412102743C104121027ADC104121027B1
:1023D300B8C104121027FCC10412102765F10312BF
:1023E300102773F103121027B4F103121027D5F14C
:1023F3000312102752F20312102752F3031210276D
:1024030074F303121027E0F303121027FBF30312F4
:10241300102716F40312102720F4031210272AF4AE
:10242300031210273DF40312102756F4031210274A
:10243300F2F403121027AEF50312102725F6031248
:1024430010279FF60312102705F7031210271A9A75
:1024530004121027289A04121027A29A0412102794
:10246300869B041210273F9D0412102719C80412DB
:10247300102789FA02121027F6FA02121027B7FB67
:102483000212102727FC0212102730FD0212102718
:10249300A8FE021210270CFF0212102761FF02127E
:1024A30010276AFF0212102779FF021210278CFFF0
:1024B30002121027A2FF02121027ABFF02121027ED
:1024C3000080041210275580041210275182041231
:1024D3001027838204121027A58204121027BE82BC
:1024E30004121027D78204121027E1830412102745
:1024F3007C84041210279C7E00121027C07E0012D9
:102503001027D97E001210270C7F001210273D7F61
:10251300001210276B7F00121027CD7F00121027A7
:10252300DC7F00121027E67F00121027F37F0012D2
:1025330010270DA80412102733A80412102770A81F
:10254300041210277FA8041210279EA80412102734
:1025530006A9041210270FA9041210276EA904124A
:10256300102792A90412102751AA041210275EAA59
:10257300041210276FAA04121027BEFF021210279D
:10258300DBFF02121027F384041210275186041272
:1025930010275E8604121027718604121027908676
:1025A30004121027A68604121027BA8604121027D5
:1025B3002F870412102794870412102744880412CB
:1025C3001027198904121027298904121027388922
:1025D3000412102798C404121027BCC40412102735
:1025E300E4C4041210270CC5041210276CFD031257
:1025F300102793FD03121027B4FD0312102719FEB1
:10260300031210279DAA04121027B6AA041210273A
:10261300C2AA04121027D6AA04121027F4AA04127D
:102623001027FEAA0412102708AB041210271BABB5
:10263300041210276EAB04121027A7AB0412102745
:10264300D6AB0412102724AC0412102773AC041267
:1026530010278EAC0412102798AC04121027A9ACD3
:1026630004121027EFAC0412102740C604121027DF
:1026730029E80312102753E8031210276FE8031207
:10268300102782E80312102798E803121027F5E8B1
:102693000312102728E90312102764ED03121027F1
:1026A3008AEE03121027BDEE0312102709EF03125F
:1026B300102735F0031210275DF00312102772F074
:1026C3000312102782F003121027C6F003121027FB
:1026D30027F10312102737F103121027DBBE041270
:1026E3001027F6BE041210271FBF0412102739BF8C
:1026F300041210275EBF041210277DBF0412102797
:1027030095BF04121027C3BF04121027DDBF0412A4
:10271300102777C704121027A49D04121027AB9D1E
:1027230004121027B79E04121027E79E04121027E5
:102733000D9F04121027309F04121027529F04127A
:1027430010278C9F04121027F29F041210272BA02E
:102753000412102777A004121027A4A00412102734
:10276300C4A00412102798B304121027B0B30412A4
:1027730010279EB4041210277DB5041210270EC033
:102783000412102780C004121027BEC004121027A1
:10279300FFC004121027A59204121027C49204123A
:1027A30010271393041210272F93041210276093FA
:1027B300041210277093041210277D93041210271C
:1027C3008A9304121027769404121027B4940412E7
:1027D3001027BE9404121027CE9504121027D99502
:1027E30004121027EB9504121027F49504121027F6
:1027F300FE9504121027AFF803121027F4FC0312FE
:10280300102702FD03121027D2FF03121027F1C372
:10281300041210271BC404121027BBC7041210276D
:10282300F1C7041210275BC8041210276693031222
:1028330010278498031210270CE402121027BFE21A
:10284300021210276AE00212102788DF02121027F3
:102853006CDF021210270CDF02121027C4DE0212F3
:10286300102712DE0212102784DD0212102777DDF3
:1028730002121027CF3500121027943500121027AB
:1028830071DA02121027D3D7021210276E35001205
:1028930010275535001210279CD602121027F0D5A9
:1028A3000212102736D402121027E6D10212102783
:1028B3006DD10212102714D102121027A4D00212D4
:1028C30010277BD0021210275BCE0212102727CECF
:1028D30002121027F4CD02121027D8CD02121027AE
:1028E300F1CC02121027A9CC02121027F4CA02124B
:1028F300102774CA0212102771CA021210276EC958
:10290300021210273CC90212102779C8021210279D
:10291300A4C6021210270135001210275D340012DD
:102923001027D333001210277233001210272033DD
:102933000012102735C60212102707C602121027ED
:1029430004C602121027F1C5021210270E3300121B
:1029530010279CC5021210278BC5021210277DC4B5
:102963000212102747C40212102714E6021210277E
:10297300D5B603121027F5C30212102796C302120D
:10298300102765C3021210272DC002121027EDBFB6
:1029930002121027E1BF0212102741BF02121027B3
:1029A30081BE0212102703BC0212102794B902122F
:1029B300102752B90212102726B802121027DBB7CC
:1029C300021210271AB702121027EDB602121027AF
:1029D30030B602121027C6B50212102700B6021233
:1029E3001027F6E502121027A1B50400000080FBB2
:1029F300E47300000000000000000000000000007D
:102A030000001010101010100000303000000014EF
:102A13002850000000000000000000000000002813
:102A230028FC284850FC5050000000001038545433
:102A3300301814545438100000000044A8A8B054AF
:102A43001A2A2A44000000000020505060ACA898C5
:102A5300927C000000606020C000000000000000C5
:102A630000000004080810101010101008080400DB
:102A7300000040201008040810204000000000005F
:102A8300001010D63838D6101000000000000010D7
:102A93001010FE10101000000000000000000000E5
:102AA30000000000606020C0000000000000FC0087
:102AB3000000000000000000000000000000000013
:102AC30060600000000204040408081010202020A5
:102AD300400000000030488484848484483000002F
:102AE30000000010701010101010107C0000000087
:102AF3000038444404081020447C000000000038DF
:102B0300444418040444443800000000080818280A
:102B13004848887C081C00000000007C4040784442
:102B23000444443800000000003C4480B8C484845A
:102B3300847800000000007C444808101010101036
:102B4300000000000078848448788484847800003E
:102B5300000000788484848C740488F000000000F2
:102B630000000030300000003030000000000000A2
:102B730000001000000000101020000004081020C6
:102B830040201008040000000000000000FC0000CA
:102B9300FC00000000000000402010080408102082
:102BA3004000000000007884848408101000303056
:102BB300000000000038449AAAAAAAB4423C0000CC
:102BC3000000001010282828384444EE00000000BC
:102BD30000F844447844444444F800000000003CB6
:102BE30044848080808044380000000000F0484422
:102BF3004444444448F00000000000FC444048784A
:102C0300484044FC0000000000FC42404878484033
:102C130040E000000000003C448480808E844438FF
:102C23000000000000EE4444447C444444EE0000B1
:102C33000000007C101010101010107C0000000029
:102C4300007C101010101010101090E0000000EE27
:102C530044485070484844EE0000000000E0404003
:102C63004040404044FC0000000000EE6C6C6C549B
:102C7300545454D60000000000EE64645454544C81
:102C83004CE400000000003048848484848448308D
:102C93000000000000F844444478404040E0000055
:102CA300000000304884848484B448380C00000059
:102CB30000F844447850484844E600000000003CD3
:102CC30044402018040444780000000000FE9210E1
:102CD3001010101010380000000000EE444444446B
:102CE300444444380000000000EE444428282828C7
:102CF30010100000000000D6545454546C282828A7
:102D03000000000000EE44282810282844EE0000AC
:102D1300000000EE442828101010103800000000B6
:102D2300007C88081020204044FC0000001C101088
:102D330010101010101010101C0000701010101044
:102D430010101010101070000070101010101010E0
:102D53001010101070000010280000000000000088
:102D63000000000000000000000000000000000060
:102D730000FE00606020C0000000000000000000B2
:102D830000000000000038441C24443E0000000002
:102D930000C04040784444444478000000000000F0
:102DA30000003C444040443800000000000C040490
:102DB3003C444444443E000000000000000038440A
:102DC3007C40443800000000001C2420F820202010
:102DD300207800000000000000003C4848304078A4
:102DE3004438000000C040405864444444EE0000AE
:102DF30000000010000070101010107C0000000094
:102E0300000800003808080808080870000000C01F
:102E130040405C48507048EC000000000070101007
:102E230010101010107C0000000000000000F85487
:102E3300545454D60000000000000000D8644444F9
:102E430044EE0000000000000000384444444438CD
:102E53000000000000000000F8444444447840E0CF
:102E63000000000000003C444444443C040E0000C5
:102E730000000000EC30202020F8000000000000DB
:102E830000003C44300844780000000000001010AB
:102E93007C101010100C0000000000000000CC4457
:102EA3004444443E0000000000000000EE44282893
:102EB30028100000000000000000D65454542828B5
:102EC3000000000000000000DC48303048EC000047
:102ED300000000000000EE442828101020E000004D
:102EE300000000007C481010247C0000101010101B
:102EF30010101010101010101010000136360101C0
:102F0300000102010001030100010401060605029C
:102F13000000070100340801000F090401010D013D
:102F230000FF0E08000017020000190100FF1A013C
:102F330000011B0100FE1C0100081D0200001F010F
:102F4300000120010001210200002301000F2402DF
:102F530000002601000127010008280200FF2A01C2
:102F630000072B0102402C0100002D0100012E015E
:102F730000012F0100FF30010B1C310800003A0152
:102F830000083B01000F2F01000003007100300116
:102F93006000110070003102200350048000100013
:102FA30061000000140063007300720062004300BC
:102FB30000001300060000000000040012000000DF
:102FC30000000000000004000400370037003C024A
:102FD3004400000000000000000065000000350010
:102FE300810000000500000083000000010371035D
:102FF300010301030103010301032203020301038C
:103003001003000300030003000300030003000395
:103013004203000324030603000300030403120313
:1030230025032303250323030403040300030003ED
:10303300000344030003000323030003650321008B
:1030430035038103000305030003000300030101AB
:1030530071010101010111010101310101010101AD
:103063008001100161013B001400630173017201CF
:10307300620143010001130106013D013500040112
:1030830012010001000100010001040104013301E8
:1030930033013C01440132013600000100016501A6
:1030A3000001350081010001050182018301000156
:1030B3000302710230016002110270020102020276
:1030C30002028002100261023A00410063027302AD
:1030D300720262024302000213023800000200027D
:1030E30004021202000200020002000204020402AF
:1030F300370037003C02440200023900000200029C
:103103006502000235028102000205028202830287
:103113000002030471040204600411047004020435
:10312300020401040204100461040004140463048F
:1031330073047204620443040004130406040004C9
:1031430000040404120400040004000400045104F5
:1031530064000004000400044404000400040004A8
:1031630000046504000435048104640005040004BC
:103173008304000436000100060000000F00000075
:103183000000000000000000000003FFFF00000437
:1031930003FFFF0000FFFF0FF4010005C404032039
:1031A300000100030B000000000000000003010FFA
:1031B3000000B02213002C220100B0220200E421FF
:1031C3000300EA210400F0210500F6210600022293
:1031D300110020221400262215001422FFFF0000F4
:1031E3000108160638160832160B44161084150209
:1031F3000E160526160714160CEA150DFC15FF000E
:103203000003EAF5E5D5D5C5B5A59595858575750D
:1032130065655555454535352525151505101A4060
:103223001A161A1C1A3A1A2E1A281A461A4C1A5225
:103233001A5E1A221A0A1A041A00160F00000B1536
:103243000B020002220F32000006001B121B181B88
:10325300DA191E1BD419E01914190E194A19501939
:103263004419FC18601B7E1B841B661B721B6C1BA2
:1032730000011916181616152303000C0E020B0471
:103283000B0A0708000F00034948424D181725058C
:103293000200383C3E363B3B352B432C303017186D
:1032A3001921301B1D1F30303016181920231A1C0A
:1032B3001E30541B241B2A1B361B301B341A581A6E
:1032C300781B641A6A1A020402010101010902202F
:1032D3001926191A1956190000000000002C193E6E
:1032E3001900BE040A150004007F00E8030C00283F
:1032F3000000000000090308100C0A030809000479
:103303000001FF1E1E0C05040F1008C082C0838A33
:10331300828B83E0D2E7F01221360244DDC082C003
:103323008379001237DA1266AAC082C0839003340D
:10333300125430D083D082C3E09CA3E09D500C1282
:103343006D7EFAA3E01233516001090244DDFBEA0A
:1033530075F00BA4FAA8F075F00BEBA428FB90030F
:1033630036E02AF8A3E03B8882F583E0540F227409
:10337300F7120A6F89081237DA123880ACF075F049
:103383000BE9A42CF9900336E028FEA3E039FF747F
:1033930001650860067402650870208A828B8312B7
:1033A300386C12470C74026508701B12372B1238E5
:1033B300B370138E828F83E4F0800BEA2403FCEB5B
:1033C30012384E12385AEEFAEFFB12294C024669B4
:1033D30074F4120A6F1276A579008E828F83E060EF
:1033E30076890A890B8065E50A75F00BA4FAA8F0C3
:1033F30075F00BE50B12335E7046E50A75F00BA40E
:10340300F8AAF075F00BE50B1238928E828F83E0E9
:10341300850882850983123974850882850983A307
:1034230012470CEE2403FCEF1238571244EA1261E0
:1034330024AA08AB0912294C7901900334125B3991
:10344300E50A2401F50AE50B3400F50B123733E5E1
:103453000A9AE50B9B40900248B674F5120A6FEA8C
:10346300FEEBFF740B1213371244EF750A01EC4D98
:10347300602BEC1276C1ED1266AA12470479011291
:103483002928E5084509606F850882850983A31209
:1034930076AF7902AA08AB09122928805AE50845B4
:1034A30009602B1266AE124D781244EB12389D70F0
:1034B3000CEEFAEFFB122922E9F50A80CBEE240386
:1034C300FA1237D570317903EEFAEFFB80CA8E8298
:1034D3008F83A3E064FE7003A3E0F4700BEE240378
:1034E3000A0A0A1237D5700CEEFAEFFB122922E909
:1034F300F50A8003750A00A90A7F03020D2474F7F5
:10350300120A6F900334124679EA4B602FEA75F082
:103513000BA4FAA8F075F00BEBA428FBEAFEEBFF73
:10352300121F5090033612467990033612597E606B
:1035330012EEFCEFFD7900121E908007900336E433
:10354300F0A3F00246699003341250E8C3EE98EFFB
:103553009922C082C083EC4D600512279080097CBC
:10356300087D007900121E900244DD74F6120A6F82
:103573007900EA4B6018780088081269F1EB126D44
:103583007A60047901780808E8C3940840EA02479E
:103593001574F7120A6F74F3121106ECFEEDFF8532
:1035A3001882851983E4F004121337EAF0A3EB12AF
:1035B3005EAA7403121337AC82AD83EEFAEFFB12EB
:1035C3002892EEFAEFFB12288C02466474F7120A73
:1035D3006F74F3121106ECFEEDFF851882851983D3
:1035E300E4F0EAFCEBFD740312133712396D740136
:1035F3001213371247008E828F8312470C74FE68B2
:10360300700374FF696004790180027900024664E3
:1036130074F7120A6FEAFEEBFF123671701412365A
:103623007C8E828F83E0F4F88A828B83E058F012D9
:10363300294CA90802466974F7120A6FEAFEEBFFE8
:103643007508008E828F83E06022123671701D121E
:10365300367C8A828B83E08F838E82F8E058700CED
:10366300E0F88A828B83E048F012294C80C4122947
:103673002EE9F50874016508221276BA123884120D
:1036830037C6FAA3E039FB2274F4120A6F8A088B57
:10369300097C007D0012372B12385A1237EB127651
:1036A300AC7900850882850983A3E064FE7003A3D7
:1036B300E0F460717E007F008062EEFAEF12335116
:1036C3006057EEFAEFFBEA75F00BA4FAA8F075F079
:1036D3000BEBA428FB900336E02AF50AA3E03BF5A5
:1036E3000B850882850983A3125DF8850A82850B01
:1036F30083A3E06A7003A3E06B701EE50A2403FA58
:10370300E50B1237D6700AE50A2403FCE50B1238E1
:10371300571237DF79011266C01240CA123733EEEF
:103723009AEF9B40950248B6EA24030A0A0AEB2261
:10373300900334126297C32274F3120A6F8A088BC0
:10374300098A828B83A31276AF1237DA1276AC75AD
:103753000C0012372B1237D670547E007F0080493D
:103763001237B8FAA3E0398A82F583E0540F603642
:103773001237B8F50AA3E039F50BE50A2403FCE593
:103783000B1238613400FB12278AE9640170178534
:103793000A82850B83A3126358A312470C1237DFE7
:1037A300750C011266C01240CA12354940B2A90C09
:1037B3007F05020D24EEF8EFF9E875F00BA4F8127B
:1037C30037C622AAF075F00BE9A42AF9900336E074
:1037D3002822EF1238AD221276C0EB221237EB12F9
:1037E30066BBEEF0A3EFF022E5081276C1E50922ED
:1037F30074F5120A6FEAFEEBFF8E828F83A31276B3
:10380300AF7C007D00EE24030A0A0AEF12385AEE59
:10381300FAEFFB12292EE9F50A7401650A702912E1
:1038230076BA123880AAF075F00BE912389285083F
:1038330082F58312386C12389D700DE5082403FC61
:10384300E50912384E12385A0234FA3400FDEE24D8
:1038530003FAEF221238613400FB1228922234005B
:10386300FDE5082403FAE50922A312387122123870
:103873007522E0F8A3E0F98E828F83A322123884A5
:10388300223400F5831250ECE875F00BA4F82212F1
:1038930037CCF508A3E039F50922E8F0A3E9F0E510
:1038A300082403FAE5091238AD221238B364012261
:1038B3003400FB12288CE92274F3120A6F74E612A7
:1038C30011061276A5750C01750800750900750AB5
:1038D30000750B00851882851983E4F0EE2403FC40
:1038E300EF3400FD740312133712396DE96401706C
:1038F30023740B1213371247047401121337125D2A
:10390300FC7003A3E0696051851882851983858261
:1039130008858309740D121337E4123974740E1277
:10392300133712470C740D121337AA82AB83121389
:1039330050E96401700B740D12133785820A858375
:103943000B780A121044AC08AD09EEFAEFFB12290A
:103953001C7402121072E9F50CEEFAEFFB12134A13
:10396300A90C741A1210720237B3123C4012135688
:10397300221246741250E822C082C0837800790074
:103983008003123A6B123733E89AE99B5029E8FA1D
:10399300E9FBEA75F00BA4FAACF075F00BEBA42C81
:1039A300FB900336E02AFCA3E03B8C82F583E054D2
:1039B3000F70CF7900800279010244DDC082C08399
:1039C3009032E812513EEC75F012A4FCA8F075F0A9
:1039D30012EDA428FD79FF7A247B09121E9002447C
:1039E300DD74F7120A6FE9FEEAFF7A007B007800C4
:1039F30079008028E8FCE9FDEC75F012A4FC85F061
:103A03000875F012EDA42508123E80C39E400AE01B
:103A1300FCEFC39C4003123F9F123A6B123E74406B
:103A2300D3024669C082C083780079008003123ACA
:103A33006B123A5F501F123E84F470F2E875F01275
:103A4300A4F8AAF075F012E9A42AF9742428FA74E8
:103A53000939FB80047A007B000244DD9032E812CE
:103A63003F35C3E89AE99B22E8240108E93400F9C9
:103A73002274F0120A6F74F31211068A0A8B0B8CEC
:103A83000C8D0D8908EC450D6016AA0CAB0D1213B5
:103A9300A48A0E8B0FAE0EAF0FEE4F6003023B32C4
:103AA30012137A8A0E8B0FA80EA90FE8FEE9FFE81E
:103AB30049607C9032F6123B94602274036508607F
:103AC300067404650870167A04790312137490322D
:103AD300F6123BAB40077A007B00023B919032F435
:103AE300123B94601B7401650860067402650870DC
:103AF3000F7A0279011213749032F4123BAB50D651
:103B03008518828519837401F0121337126124AC6E
:103B13000CAD0D7403121337123C39740B121337A7
:103B23001244F7124AECE412610C1218548004EEAA
:103B33004F604A780074FF2508C394045002780448
:103B43008E828F831261248E828F83A3A3A3A3E526
:103B530008F0E88E828F83A3A3A3A3A312612C1280
:103B63000817123F4C8E828F83A3A3A3A3A3A3A3FF
:103B7300F0123F4312130C1266A4121300123B9966
:103B83004005900E80E4F012172EEEFAEFFB025080
:103B9300F212624649227A0479001213749032E8D1
:103BA300126D60EA98EB9922123BC47583327582D9
:103BB300E8E493C398F8A3E49399F9C3EA98EB99DB
:103BC30022E493F8740193F92274F2120A6F74F3E6
:103BD3001211068A088B09ECFEEDFF750A00EEFA56
:103BE300EFFB1213A48A0C8B0DA80CA90DE84960F6
:103BF3003E88828983E065087004A3E06509602F2D
:103C030088828983A3A3A3A3E0C3940550211265EB
:103C1300528518828519837401F012133712655681
:103C2300EEFCEFFD7403121337123C39750A01A938
:103C33000A740D025BF0123C4012136222AA82AB9B
:103C430083122892851882851983AA82AB832274F2
:103C5300F6120A6F123C8E600FA3A3A3A3E014C352
:103C63009404500479018002790002471574F61216
:103C73000A6F123C8E600FA3A3A3A3E014C39402A4
:103C8300500479018002790002471512139E8A823B
:103C93008B83E58245832274F6120A6F123C8E6091
:103CA3000BA3A3A3A3E07004790180027900024768
:103CB30015C082C083EAFCEBFD7A007B000244DA84
:103CC300C082C0837C007D000244DA74F4120A6F60
:103CD30074F3121106EAFEEBFF8C0A8D0BC3EC940E
:103CE300F8ED94FF4007EE4F7003023D877508001F
:103CF300750900802E8518828519837401F012409E
:103D0300F212133712410060137403121337AC829B
:103D1300AD83EEFAEFFB12278AE97049E508240127
:103D2300123F209032E8E412624EE50898E50999C3
:103D33005052E50875F012A4F8AAF075F012E509DF
:103D4300A42AF9126D9360D4EE4F70A974FF650A2B
:103D5300700474FF650B60C41240E2650A7004A32B
:103D6300E0650B70B7E50875F012A4F508A8F075C7
:103D7300F012E509A428F50974242508FA74093515
:103D830009FB80047A007B000248B174F4120A6FC5
:103D930074F31211067508001213A48A0A8B0BAE72
:103DA3000AAF0BEE4F602A851882851983740112BE
:103DB300466EF8A3E0F9740B12133712478F121EE5
:103DC300367C127D0079FFEEFAEFFB121E90750828
:103DD30001123B995009900E807401F012172EA91D
:103DE300080248B174F7120A6FE9FE74FE6A7003A1
:103DF30074FF6B7800790070058052123A6B123EA3
:103E030074504AE8FCE9FDEC75F012A4FCAFF075C0
:103E1300F012EDA42F123E80F460E0E8FCE9FDEC23
:103E230075F012A4FC75F012EDA42FFD74242CF58B
:103E33008274093DF583E06A7003A3E06B70BC8074
:103E430009123E8414C394044017123A6B123A5F6A
:103E53005018EE70EC123E8464016005E064037058
:103E6300E91240D3FAA3E0FB80047AFE7BFF02460B
:103E7300699032E8125142C3E89CE99D22123FD473
:103E830022E8FAE9FBEA75F012A4FAACF075F01235
:103E9300EBA42CFB74282AF58274093BF583E022FA
:103EA3001213B60244DDC082C083790180F274F03C
:103EB300120A6F8A0A8B0B7A0479011213748A0C23
:103EC3008B0DEA450D603EEAC333FAEB33FB121F59
:103ED300508A088B09AE08AF09EE4F60237AFE7B48
:103EE300FF1213BC74FE6A700374FF6B601B8508BA
:103EF30082850983124679E5082402123F2080E176
:103F0300750C0080047E007F00850A82850B83E5A3
:103F13000CF0EEFAEFFB0250F7E5082407F508E58D
:103F2300093400F509229032E8125142C3EA9CEBAE
:103F33009D22E493FA740193FB22121E84740322DC
:103F43001266B5E4F09081D122E88E828F83A3A319
:103F5300A3A3A3A3A3A3123F6E7401123F6EA3F006
:103F6300EE24101266B8E4F0A3F022124AF8A3A3D9
:103F7300A322C082C0837A007B00800419123F9F72
:103F8300123F295010123FBEC3940550F0E970EC64
:103F9300123FA880047A007B000244DDEA24010A70
:103FA300EB3400FB22EA75F012A4FA75F012EBA4CD
:103FB30028FB74242AFA74093BFB22EAFCEBFDEC90
:103FC30075F012A4FCA8F075F012EDA428123FD4EA
:103FD30022FD74282CF58274093DF583E02274F7E1
:103FE300120A6F74F31211067E007F00024086E509
:103FF3000875F017A4F8A9F0126FF4FAA3E0FBEE2A
:10400300F8EFF9E875F012A4F8ACF075F012E9A432
:104013002C1240E16A7003A3E06B603FE50875F082
:1040230017A4F8AAF0EA126FF3F8A3E0F9740112E7
:104033001337E0687003A3E0696020E50875F017A3
:10404300A4F8EAF974A028FC740A39FD7403121366
:1040530037AA82AB8312278AE96014E50875F01743
:10406300A4F8A9F0749E28FA740A39FB12186005A3
:10407300089032FBE493F8E508C3985003023FF23B
:104083001240CA9032E812733A5039EEF8EFF9123F
:1040930040D3F47003A3E0F460E6851882851983A6
:1040A3007401F0EEF8EFF9E875F012A4F875F01268
:1040B300E9A42AF91240F212133712410060C175C4
:1040C300080080AD024664EE24010EEF3400FF22A7
:1040D300E875F012A4F8AAF075F012E9A42AF9120F
:1040E30040E622742428F582740939F583E02274AA
:1040F3002628F5827409391250E6740B22E8F0A3DE
:10410300E912479712135CE922C082C08390033DF2
:104113007420F0A37416F090033F741AF0A374167E
:10412300F0900343743AF0A37414F00244DD74F77F
:10413300120A6FEAFEEBFF900377E06408601BE06E
:10414300640460168E828F83E05403640170481206
:1041530044EA124BEDE06406703D8E828F83A3A385
:10416300E064FE7003A3E0F4602D8E828F83A3A32B
:10417300124700900368E0687003A3E069700BEED8
:104183002415F582EF126D7A60081216CEE9F50850
:1041930080081216D480F67508C2EEFAEFFB121FE0
:1041A3005602363574F4120A6F8A088B098A828B99
:1041B30083E0F8A3E0FAE82AFAE43400FB121F5084
:1041C3008A0A8B0BAE0AAF0BEE4F606385088285BC
:1041D3000983E0FC7D007900121E908E828F83A3F9
:1041E300A31276AF1217108E828F83A3A3A3A312F9
:1041F3004679850882850983E0F8EE28F8EF3400D4
:10420300124708850882850983A3E0C0E0EE240DE8
:104213001266A7D0E0F0121722EE240E1266A7E969
:10422300125D59E0C0E0EE24111266A7D0E0F0EE73
:10423300FAEFFB0248B674F4120A6F74EB1211061C
:104243008A088B098C0A8D0BE9FE900377E06404DE
:104253006005E06408700479C2802EA37808121206
:10426300A8EE90037E1244E41212A87405121337C9
:10427300E9F074041213377401F07407121337E46E
:10428300F0900377740212447874150248B374F6FD
:10429300120A6F74EB121106EAFEEBFF12597B60F0
:1042A300030243357A077B00121F509003391246ED
:1042B3007912597B60788E828F8312130C90033AA4
:1042C300124BF0121300127573C0E0124341D0E099
:1042D300F0EE2405FAEF3400FB8A088B098A82F595
:1042E30083E0C0E012433CD0E01248ADE0C0E012EE
:1042F300433CA3D0E01246ED12130C8518828519B6
:104303008312130088828983E0C0E0740512133797
:10431300D0E0F0850882850983E0C0E074041213BD
:1043230037D0E0F074071213371244778006791000
:10433300800279017415024712124341A3229003AC
:1043430039E0FAA3E0F5838A82A3A3A3A322C08260
:10435300C08312597B600D90033912628590033933
:10436300E4F0A3F012163E1218000244DD74F012BA
:104373000A6F74EB121106ECFEEDFF890874251227
:104383001337780C1212D57429121337E0F9742AF3
:10439300121337E0FC742B121337E0FD740F6970AE
:1043A30005740F6C6012900EDBE06402700579C136
:1043B300024472E9C39C40F6900378780C1212A869
:1043C300E50890037EF0E990037CF0ECA3F0ED9018
:1043D300037FF074FF6A700374FF6B701D900EE629
:1043E300E0F47003A3E0F47005121EA8800C900E95
:1043F300E6124641E8F0A3E98007900375EAF0A3CB
:10440300EBF0EE4F6017EEFAEFFB1218C0E9640110
:10441300700BEEFCEFFD7A897B0312279090036803
:10442300E4F0A3F090036BF0A3F0900388F0900EF8
:10443300DBE06402700890037C740FF0A3F0900338
:10444300777405F014121337E4F090037812130C09
:1044530085188285198312130090037EE0C0E074EF
:1044630005121337D0E0F074071213371244777430
:10447300150250F4E41247971227C022C082C0836A
:10448300900338E0700312221A121404804CC08285
:10449300C083900338E0900E7F7004E4F0802D74A5
:1044A30001F0900338E0F460237C41E0C394415071
:1044B30002E0FCECF8E0C398F0EC75F0E8A4CCA8BB
:1044C300F075F003A428FD7A8012514A7A7F7B0E9F
:1044D30079411227A880031213AAD083D082021035
:1044E300241246F8780822EE1266B622E0F508A3F5
:1044F300E0F509221244FB22123875A32274F51247
:104503000A6F74E2121106851882851983ECF0A3F1
:10451300EDF0EAFEEBFF89087429121337E0F50981
:10452300742C121337E0F50A900377E064046005F6
:10453300E06408700579C2024632742A121337E028
:1045430064FE7003A3E0F4700579C302463290035E
:1045530077740312479379501227A8742A121337DA
:10456300AA82AB83794B1227A885188285198312F7
:10457300464112470CE50890036AF0742A12133778
:1045830012463A12470CE50990036212464874CE6C
:1045930055094480C0E07412121337D0E0F074015F
:1045A300250A900388F0740F1213377402F0742AEB
:1045B3001213371247007407121337E8F0A3E912F6
:1045C300467F741012133712470C7405121337E524
:1045D30008F0741B121337E4F090037D740FF07A24
:1045E3007D7B0379541227A890037C740FF07A7CA7
:1045F3007B0379471227A890037CE0C3940F5023D1
:104603007405121337E0C0E07402121337D0E0F0E0
:1046130074041213377401F004121337AA82AB83A4
:104623001227CC7405121337AA82AB831227AE74F8
:104633001E1210720234FC1250E890036B221250C7
:10464300E890037522F0EEFCEFFD7A897B031227D5
:10465300902274F7120A6FEB90037FF012162C80EE
:1046630005740D1210727F01020D24124674A3E02B
:10467300221246EDA322EAF0A3EBF0221246F3F84E
:10468300A3E0F92274F7120A6F74F8121106EAFE16
:10469300EBFF7900900377E0640870448518828506
:1046A300198374FDF0A374FFF012170A7402121336
:1046B300371246797405121337E4124674E0C0E0EA
:1046C3007404121337D0E01246E8C0E074061213E4
:1046D30037D0E0F07407121337E412479312174CE4
:1046E30074080246661246EDE022F08E828F832222
:1046F3001246F8E022F0851882851983221250E8C9
:1047030022E0F8A3E0F91266B5E8F0A3E9F022127B
:1047130010727F02020D24C082C08390034974CAC1
:10472300F0A37414F09003EF74A6F0A37417F09041
:10473300034D7400F0A37415F090034F74CAF0A3F3
:104743007414F09003517406F0A37415F00244DD61
:1047530074F4120A6F74F91211068A088B098C0A11
:104763008D0B85188285198378081212A874041298
:104773001337E9F07405121337E4F0740612133794
:10478300E41247931213EC74070248B3E8F0A3E969
:10479300124797221246F8AA82AB832274F4120AB4
:1047A3006F8A088B098A828B831266C3EE4F70036C
:1047B3000248AB90031212597E60158A828B83A341
:1047C300A3E0F9EEFAEFFB900313124BF01229F377
:1047D3008E828F83A3A3A3A3A3A3A3A3A3E06402B3
:1047E30070748E828F83A3A3A3A3A3A3E054027048
:1047F3000302487D850882850983A3A3E064E960F9
:10480300798E828F83A3A3A3A3A3A3A3A3A3A3E0CC
:104813007014900EDEE0048E828F83A3A3A3A3A360
:10482300A3A3A3A3A3F08E828F83A3A3A3A3A3A372
:10483300A3A3A3A3E0141248ADA3A3A37404F0900D
:104843000EDF1260FEE8F0A3E91271D78B0BEA4585
:104853000B7003126BB58E828F83A3A3A3A3A3A3B1
:10486300A3A3A3E0640260128E828F83A3A3A3A3F6
:10487300A3A3A3A3A3E06406702E8E828F83A3A3B6
:10488300A3A3A3A3E0A2E0501F850882850983A305
:10489300A3E0F9EEFAEFFB1228D48E828F83A3A351
:1048A300A3A3A3A3E054FEF08009124AF422740DDB
:1048B3001210727F04020D2474EC120A6F74DD125D
:1048C3001106EAFEEBFF8C088D0974371213377853
:1048D3000C1212D5750A007405121337AC82AD831E
:1048E3001228447412121337E07008741512133728
:1048F300E060207405121337E0A2E6501E8E828F0B
:1049030083A3A3A3A3A3A3A3A3A3125DF812178254
:10491300E960087903122778024ADA74051213371B
:10492300E0540C64047005750B018003750B00E003
:10493300A2E55035750A01E50BA2E0402C121710D1
:104943008A108B11A810A9111244EAE0687003A31E
:10495300E069601574051213371276B6125DF4120E
:1049630028E0E96004790480AC7405121337E0A2EF
:10497300E650227406121337E054037018740512BC
:104983001337E0540C640C600CE0540C64086005AD
:1049930075100180037510007405121337E054037A
:1049A300F8740268700C1276B6125DF4121DB80228
:1049B3004ADA740168703AE510A2E05003124AE241
:1049C3007405121337A882A9837403121337E8F00E
:1049D300A3E91250DC851882851983124AECE0C0E2
:1049E300E07402121337D0E01247931229C4024A2B
:1049F300DAE86003024ADA90035FE0640170108E24
:104A0300828F83A3A3A3A3A3A3E0700302496874C3
:104A13002212133774021250DC741A12133712471E
:104A23000CE510A2E050087405121337124AE2E5B0
:104A33000BA2E0506AEE240FF582EF126D7AC0E00C
:104A43007417121337D0E0F090031412597E7003D9
:104A5300024ADA1217108A128B13A812A913741AB6
:104A6300121337E0687003A3E069706B780C1210BF
:104A73003C780A1210487808121044A910740C12DA
:104A83001337AC82AD837421121337AA82AB8390A0
:104A93000314124BED1229F3740712107280387845
:104AA3000C12103C780A1210487808121044900334
:104AB30075120E29EE2412F582EF126AA8742312DE
:104AC3001337AC82AD83740E121337AA82AB8312F1
:104AD30028C8740912107274231210720271A21280
:104AE30076B612629312283E22E8F0A3E9124AF442
:104AF30022124AF822F08E828F83A3A3A3A3A3A337
:104B03002274F7120A6F1220EE02466974F7120A32
:104B13006F1220F402466974F7120A6F1221000221
:104B23004669C082C0831220FA0244DD74F7120A78
:104B33006F12210602466974F7120A6F7409121381
:104B430037E0F50878081210481221127401024662
:104B530066C082C08312211E0244DDC082C083125C
:104B630021240244DD74F7120A6F12212A024669D6
:104B730074F7120A6FEAFEEBFF8908740165087087
:104B8300147900121542903306E493FC7900EEFA8F
:104B9300EFFB1214B802466974F4120A6F74F91227
:104BA3001106E9FE8A088B098C0A8D0B7413121304
:104BB30037125DF890059812597E6027EE851882AA
:104BC300851983F0740112133778081212A8EAF8D2
:104BD300EBF9740512133712478F900598124BEDBA
:104BE3001229F302478AFB90034BE0F8A3E0F58315
:104BF300888222C082C0831221600244DD74F712CE
:104C03000A6F900E82E0F97E00800B126D66540DE0
:104C130064017001190E124DFA5003E970ED02465A
:104C23006974F7120A6F900E83E0F97E00800B120D
:104C33006D66548D64817001190E124DFA5003E9AB
:104C430070ED02466974F2120A6F890BE975F0067A
:104C5300A4240CF508E5F0123F248A0CE508250C82
:104C6300FAE5093400FB121F508A0C8B0DAE0CAF12
:104C73000DEE4F6027AC08AD097900121E90124467
:104C8300EAE50BF0EE2508F8EF3509F98E828F83FC
:104C9300A3A3A3A3A3A3A3A3A312470CEEFAEFFB1F
:104CA300025BF374F6120A6FEAFEEBFF12149490A0
:104CB3000E81E0F8E9C3984009900345125DF812AC
:104CC300149AEE2402F8EF1264089003471262C2AA
:104CD300900347E004F0EEFAEFFB1214A08508827C
:104CE300850983E00268BEC082C0837900900345D2
:104CF300800109125DF88A828B83E582458370F215
:104D03000244DD74F7120A6FEAFEEBFFEE4F6056C2
:104D130090034512597E604E888289837A007B0016
:104D2300EE65827003EF6583600FAA82AB83124D39
:104D33006CE5824583602F80E7900345124D7868C8
:104D43007002EF698E828F837008124700900345CB
:104D530080031271B412470CEEFAEFFB122994EEA2
:104D6300FAEFFB121F56024669124D70221250ECE5
:104D730088828983221250E8EE22C082C083900386
:104D83004580048882898312597E600B88828983D7
:104D9300125430EC4D70EC8A828B83E4F0A3F0E87C
:104DA300496006888289838003900345124679020D
:104DB30044DD74F7120A6F90034580048A828B8363
:104DC300124DF54B60257E0080010E124DFA50EC1A
:104DD300EE75F006A4FCADF0EA2CFCEB3DFDEC24F3
:104DE30010F582ED124E4A70E180047A007B0002D6
:104DF3004669126297EA22124E53EEC3982274F761
:104E0300120A6F7D0080010D124E4FEDC39850348E
:104E1300ED75F006A4FEA8F0E8FFEA2EFEEB3FFFD7
:104E2300EE2410F582EF124E4A70DCED75F006A405
:104E3300FEE8FFEA2EFAEB3FFBEA2411F582EB12C0
:104E43006D7A4CF0024669126D866922124E532226
:104E53001276C0EB3400F583E0F82274F6120A6F81
:104E63001215BA7A007B008025EAF8EBF9E875F0B1
:104E730006A4F8ACF075F006E9A42C12626C127566
:104E830081A3E4126362F0A31275871276FE903257
:104E9300F0123BA340D37A007B00801C8A088B0965
:104EA30074037808121232125D20A374FEF0A30477
:104EB300126142A3E41276FE9032FA124EFD40DCF8
:104EC3007A007B00801D8A088B097403780812120C
:104ED3003274C61269F2740D12723974FEF0A304AF
:104EE3001276FE903300124EFD40DB903304E493C0
:104EF300900353F0124F07024715E493F8C3EA985F
:104F0300EB9400227CE87D037A107B009003C2E0DF
:104F1300F91220162274F0120A6F74F51211068A20
:104F2300088B09890A8C0BE9A2E050147508FC75FB
:104F330009FFA2E15005D2E4024FDAD2E3024FDACD
:104F4300125BDF7003A3E069700579000250A7AC20
:104F53000A7902AA08AB09121596E960EDE50AF58C
:104F63000C780C12104879027CFE7DFFAA08AB096D
:104F730012595A121072E960030250A5E50AC2E5FC
:104F8300F50A9003B5E07051E50AA2E6404B7403BD
:104F9300121337AC82AD83AA08AB0912287AE970E1
:104FA3003212527B8A0C8B0DA80CA90DE8FEE9FF87
:104FB300E8496025EE24020A0AEF1238B3601AEEBC
:104FC3002402FCEF3400FD7403121337AA82AB836F
:104FD300122790E50AD2E5F50A900348E0F50C9014
:104FE3000368E0F50EA3E0F50F780E1210447D017F
:104FF3007C00900348E0F9AA0EAB0F12154E740221
:10500300121072E9F8900348E004F0E860030250DC
:10501300A5E50AA2E55004740E80027406C0E0748C
:1050230001121337D0E01266D48A0E8B0FAE0EAF87
:105033000FEE4F60691250C51250DC888289837469
:1050430001F07478550AA31276C6E50C1276C6A34E
:10505300E508F0E5091250B4E4F0E50AA2E5500FC3
:105063007403121337AC82AD83E824061250AB8E5F
:10507300828F83A3A374FDF0A374FFF0E50B601587
:10508300903307E493F8E50BC3985009EE24131209
:1050930066A7E50BF0EEFAEFFB1213DA8006791040
:1050A300800279C7740B8049FAE93400FB12279018
:1050B3002288828983A3A3A3A31250C02212643B34
:1050C300A322EE24171266B87401F012170AEE2415
:1050D3001A1266B8EAF0A3EB22F01276BA34001281
:1050E30050E622F5831250EC22E0F8A3E0F9227493
:1050F3000D1210727F08020D2474F6120A6F7A00E3
:105103007B10126BC260089003D47401F080299065
:105113000639E06401900EDC7006E0FC790180043E
:10512300E0FC79037A007B001214B89032EE12513E
:105133003E7A007B1012514C02471512514222E471
:1051430093FC740193FD227B009003C2E0F91220CB
:10515300102274EC120A6F8A088B098C0C8D0D894E
:105163000E7414121337125B397416121337E0F5E9
:1051730010A3E0F511121782E960077AFF7BFF02A3
:105183005278900EDBE06402600302526B7900AA4E
:1051930008AB0912159CA90E1215908A128B13AE37
:1051A30012AF13EE4F70030252538E828F83A3A369
:1051B300A3A3A3E064018E828F83A3A37069125D0E
:1051C300F88E828F83A3A3A3A3A3A3E05418604301
:1051D300903305E4938E828F83A3A3A3A3F0EA65A0
:1051E3000C7003EB650D6014EA650A7003EB650B45
:1051F300600AEA65107003EB6511701F78101210D6
:1052030044AC0AAD0BAA0CAB0D12187E740212103B
:10521300728008900367126BACA3F074FE6A70038C
:1052230074FF6B601D804EA3A3A3E0640360298E0B
:10523300828F83A3A3A3A3A3E0640470057AFE0271
:1052430051808E828F83A3A3A3A3A3E0640270087B
:105253009003B4E06402701012527B8B0BEA450B8F
:105263006006AA08AB09800DAA08AB09900349128E
:105273004BED1229F30271A29003751259601218B3
:10528300422274F7120A6FEAFEEBFF12138CE970E5
:105293000AEEFAEFFB121398E96006EEFAEFFB80D1
:1052A300047AFE7BFF02466974F0120A6F8A0A8B46
:1052B3000B8C0E8D0F8909750800121782E979008E
:1052C3006003025422AA0AAB0B12159CA9091215FA
:1052D300908A0C8B0DAE0CAF0DEE4F60198E828F42
:1052E30083A3A3A3A3A3E0640270559003B4E06473
:1052F300027003025420AA0AAB0B90034F124BED2A
:105303001229F312139E8A0C8B0DA80CA90DE849E0
:10531300700302542088828983A3A3A3A3A3E0A2DA
:10532300E04003025420750C01A2E150687901ACFE
:105333000AAD0BAA0EAB0F1214E8E97064025420F5
:105343008E828F83A3A3A3A3A3E064037005750CCC
:105353000280528E828F83A3A3A3A3A3E064016080
:10536300030254209003751254308E828F83125798
:10537300858A0C8B0DA80CA90DE84960D19032FEEB
:10538300E493FA88828983E0C39A50C2A3E060035E
:1053930002542080B988828983A3A3A3A3A3D2E163
:1053A300F0EE4F603A8E828F83A3A3A3A3A3A3E05F
:1053B3005418602B7508018E828F83A3A3120E29C4
:1053C300750CFE750DFF780C1210447900AC0AAD14
:1053D3000BAA0EAB0F1215AE7404121072803E901E
:1053E3000368E0650E7004A3E0650F701490330644
:1053F300E493FCA909AA0AAB0B1214B8750801803F
:105403001CA90CAC0AAD0BAA0EAB0F1214E8E97081
:105413000C750801A909AA0AAB0B121542A90802C7
:1054230050F7E50C2415F582E50D1266BB126118E1
:105433002274EA120A6F74F01211068A0C8B0D8C17
:10544300088D097426121337E0F514A3E0F51575DA
:1054530012069003F512597E60239003751254309F
:10546300AA08AB0912186C8A108B11EA4511600D5A
:105473008A828B83A3E07005790002576DE50C24C3
:105483001DF50EE50D3400F50F850E8212596AF5F0
:105493001388828983A3A3A3E0FA88828983A3A3C1
:1054A300A3A3E0F9EA2400FEE439FFAA08AB09123A
:1054B3001548850E82850F831257A8E029F50BE561
:1054C3000AA2E5500375120E7487550A70177418F3
:1054D300550A6418600FE50C2417F582E50D126D6B
:1054E3007A651260077901122778808C530A78C392
:1054F300EE94F8EF94FF501D7900EEFAEFFB12578C
:1055030077601288828983A3A3A3A3A3A3E054187B
:10551300600302547B78081210447D0012579B12DB
:105523001072E9F8740368700302547BE8600302A5
:1055330055E67418550A700302569BE50AD2E0F546
:105543000AA2E45004D2E1F50AA90A125DF1125746
:1055530077605388828983A3A3A3A3A3A3E05418EA
:10556300604488828983A3A3A3A3A3E06401703664
:10557300E510451160309003751254308882898399
:105583001257858A0E8B0FA80EA90FE8496017885A
:10559300828983A3E0600F851082851183A312683B
:1055A300C9500302547BE50AF50E780E1210481217
:1055B300578E121072E9702B7C007D008514828552
:1055C300158374FFF0A3F0850C82850D83A3A3A339
:1055D300A3A3A3A3A3E06003125425A90B125DF1B7
:1055E300122118851482851583E0F47003A3E0F477
:1055F30060399003B4E06402700302547B125B2AA7
:10560300E0FAA3E0124BE91229F3EA65087003EB11
:105613006509600302547BEEFAEF124BE91229F39A
:10562300851482851583EAF0A3EBF0780812104401
:105633007D0112579B121072A90AEEFAEFFB1215A5
:105643009C8A088B09A808A909900368E06870037D
:10565300A3E069600302575EEEFAEFFB12139E8A22
:10566300088B09A808A909E849606E88828983A381
:10567300A3A3A3E06401600D88828983A3A3A3A3EA
:10568300E064027054851882851983AC82AD83EE81
:10569300FAEFFB12287A8055900361E0600FE50A68
:1056A300F50E780E12104812578E121072E50AF595
:1056B3000E780E12104879027CFE7DFFEEFAEFFBA6
:1056C30012595A121072E960030255E68514828555
:1056D300158374FFF0A302562D12170AEAFCEBFDA3
:1056E300851882851983AA82AB83122790850C8241
:1056F300850D83A3A3A3A3A3A3A3A3E06401700FB6
:105703001254257408121337AA82AB8312279012FE
:1057130059341265404430F5087808121048740172
:105723001213378582088583097808121044740B95
:105733001213378582088583097808121044E5130C
:10574300F50878081210487900EEFCEFFD125DF1C0
:105753001214E2740612107202547B125934126648
:10576300AA1257A8E50BF012172274101210727FB9
:105773000E020D241215908A0E8B0FA80EA90FE8A6
:105783004922A3A312629712186C227901AC08ADC7
:105793000912628C12595A22AC0BA91312628C1291
:1057A300154E740222126548A3A3A3A32274F01218
:1057B3000A6F74F01211068A0C8B0DECFAEDFB756F
:1057C3000F089003F512597E60141268C28A828B07
:1057D30083E58245836007A3E0700302592F1259C2
:1057E30034340012596AF50B8882898312593DE0DB
:1057F300FBEC2400FEE43BFF88828983A3A31259B8
:105803003DA3A3E0FBECF508E43BF509888289831B
:10581300A3A3A3A3A3A3A3E0F50EE50AA2E4500365
:10582300750F10A2E550067408250FF50F748F55F8
:105833000A700FE50C2417F582E50D126D7A650FDA
:105843006008790112277802592F530A707800E50E
:105853000AA2E45022125934126D7A2408FCA3E000
:105863003400FD7408121337AA82AB831227907891
:1058730008E50AC2E4F50AE50AA2E55028125934FC
:10588300126D7A28F8A3E03400F9E82408FCE9341F
:1058930000FD851882851983AA82AB83122790E5C0
:1058A3000AC2E5F50AAC0EA90BEEFAEFFB1215548A
:1058B300E9F87403686075900368E06E7003A3E011
:1058C3006F605EE87054E50AF50F780F1210481206
:1058D300594B121072E97054780A1210487401126D
:1058E300133785820C85830D780C121044740B12C8
:1058F300133785820C85830D780C121044E50BF564
:105903000A780A121048A90EAC08AD09EEFAEFFBAB
:105913001214E274061210728012740468700D80FF
:10592300B7780A12104812594B12107274100250B1
:10593300F4E50C241DF582E50D22A3A3A3E0FC8866
:10594300828983A3A3A3A3227901125B311266BBCD
:1059530012596012595A2212150C740122E0FCA349
:10596300E0FDAA08AB0922F583124D70A3E0F50A06
:1059730088828983A3A3E0229003391262F32274FD
:10598300E8120A6F74F5121106EAFEEBFF8C088D1C
:105993000989147423121337E0F50F742412133793
:1059A300E0F512A3E0F5137426121337E0F516A3FE
:1059B300E0F5177428121337E0F50EA90F12155AE4
:1059C3008A108B1174011213377408F0E50EA2E4E8
:1059D30050037410F0E50EA2E55004E02408F085AE
:1059E3001882851983AA82AB8312176A8A0C8B0DDE
:1059F300EA450D7003025B11EA2417F582EB125B93
:105A03002312170AE50C241AF582E50D1266AA1271
:105A130046797403121337AC82AD83AA10AB11120B
:105A2300287AE9601D125B1B7403121337A882A93D
:105A330083E50C2418F582E50D1266AAE8F0A3E9C4
:105A43008024E50EA2E4501FE5106E7003E5116F8C
:105A53007015125B1BE50C2418F582E50D1266AA7E
:105A6300E512F0A3E513F0125B2A125B39850A8273
:105A7300F5837402F0A3E50E125B41E50FF0EE85AA
:105A83000A82850B83A3A3A3F0EF850A82850B8388
:105A9300A3A3A3A3125B41A3A3A3E508F0E5098590
:105AA3000A82850B83A3A3A3A3A3A3F0AA10AB111C
:105AB300121548E92514850A82850B83A3A3A3A3A2
:105AC300A3A3A3F0750800E50EA2E45011AC12AD38
:105AD30013E50A2408FAE50B1250AD750808E50E24
:105AE300A2E55014AC16AD17E50A2508F8E50B340A
:105AF30000F9E824081250AB850C82850D83A3A31B
:105B0300E510F0A3E511F0AA0CAB0D1213DA740B38
:105B13001210727F10020D24E50C2416F582E50D98
:105B23001266BB7401F022125B311266BB22E50CD4
