:020000040000FA
:06000000020A860201CB9A
:03002B000208C107
:030033000206DDE5
:030043000207763B
:030053000200FCAC
:03006B000206C3C7
:100083000201600101FF05030146104610461046B8
:1000930010020FFC0E4610792300000000DB230042
:1000A3000000000C0000000C00010000141200000E
:1000B30000000000D4120000000000000000000057
:1000C300FFFF0101010010050000006105E8036462
:1000D300006400B801020200080000050207051EC3
:1000E30002051E0A03B80B020102F1FF021F00E022
:1000F300079651180002020612C0E074F21203E4DC
:10010300A2AFE433FED2AFE5A7FFE5A1F5085F5444
:1001130010600612193475A1EFE5085F54086008F2
:1001230012193A75A1F7802BEFA2E0C0D0E508A21F
:10013300E092F01209C3158182F05017906198E0A4
:10014300F890083AE0C398A2D265D0335002E8F0A1
:1001530075A1FEEEA2E092AF7F01020443C0E074FA
:10016300F21203E4A2AFE433FED2AF9061A4E0F84D
:10017300759B00E59158540860087591F712198230
:10018300802AE59158541060087591EF1219888000
:100193001BE8A2E0C0D0E591A2E092F01209C315DA
:1001A3008182F05007E0C2E0F0121ACC9061A3E024
:1001B300F8E5E9585404600E121AA275E9FB906140
:1001C30093E0A2E640F2808BC0E074F21203E4A253
:1001D300AFE433FED2AF9061A5E0F8E5BF58540415
:1001E300600675BFFB121AE4020156C3E498F8E4F3
:1001F30099F912022F8026C3E49AFAE49BFBE920C3
:10020300E7E912022FE498F8E499F922C3E498F895
:10021300E499F912022FE498F8E499F9C3E49AFAFD
:10022300E49BFB22EB20E7CFE920E7E0B90010BB1A
:100233000008E88AF084F8AAF022E4FBC8FA22EB6B
:1002430070227B10C833C8C933C9335007C39AC35C
:10025300DBF280069A50012ADBEAC833F4C8C933BB
:10026300F4C9FA2275F008E4C833C8C933C933C9DD
:100273009AC99B5004C92AC93BD5F0ECFBC833F497
:10028300C8E4C9FA22080808EAC0E0EBC0E086F037
:10029300E7A4FA180986F0E7A42AFA180986F0E712
:1002A300A42AFA180986F0E7A42AFA1986F0E7A423
:1002B300FBE5F02AFA190886F0E7A42BFBE5F03AF0
:1002C300FA190886F0E7A42BFBE5F03AFA181809A7
:1002D30086F0E7A4C5F02BFBE43AFA1908E7C5F06A
:1002E300C6A426F6E5F03BFBE43AFA1886F0E7A449
:1002F300F6E5F00826F6E43B08F6E43A08F6D0E023
:10030300FBD0E0FA22E4CFC0E0E4CEC0E0E4CDC00D
:10031300E0E4CCC0E075F020C3E633F608E633F63C
:1003230008E633F608E633F6181818EC33FCED3319
:10033300FDEE33FEEF33FFC3EC9709ED9709EE971C
:1003430009EF97191919400FFFEC97FC09ED97FD79
:1003530009EE97FE191906D5F0BEECF709EDF7097A
:10036300EEF709EFF7191919D0E0FCD0E0FDD0E062
:10037300FED0E0FF222518C582C0E0E51934FFC591
:1003830083C0E0E518C3958224F810AF088583196C
:100393008582188008858319858218D2AFCEF0A391
:1003A300E520F0A37808E608F0A3DEFAEFF0A3E572
:1003B3008124FAF8E608F0A3E608F0A3E608F0A320
:1003C3000808E608F0A3E608F0A315811581D0E03C
:1003D300FED0E0F8158115811581E8C0E0EEC0E09C
:1003E30022C0D02518C582C0E0E51934FFC583C0FB
:1003F300E0E518C3958224F310AF0885831985823D
:10040300188008858319858218D2AFC8F0A3E9F054
:10041300A3EAF0A3EBF0A37908E709F0A3D8FAEC79
:10042300F0A3EDF0A3EEF0A3EFF0A3D0E0F0A3D0A0
:10043300E0F0A3D0E0F0A3E520F0A3E5F0F0A322E1
:10044300851983851882E0C0E0A3E0F9A3E0FAA34D
:10045300E0FBA37808E0F608A3DFFAE0FCA3E0FDE5
:10046300A3E0FEA3E0FFA3E0C0E0A3E0C0E0A3E0BD
:10047300F5D0A3E0F520A3E0A3F5F010AF08858342
:10048300198582188008858319858218D2AFD08296
:10049300D083D0E0F8D0E032120AE8B900030204B6
:1004A300DDE49003017891790A8002F0A3D8FCD9A6
:1004B300FA900C91AA82AB839000867877790180B9
:1004C30015E493A3AC82AD838A828B83F0A3AA82C3
:1004D300AB838C828D83D8E9D9E77582E375839CDE
:1004E300740312083975827875831D7400120839F4
:1004F3000875F0108E1A8F1B85821F85831E851841
:1005030082851983E0CEA3E0CF851F82851E83EB0E
:10051300C9EAC8EDCBECCAC3E833C8E933C9EA3347
:10052300CAEB33CBC3EA9EF51DEB9FF51CB3500416
:10053300AB1CAA1DEC33CCED33CDD5F0DAAE1AAF3C
:100543001B22D083D082ECC0E0EDC0E0E493A3FC97
:10055300E493A3FDED4C600D12061DEC24FFFCEDAE
:1005630034FFFD80EFE493A3FCE493A3FDED4C6023
:100573000D120721EC24FFFCED34FFFD80EFD0E0EA
:10058300FDD0E0FCE493A3C0E0E493C0E02285192E
:1005930083851882E0A3FEE0A3F5207808E0A3F6A4
:1005A30008DFFAE0A3FFE0A3C0E0E0A3C0E0E0A31C
:1005B300C0E0E0A3C0E0E0A3C0E010AF088582186C
:1005C3008583198008858218858319D2AFD083D09B
:1005D3008202083FD083D082E9C0E0E493A3C386BC
:1005E300F0C5F095F0F908E493A386F0C5F095F013
:1005F300700BE493A3C3994005E9048002A3E47557
:10060300F002A42582F582E5F03583F583D0E0F985
:10061300E493A3C0E0E493C0E022C0E0C3E4939674
:10062300087401939618400FE493667008087401E8
:1006330093661870007019A3A3C3E493960874011A
:10064300939618A3A3400DD0E0D0E0D0E00205813B
:10065300A3A3A3A3A3A3D0E022D083D082C5F0E4B5
:1006630093A3C5F0C395F0F5F0E493A3C395F040CD
:1006730005E5F0048001E475F002A42582F582E526
:10068300F03583F583E493A3C0E0E493C0E02274E0
:1006930004800474028000CCC0E0EDC0E0E518C320
:1006A3009CCCAD1950011D10AF068C188D19800616
:1006B3008C188D19D2AF1207BBD0E0FDD0E0FC221D
:1006C300C0E074F21203E4E589A2E150031217F0CB
:1006D300758900C2C57F01020443C0E074F21203AE
:1006E300E4E58BA2E050031217F0758B00C2E8809B
:1006F300E474028000CCC0E0EDC0E0E518C39CCCFC
:10070300AD1950011D10AF068C188D1980068C1879
:100713008D19D2AF120799D0E0FDD0E0FC22C0E0E2
:10072300C0F088F0E493667008087401936618704B
:1007330000A8F0A3A3700BD0F0D0E0D0E0D0E0028B
:100743000581A3A3D0F0D0E022D083D082CCC0E037
:10075300E493A3600612081A1470FAE493A36006E4
:1007630012090B1470FAD0E0FCE493A3C0E0E49305
:10077300C0E022C0E074F21203E4A2AFE433FED27D
:10078300AFC2C0E5D1A2E450031218AAEEA2E092D0
:10079300AF7F01020443CAC0E0E493A3C582CCC582
:1007A30082C583CDC583F0A3C582CCC582C583CD65
:1007B300C583DAE5D0E0CA22CAC0E0E0A3C582CC93
:1007C300C582C583CDC583F0A3C582CCC582C5834D
:1007D300CDC583DAE6D0E0CA227009080808226092
:1007E30016181818C6C333C608C633C608C633C698
:1007F30008C633C6D5E0EA22C008C3E096F5080868
:10080300A3E096420808A3E096420808A3E09645B1
:10081300087001D3D00822C0E0E493A3D39C501006
:10082300E493A3C39C400AD0E0D0E0D0E002076980
:10083300A3A3A3D0E022C09FF59FE473D09F22D04F
:1008430083D082C09FE493C0E0740193C0E074023C
:1008530093F59F227404800A740380067402800255
:100863007401C0E0F404120872D0E0120AC3222516
:1008730018F58210AF08F518400215198008F5180D
:1008830040021519D2AF85198322BB0102E722C0AA
:1008930082C08389828A83BB0003E08002E493D011
:1008A30083D08222C0D0251810AF08F51850020556
:1008B300198008F51850020519D2AFD0D022C0E034
:1008C300C0D0E8C0E0E5A8D2AFC2C7A2E792AFD0DC
:1008D300E0F8D0D0D0E0326016080808C6C313C6CB
:1008E30018C613C618C613C618C613C6D5E0EA221F
:1008F300C3E0C696F608A3E0C696F608A3E0C6963C
:10090300F608A3E0C696F622C0E0E493A36C700950
:10091300D0E0D0E0D0E0020769A3A3D0E0222518FD
:1009230010AF08F518400215198008F51840021594
:1009330019D2AF22E76670100809E766700A080942
:10094300E76670040809E76622E066701008A3E012
:1009530066700A08A3E066700408A3E06622C3E099
:100963009608A3E09608A3E09608A3E096A2D265B2
:10097300D03322C3E096F008A3E096F008A3E096F4
:10098300F008A3E096F022E026F008A3E036F00892
:10099300A3E036F008A3E036F022E627F60809E6DE
:1009A30037F60809E637F60809E637F622E026F6B1
:1009B30008A3E036F608A3E036F608A3E036F622ED
:1009C300C0E0E8C0E0E58124FCF8E6A2E7D0E0F867
:1009D300D0E022E647F60809E647F60809E647F6B7
:1009E3000809E647F622E657F60809E657F6080926
:1009F300E657F60809E657F622E056F608A3E0564E
:100A0300F608A3E056F608A3E056F622E056F008EF
:100A1300A3E056F008A3E056F008A3E056F02270D6
:100A23000422600D18C6C333C608C633C6D5E0F426
:100A33001822E4C396F608E496F608E496F608E46A
:100A430096F622600D08C6A2E713C618C613C6D5CC
:100A5300E0F322C6F4C608C6F4C608C6F4C608C640
:100A6300F4C622C3E7960809E7960809E79608093A
:100A7300E79622C3E09608A3E09608A3E09608A3AE
:100A8300E0962275D0007581407518017519030031
:100A930002049BE0F608A3E0F608A3E0F608A3E04F
:100AA300F622600C08C6C313C618C613C6D5E0F4F5
:100AB30022E6F008A3E6F008A3E6F008A3E6F02296
:100AC300CAC0E0E6F0A308DAFAD0E0FA22E0FAA31B
:100AD300E0FBA3E0FCA3E0FD22EAF0A3EBF0A3EC30
:100AE300F0A3EDF022E5C754F84401F5C7790122DC
:100AF3002518F582E43519F58322C2AF75D69F0216
:100B03000000221208429BAD01120842EAAF011213
:100B130008423DB101120842E0B1011208422BB371
:100B23000112084249B301120842B15D00120842A2
:100B3300C35D00120842155E00120842765E001281
:100B43000842005F00120842A45F00120842F85FE7
:100B53000012084211600012084237600012084276
:100B6300726000120842B66000120842DD60001293
:100B730008422E6100120842DE61001208429662AA
:100B8300001208425E63001208423B6400120842EE
:100B9300C16400120842D06400120842DB640012F0
:100BA3000842E46500120842F565001208426B66CC
:100BB30000120842FD6600120842556700120842FF
:100BC3001B68001208424C68001208429168001228
:100BD30008429E6800120842326A00120842956B6E
:100BE30000120842B16C001208421B6F0012084247
:100BF300266F00120842306F001208423B6F00124A
:100C03000842456F001208424F6F001208425A6FA4
:100C130000120842656F00120842966F00120842E4
:100C2300BA6F00120842DE6F0012084243700012CE
:100C33000842877000120842A370001208421A711A
:100C4300001208425271001208429E7100120842BB
:100C5300FB7100120842DD73001208426374001234
:100C63000842347500120842447800120842997809
:100C730000120842C57800120842117A0012084295
:100C8300617A00120842B67A00120842B77B00125A
:100C930008424F7C00120842D17C00120842717D49
:100CA30000120842FC2500120842352600120842B1
:100CB3000F28001208424E280012084298280012FA
:100CC30008423D29001208429C2900120842D029FB
:100CD300001208423D2A001208425A2B0012084211
:100CE300622C00120842F82C001208423F30001216
:100CF3000842E83000120842C4310012084225328B
:100D0300001208424233001208426C3500120842B6
:100D13002336001208422D360012084260360012B4
:100D23000842273700120842C23700120842273808
:100D3300001208425038001208427238001208426A
:100D4300A13A00120842783B00120842BC3B001251
:100D53000842293C00120842E43C00120842163DB6
:100D6300001208425A3D001208428D3D001208420B
:100D7300E23D00120842373E00120842CB3E001209
:100D830008422D3F00120842953F001208423E419F
:100D93000012084226420012084268430012084229
:100DA3009645001208425646001208428548001232
:100DB3000842284900120842664900120842124BB1
:100DC30000120842264B00120842304B0012084220
:100DD3005A4B00120842664B00120842854B001220
:100DE30008423C4C001208427B4C00120842854CDE
:100DF30000120842394D00120842384E00120842D0
:100E0300314F00120842CE4F0012084270500012B8
:100E13000842875000120842BE5000120842DC50BC
:100E230000120842205100120842455100120842A4
:100E33002B5200120842975200120842115300121B
:100E430008422054001208425F5500120842C1555F
:100E5300001208427B56001208429E5600120842B6
:100E6300725700120842BD5700120842FF57001282
:100E730008425658001208428D5800120842BB58C7
:100E830000120842F458001208421959001208428D
:100E9300A15900120842C45B00120842235C0012ED
:100EA3000842B75C00120842235D00120842775DD6
:100EB30000120842CCB1031208420BB203120842DB
:100EC3008EB401120842E8B40112084244B501127B
:100ED300084290B501120842ABB501120842DCB5D5
:100EE30001120842F9B50112084205B6011208427F
:100EF30079B70112084292B701120842F9B70112F9
:100F030008420CB8011208421AB801120842CEB8BE
:100F130001120842B2B901120842B8BA01120842DA
:100F23003EBB0112084248BB01120842B5BB011285
:100F33000842CCBB01120842FEBB0112084237BC77
:100F43000112084261BC01120842C2BC01120842EC
:100F5300E2BC0112084200BD0112084246BD011263
:100F630008426CBE01120842B9BE01120842E8BE33
:100F7300011208425EBF0112084286BF01120842F5
:100F8300BFBF01120842CDBF0112084225C00112A2
:100F9300084274C001120842B3C001120842E3C000
:100FA300011208420FC1011208421AC1011208427C
:100FB30038C101120842FAC10112084204C20112E7
:100FC30008423FC20112084255C2011208425EC2E2
:100FD30001120842B3C201120842C7C201120842F9
:100FE300D5C301120842E8C301120842FDC301122E
:100FF30008429FC40112084222C501120842E0C5FB
:1010030001120842EBC50112084211C7011208423E
:101013002DC7011208427FC701120842BEC7011241
:101023000842D3C70112084215C80112084262CA16
:1010330001120842E0CA0112084253CB01120842CE
:1010430075CD011208428DCD0112084290CD0112D7
:1010530008429CCD01120842B0CD01120842B8CD1E
:1010630001120842EBCD011208429BCE0112084245
:1010730011CF0112084284CF0112084238D0011265
:101083000842EDD0011208420CD101120842ACD142
:1010930001120842B8D101120842E3D101120842F9
:1010A300E6D10112084250D20112084278D301124C
:1010B300084250D401120842DBD401120842F4D58D
:1010C30001120842B1D601120842EAD601120842BF
:1010D3001BD701120842BBD701120842EBD70112FA
:1010E3000842C6D8011208425FD901120842EAD960
:1010F300011208429BDA011208421DDB0112084269
:101103004FDB0112084290DB01120842A0C2021217
:10111300084205C30212084242C30212084291C3A5
:1011230002120842A7C5021208428AC702120842E5
:10113300F4CA021208422FCB0212084251CB021208
:101143000842B4CB02120842E8CB021208420BCC8D
:101153000212084238CC0212084294CC021208420E
:101163008AAC0212084208AD021208423EAD0212D6
:101173000842AAAD021208421DAF0212084239AF5B
:10118300021208427EAF021208420CB00212084259
:1011930065B00212084292B102120842A4B20212CE
:1011A300084201B3021208426DB302120842CEB3E1
:1011B300021208420FB402120842BCB402120842DF
:1011C300CEB502120842F9B50212084244B6021221
:1011D30008428BB6021208421DB702120842D8B762
:1011E3000212084253A50312084264A503120842DF
:1011F300B5A503120842FAA503120842A4A60312D6
:101203000842B9AD03120842B1A00312084209A271
:10121300031208424FB802120842F4B802120842FD
:1012230014B90212084234B90212084248B9021230
:101233000842A0B902120842D0B90212084251BBB7
:1012430002120842F7BB02120842D9BC021208423A
:101253002ABD021208426DBD02120842B0BD02123D
:10126300084216BE0212084237BE02120842C3BE2B
:1012730002120842F4BE0212084268BF0212084278
:1012830016C102120842F0C10212084232C202120F
:1012930008428CC202120842247E00120842457E94
:1012A300001208427B7F00120842A57F0012084209
:1012B300E5A30312084270A4031208427AA403129E
:1012C30008429BA40312084232A5031208424DA010
:1012D3000212084250A0021208420AA10212084256
:1012E30035A1021208427CA102120842A1A10212F6
:1012F3000842C2A102120842F6A1021208422FA21A
:101303000212084258A3021208428FA30212084293
:10131300AFA3021208424AA4021208420FA5021206
:10132300084246A502120842BBA6021208425EA763
:101333000212084257A80212084280A80212084269
:10134300D4A8021208429AA902120842C8A902129A
:1013530008425DAB02120842DEAB0212084211AC36
:1013630002120842E0CC02120842EACC02120842FE
:1013730036CD02120842A4CD02120842C5CD021294
:101383000842DCCD02120842C4A30112084220D154
:101393000212084229D1021208427CD102120842E9
:1013A300A5D1021208420CD2021208429DD20212A7
:1013B3000842DFD20212084229D30212084288D31C
:1013C3000212084219D40212084258D402120842E7
:1013D30097D402120842CCD402120842DED402127D
:1013E3000842F0D402120842A4AC0112084218D5F4
:1013F30002120842CED5021208420ED60212084249
:1014030024F902120842F7F90212084211FA0212F1
:10141300084222FA0212084237FC0212084256FC22
:1014230002120842AFFD02120842E5FD0212084211
:101433002EFE021208427EFF02120842C5DB011291
:10144300084204DD0112084240DD01120842FFDEBA
:101453000112084228DF01120842BBE101120842CF
:10146300FFE10112084288E30112084220E401125D
:10147300084288E40112084229E5011208426BE59B
:1014830001120842ABE50112084236E70112084295
:10149300A6E801120842CBEA01120842F9EA011256
:1014A300084220EB0112084229EB0112084284EBA7
:1014B3000112084217EC0112084235EF01120842EB
:1014C300B6EF01120842E4FF0112084281B1031290
:1014D30008420A87031208421D8703120842BA878B
:1014E30003120842F58703120842108803120842C8
:1014F3003588031208427A8803120842AB88031224
:101503000842DC8803120842628A031208421CA8BC
:101513000312084252A8031208426EA8031208429B
:10152300B0A803120842C0A80312084255A9031227
:101533000842828D031208424A8E03120842FA8E31
:1015430003120842728F03120842C58F0312084226
:10155300BE9002120842169102120842C091021272
:101563000842689202120842C592021208421E9370
:1015730002120842329302120842FC9402120842F9
:10158300779502120842A195021208425E97021251
:101593000842799702120842C89702120842DE975E
:1015A30002120842EB97021208421F9802120842E5
:1015B300359802120842BB9802120842CA980212D6
:1015C30008422399021208427D9902120842CB99DC
:1015D30002120842D59A02120842579D021208428B
:1015E300F19D02120842339E02120842C89E021263
:1015F3000842E59E02120842E89E02120842EB9E50
:10160300021208425E9F02120842799F02120842A8
:10161300A59F02120842E09F02120842E39F0212B2
:101623000842F69F021208421DA002120842ADB002
:1016330003120842B9B003120842F3B0031208427E
:1016430013F0011208423EF0011208420AF101129E
:1016530008428FF101120842F8F10112084244F2E4
:1016630001120842C3F20112084255F30112084263
:10167300E1F30112084223F4011208428FF8011228
:1016830008420FFA011208424EFA0112084217FBF0
:1016930001120842CBFB011208427BFD01120842F2
:1016A30007FE01120842008002120842BA800212A9
:1016B30008422C81021208423B8102120842B58182
:1016C300021208422482021208422E8302120842A6
:1016D300578302120842F78302120842458402121A
:1016E3000842B58402120842E98502120842C586FF
:1016F30002120842368702120842B38802120842D5
:10170300758902120842108A021208426B8A021279
:101713000842D68A02120842DA8B021208429B8DD3
:10172300021208423A8E02120842AC8E021208429A
:10173300698F02120842999003120842ED90031236
:101743000842459103120842909103120842F29114
:10175300031208428B9203120842F39203120842C7
:10176300FF92031208428D9A03120842BE9A031293
:101773000842789B03120842DE9B031208424F9CE7
:10178300031208426D9D03120842ACAE03120842D5
:10179300BDAE031208425DAF03120842F99E031265
:1017A3000842079F0312084242B30312084217B0CC
:1017B3000312084227B00312084242B00312084240
:1017C300A3B003120842B7AC031208423CAD0312A4
:1017D3000842A0AD03120842A5AB03120842C7ABEF
:1017E3000312084231AC031208423CAC0312084214
:1017F30080AC0312084273DF0212084281DF021237
:101803000842C2DF02120842E3DF021208426DE01F
:10181300021208428FE002120842FBE00212084261
:1018230016E10212084231E1021208423BE10212C0
:10183300084245E10212084258E10212084271E1EE
:10184300021208420DE202120842C9E202120842E1
:1018530040E302120842BAE30212084220E40212F1
:1018630008420080031208420E8003120842888057
:10187300031208426C8103120842258303120842B3
:1018830020B303120842CAE50212084237E60212E5
:101893000842F8E60212084268E70212084271E8B9
:1018A30002120842E9E9021208424DEA0212084212
:1018B300A2EA02120842ABEA02120842BAEA021290
:1018C3000842CDEA02120842E3EA02120842ECEAB5
:1018D30002120842FFEA0212084254EB02120842C3
:1018E30050ED0212084282ED02120842A4ED0212E8
:1018F3000842BDED02120842D6ED02120842E0EEA4
:10190300021208427BEF02120842BBA603120842EE
:10191300DFA603120842F8A6031208422BA70312FC
:1019230008425CA7031208428AA703120842ECA7E5
:1019330003120842FBA70312084205A80312084238
:1019430012A8031208423A93031208426093031247
:1019530008429D9303120842AC9303120842CB93AF
:10196300031208423394031208423C9403120842C0
:101973009B9403120842BF94031208427E950312FC
:1019830008428B95031208429C950312084259B2F0
:101993000312084276B203120842F2EF021208421F
:1019A30050F1021208425DF10212084270F1021274
:1019B30008428FF102120842A5F102120842B9F15E
:1019C300021208422EF20212084293F20212084255
:1019D30043F30212084218F40212084228F40212D6
:1019E300084237F4021208427EAF03120842A2AF44
:1019F30003120842CAAF03120842F2AF03120842AD
:101A0300CA9503120842F195031208421296031273
:101A13000842779603120842309803120842499805
:101A230003120842559803120842699803120842A8
:101A33008798031208429198031208429B98031255
:101A43000842AE98031208420199031208423A99D8
:101A530003120842699903120842B7990312084214
:101A6300069A03120842219A031208422B9A031280
:101A730008423C9A03120842829A0312084230B188
:101A83000312084237D60212084261D602120842F4
:101A93007DD60212084290D602120842A6D602123E
:101AA300084203D70212084236D70212084272DBF9
:101AB3000212084298DC02120842CBDC02120842EE
:101AC30017DD0212084243DE021208426BDE0212E5
:101AD300084280DE0212084290DE02120842D4DE7F
:101AE3000212084235DF0212084245DF02120842A1
:101AF3005FA9031208427AA903120842A3A9031299
:101B03000842BDA903120842E2A90312084201AA2E
:101B13000312084219AA0312084247AA03120842F1
:101B230061AA0312084215B2031208428A83031200
:101B330008429183031208429D8403120842CD8414
:101B430003120842F3840312084216850312084263
:101B5300388503120842728503120842D88503129E
:101B630008421186031208425D86031208428A86E0
:101B730003120842AA860312084258A2031208421B
:101B83006AA20312084255A303120842E2A30312F6
:101B9300084292AA0312084204AB0312084242AB62
:101BA3000312084283AB031208426F8A03120842EE
:101BB3008B8A03120842DA8A03120842F68A031256
:101BC3000842278B03120842378B03120842238CE7
:101BD300031208422D8C031208423A8C0312084266
:101BE3004A8D031208425E8D03120842678D031269
:101BF300084270F402120842B5F802120842BAF819
:101C030002120842CBB20312084295B203120842F1
:101C1300F8B203120842E1FF0212084218A30112AC
:101C2300084269A101120842249F01120842AB9E97
:101C330001120842529E01120842E69D0112084217
:101C4300BD9D01120842B09B011208427C9B011208
:101C53000842499B011208422D9B01120842539AE4
:101C6300011208420B9A01120842409801120842DD
:101C7300C09701120842BD9701120842C49601128F
:101C83000842929601120842CF9501120842FA9334
:101C9300011208428B93011208425D93011208421C
:101CA30088AC0112084234AC01120842ECAB0112B9
:101CB30008422AAB011208429DAA011208425A9314
:101CC30001120842479301120842DF9201120842AF
:101CD300CE920112084290AA01120842AF9101125A
:101CE30008427991011208423C9101120842DD90A9
:101CF300011208429EA7011208420FD502120842A0
:101D0300AC9001120842678D01120842588C0112EF
:101D13000842E78B01120842AC8B01120842778B11
:101D2300011208426B8B01120842CB8A011208424E
:101D3300128A01120842E5870112084271850112D5
:101D430008422F8501120842FA8301120842AF8329
:101D530001120842E182011208423882011208424C
:101D6300D481011208420E8201120842F0A401122A
:101D730008428CCE0200000080FBE47300000000E8
:101D83000000000000000000000000001010101010
:101D93001010000030300000001428500000000034
:101DA3000000000000000000002828FC284850FC28
:101DB3005050000000001038545430181454543854
:101DC300100000000044A8A8B0541A2A2A440000B6
:101DD30000000020505060ACA898927C0000006086
:101DE3006020C0000000000000000000000408089C
:101DF30010101010101008080400000040201008F4
:101E030004081020400000000000001010D63838ED
:101E1300D61010000000000000101010FE1010106B
:101E230000000000000000000000000000006060EF
:101E330020C0000000000000FC00000000000000C3
:101E430000000000000000000000606000000002CD
:101E53000404040808101020202040000000003073
:101E6300488484848484483000000000001070108B
:101E730010101010107C00000000003844440408C7
:101E83001020447C0000000000384444180404443B
:101E9300443800000000080818284848887C081CBB
:101EA30000000000007C40407844044444380000B3
:101EB3000000003C4480B8C484848478000000009F
:101EC300007C444808101010101000000000007837
:101ED30084844878848484780000000000788484B3
:101EE300848C740488F0000000000000003030008F
:101EF300000030300000000000000000100000006F
:101F030000101020000004081020402010080400D6
:101F130000000000000000FC0000FC0000000000C6
:101F230000004020100804081020400000000000BA
:101F330078848484081010003030000000000038DA
:101F4300449AAAAAAAB4423C000000000010102838
:101F53002828384444EE0000000000F84444784444
:101F6300444444F800000000003C448480808080A6
:101F730044380000000000F048444444444448F01E
:101F83000000000000FC44404878484044FC000046
:101F9300000000FC42404878484040E00000000058
:101FA300003C448480808E8444380000000000EEAE
:101FB3004444447C444444EE00000000007C101080
:101FC30010101010107C00000000007C1010101086
:101FD3001010101090E0000000EE44485070484884
:101FE30044EE0000000000E040404040404044FC1C
:101FF3000000000000EE6C6C6C54545454D6000086
:10200300000000EE64645454544C4CE4000000009F
:10201300003048848484848448300000000000F841
:1020230044444478404040E00000000000304884CD
:10203300848484B448380C00000000F84444785089
:10204300484844E600000000003C444020180404D3
:1020530044780000000000FE921010101010103899
:102063000000000000EE444444444444443800006B
:10207300000000EE44442828282810100000000027
:1020830000D6545454546C2828280000000000EE55
:1020930044282810282844EE0000000000EE4428BD
:1020A30028101010103800000000007C8808102051
:1020B300204044FC0000001C1010101010101010E1
:1020C30010101C00007010101010101010101010C1
:1020D300700000701010101010101010101070000D
:1020E30000102800000000000000000000000000B5
:1020F3000000000000000000000000FE00606020FF
:10210300C00000000000000000000000000000000C
:1021130038441C24443E0000000000C04040784482
:102123004444447800000000000000003C44404068
:10213300443800000000000C04043C444444443E82
:10214300000000000000000038447C4044380000D8
:102153000000001C2420F82020202078000000002C
:10216300000000003C48483040784438000000C07C
:1021730040405864444444EE000000000010000056
:1021830070101010107C00000000000800003808D8
:10219300080808080870000000C040405C48507000
:1021A30048EC000000000070101010101010107C9C
:1021B3000000000000000000F854545454D60000FE
:1021C300000000000000D864444444EE0000000016
:1021D300000000003844444444380000000000007C
:1021E3000000F8444444447840E00000000000004C
:1021F3003C444444443C040E000000000000EC3026
:10220300202020F800000000000000003C443008BB
:10221300447800000000000010107C101010100C17
:102223000000000000000000CC444444443E000091
:10223300000000000000EE442828281000000000E1
:1022430000000000D6545454282800000000000069
:102253000000DC48303048EC0000000000000000C3
:10226300EE442828101020E00000000000007C4805
:102273001010247C000010101010101010101010FB
:102283001010101000013636010100010201000197
:1022930003010001040106060502000007010034E2
:1022A3000801000F090401010D0100FF0E080000E1
:1022B30017020000190100FF1A0100011B0100FEB3
:1022C3001C0100081D0200001F0100012001000184
:1022D300210200002301000F240200002601000157
:1022E30027010008280200FF2A0100072B010240F2
:1022F3002C0100002D0100012E0100012F0100FF20
:1023030030010B1C310800003A0100083B01000FAB
:102313002F010000030271023001600211027002FA
:102323000102020202028002100261023A0041002D
:102333006302730272026202430200021302380054
:102343000002000204021202000200020002000264
:1023530004020402370037003C0244020002390041
:10236300000200026502000235028102000205023A
:102373008202830200020300710030016000110039
:10238300700031022003500480001000610000003F
:102393001400630073007200620043000000130026
:1023A300060000000000040012000000000000000E
:1023B300000004000400370037003C024400000022
:1023C30000000000000065000000350081000000EF
:1023D30005000000830000000103710301030103F2
:1023E300010301030103220302030103100300039A
:1023F3000003000300030003000300034203000380
:102403002403060300030003040312032503230329
:10241300250323030403040300030003000344030D
:102423000003000323030003650321003503810335
:10243300000305030003000300030101710101010F
:1024430001011101010131010101010180011001AB
:1024530061013B00140063017301720162014301D6
:102463000001130106013D013500040112010001C1
:1024730000010001000104010401330133013C01A7
:1024830044013201360000010001650100013500FD
:102493008101000105018201830100013600010071
:1024A300060000000F000000000000000000000014
:1024B300000003FFFF00000403FFFF0000FFFF0F06
:1024C300F4010005C4040320000100030B00000015
:1024D300000000000003010F0100E216020058167D
:1024E30003005E160400641605006A1606007616DD
:1024F30011008E161400941615008816FFFF0000B5
:102503005C0F8C0F620F680F860F7A0F740F920F98
:10251300980F9E0FAA0F6E0F560F500F03EAF5E5A3
:10252300D5D5C5B5A5959585857575656555554508
:1025330045353525251515050A280D02F20C050428
:102543000D07F80C0CD40C0DE60CFF000000160F61
:1025530000000B150B020002220F3200000646108A
:1025630058105E10260F6410200F2C0FA610C410F5
:10257300CA10AC10B810B21000034948424D1817E6
:102583002505020C0E020B040B0A0708000F0001BD
:1025930019161816161523030000383C3E363B3B2C
:1025A300352B432C303016181920231A1C1E3030BB
:1025B3003017181921301B1D1F30800FA40FBE10B8
:1025C300B00FB60F9A106A1070107C1076100204C8
:1025D3000201010101090200000000000000BE0425
:1025E3000AE8030E00150004002800050C0A03097D
:1025F30008FF1E1E0F0404100C74F7120378E990F1
:1026030003B0F0900365E4F0121B7A9003B5E4F095
:10261300A3F09003B1F0A3F0120E60121B8090039D
:1026230034E4F0A3F09025F793FA7902121BE00249
:10263300529274F2120378EAFEEBFF5480606990C1
:1026430003B0E0F91213A68A088B09EA4509604F23
:102653007C0080010CEC75F003A4F8A9F0743B280E
:10266300F582742539F583E493F4602CE493F885BB
:1026730008828B83E06870DCAA08EC75F003A4F889
:10268300743C28F582742539F583E493C0E0740122
:1026930093F583D082121D7DAA08AB0912139AEE1B
:1026A300FAEF6480FB022802EF5420601D120D82B2
:1026B3008A088B09EA4509600A120CE6AA08AB09E5
:1026C30012139AEEFAEF642080DAEEA2E0501A9029
:1026D300036AE0640F700B7900120CB0E960031217
:1026E3002805EE6401FAEF80BB542070030227D063
:1026F300750C00123CD78B09EA450970107C027DEA
:10270300007A207B009003B0E0F91214F07C00798A
:10271300047A007B00120D5E8A088B0980188508F5
:1027230082850983A3A3A3A3A3A3A3A3A37401F0F3
:10273300850A08850B09E5084509606D7C00790465
:10274300AA08AB09120D5E8A0A8B0B750C01E5080A
:102753002404F8E509123A7B24FFF0A3E034FF12C6
:102763005D6E70CC850882850983A3A3A3A3A3A36D
:10277300A3A3A3A3E0640170A5850882850983A3AD
:10278300A3A3A3A3A3E054047094850882850983BB
:10279300A3A3A3A3A3A3A3A3A37406F07AB7850853
:1027A300828509831229318087120D2E7C007901DD
:1027B3007A007B00120D5E8B09EA45097009E50C6E
:1027C30070057A20124C31EE64200226E8EF5402A1
:1027D300600B120E5AEEFAEF64020226A7EF5404BE
:1027E3006019124DC8124CE8790190036312504CE2
:1027F300120BF6EEFAEF64040226A77A007B0002BE
:102803002A38900CDB1230CF120CC822C082C0834E
:1028130074EA120921851882851983AA82AB837908
:102823004B121BB67408120AF37402F07409120AED
:10283300F3AA82AB837950121BB67413120AF3E422
:1028430012521B121BD474160241F574F71203784B
:1028530074E1120921EAFEEBFFEE4F603385188223
:10286300851983AC82AD83120DA67406120AF3E0B8
:10287300601E7417120AF3E0FD7401120AF3E0FC00
:10288300EEFAEFFB7900120B1EE9600479A48002D3
:10289300790002528D74F6120378EAFEEBFF8E8202
:1028A3008F83A3A3A3A3A3A3E05440601B12570ADF
:1028B3001229FF60067AFF7BFF801A8E828F8312B4
:1028C3003E81FAA3E0FB8003120DCA74FE6A700313
:1028D30074FF6B604112570A124C75120E1EE98E7B
:1028E300828F83600612292AE4800512292A740143
:1028F300F07CB67D0C8E828F8312504C121BDAE96A
:10290300F5087015EE4F60097901EEFAEFFB120D31
:102913003AA908024CA67508CDAA088E828F8312A5
:102923002931E960DF80EAE0240D12435022E024DC
:102933000C124350E0F9120CC22274F6120378E928
:10294300FEEAFF7A0F7B00121394EA4B60198A8226
:102953008B83740CF0EEA3A3F0EF8A828B83A3F036
:10296300124CD17900802FEEF9120D648A088B097D
:10297300A808A909E849601C88828983A3A3A3A3A3
:10298300A3A3A3A3A37406125995E0F9120C7AEE3C
:10299300F9120D407910024CA6C082C08390036ADD
:1029A300E0640F7014EA4B6010900365E064086004
:1029B30005E0640470031229BF02421FEAFCEBFD29
:1029C3007A017B009003B0E0F91214EA22C082C0BE
:1029D300837900EA241DF582EB123E7E24FD600B11
:1029E30014600824FD600424FD70010902421F8E57
:1029F300828F83A3A3A3A3A3A3A3A3A3122A032224
:102A0300123EC6FB120E1EE9228E828F83A3A3A35E
:102A1300A3A3A3A3A3A3122A036402228E828F83F8
:102A2300A3A3A3A3A3A3A3A3A3124216900356E0B5
:102A330068221208A77F0602059174F412037874C2
:102A4300FD1209218A088B098A828B83A3A3E0F9EB
:102A5300120D648A0A8B0BAE0AAF0BEE4F700302A2
:102A63002B44850882850983A3E064F160308508DF
:102A730082850983A3E064CD602485088285098368
:102A8300A3E0641A6018850882850983A3E064E9DA
:102A9300600C850882850983A3E064E170087900EE
:102AA300120D3AE9706C850882850983A3E0C0E0C2
:102AB3007402120AF3D0E01241FAEEF0A3EF1235DA
:102AC30025851882851983AA82AB837005120BDED4
:102AD3008003120E067402120AF3E064E970338E67
:102AE300828F83122B50750A01780A120863750AC4
:102AF300E9780A120863E508240CF582E509123027
:102B030017123502FCA3E0FD8A828B8312351C1257
:102B130008A78E828F83A3A3A3A3A3A3A3A3A3E046
:102B2300640270108E828F83A3A3A3A3A3A3A3A382
:102B3300A37406F0850882850983A3A3E0F9120D27
:102B430040120D2E900CDF1228080230D4E0F8A3B7
:102B5300E0F9E8FAE9FB2274F4120378EAFEEBFFEA
:102B63007508008E828F83A3A3A3A3A3E06042759D
:102B730008088E828F83A3A3A3A3A3A3A3A31241B5
:102B8300298B0BEA450B601075082C8E828F83A36B
:102B9300A3A3A3A3E0D2E0F08E828F83A3A3A3A376
:102BA300A3E0540364016003022C43430811022C85
:102BB30043EE24181230E16033EE241A1230E17030
:102BC3000F122A1F7003A3E06970757508228070C5
:102BD300EE241BF582EF122C48241AF582EF1235EE
:102BE3002DEE241912573E120C688054122A0C70D1
:102BF30003750801122A1F7003A3E0697006E50834
:102C0300D2E1F508E50860158E828F83A3A3E070F7
:102C130006E508D2E58004E508D2E6F5081229F2B4
:102C230064017006E508D2E0F5088E828F83A3A3C2
:102C3300E0600D122C5664016006E508C2E0F50859
:102C4300A9080230D9123E6C122C4F22E0FCA3E0FB
:102C5300FDEE22123E66123E9EF9120E0CE922C0D0
:102C630082C08379018A828B83A3A3E0C394024049
:102C730001198A828B83A3A3A3A3E0C39402400216
:102C830079008A828B83A3A3A3A3A3A3A3A3A3E013
:102C930064F87003A3E0F460458A828B83A3A3A343
:102CA300A3A3A3A3A3A3E064F97003A3E0F4602E9A
:102CB3008A828B83A3A3A3A3A3A3A3A3A3E064FAFE
:102CC3007003A3E0F460178A828B83A3A3A3A3A357
:102CD300A3A3A3A3E064FB7003A3E0F47002790051
:102CE3008A828B83A3A3A3E0F8900353E068600276
:102CF300790002421F74F012037874DE120921EA8C
:102D0300FEEBFF8E828F83A3A3A3A3E0600E900C40
:102D1300DD124C9D6006900CDD1228087403120A24
:102D2300F3AC82AD838E828F83A3A3A3124D1F12B4
:102D33005558E9600F7403120AF3AA82AB83120C8D
:102D4300E0E970087901121B8C02300CEE241B128F
:102D53003E717410120AF3124CE87409120AF3E07C
:102D63006021741A120AF3E0FD7404120AF3E0FC02
:102D73008E828F8312504A7901120B1EE960047907
:102D83000280C37403120AF3AA82AB83120CDAE93A
:102D9300F50A7409120AF3E0702A90034DE06024E7
:102DA3007422550A6422601C7442550A644270CF2F
:102DB3007420120AF312302A600A7420120AF312E2
:102DC300302370BBE9A2E650417403120AF3AA82CE
:102DD300AB83120CCEE97003022D477420120AF361
:102DE300123E816403700F7420120AF3A3124C8FF6
:102DF300A3E0640D60147403120AF3AA82AB831276
:102E03000E30E96401700302300CEE242C123014EE
:102E13001233387003A3E069701C75080078081238
:102E230008637808120863EE242E12573E123030DE
:102E330012351C1208A77409120AF3E07003022E5C
:102E4300E912303012504C120E848A088B09EA457D
:102E5300097003022F867404120AF3E0F88E828F3E
:102E630083A3A3E028F8A3E03400F9E8240D12308B
:102E73001B8A828B83A3A3A3E068601CE88A828BEE
:102E830083A3A3A3F09081A7120AD08508828509A2
:102E930083A3A3A3A3120ADC7904E9120AF312554C
:102EA300352AF8A3E034008882F583A3AA82AB8392
:102EB3001213828A0C8B0D8C0E8D0F850882850967
:102EC30083A3A3A3A3780C1207FB400302300C9047
:102ED3008197780C1209B0850882850983A3A3A37F
:102EE300A3780C120AB4900365E064046008E064FC
:102EF30009600302300CE50AA2E54003022FC4EE89
:102F0300242E1230E1851882851983F0EE242F12C6
:102F130030E1C0E07401120AF3D0E0F0EE24301285
:102F230030E1C0E07402120AF3D0E0F07414120A24
:102F3300F3E064017027740E120AF3123E77EE2455
:102F4300121230E1687003A3E0697011740C120A65
:102F5300F3122A1970077414120AF3E4F0EE24240E
:102F63001230141206927404120AF3AC82AD837405
:102F730007120AF3AA82AB83120BE474041208A7A4
:102F830002300C9003AAE064016003022EE974206E
:102F9300120AF312302A7009E50AA2E65003022E40
:102FA300E97410120AF3E0F47003A3E0F4605AEE3C
:102FB300FCEFFD7403120AF3AA82AB83120CEC80BC
:102FC30048A2E650447420120AF312505B701A743C
:102FD3001A120AF3E0640270307403120AF3AA822D
:102FE300AB837900120DFA80207420120AF3123099
:102FF300237016741A120AF3E06404700C7403123B
:103003000AF3AA82AB83120DF47422025407EE244E
:103013000BF582EF123E6C22F582E9124D01F82284
:1030230012571CE0640722123E9E640622EE242AF5
:10303300123E69122C4F2412123E692274F41203B9
:1030430078EAFEEBFF8C088D099005BEE0600F1255
:103053002A1F7003A3E0697005120C56804F790094
:1030630012503F120C868A828B83E582458360353A
:10307300A3A3A3A3A3A3E05418602AE508241BF584
:1030830082E50912301712069612371512301712FD
:103093000696EE241812573E1230B2120C9874049E
:1030A3001208A7800879001230B2120C5C80278EB8
:1030B300828F83A3A3A3A3A3A3A3A3A3122C4F240D
:1030C3000BF582EF1230CB223400F583123EC6FBA0
:1030D3002274031208A77F04020591EE2417F582D8
:1030E300EF124D012274F712037874F7120921EAE3
:1030F300FEEBFF900365E06403600DE0640160088C
:10310300E0640960030231B28E828F83A3E0707E94
:103113007C007D007A027B00121B86EE2402FAEF0C
:10312300123A82123E77900356124CE87953121BDF
:10313300BC79001231B7E06409600312354A85187F
:10314300828519837401124CBE9003657404F07474
:1031530001120AF3AA82AB83794A121BB6740112D5
:103163000AF3AC82AD837A5B7B03121BA4900356F4
:1031730012554E7A03123554900350E0A2E35004E3
:10318300D2F08002C2F0124CAB122805801E8E8250
:103193008F83A3AE82AF83FC7D007A037B10121B67
:1031A300868E828F83E0F91231B7E4F0120D167424
:1031B3000902528F9003631230CF120BF69003650E
:1031C30022C082C083900334124C9D701F9003650C
:1031D300E014600924FC600A14600C800F90033C27
:1031E3008032900338802D90033A8028E8496008A4
:1031F3009003351234FC700C8A828B83A3E0F9129E
:103203000BEA801B9003351237B17005120E4E8006
:103213000E9003D2124C9D6006124C8F121D7D023C
:10322300421F74F412037874FB1209218A088B0974
:103233007A0F7B001213948A0A8B0BAE0AAF0BEE44
:103243004F700302332C8E828F83125219795012DE
:103253001BB6850882850983A3E0600302331490BB
:103263000363E0F47003A3E0F46034900363E06469
:10327300FE7003A3E0F46027851882851983123357
:10328300387003A3E0696017850882850983A374F6
:10329300EA1235327A637B037950121BBC80728544
:1032A30018828519831256FD124CE87A567B0379EE
:1032B30053121BB6900356124D19124CE87A597BE0
:1032C30003794B121BB67A587B0379E1121BB69034
:1032D300036AE0C3940F5021900358E0C0E07402E6
:1032E300120AF3D0E0F07404120AF37401F004122A
:1032F3000AF3AA82AB83121BCE750A00780A12085E
:1033030063780A120863900D05E0F9123513120869
:10331300A7850882850983123331A3F0900365746E
:1033230003F0EEFAEFFB124CD174050230D6A3E0A2
:103333008E828F8322125701E06822124357227430
:10334300F512037874D81209218A088B098A828BB3
:1033530083A3A3A3123EA37415120AF3AC82AD8315
:103363008A828B83A3A3A3A3A3A3A3A3123502FAE5
:10337300A3E0FB120D1C7415120AF3E0706B8508B1
:1033830082850983A3A3A3A3A3A3A3A3E0C3940B4D
:1033930040578E828F83A3A3A3A3A3A3A3A3E06415
:1033A300027046EE240B1230E1F4703D900365E0A9
:1033B3006402603AE064066035900334124C9D6009
:1033C300051234FC604F900365E064086005E06417
:1033D3000470167417120AF3E0F9741C120AF3ACA2
:1033E30082AD8312503F120D227428025C1B90039E
:1033F30034124C9D701F7508007808120863780812
:10340300120863EE2410123014125756123B6A123C
:10341300351C1208A78E828F83124FBB123A941267
:103423003E777402120AF3124CE8EE240D1230E1D7
:10343300C0E07404120AF3D0E0123525F508A3E0C6
:10344300F509740F7808120AA57405120AF3E50842
:10345300F07419120AF3E0C0E07406120AF3D0E024
:10346300F0741B120AF3E0C0E07407120AF3D0E011
:10347300F07416120AF3E0C0E07409120AF3D0E004
:10348300F07417120AF3E0C0E07408120AF3D0E0F4
:10349300F0EE24101230E1C0E0740A120AF3D0E017
:1034A300F0741A120AF3E0C0E0740B120AF3D0E0CE
:1034B300F07427120AF3E0C0E0740C120AF3D0E0B0
:1034C300F0741C120AF3A982AA8389088A09750A6F
:1034D30000780812085B7C087D007410120AF3AAB6
:1034E30082AB8312484C1208A7851882851983AAD8
:1034F30082AB83120BF00233EC1237B7640122E084
:10350300F98A828B83A3A3A3A3A3A3A3A3A3E022E8
:103513009003631255529003591230CF120DDC748D
:103523000222F0EE240B124CFE22124D01FA22F07D
:103533007A567B03795312353D22121BBC7A597B91
:1035430003794B121BBC229003631230CF120E7E01
:10355300227B00121B869003591255527A047B007A
:10356300121B8622F01257612274F212037874F848
:10357300120921EAFEEBFF8C0A8D0B890C85188258
:10358300851983AC82AD8375838175825A74081261
:1035930007BBF50DEEFCEFFD851882851983AA8222
:1035A300AB83124F1C7003750D019003B1803BEE8A
:1035B300FCEFFDE508240BFAE5093400124F1B600C
:1035C3001E850882850983A3A3E0650C7011850815
:1035D30082850983E0650A7004A3E0650B6038E522
:1035E300082414F582E509123017123A8CE50845D0
:1035F300096024E50DA2E040B6850882850983E0D1
:10360300650A7004A3E0650B70D58508828509837C
:10361300A3A3E0650C70C8AA08AB097408022A3595
:10362300C082C0839003B102421C74F712037890E6
:1036330003B1123EC68012EA2414F582EB1230174E
:10364300123EA3121436EEFAEFFBEA4B70E9900335
:10365300B1E4F0A3F00252927F0702059174F112D4
:103663000378EAFEEBFF890A8C088D098E828F832B
:10367300E08C828D83124133AE82AF83E012490C1A
:1036830012487DC412490C12371EE054038C828DFC
:103693008312487BA2E2E4338C828D8312487A132F
:1036A3001313541F12490C124879A2E7E4338C8296
:1036B3008D83A3A3A3A312371E8E0C8F0D750E004B
:1036C300780C12085B7C087D00E50824071254C1BE
:1036D3001208A712552C8E0C8F0D780C12085B7CE8
:1036E300037D00E508240F1254C11208A7E50AC39D
:1036F300940F40148E828F83A3A3A3E0C0E01237FC
:1037030015123017D0E08006123715125989F002CE
:10371300365BE5082412F582E50922A3A31241379B
:103723000EAF832274F412037874F9120921EAFEAE
:10373300EBFF8908900334124C9D600E1237B17071
:1037430009EEFAEFFB120E48805F900363E06E70A0
:1037530003A3E06F70537401650860097A777B03F4
:10376300124F1C70447A007B02123CDB8B0BEA4540
:103773000B7036900366120AD0851882851983125E
:103783000ADC90036CE0C0E07404120AF3D0E0F0AA
:103793007405120AF37401F07406120AF312521933
:1037A300120BBAE9609B120BC074070230D61237B2
:1037B300B764022212571DA3A3A3A3A3A3E02274F9
:1037C300F51203788A088B098A828B83A3AE82AFB2
:1037D30083E0F9120C0E8E828F83E064EB600C851C
:1037E3000882850983A3E064E1700985088285095D
:1037F30083A3E4F0122805750A01780A1208638589
:103803000882850983A3E0F5087808120863790024
:103813001235131208A7120D2E025C1EEAF0A3EB59
:10382300F002421F74F61203789003B4E0701B7C1D
:103833000079017A007B00120D5EEA4B600C8A82EC
:103843008B83124C9D6003120CBC024CA6C082C039
:1038530083123CC3401079FF120D58E9F89025FB01
:10386300E493C398500479018002790002421F74E3
:10387300F01203788A088B09890B750C008A828BF6
:1038830083A3A3A3A3A3A3A3A3E0F9120D648A0EA6
:103893008B0FAE0EAF0F750A01EE4F600302395066
:1038A300850882850983A3A3A3A3A3A312554E85E9
:1038B3000882850983A3A3A3A3A3A3A312464C123F
:1038C300504C120D4C8A0C8B0DAE0CAF0DEE4F709D
:1038D30003023A738E828F83A3A3A3A3E4F0A3F01E
:1038E300E508240B123A7FE0C0E0123011D0E0F07B
:1038F300120E24EE240CF582EF124C71E508240E0F
:10390300F582E509123E74EE240EF582EF124CE5C2
:10391300750C01EE2406F8EF123A7B547FF0A3E016
:1039230054FC1257B3E0540460030239D6900CE3FD
:1039330012463D74077808120A228E828F83A3A34E
:10394300A3A3A3A3E04508F0A3E04509F08E828F6B
:1039530083A3A3A3A3123A8A74077808120AA5E5DE
:10396300085407F508E50B607A8E828F83A3A3A31F
:10397300A3A3A3A3A3A3740212487E240D12434C52
:10398300E0A2E2500B900351124D19A3A3124CE88D
:10399300E5087003023A48EE2406F8EF3400F9E82C
:1039A300FAE9FB8A828B83E0547FFCA3E054FCFD9D
:1039B300E50824FFF508E434FFF5097407780812D5
:1039C3000A22EC4508F8ED4509F98A828B83124CEB
:1039D300E880728E828F83A3A3A3A3A3A3E0448072
:1039E30002394FE5087005750A0080598E828F836E
:1039F300A3A3A3A3A3A3E05420601212138EEA543B
:103A03007F245F8E828F83A3A3A3A380238E828FC1
:103A130083A3A3A3A3A3A3E05410600A12138EEA03
:103A2300540F240A80DD8E828F83A3A3A3A3740182
:103A3300F0A3E4123A947404123CD28B09EA4509C8
:103A43007003124C64E50CA2E050288E828F83A38E
:103A5300A3A3A312527FF9EEFAEFFB120D52E96012
:103A630012124C936003123E5CEEFAEFFB12143613
:103A7300750A00A90A02540A124DDC22FAE5093438
:103A830000FB8A828B8322A3A3E0F508A3E0F50958
:103A930022123A98221254DDA3A3A3A3A32274F4FF
:103AA30012037874F71209217E00120D64EA4B7039
:103AB30003023B638A828B83A3A3A3A3A3A3A3A32E
:103AC300A3E064066003023B638A828B83A3A3A300
:103AD300A3A3A3A3E0FF8A828B8312435FE0C0E02A
:103AE3007408120AF3D0E0123E97124F22124CE8E8
:103AF300120D76EF54086066851882851983125576
:103B03004E7A007B00120D468B0BEA450B704F90EB
:103B13000363123F87121BE67C007D007A007B0063
:103B230080288E828F83123E81F47003A3E0F460B9
:103B33002D900363123B6A12504C1218DAE9641A8F
:103B4300601C7C007D00EEFAEFFB120D468A0A8BA7
:103B53000BAE0AAF0BEE4F70C97900121BEC7E015E
:103B6300EEF974090230D6123B6E22E0FCA3E0FDAD
:103B73008E828F8322C082C083EA4B70059003B587
:103B830080068A828B83A3A3123D8760258A828B5A
:103B930083A3A3A3A3A3A3A3E0540860E5EC4D6010
:103BA300158A828B83123E816C7003A3E06D70D201
:103BB30080047A007B0002421F74F2120378EAFE4B
:103BC300EBFF890A8C088D097A107B00121430EA06
:103BD3004B603F8A828B83A3A3A3A3A3A3A3A3A323
:103BE300E4123E85A3E50A125723A3123C1F8A82DF
:103BF3008B83A3A3A3A3E4F0A3123E91A3F01255D6
:103C0300B7EA240CF582EB124123123C18A3A3F06C
:103C1300A3F0022A38A3F08A828B8322A3A3E508A8
:103C2300F0A3E509F02274F4120378EAFEEBFF89AE
:103C3300088C0A8D0BEE4F6055740165087014797A
:103C430001120D58E9F89025F3E493C398500F79C6
:103C530011806A74046508702F123CC340F18E8290
:103C63008F83A3A3A3A3A3A3A3A3A3E50812413311
:103C7300A3125CA88E828F83A3A3E4F0A3F0900326
:103C8300B5124C9D6021800D7402650860D079C126
:103C9300802BE0F8A3124D12A3A3123D87888289DB
:103CA30083A3A370ED80039003B5EEF0A3EF123C62
:103CB300D28B0BEA450B7003124C6479000230D9A6
:103CC3007904120D58E9F89025EEE493C39822F095
:103CD300123CD7227A207B009003B0E0F91214FC47
:103CE30022C082C083E9F879009003B5801D8A82DF
:103CF3008B83A3A3A3A3A3A3A3A3A3E068600574D7
:103D0300FF687001098A828B83A3A3123D8770DE4B
:103D130002421F74F7120378EA4B70059003B580D3
:103D2300068A828B83A3A3123D8760248A828B83B6
:103D3300A3A3A3A3A3A3A3A3A3E06970E4EC6014C8
:103D43008A828B83E0240D12553FA2E240D3800484
:103D53007A007B00025292C082C0839003B5800632
:103D63008A828B83A3A3123D8760128A828B83A3EB
:103D7300A3A3A3A3A3A3A3E06970E580047A007BB4
:103D83000002421F1230CFEA4B2274F21203788AE8
:103D93000A8B0B8C0C8D0D750800750900EA450B19
:103DA300602E9003B580068E828F83A3A3123DDA23
:103DB300601EAC0CAD0DEEFAEFFB850A82850B831A
:103DC300121D7DE9640170DFEEF8EFF988088909B7
:103DD300AA08AB09022A38E0FEA3E0FFEE4F2274E3
:103DE300F71203789003B5123E777C007D00800DB7
:103DF300E8FCE9FD88828983A3A3123E77E8496042
:103E030030EA687002EB6970E79003B512504CE832
:103E13006A7002E96B88828983A3A37008123E77D4
:103E23009003B58009123E778C828D83A3A3124C35
:103E3300E802529274F7120378EAFEEBFFEE4F604A
:103E430015120D70123EA9124C936003123E5CEEE4
:103E5300FAEFFB121436025292EE240C123E691250
:103E63003EBE22EE241DF582EF3400F58322F58257
:103E7300EF123E6C12421622F582EF123E6C123E96
:103E83009E22123E892212572BA3A3A3A322123EE2
:103E930089A3A322123C19123E9E22125716E02236
:103EA300E0FEA3E0FF228E828F83E0241C124350A6
:103EB300123EBE8E828F83123EBE22123EC6FB127C
:103EC300143622E0FAA3E022C082C083EAFCEBFDB1
:103ED300EC4D700479058044EC24FBF582ED34FF4E
:103EE300124C9B7007123F22E0F4600512139A8074
:103EF300E39003B0E0C0E0123F22D0E0F09025F061
:103F0300E493F97AB77B031213C4E96401700B7A63
:103F1300007B20124C6879008002790402421FEC76
:103F230024FFF582ED34FFF5832274F4120378A2A3
:103F3300AFE433F508C2AF9003B7123DDA6038EE51
:103F430024FBF582EF34FF124C9B7A007B20900315
:103F5300B06005124C6B8005E0F91213D0E4F50A4A
:103F6300F50B780A12085FEEFCEFFD7AB77B0312BC
:103F730013BE74021208A7E508A2E092AFEEFAEFAF
:103F8300FB0230D9125552851882851983AA82AB58
:103F9300832274F212037874FC120921EAFEEBFF08
:103FA300750AFE750BFF120D34E9600579110241A4
:103FB30018EE24151230E16037900CF7E0C4335447
:103FC300E0F8E0333354FC48C0E0EE24151230141B
:103FD300D0E01241331241298B09EA45096011757A
:103FE3000AFFEE240F1230E14404124CF6D2E0F043
:103FF3008E828F831229FD6006EE2412124120EE79
:1040030024131230E170109025F6E493C0E0EE24FF
:1040130013123014D0E0F08E828F83E0A2E75004B5
:104023005403801CEE24141230E17015900342E017
:10403300C0E0EE2414123014D0E0F0900342E00408
:10404300F0EE24111230E1640170169005B5E060C2
:104053000D90034DE0700A8E828F83E0700312414E
:104063001D8E828F83E064017013EE240B123E7B5E
:1040730064027009EE240F1230E14440F085188287
:10408300851983AC82AD83EEFAEFFB120D9A8A0891
:104093008B0974FE650A700374FFF470098E828FB6
:1040A30083A3A31254CDEA450960668E828F83E011
:1040B300C0E07401120AF3D0E0F07402120AF312A2
:1040C30055BB7401120AF385820C85830D780C129B
:1040D300085FEE240F123014120696EE240E1230EF
:1040E300E1F50C780C1208639003561206967407D8
:1040F300120AF3E0F9AC0AAD0B120D94740712081F
:10410300A7E9FE74106E700BAA08AB09121436806F
:10411300027E10EEF97404022A35EE2411F582EFC3
:10412300123E6CE4F022A31230CF79FF121CAC22B2
:1041330012413722F08E828F83A322C082C0837400
:10414300DE1209218A828B83A3A3A3A3123E777471
:104153000E120AF3E8F0A3E912420D740C120AF3EB
:10416300124206240DF582EB1230E4C0E0741A12F9
:104173000AF3D0E0F012541AEB123E747420120AC0
:10418300F31242062415F582EB1230E4C0E0740802
:10419300120AF3D0E0F0EA241CF582EB123E7474A9
:1041A30012120AF31242062411F582EB1230E4C014
:1041B300E07409120AF3D0E01241FA74FFF07401BB
:1041C300120AF374FFF07402120AF374FFF0908181
:1041D300A71206927404120AF3AC82AD8374071219
:1041E3000AF3AA82AB83120BE474041208A77900C2
:1041F30074221208A780251241FE22F085188285B9
:10420300198322E8F0A3E9F0EA22123C19A312422F
:104213001522A3E0F8A3E0F92212504CD083D082F8
:1042230002083F74EC12037874EE1209218A128B90
:1042330013ECFEEDFF89097426120AF31254CD74B0
:1042430028120AF3E0F5107429120AF31243417499
:104253002B120AF3E0F50EA3E0F50F7508107A1E92
:104263007B001214307402120AF3124C757402129A
:104273000AF3124C9D700302433A85188285198311
:10428300AA82AB837950124B5012504C7402120A1B
:10429300F312435FA3124C757410120AF3125CAA53
:1042A3007402120AF3E0240B12434C7402F0120A54
:1042B300F312435F7402F0120AF312570E1255BB46
:1042C3007402120AF3125061E509F07402120AF340
:1042D300E0240C12434CE510F07402120AF312436B
:1042E30049E512F0A3E513F07408120AF3E50CF0A4
:1042F300A3E50DF0740A120AF3E510F0850E82852A
:104303000F83C082C083740D120AF3AC82AD83D0D5
:1043130083D08274031207BBF97402120AF3AA82D0
:10432300AB83120D3AE964017005750800800874C7
:1043330002120AF3123E62A90874120254E4E0F571
:104343000CA3E0F50D22E0241C12435022F8A3E055
:10435300124357223400F98882898322125054A3CE
:10436300A3A3A3A32274EE120378EAFEEBFF8C0847
:104373008D098E828F83A37408124D31E060088EFD
:10438300828F83A37410F01230DE60098E828F83D4
:10439300A3E02408F0EE24151230E160088E828F2A
:1043A30083A3E004F08E828F83A3A3A3A3A3A3E03C
:1043B30060198E828F83A3A3A3A3A3A3A3E0C33314
:1043C3002402F88E828F83A3E028F0EE24111230AA
:1043D300E16005750B0E8003750B008E828F83A33E
:1043E300C082C083EE240D1230E1D083D082F8E086
:1043F30028250B8C828D83F0EE24111230E16005A9
:1044030012485C28F0850882850983E0C3947540CF
:104413000975080075090002454AE0FA7B00125647
:1044230069700302454AEEFAEFFB120DA0EA850814
:1044330082850983124C76EE2402F8EF12333E1282
:104443004644124586F0EE24040808EF12333E1268
:104453004A86A3124586A3A3F0EE241312456CF0FB
:10446300EE241412456CA3F0750A08EE24161230DC
:10447300E16010EE241812554BE508240812574C3E
:10448300750A101230DE6016EE241A12554B850A97
:104493000CE508250C12574C7408250AF50A8E8280
:1044A3008F83A3A3A3A3A3A3E06059EE2407F5106E
:1044B300EF3400F511851082F583E0C0E012455317
:1044C300123017D0E0124576E0C0E01245531230A7
:1044D30017D0E0124576A312455F12085B85108260
:1044E300851183E0C333FCE433FD850A0CE508251D
:1044F3000C1254C11208A7851082851183E0C333BF
:10450300250AF50AEE24151230E1600BC0E01245CE
:1045130053123017D0E0F012301112455F12085BCE
:10452300EE240D1230E1FC7D00850B0A8E828F8311
:10453300A3E0F8E50828F8E5093400F9E8250AFAC4
:10454300E91254C41208A7AA08AB097F0A0205910D
:10455300850A0CE508250CF582E50922E0F50CA394
:10456300E0F50D750E00780C22123E69124590A3FA
:10457300A3A322F0050A8E828F83A3A3A3A3A3A3DD
:10458300A3A322A3A31257B7A312459022124A8AC8
:10459300A3A32274F61203788A828B83E0FC900330
:1045A3005312463D74027808120A22EC4508FCAD0A
:1045B30009EA241212463774067808120A22EC45D7
:1045C30008FCED4509FDEA2415F582EB1230E460A1
:1045D30004780180027800E4C8F9ED49FDEA24116A
:1045E300F582EB1230E4F508880974097808120A99
:1045F30022ED4509FDEA2416124637740B7808129A
:104603000A22ED4509FDEA2417124637740C78088F
:10461300120A22ED4509FD8A828B83A3A3A3A3A3D8
:10462300A312463D740A7808120A22ECFAED4509F2
:10463300FB024CA6F582EB123E6CE0F5087509000F
:1046430022E085088285098322A3E0F98508828513
:1046530009832274EE1203788A0A8B0BECFEEDFFBA
:10466300750F01E9C39408500579000248498E8209
:104673008F83E9F0124AAFE96003750F00124A9382
:104683008E828F83124ADDEE12541BEF124AD2C080
:10469300E0EE2411123014D0E0124ACAC0E0EE2436
:1046A30012123014D0E012413374081254D5A3A36C
:1046B300A3E06015124A7BEE2413F582EF124CE55A
:1046C3008E828F83A3E02408F08E828F83A3A3A31B
:1046D300A3A3A3A3A3E060218E828F83A385820873
:1046E300858309124ABEEE2415F582EF124CE58547
:1046F3000882850983E02408F08E828F83A3A3A315
:10470300A3A3E0601A8E828F83A385820885830921
:10471300124AA28E828F83A3A3A3A3A312486EEE91
:104723002419124120EE241B124120A3124D29E02B
:1047330070030247DDEE2419F8EF3400F98E828FFF
:1047430083A3858208858309E0FAE50A2AF582E5D1
:104753000B1230E48882898312486EFAE50A2AF53F
:1047630082E50B1230E4C0E0EE241A123014D0E0DC
:1047730012486E88828983E06059F89025EFE493AC
:10478300C398500575110C8008EE24191230E1F519
:10479300118E828F83A3E0F8E50A28F50CE50B124E
:1047A300485212085BE511C333FCE433FD7A957B71
:1047B3000B12484C1208A7EE241B1230147495F008
:1047C300A3740BF0E511C333F8850882850983E0F0
:1047D300288006EE2418125986F08E828F83A3E078
:1047E300F88E828F83E0C398500302466CA3E0FAED
:1047F3008A08E50A2508F8E50B3400F9EE241DF5CF
:1048030082EF124DF112487EC39AC0E0EE241712D4
:104813003014D0E0124CEE602BEE2417F8EF340086
:10482300F9880889098882F583E024F2124DD2249D
:104833000EFAA3E03400FB88828983124C75124878
:104843005CC398F0A90F02454E12136A7403223415
:1048530000F50D750E00780C2290034EE0F9120B53
:1048630024E9F8850882850983E022F0850882859A
:104873000983E004F022A3A3A3A3A3F08E828F8372
:10488300E02274F41203788A088B09EA124913F0C0
:10489300EA1313543F12490CA3A3A3F0EAC413135E
:1048A300124913A3A3F0EB12490512491D740978A9
:1048B3000A120AA512490312491C740A780A120A39
:1048C300A5E50A5401C0E0EC2418F582ED12301777
:1048D300D0E0124922740B780A120AA5124903A3E5
:1048E30012491C740C780A120AA5124903A3A3A344
:1048F300A3A3A3A3A3F0740D7808120AA5022C4363
:10490300E50A54018C828D8322540F8C828D83227D
:1049130054038C828D83A3A322A3A3A3A3A3A3F0F5
:104923008A0A8B0B22C082C08379008A828B83A37D
:10493300A3A3A3A3A3E090034D600FE070228A8298
:104943008B83A3A3E07019098016E060138A828B1E
:1049530083125043900356E06A7003A3E06B70E741
:1049630002421F74F01203788A0A8B0B890C8C089D
:104973008D09124AAF124A93850882850983124A28
:10498300DDE50812541BE509124AD2C0E0E508240C
:1049930011F582E509123017D0E0124ACAC0E012BD
:1049A3003715123017D0E0124DF97408124E126009
:1049B30011124A7BE5082413124DED124DF9E02440
:1049C30008F0850882850983A3A3A3A3A3A3A3A3B4
:1049D300E06017850882850983A3124ABAE5082493
:1049E30015124DED12487E2408F08508828509834F
:1049F300A3A3A3A3A3E06019850882850983A3AEBB
:104A030082AF83124AA285088285098312487904FA
:104A1300F0AA08AB09120DB2E9F50D7056850882AC
:104A2300850983A3A3A3A3A3A3124A867014E0FA60
:104A33008A0EE50A250EF8E50B124CDAE50CC39A4B
:104A43008021124ABAE8240EF8E9124CDA90034E98
:104A5300E0F9120B248E828F83E0F8E50CC39824CF
:104A6300F2C399C0E0E5082417F582E5091230176F
:104A7300D0E0F0A90D02540AE50A2408F8E50B3446
:104A830000F922124A8A22E0850882850983A3223B
:104A9300850A82850B83A3A3124AF3E0F9EA22E095
:104AA300F8E50A28F582E50B124D01228A828B83F1
:104AB30012540F120DAC22AE82AF83E0F8E50A2840
:104AC300F8E50B3400F922124B06A3A3A3E022124C
:104AD3003E6CE8124AFFA3A3E022A3A3A3A3A3A3CC
:104AE300A3A3A3124AFF124AF3A3A3E0F9EAF8220D
:104AF300E0FA850A82850B83A3A3A322F0A3E9121C
:104B03004B0622F0850A82850B83A3A3A3A322C0AD
:104B130082C0837AC57B0379E2121BB67AC57B0315
:104B230002421FC082C08390035602421CC082C04F
:104B33008374FE120921851882851983AA82AB83A7
:104B4300794B124B5012504C74020241F5121BB6B2
:104B530085188285198322C082C083794A121BB6C5
:104B630002421F74F61203789003CDE0FE04F0EEC8
:104B7300F9120D648B09EA450970EDEE60EAF9025A
:104B83004CA674F0120378EAFEEBFF8C088D0989BA
:104B93000A7410120AF3E0F50B7411120AF3E0F52C
:104BA3000C120E84EA4B7013E50C7042A90AAC0890
:104BB300AD09EEFAEFFB120E9C806EE50A6021EA66
:104BC3002402F582EB1230E4850A082508F8E43460
:104BD3000013E813F070098A828B83A3A37401F096
:104BE300E50C6045E50B70068A828B83E4F0740163
:104BF300650C7035E50B9003D47004E4F0802AE073
:104C030004F0900CE4E0F89003D4E0C398401AE475
:104C1300F0900359E06E7003A3E06F700CEEFAEFAF
:104C2300FB7901120C08124C2F02540A7A017B0003
:104C33009003B0E0F91214F622C082C08374016AB3
:104C43007001EB70077A01124C668012900CDB1234
:104C53004C75EA4B60051229BF8003124C2F0242A8
:104C63001F7A207B009003B0E0F91213CA223400AC
:104C7300F583EAF0A3EBF022C082C083900CDD023F
:104C8300381FC082C083900CDF02381F12571D22C9
:104C9300EE240CF582EF3400F583124216E8492224
:104CA3001208A77F02020591A2F0E43385188285DA
:104CB3001983124CC77952121BBC22124CC779427A
:104CC300121BBC22F0AA82AB8322AA08AB09900371
:104CD300B0E0F91213A0223400F9E508241DF5828F
:104CE300E509123E6CE8F0A3E9F0221254D9A3A31C
:104CF300E022A3F0EE2415124CFE22F582EF3400DD
:104D0300F583E022124D0B223400F583E0F8A3E093
:104D1300F98882898322E0F8124D1F22A3E0F98EDD
:104D2300828F83A3A322F0EE2418123E6922F0EEB1
:104D33002416123E692274F4120378EAFEEBFF7A1A
:104D4300007B04124C33124DC8124CE89003657477
:104D530009F0120DBE8A088B09AC08AD09EE2413C5
:104D630012301412504C124F1C640170487A0F1207
:104D73004DBB60418A828B837402124DD2FAA3E049
:104D8300FB8A828B83A3E0FC8A828B83A3A3E0FB51
:104D9300EC850882850983A3A3124C7688828983D4
:104DA300125050124644124CF5FAA3E0FB794A1212
:104DB3001BBC124CCD0230D97B001213948A088B92
:104DC30009EA450922900336124216900CDF22F0BD
:104DD300EE241DF8EF124DDC22124357E022124D50
:104DE300E5223400F5837401F022F582E509123ED1
:104DF3006CE8F0A3E922124DFD22124E0122F08548
:104E03000882850983A322124E01A3A3A3A322121E
:104E13004E0AA3A3E022125223120E1222EE2417EB
:104E2300F582EF124DE5120DBEEE241A123E69EA29
:104E3300F0A3EBF02274F412037874F312092189BE
:104E430008EAFEEBFF7C0D7D007900851882851949
:104E530083AA82AB83121376EE241D1230141257E9
:104E63000EA3E0F8741F58600A7901121B8C7900B5
:104E7300024F13E8A2E55008740C120AF37401F010
:104E8300E8A2E75008740B120AF37401F0E8A2E6F3
:104E9300740A5008120AF37401F08008120AF3E04E
:104EA30064017005EE24138003EE241512554B7430
:104EB30002120AF3AA82AB83121BA4123011124FFF
:104EC30021124CE8740A120AF3E0640170331229C8
:104ED300F2703B120DCA8A0A8B0BA80AA90BEE24A7
:104EE3000B1230E1687003A3E0697022120DBEEA71
:104EF300FCEBFD7402120AF3AA82AB83124F1C600F
:104F03000D851882851983AA82AB83120C02A90826
:104F1300740D0230D6EEFAEFFB121B9EE922E0126B
:104F23004F2622F8A3E0F98518828519832274F6A7
:104F330012037874F31209218A088B09ECFEEDFF42
:104F43007C0D7D007900851882851983AA82AB8345
:104F53001258B3A3A3A3A3A3A3A3A3A3124FBB1248
:104F63004FC4F8A2E55008740B120AF37401F0E879
:104F7300A2E75008740A120AF37401F0E8A2E6EEFD
:104F8300500424138002241512554B7402120AF3A1
:104F9300124FADA3A3E0C0E0740C120AF3D0E012E9
:104FA300521B120BFC740D024CA3AA82AB83121B7F
:104FB300A485088285098322E0124F26E8F0A3E93D
:104FC30022F0123E66125712A3E02274F7120378FE
:104FD30074E1120921EAFEEBFF8E828F8312505097
:104FE300A3A3A3E0A2E050518E828F83122B528A97
:104FF300828B83A3A3A3A3A3A3E054FE1250688AC6
:10500300828B83125061E0F98A828B83E0241CFA3D
:10501300A3E0123A8212504C120DB8E9701B741DB2
:10502300120AF312505B7011851882851983AC82C2
:10503300AD83EEFAEFFB120E0002528D8E828F8348
:10504300A3A3A3A3A3A3A3A3A31230CF22125054B9
:1050530022125716A3A3A322123E9E640422E02425
:105063001B124350221241FEAC82AD8322E9F87930
:1050730000740468600A740A686005740368700148
:105083000902083F74F61203788A828B837420F036
:10509300A3A37401F0120BAE8A088B09AE08AF0903
:1050A300EE4F60108E828F837401F09003A3E07043
:1050B30003124E20EEFAEFFB024CA6C082C083908F
:1050C30003B97401F0E9A2E350037403F0E9A2E128
:1050D3005004E0D2E2F002421F74F6120378790022
:1050E3007C008A088B0978081205D7F8FF070F514F
:1050F3000D510D510D510D5106510A510F510351CF
:105103000C80097C0480050C80F67C089003B9E0D0
:105113005C6003098003EC600109024CA674F6127B
:1051230003788A828B83E07012A3124C9D600C8AF1
:10513300828B8312504B121CDC80047A007B0002AA
:105143004CA674F512037874F31209218A088B09AB
:10515300ECFEEDFF750A12EA45097005790002526B
:1051630014900356E065087004A3E06509701412F7
:105173000DBEEAFCEBFD124F187005750A018003A2
:10518300750A00851882851983E4F004120AF3E591
:1051930008F0A3E50912521B120B72E9602774038E
:1051A300120AF3AA82AB83120B54E96401701675D9
:1051B3000A017403120AF3AC82AD83124F18602103
:1051C300750A00801C7412650A70169003A2E064CD
:1051D30002700EEEFCEFFDAA08AB09120B8AE97010
:1051E300DFEEFCEFFDAA08AB09120E8AE9F8740A98
:1051F300687005750A01801774A0687012EEFCEFE1
:10520300FDAA08AB09120E96AA08AB09120EA8A9AB
:105213000A740D025C1B740212521F2212522322C3
:105223001241FEAA82AB832274F7120378EAFEEBE3
:10523300FF8E828F83A3A3A3A3A3A3A3A3E06015DD
:10524300EE24151230141230BF120E2AE9640170D5
:1052530004790180258E828F83A3A3A3A3A3A3A391
:10526300E06015EE241312301412527FFAA3E0FB10
:10527300120E2AE9640160D979008013123B6EA3F0
:10528300A3A3A3A3A3A3A3A3E022741F1208A77F2E
:105293000102059174F012037874FD1209218A0842
:1052A3008B09ECFEEDFF890B7413120AF3E0F50C86
:1052B300750A017401120AF374041257466048E533
:1052C3000C601DEA2417F582EB1259891257348AB0
:1052D300828B83E0D2E7F0EA2414F582EB124123B8
:1052E30012541AEB124D077403125CACEE888289D8
:1052F30083A3A3F0EF88828983A3A3123C18123CF3
:105303001F120BA8E9F50AA90A740302540774ECE7
:1053130012037874F51209218A0A8B0B890C8C0EFF
:105323008D0F741F120AF3E0F50D7420120AF3E0D7
:10533300F510A3E0F5117E01EE120AF3740AF0E909
:105343007007E50DC333240AF01254EC70030253C3
:10535300EE1255017409F0A3E50CC43354E0450D76
:10536300125513E50C702D7C008023ECC333F8E455
:1053730033F9E51028F8E51139F988828983125346
:10538300FB88828983123331F0A30EAF830CECC305
:10539300950D40D7E5082417F582E509124DE11272
:1053A3000DBEE508241AF582E509124C7174031247
:1053B3000AF3AC82AD83AA0AAB0B120B5AE960194C
:1053C300E5082416F582E5091253F5120AF3A882BB
:1053D300A983E5082418124CE18508828509831204
:1053E3005CA8AA08AB09120BA8E9FEEEF9740B023C
:1053F30054E4124DE5740322E08E828F83F0A3AE52
:1054030082AF83221208A77F08020591123EC6F9D4
:10541300EA2400E439FB22EA240BF5822274EE121B
:1054230003788A0C8B0D890E8C088D097412120A6D
:10543300F3E0F50F7413120AF31254CD90052412FE
:105443004C9D6077E50FC333F8E433F9E8240EFA93
:10545300E93400FB1213948A108B11AE10AF11EED6
:105463004F60588E828F8374D4F0A3A3E50CF0A30E
:10547300E50D1254D5E50EF0AC08AD09EE2405FA9E
:10548300EF12574FEE240D123014E50FF0850A0882
:10549300850B09750A00780812085BE50FC333FC16
:1054A300E433FDEE240EFAEF1254C41208A7EEFA09
:1054B300EFFB90052412570E121D7D02454EFAE5AF
:1054C300093400FB12136A740322E0F50AA3E0F522
:1054D3000B221254D9221254DD22124137A3A3A363
:1054E300221208A77F0C020591851882851983AAC9
:1054F30082AB83120E128A088B09EA450922EA2439
:105503000BF582EB124D01FEA3E0FF8E828F832207
:10551300F0A3AE82AF83AC0EAD0FEEFAEFFB1255E4
:105523002522121BA412552C22EE2408FEEF340070
:10553300FF22E0FA8E828F83A3A3E022FEA3E0344E
:1055430000FF8E828F83E022123E6912555222E0C1
:10555300FCA3E0FD221230CF120DA62274F6120333
:1055630078EAFEEBFF9003BA801388828983E06EAA
:105573007003A3E06F603A88828983A3A3124C9DD2
:1055830070E87A047B001214308A088B09A808A9F2
:1055930009E849601C888289831255BB9003BA12BB
:1055A300504C88828983A3A3124C759003BA124C82
:1055B300E8024CA68A828B83EEF0A3EFF02274F408
:1055C3001203787E009003BA80070E88828983A332
:1055D300A3124C9D70F4EEC333FAE433FB12566905
:1055E300607E7F009003BA80248882898312554E9F
:1055F300EFC333FAE433FBE5082AF582E5093BF50B
:1056030083ECF0A3EDF00F88828983A3A3124C9D52
:1056130070D79003AB122A2C7003A3E0697808704B
:105623001912085FEEF50A780A1208637C777D0386
:1056330079009003AB125674801A12085FEEF50AD4
:10564300780A1208637C777D0379009003AB1250CC
:105653004C120E3C74031208A7AA08AB09121436A5
:10566300120BC00230D91214308A088B09EA45099B
:10567300221230CF120E4222C082C08380128A824D
:105683008B83A3A3123E779003BA124CE81214360D
:105693009003BA123D8770E602421F74F612037834
:1056A300900363123EA39003CE1256FD124CE87A88
:1056B300CE7B037950121BBC9003CE122C4BFAEF16
:1056C300FB120EA29003CE123EA3900526124C9D10
:1056D30060257A067B00121394EA4B601A8A828B48
:1056E3008374D5F0A3A3E41257230412573490050F
:1056F3002612570E121D7D024CA612570122E0F806
:10570300A3E0F9900363228E828F83125712221231
:10571300571622E0F812571C22A3E0F58388822251
:105723001257272212572B22F08A828B83A3A3A31B
:1057330022125727A3EEF0A3EFF022F582EF124DCA
:1057430001F922124E19EA4B22FAE5093400FB1241
:105753001BA422124D20A3A3A3A3A3A3A32290259A
:10576300F1E4932401F8E43400F97A027B00227413
:10577300F71203787E008004125D5F0E1258834097
:10578300F77E00EE12579E74FEF0A3041257B3E4A3
:10579300F00EEEC3940340EB02529275F003A4F8AB
:1057A300A9F074BC28F8740339F988828983A32289
:1057B3001257B722F0888289832274F71203787F05
:1057C3000080010F9025F9E493F8EFC3985026EF7A
:1057D30012596F6A7003A3E06B70E8125D0C6C7072
:1057E30003A3E06D600A74FF6C700374FF6D70D3E4
:1057F30012587A80047A007B0002529274F61203E4
:10580300787CFF7DFF7AFE7BFF120E66EA4B7040C9
:105813007508008036E50875F017A4F8A9F0743010
:1058230028F582740A125981600C742F28F582744A
:105833000A1259817013742128FE740A39FF8E826B
:105843008F8312598EEEFAEFFB05081258E940C513
:10585300024CA674F41203788A088B09ECFEEDFF60
:10586300800B120E78EEFCEFFDAA08AB09120E6650
:10587300EA4B70EE0230D9742128FA740A39FB22FC
:105883009025F9E493F8EEC3982274F7120378EAAB
:10589300FEEBFFEE4F60101258AD74FEF0A304123E
:1058A3005CB214F0A304F00252927C177D007900DD
:1058B3001213768E828F832274F7120378EAFEEB3B
:1058C300FF7508008018E50875F017A4F8A9F01211
:1058D3005D177003A3E06F6003125D67050812583C
:1058E300E940E30252929025F9E493F8E508C3985E
:1058F3002274F6120378120E668A088B09A808A987
:1059030009E849600AE8240DFAE93400FB80047AC7
:10591300007B00024CA674F41203788A0A8B0BEC0A
:10592300FEEDFF750800750900802EE50975F01777
:10593300A4F8A9F0125D52601EE50912596F650AB9
:105943007004A3E0650B700375080AEEFCEFFD120B
:105953005C0E60034308A005099025F9E493F8E57C
:1059630009C3985004E50860C2022C4375F017A4DC
:10597300F8A9F012597A22742128F582740A39F5AC
:1059830083E022F582EF123E6CE4221230CF120C38
:105993009E221257B7A3A3A3A3A3A3A3A32274F284
:1059A3001203788A088B09ECFEEDFF740E120AF3DA
:1059B3001254CD750C007C007D01801012138EE50E
:1059C3000CF5F0EA84ACF0750C007D0078007900EA
:1059D3008003125B4B125BA74003025A6DE8FAE99E
:1059E300FBEA75F017A4FA85F00D75F017EBA42503
:1059F3000D125B837003A3E0F460D7125B6165084B
:105A03007004A3E0650960CA125B616E7003A3E0D2
:105A13006F60BF125B61650A7004A3E0650B60B23F
:105A2300E8FAE9FBEA75F017A4FA75F017EBA42579
:105A33000DFB742F2AF582740A125B425094740191
:105A43006D050C608DE50CC39C4087E875F017A4C9
:105A5300F8AAF075F017E9A42AF9742128F58274DD
:105A63000A39F58312504C025B3F780079008003BA
:105A7300125B4B125BB44003025B26E8FAE9FBEAD4
:105A830075F012A4FA85F00D125B9364FE7003A304
:105A9300E0F460DC125B8965087004A3E0650960CB
:105AA300CF125B896E7003A3E06F60C4125B8965DC
:105AB3000A7004A3E0650B60B7E8FAE9FBEA75F046
:105AC30012A4FA75F012EBA4250DFB74B02AF5822B
:105AD3007408125B425099E8FAE9FBEA75F012A4E4
:105AE300FA75F012EBA4250D125B5464016081E09A
:105AF30064027003025A7374016D050C7003025A39
:105B030073E50CC39C5003025A73E875F012A4F8B2
:105B1300AAF075F012E9A42AF974A728F58274088B
:105B2300025A64E50C6011EC700E7401650C60039D
