:020000040000FA
:06000000020A8A0201CD94
:03002B000208C503
:030033000206E1E1
:0300430002077A37
:030053000200FEAA
:03006B000206C7C3
:100083000201620101FF01010503010F10FEFF1AC6
:10009300131A131A131A13D011CA111A13DB2600D9
:1000A3000000003D27000000000C0000000C0001D0
:1000B3000000E814000000000000A8150000000084
:1000C300000000000000FFFF0102005E05000000C9
:1000D300D1056400020200080000050207051E02A4
:1000E300051E020A0A03B80B02803E0102F1FF1447
:1000F3001F00E00796511800020206C0E074F212D6
:1001030003E6A2AFE433FED2AFE5A7FFE5A1F5080E
:100113005F54106006121CE075A1EFE5085F5408F8
:100123006008121CE675A1F7802BEFA2E0C0D0E5B2
:1001330008A2E092F01209C7158182F0501790616E
:1001430098E0F89008AEE0C398A2D265D03350028D
:10015300E8F075A1FEEEA2E092AF7F01020445C074
:10016300E074F21203E6A2AFE433FED2AF9061A4CF
:10017300E0F8759B00E59158540860087591F712F3
:100183001D2E802AE59158541060087591EF121DB9
:1001930034801BE8A2E0C0D0E591A2E092F01209FE
:1001A300C7158182F05007E0C2E0F0121E7890611B
:1001B300A3E0F8E5E9585404600E121E4E75E9FBFE
:1001C300906193E0A2E640F2808BC0E074F21203E8
:1001D300E6A2AFE433FED2AF9061A5E0F8E5BF58E5
:1001E3005404600675BFFB121E90020158C3E498C5
:1001F300F8E499F91202318026C3E49AFAE49BFBEE
:10020300E920E7E9120231E498F8E499F922C3E41A
:1002130098F8E499F9120231E498F8E499F9C3E4FF
:100223009AFAE49BFB22EB20E7CFE920E7E0B90051
:1002330010BB0008E88AF084F8AAF022E4FBC8FAAD
:1002430022EB70227B10C833C8C933C9335007C3AC
:100253009AC3DBF280069A50012ADBEAC833F4C85A
:10026300C933F4C9FA2275F008E4C833C8C933C9DD
:1002730033C99AC99B5004C92AC93BD5F0ECFBC8C2
:1002830033F4C8E4C9FA22080808EAC0E0EBC0E086
:1002930086F0E7A4FA180986F0E7A42AFA18098673
:1002A300F0E7A42AFA180986F0E7A42AFA1986F0D7
:1002B300E7A4FBE5F02AFA190886F0E7A42BFBE58F
:1002C300F03AFA190886F0E7A42BFBE5F03AFA189E
:1002D300180986F0E7A4C5F02BFBE43AFA1908E7FE
:1002E300C5F0C6A426F6E5F03BFBE43AFA1886F01F
:1002F300E7A4F6E5F00826F6E43B08F6E43A08F648
:10030300D0E0FBD0E0FA22E4CFC0E0E4CEC0E0E4EA
:10031300CDC0E0E4CCC0E075F020C3E633F608E6D8
:1003230033F608E633F608E633F6181818EC33FC10
:10033300ED33FDEE33FEEF33FFC3EC9709ED970981
:10034300EE9709EF97191919400FFFEC97FC09ED88
:1003530097FD09EE97FE191906D5F0BEECF709EDE6
:10036300F709EEF709EFF7191919D0E0FCD0E0FD12
:10037300D0E0FED0E0FF222518C582C0E0E51934A5
:10038300FFC583C0E0E518C3958224F810AF088544
:1003930083198582188008858319858218D2AFCE88
:1003A300F0A3E520F0A37808E608F0A3DEFAEFF067
:1003B300A3E58124FAF8E608F0A3E608F0A3E6082B
:1003C300F0A30808E608F0A3E608F0A31581158159
:1003D300D0E0FED0E0F8158115811581E8C0E0EE8C
:1003E300C0E022C0D02518C582C0E0E51934FFC59E
:1003F30083C0E0E518C3958224F310AF0885831901
:100403008582188008858319858218D2AFC8F0A326
:10041300E9F0A3EAF0A3EBF0A37908E709F0A3D886
:10042300FAECF0A3EDF0A3EEF0A3EFF0A3D0E0F02D
:10043300A3D0E0F0A3D0E0F0A3E520F0A3E5F0F033
:10044300A322851983851882E0C0E0A3E0F9A3E025
:10045300FAA3E0FBA37808E0F608A3DFFAE0FCA325
:10046300E0FDA3E0FEA3E0FFA3E0C0E0A3E0C0E063
:10047300A3E0F5D0A3E0F520A3E0A3F5F010AF08C7
:100483008583198582188008858319858218D2AFE0
:10049300D082D083D0E0F8D0E032120AECB9000366
:1004A3000204DFE49003017875790C8002F0A3D88D
:1004B300FCD9FA900E75AA82AB839000867879797D
:1004C300018015E493A3AC82AD838A828B83F0A36E
:1004D300AA82AB838C828D83D8E9D9E77582CA75EA
:1004E3008392740412083D75823C75832174001253
:1004F300083D0E000975F0108E1A8F1B85821F852B
:10050300831E851882851983E0CEA3E0CF851F82E1
:10051300851E83EBC9EAC8EDCBECCAC3E833C8E94F
:1005230033C9EA33CAEB33CBC3EA9EF51DEB9FF520
:100533001CB35004AB1CAA1DEC33CCED33CDD5F06A
:10054300DAAE1AAF1B22D083D082ECC0E0EDC0E05C
:10055300E493A3FCE493A3FDED4C600D120621ECA0
:1005630024FFFCED34FFFD80EFE493A3FCE493A3AD
:10057300FDED4C600D120725EC24FFFCED34FFFD6F
:1005830080EFD0E0FDD0E0FCE493A3C0E0E493C0AF
:10059300E022851983851882E0A3FEE0A3F5207885
:1005A30008E0A3F608DFFAE0A3FFE0A3C0E0E0A3BE
:1005B300C0E0E0A3C0E0E0A3C0E0E0A3C0E010AF70
:1005C300088582188583198008858218858319D246
:1005D300AFD083D082020843D083D082E9C0E0E465
:1005E30093A3C386F0C5F095F0F908E493A386F0CE
:1005F300C5F095F0700BE493A3C3994005E904801B
:1006030002A3E475F002A42582F582E5F03583F5B3
:1006130083D0E0F9E493A3C0E0E493C0E022C0E018
:10062300C3E49396087401939618400FE49366709D
:100633000808740193661870007019A3A3C3E493A8
:1006430096087401939618A3A3400DD0E0D0E0D090
:10065300E0020585A3A3A3A3A3A3D0E022D083D064
:1006630082C5F0E493A3C5F0C395F0F5F0E493A33A
:10067300C395F04005E5F0048001E475F002A4257C
:1006830082F582E5F03583F583E493A3C0E0E49338
:10069300C0E0227404800474028000CCC0E0EDC08A
:1006A300E0E518C39CCCAD1950011D10AF068C18A2
:1006B3008D1980068C188D19D2AF1207BFD0E0FDBB
:1006C300D0E0FC22C0E074F21203E6E589A2E15017
:1006D30003121B96758900C2C57F01020445C0E061
:1006E30074F21203E6E58BA2E05003121B96758B9E
:1006F30000C2E880E474028000CCC0E0EDC0E0E515
:1007030018C39CCCAD1950011D10AF068C188D1960
:1007130080068C188D19D2AF12079DD0E0FDD0E072
:10072300FC22C0E0C0F088F0E4936670080874010E
:100733009366187000A8F0A3A3700BD0F0D0E0D09C
:10074300E0D0E0020585A3A3D0F0D0E022D083D08F
:1007530082CCC0E0E493A3600612081E1470FAE48E
:1007630093A3600612090F1470FAD0E0FCE493A37C
:10077300C0E0E493C0E022C0E074F21203E6A2AF4B
:10078300E433FED2AFC2C0E5D1A2E45003121C563B
:10079300EEA2E092AF7F01020445CAC0E0E493A356
:1007A300C582CCC582C583CDC583F0A3C582CCC524
:1007B30082C583CDC583DAE5D0E0CA22CAC0E0E0B2
:1007C300A3C582CCC582C583CDC583F0A3C582CC26
:1007D300C582C583CDC583DAE6D0E0CA2270090895
:1007E3000808226016181818C6C333C608C633C6CD
:1007F30008C633C608C633C6D5E0EA22C008C3E03C
:1008030096F50808A3E096420808A3E09642080874
:10081300A3E09645087001D3D00822C0E0E493A377
:10082300D39C5010E493A3C39C400AD0E0D0E0D003
:10083300E002076DA3A3A3D0E022C09FF59FE4735A
:10084300D09F22D083D082C09FE493C0E0740193F1
:10085300C0E0740293F59F227404800A7403800637
:10086300740280027401C0E0F404120876D0E0122E
:100873000AC7222518F58210AF08F518400215198A
:100883008008F51840021519D2AF85198322BB01E0
:1008930002E722C082C08389828A83BB0003E0808F
:1008A30002E493D083D08222C0D0251810AF08F57C
:1008B30018500205198008F51850020519D2AFD057
:1008C300D022C0E0C0D0E8C0E0E5A8D2AFC2C7A242
:1008D300E792AFD0E0F8D0D0D0E032601608080835
:1008E300C6C313C618C613C618C613C618C613C67E
:1008F300D5E0EA22C3E0C696F608A3E0C696F6085A
:10090300A3E0C696F608A3E0C696F622C0E0E493F9
:10091300A36C7009D0E0D0E0D0E002076DA3A3D0B0
:10092300E022251810AF08F518400215198008F5C4
:100933001840021519D2AF22E76670100809E7665E
:10094300700A0809E76670040809E76622E0667022
:100953001008A3E066700A08A3E066700408A3E029
:100963006622C3E09608A3E09608A3E09608A3E0F6
:1009730096A2D265D03322C3E096F008A3E096F0A6
:1009830008A3E096F008A3E096F022E026F008A37F
:10099300E036F008A3E036F008A3E036F022E627BD
:1009A300F60809E637F60809E637F60809E637F6E2
:1009B30022E026F608A3E036F608A3E036F608A3FD
:1009C300E036F622C0E0E8C0E0E58124FCF8E6A2C8
:1009D300E7D0E0F8D0E022E647F60809E647F60854
:1009E30009E647F60809E647F622E657F60809E658
:1009F30057F60809E657F60809E657F622E056F6D1
:100A030008A3E056F608A3E056F608A3E056F6223C
:100A1300E056F008A3E056F008A3E056F008A3E080
:100A230056F022700422600D18C6C333C608C633BD
:100A3300C6D5E0F41822E4C396F608E496F608E473
:100A430096F608E496F622600D08C6A2E713C618C8
:100A5300C613C6D5E0F322C6F4C608C6F4C608C654
:100A6300F4C608C6F4C622C3E7960809E796080940
:100A7300E7960809E79622C3E09608A3E09608A341
:100A8300E09608A3E0962275D000758140751801A1
:100A93007519030002049DE0F608A3E0F608A3E03D
:100AA300F608A3E0F622600C08C6C313C618C613E3
:100AB300C6D5E0F422E6F008A3E6F008A3E6F008C2
:100AC300A3E6F022CAC0E0E6F0A308DAFAD0E0FA1F
:100AD30022E0FAA3E0FBA3E0FCA3E0FD22EAF0A3FB
:100AE300EBF0A3ECF0A3EDF022E5C754F84401F5D5
:100AF300C77901222518F582E43519F58322C2AF9F
:100B030075D69F020000221208460CE40212084622
:100B1300AFE402120846F6E50212084614E6021292
:100B230008465B2A001208466D2A00120846BF2AAF
:100B330000120846202B00120846AA2B0012084672
:100B43004E2C00120846A22C00120846BB2C0012A1
:100B53000846E12C001208461C2D00120846602DA1
:100B630000120846872D00120846D82D00120846A9
:100B7300882E00120846402F001208460830001243
:100B83000846C830001208460C31001208463131BD
:100B930000120846743100120846C131001208469B
:100BA3001933001208469F3300120846BD33001262
:100BB3000846E73300120846013400120846103491
:100BC300001208461B3400120846DB3400120846A4
:100BD300343500120846F63500120846FE35001279
:100BE3000846C236001208462E3700120846593806
:100BF300001208467E3800120846F43800120846F0
:100C0300863900120846DE39001208469E3A001261
:100C13000846BD3A00120846CC3B00120846DE3BAC
:100C2300001208464D3C00120846A23D0012084639
:100C3300D43D00120846673E00120846A03E00124B
:100C43000846EC3E0012084608400012084651428E
:100C5300001208465C42001208466742001208462A
:100C63007242001208467C42001208468742001274
:100C73000846A14200120846AB4200120846B5429C
:100C830000120846C04200120846E8420012084615
:100C93004343001208464D430012084671430012B5
:100CA3000846954300120846F343001208463744AA
:100CB30000120846534400120846CA44001208466C
:100CC3000245001208464E4500120846AB45001285
:100CD3000846654600120846494800120846A248DD
:100CE30000120846D24900120846F8490012084685
:100CF300814B00120846FD4E00120846CF500012E9
:100D03000846985200120846455300120846B0544C
:100D1300001208464F550012084694550012084623
:100D2300FE55001208460D5600120846945800124C
:100D33000846465A00120846B35A00120846925B08
:100D430000120846AB5C00120846285E00120846F3
:100D5300475E001208469C5E00120846A15F00121F
:100D63000846C95F00120846216000120846006168
:100D7300001208464461001208468F6100120846BB
:100D8300FA61001208463B63001208469F63001293
:100D93000846ED64001208464D67001208467E6758
:100DA300001208463669001208468B69001208468D
:100DB3008F6A001208462C6B00120846856B0012DE
:100DC3000846386C00120846DA6C001208467A6D41
:100DD300001208461F6E00120846D8810112084609
:100DE3001782011208465E8401120846A884011284
:100DF3000846C385011208462B8601120846608601
:100E030001120846D48701120846578A0112084680
:100E1300808B01120846168C011208461E9501129A
:100E23000846B395011208469A98011208468D990F
:100E330001120846FB9901120846419B011208461C
:100E4300239C01120846089E0112084619A00112AC
:100E5300084683A00112084655A10112084683A142
:100E63000112084640A20112084617A301120846C0
:100E7300DEA30112084682A401120846ABA40112A4
:100E83000846CDA40112084623A701120846FBA772
:100E9300011208463FA801120846A7A801120846F6
:100EA3005FA90112084691A901120846D5A90112AA
:100EB30008460BAA0112084657AA01120846ACAA13
:100EC30001120846B1AA0112084604AB01120846F2
:100ED30029AB0112084638AC011208469CAC01123A
:100EE30008460CAD0112084698AD0112084665B0DC
:100EF3000112084649B101120846CCB20112084654
:100F030002B501120846B0B50112084660B60112D7
:100F13000846A1B80112084644B9011208468BB924
:100F23000112084637BB011208464BBB01120846A3
:100F330055BB011208467DBB0112084689BB01124D
:100F43000846A8BB01120846C8BD0112084617BFD0
:100F5300011208465BBF0112084603C0011208468E
:100F6300E6C00112084691C101120846DDC2011212
:100F73000846DBC30112084681C40112084611C5A5
:100F83000112084628C5011208465FC5011208462A
:100F930069C50112084674C50112084692C50112BB
:100FA3000846D6C50112084633C60112084658C67C
:100FB3000112084672C601120846FEC6011208460F
:100FC3001BC80112084688C8011208466FC90112DE
:100FD300084696C9011208460ACA0112084685CA7C
:100FE3000112084689CB011208467FCC011208463C
:100FF3002ECD0112084641CE01120846DDCE011264
:1010030008466ACF0112084648D00112084680D02C
:1010130001120846D8D001120846A1D10112084690
:10102300C2D10112084649D2011208466DD20112FB
:1010330008468FD201120846D8D201120846EED4D0
:1010430001120846D5D50112084686D60112084674
:10105300BCD8011208460CD9011208464CD901121A
:1010630008468ED901120846EAD90112084618DA51
:10107300011208463CDA011208468FDA01120846CB
:10108300BDDA01120846F6DA011208464BDB0112FB
:101093000846B1DB0112084605DD0112084628DFC8
:1010A3000112084695DF01120846BEDF0112084609
:1010B30049E001120846B0E001120846FBE00112C4
:1010C30008461FE10112084643E1011208469EE16A
:1010D30001120846B9E10112084672E201120846FC
:1010E3009AA704120846D9A7041208467880021268
:1010F3000846BE80021208469E8102120846A0825C
:1011030002120846A383021208462F8502120846DC
:101113008D85021208464A86021208466887021223
:101123000846D987021208461588021208466388C2
:10113300021208466D8802120846B1880212084658
:101143000D8902120846A88902120846258A02124E
:101153000846F48A021208468D8B02120846AD8BAC
:1011630002120846E38B02120846148C0212084648
:10117300D58C02120846E58C02120846398D0212FC
:101183000846548D02120846668D021208466F8D7A
:1011930002120846C98D02120846258E021208461D
:1011A300718E021208468C8E02120846BD8E021200
:1011B3000846DA8E02120846E68E021208465A9054
:1011C30002120846739002120846DA900212084689
:1011D300ED9002120846FB9002120846AF910212EC
:1011E30008469392021208469993021208462394E2
:1011F300021208462D94021208469A9402120846D7
:10120300B19402120846E394021208461C95021296
:101213000846469502120846A79502120846C79546
:1012230002120846E595021208462B96021208465A
:101233005197021208469E9702120846CD97021252
:1012430008464398021208466B9802120846A4986F
:1012530002120846B298021208460A990212084678
:10126300599902120846989902120846C89902121F
:101273000846F49902120846FF99021208461D9A7D
:1012830002120846DF9A02120846E99A0212084639
:10129300249B021208463A9B021208468F9B0212B5
:1012A3000846A39B02120846B19C02120846C49C3E
:1012B30002120846D99C021208467B9D0212084678
:1012C300FE9D02120846BC9E02120846C79E0212E9
:1012D3000846F39F021208460FA00212084661A0B7
:1012E30002120846A0A002120846B5A00212084640
:1012F30017A102120846A6A102120846F1A1021282
:10130300084642A402120846C0A40212084635A5A4
:101313000212084657A7021208466FA70212084690
:1013230072A7021208467EA70212084692A702126B
:1013330008469AA702120846CDA7021208467DA8BE
:1013430002120846F3A80212084666A902120846CA
:101353001AAA02120846CFAA02120846EEAA0212DD
:1013630008468EAB021208469AAB02120846C5AB7A
:1013730002120846C8AB0212084632AC02120846F3
:101383005AAD0212084632AE02120846BDAE021230
:101393000846D6AF0212084693B002120846CCB0F4
:1013A30002120846FDB002120846BBB102120846FB
:1013B300EBB102120846C6B2021208465FB302122C
:1013C3000846EAB3021208469BB4021208461EB549
:1013D3000212084650B50212084691B50212084699
:1013E300B9B5031208461EB6031208465BB60312CC
:1013F3000846AAB603120846C0B803120846A3BAA1
:10140300031208460DBE0312084648BE03120846DF
:101413006ABE03120846CDBE0312084601BF03127B
:10142300084624BF0312084651BF03120846ADBF46
:1014330003120846A39F0312084621A0031208467D
:1014430057A003120846C3A00312084636A203128C
:10145300084652A20312084697A20312084625A380
:10146300031208467EA303120846ABA403120846E0
:10147300BDA5031208461AA60312084686A6031240
:101483000846E7A60312084628A703120846D5A76D
:1014930003120846E7A80312084612A903120846D6
:1014A3005DA903120846A4A90312084636AA03122B
:1014B3000846F1AA03120846739D04120846849D48
:1014C30004120846D59D041208461A9E04120846C3
:1014D300C49E04120846A9A4041208464F9A041293
:1014E3000846A79B0412084668AB031208460DACD6
:1014F300031208462DAC031208464DAC03120846EE
:1015030061AC03120846B9AC03120846E9AC0312F6
:1015130008466AAE0312084610AF03120846F2AF3C
:101523000312084643B00312084686B00312084666
:10153300C9B0031208462FB10312084650B1031273
:101543000846DCB1031208460DB20312084681B205
:10155300031208462FB40312084609B503120846BE
:101563004BB503120846A5B50312084671DA0212F9
:101573000846E796041208461D9804120846479841
:1015830004120846F69B04120846829C041208467D
:101593008C9C04120846AD9C04120846529D04120A
:1015A3000846669303120846699303120846239478
:1015B300031208464E9403120846959403120846F4
:1015C300BA9403120846DB9403120846BFE20212E0
:1015D3000846489503120846719603120846A896D2
:1015E30003120846C8960312084663970312084677
:1015F3002898031208465F9803120846D4990312E9
:101603000846779A03120846709B03120846999B73
:1016130003120846ED9B03120846B39C03120846C7
:10162300E19C03120846769E03120846F79E0312B6
:1016330008462A9F03120846F9BF0312084603C04F
:10164300031208464FC003120846BDC003120846E2
:10165300DEC003120846F5C003120846A5C10312F3
:10166300084639C40312084642C40312084695C407
:1016730003120846BEC40312084625C503120846D2
:10168300B6C503120846F8C50312084642C603123C
:101693000846A1C603120846CDC6031208465EC714
:1016A300031208469DC703120846DCC70312084607
:1016B30011C80312084623C80312084635C803128B
:1016C300084654C8031208465DC80312084613C9E6
:1016D3000312084653C903120846AEEF0312084625
:1016E30081F0031208469BF003120846ACF0031284
:1016F3000846C1F203120846E0F203120846989026
:1017030004120846CE9004120846179104120846A4
:101713006792041208463BE6021208467AE7021271
:101723000846B6E70212084675E9021208469EE922
:101733000212084631EC0212084675EC0212084602
:10174300FEED0212084696EE02120846FEEE021263
:1017530008469FEF02120846E1EF0212084621F005
:1017630002120846ACF1021208461CF302120846A4
:1017730041F5021208466FF50212084696F5021269
:1017830008469FF502120846FAF5021208468DF63E
:1017930002120846ABF9021208462CFA0212084656
:1017A300ACA804120846C2A804120846FDA60412F7
:1017B3000846808304120846938304120846308443
:1017C300041208466B8404120846868404120846F1
:1017D300AB8404120846F0840412084621850412DF
:1017E3000846528504120846D886041208463CA0CF
:1017F3000412084672A0041208468EA0041208467A
:10180300D0A004120846E0A00412084675A10412F1
:1018130008467FA104120846C97C001208468E7D43
:10182300001208463B7E00120846517E001208460D
:10183300267F001208466B6E00120846C36E001224
:101843000846AC6F001208464570001208468F70B8
:1018530000120846EC700012084645710012084653
:101863005971001208468B710012084689720012E2
:101873000846ED72001208460873001208465773B3
:10188300001208466D73001208467A730012084668
:10189300AE7300120846C77300120846587400124C
:1018A3000846677400120846EF740012084649752B
:1018B30000120846977500120846B97500120846CB
:1018C300307800120846657800120846F578001251
:1018D30008466A79001208466F7900120846AB7908
:1018E30000120846017A00120846C57A001208461B
:1018F300EA7A00120846F47A00120846F77A0012D0
:101903000846807B001208469B7B00120846AE7B8C
:1019130000120846DA7B00120846157C00120846BE
:10192300187C00120846237C001208465F7C0012D4
:101933000846727C00120846997C001208464DA79F
:101943000412084665A704120846B8D203120846D3
:1019530007D303120846A9D40312084667D6031215
:101963000846AFD603120846D1D70312084602D958
:101973000312084624D90312084680D903120846E5
:1019830002DA03120846ACE201120846CDE2011264
:10199300084657E301120846DCE30112084658E4FF
:1019A30001120846C1E4011208460DE5011208467A
:1019B3008CE5011208461EE601120846AAE601124A
:1019C3000846ECE60112084658EB01120846D8EC2B
:1019D3000112084617ED01120846FEED01120846F2
:1019E30001EE01120846B5EE01120846EAEF0112B4
:1019F3000846D5F10112084655F4011208460EF5C2
:101A0300011208462BF60112084682F90112084614
:101A130092F901120846F3FA011208467FFB0112FC
:101A23000846B3FC01120846A4FD0112084626FE2F
:101A330001120846008003120846BA8003120846C2
:101A43002C81031208463B8103120846B581031219
:101A530008462482031208462B8303120846548344
:101A630003120846F483031208464284031208460D
:101A7300B284031208466B87031208464288031296
:101A83000846AF88031208462C8A03120846E08AE8
:101A9300031208468E8B03120846E98B031208468D
:101AA300548C03120846548D031208462E8F0312DA
:101AB3000846419003120846DA90031208464C91F7
:101AC3000312084612920312084614F8031208463A
:101AD30068F803120846C0F8031208460BF903120C
:101AE30008466DF903120846D9F9031208468CFA21
:101AF30003120846CDFA03120846E3FA0312084616
:101B03003FFB031208467DFB03120846428E041274
:101B13000846738E041208462D8F04120846938FCD
:101B2300041208460490041208465293041208460D
:101B33009CA504120846ADA5041208464DA604123E
:101B43000846979804120846A59804120846EAA87E
:101B53000412084667A60412084677A6041208462C
:101B630092A604120846F3A604120846A7A3041279
:101B730008462CA40412084690A40412084695A211
:101B830004120846B7A20412084621A30412084609
:101B93002CA30412084670A30412084636DA031273
:101BA300084644DA0312084685DA03120846A6DA21
:101BB3000312084623DB0312084623DC03120846FC
:101BC30045DC03120846B1DC03120846CCDC0312E1
:101BD3000846E7DC03120846F1DC03120846FBDC87
:101BE300031208460EDD0312084627DD03120846DA
:101BF300C3DD031208467FDE03120846F6DE031236
:101C0300084670DF03120846D6DF03120846AEFB10
:101C130003120846BCFB0312084636FC03120846AF
:101C23001AFD03120846D3FE031208468AA80412BB
:101C3300084689FA02120846F6FA02120846B7FB6A
:101C43000212084627FC0212084630FD021208461B
:101C5300A8FE021208460CFF0212084661FF021298
:101C630008466AFF0212084679FF021208468CFFF3
:101C730002120846A2FF02120846ABFF02120846F0
:101C83003DE60312084692E6031208468EE8031265
:101C93000846C0E803120846E2E803120846FBE8D8
:101CA3000312084614E9031208461EEA0312084603
:101CB300B9EA03120846DB9E04120846FF9E04128B
:101CC3000846189F041208464B9F041208467C9F3F
:101CD30004120846AA9F041208460CA004120846E0
:101CE3001BA00412084625A00412084632A00412C1
:101CF3000846EF86041208461587041208465287E1
:101D030004120846618704120846808704120846B5
:101D1300E88704120846F187041208465088041223
:101D23000846748804120846338904120846408919
:101D330004120846518904120846BEFF02120846DF
:101D4300DBFF0212084630EB031208468EEC031247
:101D530008469BEC03120846AEEC03120846CDEC92
:101D630003120846E3EC03120846F7EC0312084695
:101D73006CED03120846D1ED0312084681EE0312FF
:101D8300084656EF0312084666EF0312084675EF3E
:101D9300031208463FFF0312084663FF0312084677
:101DA3008BFF03120846B3FF031208467F89041210
:101DB3000846A68904120846C789041208462C8AD5
:101DC30004120846E58B04120846FE8B04120846EB
:101DD3000A8C041208461E8C041208463C8C04121A
:101DE3000846468C04120846508C04120846638C3D
:101DF30004120846B68C04120846EF8C04120846F7
:101E03001E8D041208466C8D04120846BB8D041205
:101E13000846D68D04120846E08D04120846F18D5B
:101E230004120846378E04120846A17F00120846A2
:101E33007CC903120846A6C903120846C2C9031285
:101E43000846D5C903120846EBC90312084648CA17
:101E5300031208467BCA03120846B7CE031208468C
:101E6300DDCF0312084610D0031208465CD00312DC
:101E7300084688D103120846B0D103120846C5D1DB
:101E830003120846D5D10312084619D20312084695
:101E93007AD2031208468AD203120846BEFE011202
:101EA3000846D9FE0112084602FF011208461CFF2C
:101EB3000112084641FF0112084660FF011208465D
:101EC30078FF01120846A6FF01120846C0FF01125F
:101ED3000846E3A704120846008004120846078058
:101EE300041208461381041208464381041208466B
:101EF3006981041208468C8104120846AE810412DB
:101F03000846E881041208464E8204120846878276
:101F130004120846D38204120846008304120846BA
:101F2300208304120846DE9404120846F694041231
:101F33000846E49504120846C3960412084682A193
:101F430004120846F4A10412084632A204120846F9
:101F530073A20412084639F40312084658F4031214
:101F63000846A7F403120846C3F403120846F4F420
:101F73000312084604F50312084611F50312084636
:101F83001EF5031208460AF60312084648F6031222
:101F9300084652F60312084662F7031208466DF725
:101FA300031208467FF70312084688F70312084610
:101FB30092F70312084680E103120846C5E50312AF
:101FC3000846D3E5031208465DA80412084627A86D
:101FD30004120846D8FF03120846CCA80412084688
:101FE300D3D7021208469CD602120846F0D5021235
:101FF300084636D402120846E6D1021208466DD1CD
:102003000212084614D102120846A4D0021208464E
:102013007BD0021208465BCE0212084627CE02127C
:102023000846F4CD02120846D8CD02120846F1CC78
:1020330002120846A9CC02120846F4CA0212084644
:1020430074CA0212084671CA021208466EC9021205
:1020530008463CC90212084679C802120846A4C6BB
:10206300021208466AE00212084688DF0212084696
:102073006CDF021208460CDF02120846C4DE0212AD
:10208300084635C60212084607C60212084604C6A9
:1020930002120846F1C50212084612DE0212084671
:1020A3009CC5021208468BC5021208467DC4021263
:1020B300084647C40212084684DD021208460F95FB
:1020C30003120846F5C30212084696C302120846D5
:1020D30065C3021208462DC002120846EDBF021264
:1020E3000846E1BF0212084641BF0212084681BEFC
:1020F3000212084603BC0212084694B902120846AB
:1021030052B90212084626B802120846DBB7021279
:1021130008461AB702120846EDB60212084630B650
:1021230002120846C6B50212084600B60212084655
:1021330077DD02120846C6960400000080FBE473B4
:10214300000000000000000000000000000000008C
:102153001010101010100000303000000014285030
:10216300000000000000000000000000002828FC20
:10217300284850FC505000000000103854543018C8
:1021830014545438100000000044A8A8B0541A2A6C
:102193002A44000000000020505060ACA898927CB4
:1021A300000000606020C00000000000000000008C
:1021B3000004080810101010101008080400000094
:1021C3004020100804081020400000000000001008
:1021D30010D63838D6101000000000000010101080
:1021E300FE101010000000000000000000000000BE
:1021F3000000606020C0000000000000FC00000040
:10220300000000000000000000000000000060600B
:1022130000000002040404080810102020204000DD
:102223000000003048848484848448300000000027
:102233000010701010101010107C00000000003807
:10224300444404081020447C000000000038444447
:1022530018040444443800000000080818284848BB
:10226300887C081C00000000007C40407844044443
:10227300443800000000003C4480B8C4848484785F
:1022830000000000007C44480810101010100000EB
:1022930000000078848448788484847800000000F7
:1022A30000788484848C740488F0000000000000AB
:1022B300003030000000303000000000000000005B
:1022C300100000000010102000000408102040201F
:1022D3001008040000000000000000FC0000FC00E7
:1022E30000000000000040201008040810204000F7
:1022F300000000007884848408101000303000004F
:1023030000000038449AAAAAAAB4423C0000000084
:10231300001010282828384444EE0000000000F87C
:1023230044447844444444F800000000003C44849E
:102333008080808044380000000000F0484444441A
:10234300444448F00000000000FC44404878484002
:1023530044FC0000000000FC42404878484040E054
:1023630000000000003C448480808E8444380000D8
:10237300000000EE4444447C444444EE000000006A
:10238300007C101010101010107C00000000007C66
:10239300101010101010101090E0000000EE4448D0
:1023A3005070484844EE0000000000E040404040C8
:1023B300404044FC0000000000EE6C6C6C5454542C
:1023C30054D60000000000EE64645454544C4CE4B2
:1023D3000000000000304884848484844830000076
:1023E300000000F844444478404040E0000000000E
:1023F30000304884848484B448380C00000000F81A
:1024030044447850484844E600000000003C4440FF
:102413002018040444780000000000FE92101010FD
:10242300101010380000000000EE444444444444BB
:1024330044380000000000EE4444282828281010E7
:102443000000000000D6545454546C28282800007F
:10245300000000EE44282810282844EE0000000065
:1024630000EE442828101010103800000000007CF3
:1024730088081020204044FC0000001C101010109D
:102483001010101010101C000070101010101010FD
:102493001010101070000070101010101010101099
:1024A3001010700000102800000000000000000061
:1024B300000000000000000000000000000000FE1B
:1024C30000606020C0000000000000000000000069
:1024D3000000000038441C24443E0000000000C0FB
:1024E3004040784444444478000000000000000069
:1024F3003C444040443800000000000C04043C44C9
:102503004444443E000000000000000038447C4086
:10251300443800000000001C2420F82020202078EC
:1025230000000000000000003C4848304078443878
:10253300000000C040405864444444EE00000000E2
:102543000010000070101010107C00000000000844
:1025530000003808080808080870000000C0404060
:102563005C48507048EC0000000000701010101020
:102573001010107C0000000000000000F8545454B8
:1025830054D60000000000000000D864444444EE28
:1025930000000000000000003844444444380000B8
:1025A300000000000000F8444444447840E0000088
:1025B300000000003C444444443C040E000000007E
:1025C3000000EC30202020F8000000000000000094
:1025D3003C443008447800000000000010107C10D8
:1025E3001010100C0000000000000000CC44444414
:1025F300443E0000000000000000EE44282828109C
:102603000000000000000000D654545428280000A5
:10261300000000000000DC48303048EC00000000FF
:1026230000000000EE442828101020E00000000005
:1026330000007C481010247C0000101010101010B3
:102643001010101010101010000136360101000197
:102653000201000103010001040106060502000056
:10266300070100340801000F090401010D0100FFF7
:102673000E08000017020000190100FF1A010001F3
:102683001B0100FE1C0100081D0200001F010001C8
:1026930020010001210200002301000F2402000099
:1026A3002601000127010008280200FF2A01000774
:1026B3002B0102402C0100002D0100012E0100011D
:1026C3002F0100FF30010B1C310800003A01000804
:1026D3003B01000F2F010000030071003001600077
:1026E30011007000310220035004800010006100CB
:1026F30000001400630073007200620043000000D6
:102703001300060000000000040012000000000097
:102713000000000004000400370037003C024400BE
:10272300000000000000000065000000350081008B
:102733000000050000008300000001037103010392
:102743000103010301030103220302030103100335
:10275300000300030003000300030003000342031C
:1027630000032403060300030003040312032503E9
:1027730023032503230304030403000300030003CB
:10278300440300030003230300036503210035030F
:10279300810300030503000300030003010171012A
:1027A3000101010111010101310101010101800157
:1027B300100161013B0014006301730172016201A6
:1027C30043010001130106013D013500040112011B
:1027D3000001000100010001040104013301330180
:1027E3003C01440132013600000100016501000192
:1027F300350081010001050182018301000103020B
:10280300710230016002110270020102020202022F
:102813008002100261023A004100630273027202F5
:1028230062024302000213023800000200020402A3
:102833001202000200020002000204020402370036
:1028430037003C0244020002390000020002650224
:1028530000023502810200020502820283020002A5
:1028630003047104020460041104700402040204EA
:1028730001040204100461040004140463047304D7
:1028830072046204430400041304060400040004F5
:10289300040412040004000400040004510464004E
:1028A30000040004000444040004000400040004C1
:1028B30065040004350481046400050400048304F2
:1028C300000436000100060000000F0000000000B5
:1028D300000000000000000003FFFF00000403FFEE
:1028E300FF0000FFFF0FF4010005C40403200001F3
:1028F30000030B000000000000000003010F0000B4
:10290300701A1300EC190100701A0200A4190300D5
:10291300AA190400B0190500B6190600C21911005E
:10292300E0191400E6191500D419FFFF0000012275
:102933000E06520E084C0E0B5E0E109E0D02280E54
:1029430005400E072E0E0C040E0D160EFF0000039D
:10295300EAF5E5D5D5C5B5A59595858575756565FF
:1029630055554545353525251515052A125A123075
:10297300123612541248124212601266126C127806
:10298300123C1224121E1200160F00000B150B022C
:102993000002220F320000061A132C133213F41113
:1029A3003813EE11FA112E11281164116A115E11F8
:1029B30016117A1398139E1380138C138613000138
:1029C3001916181616152303000C0E020B040B0A16
:1029D3000708000F00034948424D18172505020058
:1029E300383C3E363B3B352B432C303017181921EE
:1029F300301B1D1F30303016181920231A1C1E30AF
:102A03006E133E13441350134A134E127212921351
:102A13007E1284120204020101010109023A1140EB
:102A2300113411701100000000000046115811000C
:102A3300BE040A150004007F00E8030C0028000010
:102A43000000000308100C0A03080900040001FF3A
:102A53001E1E0C05040F1008C082C0838A828B835C
:102A6300E0D2E7F01218F6023C2AC082C083790054
:102A7300122F27125DF7C082C083900334124B7D5F
:102A8300D083D082C3E09CA3E09D500C1264CBFAA8
:102A9300A3E0122A9E600109023C2AFBEA75F00BAF
:102AA300A4FAA8F075F00BEBA428FB900336E02AF8
:102AB300F8A3E03B8882F583E0540F2274F71203F6
:102AC3007A8908122F27122FCDACF075F00BE9A4E9
:102AD3002CF9900336E028FEA3E039FF7401650862
:102AE30060067402650870208A828B83122FB912E4
:102AF3003E5974026508701B122E78123000701351
:102B03008E828F83E4F0800BEA2403FCEB122F9B6D
:102B1300122FA7EEFAEFFB120B22023DB674F4124A
:102B2300037A126DF279008E828F83E06076890AD0
:102B3300890B8065E50A75F00BA4FAA8F075F00B14
:102B4300E50B122AAB7046E50A75F00BA4F8AAF060
:102B530075F00BE50B122FDF8E828F83E0850882E1
:102B63008509831230C1850882850983A3123E59E2
:102B7300EE2403FCEF122FA4123C37125871AA085B
:102B8300AB09120B227901900334125286E50A2411
:102B930001F50AE50B3400F50B122E80E50A9AE5E0
:102BA3000B9B409002400374F512037AEAFEEBFF9D
:102BB300740B120AF7123C3C750A01EC4D602BECC6
:102BC300126E0EED125DF7123E517901120B2EE5D6
:102BD300084509606F850882850983A3126DFC7916
:102BE30002AA08AB09120B2E805AE5084509602B8F
:102BF300125DFB1244C5123C38122FEA700CEEFA38
:102C0300EFFB120B34E9F50A80CBEE2403FA122F03
:102C13002270317903EEFAEFFB80CA8E828F83A391
:102C2300E064FE7003A3E0F4700BEE24030A0A0AC7
:102C3300122F22700CEEFAEFFB120B34E9F50A8027
:102C430003750A00A90A7F0302059574F712037A34
:102C5300900334123DC6EA4B602FEA75F00BA4FAD9
:102C6300A8F075F00BEBA428FBEAFEEBFF12170AA2
:102C7300900336123DC69003361250CB6012EEFC21
:102C8300EFFD790012164A8007900336E4F0A3F0B3
:102C9300023DB6900334124835C3EE98EF9922C033
:102CA30082C083EC4D6005121F5080097C087D00B3
:102CB300790012164A023C2A74F612037A7900EA62
:102CC3004B60187800880812613EEB1264C76004F9
:102CD3007901780808E8C3940840EA023E6274F771
:102CE30012037A74F3120925ECFEEDFF8518828531
:102CF3001983E4F004120AF7EAF0A3EB1255F77410
:102D030003120AF7AC82AD83EEFAEFFB120B46EE29
:102D1300FAEFFB120B4C023DB174F712037A74F312
:102D2300120925ECFEEDFF851882851983E4F0EA8C
:102D3300FCEBFD7403120AF71230BA7401120AF79E
:102D4300123E4D8E828F83123E5974FE6870037457
:102D5300FF696004790180027900023DB174F712C2
:102D6300037AEAFEEBFF122DBE7014122DC98E8278
:102D73008F83E0F4F88A828B83E058F0120B22A948
:102D830008023DB674F712037AEAFEEBFF750800FA
:102D93008E828F83E06022122DBE701D122DC98A90
:102DA300828B83E08F838E82F8E058700CE0F88A80
:102DB300828B83E048F0120B2280C4120B28E9F5C2
:102DC300087401650822126E07122FD1122F13FA0D
:102DD300A3E039FB2274F412037A8A088B097C007E
:102DE3007D00122E78122FA7122F38126DF9790059
:102DF300850882850983A3E064FE7003A3E0F46081
:102E0300717E007F008062EEFAEF122A9E6057EE19
:102E1300FAEFFBEA75F00BA4FAA8F075F00BEBA43C
:102E230028FB900336E02AF50AA3E03BF50B85085F
:102E330082850983A3125545850A82850B83A3E006
:102E43006A7003A3E06B701EE50A2403FAE50B1214
:102E53002F23700AE50A2403FCE50B122FA4122F7B
:102E63002C7901125E0D123817122E80EE9AEF9B09
:102E73004095024003EA24030A0A0AEB2290033432
:102E83001259E4C32274F312037A8A088B098A82E3
:102E93008B83A3126DFC122F27126DF9750C001290
:102EA3002E78122F2370547E007F008049122F0545
:102EB300FAA3E0398A82F583E0540F6036122F05B6
:102EC300F50AA3E039F50BE50A2403FCE50B122F01
:102ED300AE3400FB121F4AE964017017850A82852C
:102EE3000B83A3125AA5A3123E59122F2C750C0162
:102EF300125E0D123817122C9640B2A90C7F0502F0
:102F03000595EEF8EFF9E875F00BA4F8122F1322EC
:102F1300AAF075F00BE9A42AF9900336E02822EF12
:102F2300122FFA22126E0DEB22122F38125E08EEC8
:102F3300F0A3EFF022E508126E0EE5092274F512F4
:102F4300037AEAFEEBFF8E828F83A3126DFC7C0073
:102F53007D00EE24030A0A0AEF122FA7EEFAEFFB15
:102F6300120B28E9F50A7401650A7029126E07121B
:102F73002FCDAAF075F00BE9122FDF850882F583B8
:102F8300122FB9122FEA700DE5082403FCE509128C
:102F93002F9B122FA7022C473400FDEE2403FAEFD8
:102FA30022122FAE3400FB120B46223400FDE5083B
:102FB3002403FAE50922A3122FBE22122FC222E014
:102FC300F8A3E0F98E828F83A322122FD12234003B
:102FD300F583124839E875F00BA4F822122F19F57E
:102FE30008A3E039F50922E8F0A3E9F0E508240392
:102FF300FAE509122FFA221230006401223400FB91
:10300300120B4CE92274F312037A74E612092512A7
:103013006DF2750C01750800750900750A00750BD2
:1030230000851882851983E4F0EE2403FCEF340055
:10303300FD7403120AF71230BAE964017023740BAA
:10304300120AF7123E517401120AF712554970031E
:10305300A3E0696051851882851983858208858379
:1030630009740D120AF7E41230C1740E120AF71232
:103073003E59740D120AF7AA82AB83120B6AE964F4
:1030830001700B740D120AF785820A85830B780A87
:10309300120863AC08AD09EEFAEFFB120B3A7402A7
:1030A3001208ABE9F50CEEFAEFFB120B64A90C74F2
:1030B3001A1208AB022F0012338D120B7022123D2D
:1030C300C112483522C082C0837800790080031280
:1030D30031B8122E80E89AE99B5029E8FAE9FBEA15
:1030E30075F00BA4FAACF075F00BEBA42CFB90037A
:1030F30036E02AFCA3E03B8C82F583E0540F70CFCB
:10310300790080027901023C2AC082C083902A366A
:1031130012488BEC75F012A4FCA8F075F012EDA424
:1031230028FD79FF7A1D7B0912164A023C2A74F79F
:1031330012037AE9FEEAFF7A007B007800790080C7
:1031430028E8FCE9FDEC75F012A4FC85F00875F0A5
:1031530012EDA425081235CDC39E400AE0FCEFC34F
:103163009C40031236EC1231B81235C140D3023DF4
:10317300B6C082C0837800790080031231B812315F
:10318300AC501F1235D1F470F2E875F012A4F8AA0E
:10319300F075F012E9A42AF9741D28FA740939FBB1
:1031A30080047A007B00023C2A902A36123682C3BE
:1031B300E89AE99B22E8240108E93400F92274F033
:1031C30012037A74F31209258A0A8B0B8C0C8D0D6A
:1031D3008908EC450D6016AA0CAB0D120BBE8A0EC6
:1031E3008B0FAE0EAF0FEE4F600302327F120B94C4
:1031F3008A0E8B0FA80EA90FE8FEE9FFE849607C51
:10320300902A441232E16022740365086006740454
:10321300650870167A047903120B8E902A441232D1
:10322300F840077A007B000232DE902A421232E134
:10323300601B74016508600674026508700F7A02EA
:103243007901120B8E902A421232F850D6851882D9
:103253008519837401F0120AF7125871AC0CAD0D85
:103263007403120AF7123386740B120AF7123C44E2
:10327300124239E412585912106E8004EE4F604A1C
:10328300780074FF2508C39404500278048E828F5B
:10329300831258718E828F83A3A3A3A3E508F0E85A
:1032A3008E828F83A3A3A3A3A31258791202291298
:1032B30036998E828F83A3A3A3A3A3A3A3F012366D
:1032C30090120AD4125DF1120AE01232E640059020
:1032D3000E79E4F0120F48EEFAEFFB02483F125961
:1032E3009349227A047900120B8E902A361264AD28
:1032F300EA98EB992212331175832A758236E49387
:10330300C398F8A3E49399F9C3EA98EB9922E49359
:10331300F8740193F92274F212037A74F3120925F3
:103323008A088B09ECFEEDFF750A00EEFAEFFB123B
:103333000BBE8A0C8B0DA80CA90DE849603E888250
:103343008983E065087004A3E06509602F8882899A
:1033530083A3A3A3A3E0C394055021125C9F851804
:10336300828519837401F0120AF7125CA3EEFCEF55
:10337300FD7403120AF7123386750A01A90A740D44
:1033830002533D12338D120B7C22AA82AB83120BA4
:1033930046851882851983AA82AB832274F61203A9
:1033A3007A1233DB600FA3A3A3A3E014C3940450E6
:1033B30004790180027900023E6274F612037A12E4
:1033C30033DB600FA3A3A3A3E014C39402500479D7
:1033D3000180027900023E62120BB88A828B83E578
:1033E3008245832274F612037A1233DB600BA3A3A4
:1033F300A3A3E07004790180027900023E62C082D7
:10340300C083EAFCEBFD7A007B00023C27C082C04C
:10341300837C007D00023C2774F412037A74F31258
:103423000925EAFEEBFF8C0A8D0BC3EC94F8ED94AF
:10343300FF4007EE4F70030234D47508007509008E
:10344300802E8518828519837401F012383F120A81
:10345300F712384D60137403120AF7AC82AD83EE92
:10346300FAEFFB121F4AE97049E508240112366D91
:10347300902A36E412599BE50898E509995052E5DC
:103483000875F012A4F8AAF075F012E509A42AF958
:103493001264E060D4EE4F70A974FF650A7004747F
:1034A300FF650B60C412382F650A7004A3E0650B37
:1034B30070B7E50875F012A4F508A8F075F012E5E9
:1034C30009A428F509741D2508FA74093509FB8038
:1034D300047A007B00023FFE74F412037A74F31241
:1034E3000925750800120BBE8A0A8B0BAE0AAF0BB7
:1034F300EE4F602A8518828519837401123DBBF84B
:10350300A3E0F9740B120AF7123EDC120B5E7C1275
:103513007D0079FFEEFAEFFB12164A7508011232AD
:10352300E65009900E797401F0120F48A908023F82
:10353300FE74F712037AE9FE74FE6A700374FF6B7C
:1035430078007900700580521231B81235C1504AA3
:10355300E8FCE9FDEC75F012A4FCAFF075F012ED98
:10356300A42F1235CDF460E0E8FCE9FDEC75F01210
:10357300A4FC75F012EDA42FFD741D2CF5827409C3
:103583003DF583E06A7003A3E06B70BC80091235DC
:10359300D114C3940440171231B81231AC5018EE51
:1035A30070EC1235D164016005E0640370E91238F0
:1035B30020FAA3E0FB80047AFE7BFF023DB6902A4B
:1035C3003612488FC3E89CE99D2212372122E8FA7C
:1035D300E9FBEA75F012A4FAACF075F012EBA42C37
:1035E300FB74212AF58274093BF583E022120BD088
:1035F300023C2AC082C083790180F274F012037AFC
:103603008A0A8B0B7A047901120B8E8A0C8B0DEAD2
:10361300450D603EEAC333FAEB33FB12170A8A08FF
:103623008B09AE08AF09EE4F60237AFE7BFF120BC6
:10363300D674FE6A700374FF6B601B85088285096C
:1036430083123DC6E508240212366D80E1750C0035
:1036530080047E007F00850A82850B83E50CF0EEF3
:10366300FAEFFB024844E5082407F508E5093400AE
:10367300F50922902A3612488FC3EA9CEB9D22E477
:1036830093FA740193FB2212163E740322125E0214
:10369300E4F09081A622E88E828F83A3A3A3A3A341
:1036A300A3A3A31236BB74011236BBA3F0EE2410FE
:1036B300125E05E4F0A3F022124245A3A3A322C0A5
:1036C30082C0837A007B008004191236EC123676AE
:1036D300501012370BC3940550F0E970EC1236F515
:1036E30080047A007B00023C2AEA24010AEB3400BE
:1036F300FB22EA75F012A4FA75F012EBA428FB740E
:103703001D2AFA74093BFB22EAFCEBFDEC75F0126F
:10371300A4FCA8F075F012EDA42812372122FD7441
:10372300212CF58274093DF583E02274F712037AA4
:1037330074F31209257E007F000237D3E50875F084
:1037430017A4F8A9F0126741FAA3E0FBEEF8EFF92A
:10375300E875F012A4F8ACF075F012E9A42C123855
:103763002E6A7003A3E06B603FE50875F017A4F8B9
:10377300AAF0EA126740F8A3E0F97401120AF7E02D
:10378300687003A3E0696020E50875F017A4F8EA00
:10379300F9749928FC740A39FD7403120AF7AA8292
:1037A300AB83121F4AE96014E50875F017A4F8A962
:1037B300F0749728FA740A39FB12107A0508902AD4
:1037C30048E493F8E508C398500302373F123817CB
:1037D300902A36126A875039EEF8EFF9123820F43E
:1037E3007003A3E0F460E68518828519837401F001
:1037F300EEF8EFF9E875F012A4F875F012E9A42ACF
:10380300F912383F120AF712384D60C1750800806B
:10381300AD023DB1EE24010EEF3400FF22E875F056
:1038230012A4F8AAF075F012E9A42AF91238332287
:10383300741D28F582740939F583E022741F28F575
:1038430082740939124833740B22E8F0A3E9123E5B
:10385300E4120B76E922C082C08390033D743AF0F0
:10386300A3740EF090033F7434F0A3740EF090032E
:10387300437454F0A3740CF0023C2A74F712037AD5
:10388300EAFEEBFF900377E06408601BE0640460EA
:10389300168E828F83E0540364017048123C371202
:1038A300433AE06406703D8E828F83A3A3E064FEF7
:1038B3007003A3E0F4602D8E828F83A3A3123E4D89
:1038C300900368E0687003A3E069700BEE2415F5BC
:1038D30082EF1264C76008120EE8E9F50880081247
:1038E3000EEE80F67508C2EEFAEFFB121710022DEA
:1038F3008274F412037A8A088B098A828B83E0F834
:10390300A3E0FAE82AFAE43400FB12170A8A0A8BC6
:103913000BAE0AAF0BEE4F6063850882850983E027
:10392300FC7D00790012164A8E828F83A3A3126D49
:10393300FC120F2A8E828F83A3A3A3A3123DC685F5
:103943000882850983E0F8EE28F8EF3400123E552B
:10395300850882850983A3E0C0E0EE240D125DF49F
:10396300D0E0F0120F3CEE240E125DF4E91254A6DF
:10397300E0C0E0EE2411125DF4D0E0F0EEFAEFFBCC
:1039830002400374F412037A74EB1209258A088B3C
:10399300098C0A8D0BE9FE900377E064046005E06F
:1039A3006408700479C2802EA37808120AB8EE90D6
:1039B300037E123C31120AB87405120AF7E9F07457
:1039C30004120AF77401F07407120AF7E4F0900383
:1039D300777402123BC5741502400074F612037A21
:1039E30074EB120925EAFEEBFF1250C86003023A9A
:1039F300827A077B0012170A900339123DC61250D0
:103A0300C860788E828F83120AD490033A12433DA2
:103A1300120AE0126CC0C0E0123A8ED0E0F0EE243D
:103A230005FAEF3400FB8A088B098A82F583E0C02C
:103A3300E0123A89D0E0123FFAE0C0E0123A89A3DB
:103A4300D0E0123E3A120AD4851882851983120AED
:103A5300E088828983E0C0E07405120AF7D0E0F0C1
:103A6300850882850983E0C0E07404120AF7D0E078
:103A7300F07407120AF7123BC480067910800279AA
:103A8300017415023E5F123A8EA322900339E0FAC5
:103A9300A3E0F5838A82A3A3A3A322C082C08312D7
:103AA30050C8600D9003391259D2900339E4F0A342
:103AB300F0120E5812101A023C2A74F012037A7490
:103AC300EB120925ECFEEDFF89087425120AF7783D
:103AD3000C120A9A7429120AF7E0F9742A120AF7E7
:103AE300E0FC742B120AF7E0FD740F697005740F84
:103AF3006C6012900ED4E06402700579C1023BBF82
:103B0300E9C39C40F6900378780C120AB8E5089054
:103B1300037EF0E990037CF0ECA3F0ED90037FF0DB
:103B230074FF6A700374FF6B701D900EDFE0F47016
:103B330003A3E0F47005121662800C900EDF123DB1
:103B43008EE8F0A3E98007900375EAF0A3EBF0EEAB
:103B53004F6017EEFAEFFB1210DAE96401700BEE17
:103B6300FCEFFD7A897B03121F50900368E4F0A3F6
:103B7300F090036BF0A3F0900388F0900ED4E06410
:103B830002700890037C740FF0A3F0900377740520
:103B9300F014120AF7E4F0900378120AD48518821D
:103BA300851983120AE090037EE0C0E07405120ACF
:103BB300F7D0E0F07407120AF7123BC474150248F9
:103BC30041E4123EE4121F8022C082C08390033876
:103BD300E070031219DA120C1E804CC082C083906D
:103BE3000338E0900E787004E4F0802D7401F090B7
:103BF3000338E0F460237C41E0C394415002E0FCCD
:103C0300ECF8E0C398F0EC75F0E8A4CCA8F075F0FC
:103C130003A428FD7A801248977A787B0E794112A3
:103C23001F688003120BC4D083D082020843123E64
:103C330045780822EE125E0322E0F508A3E0F509B9
:103C430022123C4822122FC2A32274F512037A7463
:103C5300E2120925851882851983ECF0A3EDF0EAB9
:103C6300FEEBFF89087429120AF7E0F509742C1298
:103C73000AF7E0F50A900377E064046005E064085E
:103C8300700579C2023D7F742A120AF7E064FE7060
:103C930003A3E0F4700579C3023D7F9003777403B7
:103CA300123EE07950121F68742A120AF7AA82ABF7
:103CB30083794B121F68851882851983123D8E12F2
:103CC3003E59E50890036AF0742A120AF7123D87F9
:103CD300123E59E509900362123D9574CE5509448D
:103CE30080C0E07412120AF7D0E0F07401250A9044
:103CF3000388F0740F120AF77402F0742A120AF799
:103D0300123E4D7407120AF7E8F0A3E9123DCC7492
:103D130010120AF7123E597405120AF7E508F074F7
:103D23001B120AF7E4F090037D740FF07A7D7B0396
:103D33007954121F6890037C740FF07A7C7B0379AB
:103D430047121F6890037CE0C3940F50237405123D
:103D53000AF7E0C0E07402120AF7D0E0F07404122C
:103D63000AF77401F004120AF7AA82AB83121F8CBC
:103D73007405120AF7AA82AB83121F6E741E12080F
:103D8300AB022C4912483590036B2212483590033D
:103D93007522F0EEFCEFFD7A897B03121F5022742B
:103DA300F712037AEB90037FF0120E468005740D31
:103DB3001208AB7F01020595123DC1A3E022123E1A
:103DC3003AA322EAF0A3EBF022123E40F8A3E0F973
:103DD3002274F712037A74F8120925EAFEEBFF79CD
:103DE30000900377E0640870448518828519837412
:103DF300FDF0A374FFF0120F247402120AF7123DB0
:103E0300C67405120AF7E4123DC1E0C0E07404125F
:103E13000AF7D0E0123E35C0E07406120AF7D0E08C
:103E2300F07407120AF7E4123EE0120F66740802F8
:103E33003DB3123E3AE022F08E828F8322123E453A
:103E4300E022F08518828519832212483522E0F892
:103E5300A3E0F9125E02E8F0A3E9F0221208AB7FB7
:103E630002020595C082C08390034974E4F0A374F1
:103E73000CF09003EF74C0F0A3740FF090034D7433
:103E83001AF0A3740DF090034F74E4F0A3740CF0D4
:103E93009003517420F0A3740DF0023C2A74F412C1
:103EA300037A74F91209258A088B098C0A8D0B850C
:103EB30018828519837808120AB87404120AF7E97C
:103EC300F07405120AF7E4F07406120AF7E4123EDE
:103ED300E0120C067407024000E8F0A3E9123EE486
:103EE30022123E45AA82AB832274F412037A8A0813
:103EF3008B098A828B83125E10EE4F7003023FF8A8
:103F03009003121250CB60158A828B83A3A3E0F92E
:103F1300EEFAEFFB90031312433D1221418E828F81
:103F230083A3A3A3A3A3A3A3A3A3E0640270748E98
:103F3300828F83A3A3A3A3A3A3E054027003023F2E
:103F4300CA850882850983A3A3E064E960798E8228
:103F53008F83A3A3A3A3A3A3A3A3A3A3E0701490FA
:103F63000ED7E0048E828F83A3A3A3A3A3A3A3A34B
:103F7300A3A3F08E828F83A3A3A3A3A3A3A3A3A32B
:103F8300A3E014123FFAA3A3A37404F0900ED81273
:103F9300584BE8F0A3E91269248B0BEA450B700335
:103FA3001263028E828F83A3A3A3A3A3A3A3A3A3BA
:103FB300E0640260128E828F83A3A3A3A3A3A3A3AF
:103FC300A3A3E06406702E8E828F83A3A3A3A3A36F
:103FD300A3E0A2E0501F850882850983A3A3E0F92B
:103FE300EEFAEFFB1220228E828F83A3A3A3A3A357
:103FF300A3E054FEF0800912424122740D1208AB73
:104003007F0402059574EC12037A74DD120925EA24
:10401300FEEBFF8C088D097437120AF7780C120A2D
:104023009A750A007405120AF7AC82AD83122064F4
:104033007412120AF7E070087415120AF7E0602090
:104043007405120AF7E0A2E6501E8E828F83A3A3A3
:10405300A3A3A3A3A3A3A3125545120F9CE960082E
:104063007903121F380242277405120AF7E0540C31
:1040730064047005750B018003750B00E0A2E55025
:1040830035750A01E50BA2E0402C120F2A8A108B2A
:1040930011A810A911123C37E0687003A3E069600E
:1040A300157405120AF7126E0312554112202EE9F8
:1040B3006004790480AC7405120AF7E0A2E650228A
:1040C3007406120AF7E0540370187405120AF7E035
:1040D300540C640C600CE0540C640860057510010A
:1040E30080037510007405120AF7E05403F8740294
:1040F30068700C126E03125541120B1002422774A2
:104103000168703AE510A2E0500312422F740512C1
:104113000AF7A882A9837403120AF7E8F0A3E91245
:104123004829851882851983124239E0C0E0740258
:10413300120AF7D0E0123EE0122112024227E86091
:104143000302422790035FE0640170108E828F8325
:10415300A3A3A3A3A3A3E070030240B57422120A8E
:10416300F77402124829741A120AF7123E59E5101D
:10417300A2E050087405120AF712422FE50BA2E0E1
:10418300506AEE240FF582EF1264C7C0E074171271
:104193000AF7D0E0F09003141250CB7003024227C9
:1041A300120F2A8A128B13A812A913741A120AF770
:1041B300E0687003A3E069706B780C12085B780AFF
:1041C3001208677808120863A910740C120AF7AC76
:1041D30082AD837421120AF7AA82AB83900314126F
:1041E300433A12214174071208AB8038780C120845
:1041F3005B780A1208677808120863900375120641
:104203009AEE2412F582EF1261F57423120AF7ACC9
:1042130082AD83740E120AF7AA82AB83122016743E
:10422300091208AB74231208AB0268EF126E031273
:1042330059E01215CC22E8F0A3E9124241221242BE
:104243004522F08E828F83A3A3A3A3A3A32274F793
:1042530012037A1218AE023DB674F712037A1218DB
:10426300B4023DB674F712037A1218C0023DB6C009
:1042730082C0831218BA023C2A74F712037A121806
:10428300C6023DB674F712037A7409120AF7E0F511
:104293000878081208671218D27401023DB3C0826D
:1042A300C0831218DE023C2AC082C0831218E402C3
:1042B3003C2A74F712037A1218EA023DB674F71215
:1042C300037AEAFEEBFF890874016508701479002C
:1042D300120D5C902A53E493FC7900EEFAEFFB1283
:1042E3000CD2023DB674F412037A74F9120925E96B
:1042F300FE8A088B098C0A8D0B7413120AF7125568
:10430300459005911250CB6027EE8518828519835D
:10431300F07401120AF77808120AB8EAF8EBF97494
:1043230005120AF7123EDC90059112433A1221411D
:10433300023ED7FB90034BE0F8A3E0F5838882228B
:10434300C082C083121920023C2A74F712037A90A8
:104353000E7BE0F97E00800B1264B3540D64017090
:1043630001190E1245475003E970ED023DB674F78B
:1043730012037A900E7CE0F97E00800B1264B35432
:104383008D64817001190E1245475003E970ED02E7
:104393003DB674F212037A890BE975F006A4240C76
:1043A300F508E5F01236718A0CE508250CFAE509E3
:1043B3003400FB12170A8A0C8B0DAE0CAF0DEE4FB7
:1043C3006027AC08AD09790012164A123C37E50B99
:1043D300F0EE2508F8EF3509F98E828F83A3A3A3A6
:1043E300A3A3A3A3A3A3123E59EEFAEFFB025340E8
:1043F30074F612037AEAFEEBFF120CAE900E7AE02B
:10440300F8E9C3984009900345125545120CB4EEE0
:104413002402F8EF125B55900347125A0F9003479B
:10442300E004F0EEFAEFFB120CBA850882850983EB
:10443300E002600BC082C0837900900345800109CC
:104443001255458A828B83E582458370F2023C2AAA
:1044530074F712037AEAFEEBFFEE4F6056900345C2
:104463001250CB604E888289837A007B00EE65828E
:104473007003EF6583600FAA82AB831244B9E582B0
:104483004583602F80E79003451244C5687002EFAF
:10449300698E828F837008123E4D9003458003120C
:1044A3006901123E59EEFAEFFB1220E2EEFAEFFB3E
:1044B300121710023DB61244BD2212483988828970
:1044C3008322124835EE22C082C0839003458004C4
:1044D300888289831250CB600B88828983124B7D3B
:1044E300EC4D70EC8A828B83E4F0A3F0E84960061C
:1044F300888289838003900345123DC6023C2A7457
:10450300F712037A90034580048A828B8312454213
:104513004B60257E0080010E12454750ECEE75F08E
:1045230006A4FCADF0EA2CFCEB3DFDEC2410F58277
:10453300ED12459770E180047A007B00023DB612CC
:1045430059E4EA221245A0EEC3982274F712037AC3
:104553007D0080010D12459CEDC3985034ED75F03C
:1045630006A4FEA8F0E8FFEA2EFEEB3FFFEE2410C0
:10457300F582EF12459770DCED75F006A4FEE8FFB7
:10458300EA2EFAEB3FFBEA2411F582EB1264C74CE7
:10459300F0023DB61264D369221245A022126E0DB9
:1045A300EB3400F583E0F82274F612037A120DD48B
:1045B3007A007B008025EAF8EBF9E875F006A4F8A9
:1045C300ACF075F006E9A42C1259B9126CCEA3E431
:1045D300125AAFF0A3126CD4126E4B902A3E1232D1
:1045E300F040D37A007B00801C8A088B097403781F
:1045F30008120A2612546DA374FEF0A30412588FF6
:10460300A3E4126E4B902A4712464A40DC7A007BA1
:1046130000801D8A088B0974037808120A2674BF68
:1046230012613F740D12698674FEF0A304126E4B7F
:10463300902A4D12464A40DB902A51E4939003534B
:10464300F0124654023E62E493F8C3EA98EB9400F6
:10465300227CE87D037A107B009003C2E0F91217F5
:10466300D02274F012037A74F51209258A088B0993
:10467300890A8C0BE9A2E050147508FC7509FFA2A6
:10468300E15005D2E4024727D2E302472712532C15
:104693007003A3E069700579000247F4AC0A79025C
:1046A300AA08AB09120DB0E960EDE50AF50C780C28
:1046B30012086779027CFE7DFFAA08AB091250A796
:1046C3001208ABE960030247F2E50AC2E5F50A9076
:1046D30003B5E07051E50AA2E6404B7403120AF7F2
:1046E300AC82AD83AA08AB09120B52E970321249AE
:1046F300C88A0C8B0DA80CA90DE8FEE9FFE84960F8
:1047030025EE24020A0AEF123000601AEE2402FC9E
:10471300EF3400FD7403120AF7AA82AB83121F5011
:10472300E50AD2E5F50A900348E0F50C900368E04A
:10473300F50EA3E0F50F780E1208637D017C00905F
:104743000348E0F9AA0EAB0F120D6874021208AB0E
:10475300E9F8900348E004F0E860030247F2E50A51
:10476300A2E55004740E80027406C0E07401120ABC
:10477300F7D0E0125E218A0E8B0FAE0EAF0FEE4F15
:104783006069124812124829888289837401F0747F
:1047930078550AA3126E13E50C126E13A3E508F005
:1047A300E509124801E4F0E50AA2E5500F7403128B
:1047B3000AF7AC82AD83E824061247F88E828F8312
:1047C300A3A374FDF0A374FFF0E50B6015902A54C6
:1047D300E493F8E50BC3985009EE2413125DF4E556
:1047E3000BF0EEFAEFFB120BF480067910800279DE
:1047F300C7740B8049FAE93400FB121F50228882E8
:104803008983A3A3A3A312480D22125B88A322EEDC
:104813002417125E057401F0120F24EE241A125E9F
:1048230005EAF0A3EB22F0126E073400124833229C
:10483300F58312483922E0F8A3E0F922740D120837
:10484300AB7F0802059574F612037A7A007B101287
:10485300630F60089003D47401F08029900632E05E
:104863006401900ED57006E0FC79018004E0FC79C8
:10487300037A007B00120CD2902A3C12488B7A00F8
:104883007B10124899023E6212488F22E493FC7413
:104893000193FD227B009003C2E0F91217CA227430
:1048A300EC12037A8A088B098C0C8D0D890E741413
:1048B300120AF71252867416120AF7E0F510A3E0F3
:1048C300F511120F9CE960077AFF7BFF0249C5903F
:1048D3000ED4E0640260030249B87900AA08AB0968
:1048E300120DB6A90E120DAA8A128B13AE12AF13B4
:1048F300EE4F70030249A08E828F83A3A3A3A3A3C9
:10490300E064018E828F83A3A370691255458E8262
:104913008F83A3A3A3A3A3A3E054186043902A52B5
:10492300E4938E828F83A3A3A3A3F0EA650C7003A1
:10493300EB650D6014EA650A7003EB650B600AEA28
:1049430065107003EB6511701F7810120863AC0AD1
:10495300AD0BAA0CAB0D12109874021208AB8008B1
:104963009003671262F9A3F074FE6A700374FF6B1D
:10497300601D804EA3A3A3E0640360298E828F830E
:10498300A3A3A3A3A3E0640470057AFE0248CD8E1B
:10499300828F83A3A3A3A3A3E0640270089003B44C
:1049A300E0640270101249C88B0BEA450B6006AA3B
:1049B30008AB09800DAA08AB0990034912433A12C8
:1049C30021410268EF9003751250AD12105C2274FE
:1049D300F712037AEAFEEBFF120BA6E9700AEEFA6E
:1049E300EFFB120BB2E96006EEFAEFFB80047AFEEE
:1049F3007BFF023DB674F012037A8A0A8B0B8C0E8E
:104A03008D0F8909750800120F9CE9790060030274
:104A13004B6FAA0AAB0B120DB6A909120DAA8A0C89
:104A23008B0DAE0CAF0DEE4F60198E828F83A3A357
:104A3300A3A3A3E0640270559003B4E0640270037F
:104A4300024B6DAA0AAB0B90034F12433A1221415A
:104A5300120BB88A0C8B0DA80CA90DE84970030240
:104A63004B6D88828983A3A3A3A3A3E0A2E04003A1
:104A7300024B6D750C01A2E150687901AC0AAD0BD4
:104A8300AA0EAB0F120D02E97064024B6D8E828F7A
:104A930083A3A3A3A3A3E064037005750C02805250
:104AA3008E828F83A3A3A3A3A3E064016003024BBD
:104AB3006D900375124B7D8E828F83124ED28A0CBA
:104AC3008B0DA80CA90DE84960D1902A4BE493FA09
:104AD30088828983E0C39A50C2A3E06003024B6DCE
:104AE30080B988828983A3A3A3A3A3D2E1F0EE4F65
:104AF300603A8E828F83A3A3A3A3A3A3E054186079
:104B03002B7508018E828F83A3A312069A750CFE60
:104B1300750DFF780C1208637900AC0AAD0BAA0E71
:104B2300AB0F120DC874041208AB803E900368E00B
:104B3300650E7004A3E0650F7014902A53E493FC90
:104B4300A909AA0AAB0B120CD2750801801CA90C87
:104B5300AC0AAD0BAA0EAB0F120D02E9700C75086F
:104B630001A909AA0AAB0B120D5CA908024844E586
:104B73000C2415F582E50D125E081258652274EABD
:104B830012037A74F01209258A0C8B0D8C088D0997
:104B93007426120AF7E0F514A3E0F51575120690D2
:104BA30003F51250CB6023900375124B7DAA08AB1B
:104BB300091210868A108B11EA4511600D8A828BC7
:104BC30083A3E070057900024EBAE50C241DF50EAF
:104BD300E50D3400F50F850E821250B7F513888268
:104BE3008983A3A3A3E0FA88828983A3A3A3A3E071
:104BF300F9EA2400FEE439FFAA08AB09120D628525
:104C03000E82850F83124EF5E029F50BE50AA2E526
:104C1300500375120E7487550A70177418550A6479
:104C230018600FE50C2417F582E50D1264C76512B1
:104C330060077901121F38808C530A78C3EE94F809
:104C4300EF94FF501D7900EEFAEFFB124EC4601291
:104C530088828983A3A3A3A3A3A3E05418600302B8
:104C63004BC878081208637D00124EE81208ABE9BE
:104C7300F87403687003024BC8E86003024D337491
:104C830018550A7003024DE8E50AD2E0F50AA2E4DA
:104C93005004D2E1F50AA90A12553E124EC46053DC
:104CA30088828983A3A3A3A3A3A3E05418604488A1
:104CB300828983A3A3A3A3A3E064017036E510450F
:104CC300116030900375124B7D88828983124ED216
:104CD3008A0E8B0FA80EA90FE84960178882898373
:104CE300A3E0600F851082851183A3126016500321
:104CF300024BC8E50AF50E780E120867124EDB1256
:104D030008ABE9702B7C007D0085148285158374C4
:104D1300FFF0A3F0850C82850D83A3A3A3A3A3A314
:104D2300A3A3E06003124B72A90B12553E1218D8CD
:104D3300851482851583E0F47003A3E0F460399051
:104D430003B4E064027003024BC8125277E0FAA383
:104D5300E0124336122141EA65087003EB650960EE
:104D630003024BC8EEFAEF12433612214185148237
:104D7300851583EAF0A3EBF078081208637D01122E
:104D83004EE81208ABA90AEEFAEFFB120DB68A0839
:104D93008B09A808A909900368E0687003A3E06978
:104DA3006003024EABEEFAEFFB120BB88A088B09D5
:104DB300A808A909E849606E88828983A3A3A3A3ED
:104DC300E06401600D88828983A3A3A3A3E0640246
:104DD3007054851882851983AC82AD83EEFAEFFB9C
:104DE300120B528055900361E0600FE50AF50E78CF
:104DF3000E120867124EDB1208ABE50AF50E780EA9
:104E030012086779027CFE7DFFEEFAEFFB1250A7D2
:104E13001208ABE96003024D338514828515837450
:104E2300FFF0A3024D7A120F24EAFCEBFD851882F2
:104E3300851983AA82AB83121F50850C82850D834B
:104E4300A3A3A3A3A3A3A3A3E06401700F124B72B4
:104E53007408120AF7AA82AB83121F5012508112F0
:104E63005C8D4430F50878081208677401120AF75C
:104E73008582088583097808120863740B120AF780
:104E83008582088583097808120863E513F5087895
:104E9300081208677900EEFCEFFD12553E120CFC78
:104EA30074061208AB024BC8125081125DF7124E02
:104EB300F5E50BF0120F3C74101208AB7F0E0205E0
:104EC30095120DAA8A0E8B0FA80EA90FE84922A3EB
:104ED300A31259E4121086227901AC08AD091259C4
:104EE300D91250A722AC0BA9131259D9120D687409
:104EF3000222125C95A3A3A3A32274F012037A7473
:104F0300F01209258A0C8B0DECFAEDFB750F089056
:104F130003F51250CB601412600F8A828B83E582F3
:104F230045836007A3E0700302507C125081340074
:104F33001250B7F50B8882898312508AE0FBEC2468
:104F430000FEE43BFF88828983A3A312508AA3A3B4
:104F5300E0FBECF508E43BF50988828983A3A3A36E
:104F6300A3A3A3A3E0F50EE50AA2E45003750F1073
:104F7300A2E550067408250FF50F748F550A700FBC
:104F8300E50C2417F582E50D1264C7650F600879F7
:104F930001121F3802507C530A707800E50AA2E41C
:104FA30050221250811264C72408FCA3E03400FD90
:104FB3007408120AF7AA82AB83121F507808E50A15
:104FC300C2E4F50AE50AA2E550281250811264C72B
:104FD30028F8A3E03400F9E82408FCE93400FD854F
:104FE3001882851983AA82AB83121F50E50AC2E592
:104FF300F50AAC0EA90BEEFAEFFB120D6EE9F8748D
:1050030003686075900368E06E7003A3E06F605EF1
:10501300E87054E50AF50F780F12086712509812DA
:1050230008ABE97054780A1208677401120AF7850D
:10503300820C85830D780C120863740B120AF785B2
:10504300820C85830D780C120863E50BF50A780A48
:10505300120867A90EAC08AD09EEFAEFFB120CFCBF
:1050630074061208AB8012740468700D80B7780A56
:105073001208671250981208AB7410024841E50CED
:10508300241DF582E50D22A3A3A3E0FC8882898376
:10509300A3A3A3A322790112527E125E081250AD7C
:1050A3001250A722120D26740122E0FCA3E0FDAAF0
:1050B30008AB0922F5831244BDA3E0F50A8882896F
:1050C30083A3A3E022900339125A402274E8120307
:1050D3007A74F5120925EAFEEBFF8C088D09891411
:1050E3007423120AF7E0F50F7424120AF7E0F5129D
:1050F300A3E0F5137426120AF7E0F516A3E0F517FB
:105103007428120AF7E0F50EA90F120D748A108B9A
:10511300117401120AF77408F0E50EA2E450037447
:1051230010F0E50EA2E55004E02408F0851882850E
:105133001983AA82AB83120F848A0C8B0DEA450D67
:10514300700302525EEA2417F582EB125270120FBB
:1051530024E50C241AF582E50D125DF7123DC674A1
:1051630003120AF7AC82AD83AA10AB11120B52E9FA
:10517300601D1252687403120AF7A882A983E50C12
:105183002418F582E50D125DF7E8F0A3E98024E524
:105193000EA2E4501FE5106E7003E5116F70151237
:1051A3005268E50C2418F582E50D125DF7E512F05F
:1051B300A3E513F0125277125286850A82F583749F
:1051C30002F0A3E50E12528EE50FF0EE850A8285FA
:1051D3000B83A3A3A3F0EF850A82850B83A3A3A369
:1051E300A312528EA3A3A3E508F0E509850A8285DD
:1051F3000B83A3A3A3A3A3A3F0AA10AB11120D6265
:10520300E92514850A82850B83A3A3A3A3A3A3A3E0
:10521300F0750800E50EA2E45011AC12AD13E50AD7
:105223002408FAE50B1247FA750808E50EA2E550C3
:1052330014AC16AD17E50A2508F8E50B3400F9E8B8
:1052430024081247F8850C82850D83A3A3E510F08B
:10525300A3E511F0AA0CAB0D120BF4740B1208ABFF
:105263007F10020595E50C2416F582E50D125E0804
:105273007401F02212527E125E0822E50C126E0EA9
:10528300E50D22E0F50AA3E0F50B22F0850A8285FD
:105293000B83A3A32274F212037A8A088B09ECFE10
:1052A300EDFF890A790012532C7003A3E06970049F
:1052B30079018073750B01900368E065087004A39E
:1052C300E06509601F750B00780B120867A90AEEE9
:1052D300FCEFFDAA08AB09120FD874011208ABE961
:1052E300F50B80417900EEFAEFFB120DAAEA4B6051
:1052F3002B8A828B83A3A3A3A3A3A3E05418601CCC
:105303007508FE7509FF78081208638A828B83A3E8
:10531300A312069A126C231208AB80097901EEFAE4
:10532300EFFB120C84A90B8014120DB68A0C8B0DA3
:10533300A80CA90D900368E068221208AB7F06024F
:10534300059574F412037A75080775090C7A10121F
:10535300692B8B0BEA450B7003124654900353E001
:1053630014F0700C902A51E493900353F0120DC281
:105373007E007F00806C850882850983A3A3A3A395
:10538300E06059F46056E5082404F582E5091262E9
:10539300F37049850882850983A3A3A3A3A3E064CB
:1053A3000370197902850882850983124B7D85086C
:1053B30082850983A3A3125545120D0285088285B0
:1053C3000983A3A3A3A3A3E06401601085088285D6
:1053D300098374FEF0A30412549FE4F012381712E9
:1053E3003669902A40126A87408C7E007F0080399C
:1053F300120ECA8E088F0974037808120A26747F66
:105403002508FC740D3509FD7A0E7B0D120EB8EAE2
:105413004B70DD8E088F0974037808120A26125424
:105423006D126CCEE4F0123817902A47E493F8C358
:10543300EE98EF9400501B8E088F097403780812BE
:105443000A26125475E82407F582E91262F370D62E
:1054530080A17E007F00800A125480600214F01243
:105463003817126A8440F102400312547588828906
:105473008322747F2508F8740D3509F922EEF8EFBD
:10548300F9E875F006A4F8AAF075F006E9A42AF97C
:10549300741F28F582740D39F583E0221254A6A3F4
:1054A300A3A322F0850882850983A3A32274F7129C
:1054B300037A74E1120925ECFEEDFF750800EE4F47
:1054C30060728A828B83E0241C1263241250CB60A7
:1054D300638A828B83125545851882851983AC8232
:1054E300AD83EA241BF582EB1261F5EA241CF582F5
:1054F300EB125541120F0C740B120AF71255497037
:1055030003A3E069702E7402120AF7E064017024A9
:10551300741D120AF712433AE064017017741D12E6
:105523000AF712433CA3A3E0F88E828F83E06870EE
:1055330003750801A908741F023DB312527E34009B
:10554300F5831259E422122FBEE0682274F4120389
:105553007AE97024790090034D12433A1221418A6B
:105563000A8B0BAE0AAF0B74FE6E700374FF6F7081
:105573001A902A4EE4936013790190034D12433A33
:105583001221418A0A8B0BAE0AAF0B120F48023964
:105593007F74F612037A74F31209251216628A08CD
:1055A3008B09AE08AF09900368E06E7003A3E06F48
:1055B30060E9120F30EA6E7002EB6F60DEEEFAEF15
:1055C300FB120F9CE970D4EE4F60D08518828519C9
:1055D30083E4F004120AF7EEF0A3EF1255F7E97033
:1055E300BA74FE6E700374FF6F60B0EEFAEFFB7473
:1055F3000D023E5F123EE4120B6A22C082C0831288
:105603000F48023C2A7F0A02059574F212037AEAD4
:10561300FEEBFF8C0A8D0B8908740E120AF7E0F576
:105623000974FC6E700374FF6F70057900025340B8
:105633007900120DB68A0C8B0DAE0CAF0D9003687A
:10564300E06E7003A3E06F7006E509A2E650DCA9E3
:1056530009126B11706179007AFE7BFF126B117076
:105663005674185509700302574478007900800373
:105673001231B8902A401231AF4003025744E8FA7E
:10568300E9FBEA75F007A4FAACF075F007EBA42C7C
:10569300FB740D2AF582740C3BF583E0541870D02B
:1056A300E875F007A4F8AAF075F007E9A42AF974DD
:1056B3000728F8740C39F988828983A3A3A3A3A3C9
:1056C300A3E05418600974185509700302562E8814
:1056D300828983EEF0A3EFF074FE650A700474FF11
:1056E300650B600312586B88828983A3A3A3A3A3CA
:1056F300A3E509F0A2E0500D88828983A3A3A3A3A5
:10570300A3A3D2E2F07401650888828983A3A3A3CB
:10571300A3A37038740112588FE054186028902A9C
:1057230052E49388828983A3A3A3A3125859121026
:10573300868B0DEA450D600302562E7800790080B2
:10574300397902025630900367E080D7E064017034
:105753000302562E88828983A3A3A3A3A3A3E054A1
:10576300186007902A52E4938004900366E012487D
:1057730001E508F002562E1231B8902A48E493FA54
:10578300C3E89AE99400400302562E7A007B008016
:105793004BEAFCEBFDEC75F007A4FCAEF075F007EB
:1057A300EDA42EFD74092CF582740C3DF583125E75
:1057B30010E8FCE9FDEC75F017A4FC85F00975F021
:1057C30017EDA42509FD74972CF582740A3DF58322
:1057D300E06E7003A3E06F609E1236EC902A4012D5
:1057E300367940AD12488BEC6A7002ED6B7088E835
:1057F30075F017A4F8AAF075F017E9A42AF97497BD
:1058030028FE740A39FF7C177D007900EEFAEFFB5E
:1058130012164A8E828F8312587190037512584B59
:10582300A3A3A3A3A3A3E8F0A3E91258517401F01F
:10583300EE240E125DF47401125879120229EE243B
:105843000D125DF4E8025776123C48A3A322F0EE52
:10585300240F125E0522F0125862AA0AAB0B2290A3
:105863000375E0FCA3E0FD2288828983A3A3E50AF4
:10587300F0A3E50BF022F012587E22902A4BE4931A
:105883002401F8E43400F97A027B002212480DA3C4
:105893002274ED12037A8A088B09890E1259C240C9
:1058A300057905025990121926AA08AB09125A94D0
:1058B300902A3E125993650A7003E9650B70077AC3
:1058C300FE7BFF125A94902A3EE412599BE50A98F4
:1058D300E50B99400302598E12599F6012E50A7530
:1058E300F006A4F875F006E50B1259EA121710E555
:1058F3000E6018E50A75F006A4F8AAF075F006E53F
:105903000B125A16701A7901025990E50A75F006BE
:10591300A4F8AAF075F006E50B1259F7E4F0A3F02A
:10592300E50A75F006A4F8AAF075F006E50B12591E
:10593300B7A3125CA388828983A3AA82AB83125A7A
:10594300058A828B83E0603F12599F603A8E108FE5
:1059530011751200781012085FE50EC333FCE433AF
:10596300FDE50A75F006A4F50AA8F075F006E50B47
:10597300A428F50B7423250AF582740D350B1255F3
:105983004312368A1208AB790080027907026B272B
:10599300123311E822902A361264AE22E50A75F01A
:1059A30006A4F8AAF075F006E50B1259F2F8A3E085
:1059B300F9E84922A42A125B4B88828983A322EC4B
:1059C300FEEDFF902A49E493F8E9C39822F5831288
:1059D30059E412171022E50C126E0EE50D3400F592
:1059E30083E0FAA3E0FB221259F2FAA3E0FB2212AE
:1059F30059F7E022A42AF9742328F582740D39F5A6
:105A03008322E50EF0900ED6125A0F22E088828987
:105A130083F022125B6FF50CE93400F50DE50EC33C
:105A230033FAE433FB12170A850C82850D83EAF0FF
:105A3300A3EBF0850C82850D83125A40221248395C
:105A4300E8492274F412037AECFEEDFF740C120A97
:105A5300F7123E4D88088909125A94AC0AAD0BEC33
:105A6300F8EDF9902A3E125A9C5021E875F006A4ED
:105A7300F8AAF075F006E91259B7E08E828F831207
:105A83005AAF125AA5123E59790080027904024096
:105A930003120D388A0A8B0B22123682C3EC9AED5D
:105AA3009B2212483585088285098322125B842252
:105AB30074F612037A7E007F008028EEF8EFF9E88F
:105AC30075F006A4F8ACF075F006E9A42CF974217E
:105AD30028F582740D1267326A7003A3E06B605776
:105AE300123817126A8440D3126A7F7002E96F700A
:105AF3004674FE6A700374FF6B703C7E007F008007
:105B030003123817126A84502E12548070F3EEF881
:105B1300EFF9E875F006A4F8125B41125B766017A3
:105B2300125B5DF8E9125B5588821259D0850882B1
