:030000000200AD4E
:0C00AD00787FE4F6D8FD75811B0200F49A
:0A01F900C0F9A4B0999282F880903A
:06000300040AEFDFBF7FDD
:0E01EA00E4FEEEC39F50077D0DDDFE0E80F497
:0101F80022E4
:10000E00AE08AF097C037DE812014B8F82AE08AFBC
:10001E00097C037DE812014B7E007F64CFCDCFCEED
:10002E00CCCE12014B8E188F19AE08AF097C007D15
:10003E006412014B7E007F0ACFCDCFCECCCE120103
:10004E004B8E1A8F1BAE08AF097C007D0A12014B36
:10005E00AB05AA0475A0FFAF82EF9001F993547F10
:10006E00F580850AA07F501201EA75A0FFE519936D
:10007E00F580850BA07F501201EA75A0FFE51B935A
:10008E00F580850CA07F501201EA75A0FFAF03EF3B
:0E009E0093F580850DA07F501201EA75A0FF3A
:0100AC002231
:03000B00020203EB
:09020300758CFF758AFEB2B3325E
:1001A000758901C2B3758CFF758AFED2AFD2A9D210
:1001B0008CC2B0D2B0C2B030B2FDD2B1AF90750E29
:1001C000008F0FC2B1C3E50F94FBE50E940040060B
:1001D000750E00750FFAAE0EAF0F7C007D14120184
:0A01E000398E088F0912000E80C747
:1000B9000201A0E493A3F8E493A34003F68001F2BC
:1000C90008DFF48029E493A3F85407240CC8C33348
:1000D900C4540F4420C8834004F456800146F6DF17
:1000E900E4800B0102040810204080900003E47EA4
:1000F900019360BCA3FF543F30E509541FFEE4930C
:10010900A360010ECF54C025E060A840B8E493A3D2
:10011900FAE493A3F8E493A3C8C582C8CAC583CAFD
:10012900F0A3C8C582C8CAC583CADFE9DEE780BEB5
:0100090000F6
:10013900EF8DF0A4A8F0CF8CF0A428CE8DF0A42EDA
:02014900FE2294
:10014B00BC000BBE0029EF8DF084FFADF022E4CC98
:10015B00F875F008EF2FFFEE33FEEC33FCEE9DEC61
:10016B00984005FCEE9DFE0FD5F0E9E4CEFD22EDA7
:10017B00F8F5F0EE8420D21CFEADF075F008EF2FF1
:10018B00FFED33FD4007985006D5F0F222C398FDE2
:05019B000FD5F0EA227F
:00000001FF
